{
	"data": {
		"bytecode": {
			"linkReferences": {},
			"object": "60a0604052348015600e575f5ffd5b50336080526080516105e96100315f395f818160f901526101f301526105e95ff3fe608060405234801561000f575f5ffd5b5060043610610055575f3560e01c80631c45278114610059578063264492351461008157806394310e51146100cc578063f52433cb146100df578063f851a440146100f4575b5f5ffd5b61006c610067366004610509565b61011b565b60405190151581526020015b60405180910390f35b6100b461008f366004610509565b80516020818301810180515f825292820191909301209152546001600160a01b031681565b6040516001600160a01b039091168152602001610078565b6100b46100da366004610509565b610156565b6100f26100ed366004610543565b6101e8565b005b6100b47f000000000000000000000000000000000000000000000000000000000000000081565b5f5f6001600160a01b03165f83604051610135919061059d565b908152604051908190036020019020546001600160a01b0316141592915050565b5f5f5f83604051610167919061059d565b908152604051908190036020019020546001600160a01b03169050806101e25760405162461bcd60e51b815260206004820152602560248201527f446f6d61696e52656769737472793a20446f6d61696e206e6f742072656769736044820152641d195c995960da1b60648201526084015b60405180910390fd5b92915050565b336001600160a01b037f0000000000000000000000000000000000000000000000000000000000000000161461027a5760405162461bcd60e51b815260206004820152603160248201527f446f6d61696e52656769737472793a204f6e6c792061646d696e2063616e206360448201527030b636103a3434b990333ab731ba34b7b760791b60648201526084016101d9565b815f8151116102df5760405162461bcd60e51b815260206004820152602b60248201527f446f6d61696e52656769737472793a20446f6d61696e206e616d652063616e6e60448201526a6f7420626520656d70747960a81b60648201526084016101d9565b6001600160a01b03821661035b5760405162461bcd60e51b815260206004820152603760248201527f446f6d61696e52656769737472793a204f6666696369616c206164647265737360448201527f2063616e6e6f74206265207a65726f206164647265737300000000000000000060648201526084016101d9565b5f6001600160a01b03165f84604051610374919061059d565b908152604051908190036020019020546001600160a01b0316146103ec5760405162461bcd60e51b815260206004820152602960248201527f446f6d61696e52656769737472793a20446f6d61696e20616c726561647920726044820152681959da5cdd195c995960ba1b60648201526084016101d9565b815f846040516103fc919061059d565b90815260405190819003602001812080546001600160a01b039384166001600160a01b03199091161790559083169061043690859061059d565b604051908190038120907f70f2ff07e8136617cdfb0433423063c9dd697c507560d7860cce09fa86874a12905f90a3505050565b634e487b7160e01b5f52604160045260245ffd5b5f82601f83011261048d575f5ffd5b813567ffffffffffffffff8111156104a7576104a761046a565b604051601f8201601f19908116603f0116810167ffffffffffffffff811182821017156104d6576104d661046a565b6040528181528382016020018510156104ed575f5ffd5b816020850160208301375f918101602001919091529392505050565b5f60208284031215610519575f5ffd5b813567ffffffffffffffff81111561052f575f5ffd5b61053b8482850161047e565b949350505050565b5f5f60408385031215610554575f5ffd5b823567ffffffffffffffff81111561056a575f5ffd5b6105768582860161047e565b92505060208301356001600160a01b0381168114610592575f5ffd5b809150509250929050565b5f82518060208501845e5f92019182525091905056fea2646970667358221220de138af3ccd3145301b31c3d9bf37ef49a0487fe6cb5b2faec9ad3b8f0d3aa9e64736f6c634300081c0033",
			"opcodes": "PUSH1 0xA0 PUSH1 0x40 MSTORE CALLVALUE DUP1 ISZERO PUSH1 0xE JUMPI PUSH0 PUSH0 REVERT JUMPDEST POP CALLER PUSH1 0x80 MSTORE PUSH1 0x80 MLOAD PUSH2 0x5E9 PUSH2 0x31 PUSH0 CODECOPY PUSH0 DUP2 DUP2 PUSH1 0xF9 ADD MSTORE PUSH2 0x1F3 ADD MSTORE PUSH2 0x5E9 PUSH0 RETURN INVALID PUSH1 0x80 PUSH1 0x40 MSTORE CALLVALUE DUP1 ISZERO PUSH2 0xF JUMPI PUSH0 PUSH0 REVERT JUMPDEST POP PUSH1 0x4 CALLDATASIZE LT PUSH2 0x55 JUMPI PUSH0 CALLDATALOAD PUSH1 0xE0 SHR DUP1 PUSH4 0x1C452781 EQ PUSH2 0x59 JUMPI DUP1 PUSH4 0x26449235 EQ PUSH2 0x81 JUMPI DUP1 PUSH4 0x94310E51 EQ PUSH2 0xCC JUMPI DUP1 PUSH4 0xF52433CB EQ PUSH2 0xDF JUMPI DUP1 PUSH4 0xF851A440 EQ PUSH2 0xF4 JUMPI JUMPDEST PUSH0 PUSH0 REVERT JUMPDEST PUSH2 0x6C PUSH2 0x67 CALLDATASIZE PUSH1 0x4 PUSH2 0x509 JUMP JUMPDEST PUSH2 0x11B JUMP JUMPDEST PUSH1 0x40 MLOAD SWAP1 ISZERO ISZERO DUP2 MSTORE PUSH1 0x20 ADD JUMPDEST PUSH1 0x40 MLOAD DUP1 SWAP2 SUB SWAP1 RETURN JUMPDEST PUSH2 0xB4 PUSH2 0x8F CALLDATASIZE PUSH1 0x4 PUSH2 0x509 JUMP JUMPDEST DUP1 MLOAD PUSH1 0x20 DUP2 DUP4 ADD DUP2 ADD DUP1 MLOAD PUSH0 DUP3 MSTORE SWAP3 DUP3 ADD SWAP2 SWAP1 SWAP4 ADD KECCAK256 SWAP2 MSTORE SLOAD PUSH1 0x1 PUSH1 0x1 PUSH1 0xA0 SHL SUB AND DUP2 JUMP JUMPDEST PUSH1 0x40 MLOAD PUSH1 0x1 PUSH1 0x1 PUSH1 0xA0 SHL SUB SWAP1 SWAP2 AND DUP2 MSTORE PUSH1 0x20 ADD PUSH2 0x78 JUMP JUMPDEST PUSH2 0xB4 PUSH2 0xDA CALLDATASIZE PUSH1 0x4 PUSH2 0x509 JUMP JUMPDEST PUSH2 0x156 JUMP JUMPDEST PUSH2 0xF2 PUSH2 0xED CALLDATASIZE PUSH1 0x4 PUSH2 0x543 JUMP JUMPDEST PUSH2 0x1E8 JUMP JUMPDEST STOP JUMPDEST PUSH2 0xB4 PUSH32 0x0 DUP2 JUMP JUMPDEST PUSH0 PUSH0 PUSH1 0x1 PUSH1 0x1 PUSH1 0xA0 SHL SUB AND PUSH0 DUP4 PUSH1 0x40 MLOAD PUSH2 0x135 SWAP2 SWAP1 PUSH2 0x59D JUMP JUMPDEST SWAP1 DUP2 MSTORE PUSH1 0x40 MLOAD SWAP1 DUP2 SWAP1 SUB PUSH1 0x20 ADD SWAP1 KECCAK256 SLOAD PUSH1 0x1 PUSH1 0x1 PUSH1 0xA0 SHL SUB AND EQ ISZERO SWAP3 SWAP2 POP POP JUMP JUMPDEST PUSH0 PUSH0 PUSH0 DUP4 PUSH1 0x40 MLOAD PUSH2 0x167 SWAP2 SWAP1 PUSH2 0x59D JUMP JUMPDEST SWAP1 DUP2 MSTORE PUSH1 0x40 MLOAD SWAP1 DUP2 SWAP1 SUB PUSH1 0x20 ADD SWAP1 KECCAK256 SLOAD PUSH1 0x1 PUSH1 0x1 PUSH1 0xA0 SHL SUB AND SWAP1 POP DUP1 PUSH2 0x1E2 JUMPI PUSH1 0x40 MLOAD PUSH3 0x461BCD PUSH1 0xE5 SHL DUP2 MSTORE PUSH1 0x20 PUSH1 0x4 DUP3 ADD MSTORE PUSH1 0x25 PUSH1 0x24 DUP3 ADD MSTORE PUSH32 0x446F6D61696E52656769737472793A20446F6D61696E206E6F74207265676973 PUSH1 0x44 DUP3 ADD MSTORE PUSH5 0x1D195C9959 PUSH1 0xDA SHL PUSH1 0x64 DUP3 ADD MSTORE PUSH1 0x84 ADD JUMPDEST PUSH1 0x40 MLOAD DUP1 SWAP2 SUB SWAP1 REVERT JUMPDEST SWAP3 SWAP2 POP POP JUMP JUMPDEST CALLER PUSH1 0x1 PUSH1 0x1 PUSH1 0xA0 SHL SUB PUSH32 0x0 AND EQ PUSH2 0x27A JUMPI PUSH1 0x40 MLOAD PUSH3 0x461BCD PUSH1 0xE5 SHL DUP2 MSTORE PUSH1 0x20 PUSH1 0x4 DUP3 ADD MSTORE PUSH1 0x31 PUSH1 0x24 DUP3 ADD MSTORE PUSH32 0x446F6D61696E52656769737472793A204F6E6C792061646D696E2063616E2063 PUSH1 0x44 DUP3 ADD MSTORE PUSH17 0x30B636103A3434B990333AB731BA34B7B7 PUSH1 0x79 SHL PUSH1 0x64 DUP3 ADD MSTORE PUSH1 0x84 ADD PUSH2 0x1D9 JUMP JUMPDEST DUP2 PUSH0 DUP2 MLOAD GT PUSH2 0x2DF JUMPI PUSH1 0x40 MLOAD PUSH3 0x461BCD PUSH1 0xE5 SHL DUP2 MSTORE PUSH1 0x20 PUSH1 0x4 DUP3 ADD MSTORE PUSH1 0x2B PUSH1 0x24 DUP3 ADD MSTORE PUSH32 0x446F6D61696E52656769737472793A20446F6D61696E206E616D652063616E6E PUSH1 0x44 DUP3 ADD MSTORE PUSH11 0x6F7420626520656D707479 PUSH1 0xA8 SHL PUSH1 0x64 DUP3 ADD MSTORE PUSH1 0x84 ADD PUSH2 0x1D9 JUMP JUMPDEST PUSH1 0x1 PUSH1 0x1 PUSH1 0xA0 SHL SUB DUP3 AND PUSH2 0x35B JUMPI PUSH1 0x40 MLOAD PUSH3 0x461BCD PUSH1 0xE5 SHL DUP2 MSTORE PUSH1 0x20 PUSH1 0x4 DUP3 ADD MSTORE PUSH1 0x37 PUSH1 0x24 DUP3 ADD MSTORE PUSH32 0x446F6D61696E52656769737472793A204F6666696369616C2061646472657373 PUSH1 0x44 DUP3 ADD MSTORE PUSH32 0x2063616E6E6F74206265207A65726F2061646472657373000000000000000000 PUSH1 0x64 DUP3 ADD MSTORE PUSH1 0x84 ADD PUSH2 0x1D9 JUMP JUMPDEST PUSH0 PUSH1 0x1 PUSH1 0x1 PUSH1 0xA0 SHL SUB AND PUSH0 DUP5 PUSH1 0x40 MLOAD PUSH2 0x374 SWAP2 SWAP1 PUSH2 0x59D JUMP JUMPDEST SWAP1 DUP2 MSTORE PUSH1 0x40 MLOAD SWAP1 DUP2 SWAP1 SUB PUSH1 0x20 ADD SWAP1 KECCAK256 SLOAD PUSH1 0x1 PUSH1 0x1 PUSH1 0xA0 SHL SUB AND EQ PUSH2 0x3EC JUMPI PUSH1 0x40 MLOAD PUSH3 0x461BCD PUSH1 0xE5 SHL DUP2 MSTORE PUSH1 0x20 PUSH1 0x4 DUP3 ADD MSTORE PUSH1 0x29 PUSH1 0x24 DUP3 ADD MSTORE PUSH32 0x446F6D61696E52656769737472793A20446F6D61696E20616C72656164792072 PUSH1 0x44 DUP3 ADD MSTORE PUSH9 0x1959DA5CDD195C9959 PUSH1 0xBA SHL PUSH1 0x64 DUP3 ADD MSTORE PUSH1 0x84 ADD PUSH2 0x1D9 JUMP JUMPDEST DUP2 PUSH0 DUP5 PUSH1 0x40 MLOAD PUSH2 0x3FC SWAP2 SWAP1 PUSH2 0x59D JUMP JUMPDEST SWAP1 DUP2 MSTORE PUSH1 0x40 MLOAD SWAP1 DUP2 SWAP1 SUB PUSH1 0x20 ADD DUP2 KECCAK256 DUP1 SLOAD PUSH1 0x1 PUSH1 0x1 PUSH1 0xA0 SHL SUB SWAP4 DUP5 AND PUSH1 0x1 PUSH1 0x1 PUSH1 0xA0 SHL SUB NOT SWAP1 SWAP2 AND OR SWAP1 SSTORE SWAP1 DUP4 AND SWAP1 PUSH2 0x436 SWAP1 DUP6 SWAP1 PUSH2 0x59D JUMP JUMPDEST PUSH1 0x40 MLOAD SWAP1 DUP2 SWAP1 SUB DUP2 KECCAK256 SWAP1 PUSH32 0x70F2FF07E8136617CDFB0433423063C9DD697C507560D7860CCE09FA86874A12 SWAP1 PUSH0 SWAP1 LOG3 POP POP POP JUMP JUMPDEST PUSH4 0x4E487B71 PUSH1 0xE0 SHL PUSH0 MSTORE PUSH1 0x41 PUSH1 0x4 MSTORE PUSH1 0x24 PUSH0 REVERT JUMPDEST PUSH0 DUP3 PUSH1 0x1F DUP4 ADD SLT PUSH2 0x48D JUMPI PUSH0 PUSH0 REVERT JUMPDEST DUP2 CALLDATALOAD PUSH8 0xFFFFFFFFFFFFFFFF DUP2 GT ISZERO PUSH2 0x4A7 JUMPI PUSH2 0x4A7 PUSH2 0x46A JUMP JUMPDEST PUSH1 0x40 MLOAD PUSH1 0x1F DUP3 ADD PUSH1 0x1F NOT SWAP1 DUP2 AND PUSH1 0x3F ADD AND DUP2 ADD PUSH8 0xFFFFFFFFFFFFFFFF DUP2 GT DUP3 DUP3 LT OR ISZERO PUSH2 0x4D6 JUMPI PUSH2 0x4D6 PUSH2 0x46A JUMP JUMPDEST PUSH1 0x40 MSTORE DUP2 DUP2 MSTORE DUP4 DUP3 ADD PUSH1 0x20 ADD DUP6 LT ISZERO PUSH2 0x4ED JUMPI PUSH0 PUSH0 REVERT JUMPDEST DUP2 PUSH1 0x20 DUP6 ADD PUSH1 0x20 DUP4 ADD CALLDATACOPY PUSH0 SWAP2 DUP2 ADD PUSH1 0x20 ADD SWAP2 SWAP1 SWAP2 MSTORE SWAP4 SWAP3 POP POP POP JUMP JUMPDEST PUSH0 PUSH1 0x20 DUP3 DUP5 SUB SLT ISZERO PUSH2 0x519 JUMPI PUSH0 PUSH0 REVERT JUMPDEST DUP2 CALLDATALOAD PUSH8 0xFFFFFFFFFFFFFFFF DUP2 GT ISZERO PUSH2 0x52F JUMPI PUSH0 PUSH0 REVERT JUMPDEST PUSH2 0x53B DUP5 DUP3 DUP6 ADD PUSH2 0x47E JUMP JUMPDEST SWAP5 SWAP4 POP POP POP POP JUMP JUMPDEST PUSH0 PUSH0 PUSH1 0x40 DUP4 DUP6 SUB SLT ISZERO PUSH2 0x554 JUMPI PUSH0 PUSH0 REVERT JUMPDEST DUP3 CALLDATALOAD PUSH8 0xFFFFFFFFFFFFFFFF DUP2 GT ISZERO PUSH2 0x56A JUMPI PUSH0 PUSH0 REVERT JUMPDEST PUSH2 0x576 DUP6 DUP3 DUP7 ADD PUSH2 0x47E JUMP JUMPDEST SWAP3 POP POP PUSH1 0x20 DUP4 ADD CALLDATALOAD PUSH1 0x1 PUSH1 0x1 PUSH1 0xA0 SHL SUB DUP2 AND DUP2 EQ PUSH2 0x592 JUMPI PUSH0 PUSH0 REVERT JUMPDEST DUP1 SWAP2 POP POP SWAP3 POP SWAP3 SWAP1 POP JUMP JUMPDEST PUSH0 DUP3 MLOAD DUP1 PUSH1 0x20 DUP6 ADD DUP5 MCOPY PUSH0 SWAP3 ADD SWAP2 DUP3 MSTORE POP SWAP2 SWAP1 POP JUMP INVALID LOG2 PUSH5 0x6970667358 0x22 SLT KECCAK256 0xDE SGT DUP11 RETURN 0xCC 0xD3 EQ MSTORE8 ADD 0xB3 SHR RETURNDATASIZE SWAP12 RETURN PUSH31 0xF49A0487FE6CB5B2FAEC9AD3B8F0D3AA9E64736F6C634300081C0033000000 "
		},
		"gasEstimates": {
			"creation": {
				"codeDepositCost": "302600",
				"executionCost": "infinite",
				"totalCost": "infinite"
			},
			"external": {
				"admin()": "infinite",
				"domains(string)": "infinite",
				"getDomainAddress(string)": "infinite",
				"isDomainRegistered(string)": "infinite",
				"registerDomain(string,address)": "infinite"
			}
		},
		"methodIdentifiers": {
			"admin()": "f851a440",
			"domains(string)": "26449235",
			"getDomainAddress(string)": "94310e51",
			"isDomainRegistered(string)": "1c452781",
			"registerDomain(string,address)": "f52433cb"
		}
	},
	"abi": [
		{
			"inputs": [],
			"stateMutability": "nonpayable",
			"type": "constructor"
		},
		{
			"anonymous": false,
			"inputs": [
				{
					"indexed": true,
					"internalType": "string",
					"name": "domainName",
					"type": "string"
				},
				{
					"indexed": true,
					"internalType": "address",
					"name": "officialAddress",
					"type": "address"
				}
			],
			"name": "DomainRegistered",
			"type": "event"
		},
		{
			"inputs": [],
			"name": "admin",
			"outputs": [
				{
					"internalType": "address",
					"name": "",
					"type": "address"
				}
			],
			"stateMutability": "view",
			"type": "function"
		},
		{
			"inputs": [
				{
					"internalType": "string",
					"name": "",
					"type": "string"
				}
			],
			"name": "domains",
			"outputs": [
				{
					"internalType": "address",
					"name": "",
					"type": "address"
				}
			],
			"stateMutability": "view",
			"type": "function"
		},
		{
			"inputs": [
				{
					"internalType": "string",
					"name": "domainName",
					"type": "string"
				}
			],
			"name": "getDomainAddress",
			"outputs": [
				{
					"internalType": "address",
					"name": "",
					"type": "address"
				}
			],
			"stateMutability": "view",
			"type": "function"
		},
		{
			"inputs": [
				{
					"internalType": "string",
					"name": "domainName",
					"type": "string"
				}
			],
			"name": "isDomainRegistered",
			"outputs": [
				{
					"internalType": "bool",
					"name": "",
					"type": "bool"
				}
			],
			"stateMutability": "view",
			"type": "function"
		},
		{
			"inputs": [
				{
					"internalType": "string",
					"name": "domainName",
					"type": "string"
				},
				{
					"internalType": "address",
					"name": "officialAddress",
					"type": "address"
				}
			],
			"name": "registerDomain",
			"outputs": [],
			"stateMutability": "nonpayable",
			"type": "function"
		}
	]
}