{
	"data": {
		"bytecode": {
			"linkReferences": {},
			"object": "60a060405234801561000f575f5ffd5b50604051610ffc380380610ffc83398101604081905261002e916100bf565b6001600160a01b0381166100ae5760405162461bcd60e51b815260206004820152603560248201527f4d656d6f7279436f6e74726f6c3a20446f6d61696e207265676973747279206160448201527f6464726573732063616e6e6f74206265207a65726f0000000000000000000000606482015260840160405180910390fd5b6001600160a01b03166080526100ec565b5f602082840312156100cf575f5ffd5b81516001600160a01b03811681146100e5575f5ffd5b9392505050565b608051610ee46101185f395f818160ba0152818161062f015281816108010152610ae10152610ee45ff3fe608060405234801561000f575f5ffd5b50600436106100b1575f3560e01c80636dd644281161006e5780636dd644281461019957806374e12a86146101d3578063778146461461024157806383177db31461026e57806390e00623146102815780639a04f83914610294575f5ffd5b80630944a93d146100b55780630f26fe45146100f95780631d24eff41461010e5780632b5afa641461016057806338debead1461017357806341cde2ca14610186575b5f5ffd5b6100dc7f000000000000000000000000000000000000000000000000000000000000000081565b6040516001600160a01b0390911681526020015b60405180910390f35b61010c610107366004610bb4565b6102a7565b005b61012161011c366004610bb4565b6103e2565b6040516100f0919081516001600160a01b0390811682526020808401519083015260408084015190830152606092830151169181019190915260800190565b61010c61016e366004610be2565b610484565b61010c610181366004610ca3565b610514565b61010c610194366004610ce7565b6107c7565b6101c36101a7366004610bb4565b5f908152602081905260409020546001600160a01b0316151590565b60405190151581526020016100f0565b6102126101e1366004610bb4565b5f6020819052908152604090208054600182015460028301546003909301546001600160a01b039283169391921684565b604080516001600160a01b039586168152602081019490945283019190915290911660608201526080016100f0565b6101c361024f366004610d21565b600160209081525f928352604080842090915290825290205460ff1681565b6101c361027c366004610d58565b6108e5565b61010c61028f366004610be2565b6109ab565b61010c6102a2366004610ce7565b610aa7565b5f8181526020819052604090205481906001600160a01b031633146103395760405162461bcd60e51b815260206004820152603860248201527f4d656d6f7279436f6e74726f6c3a204f6e6c79206d656d6f7279206f776e657260448201527f2063616e20706572666f726d207468697320616374696f6e000000000000000060648201526084015b60405180910390fd5b5f8281526020819052604090205482906001600160a01b031661036e5760405162461bcd60e51b815260040161033090610d7b565b5f8381526020819052604080822080546001600160a01b0319808216835560018301859055600283018590556003909201805490921690915590516001600160a01b0390911691859183917fce43e25c3862a18fc518ceb279ba32211116b6898e5ea653f120559df2c168da91a350505050565b604080516080810182525f808252602080830182905282840182905260608301829052848252819052919091205482906001600160a01b03166104375760405162461bcd60e51b815260040161033090610d7b565b50505f9081526020818152604091829020825160808101845281546001600160a01b0390811682526001830154938201939093526002820154938101939093526003015416606082015290565b6001600160a01b0381166104aa5760405162461bcd60e51b815260040161033090610dbf565b335f8181526001602090815260408083206001600160a01b038616808552908352818420805460ff191690558151838152928301939093529192917f0a2382b7b0f44ee62df753c00034038c109332bf9b8f52418af74aa2859780fb91015b60405180910390a350565b805f8151116105355760405162461bcd60e51b815260040161033090610e14565b826105965760405162461bcd60e51b815260206004820152602b60248201527f4d656d6f7279436f6e74726f6c3a204d6574616461746120686173682063616e60448201526a6e6f74206265207a65726f60a81b6064820152608401610330565b5f838152602081905260409020546001600160a01b0316156106165760405162461bcd60e51b815260206004820152603360248201527f4d656d6f7279436f6e74726f6c3a204d656d6f727920776974682074686973206044820152726861736820616c72656164792065786973747360681b6064820152608401610330565b6040516394310e5160e01b81525f906001600160a01b037f000000000000000000000000000000000000000000000000000000000000000016906394310e5190610664908690600401610e5e565b602060405180830381865afa15801561067f573d5f5f3e3d5ffd5b505050506040513d601f19601f820116820180604052508101906106a39190610e93565b60408051608081018252338082526020808301898152428486019081526001600160a01b03808816606087018181525f8e8152808752898120985189549085166001600160a01b0319918216178a5595516001808b0191909155945160028a0155905160039098018054989093169790941696909617905583825280835285822094825293909152839020805460ff1916909217909155905191925085917f6c1a2d58efe5be4c401d24d5828cb48178c534c9aa1575f7b1d257aab89957549061076e908790610e5e565b60405180910390a3806001600160a01b0316336001600160a01b03167fc7e5c007251689b9bc3cb624f55714afc5988f3e3b4e20cc6a606d7bad6faeca856040516107b99190610e5e565b60405180910390a350505050565b805f8151116107e85760405162461bcd60e51b815260040161033090610e14565b6040516394310e5160e01b81525f906001600160a01b037f000000000000000000000000000000000000000000000000000000000000000016906394310e5190610836908690600401610e5e565b602060405180830381865afa158015610851573d5f5f3e3d5ffd5b505050506040513d601f19601f820116820180604052508101906108759190610e93565b335f8181526001602081815260408084206001600160a01b038716808652925292839020805460ff19169092179091559051929350917fc7e5c007251689b9bc3cb624f55714afc5988f3e3b4e20cc6a606d7bad6faeca906108d8908790610e5e565b60405180910390a3505050565b5f8281526020819052604081205483906001600160a01b031661091a5760405162461bcd60e51b815260040161033090610d7b565b5f8481526020818152604091829020825160808101845281546001600160a01b0390811680835260018401549483019490945260028301549482019490945260039091015483166060820152918516036109785760019250506109a4565b516001600160a01b039081165f9081526001602090815260408083209387168352929052205460ff1691505b5092915050565b6001600160a01b0381166109d15760405162461bcd60e51b815260040161033090610dbf565b336001600160a01b03821603610a405760405162461bcd60e51b815260206004820152602e60248201527f4d656d6f7279436f6e74726f6c3a2043616e6e6f74206772616e74206163636560448201526d39b9903a37903cb7bab939b2b63360911b6064820152608401610330565b335f8181526001602081815260408084206001600160a01b038716808652908352818520805460ff19169094179093558051828152918201939093529092917fc7e5c007251689b9bc3cb624f55714afc5988f3e3b4e20cc6a606d7bad6faeca9101610509565b805f815111610ac85760405162461bcd60e51b815260040161033090610e14565b6040516394310e5160e01b81525f906001600160a01b037f000000000000000000000000000000000000000000000000000000000000000016906394310e5190610b16908690600401610e5e565b602060405180830381865afa158015610b31573d5f5f3e3d5ffd5b505050506040513d601f19601f82011682018060405250810190610b559190610e93565b335f8181526001602090815260408083206001600160a01b038616808552925291829020805460ff191690559051929350917f0a2382b7b0f44ee62df753c00034038c109332bf9b8f52418af74aa2859780fb906108d8908790610e5e565b5f60208284031215610bc4575f5ffd5b5035919050565b6001600160a01b0381168114610bdf575f5ffd5b50565b5f60208284031215610bf2575f5ffd5b8135610bfd81610bcb565b9392505050565b634e487b7160e01b5f52604160045260245ffd5b5f82601f830112610c27575f5ffd5b813567ffffffffffffffff811115610c4157610c41610c04565b604051601f8201601f19908116603f0116810167ffffffffffffffff81118282101715610c7057610c70610c04565b604052818152838201602001851015610c87575f5ffd5b816020850160208301375f918101602001919091529392505050565b5f5f60408385031215610cb4575f5ffd5b82359150602083013567ffffffffffffffff811115610cd1575f5ffd5b610cdd85828601610c18565b9150509250929050565b5f60208284031215610cf7575f5ffd5b813567ffffffffffffffff811115610d0d575f5ffd5b610d1984828501610c18565b949350505050565b5f5f60408385031215610d32575f5ffd5b8235610d3d81610bcb565b91506020830135610d4d81610bcb565b809150509250929050565b5f5f60408385031215610d69575f5ffd5b823591506020830135610d4d81610bcb565b60208082526024908201527f4d656d6f7279436f6e74726f6c3a204d656d6f727920646f6573206e6f7420656040820152631e1a5cdd60e21b606082015260800190565b60208082526035908201527f4d656d6f7279436f6e74726f6c3a204772616e74656520616464726573732063604082015274616e6e6f74206265207a65726f206164647265737360581b606082015260800190565b6020808252602a908201527f4d656d6f7279436f6e74726f6c3a20446f6d61696e206e616d652063616e6e6f6040820152697420626520656d70747960b01b606082015260800190565b602081525f82518060208401528060208501604085015e5f604082850101526040601f19601f83011684010191505092915050565b5f60208284031215610ea3575f5ffd5b8151610bfd81610bcb56fea2646970667358221220e12ea7bb95bb98047b30ad06fa759b82ca73b8d19b2c85612067f3b29911f01664736f6c634300081c0033",
			"opcodes": "PUSH1 0xA0 PUSH1 0x40 MSTORE CALLVALUE DUP1 ISZERO PUSH2 0xF JUMPI PUSH0 PUSH0 REVERT JUMPDEST POP PUSH1 0x40 MLOAD PUSH2 0xFFC CODESIZE SUB DUP1 PUSH2 0xFFC DUP4 CODECOPY DUP2 ADD PUSH1 0x40 DUP2 SWAP1 MSTORE PUSH2 0x2E SWAP2 PUSH2 0xBF JUMP JUMPDEST PUSH1 0x1 PUSH1 0x1 PUSH1 0xA0 SHL SUB DUP2 AND PUSH2 0xAE JUMPI PUSH1 0x40 MLOAD PUSH3 0x461BCD PUSH1 0xE5 SHL DUP2 MSTORE PUSH1 0x20 PUSH1 0x4 DUP3 ADD MSTORE PUSH1 0x35 PUSH1 0x24 DUP3 ADD MSTORE PUSH32 0x4D656D6F7279436F6E74726F6C3A20446F6D61696E2072656769737472792061 PUSH1 0x44 DUP3 ADD MSTORE PUSH32 0x6464726573732063616E6E6F74206265207A65726F0000000000000000000000 PUSH1 0x64 DUP3 ADD MSTORE PUSH1 0x84 ADD PUSH1 0x40 MLOAD DUP1 SWAP2 SUB SWAP1 REVERT JUMPDEST PUSH1 0x1 PUSH1 0x1 PUSH1 0xA0 SHL SUB AND PUSH1 0x80 MSTORE PUSH2 0xEC JUMP JUMPDEST PUSH0 PUSH1 0x20 DUP3 DUP5 SUB SLT ISZERO PUSH2 0xCF JUMPI PUSH0 PUSH0 REVERT JUMPDEST DUP2 MLOAD PUSH1 0x1 PUSH1 0x1 PUSH1 0xA0 SHL SUB DUP2 AND DUP2 EQ PUSH2 0xE5 JUMPI PUSH0 PUSH0 REVERT JUMPDEST SWAP4 SWAP3 POP POP POP JUMP JUMPDEST PUSH1 0x80 MLOAD PUSH2 0xEE4 PUSH2 0x118 PUSH0 CODECOPY PUSH0 DUP2 DUP2 PUSH1 0xBA ADD MSTORE DUP2 DUP2 PUSH2 0x62F ADD MSTORE DUP2 DUP2 PUSH2 0x801 ADD MSTORE PUSH2 0xAE1 ADD MSTORE PUSH2 0xEE4 PUSH0 RETURN INVALID PUSH1 0x80 PUSH1 0x40 MSTORE CALLVALUE DUP1 ISZERO PUSH2 0xF JUMPI PUSH0 PUSH0 REVERT JUMPDEST POP PUSH1 0x4 CALLDATASIZE LT PUSH2 0xB1 JUMPI PUSH0 CALLDATALOAD PUSH1 0xE0 SHR DUP1 PUSH4 0x6DD64428 GT PUSH2 0x6E JUMPI DUP1 PUSH4 0x6DD64428 EQ PUSH2 0x199 JUMPI DUP1 PUSH4 0x74E12A86 EQ PUSH2 0x1D3 JUMPI DUP1 PUSH4 0x77814646 EQ PUSH2 0x241 JUMPI DUP1 PUSH4 0x83177DB3 EQ PUSH2 0x26E JUMPI DUP1 PUSH4 0x90E00623 EQ PUSH2 0x281 JUMPI DUP1 PUSH4 0x9A04F839 EQ PUSH2 0x294 JUMPI PUSH0 PUSH0 REVERT JUMPDEST DUP1 PUSH4 0x944A93D EQ PUSH2 0xB5 JUMPI DUP1 PUSH4 0xF26FE45 EQ PUSH2 0xF9 JUMPI DUP1 PUSH4 0x1D24EFF4 EQ PUSH2 0x10E JUMPI DUP1 PUSH4 0x2B5AFA64 EQ PUSH2 0x160 JUMPI DUP1 PUSH4 0x38DEBEAD EQ PUSH2 0x173 JUMPI DUP1 PUSH4 0x41CDE2CA EQ PUSH2 0x186 JUMPI JUMPDEST PUSH0 PUSH0 REVERT JUMPDEST PUSH2 0xDC PUSH32 0x0 DUP2 JUMP JUMPDEST PUSH1 0x40 MLOAD PUSH1 0x1 PUSH1 0x1 PUSH1 0xA0 SHL SUB SWAP1 SWAP2 AND DUP2 MSTORE PUSH1 0x20 ADD JUMPDEST PUSH1 0x40 MLOAD DUP1 SWAP2 SUB SWAP1 RETURN JUMPDEST PUSH2 0x10C PUSH2 0x107 CALLDATASIZE PUSH1 0x4 PUSH2 0xBB4 JUMP JUMPDEST PUSH2 0x2A7 JUMP JUMPDEST STOP JUMPDEST PUSH2 0x121 PUSH2 0x11C CALLDATASIZE PUSH1 0x4 PUSH2 0xBB4 JUMP JUMPDEST PUSH2 0x3E2 JUMP JUMPDEST PUSH1 0x40 MLOAD PUSH2 0xF0 SWAP2 SWAP1 DUP2 MLOAD PUSH1 0x1 PUSH1 0x1 PUSH1 0xA0 SHL SUB SWAP1 DUP2 AND DUP3 MSTORE PUSH1 0x20 DUP1 DUP5 ADD MLOAD SWAP1 DUP4 ADD MSTORE PUSH1 0x40 DUP1 DUP5 ADD MLOAD SWAP1 DUP4 ADD MSTORE PUSH1 0x60 SWAP3 DUP4 ADD MLOAD AND SWAP2 DUP2 ADD SWAP2 SWAP1 SWAP2 MSTORE PUSH1 0x80 ADD SWAP1 JUMP JUMPDEST PUSH2 0x10C PUSH2 0x16E CALLDATASIZE PUSH1 0x4 PUSH2 0xBE2 JUMP JUMPDEST PUSH2 0x484 JUMP JUMPDEST PUSH2 0x10C PUSH2 0x181 CALLDATASIZE PUSH1 0x4 PUSH2 0xCA3 JUMP JUMPDEST PUSH2 0x514 JUMP JUMPDEST PUSH2 0x10C PUSH2 0x194 CALLDATASIZE PUSH1 0x4 PUSH2 0xCE7 JUMP JUMPDEST PUSH2 0x7C7 JUMP JUMPDEST PUSH2 0x1C3 PUSH2 0x1A7 CALLDATASIZE PUSH1 0x4 PUSH2 0xBB4 JUMP JUMPDEST PUSH0 SWAP1 DUP2 MSTORE PUSH1 0x20 DUP2 SWAP1 MSTORE PUSH1 0x40 SWAP1 KECCAK256 SLOAD PUSH1 0x1 PUSH1 0x1 PUSH1 0xA0 SHL SUB AND ISZERO ISZERO SWAP1 JUMP JUMPDEST PUSH1 0x40 MLOAD SWAP1 ISZERO ISZERO DUP2 MSTORE PUSH1 0x20 ADD PUSH2 0xF0 JUMP JUMPDEST PUSH2 0x212 PUSH2 0x1E1 CALLDATASIZE PUSH1 0x4 PUSH2 0xBB4 JUMP JUMPDEST PUSH0 PUSH1 0x20 DUP2 SWAP1 MSTORE SWAP1 DUP2 MSTORE PUSH1 0x40 SWAP1 KECCAK256 DUP1 SLOAD PUSH1 0x1 DUP3 ADD SLOAD PUSH1 0x2 DUP4 ADD SLOAD PUSH1 0x3 SWAP1 SWAP4 ADD SLOAD PUSH1 0x1 PUSH1 0x1 PUSH1 0xA0 SHL SUB SWAP3 DUP4 AND SWAP4 SWAP2 SWAP3 AND DUP5 JUMP JUMPDEST PUSH1 0x40 DUP1 MLOAD PUSH1 0x1 PUSH1 0x1 PUSH1 0xA0 SHL SUB SWAP6 DUP7 AND DUP2 MSTORE PUSH1 0x20 DUP2 ADD SWAP5 SWAP1 SWAP5 MSTORE DUP4 ADD SWAP2 SWAP1 SWAP2 MSTORE SWAP1 SWAP2 AND PUSH1 0x60 DUP3 ADD MSTORE PUSH1 0x80 ADD PUSH2 0xF0 JUMP JUMPDEST PUSH2 0x1C3 PUSH2 0x24F CALLDATASIZE PUSH1 0x4 PUSH2 0xD21 JUMP JUMPDEST PUSH1 0x1 PUSH1 0x20 SWAP1 DUP2 MSTORE PUSH0 SWAP3 DUP4 MSTORE PUSH1 0x40 DUP1 DUP5 KECCAK256 SWAP1 SWAP2 MSTORE SWAP1 DUP3 MSTORE SWAP1 KECCAK256 SLOAD PUSH1 0xFF AND DUP2 JUMP JUMPDEST PUSH2 0x1C3 PUSH2 0x27C CALLDATASIZE PUSH1 0x4 PUSH2 0xD58 JUMP JUMPDEST PUSH2 0x8E5 JUMP JUMPDEST PUSH2 0x10C PUSH2 0x28F CALLDATASIZE PUSH1 0x4 PUSH2 0xBE2 JUMP JUMPDEST PUSH2 0x9AB JUMP JUMPDEST PUSH2 0x10C PUSH2 0x2A2 CALLDATASIZE PUSH1 0x4 PUSH2 0xCE7 JUMP JUMPDEST PUSH2 0xAA7 JUMP JUMPDEST PUSH0 DUP2 DUP2 MSTORE PUSH1 0x20 DUP2 SWAP1 MSTORE PUSH1 0x40 SWAP1 KECCAK256 SLOAD DUP2 SWAP1 PUSH1 0x1 PUSH1 0x1 PUSH1 0xA0 SHL SUB AND CALLER EQ PUSH2 0x339 JUMPI PUSH1 0x40 MLOAD PUSH3 0x461BCD PUSH1 0xE5 SHL DUP2 MSTORE PUSH1 0x20 PUSH1 0x4 DUP3 ADD MSTORE PUSH1 0x38 PUSH1 0x24 DUP3 ADD MSTORE PUSH32 0x4D656D6F7279436F6E74726F6C3A204F6E6C79206D656D6F7279206F776E6572 PUSH1 0x44 DUP3 ADD MSTORE PUSH32 0x2063616E20706572666F726D207468697320616374696F6E0000000000000000 PUSH1 0x64 DUP3 ADD MSTORE PUSH1 0x84 ADD JUMPDEST PUSH1 0x40 MLOAD DUP1 SWAP2 SUB SWAP1 REVERT JUMPDEST PUSH0 DUP3 DUP2 MSTORE PUSH1 0x20 DUP2 SWAP1 MSTORE PUSH1 0x40 SWAP1 KECCAK256 SLOAD DUP3 SWAP1 PUSH1 0x1 PUSH1 0x1 PUSH1 0xA0 SHL SUB AND PUSH2 0x36E JUMPI PUSH1 0x40 MLOAD PUSH3 0x461BCD PUSH1 0xE5 SHL DUP2 MSTORE PUSH1 0x4 ADD PUSH2 0x330 SWAP1 PUSH2 0xD7B JUMP JUMPDEST PUSH0 DUP4 DUP2 MSTORE PUSH1 0x20 DUP2 SWAP1 MSTORE PUSH1 0x40 DUP1 DUP3 KECCAK256 DUP1 SLOAD PUSH1 0x1 PUSH1 0x1 PUSH1 0xA0 SHL SUB NOT DUP1 DUP3 AND DUP4 SSTORE PUSH1 0x1 DUP4 ADD DUP6 SWAP1 SSTORE PUSH1 0x2 DUP4 ADD DUP6 SWAP1 SSTORE PUSH1 0x3 SWAP1 SWAP3 ADD DUP1 SLOAD SWAP1 SWAP3 AND SWAP1 SWAP2 SSTORE SWAP1 MLOAD PUSH1 0x1 PUSH1 0x1 PUSH1 0xA0 SHL SUB SWAP1 SWAP2 AND SWAP2 DUP6 SWAP2 DUP4 SWAP2 PUSH32 0xCE43E25C3862A18FC518CEB279BA32211116B6898E5EA653F120559DF2C168DA SWAP2 LOG3 POP POP POP POP JUMP JUMPDEST PUSH1 0x40 DUP1 MLOAD PUSH1 0x80 DUP2 ADD DUP3 MSTORE PUSH0 DUP1 DUP3 MSTORE PUSH1 0x20 DUP1 DUP4 ADD DUP3 SWAP1 MSTORE DUP3 DUP5 ADD DUP3 SWAP1 MSTORE PUSH1 0x60 DUP4 ADD DUP3 SWAP1 MSTORE DUP5 DUP3 MSTORE DUP2 SWAP1 MSTORE SWAP2 SWAP1 SWAP2 KECCAK256 SLOAD DUP3 SWAP1 PUSH1 0x1 PUSH1 0x1 PUSH1 0xA0 SHL SUB AND PUSH2 0x437 JUMPI PUSH1 0x40 MLOAD PUSH3 0x461BCD PUSH1 0xE5 SHL DUP2 MSTORE PUSH1 0x4 ADD PUSH2 0x330 SWAP1 PUSH2 0xD7B JUMP JUMPDEST POP POP PUSH0 SWAP1 DUP2 MSTORE PUSH1 0x20 DUP2 DUP2 MSTORE PUSH1 0x40 SWAP2 DUP3 SWAP1 KECCAK256 DUP3 MLOAD PUSH1 0x80 DUP2 ADD DUP5 MSTORE DUP2 SLOAD PUSH1 0x1 PUSH1 0x1 PUSH1 0xA0 SHL SUB SWAP1 DUP2 AND DUP3 MSTORE PUSH1 0x1 DUP4 ADD SLOAD SWAP4 DUP3 ADD SWAP4 SWAP1 SWAP4 MSTORE PUSH1 0x2 DUP3 ADD SLOAD SWAP4 DUP2 ADD SWAP4 SWAP1 SWAP4 MSTORE PUSH1 0x3 ADD SLOAD AND PUSH1 0x60 DUP3 ADD MSTORE SWAP1 JUMP JUMPDEST PUSH1 0x1 PUSH1 0x1 PUSH1 0xA0 SHL SUB DUP2 AND PUSH2 0x4AA JUMPI PUSH1 0x40 MLOAD PUSH3 0x461BCD PUSH1 0xE5 SHL DUP2 MSTORE PUSH1 0x4 ADD PUSH2 0x330 SWAP1 PUSH2 0xDBF JUMP JUMPDEST CALLER PUSH0 DUP2 DUP2 MSTORE PUSH1 0x1 PUSH1 0x20 SWAP1 DUP2 MSTORE PUSH1 0x40 DUP1 DUP4 KECCAK256 PUSH1 0x1 PUSH1 0x1 PUSH1 0xA0 SHL SUB DUP7 AND DUP1 DUP6 MSTORE SWAP1 DUP4 MSTORE DUP2 DUP5 KECCAK256 DUP1 SLOAD PUSH1 0xFF NOT AND SWAP1 SSTORE DUP2 MLOAD DUP4 DUP2 MSTORE SWAP3 DUP4 ADD SWAP4 SWAP1 SWAP4 MSTORE SWAP2 SWAP3 SWAP2 PUSH32 0xA2382B7B0F44EE62DF753C00034038C109332BF9B8F52418AF74AA2859780FB SWAP2 ADD JUMPDEST PUSH1 0x40 MLOAD DUP1 SWAP2 SUB SWAP1 LOG3 POP JUMP JUMPDEST DUP1 PUSH0 DUP2 MLOAD GT PUSH2 0x535 JUMPI PUSH1 0x40 MLOAD PUSH3 0x461BCD PUSH1 0xE5 SHL DUP2 MSTORE PUSH1 0x4 ADD PUSH2 0x330 SWAP1 PUSH2 0xE14 JUMP JUMPDEST DUP3 PUSH2 0x596 JUMPI PUSH1 0x40 MLOAD PUSH3 0x461BCD PUSH1 0xE5 SHL DUP2 MSTORE PUSH1 0x20 PUSH1 0x4 DUP3 ADD MSTORE PUSH1 0x2B PUSH1 0x24 DUP3 ADD MSTORE PUSH32 0x4D656D6F7279436F6E74726F6C3A204D6574616461746120686173682063616E PUSH1 0x44 DUP3 ADD MSTORE PUSH11 0x6E6F74206265207A65726F PUSH1 0xA8 SHL PUSH1 0x64 DUP3 ADD MSTORE PUSH1 0x84 ADD PUSH2 0x330 JUMP JUMPDEST PUSH0 DUP4 DUP2 MSTORE PUSH1 0x20 DUP2 SWAP1 MSTORE PUSH1 0x40 SWAP1 KECCAK256 SLOAD PUSH1 0x1 PUSH1 0x1 PUSH1 0xA0 SHL SUB AND ISZERO PUSH2 0x616 JUMPI PUSH1 0x40 MLOAD PUSH3 0x461BCD PUSH1 0xE5 SHL DUP2 MSTORE PUSH1 0x20 PUSH1 0x4 DUP3 ADD MSTORE PUSH1 0x33 PUSH1 0x24 DUP3 ADD MSTORE PUSH32 0x4D656D6F7279436F6E74726F6C3A204D656D6F72792077697468207468697320 PUSH1 0x44 DUP3 ADD MSTORE PUSH19 0x6861736820616C726561647920657869737473 PUSH1 0x68 SHL PUSH1 0x64 DUP3 ADD MSTORE PUSH1 0x84 ADD PUSH2 0x330 JUMP JUMPDEST PUSH1 0x40 MLOAD PUSH4 0x94310E51 PUSH1 0xE0 SHL DUP2 MSTORE PUSH0 SWAP1 PUSH1 0x1 PUSH1 0x1 PUSH1 0xA0 SHL SUB PUSH32 0x0 AND SWAP1 PUSH4 0x94310E51 SWAP1 PUSH2 0x664 SWAP1 DUP7 SWAP1 PUSH1 0x4 ADD PUSH2 0xE5E JUMP JUMPDEST PUSH1 0x20 PUSH1 0x40 MLOAD DUP1 DUP4 SUB DUP2 DUP7 GAS STATICCALL ISZERO DUP1 ISZERO PUSH2 0x67F JUMPI RETURNDATASIZE PUSH0 PUSH0 RETURNDATACOPY RETURNDATASIZE PUSH0 REVERT JUMPDEST POP POP POP POP PUSH1 0x40 MLOAD RETURNDATASIZE PUSH1 0x1F NOT PUSH1 0x1F DUP3 ADD AND DUP3 ADD DUP1 PUSH1 0x40 MSTORE POP DUP2 ADD SWAP1 PUSH2 0x6A3 SWAP2 SWAP1 PUSH2 0xE93 JUMP JUMPDEST PUSH1 0x40 DUP1 MLOAD PUSH1 0x80 DUP2 ADD DUP3 MSTORE CALLER DUP1 DUP3 MSTORE PUSH1 0x20 DUP1 DUP4 ADD DUP10 DUP2 MSTORE TIMESTAMP DUP5 DUP7 ADD SWAP1 DUP2 MSTORE PUSH1 0x1 PUSH1 0x1 PUSH1 0xA0 SHL SUB DUP1 DUP9 AND PUSH1 0x60 DUP8 ADD DUP2 DUP2 MSTORE PUSH0 DUP15 DUP2 MSTORE DUP1 DUP8 MSTORE DUP10 DUP2 KECCAK256 SWAP9 MLOAD DUP10 SLOAD SWAP1 DUP6 AND PUSH1 0x1 PUSH1 0x1 PUSH1 0xA0 SHL SUB NOT SWAP2 DUP3 AND OR DUP11 SSTORE SWAP6 MLOAD PUSH1 0x1 DUP1 DUP12 ADD SWAP2 SWAP1 SWAP2 SSTORE SWAP5 MLOAD PUSH1 0x2 DUP11 ADD SSTORE SWAP1 MLOAD PUSH1 0x3 SWAP1 SWAP9 ADD DUP1 SLOAD SWAP9 SWAP1 SWAP4 AND SWAP8 SWAP1 SWAP5 AND SWAP7 SWAP1 SWAP7 OR SWAP1 SSTORE DUP4 DUP3 MSTORE DUP1 DUP4 MSTORE DUP6 DUP3 KECCAK256 SWAP5 DUP3 MSTORE SWAP4 SWAP1 SWAP2 MSTORE DUP4 SWAP1 KECCAK256 DUP1 SLOAD PUSH1 0xFF NOT AND SWAP1 SWAP3 OR SWAP1 SWAP2 SSTORE SWAP1 MLOAD SWAP2 SWAP3 POP DUP6 SWAP2 PUSH32 0x6C1A2D58EFE5BE4C401D24D5828CB48178C534C9AA1575F7B1D257AAB8995754 SWAP1 PUSH2 0x76E SWAP1 DUP8 SWAP1 PUSH2 0xE5E JUMP JUMPDEST PUSH1 0x40 MLOAD DUP1 SWAP2 SUB SWAP1 LOG3 DUP1 PUSH1 0x1 PUSH1 0x1 PUSH1 0xA0 SHL SUB AND CALLER PUSH1 0x1 PUSH1 0x1 PUSH1 0xA0 SHL SUB AND PUSH32 0xC7E5C007251689B9BC3CB624F55714AFC5988F3E3B4E20CC6A606D7BAD6FAECA DUP6 PUSH1 0x40 MLOAD PUSH2 0x7B9 SWAP2 SWAP1 PUSH2 0xE5E JUMP JUMPDEST PUSH1 0x40 MLOAD DUP1 SWAP2 SUB SWAP1 LOG3 POP POP POP POP JUMP JUMPDEST DUP1 PUSH0 DUP2 MLOAD GT PUSH2 0x7E8 JUMPI PUSH1 0x40 MLOAD PUSH3 0x461BCD PUSH1 0xE5 SHL DUP2 MSTORE PUSH1 0x4 ADD PUSH2 0x330 SWAP1 PUSH2 0xE14 JUMP JUMPDEST PUSH1 0x40 MLOAD PUSH4 0x94310E51 PUSH1 0xE0 SHL DUP2 MSTORE PUSH0 SWAP1 PUSH1 0x1 PUSH1 0x1 PUSH1 0xA0 SHL SUB PUSH32 0x0 AND SWAP1 PUSH4 0x94310E51 SWAP1 PUSH2 0x836 SWAP1 DUP7 SWAP1 PUSH1 0x4 ADD PUSH2 0xE5E JUMP JUMPDEST PUSH1 0x20 PUSH1 0x40 MLOAD DUP1 DUP4 SUB DUP2 DUP7 GAS STATICCALL ISZERO DUP1 ISZERO PUSH2 0x851 JUMPI RETURNDATASIZE PUSH0 PUSH0 RETURNDATACOPY RETURNDATASIZE PUSH0 REVERT JUMPDEST POP POP POP POP PUSH1 0x40 MLOAD RETURNDATASIZE PUSH1 0x1F NOT PUSH1 0x1F DUP3 ADD AND DUP3 ADD DUP1 PUSH1 0x40 MSTORE POP DUP2 ADD SWAP1 PUSH2 0x875 SWAP2 SWAP1 PUSH2 0xE93 JUMP JUMPDEST CALLER PUSH0 DUP2 DUP2 MSTORE PUSH1 0x1 PUSH1 0x20 DUP2 DUP2 MSTORE PUSH1 0x40 DUP1 DUP5 KECCAK256 PUSH1 0x1 PUSH1 0x1 PUSH1 0xA0 SHL SUB DUP8 AND DUP1 DUP7 MSTORE SWAP3 MSTORE SWAP3 DUP4 SWAP1 KECCAK256 DUP1 SLOAD PUSH1 0xFF NOT AND SWAP1 SWAP3 OR SWAP1 SWAP2 SSTORE SWAP1 MLOAD SWAP3 SWAP4 POP SWAP2 PUSH32 0xC7E5C007251689B9BC3CB624F55714AFC5988F3E3B4E20CC6A606D7BAD6FAECA SWAP1 PUSH2 0x8D8 SWAP1 DUP8 SWAP1 PUSH2 0xE5E JUMP JUMPDEST PUSH1 0x40 MLOAD DUP1 SWAP2 SUB SWAP1 LOG3 POP POP POP JUMP JUMPDEST PUSH0 DUP3 DUP2 MSTORE PUSH1 0x20 DUP2 SWAP1 MSTORE PUSH1 0x40 DUP2 KECCAK256 SLOAD DUP4 SWAP1 PUSH1 0x1 PUSH1 0x1 PUSH1 0xA0 SHL SUB AND PUSH2 0x91A JUMPI PUSH1 0x40 MLOAD PUSH3 0x461BCD PUSH1 0xE5 SHL DUP2 MSTORE PUSH1 0x4 ADD PUSH2 0x330 SWAP1 PUSH2 0xD7B JUMP JUMPDEST PUSH0 DUP5 DUP2 MSTORE PUSH1 0x20 DUP2 DUP2 MSTORE PUSH1 0x40 SWAP2 DUP3 SWAP1 KECCAK256 DUP3 MLOAD PUSH1 0x80 DUP2 ADD DUP5 MSTORE DUP2 SLOAD PUSH1 0x1 PUSH1 0x1 PUSH1 0xA0 SHL SUB SWAP1 DUP2 AND DUP1 DUP4 MSTORE PUSH1 0x1 DUP5 ADD SLOAD SWAP5 DUP4 ADD SWAP5 SWAP1 SWAP5 MSTORE PUSH1 0x2 DUP4 ADD SLOAD SWAP5 DUP3 ADD SWAP5 SWAP1 SWAP5 MSTORE PUSH1 0x3 SWAP1 SWAP2 ADD SLOAD DUP4 AND PUSH1 0x60 DUP3 ADD MSTORE SWAP2 DUP6 AND SUB PUSH2 0x978 JUMPI PUSH1 0x1 SWAP3 POP POP PUSH2 0x9A4 JUMP JUMPDEST MLOAD PUSH1 0x1 PUSH1 0x1 PUSH1 0xA0 SHL SUB SWAP1 DUP2 AND PUSH0 SWAP1 DUP2 MSTORE PUSH1 0x1 PUSH1 0x20 SWAP1 DUP2 MSTORE PUSH1 0x40 DUP1 DUP4 KECCAK256 SWAP4 DUP8 AND DUP4 MSTORE SWAP3 SWAP1 MSTORE KECCAK256 SLOAD PUSH1 0xFF AND SWAP2 POP JUMPDEST POP SWAP3 SWAP2 POP POP JUMP JUMPDEST PUSH1 0x1 PUSH1 0x1 PUSH1 0xA0 SHL SUB DUP2 AND PUSH2 0x9D1 JUMPI PUSH1 0x40 MLOAD PUSH3 0x461BCD PUSH1 0xE5 SHL DUP2 MSTORE PUSH1 0x4 ADD PUSH2 0x330 SWAP1 PUSH2 0xDBF JUMP JUMPDEST CALLER PUSH1 0x1 PUSH1 0x1 PUSH1 0xA0 SHL SUB DUP3 AND SUB PUSH2 0xA40 JUMPI PUSH1 0x40 MLOAD PUSH3 0x461BCD PUSH1 0xE5 SHL DUP2 MSTORE PUSH1 0x20 PUSH1 0x4 DUP3 ADD MSTORE PUSH1 0x2E PUSH1 0x24 DUP3 ADD MSTORE PUSH32 0x4D656D6F7279436F6E74726F6C3A2043616E6E6F74206772616E742061636365 PUSH1 0x44 DUP3 ADD MSTORE PUSH14 0x39B9903A37903CB7BAB939B2B633 PUSH1 0x91 SHL PUSH1 0x64 DUP3 ADD MSTORE PUSH1 0x84 ADD PUSH2 0x330 JUMP JUMPDEST CALLER PUSH0 DUP2 DUP2 MSTORE PUSH1 0x1 PUSH1 0x20 DUP2 DUP2 MSTORE PUSH1 0x40 DUP1 DUP5 KECCAK256 PUSH1 0x1 PUSH1 0x1 PUSH1 0xA0 SHL SUB DUP8 AND DUP1 DUP7 MSTORE SWAP1 DUP4 MSTORE DUP2 DUP6 KECCAK256 DUP1 SLOAD PUSH1 0xFF NOT AND SWAP1 SWAP5 OR SWAP1 SWAP4 SSTORE DUP1 MLOAD DUP3 DUP2 MSTORE SWAP2 DUP3 ADD SWAP4 SWAP1 SWAP4 MSTORE SWAP1 SWAP3 SWAP2 PUSH32 0xC7E5C007251689B9BC3CB624F55714AFC5988F3E3B4E20CC6A606D7BAD6FAECA SWAP2 ADD PUSH2 0x509 JUMP JUMPDEST DUP1 PUSH0 DUP2 MLOAD GT PUSH2 0xAC8 JUMPI PUSH1 0x40 MLOAD PUSH3 0x461BCD PUSH1 0xE5 SHL DUP2 MSTORE PUSH1 0x4 ADD PUSH2 0x330 SWAP1 PUSH2 0xE14 JUMP JUMPDEST PUSH1 0x40 MLOAD PUSH4 0x94310E51 PUSH1 0xE0 SHL DUP2 MSTORE PUSH0 SWAP1 PUSH1 0x1 PUSH1 0x1 PUSH1 0xA0 SHL SUB PUSH32 0x0 AND SWAP1 PUSH4 0x94310E51 SWAP1 PUSH2 0xB16 SWAP1 DUP7 SWAP1 PUSH1 0x4 ADD PUSH2 0xE5E JUMP JUMPDEST PUSH1 0x20 PUSH1 0x40 MLOAD DUP1 DUP4 SUB DUP2 DUP7 GAS STATICCALL ISZERO DUP1 ISZERO PUSH2 0xB31 JUMPI RETURNDATASIZE PUSH0 PUSH0 RETURNDATACOPY RETURNDATASIZE PUSH0 REVERT JUMPDEST POP POP POP POP PUSH1 0x40 MLOAD RETURNDATASIZE PUSH1 0x1F NOT PUSH1 0x1F DUP3 ADD AND DUP3 ADD DUP1 PUSH1 0x40 MSTORE POP DUP2 ADD SWAP1 PUSH2 0xB55 SWAP2 SWAP1 PUSH2 0xE93 JUMP JUMPDEST CALLER PUSH0 DUP2 DUP2 MSTORE PUSH1 0x1 PUSH1 0x20 SWAP1 DUP2 MSTORE PUSH1 0x40 DUP1 DUP4 KECCAK256 PUSH1 0x1 PUSH1 0x1 PUSH1 0xA0 SHL SUB DUP7 AND DUP1 DUP6 MSTORE SWAP3 MSTORE SWAP2 DUP3 SWAP1 KECCAK256 DUP1 SLOAD PUSH1 0xFF NOT AND SWAP1 SSTORE SWAP1 MLOAD SWAP3 SWAP4 POP SWAP2 PUSH32 0xA2382B7B0F44EE62DF753C00034038C109332BF9B8F52418AF74AA2859780FB SWAP1 PUSH2 0x8D8 SWAP1 DUP8 SWAP1 PUSH2 0xE5E JUMP JUMPDEST PUSH0 PUSH1 0x20 DUP3 DUP5 SUB SLT ISZERO PUSH2 0xBC4 JUMPI PUSH0 PUSH0 REVERT JUMPDEST POP CALLDATALOAD SWAP2 SWAP1 POP JUMP JUMPDEST PUSH1 0x1 PUSH1 0x1 PUSH1 0xA0 SHL SUB DUP2 AND DUP2 EQ PUSH2 0xBDF JUMPI PUSH0 PUSH0 REVERT JUMPDEST POP JUMP JUMPDEST PUSH0 PUSH1 0x20 DUP3 DUP5 SUB SLT ISZERO PUSH2 0xBF2 JUMPI PUSH0 PUSH0 REVERT JUMPDEST DUP2 CALLDATALOAD PUSH2 0xBFD DUP2 PUSH2 0xBCB JUMP JUMPDEST SWAP4 SWAP3 POP POP POP JUMP JUMPDEST PUSH4 0x4E487B71 PUSH1 0xE0 SHL PUSH0 MSTORE PUSH1 0x41 PUSH1 0x4 MSTORE PUSH1 0x24 PUSH0 REVERT JUMPDEST PUSH0 DUP3 PUSH1 0x1F DUP4 ADD SLT PUSH2 0xC27 JUMPI PUSH0 PUSH0 REVERT JUMPDEST DUP2 CALLDATALOAD PUSH8 0xFFFFFFFFFFFFFFFF DUP2 GT ISZERO PUSH2 0xC41 JUMPI PUSH2 0xC41 PUSH2 0xC04 JUMP JUMPDEST PUSH1 0x40 MLOAD PUSH1 0x1F DUP3 ADD PUSH1 0x1F NOT SWAP1 DUP2 AND PUSH1 0x3F ADD AND DUP2 ADD PUSH8 0xFFFFFFFFFFFFFFFF DUP2 GT DUP3 DUP3 LT OR ISZERO PUSH2 0xC70 JUMPI PUSH2 0xC70 PUSH2 0xC04 JUMP JUMPDEST PUSH1 0x40 MSTORE DUP2 DUP2 MSTORE DUP4 DUP3 ADD PUSH1 0x20 ADD DUP6 LT ISZERO PUSH2 0xC87 JUMPI PUSH0 PUSH0 REVERT JUMPDEST DUP2 PUSH1 0x20 DUP6 ADD PUSH1 0x20 DUP4 ADD CALLDATACOPY PUSH0 SWAP2 DUP2 ADD PUSH1 0x20 ADD SWAP2 SWAP1 SWAP2 MSTORE SWAP4 SWAP3 POP POP POP JUMP JUMPDEST PUSH0 PUSH0 PUSH1 0x40 DUP4 DUP6 SUB SLT ISZERO PUSH2 0xCB4 JUMPI PUSH0 PUSH0 REVERT JUMPDEST DUP3 CALLDATALOAD SWAP2 POP PUSH1 0x20 DUP4 ADD CALLDATALOAD PUSH8 0xFFFFFFFFFFFFFFFF DUP2 GT ISZERO PUSH2 0xCD1 JUMPI PUSH0 PUSH0 REVERT JUMPDEST PUSH2 0xCDD DUP6 DUP3 DUP7 ADD PUSH2 0xC18 JUMP JUMPDEST SWAP2 POP POP SWAP3 POP SWAP3 SWAP1 POP JUMP JUMPDEST PUSH0 PUSH1 0x20 DUP3 DUP5 SUB SLT ISZERO PUSH2 0xCF7 JUMPI PUSH0 PUSH0 REVERT JUMPDEST DUP2 CALLDATALOAD PUSH8 0xFFFFFFFFFFFFFFFF DUP2 GT ISZERO PUSH2 0xD0D JUMPI PUSH0 PUSH0 REVERT JUMPDEST PUSH2 0xD19 DUP5 DUP3 DUP6 ADD PUSH2 0xC18 JUMP JUMPDEST SWAP5 SWAP4 POP POP POP POP JUMP JUMPDEST PUSH0 PUSH0 PUSH1 0x40 DUP4 DUP6 SUB SLT ISZERO PUSH2 0xD32 JUMPI PUSH0 PUSH0 REVERT JUMPDEST DUP3 CALLDATALOAD PUSH2 0xD3D DUP2 PUSH2 0xBCB JUMP JUMPDEST SWAP2 POP PUSH1 0x20 DUP4 ADD CALLDATALOAD PUSH2 0xD4D DUP2 PUSH2 0xBCB JUMP JUMPDEST DUP1 SWAP2 POP POP SWAP3 POP SWAP3 SWAP1 POP JUMP JUMPDEST PUSH0 PUSH0 PUSH1 0x40 DUP4 DUP6 SUB SLT ISZERO PUSH2 0xD69 JUMPI PUSH0 PUSH0 REVERT JUMPDEST DUP3 CALLDATALOAD SWAP2 POP PUSH1 0x20 DUP4 ADD CALLDATALOAD PUSH2 0xD4D DUP2 PUSH2 0xBCB JUMP JUMPDEST PUSH1 0x20 DUP1 DUP3 MSTORE PUSH1 0x24 SWAP1 DUP3 ADD MSTORE PUSH32 0x4D656D6F7279436F6E74726F6C3A204D656D6F727920646F6573206E6F742065 PUSH1 0x40 DUP3 ADD MSTORE PUSH4 0x1E1A5CDD PUSH1 0xE2 SHL PUSH1 0x60 DUP3 ADD MSTORE PUSH1 0x80 ADD SWAP1 JUMP JUMPDEST PUSH1 0x20 DUP1 DUP3 MSTORE PUSH1 0x35 SWAP1 DUP3 ADD MSTORE PUSH32 0x4D656D6F7279436F6E74726F6C3A204772616E74656520616464726573732063 PUSH1 0x40 DUP3 ADD MSTORE PUSH21 0x616E6E6F74206265207A65726F2061646472657373 PUSH1 0x58 SHL PUSH1 0x60 DUP3 ADD MSTORE PUSH1 0x80 ADD SWAP1 JUMP JUMPDEST PUSH1 0x20 DUP1 DUP3 MSTORE PUSH1 0x2A SWAP1 DUP3 ADD MSTORE PUSH32 0x4D656D6F7279436F6E74726F6C3A20446F6D61696E206E616D652063616E6E6F PUSH1 0x40 DUP3 ADD MSTORE PUSH10 0x7420626520656D707479 PUSH1 0xB0 SHL PUSH1 0x60 DUP3 ADD MSTORE PUSH1 0x80 ADD SWAP1 JUMP JUMPDEST PUSH1 0x20 DUP2 MSTORE PUSH0 DUP3 MLOAD DUP1 PUSH1 0x20 DUP5 ADD MSTORE DUP1 PUSH1 0x20 DUP6 ADD PUSH1 0x40 DUP6 ADD MCOPY PUSH0 PUSH1 0x40 DUP3 DUP6 ADD ADD MSTORE PUSH1 0x40 PUSH1 0x1F NOT PUSH1 0x1F DUP4 ADD AND DUP5 ADD ADD SWAP2 POP POP SWAP3 SWAP2 POP POP JUMP JUMPDEST PUSH0 PUSH1 0x20 DUP3 DUP5 SUB SLT ISZERO PUSH2 0xEA3 JUMPI PUSH0 PUSH0 REVERT JUMPDEST DUP2 MLOAD PUSH2 0xBFD DUP2 PUSH2 0xBCB JUMP INVALID LOG2 PUSH5 0x6970667358 0x22 SLT KECCAK256 0xE1 0x2E 0xA7 0xBB SWAP6 0xBB SWAP9 DIV PUSH28 0x30AD06FA759B82CA73B8D19B2C85612067F3B29911F01664736F6C63 NUMBER STOP ADDMOD SHR STOP CALLER "
		},
		"gasEstimates": {
			"creation": {
				"codeDepositCost": "762400",
				"executionCost": "infinite",
				"totalCost": "infinite"
			},
			"external": {
				"accessList(address,address)": "infinite",
				"addMemory(bytes32,string)": "infinite",
				"deleteMemory(bytes32)": "64791",
				"domainRegistry()": "infinite",
				"getMemory(bytes32)": "11401",
				"grantAccessToDomain(string)": "infinite",
				"grantAccessToUser(address)": "26957",
				"hasAccess(bytes32,address)": "13618",
				"isMemoryExists(bytes32)": "2468",
				"memories(bytes32)": "8922",
				"revokeAccessFromDomain(string)": "infinite",
				"revokeAccessFromUser(address)": "26873"
			}
		},
		"methodIdentifiers": {
			"accessList(address,address)": "77814646",
			"addMemory(bytes32,string)": "38debead",
			"deleteMemory(bytes32)": "0f26fe45",
			"domainRegistry()": "0944a93d",
			"getMemory(bytes32)": "1d24eff4",
			"grantAccessToDomain(string)": "41cde2ca",
			"grantAccessToUser(address)": "90e00623",
			"hasAccess(bytes32,address)": "83177db3",
			"isMemoryExists(bytes32)": "6dd64428",
			"memories(bytes32)": "74e12a86",
			"revokeAccessFromDomain(string)": "9a04f839",
			"revokeAccessFromUser(address)": "2b5afa64"
		}
	},
	"abi": [
		{
			"inputs": [
				{
					"internalType": "address",
					"name": "_domainRegistry",
					"type": "address"
				}
			],
			"stateMutability": "nonpayable",
			"type": "constructor"
		},
		{
			"anonymous": false,
			"inputs": [
				{
					"indexed": true,
					"internalType": "address",
					"name": "owner",
					"type": "address"
				},
				{
					"indexed": true,
					"internalType": "address",
					"name": "grantee",
					"type": "address"
				},
				{
					"indexed": false,
					"internalType": "string",
					"name": "granteeDomain",
					"type": "string"
				}
			],
			"name": "AccessGranted",
			"type": "event"
		},
		{
			"anonymous": false,
			"inputs": [
				{
					"indexed": true,
					"internalType": "address",
					"name": "owner",
					"type": "address"
				},
				{
					"indexed": true,
					"internalType": "address",
					"name": "grantee",
					"type": "address"
				},
				{
					"indexed": false,
					"internalType": "string",
					"name": "granteeDomain",
					"type": "string"
				}
			],
			"name": "AccessRevoked",
			"type": "event"
		},
		{
			"anonymous": false,
			"inputs": [
				{
					"indexed": true,
					"internalType": "address",
					"name": "owner",
					"type": "address"
				},
				{
					"indexed": true,
					"internalType": "bytes32",
					"name": "memoryId",
					"type": "bytes32"
				},
				{
					"indexed": false,
					"internalType": "string",
					"name": "sourceDomainName",
					"type": "string"
				}
			],
			"name": "MemoryAdded",
			"type": "event"
		},
		{
			"anonymous": false,
			"inputs": [
				{
					"indexed": true,
					"internalType": "address",
					"name": "owner",
					"type": "address"
				},
				{
					"indexed": true,
					"internalType": "bytes32",
					"name": "memoryId",
					"type": "bytes32"
				}
			],
			"name": "MemoryDeleted",
			"type": "event"
		},
		{
			"inputs": [
				{
					"internalType": "address",
					"name": "",
					"type": "address"
				},
				{
					"internalType": "address",
					"name": "",
					"type": "address"
				}
			],
			"name": "accessList",
			"outputs": [
				{
					"internalType": "bool",
					"name": "",
					"type": "bool"
				}
			],
			"stateMutability": "view",
			"type": "function"
		},
		{
			"inputs": [
				{
					"internalType": "bytes32",
					"name": "metadataHash",
					"type": "bytes32"
				},
				{
					"internalType": "string",
					"name": "sourceDomainName",
					"type": "string"
				}
			],
			"name": "addMemory",
			"outputs": [],
			"stateMutability": "nonpayable",
			"type": "function"
		},
		{
			"inputs": [
				{
					"internalType": "bytes32",
					"name": "memoryId",
					"type": "bytes32"
				}
			],
			"name": "deleteMemory",
			"outputs": [],
			"stateMutability": "nonpayable",
			"type": "function"
		},
		{
			"inputs": [],
			"name": "domainRegistry",
			"outputs": [
				{
					"internalType": "contract IDomainRegistry",
					"name": "",
					"type": "address"
				}
			],
			"stateMutability": "view",
			"type": "function"
		},
		{
			"inputs": [
				{
					"internalType": "bytes32",
					"name": "memoryId",
					"type": "bytes32"
				}
			],
			"name": "getMemory",
			"outputs": [
				{
					"components": [
						{
							"internalType": "address",
							"name": "owner",
							"type": "address"
						},
						{
							"internalType": "bytes32",
							"name": "metadataHash",
							"type": "bytes32"
						},
						{
							"internalType": "uint256",
							"name": "createdAt",
							"type": "uint256"
						},
						{
							"internalType": "address",
							"name": "sourceDomain",
							"type": "address"
						}
					],
					"internalType": "struct MemoryControl.Memory",
					"name": "",
					"type": "tuple"
				}
			],
			"stateMutability": "view",
			"type": "function"
		},
		{
			"inputs": [
				{
					"internalType": "string",
					"name": "domainName",
					"type": "string"
				}
			],
			"name": "grantAccessToDomain",
			"outputs": [],
			"stateMutability": "nonpayable",
			"type": "function"
		},
		{
			"inputs": [
				{
					"internalType": "address",
					"name": "grantee",
					"type": "address"
				}
			],
			"name": "grantAccessToUser",
			"outputs": [],
			"stateMutability": "nonpayable",
			"type": "function"
		},
		{
			"inputs": [
				{
					"internalType": "bytes32",
					"name": "memoryId",
					"type": "bytes32"
				},
				{
					"internalType": "address",
					"name": "grantee",
					"type": "address"
				}
			],
			"name": "hasAccess",
			"outputs": [
				{
					"internalType": "bool",
					"name": "",
					"type": "bool"
				}
			],
			"stateMutability": "view",
			"type": "function"
		},
		{
			"inputs": [
				{
					"internalType": "bytes32",
					"name": "memoryId",
					"type": "bytes32"
				}
			],
			"name": "isMemoryExists",
			"outputs": [
				{
					"internalType": "bool",
					"name": "",
					"type": "bool"
				}
			],
			"stateMutability": "view",
			"type": "function"
		},
		{
			"inputs": [
				{
					"internalType": "bytes32",
					"name": "",
					"type": "bytes32"
				}
			],
			"name": "memories",
			"outputs": [
				{
					"internalType": "address",
					"name": "owner",
					"type": "address"
				},
				{
					"internalType": "bytes32",
					"name": "metadataHash",
					"type": "bytes32"
				},
				{
					"internalType": "uint256",
					"name": "createdAt",
					"type": "uint256"
				},
				{
					"internalType": "address",
					"name": "sourceDomain",
					"type": "address"
				}
			],
			"stateMutability": "view",
			"type": "function"
		},
		{
			"inputs": [
				{
					"internalType": "string",
					"name": "domainName",
					"type": "string"
				}
			],
			"name": "revokeAccessFromDomain",
			"outputs": [],
			"stateMutability": "nonpayable",
			"type": "function"
		},
		{
			"inputs": [
				{
					"internalType": "address",
					"name": "grantee",
					"type": "address"
				}
			],
			"name": "revokeAccessFromUser",
			"outputs": [],
			"stateMutability": "nonpayable",
			"type": "function"
		}
	]
}