{
	"data": {
		"bytecode": {
			"linkReferences": {},
			"object": "60a060405234801561000f575f5ffd5b5060405161362238038061362283398101604081905261002e916100bf565b6001600160a01b0381166100ae5760405162461bcd60e51b815260206004820152603560248201527f4d656d6f7279436f6e74726f6c3a20446f6d61696e207265676973747279206160448201527f6464726573732063616e6e6f74206265207a65726f0000000000000000000000606482015260840160405180910390fd5b6001600160a01b03166080526100ec565b5f602082840312156100cf575f5ffd5b81516001600160a01b03811681146100e5575f5ffd5b9392505050565b6080516134d16101515f395f818161024f01528181610dea01528181610fe20152818161118b015281816116d801528181611ac501528181611dbc0152818161217e015281816123030152818161247c0152818161259a01526129c401526134d15ff3fe608060405234801561000f575f5ffd5b506004361061021e575f3560e01c806376e042a21161012a5780639b059c97116100b4578063edfba33611610079578063edfba336146105bd578063ee1c34ad146105d0578063f5149c52146105f0578063f842044314610603578063ff57706a14610636575f5ffd5b80639b059c971461050c578063abf99fc91461053c578063cdd145901461054f578063dc10008314610562578063e605569b146105aa575f5ffd5b80638d9beb1a116100fa5780638d9beb1a1461049657806390e00623146104a9578063925c879c146104bc5780639a04f839146104cf5780639aa1e8d2146104e2575f5ffd5b806376e042a214610430578063778146461461044357806383177db3146104705780638ae5a7f614610483575f5ffd5b80635170aca7116101ab5780637062e1e01161017b5780637062e1e0146103c057806372e6ffec146103d357806374e12a86146103e65780637602ade01461040a578063761b232b1461041d575f5ffd5b80635170aca71461035d57806367c69535146103705780636c8c7a6f146103835780636dd6442814610396575f5ffd5b80632b5afa64116101f15780632b5afa64146102be57806338debead146102d157806341411ec1146102e457806341cde2ca146103375780634d392dfe1461034a575f5ffd5b806301a085f9146102225780630944a93d1461024a5780630f26fe45146102895780631d24eff41461029e575b5f5ffd5b610235610230366004612b32565b610649565b60405190151581526020015b60405180910390f35b6102717f000000000000000000000000000000000000000000000000000000000000000081565b6040516001600160a01b039091168152602001610241565b61029c610297366004612b60565b6109eb565b005b6102b16102ac366004612b60565b610ae1565b6040516102419190612ba5565b61029c6102cc366004612bff565b610c3f565b61029c6102df366004612cbe565b610ccf565b6103296102f2366004612d01565b600660209081525f938452604080852082529284529190922082518084018301805192815290830193909201929092209190525481565b604051908152602001610241565b61029c610345366004612d5e565b610fa8565b61029c610358366004612d8f565b6110c6565b61029c61036b366004612dd8565b6112ad565b61029c61037e366004612e0e565b6113ac565b610235610391366004612e40565b611534565b6102356103a4366004612b60565b5f908152602081905260409020546001600160a01b0316151590565b61029c6103ce366004612e40565b6115a1565b61029c6103e1366004612d5e565b61169e565b6103f96103f4366004612b60565b6117c2565b604051610241959493929190612e6a565b61029c610418366004612e40565b611885565b61029c61042b366004612e40565b6119b7565b61029c61043e366004612eae565b611a6c565b610235610451366004612eef565b600160209081525f928352604080842090915290825290205460ff1681565b61023561047e366004612b32565b611bd1565b61029c610491366004612f1b565b611d42565b61029c6104a4366004612f87565b611f23565b61029c6104b7366004612bff565b61208f565b61029c6104ca366004612fbe565b612144565b61029c6104dd366004612d5e565b6122c9565b6103296104f0366004612eef565b600260209081525f928352604080842090915290825290205481565b61032961051a36600461300b565b600460209081525f938452604080852082529284528284209052825290205481565b61029c61054a366004612eae565b6123d6565b61029c61055d366004612eae565b612560565b610235610570366004612d01565b600560209081525f938452604080852082529284529190922082518084018301805192815290830193909201929092209190525460ff1681565b6102356105b8366004612bff565b612698565b61029c6105cb366004612dd8565b6126f2565b6105e36105de366004612b60565b6127f4565b6040516102419190613049565b61029c6105fe366004612bff565b6128cb565b61023561061136600461300b565b600360209081525f938452604080852082529284528284209052825290205460ff1681565b61029c610644366004612fbe565b612969565b5f8281526020819052604081205483906001600160a01b03166106875760405162461bcd60e51b815260040161067e9061305b565b60405180910390fd5b5f84815260208181526040808320815160a08101835281546001600160a01b039081168252600183015494820194909452600282015492810192909252600381015490921660608201526004820180549192916080840191906106e99061309f565b80601f01602080910402602001604051908101604052809291908181526020018280546107159061309f565b80156107605780601f1061073757610100808354040283529160200191610760565b820191905f5260205f20905b81548152906001019060200180831161074357829003601f168201915b5050505050815250509050805f01516001600160a01b0316846001600160a01b0316036107915760019250506109e4565b80516001600160a01b039081165f9081526001602090815260408083209388168352929052205460ff16156108325780516001600160a01b039081165f908152600260209081526040808320938816835292905220541580159061081a575080516001600160a01b039081165f9081526002602090815260408083209388168352929052205442115b15610828575f9250506109e4565b60019250506109e4565b80516001600160a01b039081165f90815260036020908152604080832093881683529281528282208883529052205460ff16156108e05780516001600160a01b039081165f9081526004602090815260408083209388168352928152828220888352905220541580159061081a575080516001600160a01b039081165f908152600460209081526040808320938816835292815282822088835290522054421115610828575f9250506109e4565b80516001600160a01b039081165f908152600560209081526040808320938816835292905281902060808301519151909161091a916130d1565b9081526040519081900360200190205460ff16156109df5780516001600160a01b039081165f9081526006602090815260408083209388168352929052818120608084015192519192909161096f91906130d1565b90815260200160405180910390205411801561081a575080516001600160a01b039081165f90815260066020908152604080832093881683529290528190206080830151915190916109c0916130d1565b908152602001604051809103902054421115610828575f9250506109e4565b5f9250505b5092915050565b5f8181526020819052604090205481906001600160a01b03163314610a225760405162461bcd60e51b815260040161067e906130e7565b5f8281526020819052604090205482906001600160a01b0316610a575760405162461bcd60e51b815260040161067e9061305b565b5f83815260208190526040812080546001600160a01b03198082168355600183018490556002830184905560038301805490911690556001600160a01b031691610aa46004830182612acc565b505060405184906001600160a01b038316907fce43e25c3862a18fc518ceb279ba32211116b6898e5ea653f120559df2c168da905f90a350505050565b610b216040518060a001604052805f6001600160a01b031681526020015f81526020015f81526020015f6001600160a01b03168152602001606081525090565b5f8281526020819052604090205482906001600160a01b0316610b565760405162461bcd60e51b815260040161067e9061305b565b5f8381526020818152604091829020825160a08101845281546001600160a01b03908116825260018301549382019390935260028201549381019390935260038101549091166060830152600481018054608084019190610bb69061309f565b80601f0160208091040260200160405190810160405280929190818152602001828054610be29061309f565b8015610c2d5780601f10610c0457610100808354040283529160200191610c2d565b820191905f5260205f20905b815481529060010190602001808311610c1057829003601f168201915b50505050508152505091505b50919050565b6001600160a01b038116610c655760405162461bcd60e51b815260040161067e90613144565b335f8181526001602090815260408083206001600160a01b038616808552908352818420805460ff191690558151838152928301939093529192917f0a2382b7b0f44ee62df753c00034038c109332bf9b8f52418af74aa2859780fb91015b60405180910390a350565b805f815111610cf05760405162461bcd60e51b815260040161067e90613199565b82610d515760405162461bcd60e51b815260206004820152602b60248201527f4d656d6f7279436f6e74726f6c3a204d6574616461746120686173682063616e60448201526a6e6f74206265207a65726f60a81b606482015260840161067e565b5f838152602081905260409020546001600160a01b031615610dd15760405162461bcd60e51b815260206004820152603360248201527f4d656d6f7279436f6e74726f6c3a204d656d6f727920776974682074686973206044820152726861736820616c72656164792065786973747360681b606482015260840161067e565b6040516394310e5160e01b81525f906001600160a01b037f000000000000000000000000000000000000000000000000000000000000000016906394310e5190610e1f908690600401613049565b602060405180830381865afa158015610e3a573d5f5f3e3d5ffd5b505050506040513d601f19601f82011682018060405250810190610e5e91906131e3565b6040805160a0810182523381526020808201888152428385019081526001600160a01b0380871660608601908152608086018b81525f8d81529586905296909420855181549083166001600160a01b031991821617825593516001820155915160028301559251600382018054919094169216919091179091559151929350916004820190610eed908261324a565b5050335f8181526001602081815260408084206001600160a01b038816855290915291829020805460ff19169091179055518692507f6c1a2d58efe5be4c401d24d5828cb48178c534c9aa1575f7b1d257aab899575490610f4f908790613049565b60405180910390a3806001600160a01b0316336001600160a01b03167fc7e5c007251689b9bc3cb624f55714afc5988f3e3b4e20cc6a606d7bad6faeca85604051610f9a9190613049565b60405180910390a350505050565b805f815111610fc95760405162461bcd60e51b815260040161067e90613199565b6040516394310e5160e01b81525f906001600160a01b037f000000000000000000000000000000000000000000000000000000000000000016906394310e5190611017908690600401613049565b602060405180830381865afa158015611032573d5f5f3e3d5ffd5b505050506040513d601f19601f8201168201806040525081019061105691906131e3565b335f8181526001602081815260408084206001600160a01b038716808652925292839020805460ff19169092179091559051929350917fc7e5c007251689b9bc3cb624f55714afc5988f3e3b4e20cc6a606d7bad6faeca906110b9908790613049565b60405180910390a3505050565b5f8281526020819052604090205482906001600160a01b03166110fb5760405162461bcd60e51b815260040161067e9061305b565b5f8381526020819052604090205483906001600160a01b031633146111325760405162461bcd60e51b815260040161067e906130e7565b845f8151116111535760405162461bcd60e51b815260040161067e90613199565b5f84116111725760405162461bcd60e51b815260040161067e90613304565b6040516394310e5160e01b81525f906001600160a01b037f000000000000000000000000000000000000000000000000000000000000000016906394310e51906111c0908a90600401613049565b602060405180830381865afa1580156111db573d5f5f3e3d5ffd5b505050506040513d601f19601f820116820180604052508101906111ff91906131e3565b90505f61120c8642613352565b335f8181526004602090815260408083206001600160a01b0388168085529083528184208d855283528184208690558484526003835281842081855283528184208d855290925291829020805460ff19166001179055905192935089929091907f2b27e4b5b88ebc1768768eaf2b99a3afa4e1c2b7df951b05a311c572178847c19061129b908d908790613371565b60405180910390a45050505050505050565b805f8151116112ce5760405162461bcd60e51b815260040161067e90613199565b6001600160a01b0383166112f45760405162461bcd60e51b815260040161067e90613144565b336001600160a01b0384160361131c5760405162461bcd60e51b815260040161067e90613392565b335f9081526005602090815260408083206001600160a01b0387168452909152908190209051600191906113519085906130d1565b908152604051908190036020018120805492151560ff19909316929092179091556001600160a01b0384169033907f21b007e682e9017de8c120ab3ab126ed8d87e284b1ee985b14b0f759e9a7f46a906110b99086906133e0565b5f8281526020819052604090205482906001600160a01b03166113e15760405162461bcd60e51b815260040161067e9061305b565b5f8381526020819052604090205483906001600160a01b031633146114185760405162461bcd60e51b815260040161067e906130e7565b6001600160a01b03851661143e5760405162461bcd60e51b815260040161067e90613144565b336001600160a01b038616036114665760405162461bcd60e51b815260040161067e90613392565b5f83116114855760405162461bcd60e51b815260040161067e90613304565b5f6114908442613352565b335f8181526004602090815260408083206001600160a01b038c168085529083528184208b855283528184208690558484526003835281842081855283528184208b85528352818420805460ff1916600117905581518281529182019390935290810184905292935087929091907f2b27e4b5b88ebc1768768eaf2b99a3afa4e1c2b7df951b05a311c572178847c1906060015b60405180910390a4505050505050565b335f9081526004602090815260408083206001600160a01b03861684528252808320848452909152812054810361156c57505f61159b565b50335f9081526004602090815260408083206001600160a01b0386168452825280832084845290915290205442115b92915050565b6001600160a01b0382166115c75760405162461bcd60e51b815260040161067e90613144565b336001600160a01b038316036115ef5760405162461bcd60e51b815260040161067e90613392565b5f811161160e5760405162461bcd60e51b815260040161067e90613304565b5f6116198242613352565b335f8181526002602090815260408083206001600160a01b03891680855290835281842086905584845260018084528285208286528452828520805460ff19169091179055815182815291820193909352908101849052929350917f90056cefbf0e5574cde1ef22f96c2bb2d33aa175ab27e44c77bda129cf657390906060016110b9565b805f8151116116bf5760405162461bcd60e51b815260040161067e90613199565b6040516394310e5160e01b81525f906001600160a01b037f000000000000000000000000000000000000000000000000000000000000000016906394310e519061170d908690600401613049565b602060405180830381865afa158015611728573d5f5f3e3d5ffd5b505050506040513d601f19601f8201168201806040525081019061174c91906131e3565b335f8181526002602090815260408083206001600160a01b0386168085529083528184208490558484526001835281842081855290925291829020805460ff191690559051929350917fbcba83a04e29c80214e54acb8b601353d47121572200f79340246e818bda9d09906110b9908790613049565b5f60208190529081526040902080546001820154600283015460038401546004850180546001600160a01b03958616969495939492909316926118049061309f565b80601f01602080910402602001604051908101604052809291908181526020018280546118309061309f565b801561187b5780601f106118525761010080835404028352916020019161187b565b820191905f5260205f20905b81548152906001019060200180831161185e57829003601f168201915b5050505050905085565b5f8181526020819052604090205481906001600160a01b03166118ba5760405162461bcd60e51b815260040161067e9061305b565b5f8281526020819052604090205482906001600160a01b031633146118f15760405162461bcd60e51b815260040161067e906130e7565b6001600160a01b0384166119175760405162461bcd60e51b815260040161067e90613144565b336001600160a01b0385160361193f5760405162461bcd60e51b815260040161067e90613392565b335f8181526003602090815260408083206001600160a01b0389168085529083528184208885528352818420805460ff191660011790558151838152928301939093528693917fbdbadf567b0cf71c55301c89b47c08e1d0aa234f1a0148a085f5ad923e86ad6e91015b60405180910390a450505050565b6001600160a01b0382166119dd5760405162461bcd60e51b815260040161067e90613144565b335f8181526003602090815260408083206001600160a01b0387168085529083528184208685528352818420805460ff1916905584845260048352818420818552835281842086855283528184208490558151838152928301939093528493917f768e414f25614956089faed55a8692f78fe5a118c68bb4ad1d49741a8024c2d3910160405180910390a45050565b815f815111611a8d5760405162461bcd60e51b815260040161067e90613199565b5f8211611aac5760405162461bcd60e51b815260040161067e90613304565b6040516394310e5160e01b81525f906001600160a01b037f000000000000000000000000000000000000000000000000000000000000000016906394310e5190611afa908790600401613049565b602060405180830381865afa158015611b15573d5f5f3e3d5ffd5b505050506040513d601f19601f82011682018060405250810190611b3991906131e3565b90505f611b468442613352565b335f8181526002602090815260408083206001600160a01b038816808552908352818420869055848452600180845282852082865290935292819020805460ff191690921790915551929350917f90056cefbf0e5574cde1ef22f96c2bb2d33aa175ab27e44c77bda129cf65739090611bc29089908690613371565b60405180910390a35050505050565b5f8281526020819052604081205483906001600160a01b0316611c065760405162461bcd60e51b815260040161067e9061305b565b5f84815260208181526040808320815160a08101835281546001600160a01b03908116825260018301549482019490945260028201549281019290925260038101549092166060820152600482018054919291608084019190611c689061309f565b80601f0160208091040260200160405190810160405280929190818152602001828054611c949061309f565b8015611cdf5780601f10611cb657610100808354040283529160200191611cdf565b820191905f5260205f20905b815481529060010190602001808311611cc257829003601f168201915b5050505050815250509050805f01516001600160a01b0316846001600160a01b031603611d105760019250506109e4565b516001600160a01b039081165f9081526001602090815260408083209387168352929052205460ff1691505092915050565b825f815111611d635760405162461bcd60e51b815260040161067e90613199565b825f815111611d845760405162461bcd60e51b815260040161067e90613199565b5f8311611da35760405162461bcd60e51b815260040161067e90613304565b6040516394310e5160e01b81525f906001600160a01b037f000000000000000000000000000000000000000000000000000000000000000016906394310e5190611df1908990600401613049565b602060405180830381865afa158015611e0c573d5f5f3e3d5ffd5b505050506040513d601f19601f82011682018060405250810190611e3091906131e3565b90505f611e3d8542613352565b335f9081526006602090815260408083206001600160a01b03871684529091529081902090519192508291611e739089906130d1565b908152604080516020928190038301812093909355335f908152600583528181206001600160a01b03871682529092529020600191611eb39089906130d1565b908152604051908190036020018120805492151560ff19909316929092179091556001600160a01b0383169033907f6adf36a44f7c2dfa3d1f13fadd298ad4651f69261818396df54cb9effbcab99690611f12908a908c908790613408565b60405180910390a350505050505050565b815f815111611f445760405162461bcd60e51b815260040161067e90613199565b6001600160a01b038416611f6a5760405162461bcd60e51b815260040161067e90613144565b336001600160a01b03851603611f925760405162461bcd60e51b815260040161067e90613392565b5f8211611fb15760405162461bcd60e51b815260040161067e90613304565b5f611fbc8342613352565b335f9081526006602090815260408083206001600160a01b038a1684529091529081902090519192508291611ff29087906130d1565b908152604080516020928190038301812093909355335f908152600583528181206001600160a01b038a16825290925290206001916120329087906130d1565b908152604051908190036020018120805492151560ff19909316929092179091556001600160a01b0386169033907f6adf36a44f7c2dfa3d1f13fadd298ad4651f69261818396df54cb9effbcab99690611bc2908890869061343d565b6001600160a01b0381166120b55760405162461bcd60e51b815260040161067e90613144565b336001600160a01b038216036120dd5760405162461bcd60e51b815260040161067e90613392565b335f8181526001602081815260408084206001600160a01b038716808652908352818520805460ff19169094179093558051828152918201939093529092917fc7e5c007251689b9bc3cb624f55714afc5988f3e3b4e20cc6a606d7bad6faeca9101610cc4565b815f8151116121655760405162461bcd60e51b815260040161067e90613199565b6040516394310e5160e01b81525f906001600160a01b037f000000000000000000000000000000000000000000000000000000000000000016906394310e51906121b3908790600401613049565b602060405180830381865afa1580156121ce573d5f5f3e3d5ffd5b505050506040513d601f19601f820116820180604052508101906121f291906131e3565b335f9081526005602090815260408083206001600160a01b0385168452909152808220905192935090916122279086906130d1565b9081526040805160209281900383018120805460ff191694151594909417909355335f908152600683528181206001600160a01b0386168252909252812090916122729086906130d1565b908152602001604051809103902081905550806001600160a01b0316336001600160a01b03167fb09e079155e58ebb686e73c2048035a5a0e9f191531017ebb8fcd588aae9fedb8587604051610f9a92919061346e565b805f8151116122ea5760405162461bcd60e51b815260040161067e90613199565b6040516394310e5160e01b81525f906001600160a01b037f000000000000000000000000000000000000000000000000000000000000000016906394310e5190612338908690600401613049565b602060405180830381865afa158015612353573d5f5f3e3d5ffd5b505050506040513d601f19601f8201168201806040525081019061237791906131e3565b335f8181526001602090815260408083206001600160a01b038616808552925291829020805460ff191690559051929350917f0a2382b7b0f44ee62df753c00034038c109332bf9b8f52418af74aa2859780fb906110b9908790613049565b5f8181526020819052604090205481906001600160a01b031661240b5760405162461bcd60e51b815260040161067e9061305b565b5f8281526020819052604090205482906001600160a01b031633146124425760405162461bcd60e51b815260040161067e906130e7565b835f8151116124635760405162461bcd60e51b815260040161067e90613199565b6040516394310e5160e01b81525f906001600160a01b037f000000000000000000000000000000000000000000000000000000000000000016906394310e51906124b1908990600401613049565b602060405180830381865afa1580156124cc573d5f5f3e3d5ffd5b505050506040513d601f19601f820116820180604052508101906124f091906131e3565b335f8181526003602090815260408083206001600160a01b0386168085529083528184208b855290925291829020805460ff19166001179055905192935087929091907fbdbadf567b0cf71c55301c89b47c08e1d0aa234f1a0148a085f5ad923e86ad6e90611524908b90613049565b815f8151116125815760405162461bcd60e51b815260040161067e90613199565b6040516394310e5160e01b81525f906001600160a01b037f000000000000000000000000000000000000000000000000000000000000000016906394310e51906125cf908790600401613049565b602060405180830381865afa1580156125ea573d5f5f3e3d5ffd5b505050506040513d601f19601f8201168201806040525081019061260e91906131e3565b335f8181526003602090815260408083206001600160a01b0386168085529083528184208985528352818420805460ff1916905584845260048352818420818552835281842089855290925280832092909255905192935085929091907f768e414f25614956089faed55a8692f78fe5a118c68bb4ad1d49741a8024c2d3906119a9908990613049565b335f9081526002602090815260408083206001600160a01b038516845290915281205481036126c857505f919050565b50335f9081526002602090815260408083206001600160a01b039490941683529290522054421190565b6001600160a01b0382166127185760405162461bcd60e51b815260040161067e90613144565b335f9081526005602090815260408083206001600160a01b038616845290915280822090516127489084906130d1565b9081526040805160209281900383018120805460ff191694151594909417909355335f908152600683528181206001600160a01b0387168252909252812090916127939084906130d1565b908152602001604051809103902081905550816001600160a01b0316336001600160a01b03167fb09e079155e58ebb686e73c2048035a5a0e9f191531017ebb8fcd588aae9fedb836040516127e891906133e0565b60405180910390a35050565b5f8181526020819052604090205460609082906001600160a01b031661282c5760405162461bcd60e51b815260040161067e9061305b565b5f83815260208190526040902060040180546128479061309f565b80601f01602080910402602001604051908101604052809291908181526020018280546128739061309f565b80156128be5780601f10612895576101008083540402835291602001916128be565b820191905f5260205f20905b8154815290600101906020018083116128a157829003601f168201915b5050505050915050919050565b6001600160a01b0381166128f15760405162461bcd60e51b815260040161067e90613144565b335f8181526002602090815260408083206001600160a01b038616808552908352818420849055848452600183528184208185528352818420805460ff191690558151838152928301939093529192917fbcba83a04e29c80214e54acb8b601353d47121572200f79340246e818bda9d099101610cc4565b815f81511161298a5760405162461bcd60e51b815260040161067e90613199565b815f8151116129ab5760405162461bcd60e51b815260040161067e90613199565b6040516394310e5160e01b81525f906001600160a01b037f000000000000000000000000000000000000000000000000000000000000000016906394310e51906129f9908890600401613049565b602060405180830381865afa158015612a14573d5f5f3e3d5ffd5b505050506040513d601f19601f82011682018060405250810190612a3891906131e3565b335f9081526005602090815260408083206001600160a01b0385168452909152908190209051919250600191612a6f9087906130d1565b908152604051908190036020018120805492151560ff19909316929092179091556001600160a01b0382169033907f21b007e682e9017de8c120ab3ab126ed8d87e284b1ee985b14b0f759e9a7f46a90611bc29088908a9061346e565b508054612ad89061309f565b5f825580601f10612ae7575050565b601f0160209004905f5260205f2090810190612b039190612b06565b50565b5b80821115612b1a575f8155600101612b07565b5090565b6001600160a01b0381168114612b03575f5ffd5b5f5f60408385031215612b43575f5ffd5b823591506020830135612b5581612b1e565b809150509250929050565b5f60208284031215612b70575f5ffd5b5035919050565b5f81518084528060208401602086015e5f602082860101526020601f19601f83011685010191505092915050565b6020815260018060a01b038251166020820152602082015160408201526040820151606082015260018060a01b0360608301511660808201525f608083015160a080840152612bf760c0840182612b77565b949350505050565b5f60208284031215612c0f575f5ffd5b8135612c1a81612b1e565b9392505050565b634e487b7160e01b5f52604160045260245ffd5b5f82601f830112612c44575f5ffd5b81356001600160401b03811115612c5d57612c5d612c21565b604051601f8201601f19908116603f011681016001600160401b0381118282101715612c8b57612c8b612c21565b604052818152838201602001851015612ca2575f5ffd5b816020850160208301375f918101602001919091529392505050565b5f5f60408385031215612ccf575f5ffd5b8235915060208301356001600160401b03811115612ceb575f5ffd5b612cf785828601612c35565b9150509250929050565b5f5f5f60608486031215612d13575f5ffd5b8335612d1e81612b1e565b92506020840135612d2e81612b1e565b915060408401356001600160401b03811115612d48575f5ffd5b612d5486828701612c35565b9150509250925092565b5f60208284031215612d6e575f5ffd5b81356001600160401b03811115612d83575f5ffd5b612bf784828501612c35565b5f5f5f60608486031215612da1575f5ffd5b83356001600160401b03811115612db6575f5ffd5b612dc286828701612c35565b9660208601359650604090950135949350505050565b5f5f60408385031215612de9575f5ffd5b8235612df481612b1e565b915060208301356001600160401b03811115612ceb575f5ffd5b5f5f5f60608486031215612e20575f5ffd5b8335612e2b81612b1e565b95602085013595506040909401359392505050565b5f5f60408385031215612e51575f5ffd5b8235612e5c81612b1e565b946020939093013593505050565b6001600160a01b03868116825260208201869052604082018590528316606082015260a0608082018190525f90612ea390830184612b77565b979650505050505050565b5f5f60408385031215612ebf575f5ffd5b82356001600160401b03811115612ed4575f5ffd5b612ee085828601612c35565b95602094909401359450505050565b5f5f60408385031215612f00575f5ffd5b8235612f0b81612b1e565b91506020830135612b5581612b1e565b5f5f5f60608486031215612f2d575f5ffd5b83356001600160401b03811115612f42575f5ffd5b612f4e86828701612c35565b93505060208401356001600160401b03811115612f69575f5ffd5b612f7586828701612c35565b93969395505050506040919091013590565b5f5f5f60608486031215612f99575f5ffd5b8335612fa481612b1e565b925060208401356001600160401b03811115612f69575f5ffd5b5f5f60408385031215612fcf575f5ffd5b82356001600160401b03811115612fe4575f5ffd5b612ff085828601612c35565b92505060208301356001600160401b03811115612ceb575f5ffd5b5f5f5f6060848603121561301d575f5ffd5b833561302881612b1e565b9250602084013561303881612b1e565b929592945050506040919091013590565b602081525f612c1a6020830184612b77565b60208082526024908201527f4d656d6f7279436f6e74726f6c3a204d656d6f727920646f6573206e6f7420656040820152631e1a5cdd60e21b606082015260800190565b600181811c908216806130b357607f821691505b602082108103610c3957634e487b7160e01b5f52602260045260245ffd5b5f82518060208501845e5f920191825250919050565b60208082526038908201527f4d656d6f7279436f6e74726f6c3a204f6e6c79206d656d6f7279206f776e657260408201527f2063616e20706572666f726d207468697320616374696f6e0000000000000000606082015260800190565b60208082526035908201527f4d656d6f7279436f6e74726f6c3a204772616e74656520616464726573732063604082015274616e6e6f74206265207a65726f206164647265737360581b606082015260800190565b6020808252602a908201527f4d656d6f7279436f6e74726f6c3a20446f6d61696e206e616d652063616e6e6f6040820152697420626520656d70747960b01b606082015260800190565b5f602082840312156131f3575f5ffd5b8151612c1a81612b1e565b601f82111561324557805f5260205f20601f840160051c810160208510156132235750805b601f840160051c820191505b81811015613242575f815560010161322f565b50505b505050565b81516001600160401b0381111561326357613263612c21565b61327781613271845461309f565b846131fe565b6020601f8211600181146132a9575f83156132925750848201515b5f19600385901b1c1916600184901b178455613242565b5f84815260208120601f198516915b828110156132d857878501518255602094850194600190920191016132b8565b50848210156132f557868401515f19600387901b60f8161c191681555b50505050600190811b01905550565b6020808252602e908201527f4d656d6f7279436f6e74726f6c3a204475726174696f6e206d7573742062652060408201526d067726561746572207468616e20360941b606082015260800190565b8082018082111561159b57634e487b7160e01b5f52601160045260245ffd5b604081525f6133836040830185612b77565b90508260208301529392505050565b6020808252602e908201527f4d656d6f7279436f6e74726f6c3a2043616e6e6f74206772616e74206163636560408201526d39b9903a37903cb7bab939b2b63360911b606082015260800190565b604081525f6133f26040830184612b77565b8281036020938401525f81529190910192915050565b606081525f61341a6060830186612b77565b828103602084015261342c8186612b77565b915050826040830152949350505050565b606081525f61344f6060830185612b77565b82810360208401525f8152602081019150508260408301529392505050565b604081525f6134806040830185612b77565b82810360208401526134928185612b77565b9594505050505056fea2646970667358221220fafc34d8fdf613ae106882c418139dbc2602566730e8133958476d6221ecd69564736f6c634300081c0033",
			"opcodes": "PUSH1 0xA0 PUSH1 0x40 MSTORE CALLVALUE DUP1 ISZERO PUSH2 0xF JUMPI PUSH0 PUSH0 REVERT JUMPDEST POP PUSH1 0x40 MLOAD PUSH2 0x3622 CODESIZE SUB DUP1 PUSH2 0x3622 DUP4 CODECOPY DUP2 ADD PUSH1 0x40 DUP2 SWAP1 MSTORE PUSH2 0x2E SWAP2 PUSH2 0xBF JUMP JUMPDEST PUSH1 0x1 PUSH1 0x1 PUSH1 0xA0 SHL SUB DUP2 AND PUSH2 0xAE JUMPI PUSH1 0x40 MLOAD PUSH3 0x461BCD PUSH1 0xE5 SHL DUP2 MSTORE PUSH1 0x20 PUSH1 0x4 DUP3 ADD MSTORE PUSH1 0x35 PUSH1 0x24 DUP3 ADD MSTORE PUSH32 0x4D656D6F7279436F6E74726F6C3A20446F6D61696E2072656769737472792061 PUSH1 0x44 DUP3 ADD MSTORE PUSH32 0x6464726573732063616E6E6F74206265207A65726F0000000000000000000000 PUSH1 0x64 DUP3 ADD MSTORE PUSH1 0x84 ADD PUSH1 0x40 MLOAD DUP1 SWAP2 SUB SWAP1 REVERT JUMPDEST PUSH1 0x1 PUSH1 0x1 PUSH1 0xA0 SHL SUB AND PUSH1 0x80 MSTORE PUSH2 0xEC JUMP JUMPDEST PUSH0 PUSH1 0x20 DUP3 DUP5 SUB SLT ISZERO PUSH2 0xCF JUMPI PUSH0 PUSH0 REVERT JUMPDEST DUP2 MLOAD PUSH1 0x1 PUSH1 0x1 PUSH1 0xA0 SHL SUB DUP2 AND DUP2 EQ PUSH2 0xE5 JUMPI PUSH0 PUSH0 REVERT JUMPDEST SWAP4 SWAP3 POP POP POP JUMP JUMPDEST PUSH1 0x80 MLOAD PUSH2 0x34D1 PUSH2 0x151 PUSH0 CODECOPY PUSH0 DUP2 DUP2 PUSH2 0x24F ADD MSTORE DUP2 DUP2 PUSH2 0xDEA ADD MSTORE DUP2 DUP2 PUSH2 0xFE2 ADD MSTORE DUP2 DUP2 PUSH2 0x118B ADD MSTORE DUP2 DUP2 PUSH2 0x16D8 ADD MSTORE DUP2 DUP2 PUSH2 0x1AC5 ADD MSTORE DUP2 DUP2 PUSH2 0x1DBC ADD MSTORE DUP2 DUP2 PUSH2 0x217E ADD MSTORE DUP2 DUP2 PUSH2 0x2303 ADD MSTORE DUP2 DUP2 PUSH2 0x247C ADD MSTORE DUP2 DUP2 PUSH2 0x259A ADD MSTORE PUSH2 0x29C4 ADD MSTORE PUSH2 0x34D1 PUSH0 RETURN INVALID PUSH1 0x80 PUSH1 0x40 MSTORE CALLVALUE DUP1 ISZERO PUSH2 0xF JUMPI PUSH0 PUSH0 REVERT JUMPDEST POP PUSH1 0x4 CALLDATASIZE LT PUSH2 0x21E JUMPI PUSH0 CALLDATALOAD PUSH1 0xE0 SHR DUP1 PUSH4 0x76E042A2 GT PUSH2 0x12A JUMPI DUP1 PUSH4 0x9B059C97 GT PUSH2 0xB4 JUMPI DUP1 PUSH4 0xEDFBA336 GT PUSH2 0x79 JUMPI DUP1 PUSH4 0xEDFBA336 EQ PUSH2 0x5BD JUMPI DUP1 PUSH4 0xEE1C34AD EQ PUSH2 0x5D0 JUMPI DUP1 PUSH4 0xF5149C52 EQ PUSH2 0x5F0 JUMPI DUP1 PUSH4 0xF8420443 EQ PUSH2 0x603 JUMPI DUP1 PUSH4 0xFF57706A EQ PUSH2 0x636 JUMPI PUSH0 PUSH0 REVERT JUMPDEST DUP1 PUSH4 0x9B059C97 EQ PUSH2 0x50C JUMPI DUP1 PUSH4 0xABF99FC9 EQ PUSH2 0x53C JUMPI DUP1 PUSH4 0xCDD14590 EQ PUSH2 0x54F JUMPI DUP1 PUSH4 0xDC100083 EQ PUSH2 0x562 JUMPI DUP1 PUSH4 0xE605569B EQ PUSH2 0x5AA JUMPI PUSH0 PUSH0 REVERT JUMPDEST DUP1 PUSH4 0x8D9BEB1A GT PUSH2 0xFA JUMPI DUP1 PUSH4 0x8D9BEB1A EQ PUSH2 0x496 JUMPI DUP1 PUSH4 0x90E00623 EQ PUSH2 0x4A9 JUMPI DUP1 PUSH4 0x925C879C EQ PUSH2 0x4BC JUMPI DUP1 PUSH4 0x9A04F839 EQ PUSH2 0x4CF JUMPI DUP1 PUSH4 0x9AA1E8D2 EQ PUSH2 0x4E2 JUMPI PUSH0 PUSH0 REVERT JUMPDEST DUP1 PUSH4 0x76E042A2 EQ PUSH2 0x430 JUMPI DUP1 PUSH4 0x77814646 EQ PUSH2 0x443 JUMPI DUP1 PUSH4 0x83177DB3 EQ PUSH2 0x470 JUMPI DUP1 PUSH4 0x8AE5A7F6 EQ PUSH2 0x483 JUMPI PUSH0 PUSH0 REVERT JUMPDEST DUP1 PUSH4 0x5170ACA7 GT PUSH2 0x1AB JUMPI DUP1 PUSH4 0x7062E1E0 GT PUSH2 0x17B JUMPI DUP1 PUSH4 0x7062E1E0 EQ PUSH2 0x3C0 JUMPI DUP1 PUSH4 0x72E6FFEC EQ PUSH2 0x3D3 JUMPI DUP1 PUSH4 0x74E12A86 EQ PUSH2 0x3E6 JUMPI DUP1 PUSH4 0x7602ADE0 EQ PUSH2 0x40A JUMPI DUP1 PUSH4 0x761B232B EQ PUSH2 0x41D JUMPI PUSH0 PUSH0 REVERT JUMPDEST DUP1 PUSH4 0x5170ACA7 EQ PUSH2 0x35D JUMPI DUP1 PUSH4 0x67C69535 EQ PUSH2 0x370 JUMPI DUP1 PUSH4 0x6C8C7A6F EQ PUSH2 0x383 JUMPI DUP1 PUSH4 0x6DD64428 EQ PUSH2 0x396 JUMPI PUSH0 PUSH0 REVERT JUMPDEST DUP1 PUSH4 0x2B5AFA64 GT PUSH2 0x1F1 JUMPI DUP1 PUSH4 0x2B5AFA64 EQ PUSH2 0x2BE JUMPI DUP1 PUSH4 0x38DEBEAD EQ PUSH2 0x2D1 JUMPI DUP1 PUSH4 0x41411EC1 EQ PUSH2 0x2E4 JUMPI DUP1 PUSH4 0x41CDE2CA EQ PUSH2 0x337 JUMPI DUP1 PUSH4 0x4D392DFE EQ PUSH2 0x34A JUMPI PUSH0 PUSH0 REVERT JUMPDEST DUP1 PUSH4 0x1A085F9 EQ PUSH2 0x222 JUMPI DUP1 PUSH4 0x944A93D EQ PUSH2 0x24A JUMPI DUP1 PUSH4 0xF26FE45 EQ PUSH2 0x289 JUMPI DUP1 PUSH4 0x1D24EFF4 EQ PUSH2 0x29E JUMPI JUMPDEST PUSH0 PUSH0 REVERT JUMPDEST PUSH2 0x235 PUSH2 0x230 CALLDATASIZE PUSH1 0x4 PUSH2 0x2B32 JUMP JUMPDEST PUSH2 0x649 JUMP JUMPDEST PUSH1 0x40 MLOAD SWAP1 ISZERO ISZERO DUP2 MSTORE PUSH1 0x20 ADD JUMPDEST PUSH1 0x40 MLOAD DUP1 SWAP2 SUB SWAP1 RETURN JUMPDEST PUSH2 0x271 PUSH32 0x0 DUP2 JUMP JUMPDEST PUSH1 0x40 MLOAD PUSH1 0x1 PUSH1 0x1 PUSH1 0xA0 SHL SUB SWAP1 SWAP2 AND DUP2 MSTORE PUSH1 0x20 ADD PUSH2 0x241 JUMP JUMPDEST PUSH2 0x29C PUSH2 0x297 CALLDATASIZE PUSH1 0x4 PUSH2 0x2B60 JUMP JUMPDEST PUSH2 0x9EB JUMP JUMPDEST STOP JUMPDEST PUSH2 0x2B1 PUSH2 0x2AC CALLDATASIZE PUSH1 0x4 PUSH2 0x2B60 JUMP JUMPDEST PUSH2 0xAE1 JUMP JUMPDEST PUSH1 0x40 MLOAD PUSH2 0x241 SWAP2 SWAP1 PUSH2 0x2BA5 JUMP JUMPDEST PUSH2 0x29C PUSH2 0x2CC CALLDATASIZE PUSH1 0x4 PUSH2 0x2BFF JUMP JUMPDEST PUSH2 0xC3F JUMP JUMPDEST PUSH2 0x29C PUSH2 0x2DF CALLDATASIZE PUSH1 0x4 PUSH2 0x2CBE JUMP JUMPDEST PUSH2 0xCCF JUMP JUMPDEST PUSH2 0x329 PUSH2 0x2F2 CALLDATASIZE PUSH1 0x4 PUSH2 0x2D01 JUMP JUMPDEST PUSH1 0x6 PUSH1 0x20 SWAP1 DUP2 MSTORE PUSH0 SWAP4 DUP5 MSTORE PUSH1 0x40 DUP1 DUP6 KECCAK256 DUP3 MSTORE SWAP3 DUP5 MSTORE SWAP2 SWAP1 SWAP3 KECCAK256 DUP3 MLOAD DUP1 DUP5 ADD DUP4 ADD DUP1 MLOAD SWAP3 DUP2 MSTORE SWAP1 DUP4 ADD SWAP4 SWAP1 SWAP3 ADD SWAP3 SWAP1 SWAP3 KECCAK256 SWAP2 SWAP1 MSTORE SLOAD DUP2 JUMP JUMPDEST PUSH1 0x40 MLOAD SWAP1 DUP2 MSTORE PUSH1 0x20 ADD PUSH2 0x241 JUMP JUMPDEST PUSH2 0x29C PUSH2 0x345 CALLDATASIZE PUSH1 0x4 PUSH2 0x2D5E JUMP JUMPDEST PUSH2 0xFA8 JUMP JUMPDEST PUSH2 0x29C PUSH2 0x358 CALLDATASIZE PUSH1 0x4 PUSH2 0x2D8F JUMP JUMPDEST PUSH2 0x10C6 JUMP JUMPDEST PUSH2 0x29C PUSH2 0x36B CALLDATASIZE PUSH1 0x4 PUSH2 0x2DD8 JUMP JUMPDEST PUSH2 0x12AD JUMP JUMPDEST PUSH2 0x29C PUSH2 0x37E CALLDATASIZE PUSH1 0x4 PUSH2 0x2E0E JUMP JUMPDEST PUSH2 0x13AC JUMP JUMPDEST PUSH2 0x235 PUSH2 0x391 CALLDATASIZE PUSH1 0x4 PUSH2 0x2E40 JUMP JUMPDEST PUSH2 0x1534 JUMP JUMPDEST PUSH2 0x235 PUSH2 0x3A4 CALLDATASIZE PUSH1 0x4 PUSH2 0x2B60 JUMP JUMPDEST PUSH0 SWAP1 DUP2 MSTORE PUSH1 0x20 DUP2 SWAP1 MSTORE PUSH1 0x40 SWAP1 KECCAK256 SLOAD PUSH1 0x1 PUSH1 0x1 PUSH1 0xA0 SHL SUB AND ISZERO ISZERO SWAP1 JUMP JUMPDEST PUSH2 0x29C PUSH2 0x3CE CALLDATASIZE PUSH1 0x4 PUSH2 0x2E40 JUMP JUMPDEST PUSH2 0x15A1 JUMP JUMPDEST PUSH2 0x29C PUSH2 0x3E1 CALLDATASIZE PUSH1 0x4 PUSH2 0x2D5E JUMP JUMPDEST PUSH2 0x169E JUMP JUMPDEST PUSH2 0x3F9 PUSH2 0x3F4 CALLDATASIZE PUSH1 0x4 PUSH2 0x2B60 JUMP JUMPDEST PUSH2 0x17C2 JUMP JUMPDEST PUSH1 0x40 MLOAD PUSH2 0x241 SWAP6 SWAP5 SWAP4 SWAP3 SWAP2 SWAP1 PUSH2 0x2E6A JUMP JUMPDEST PUSH2 0x29C PUSH2 0x418 CALLDATASIZE PUSH1 0x4 PUSH2 0x2E40 JUMP JUMPDEST PUSH2 0x1885 JUMP JUMPDEST PUSH2 0x29C PUSH2 0x42B CALLDATASIZE PUSH1 0x4 PUSH2 0x2E40 JUMP JUMPDEST PUSH2 0x19B7 JUMP JUMPDEST PUSH2 0x29C PUSH2 0x43E CALLDATASIZE PUSH1 0x4 PUSH2 0x2EAE JUMP JUMPDEST PUSH2 0x1A6C JUMP JUMPDEST PUSH2 0x235 PUSH2 0x451 CALLDATASIZE PUSH1 0x4 PUSH2 0x2EEF JUMP JUMPDEST PUSH1 0x1 PUSH1 0x20 SWAP1 DUP2 MSTORE PUSH0 SWAP3 DUP4 MSTORE PUSH1 0x40 DUP1 DUP5 KECCAK256 SWAP1 SWAP2 MSTORE SWAP1 DUP3 MSTORE SWAP1 KECCAK256 SLOAD PUSH1 0xFF AND DUP2 JUMP JUMPDEST PUSH2 0x235 PUSH2 0x47E CALLDATASIZE PUSH1 0x4 PUSH2 0x2B32 JUMP JUMPDEST PUSH2 0x1BD1 JUMP JUMPDEST PUSH2 0x29C PUSH2 0x491 CALLDATASIZE PUSH1 0x4 PUSH2 0x2F1B JUMP JUMPDEST PUSH2 0x1D42 JUMP JUMPDEST PUSH2 0x29C PUSH2 0x4A4 CALLDATASIZE PUSH1 0x4 PUSH2 0x2F87 JUMP JUMPDEST PUSH2 0x1F23 JUMP JUMPDEST PUSH2 0x29C PUSH2 0x4B7 CALLDATASIZE PUSH1 0x4 PUSH2 0x2BFF JUMP JUMPDEST PUSH2 0x208F JUMP JUMPDEST PUSH2 0x29C PUSH2 0x4CA CALLDATASIZE PUSH1 0x4 PUSH2 0x2FBE JUMP JUMPDEST PUSH2 0x2144 JUMP JUMPDEST PUSH2 0x29C PUSH2 0x4DD CALLDATASIZE PUSH1 0x4 PUSH2 0x2D5E JUMP JUMPDEST PUSH2 0x22C9 JUMP JUMPDEST PUSH2 0x329 PUSH2 0x4F0 CALLDATASIZE PUSH1 0x4 PUSH2 0x2EEF JUMP JUMPDEST PUSH1 0x2 PUSH1 0x20 SWAP1 DUP2 MSTORE PUSH0 SWAP3 DUP4 MSTORE PUSH1 0x40 DUP1 DUP5 KECCAK256 SWAP1 SWAP2 MSTORE SWAP1 DUP3 MSTORE SWAP1 KECCAK256 SLOAD DUP2 JUMP JUMPDEST PUSH2 0x329 PUSH2 0x51A CALLDATASIZE PUSH1 0x4 PUSH2 0x300B JUMP JUMPDEST PUSH1 0x4 PUSH1 0x20 SWAP1 DUP2 MSTORE PUSH0 SWAP4 DUP5 MSTORE PUSH1 0x40 DUP1 DUP6 KECCAK256 DUP3 MSTORE SWAP3 DUP5 MSTORE DUP3 DUP5 KECCAK256 SWAP1 MSTORE DUP3 MSTORE SWAP1 KECCAK256 SLOAD DUP2 JUMP JUMPDEST PUSH2 0x29C PUSH2 0x54A CALLDATASIZE PUSH1 0x4 PUSH2 0x2EAE JUMP JUMPDEST PUSH2 0x23D6 JUMP JUMPDEST PUSH2 0x29C PUSH2 0x55D CALLDATASIZE PUSH1 0x4 PUSH2 0x2EAE JUMP JUMPDEST PUSH2 0x2560 JUMP JUMPDEST PUSH2 0x235 PUSH2 0x570 CALLDATASIZE PUSH1 0x4 PUSH2 0x2D01 JUMP JUMPDEST PUSH1 0x5 PUSH1 0x20 SWAP1 DUP2 MSTORE PUSH0 SWAP4 DUP5 MSTORE PUSH1 0x40 DUP1 DUP6 KECCAK256 DUP3 MSTORE SWAP3 DUP5 MSTORE SWAP2 SWAP1 SWAP3 KECCAK256 DUP3 MLOAD DUP1 DUP5 ADD DUP4 ADD DUP1 MLOAD SWAP3 DUP2 MSTORE SWAP1 DUP4 ADD SWAP4 SWAP1 SWAP3 ADD SWAP3 SWAP1 SWAP3 KECCAK256 SWAP2 SWAP1 MSTORE SLOAD PUSH1 0xFF AND DUP2 JUMP JUMPDEST PUSH2 0x235 PUSH2 0x5B8 CALLDATASIZE PUSH1 0x4 PUSH2 0x2BFF JUMP JUMPDEST PUSH2 0x2698 JUMP JUMPDEST PUSH2 0x29C PUSH2 0x5CB CALLDATASIZE PUSH1 0x4 PUSH2 0x2DD8 JUMP JUMPDEST PUSH2 0x26F2 JUMP JUMPDEST PUSH2 0x5E3 PUSH2 0x5DE CALLDATASIZE PUSH1 0x4 PUSH2 0x2B60 JUMP JUMPDEST PUSH2 0x27F4 JUMP JUMPDEST PUSH1 0x40 MLOAD PUSH2 0x241 SWAP2 SWAP1 PUSH2 0x3049 JUMP JUMPDEST PUSH2 0x29C PUSH2 0x5FE CALLDATASIZE PUSH1 0x4 PUSH2 0x2BFF JUMP JUMPDEST PUSH2 0x28CB JUMP JUMPDEST PUSH2 0x235 PUSH2 0x611 CALLDATASIZE PUSH1 0x4 PUSH2 0x300B JUMP JUMPDEST PUSH1 0x3 PUSH1 0x20 SWAP1 DUP2 MSTORE PUSH0 SWAP4 DUP5 MSTORE PUSH1 0x40 DUP1 DUP6 KECCAK256 DUP3 MSTORE SWAP3 DUP5 MSTORE DUP3 DUP5 KECCAK256 SWAP1 MSTORE DUP3 MSTORE SWAP1 KECCAK256 SLOAD PUSH1 0xFF AND DUP2 JUMP JUMPDEST PUSH2 0x29C PUSH2 0x644 CALLDATASIZE PUSH1 0x4 PUSH2 0x2FBE JUMP JUMPDEST PUSH2 0x2969 JUMP JUMPDEST PUSH0 DUP3 DUP2 MSTORE PUSH1 0x20 DUP2 SWAP1 MSTORE PUSH1 0x40 DUP2 KECCAK256 SLOAD DUP4 SWAP1 PUSH1 0x1 PUSH1 0x1 PUSH1 0xA0 SHL SUB AND PUSH2 0x687 JUMPI PUSH1 0x40 MLOAD PUSH3 0x461BCD PUSH1 0xE5 SHL DUP2 MSTORE PUSH1 0x4 ADD PUSH2 0x67E SWAP1 PUSH2 0x305B JUMP JUMPDEST PUSH1 0x40 MLOAD DUP1 SWAP2 SUB SWAP1 REVERT JUMPDEST PUSH0 DUP5 DUP2 MSTORE PUSH1 0x20 DUP2 DUP2 MSTORE PUSH1 0x40 DUP1 DUP4 KECCAK256 DUP2 MLOAD PUSH1 0xA0 DUP2 ADD DUP4 MSTORE DUP2 SLOAD PUSH1 0x1 PUSH1 0x1 PUSH1 0xA0 SHL SUB SWAP1 DUP2 AND DUP3 MSTORE PUSH1 0x1 DUP4 ADD SLOAD SWAP5 DUP3 ADD SWAP5 SWAP1 SWAP5 MSTORE PUSH1 0x2 DUP3 ADD SLOAD SWAP3 DUP2 ADD SWAP3 SWAP1 SWAP3 MSTORE PUSH1 0x3 DUP2 ADD SLOAD SWAP1 SWAP3 AND PUSH1 0x60 DUP3 ADD MSTORE PUSH1 0x4 DUP3 ADD DUP1 SLOAD SWAP2 SWAP3 SWAP2 PUSH1 0x80 DUP5 ADD SWAP2 SWAP1 PUSH2 0x6E9 SWAP1 PUSH2 0x309F JUMP JUMPDEST DUP1 PUSH1 0x1F ADD PUSH1 0x20 DUP1 SWAP2 DIV MUL PUSH1 0x20 ADD PUSH1 0x40 MLOAD SWAP1 DUP2 ADD PUSH1 0x40 MSTORE DUP1 SWAP3 SWAP2 SWAP1 DUP2 DUP2 MSTORE PUSH1 0x20 ADD DUP3 DUP1 SLOAD PUSH2 0x715 SWAP1 PUSH2 0x309F JUMP JUMPDEST DUP1 ISZERO PUSH2 0x760 JUMPI DUP1 PUSH1 0x1F LT PUSH2 0x737 JUMPI PUSH2 0x100 DUP1 DUP4 SLOAD DIV MUL DUP4 MSTORE SWAP2 PUSH1 0x20 ADD SWAP2 PUSH2 0x760 JUMP JUMPDEST DUP3 ADD SWAP2 SWAP1 PUSH0 MSTORE PUSH1 0x20 PUSH0 KECCAK256 SWAP1 JUMPDEST DUP2 SLOAD DUP2 MSTORE SWAP1 PUSH1 0x1 ADD SWAP1 PUSH1 0x20 ADD DUP1 DUP4 GT PUSH2 0x743 JUMPI DUP3 SWAP1 SUB PUSH1 0x1F AND DUP3 ADD SWAP2 JUMPDEST POP POP POP POP POP DUP2 MSTORE POP POP SWAP1 POP DUP1 PUSH0 ADD MLOAD PUSH1 0x1 PUSH1 0x1 PUSH1 0xA0 SHL SUB AND DUP5 PUSH1 0x1 PUSH1 0x1 PUSH1 0xA0 SHL SUB AND SUB PUSH2 0x791 JUMPI PUSH1 0x1 SWAP3 POP POP PUSH2 0x9E4 JUMP JUMPDEST DUP1 MLOAD PUSH1 0x1 PUSH1 0x1 PUSH1 0xA0 SHL SUB SWAP1 DUP2 AND PUSH0 SWAP1 DUP2 MSTORE PUSH1 0x1 PUSH1 0x20 SWAP1 DUP2 MSTORE PUSH1 0x40 DUP1 DUP4 KECCAK256 SWAP4 DUP9 AND DUP4 MSTORE SWAP3 SWAP1 MSTORE KECCAK256 SLOAD PUSH1 0xFF AND ISZERO PUSH2 0x832 JUMPI DUP1 MLOAD PUSH1 0x1 PUSH1 0x1 PUSH1 0xA0 SHL SUB SWAP1 DUP2 AND PUSH0 SWAP1 DUP2 MSTORE PUSH1 0x2 PUSH1 0x20 SWAP1 DUP2 MSTORE PUSH1 0x40 DUP1 DUP4 KECCAK256 SWAP4 DUP9 AND DUP4 MSTORE SWAP3 SWAP1 MSTORE KECCAK256 SLOAD ISZERO DUP1 ISZERO SWAP1 PUSH2 0x81A JUMPI POP DUP1 MLOAD PUSH1 0x1 PUSH1 0x1 PUSH1 0xA0 SHL SUB SWAP1 DUP2 AND PUSH0 SWAP1 DUP2 MSTORE PUSH1 0x2 PUSH1 0x20 SWAP1 DUP2 MSTORE PUSH1 0x40 DUP1 DUP4 KECCAK256 SWAP4 DUP9 AND DUP4 MSTORE SWAP3 SWAP1 MSTORE KECCAK256 SLOAD TIMESTAMP GT JUMPDEST ISZERO PUSH2 0x828 JUMPI PUSH0 SWAP3 POP POP PUSH2 0x9E4 JUMP JUMPDEST PUSH1 0x1 SWAP3 POP POP PUSH2 0x9E4 JUMP JUMPDEST DUP1 MLOAD PUSH1 0x1 PUSH1 0x1 PUSH1 0xA0 SHL SUB SWAP1 DUP2 AND PUSH0 SWAP1 DUP2 MSTORE PUSH1 0x3 PUSH1 0x20 SWAP1 DUP2 MSTORE PUSH1 0x40 DUP1 DUP4 KECCAK256 SWAP4 DUP9 AND DUP4 MSTORE SWAP3 DUP2 MSTORE DUP3 DUP3 KECCAK256 DUP9 DUP4 MSTORE SWAP1 MSTORE KECCAK256 SLOAD PUSH1 0xFF AND ISZERO PUSH2 0x8E0 JUMPI DUP1 MLOAD PUSH1 0x1 PUSH1 0x1 PUSH1 0xA0 SHL SUB SWAP1 DUP2 AND PUSH0 SWAP1 DUP2 MSTORE PUSH1 0x4 PUSH1 0x20 SWAP1 DUP2 MSTORE PUSH1 0x40 DUP1 DUP4 KECCAK256 SWAP4 DUP9 AND DUP4 MSTORE SWAP3 DUP2 MSTORE DUP3 DUP3 KECCAK256 DUP9 DUP4 MSTORE SWAP1 MSTORE KECCAK256 SLOAD ISZERO DUP1 ISZERO SWAP1 PUSH2 0x81A JUMPI POP DUP1 MLOAD PUSH1 0x1 PUSH1 0x1 PUSH1 0xA0 SHL SUB SWAP1 DUP2 AND PUSH0 SWAP1 DUP2 MSTORE PUSH1 0x4 PUSH1 0x20 SWAP1 DUP2 MSTORE PUSH1 0x40 DUP1 DUP4 KECCAK256 SWAP4 DUP9 AND DUP4 MSTORE SWAP3 DUP2 MSTORE DUP3 DUP3 KECCAK256 DUP9 DUP4 MSTORE SWAP1 MSTORE KECCAK256 SLOAD TIMESTAMP GT ISZERO PUSH2 0x828 JUMPI PUSH0 SWAP3 POP POP PUSH2 0x9E4 JUMP JUMPDEST DUP1 MLOAD PUSH1 0x1 PUSH1 0x1 PUSH1 0xA0 SHL SUB SWAP1 DUP2 AND PUSH0 SWAP1 DUP2 MSTORE PUSH1 0x5 PUSH1 0x20 SWAP1 DUP2 MSTORE PUSH1 0x40 DUP1 DUP4 KECCAK256 SWAP4 DUP9 AND DUP4 MSTORE SWAP3 SWAP1 MSTORE DUP2 SWAP1 KECCAK256 PUSH1 0x80 DUP4 ADD MLOAD SWAP2 MLOAD SWAP1 SWAP2 PUSH2 0x91A SWAP2 PUSH2 0x30D1 JUMP JUMPDEST SWAP1 DUP2 MSTORE PUSH1 0x40 MLOAD SWAP1 DUP2 SWAP1 SUB PUSH1 0x20 ADD SWAP1 KECCAK256 SLOAD PUSH1 0xFF AND ISZERO PUSH2 0x9DF JUMPI DUP1 MLOAD PUSH1 0x1 PUSH1 0x1 PUSH1 0xA0 SHL SUB SWAP1 DUP2 AND PUSH0 SWAP1 DUP2 MSTORE PUSH1 0x6 PUSH1 0x20 SWAP1 DUP2 MSTORE PUSH1 0x40 DUP1 DUP4 KECCAK256 SWAP4 DUP9 AND DUP4 MSTORE SWAP3 SWAP1 MSTORE DUP2 DUP2 KECCAK256 PUSH1 0x80 DUP5 ADD MLOAD SWAP3 MLOAD SWAP2 SWAP3 SWAP1 SWAP2 PUSH2 0x96F SWAP2 SWAP1 PUSH2 0x30D1 JUMP JUMPDEST SWAP1 DUP2 MSTORE PUSH1 0x20 ADD PUSH1 0x40 MLOAD DUP1 SWAP2 SUB SWAP1 KECCAK256 SLOAD GT DUP1 ISZERO PUSH2 0x81A JUMPI POP DUP1 MLOAD PUSH1 0x1 PUSH1 0x1 PUSH1 0xA0 SHL SUB SWAP1 DUP2 AND PUSH0 SWAP1 DUP2 MSTORE PUSH1 0x6 PUSH1 0x20 SWAP1 DUP2 MSTORE PUSH1 0x40 DUP1 DUP4 KECCAK256 SWAP4 DUP9 AND DUP4 MSTORE SWAP3 SWAP1 MSTORE DUP2 SWAP1 KECCAK256 PUSH1 0x80 DUP4 ADD MLOAD SWAP2 MLOAD SWAP1 SWAP2 PUSH2 0x9C0 SWAP2 PUSH2 0x30D1 JUMP JUMPDEST SWAP1 DUP2 MSTORE PUSH1 0x20 ADD PUSH1 0x40 MLOAD DUP1 SWAP2 SUB SWAP1 KECCAK256 SLOAD TIMESTAMP GT ISZERO PUSH2 0x828 JUMPI PUSH0 SWAP3 POP POP PUSH2 0x9E4 JUMP JUMPDEST PUSH0 SWAP3 POP POP JUMPDEST POP SWAP3 SWAP2 POP POP JUMP JUMPDEST PUSH0 DUP2 DUP2 MSTORE PUSH1 0x20 DUP2 SWAP1 MSTORE PUSH1 0x40 SWAP1 KECCAK256 SLOAD DUP2 SWAP1 PUSH1 0x1 PUSH1 0x1 PUSH1 0xA0 SHL SUB AND CALLER EQ PUSH2 0xA22 JUMPI PUSH1 0x40 MLOAD PUSH3 0x461BCD PUSH1 0xE5 SHL DUP2 MSTORE PUSH1 0x4 ADD PUSH2 0x67E SWAP1 PUSH2 0x30E7 JUMP JUMPDEST PUSH0 DUP3 DUP2 MSTORE PUSH1 0x20 DUP2 SWAP1 MSTORE PUSH1 0x40 SWAP1 KECCAK256 SLOAD DUP3 SWAP1 PUSH1 0x1 PUSH1 0x1 PUSH1 0xA0 SHL SUB AND PUSH2 0xA57 JUMPI PUSH1 0x40 MLOAD PUSH3 0x461BCD PUSH1 0xE5 SHL DUP2 MSTORE PUSH1 0x4 ADD PUSH2 0x67E SWAP1 PUSH2 0x305B JUMP JUMPDEST PUSH0 DUP4 DUP2 MSTORE PUSH1 0x20 DUP2 SWAP1 MSTORE PUSH1 0x40 DUP2 KECCAK256 DUP1 SLOAD PUSH1 0x1 PUSH1 0x1 PUSH1 0xA0 SHL SUB NOT DUP1 DUP3 AND DUP4 SSTORE PUSH1 0x1 DUP4 ADD DUP5 SWAP1 SSTORE PUSH1 0x2 DUP4 ADD DUP5 SWAP1 SSTORE PUSH1 0x3 DUP4 ADD DUP1 SLOAD SWAP1 SWAP2 AND SWAP1 SSTORE PUSH1 0x1 PUSH1 0x1 PUSH1 0xA0 SHL SUB AND SWAP2 PUSH2 0xAA4 PUSH1 0x4 DUP4 ADD DUP3 PUSH2 0x2ACC JUMP JUMPDEST POP POP PUSH1 0x40 MLOAD DUP5 SWAP1 PUSH1 0x1 PUSH1 0x1 PUSH1 0xA0 SHL SUB DUP4 AND SWAP1 PUSH32 0xCE43E25C3862A18FC518CEB279BA32211116B6898E5EA653F120559DF2C168DA SWAP1 PUSH0 SWAP1 LOG3 POP POP POP POP JUMP JUMPDEST PUSH2 0xB21 PUSH1 0x40 MLOAD DUP1 PUSH1 0xA0 ADD PUSH1 0x40 MSTORE DUP1 PUSH0 PUSH1 0x1 PUSH1 0x1 PUSH1 0xA0 SHL SUB AND DUP2 MSTORE PUSH1 0x20 ADD PUSH0 DUP2 MSTORE PUSH1 0x20 ADD PUSH0 DUP2 MSTORE PUSH1 0x20 ADD PUSH0 PUSH1 0x1 PUSH1 0x1 PUSH1 0xA0 SHL SUB AND DUP2 MSTORE PUSH1 0x20 ADD PUSH1 0x60 DUP2 MSTORE POP SWAP1 JUMP JUMPDEST PUSH0 DUP3 DUP2 MSTORE PUSH1 0x20 DUP2 SWAP1 MSTORE PUSH1 0x40 SWAP1 KECCAK256 SLOAD DUP3 SWAP1 PUSH1 0x1 PUSH1 0x1 PUSH1 0xA0 SHL SUB AND PUSH2 0xB56 JUMPI PUSH1 0x40 MLOAD PUSH3 0x461BCD PUSH1 0xE5 SHL DUP2 MSTORE PUSH1 0x4 ADD PUSH2 0x67E SWAP1 PUSH2 0x305B JUMP JUMPDEST PUSH0 DUP4 DUP2 MSTORE PUSH1 0x20 DUP2 DUP2 MSTORE PUSH1 0x40 SWAP2 DUP3 SWAP1 KECCAK256 DUP3 MLOAD PUSH1 0xA0 DUP2 ADD DUP5 MSTORE DUP2 SLOAD PUSH1 0x1 PUSH1 0x1 PUSH1 0xA0 SHL SUB SWAP1 DUP2 AND DUP3 MSTORE PUSH1 0x1 DUP4 ADD SLOAD SWAP4 DUP3 ADD SWAP4 SWAP1 SWAP4 MSTORE PUSH1 0x2 DUP3 ADD SLOAD SWAP4 DUP2 ADD SWAP4 SWAP1 SWAP4 MSTORE PUSH1 0x3 DUP2 ADD SLOAD SWAP1 SWAP2 AND PUSH1 0x60 DUP4 ADD MSTORE PUSH1 0x4 DUP2 ADD DUP1 SLOAD PUSH1 0x80 DUP5 ADD SWAP2 SWAP1 PUSH2 0xBB6 SWAP1 PUSH2 0x309F JUMP JUMPDEST DUP1 PUSH1 0x1F ADD PUSH1 0x20 DUP1 SWAP2 DIV MUL PUSH1 0x20 ADD PUSH1 0x40 MLOAD SWAP1 DUP2 ADD PUSH1 0x40 MSTORE DUP1 SWAP3 SWAP2 SWAP1 DUP2 DUP2 MSTORE PUSH1 0x20 ADD DUP3 DUP1 SLOAD PUSH2 0xBE2 SWAP1 PUSH2 0x309F JUMP JUMPDEST DUP1 ISZERO PUSH2 0xC2D JUMPI DUP1 PUSH1 0x1F LT PUSH2 0xC04 JUMPI PUSH2 0x100 DUP1 DUP4 SLOAD DIV MUL DUP4 MSTORE SWAP2 PUSH1 0x20 ADD SWAP2 PUSH2 0xC2D JUMP JUMPDEST DUP3 ADD SWAP2 SWAP1 PUSH0 MSTORE PUSH1 0x20 PUSH0 KECCAK256 SWAP1 JUMPDEST DUP2 SLOAD DUP2 MSTORE SWAP1 PUSH1 0x1 ADD SWAP1 PUSH1 0x20 ADD DUP1 DUP4 GT PUSH2 0xC10 JUMPI DUP3 SWAP1 SUB PUSH1 0x1F AND DUP3 ADD SWAP2 JUMPDEST POP POP POP POP POP DUP2 MSTORE POP POP SWAP2 POP JUMPDEST POP SWAP2 SWAP1 POP JUMP JUMPDEST PUSH1 0x1 PUSH1 0x1 PUSH1 0xA0 SHL SUB DUP2 AND PUSH2 0xC65 JUMPI PUSH1 0x40 MLOAD PUSH3 0x461BCD PUSH1 0xE5 SHL DUP2 MSTORE PUSH1 0x4 ADD PUSH2 0x67E SWAP1 PUSH2 0x3144 JUMP JUMPDEST CALLER PUSH0 DUP2 DUP2 MSTORE PUSH1 0x1 PUSH1 0x20 SWAP1 DUP2 MSTORE PUSH1 0x40 DUP1 DUP4 KECCAK256 PUSH1 0x1 PUSH1 0x1 PUSH1 0xA0 SHL SUB DUP7 AND DUP1 DUP6 MSTORE SWAP1 DUP4 MSTORE DUP2 DUP5 KECCAK256 DUP1 SLOAD PUSH1 0xFF NOT AND SWAP1 SSTORE DUP2 MLOAD DUP4 DUP2 MSTORE SWAP3 DUP4 ADD SWAP4 SWAP1 SWAP4 MSTORE SWAP2 SWAP3 SWAP2 PUSH32 0xA2382B7B0F44EE62DF753C00034038C109332BF9B8F52418AF74AA2859780FB SWAP2 ADD JUMPDEST PUSH1 0x40 MLOAD DUP1 SWAP2 SUB SWAP1 LOG3 POP JUMP JUMPDEST DUP1 PUSH0 DUP2 MLOAD GT PUSH2 0xCF0 JUMPI PUSH1 0x40 MLOAD PUSH3 0x461BCD PUSH1 0xE5 SHL DUP2 MSTORE PUSH1 0x4 ADD PUSH2 0x67E SWAP1 PUSH2 0x3199 JUMP JUMPDEST DUP3 PUSH2 0xD51 JUMPI PUSH1 0x40 MLOAD PUSH3 0x461BCD PUSH1 0xE5 SHL DUP2 MSTORE PUSH1 0x20 PUSH1 0x4 DUP3 ADD MSTORE PUSH1 0x2B PUSH1 0x24 DUP3 ADD MSTORE PUSH32 0x4D656D6F7279436F6E74726F6C3A204D6574616461746120686173682063616E PUSH1 0x44 DUP3 ADD MSTORE PUSH11 0x6E6F74206265207A65726F PUSH1 0xA8 SHL PUSH1 0x64 DUP3 ADD MSTORE PUSH1 0x84 ADD PUSH2 0x67E JUMP JUMPDEST PUSH0 DUP4 DUP2 MSTORE PUSH1 0x20 DUP2 SWAP1 MSTORE PUSH1 0x40 SWAP1 KECCAK256 SLOAD PUSH1 0x1 PUSH1 0x1 PUSH1 0xA0 SHL SUB AND ISZERO PUSH2 0xDD1 JUMPI PUSH1 0x40 MLOAD PUSH3 0x461BCD PUSH1 0xE5 SHL DUP2 MSTORE PUSH1 0x20 PUSH1 0x4 DUP3 ADD MSTORE PUSH1 0x33 PUSH1 0x24 DUP3 ADD MSTORE PUSH32 0x4D656D6F7279436F6E74726F6C3A204D656D6F72792077697468207468697320 PUSH1 0x44 DUP3 ADD MSTORE PUSH19 0x6861736820616C726561647920657869737473 PUSH1 0x68 SHL PUSH1 0x64 DUP3 ADD MSTORE PUSH1 0x84 ADD PUSH2 0x67E JUMP JUMPDEST PUSH1 0x40 MLOAD PUSH4 0x94310E51 PUSH1 0xE0 SHL DUP2 MSTORE PUSH0 SWAP1 PUSH1 0x1 PUSH1 0x1 PUSH1 0xA0 SHL SUB PUSH32 0x0 AND SWAP1 PUSH4 0x94310E51 SWAP1 PUSH2 0xE1F SWAP1 DUP7 SWAP1 PUSH1 0x4 ADD PUSH2 0x3049 JUMP JUMPDEST PUSH1 0x20 PUSH1 0x40 MLOAD DUP1 DUP4 SUB DUP2 DUP7 GAS STATICCALL ISZERO DUP1 ISZERO PUSH2 0xE3A JUMPI RETURNDATASIZE PUSH0 PUSH0 RETURNDATACOPY RETURNDATASIZE PUSH0 REVERT JUMPDEST POP POP POP POP PUSH1 0x40 MLOAD RETURNDATASIZE PUSH1 0x1F NOT PUSH1 0x1F DUP3 ADD AND DUP3 ADD DUP1 PUSH1 0x40 MSTORE POP DUP2 ADD SWAP1 PUSH2 0xE5E SWAP2 SWAP1 PUSH2 0x31E3 JUMP JUMPDEST PUSH1 0x40 DUP1 MLOAD PUSH1 0xA0 DUP2 ADD DUP3 MSTORE CALLER DUP2 MSTORE PUSH1 0x20 DUP1 DUP3 ADD DUP9 DUP2 MSTORE TIMESTAMP DUP4 DUP6 ADD SWAP1 DUP2 MSTORE PUSH1 0x1 PUSH1 0x1 PUSH1 0xA0 SHL SUB DUP1 DUP8 AND PUSH1 0x60 DUP7 ADD SWAP1 DUP2 MSTORE PUSH1 0x80 DUP7 ADD DUP12 DUP2 MSTORE PUSH0 DUP14 DUP2 MSTORE SWAP6 DUP7 SWAP1 MSTORE SWAP7 SWAP1 SWAP5 KECCAK256 DUP6 MLOAD DUP2 SLOAD SWAP1 DUP4 AND PUSH1 0x1 PUSH1 0x1 PUSH1 0xA0 SHL SUB NOT SWAP2 DUP3 AND OR DUP3 SSTORE SWAP4 MLOAD PUSH1 0x1 DUP3 ADD SSTORE SWAP2 MLOAD PUSH1 0x2 DUP4 ADD SSTORE SWAP3 MLOAD PUSH1 0x3 DUP3 ADD DUP1 SLOAD SWAP2 SWAP1 SWAP5 AND SWAP3 AND SWAP2 SWAP1 SWAP2 OR SWAP1 SWAP2 SSTORE SWAP2 MLOAD SWAP3 SWAP4 POP SWAP2 PUSH1 0x4 DUP3 ADD SWAP1 PUSH2 0xEED SWAP1 DUP3 PUSH2 0x324A JUMP JUMPDEST POP POP CALLER PUSH0 DUP2 DUP2 MSTORE PUSH1 0x1 PUSH1 0x20 DUP2 DUP2 MSTORE PUSH1 0x40 DUP1 DUP5 KECCAK256 PUSH1 0x1 PUSH1 0x1 PUSH1 0xA0 SHL SUB DUP9 AND DUP6 MSTORE SWAP1 SWAP2 MSTORE SWAP2 DUP3 SWAP1 KECCAK256 DUP1 SLOAD PUSH1 0xFF NOT AND SWAP1 SWAP2 OR SWAP1 SSTORE MLOAD DUP7 SWAP3 POP PUSH32 0x6C1A2D58EFE5BE4C401D24D5828CB48178C534C9AA1575F7B1D257AAB8995754 SWAP1 PUSH2 0xF4F SWAP1 DUP8 SWAP1 PUSH2 0x3049 JUMP JUMPDEST PUSH1 0x40 MLOAD DUP1 SWAP2 SUB SWAP1 LOG3 DUP1 PUSH1 0x1 PUSH1 0x1 PUSH1 0xA0 SHL SUB AND CALLER PUSH1 0x1 PUSH1 0x1 PUSH1 0xA0 SHL SUB AND PUSH32 0xC7E5C007251689B9BC3CB624F55714AFC5988F3E3B4E20CC6A606D7BAD6FAECA DUP6 PUSH1 0x40 MLOAD PUSH2 0xF9A SWAP2 SWAP1 PUSH2 0x3049 JUMP JUMPDEST PUSH1 0x40 MLOAD DUP1 SWAP2 SUB SWAP1 LOG3 POP POP POP POP JUMP JUMPDEST DUP1 PUSH0 DUP2 MLOAD GT PUSH2 0xFC9 JUMPI PUSH1 0x40 MLOAD PUSH3 0x461BCD PUSH1 0xE5 SHL DUP2 MSTORE PUSH1 0x4 ADD PUSH2 0x67E SWAP1 PUSH2 0x3199 JUMP JUMPDEST PUSH1 0x40 MLOAD PUSH4 0x94310E51 PUSH1 0xE0 SHL DUP2 MSTORE PUSH0 SWAP1 PUSH1 0x1 PUSH1 0x1 PUSH1 0xA0 SHL SUB PUSH32 0x0 AND SWAP1 PUSH4 0x94310E51 SWAP1 PUSH2 0x1017 SWAP1 DUP7 SWAP1 PUSH1 0x4 ADD PUSH2 0x3049 JUMP JUMPDEST PUSH1 0x20 PUSH1 0x40 MLOAD DUP1 DUP4 SUB DUP2 DUP7 GAS STATICCALL ISZERO DUP1 ISZERO PUSH2 0x1032 JUMPI RETURNDATASIZE PUSH0 PUSH0 RETURNDATACOPY RETURNDATASIZE PUSH0 REVERT JUMPDEST POP POP POP POP PUSH1 0x40 MLOAD RETURNDATASIZE PUSH1 0x1F NOT PUSH1 0x1F DUP3 ADD AND DUP3 ADD DUP1 PUSH1 0x40 MSTORE POP DUP2 ADD SWAP1 PUSH2 0x1056 SWAP2 SWAP1 PUSH2 0x31E3 JUMP JUMPDEST CALLER PUSH0 DUP2 DUP2 MSTORE PUSH1 0x1 PUSH1 0x20 DUP2 DUP2 MSTORE PUSH1 0x40 DUP1 DUP5 KECCAK256 PUSH1 0x1 PUSH1 0x1 PUSH1 0xA0 SHL SUB DUP8 AND DUP1 DUP7 MSTORE SWAP3 MSTORE SWAP3 DUP4 SWAP1 KECCAK256 DUP1 SLOAD PUSH1 0xFF NOT AND SWAP1 SWAP3 OR SWAP1 SWAP2 SSTORE SWAP1 MLOAD SWAP3 SWAP4 POP SWAP2 PUSH32 0xC7E5C007251689B9BC3CB624F55714AFC5988F3E3B4E20CC6A606D7BAD6FAECA SWAP1 PUSH2 0x10B9 SWAP1 DUP8 SWAP1 PUSH2 0x3049 JUMP JUMPDEST PUSH1 0x40 MLOAD DUP1 SWAP2 SUB SWAP1 LOG3 POP POP POP JUMP JUMPDEST PUSH0 DUP3 DUP2 MSTORE PUSH1 0x20 DUP2 SWAP1 MSTORE PUSH1 0x40 SWAP1 KECCAK256 SLOAD DUP3 SWAP1 PUSH1 0x1 PUSH1 0x1 PUSH1 0xA0 SHL SUB AND PUSH2 0x10FB JUMPI PUSH1 0x40 MLOAD PUSH3 0x461BCD PUSH1 0xE5 SHL DUP2 MSTORE PUSH1 0x4 ADD PUSH2 0x67E SWAP1 PUSH2 0x305B JUMP JUMPDEST PUSH0 DUP4 DUP2 MSTORE PUSH1 0x20 DUP2 SWAP1 MSTORE PUSH1 0x40 SWAP1 KECCAK256 SLOAD DUP4 SWAP1 PUSH1 0x1 PUSH1 0x1 PUSH1 0xA0 SHL SUB AND CALLER EQ PUSH2 0x1132 JUMPI PUSH1 0x40 MLOAD PUSH3 0x461BCD PUSH1 0xE5 SHL DUP2 MSTORE PUSH1 0x4 ADD PUSH2 0x67E SWAP1 PUSH2 0x30E7 JUMP JUMPDEST DUP5 PUSH0 DUP2 MLOAD GT PUSH2 0x1153 JUMPI PUSH1 0x40 MLOAD PUSH3 0x461BCD PUSH1 0xE5 SHL DUP2 MSTORE PUSH1 0x4 ADD PUSH2 0x67E SWAP1 PUSH2 0x3199 JUMP JUMPDEST PUSH0 DUP5 GT PUSH2 0x1172 JUMPI PUSH1 0x40 MLOAD PUSH3 0x461BCD PUSH1 0xE5 SHL DUP2 MSTORE PUSH1 0x4 ADD PUSH2 0x67E SWAP1 PUSH2 0x3304 JUMP JUMPDEST PUSH1 0x40 MLOAD PUSH4 0x94310E51 PUSH1 0xE0 SHL DUP2 MSTORE PUSH0 SWAP1 PUSH1 0x1 PUSH1 0x1 PUSH1 0xA0 SHL SUB PUSH32 0x0 AND SWAP1 PUSH4 0x94310E51 SWAP1 PUSH2 0x11C0 SWAP1 DUP11 SWAP1 PUSH1 0x4 ADD PUSH2 0x3049 JUMP JUMPDEST PUSH1 0x20 PUSH1 0x40 MLOAD DUP1 DUP4 SUB DUP2 DUP7 GAS STATICCALL ISZERO DUP1 ISZERO PUSH2 0x11DB JUMPI RETURNDATASIZE PUSH0 PUSH0 RETURNDATACOPY RETURNDATASIZE PUSH0 REVERT JUMPDEST POP POP POP POP PUSH1 0x40 MLOAD RETURNDATASIZE PUSH1 0x1F NOT PUSH1 0x1F DUP3 ADD AND DUP3 ADD DUP1 PUSH1 0x40 MSTORE POP DUP2 ADD SWAP1 PUSH2 0x11FF SWAP2 SWAP1 PUSH2 0x31E3 JUMP JUMPDEST SWAP1 POP PUSH0 PUSH2 0x120C DUP7 TIMESTAMP PUSH2 0x3352 JUMP JUMPDEST CALLER PUSH0 DUP2 DUP2 MSTORE PUSH1 0x4 PUSH1 0x20 SWAP1 DUP2 MSTORE PUSH1 0x40 DUP1 DUP4 KECCAK256 PUSH1 0x1 PUSH1 0x1 PUSH1 0xA0 SHL SUB DUP9 AND DUP1 DUP6 MSTORE SWAP1 DUP4 MSTORE DUP2 DUP5 KECCAK256 DUP14 DUP6 MSTORE DUP4 MSTORE DUP2 DUP5 KECCAK256 DUP7 SWAP1 SSTORE DUP5 DUP5 MSTORE PUSH1 0x3 DUP4 MSTORE DUP2 DUP5 KECCAK256 DUP2 DUP6 MSTORE DUP4 MSTORE DUP2 DUP5 KECCAK256 DUP14 DUP6 MSTORE SWAP1 SWAP3 MSTORE SWAP2 DUP3 SWAP1 KECCAK256 DUP1 SLOAD PUSH1 0xFF NOT AND PUSH1 0x1 OR SWAP1 SSTORE SWAP1 MLOAD SWAP3 SWAP4 POP DUP10 SWAP3 SWAP1 SWAP2 SWAP1 PUSH32 0x2B27E4B5B88EBC1768768EAF2B99A3AFA4E1C2B7DF951B05A311C572178847C1 SWAP1 PUSH2 0x129B SWAP1 DUP14 SWAP1 DUP8 SWAP1 PUSH2 0x3371 JUMP JUMPDEST PUSH1 0x40 MLOAD DUP1 SWAP2 SUB SWAP1 LOG4 POP POP POP POP POP POP POP POP JUMP JUMPDEST DUP1 PUSH0 DUP2 MLOAD GT PUSH2 0x12CE JUMPI PUSH1 0x40 MLOAD PUSH3 0x461BCD PUSH1 0xE5 SHL DUP2 MSTORE PUSH1 0x4 ADD PUSH2 0x67E SWAP1 PUSH2 0x3199 JUMP JUMPDEST PUSH1 0x1 PUSH1 0x1 PUSH1 0xA0 SHL SUB DUP4 AND PUSH2 0x12F4 JUMPI PUSH1 0x40 MLOAD PUSH3 0x461BCD PUSH1 0xE5 SHL DUP2 MSTORE PUSH1 0x4 ADD PUSH2 0x67E SWAP1 PUSH2 0x3144 JUMP JUMPDEST CALLER PUSH1 0x1 PUSH1 0x1 PUSH1 0xA0 SHL SUB DUP5 AND SUB PUSH2 0x131C JUMPI PUSH1 0x40 MLOAD PUSH3 0x461BCD PUSH1 0xE5 SHL DUP2 MSTORE PUSH1 0x4 ADD PUSH2 0x67E SWAP1 PUSH2 0x3392 JUMP JUMPDEST CALLER PUSH0 SWAP1 DUP2 MSTORE PUSH1 0x5 PUSH1 0x20 SWAP1 DUP2 MSTORE PUSH1 0x40 DUP1 DUP4 KECCAK256 PUSH1 0x1 PUSH1 0x1 PUSH1 0xA0 SHL SUB DUP8 AND DUP5 MSTORE SWAP1 SWAP2 MSTORE SWAP1 DUP2 SWAP1 KECCAK256 SWAP1 MLOAD PUSH1 0x1 SWAP2 SWAP1 PUSH2 0x1351 SWAP1 DUP6 SWAP1 PUSH2 0x30D1 JUMP JUMPDEST SWAP1 DUP2 MSTORE PUSH1 0x40 MLOAD SWAP1 DUP2 SWAP1 SUB PUSH1 0x20 ADD DUP2 KECCAK256 DUP1 SLOAD SWAP3 ISZERO ISZERO PUSH1 0xFF NOT SWAP1 SWAP4 AND SWAP3 SWAP1 SWAP3 OR SWAP1 SWAP2 SSTORE PUSH1 0x1 PUSH1 0x1 PUSH1 0xA0 SHL SUB DUP5 AND SWAP1 CALLER SWAP1 PUSH32 0x21B007E682E9017DE8C120AB3AB126ED8D87E284B1EE985B14B0F759E9A7F46A SWAP1 PUSH2 0x10B9 SWAP1 DUP7 SWAP1 PUSH2 0x33E0 JUMP JUMPDEST PUSH0 DUP3 DUP2 MSTORE PUSH1 0x20 DUP2 SWAP1 MSTORE PUSH1 0x40 SWAP1 KECCAK256 SLOAD DUP3 SWAP1 PUSH1 0x1 PUSH1 0x1 PUSH1 0xA0 SHL SUB AND PUSH2 0x13E1 JUMPI PUSH1 0x40 MLOAD PUSH3 0x461BCD PUSH1 0xE5 SHL DUP2 MSTORE PUSH1 0x4 ADD PUSH2 0x67E SWAP1 PUSH2 0x305B JUMP JUMPDEST PUSH0 DUP4 DUP2 MSTORE PUSH1 0x20 DUP2 SWAP1 MSTORE PUSH1 0x40 SWAP1 KECCAK256 SLOAD DUP4 SWAP1 PUSH1 0x1 PUSH1 0x1 PUSH1 0xA0 SHL SUB AND CALLER EQ PUSH2 0x1418 JUMPI PUSH1 0x40 MLOAD PUSH3 0x461BCD PUSH1 0xE5 SHL DUP2 MSTORE PUSH1 0x4 ADD PUSH2 0x67E SWAP1 PUSH2 0x30E7 JUMP JUMPDEST PUSH1 0x1 PUSH1 0x1 PUSH1 0xA0 SHL SUB DUP6 AND PUSH2 0x143E JUMPI PUSH1 0x40 MLOAD PUSH3 0x461BCD PUSH1 0xE5 SHL DUP2 MSTORE PUSH1 0x4 ADD PUSH2 0x67E SWAP1 PUSH2 0x3144 JUMP JUMPDEST CALLER PUSH1 0x1 PUSH1 0x1 PUSH1 0xA0 SHL SUB DUP7 AND SUB PUSH2 0x1466 JUMPI PUSH1 0x40 MLOAD PUSH3 0x461BCD PUSH1 0xE5 SHL DUP2 MSTORE PUSH1 0x4 ADD PUSH2 0x67E SWAP1 PUSH2 0x3392 JUMP JUMPDEST PUSH0 DUP4 GT PUSH2 0x1485 JUMPI PUSH1 0x40 MLOAD PUSH3 0x461BCD PUSH1 0xE5 SHL DUP2 MSTORE PUSH1 0x4 ADD PUSH2 0x67E SWAP1 PUSH2 0x3304 JUMP JUMPDEST PUSH0 PUSH2 0x1490 DUP5 TIMESTAMP PUSH2 0x3352 JUMP JUMPDEST CALLER PUSH0 DUP2 DUP2 MSTORE PUSH1 0x4 PUSH1 0x20 SWAP1 DUP2 MSTORE PUSH1 0x40 DUP1 DUP4 KECCAK256 PUSH1 0x1 PUSH1 0x1 PUSH1 0xA0 SHL SUB DUP13 AND DUP1 DUP6 MSTORE SWAP1 DUP4 MSTORE DUP2 DUP5 KECCAK256 DUP12 DUP6 MSTORE DUP4 MSTORE DUP2 DUP5 KECCAK256 DUP7 SWAP1 SSTORE DUP5 DUP5 MSTORE PUSH1 0x3 DUP4 MSTORE DUP2 DUP5 KECCAK256 DUP2 DUP6 MSTORE DUP4 MSTORE DUP2 DUP5 KECCAK256 DUP12 DUP6 MSTORE DUP4 MSTORE DUP2 DUP5 KECCAK256 DUP1 SLOAD PUSH1 0xFF NOT AND PUSH1 0x1 OR SWAP1 SSTORE DUP2 MLOAD DUP3 DUP2 MSTORE SWAP2 DUP3 ADD SWAP4 SWAP1 SWAP4 MSTORE SWAP1 DUP2 ADD DUP5 SWAP1 MSTORE SWAP3 SWAP4 POP DUP8 SWAP3 SWAP1 SWAP2 SWAP1 PUSH32 0x2B27E4B5B88EBC1768768EAF2B99A3AFA4E1C2B7DF951B05A311C572178847C1 SWAP1 PUSH1 0x60 ADD JUMPDEST PUSH1 0x40 MLOAD DUP1 SWAP2 SUB SWAP1 LOG4 POP POP POP POP POP POP JUMP JUMPDEST CALLER PUSH0 SWAP1 DUP2 MSTORE PUSH1 0x4 PUSH1 0x20 SWAP1 DUP2 MSTORE PUSH1 0x40 DUP1 DUP4 KECCAK256 PUSH1 0x1 PUSH1 0x1 PUSH1 0xA0 SHL SUB DUP7 AND DUP5 MSTORE DUP3 MSTORE DUP1 DUP4 KECCAK256 DUP5 DUP5 MSTORE SWAP1 SWAP2 MSTORE DUP2 KECCAK256 SLOAD DUP2 SUB PUSH2 0x156C JUMPI POP PUSH0 PUSH2 0x159B JUMP JUMPDEST POP CALLER PUSH0 SWAP1 DUP2 MSTORE PUSH1 0x4 PUSH1 0x20 SWAP1 DUP2 MSTORE PUSH1 0x40 DUP1 DUP4 KECCAK256 PUSH1 0x1 PUSH1 0x1 PUSH1 0xA0 SHL SUB DUP7 AND DUP5 MSTORE DUP3 MSTORE DUP1 DUP4 KECCAK256 DUP5 DUP5 MSTORE SWAP1 SWAP2 MSTORE SWAP1 KECCAK256 SLOAD TIMESTAMP GT JUMPDEST SWAP3 SWAP2 POP POP JUMP JUMPDEST PUSH1 0x1 PUSH1 0x1 PUSH1 0xA0 SHL SUB DUP3 AND PUSH2 0x15C7 JUMPI PUSH1 0x40 MLOAD PUSH3 0x461BCD PUSH1 0xE5 SHL DUP2 MSTORE PUSH1 0x4 ADD PUSH2 0x67E SWAP1 PUSH2 0x3144 JUMP JUMPDEST CALLER PUSH1 0x1 PUSH1 0x1 PUSH1 0xA0 SHL SUB DUP4 AND SUB PUSH2 0x15EF JUMPI PUSH1 0x40 MLOAD PUSH3 0x461BCD PUSH1 0xE5 SHL DUP2 MSTORE PUSH1 0x4 ADD PUSH2 0x67E SWAP1 PUSH2 0x3392 JUMP JUMPDEST PUSH0 DUP2 GT PUSH2 0x160E JUMPI PUSH1 0x40 MLOAD PUSH3 0x461BCD PUSH1 0xE5 SHL DUP2 MSTORE PUSH1 0x4 ADD PUSH2 0x67E SWAP1 PUSH2 0x3304 JUMP JUMPDEST PUSH0 PUSH2 0x1619 DUP3 TIMESTAMP PUSH2 0x3352 JUMP JUMPDEST CALLER PUSH0 DUP2 DUP2 MSTORE PUSH1 0x2 PUSH1 0x20 SWAP1 DUP2 MSTORE PUSH1 0x40 DUP1 DUP4 KECCAK256 PUSH1 0x1 PUSH1 0x1 PUSH1 0xA0 SHL SUB DUP10 AND DUP1 DUP6 MSTORE SWAP1 DUP4 MSTORE DUP2 DUP5 KECCAK256 DUP7 SWAP1 SSTORE DUP5 DUP5 MSTORE PUSH1 0x1 DUP1 DUP5 MSTORE DUP3 DUP6 KECCAK256 DUP3 DUP7 MSTORE DUP5 MSTORE DUP3 DUP6 KECCAK256 DUP1 SLOAD PUSH1 0xFF NOT AND SWAP1 SWAP2 OR SWAP1 SSTORE DUP2 MLOAD DUP3 DUP2 MSTORE SWAP2 DUP3 ADD SWAP4 SWAP1 SWAP4 MSTORE SWAP1 DUP2 ADD DUP5 SWAP1 MSTORE SWAP3 SWAP4 POP SWAP2 PUSH32 0x90056CEFBF0E5574CDE1EF22F96C2BB2D33AA175AB27E44C77BDA129CF657390 SWAP1 PUSH1 0x60 ADD PUSH2 0x10B9 JUMP JUMPDEST DUP1 PUSH0 DUP2 MLOAD GT PUSH2 0x16BF JUMPI PUSH1 0x40 MLOAD PUSH3 0x461BCD PUSH1 0xE5 SHL DUP2 MSTORE PUSH1 0x4 ADD PUSH2 0x67E SWAP1 PUSH2 0x3199 JUMP JUMPDEST PUSH1 0x40 MLOAD PUSH4 0x94310E51 PUSH1 0xE0 SHL DUP2 MSTORE PUSH0 SWAP1 PUSH1 0x1 PUSH1 0x1 PUSH1 0xA0 SHL SUB PUSH32 0x0 AND SWAP1 PUSH4 0x94310E51 SWAP1 PUSH2 0x170D SWAP1 DUP7 SWAP1 PUSH1 0x4 ADD PUSH2 0x3049 JUMP JUMPDEST PUSH1 0x20 PUSH1 0x40 MLOAD DUP1 DUP4 SUB DUP2 DUP7 GAS STATICCALL ISZERO DUP1 ISZERO PUSH2 0x1728 JUMPI RETURNDATASIZE PUSH0 PUSH0 RETURNDATACOPY RETURNDATASIZE PUSH0 REVERT JUMPDEST POP POP POP POP PUSH1 0x40 MLOAD RETURNDATASIZE PUSH1 0x1F NOT PUSH1 0x1F DUP3 ADD AND DUP3 ADD DUP1 PUSH1 0x40 MSTORE POP DUP2 ADD SWAP1 PUSH2 0x174C SWAP2 SWAP1 PUSH2 0x31E3 JUMP JUMPDEST CALLER PUSH0 DUP2 DUP2 MSTORE PUSH1 0x2 PUSH1 0x20 SWAP1 DUP2 MSTORE PUSH1 0x40 DUP1 DUP4 KECCAK256 PUSH1 0x1 PUSH1 0x1 PUSH1 0xA0 SHL SUB DUP7 AND DUP1 DUP6 MSTORE SWAP1 DUP4 MSTORE DUP2 DUP5 KECCAK256 DUP5 SWAP1 SSTORE DUP5 DUP5 MSTORE PUSH1 0x1 DUP4 MSTORE DUP2 DUP5 KECCAK256 DUP2 DUP6 MSTORE SWAP1 SWAP3 MSTORE SWAP2 DUP3 SWAP1 KECCAK256 DUP1 SLOAD PUSH1 0xFF NOT AND SWAP1 SSTORE SWAP1 MLOAD SWAP3 SWAP4 POP SWAP2 PUSH32 0xBCBA83A04E29C80214E54ACB8B601353D47121572200F79340246E818BDA9D09 SWAP1 PUSH2 0x10B9 SWAP1 DUP8 SWAP1 PUSH2 0x3049 JUMP JUMPDEST PUSH0 PUSH1 0x20 DUP2 SWAP1 MSTORE SWAP1 DUP2 MSTORE PUSH1 0x40 SWAP1 KECCAK256 DUP1 SLOAD PUSH1 0x1 DUP3 ADD SLOAD PUSH1 0x2 DUP4 ADD SLOAD PUSH1 0x3 DUP5 ADD SLOAD PUSH1 0x4 DUP6 ADD DUP1 SLOAD PUSH1 0x1 PUSH1 0x1 PUSH1 0xA0 SHL SUB SWAP6 DUP7 AND SWAP7 SWAP5 SWAP6 SWAP4 SWAP5 SWAP3 SWAP1 SWAP4 AND SWAP3 PUSH2 0x1804 SWAP1 PUSH2 0x309F JUMP JUMPDEST DUP1 PUSH1 0x1F ADD PUSH1 0x20 DUP1 SWAP2 DIV MUL PUSH1 0x20 ADD PUSH1 0x40 MLOAD SWAP1 DUP2 ADD PUSH1 0x40 MSTORE DUP1 SWAP3 SWAP2 SWAP1 DUP2 DUP2 MSTORE PUSH1 0x20 ADD DUP3 DUP1 SLOAD PUSH2 0x1830 SWAP1 PUSH2 0x309F JUMP JUMPDEST DUP1 ISZERO PUSH2 0x187B JUMPI DUP1 PUSH1 0x1F LT PUSH2 0x1852 JUMPI PUSH2 0x100 DUP1 DUP4 SLOAD DIV MUL DUP4 MSTORE SWAP2 PUSH1 0x20 ADD SWAP2 PUSH2 0x187B JUMP JUMPDEST DUP3 ADD SWAP2 SWAP1 PUSH0 MSTORE PUSH1 0x20 PUSH0 KECCAK256 SWAP1 JUMPDEST DUP2 SLOAD DUP2 MSTORE SWAP1 PUSH1 0x1 ADD SWAP1 PUSH1 0x20 ADD DUP1 DUP4 GT PUSH2 0x185E JUMPI DUP3 SWAP1 SUB PUSH1 0x1F AND DUP3 ADD SWAP2 JUMPDEST POP POP POP POP POP SWAP1 POP DUP6 JUMP JUMPDEST PUSH0 DUP2 DUP2 MSTORE PUSH1 0x20 DUP2 SWAP1 MSTORE PUSH1 0x40 SWAP1 KECCAK256 SLOAD DUP2 SWAP1 PUSH1 0x1 PUSH1 0x1 PUSH1 0xA0 SHL SUB AND PUSH2 0x18BA JUMPI PUSH1 0x40 MLOAD PUSH3 0x461BCD PUSH1 0xE5 SHL DUP2 MSTORE PUSH1 0x4 ADD PUSH2 0x67E SWAP1 PUSH2 0x305B JUMP JUMPDEST PUSH0 DUP3 DUP2 MSTORE PUSH1 0x20 DUP2 SWAP1 MSTORE PUSH1 0x40 SWAP1 KECCAK256 SLOAD DUP3 SWAP1 PUSH1 0x1 PUSH1 0x1 PUSH1 0xA0 SHL SUB AND CALLER EQ PUSH2 0x18F1 JUMPI PUSH1 0x40 MLOAD PUSH3 0x461BCD PUSH1 0xE5 SHL DUP2 MSTORE PUSH1 0x4 ADD PUSH2 0x67E SWAP1 PUSH2 0x30E7 JUMP JUMPDEST PUSH1 0x1 PUSH1 0x1 PUSH1 0xA0 SHL SUB DUP5 AND PUSH2 0x1917 JUMPI PUSH1 0x40 MLOAD PUSH3 0x461BCD PUSH1 0xE5 SHL DUP2 MSTORE PUSH1 0x4 ADD PUSH2 0x67E SWAP1 PUSH2 0x3144 JUMP JUMPDEST CALLER PUSH1 0x1 PUSH1 0x1 PUSH1 0xA0 SHL SUB DUP6 AND SUB PUSH2 0x193F JUMPI PUSH1 0x40 MLOAD PUSH3 0x461BCD PUSH1 0xE5 SHL DUP2 MSTORE PUSH1 0x4 ADD PUSH2 0x67E SWAP1 PUSH2 0x3392 JUMP JUMPDEST CALLER PUSH0 DUP2 DUP2 MSTORE PUSH1 0x3 PUSH1 0x20 SWAP1 DUP2 MSTORE PUSH1 0x40 DUP1 DUP4 KECCAK256 PUSH1 0x1 PUSH1 0x1 PUSH1 0xA0 SHL SUB DUP10 AND DUP1 DUP6 MSTORE SWAP1 DUP4 MSTORE DUP2 DUP5 KECCAK256 DUP9 DUP6 MSTORE DUP4 MSTORE DUP2 DUP5 KECCAK256 DUP1 SLOAD PUSH1 0xFF NOT AND PUSH1 0x1 OR SWAP1 SSTORE DUP2 MLOAD DUP4 DUP2 MSTORE SWAP3 DUP4 ADD SWAP4 SWAP1 SWAP4 MSTORE DUP7 SWAP4 SWAP2 PUSH32 0xBDBADF567B0CF71C55301C89B47C08E1D0AA234F1A0148A085F5AD923E86AD6E SWAP2 ADD JUMPDEST PUSH1 0x40 MLOAD DUP1 SWAP2 SUB SWAP1 LOG4 POP POP POP POP JUMP JUMPDEST PUSH1 0x1 PUSH1 0x1 PUSH1 0xA0 SHL SUB DUP3 AND PUSH2 0x19DD JUMPI PUSH1 0x40 MLOAD PUSH3 0x461BCD PUSH1 0xE5 SHL DUP2 MSTORE PUSH1 0x4 ADD PUSH2 0x67E SWAP1 PUSH2 0x3144 JUMP JUMPDEST CALLER PUSH0 DUP2 DUP2 MSTORE PUSH1 0x3 PUSH1 0x20 SWAP1 DUP2 MSTORE PUSH1 0x40 DUP1 DUP4 KECCAK256 PUSH1 0x1 PUSH1 0x1 PUSH1 0xA0 SHL SUB DUP8 AND DUP1 DUP6 MSTORE SWAP1 DUP4 MSTORE DUP2 DUP5 KECCAK256 DUP7 DUP6 MSTORE DUP4 MSTORE DUP2 DUP5 KECCAK256 DUP1 SLOAD PUSH1 0xFF NOT AND SWAP1 SSTORE DUP5 DUP5 MSTORE PUSH1 0x4 DUP4 MSTORE DUP2 DUP5 KECCAK256 DUP2 DUP6 MSTORE DUP4 MSTORE DUP2 DUP5 KECCAK256 DUP7 DUP6 MSTORE DUP4 MSTORE DUP2 DUP5 KECCAK256 DUP5 SWAP1 SSTORE DUP2 MLOAD DUP4 DUP2 MSTORE SWAP3 DUP4 ADD SWAP4 SWAP1 SWAP4 MSTORE DUP5 SWAP4 SWAP2 PUSH32 0x768E414F25614956089FAED55A8692F78FE5A118C68BB4AD1D49741A8024C2D3 SWAP2 ADD PUSH1 0x40 MLOAD DUP1 SWAP2 SUB SWAP1 LOG4 POP POP JUMP JUMPDEST DUP2 PUSH0 DUP2 MLOAD GT PUSH2 0x1A8D JUMPI PUSH1 0x40 MLOAD PUSH3 0x461BCD PUSH1 0xE5 SHL DUP2 MSTORE PUSH1 0x4 ADD PUSH2 0x67E SWAP1 PUSH2 0x3199 JUMP JUMPDEST PUSH0 DUP3 GT PUSH2 0x1AAC JUMPI PUSH1 0x40 MLOAD PUSH3 0x461BCD PUSH1 0xE5 SHL DUP2 MSTORE PUSH1 0x4 ADD PUSH2 0x67E SWAP1 PUSH2 0x3304 JUMP JUMPDEST PUSH1 0x40 MLOAD PUSH4 0x94310E51 PUSH1 0xE0 SHL DUP2 MSTORE PUSH0 SWAP1 PUSH1 0x1 PUSH1 0x1 PUSH1 0xA0 SHL SUB PUSH32 0x0 AND SWAP1 PUSH4 0x94310E51 SWAP1 PUSH2 0x1AFA SWAP1 DUP8 SWAP1 PUSH1 0x4 ADD PUSH2 0x3049 JUMP JUMPDEST PUSH1 0x20 PUSH1 0x40 MLOAD DUP1 DUP4 SUB DUP2 DUP7 GAS STATICCALL ISZERO DUP1 ISZERO PUSH2 0x1B15 JUMPI RETURNDATASIZE PUSH0 PUSH0 RETURNDATACOPY RETURNDATASIZE PUSH0 REVERT JUMPDEST POP POP POP POP PUSH1 0x40 MLOAD RETURNDATASIZE PUSH1 0x1F NOT PUSH1 0x1F DUP3 ADD AND DUP3 ADD DUP1 PUSH1 0x40 MSTORE POP DUP2 ADD SWAP1 PUSH2 0x1B39 SWAP2 SWAP1 PUSH2 0x31E3 JUMP JUMPDEST SWAP1 POP PUSH0 PUSH2 0x1B46 DUP5 TIMESTAMP PUSH2 0x3352 JUMP JUMPDEST CALLER PUSH0 DUP2 DUP2 MSTORE PUSH1 0x2 PUSH1 0x20 SWAP1 DUP2 MSTORE PUSH1 0x40 DUP1 DUP4 KECCAK256 PUSH1 0x1 PUSH1 0x1 PUSH1 0xA0 SHL SUB DUP9 AND DUP1 DUP6 MSTORE SWAP1 DUP4 MSTORE DUP2 DUP5 KECCAK256 DUP7 SWAP1 SSTORE DUP5 DUP5 MSTORE PUSH1 0x1 DUP1 DUP5 MSTORE DUP3 DUP6 KECCAK256 DUP3 DUP7 MSTORE SWAP1 SWAP4 MSTORE SWAP3 DUP2 SWAP1 KECCAK256 DUP1 SLOAD PUSH1 0xFF NOT AND SWAP1 SWAP3 OR SWAP1 SWAP2 SSTORE MLOAD SWAP3 SWAP4 POP SWAP2 PUSH32 0x90056CEFBF0E5574CDE1EF22F96C2BB2D33AA175AB27E44C77BDA129CF657390 SWAP1 PUSH2 0x1BC2 SWAP1 DUP10 SWAP1 DUP7 SWAP1 PUSH2 0x3371 JUMP JUMPDEST PUSH1 0x40 MLOAD DUP1 SWAP2 SUB SWAP1 LOG3 POP POP POP POP POP JUMP JUMPDEST PUSH0 DUP3 DUP2 MSTORE PUSH1 0x20 DUP2 SWAP1 MSTORE PUSH1 0x40 DUP2 KECCAK256 SLOAD DUP4 SWAP1 PUSH1 0x1 PUSH1 0x1 PUSH1 0xA0 SHL SUB AND PUSH2 0x1C06 JUMPI PUSH1 0x40 MLOAD PUSH3 0x461BCD PUSH1 0xE5 SHL DUP2 MSTORE PUSH1 0x4 ADD PUSH2 0x67E SWAP1 PUSH2 0x305B JUMP JUMPDEST PUSH0 DUP5 DUP2 MSTORE PUSH1 0x20 DUP2 DUP2 MSTORE PUSH1 0x40 DUP1 DUP4 KECCAK256 DUP2 MLOAD PUSH1 0xA0 DUP2 ADD DUP4 MSTORE DUP2 SLOAD PUSH1 0x1 PUSH1 0x1 PUSH1 0xA0 SHL SUB SWAP1 DUP2 AND DUP3 MSTORE PUSH1 0x1 DUP4 ADD SLOAD SWAP5 DUP3 ADD SWAP5 SWAP1 SWAP5 MSTORE PUSH1 0x2 DUP3 ADD SLOAD SWAP3 DUP2 ADD SWAP3 SWAP1 SWAP3 MSTORE PUSH1 0x3 DUP2 ADD SLOAD SWAP1 SWAP3 AND PUSH1 0x60 DUP3 ADD MSTORE PUSH1 0x4 DUP3 ADD DUP1 SLOAD SWAP2 SWAP3 SWAP2 PUSH1 0x80 DUP5 ADD SWAP2 SWAP1 PUSH2 0x1C68 SWAP1 PUSH2 0x309F JUMP JUMPDEST DUP1 PUSH1 0x1F ADD PUSH1 0x20 DUP1 SWAP2 DIV MUL PUSH1 0x20 ADD PUSH1 0x40 MLOAD SWAP1 DUP2 ADD PUSH1 0x40 MSTORE DUP1 SWAP3 SWAP2 SWAP1 DUP2 DUP2 MSTORE PUSH1 0x20 ADD DUP3 DUP1 SLOAD PUSH2 0x1C94 SWAP1 PUSH2 0x309F JUMP JUMPDEST DUP1 ISZERO PUSH2 0x1CDF JUMPI DUP1 PUSH1 0x1F LT PUSH2 0x1CB6 JUMPI PUSH2 0x100 DUP1 DUP4 SLOAD DIV MUL DUP4 MSTORE SWAP2 PUSH1 0x20 ADD SWAP2 PUSH2 0x1CDF JUMP JUMPDEST DUP3 ADD SWAP2 SWAP1 PUSH0 MSTORE PUSH1 0x20 PUSH0 KECCAK256 SWAP1 JUMPDEST DUP2 SLOAD DUP2 MSTORE SWAP1 PUSH1 0x1 ADD SWAP1 PUSH1 0x20 ADD DUP1 DUP4 GT PUSH2 0x1CC2 JUMPI DUP3 SWAP1 SUB PUSH1 0x1F AND DUP3 ADD SWAP2 JUMPDEST POP POP POP POP POP DUP2 MSTORE POP POP SWAP1 POP DUP1 PUSH0 ADD MLOAD PUSH1 0x1 PUSH1 0x1 PUSH1 0xA0 SHL SUB AND DUP5 PUSH1 0x1 PUSH1 0x1 PUSH1 0xA0 SHL SUB AND SUB PUSH2 0x1D10 JUMPI PUSH1 0x1 SWAP3 POP POP PUSH2 0x9E4 JUMP JUMPDEST MLOAD PUSH1 0x1 PUSH1 0x1 PUSH1 0xA0 SHL SUB SWAP1 DUP2 AND PUSH0 SWAP1 DUP2 MSTORE PUSH1 0x1 PUSH1 0x20 SWAP1 DUP2 MSTORE PUSH1 0x40 DUP1 DUP4 KECCAK256 SWAP4 DUP8 AND DUP4 MSTORE SWAP3 SWAP1 MSTORE KECCAK256 SLOAD PUSH1 0xFF AND SWAP2 POP POP SWAP3 SWAP2 POP POP JUMP JUMPDEST DUP3 PUSH0 DUP2 MLOAD GT PUSH2 0x1D63 JUMPI PUSH1 0x40 MLOAD PUSH3 0x461BCD PUSH1 0xE5 SHL DUP2 MSTORE PUSH1 0x4 ADD PUSH2 0x67E SWAP1 PUSH2 0x3199 JUMP JUMPDEST DUP3 PUSH0 DUP2 MLOAD GT PUSH2 0x1D84 JUMPI PUSH1 0x40 MLOAD PUSH3 0x461BCD PUSH1 0xE5 SHL DUP2 MSTORE PUSH1 0x4 ADD PUSH2 0x67E SWAP1 PUSH2 0x3199 JUMP JUMPDEST PUSH0 DUP4 GT PUSH2 0x1DA3 JUMPI PUSH1 0x40 MLOAD PUSH3 0x461BCD PUSH1 0xE5 SHL DUP2 MSTORE PUSH1 0x4 ADD PUSH2 0x67E SWAP1 PUSH2 0x3304 JUMP JUMPDEST PUSH1 0x40 MLOAD PUSH4 0x94310E51 PUSH1 0xE0 SHL DUP2 MSTORE PUSH0 SWAP1 PUSH1 0x1 PUSH1 0x1 PUSH1 0xA0 SHL SUB PUSH32 0x0 AND SWAP1 PUSH4 0x94310E51 SWAP1 PUSH2 0x1DF1 SWAP1 DUP10 SWAP1 PUSH1 0x4 ADD PUSH2 0x3049 JUMP JUMPDEST PUSH1 0x20 PUSH1 0x40 MLOAD DUP1 DUP4 SUB DUP2 DUP7 GAS STATICCALL ISZERO DUP1 ISZERO PUSH2 0x1E0C JUMPI RETURNDATASIZE PUSH0 PUSH0 RETURNDATACOPY RETURNDATASIZE PUSH0 REVERT JUMPDEST POP POP POP POP PUSH1 0x40 MLOAD RETURNDATASIZE PUSH1 0x1F NOT PUSH1 0x1F DUP3 ADD AND DUP3 ADD DUP1 PUSH1 0x40 MSTORE POP DUP2 ADD SWAP1 PUSH2 0x1E30 SWAP2 SWAP1 PUSH2 0x31E3 JUMP JUMPDEST SWAP1 POP PUSH0 PUSH2 0x1E3D DUP6 TIMESTAMP PUSH2 0x3352 JUMP JUMPDEST CALLER PUSH0 SWAP1 DUP2 MSTORE PUSH1 0x6 PUSH1 0x20 SWAP1 DUP2 MSTORE PUSH1 0x40 DUP1 DUP4 KECCAK256 PUSH1 0x1 PUSH1 0x1 PUSH1 0xA0 SHL SUB DUP8 AND DUP5 MSTORE SWAP1 SWAP2 MSTORE SWAP1 DUP2 SWAP1 KECCAK256 SWAP1 MLOAD SWAP2 SWAP3 POP DUP3 SWAP2 PUSH2 0x1E73 SWAP1 DUP10 SWAP1 PUSH2 0x30D1 JUMP JUMPDEST SWAP1 DUP2 MSTORE PUSH1 0x40 DUP1 MLOAD PUSH1 0x20 SWAP3 DUP2 SWAP1 SUB DUP4 ADD DUP2 KECCAK256 SWAP4 SWAP1 SWAP4 SSTORE CALLER PUSH0 SWAP1 DUP2 MSTORE PUSH1 0x5 DUP4 MSTORE DUP2 DUP2 KECCAK256 PUSH1 0x1 PUSH1 0x1 PUSH1 0xA0 SHL SUB DUP8 AND DUP3 MSTORE SWAP1 SWAP3 MSTORE SWAP1 KECCAK256 PUSH1 0x1 SWAP2 PUSH2 0x1EB3 SWAP1 DUP10 SWAP1 PUSH2 0x30D1 JUMP JUMPDEST SWAP1 DUP2 MSTORE PUSH1 0x40 MLOAD SWAP1 DUP2 SWAP1 SUB PUSH1 0x20 ADD DUP2 KECCAK256 DUP1 SLOAD SWAP3 ISZERO ISZERO PUSH1 0xFF NOT SWAP1 SWAP4 AND SWAP3 SWAP1 SWAP3 OR SWAP1 SWAP2 SSTORE PUSH1 0x1 PUSH1 0x1 PUSH1 0xA0 SHL SUB DUP4 AND SWAP1 CALLER SWAP1 PUSH32 0x6ADF36A44F7C2DFA3D1F13FADD298AD4651F69261818396DF54CB9EFFBCAB996 SWAP1 PUSH2 0x1F12 SWAP1 DUP11 SWAP1 DUP13 SWAP1 DUP8 SWAP1 PUSH2 0x3408 JUMP JUMPDEST PUSH1 0x40 MLOAD DUP1 SWAP2 SUB SWAP1 LOG3 POP POP POP POP POP POP POP JUMP JUMPDEST DUP2 PUSH0 DUP2 MLOAD GT PUSH2 0x1F44 JUMPI PUSH1 0x40 MLOAD PUSH3 0x461BCD PUSH1 0xE5 SHL DUP2 MSTORE PUSH1 0x4 ADD PUSH2 0x67E SWAP1 PUSH2 0x3199 JUMP JUMPDEST PUSH1 0x1 PUSH1 0x1 PUSH1 0xA0 SHL SUB DUP5 AND PUSH2 0x1F6A JUMPI PUSH1 0x40 MLOAD PUSH3 0x461BCD PUSH1 0xE5 SHL DUP2 MSTORE PUSH1 0x4 ADD PUSH2 0x67E SWAP1 PUSH2 0x3144 JUMP JUMPDEST CALLER PUSH1 0x1 PUSH1 0x1 PUSH1 0xA0 SHL SUB DUP6 AND SUB PUSH2 0x1F92 JUMPI PUSH1 0x40 MLOAD PUSH3 0x461BCD PUSH1 0xE5 SHL DUP2 MSTORE PUSH1 0x4 ADD PUSH2 0x67E SWAP1 PUSH2 0x3392 JUMP JUMPDEST PUSH0 DUP3 GT PUSH2 0x1FB1 JUMPI PUSH1 0x40 MLOAD PUSH3 0x461BCD PUSH1 0xE5 SHL DUP2 MSTORE PUSH1 0x4 ADD PUSH2 0x67E SWAP1 PUSH2 0x3304 JUMP JUMPDEST PUSH0 PUSH2 0x1FBC DUP4 TIMESTAMP PUSH2 0x3352 JUMP JUMPDEST CALLER PUSH0 SWAP1 DUP2 MSTORE PUSH1 0x6 PUSH1 0x20 SWAP1 DUP2 MSTORE PUSH1 0x40 DUP1 DUP4 KECCAK256 PUSH1 0x1 PUSH1 0x1 PUSH1 0xA0 SHL SUB DUP11 AND DUP5 MSTORE SWAP1 SWAP2 MSTORE SWAP1 DUP2 SWAP1 KECCAK256 SWAP1 MLOAD SWAP2 SWAP3 POP DUP3 SWAP2 PUSH2 0x1FF2 SWAP1 DUP8 SWAP1 PUSH2 0x30D1 JUMP JUMPDEST SWAP1 DUP2 MSTORE PUSH1 0x40 DUP1 MLOAD PUSH1 0x20 SWAP3 DUP2 SWAP1 SUB DUP4 ADD DUP2 KECCAK256 SWAP4 SWAP1 SWAP4 SSTORE CALLER PUSH0 SWAP1 DUP2 MSTORE PUSH1 0x5 DUP4 MSTORE DUP2 DUP2 KECCAK256 PUSH1 0x1 PUSH1 0x1 PUSH1 0xA0 SHL SUB DUP11 AND DUP3 MSTORE SWAP1 SWAP3 MSTORE SWAP1 KECCAK256 PUSH1 0x1 SWAP2 PUSH2 0x2032 SWAP1 DUP8 SWAP1 PUSH2 0x30D1 JUMP JUMPDEST SWAP1 DUP2 MSTORE PUSH1 0x40 MLOAD SWAP1 DUP2 SWAP1 SUB PUSH1 0x20 ADD DUP2 KECCAK256 DUP1 SLOAD SWAP3 ISZERO ISZERO PUSH1 0xFF NOT SWAP1 SWAP4 AND SWAP3 SWAP1 SWAP3 OR SWAP1 SWAP2 SSTORE PUSH1 0x1 PUSH1 0x1 PUSH1 0xA0 SHL SUB DUP7 AND SWAP1 CALLER SWAP1 PUSH32 0x6ADF36A44F7C2DFA3D1F13FADD298AD4651F69261818396DF54CB9EFFBCAB996 SWAP1 PUSH2 0x1BC2 SWAP1 DUP9 SWAP1 DUP7 SWAP1 PUSH2 0x343D JUMP JUMPDEST PUSH1 0x1 PUSH1 0x1 PUSH1 0xA0 SHL SUB DUP2 AND PUSH2 0x20B5 JUMPI PUSH1 0x40 MLOAD PUSH3 0x461BCD PUSH1 0xE5 SHL DUP2 MSTORE PUSH1 0x4 ADD PUSH2 0x67E SWAP1 PUSH2 0x3144 JUMP JUMPDEST CALLER PUSH1 0x1 PUSH1 0x1 PUSH1 0xA0 SHL SUB DUP3 AND SUB PUSH2 0x20DD JUMPI PUSH1 0x40 MLOAD PUSH3 0x461BCD PUSH1 0xE5 SHL DUP2 MSTORE PUSH1 0x4 ADD PUSH2 0x67E SWAP1 PUSH2 0x3392 JUMP JUMPDEST CALLER PUSH0 DUP2 DUP2 MSTORE PUSH1 0x1 PUSH1 0x20 DUP2 DUP2 MSTORE PUSH1 0x40 DUP1 DUP5 KECCAK256 PUSH1 0x1 PUSH1 0x1 PUSH1 0xA0 SHL SUB DUP8 AND DUP1 DUP7 MSTORE SWAP1 DUP4 MSTORE DUP2 DUP6 KECCAK256 DUP1 SLOAD PUSH1 0xFF NOT AND SWAP1 SWAP5 OR SWAP1 SWAP4 SSTORE DUP1 MLOAD DUP3 DUP2 MSTORE SWAP2 DUP3 ADD SWAP4 SWAP1 SWAP4 MSTORE SWAP1 SWAP3 SWAP2 PUSH32 0xC7E5C007251689B9BC3CB624F55714AFC5988F3E3B4E20CC6A606D7BAD6FAECA SWAP2 ADD PUSH2 0xCC4 JUMP JUMPDEST DUP2 PUSH0 DUP2 MLOAD GT PUSH2 0x2165 JUMPI PUSH1 0x40 MLOAD PUSH3 0x461BCD PUSH1 0xE5 SHL DUP2 MSTORE PUSH1 0x4 ADD PUSH2 0x67E SWAP1 PUSH2 0x3199 JUMP JUMPDEST PUSH1 0x40 MLOAD PUSH4 0x94310E51 PUSH1 0xE0 SHL DUP2 MSTORE PUSH0 SWAP1 PUSH1 0x1 PUSH1 0x1 PUSH1 0xA0 SHL SUB PUSH32 0x0 AND SWAP1 PUSH4 0x94310E51 SWAP1 PUSH2 0x21B3 SWAP1 DUP8 SWAP1 PUSH1 0x4 ADD PUSH2 0x3049 JUMP JUMPDEST PUSH1 0x20 PUSH1 0x40 MLOAD DUP1 DUP4 SUB DUP2 DUP7 GAS STATICCALL ISZERO DUP1 ISZERO PUSH2 0x21CE JUMPI RETURNDATASIZE PUSH0 PUSH0 RETURNDATACOPY RETURNDATASIZE PUSH0 REVERT JUMPDEST POP POP POP POP PUSH1 0x40 MLOAD RETURNDATASIZE PUSH1 0x1F NOT PUSH1 0x1F DUP3 ADD AND DUP3 ADD DUP1 PUSH1 0x40 MSTORE POP DUP2 ADD SWAP1 PUSH2 0x21F2 SWAP2 SWAP1 PUSH2 0x31E3 JUMP JUMPDEST CALLER PUSH0 SWAP1 DUP2 MSTORE PUSH1 0x5 PUSH1 0x20 SWAP1 DUP2 MSTORE PUSH1 0x40 DUP1 DUP4 KECCAK256 PUSH1 0x1 PUSH1 0x1 PUSH1 0xA0 SHL SUB DUP6 AND DUP5 MSTORE SWAP1 SWAP2 MSTORE DUP1 DUP3 KECCAK256 SWAP1 MLOAD SWAP3 SWAP4 POP SWAP1 SWAP2 PUSH2 0x2227 SWAP1 DUP7 SWAP1 PUSH2 0x30D1 JUMP JUMPDEST SWAP1 DUP2 MSTORE PUSH1 0x40 DUP1 MLOAD PUSH1 0x20 SWAP3 DUP2 SWAP1 SUB DUP4 ADD DUP2 KECCAK256 DUP1 SLOAD PUSH1 0xFF NOT AND SWAP5 ISZERO ISZERO SWAP5 SWAP1 SWAP5 OR SWAP1 SWAP4 SSTORE CALLER PUSH0 SWAP1 DUP2 MSTORE PUSH1 0x6 DUP4 MSTORE DUP2 DUP2 KECCAK256 PUSH1 0x1 PUSH1 0x1 PUSH1 0xA0 SHL SUB DUP7 AND DUP3 MSTORE SWAP1 SWAP3 MSTORE DUP2 KECCAK256 SWAP1 SWAP2 PUSH2 0x2272 SWAP1 DUP7 SWAP1 PUSH2 0x30D1 JUMP JUMPDEST SWAP1 DUP2 MSTORE PUSH1 0x20 ADD PUSH1 0x40 MLOAD DUP1 SWAP2 SUB SWAP1 KECCAK256 DUP2 SWAP1 SSTORE POP DUP1 PUSH1 0x1 PUSH1 0x1 PUSH1 0xA0 SHL SUB AND CALLER PUSH1 0x1 PUSH1 0x1 PUSH1 0xA0 SHL SUB AND PUSH32 0xB09E079155E58EBB686E73C2048035A5A0E9F191531017EBB8FCD588AAE9FEDB DUP6 DUP8 PUSH1 0x40 MLOAD PUSH2 0xF9A SWAP3 SWAP2 SWAP1 PUSH2 0x346E JUMP JUMPDEST DUP1 PUSH0 DUP2 MLOAD GT PUSH2 0x22EA JUMPI PUSH1 0x40 MLOAD PUSH3 0x461BCD PUSH1 0xE5 SHL DUP2 MSTORE PUSH1 0x4 ADD PUSH2 0x67E SWAP1 PUSH2 0x3199 JUMP JUMPDEST PUSH1 0x40 MLOAD PUSH4 0x94310E51 PUSH1 0xE0 SHL DUP2 MSTORE PUSH0 SWAP1 PUSH1 0x1 PUSH1 0x1 PUSH1 0xA0 SHL SUB PUSH32 0x0 AND SWAP1 PUSH4 0x94310E51 SWAP1 PUSH2 0x2338 SWAP1 DUP7 SWAP1 PUSH1 0x4 ADD PUSH2 0x3049 JUMP JUMPDEST PUSH1 0x20 PUSH1 0x40 MLOAD DUP1 DUP4 SUB DUP2 DUP7 GAS STATICCALL ISZERO DUP1 ISZERO PUSH2 0x2353 JUMPI RETURNDATASIZE PUSH0 PUSH0 RETURNDATACOPY RETURNDATASIZE PUSH0 REVERT JUMPDEST POP POP POP POP PUSH1 0x40 MLOAD RETURNDATASIZE PUSH1 0x1F NOT PUSH1 0x1F DUP3 ADD AND DUP3 ADD DUP1 PUSH1 0x40 MSTORE POP DUP2 ADD SWAP1 PUSH2 0x2377 SWAP2 SWAP1 PUSH2 0x31E3 JUMP JUMPDEST CALLER PUSH0 DUP2 DUP2 MSTORE PUSH1 0x1 PUSH1 0x20 SWAP1 DUP2 MSTORE PUSH1 0x40 DUP1 DUP4 KECCAK256 PUSH1 0x1 PUSH1 0x1 PUSH1 0xA0 SHL SUB DUP7 AND DUP1 DUP6 MSTORE SWAP3 MSTORE SWAP2 DUP3 SWAP1 KECCAK256 DUP1 SLOAD PUSH1 0xFF NOT AND SWAP1 SSTORE SWAP1 MLOAD SWAP3 SWAP4 POP SWAP2 PUSH32 0xA2382B7B0F44EE62DF753C00034038C109332BF9B8F52418AF74AA2859780FB SWAP1 PUSH2 0x10B9 SWAP1 DUP8 SWAP1 PUSH2 0x3049 JUMP JUMPDEST PUSH0 DUP2 DUP2 MSTORE PUSH1 0x20 DUP2 SWAP1 MSTORE PUSH1 0x40 SWAP1 KECCAK256 SLOAD DUP2 SWAP1 PUSH1 0x1 PUSH1 0x1 PUSH1 0xA0 SHL SUB AND PUSH2 0x240B JUMPI PUSH1 0x40 MLOAD PUSH3 0x461BCD PUSH1 0xE5 SHL DUP2 MSTORE PUSH1 0x4 ADD PUSH2 0x67E SWAP1 PUSH2 0x305B JUMP JUMPDEST PUSH0 DUP3 DUP2 MSTORE PUSH1 0x20 DUP2 SWAP1 MSTORE PUSH1 0x40 SWAP1 KECCAK256 SLOAD DUP3 SWAP1 PUSH1 0x1 PUSH1 0x1 PUSH1 0xA0 SHL SUB AND CALLER EQ PUSH2 0x2442 JUMPI PUSH1 0x40 MLOAD PUSH3 0x461BCD PUSH1 0xE5 SHL DUP2 MSTORE PUSH1 0x4 ADD PUSH2 0x67E SWAP1 PUSH2 0x30E7 JUMP JUMPDEST DUP4 PUSH0 DUP2 MLOAD GT PUSH2 0x2463 JUMPI PUSH1 0x40 MLOAD PUSH3 0x461BCD PUSH1 0xE5 SHL DUP2 MSTORE PUSH1 0x4 ADD PUSH2 0x67E SWAP1 PUSH2 0x3199 JUMP JUMPDEST PUSH1 0x40 MLOAD PUSH4 0x94310E51 PUSH1 0xE0 SHL DUP2 MSTORE PUSH0 SWAP1 PUSH1 0x1 PUSH1 0x1 PUSH1 0xA0 SHL SUB PUSH32 0x0 AND SWAP1 PUSH4 0x94310E51 SWAP1 PUSH2 0x24B1 SWAP1 DUP10 SWAP1 PUSH1 0x4 ADD PUSH2 0x3049 JUMP JUMPDEST PUSH1 0x20 PUSH1 0x40 MLOAD DUP1 DUP4 SUB DUP2 DUP7 GAS STATICCALL ISZERO DUP1 ISZERO PUSH2 0x24CC JUMPI RETURNDATASIZE PUSH0 PUSH0 RETURNDATACOPY RETURNDATASIZE PUSH0 REVERT JUMPDEST POP POP POP POP PUSH1 0x40 MLOAD RETURNDATASIZE PUSH1 0x1F NOT PUSH1 0x1F DUP3 ADD AND DUP3 ADD DUP1 PUSH1 0x40 MSTORE POP DUP2 ADD SWAP1 PUSH2 0x24F0 SWAP2 SWAP1 PUSH2 0x31E3 JUMP JUMPDEST CALLER PUSH0 DUP2 DUP2 MSTORE PUSH1 0x3 PUSH1 0x20 SWAP1 DUP2 MSTORE PUSH1 0x40 DUP1 DUP4 KECCAK256 PUSH1 0x1 PUSH1 0x1 PUSH1 0xA0 SHL SUB DUP7 AND DUP1 DUP6 MSTORE SWAP1 DUP4 MSTORE DUP2 DUP5 KECCAK256 DUP12 DUP6 MSTORE SWAP1 SWAP3 MSTORE SWAP2 DUP3 SWAP1 KECCAK256 DUP1 SLOAD PUSH1 0xFF NOT AND PUSH1 0x1 OR SWAP1 SSTORE SWAP1 MLOAD SWAP3 SWAP4 POP DUP8 SWAP3 SWAP1 SWAP2 SWAP1 PUSH32 0xBDBADF567B0CF71C55301C89B47C08E1D0AA234F1A0148A085F5AD923E86AD6E SWAP1 PUSH2 0x1524 SWAP1 DUP12 SWAP1 PUSH2 0x3049 JUMP JUMPDEST DUP2 PUSH0 DUP2 MLOAD GT PUSH2 0x2581 JUMPI PUSH1 0x40 MLOAD PUSH3 0x461BCD PUSH1 0xE5 SHL DUP2 MSTORE PUSH1 0x4 ADD PUSH2 0x67E SWAP1 PUSH2 0x3199 JUMP JUMPDEST PUSH1 0x40 MLOAD PUSH4 0x94310E51 PUSH1 0xE0 SHL DUP2 MSTORE PUSH0 SWAP1 PUSH1 0x1 PUSH1 0x1 PUSH1 0xA0 SHL SUB PUSH32 0x0 AND SWAP1 PUSH4 0x94310E51 SWAP1 PUSH2 0x25CF SWAP1 DUP8 SWAP1 PUSH1 0x4 ADD PUSH2 0x3049 JUMP JUMPDEST PUSH1 0x20 PUSH1 0x40 MLOAD DUP1 DUP4 SUB DUP2 DUP7 GAS STATICCALL ISZERO DUP1 ISZERO PUSH2 0x25EA JUMPI RETURNDATASIZE PUSH0 PUSH0 RETURNDATACOPY RETURNDATASIZE PUSH0 REVERT JUMPDEST POP POP POP POP PUSH1 0x40 MLOAD RETURNDATASIZE PUSH1 0x1F NOT PUSH1 0x1F DUP3 ADD AND DUP3 ADD DUP1 PUSH1 0x40 MSTORE POP DUP2 ADD SWAP1 PUSH2 0x260E SWAP2 SWAP1 PUSH2 0x31E3 JUMP JUMPDEST CALLER PUSH0 DUP2 DUP2 MSTORE PUSH1 0x3 PUSH1 0x20 SWAP1 DUP2 MSTORE PUSH1 0x40 DUP1 DUP4 KECCAK256 PUSH1 0x1 PUSH1 0x1 PUSH1 0xA0 SHL SUB DUP7 AND DUP1 DUP6 MSTORE SWAP1 DUP4 MSTORE DUP2 DUP5 KECCAK256 DUP10 DUP6 MSTORE DUP4 MSTORE DUP2 DUP5 KECCAK256 DUP1 SLOAD PUSH1 0xFF NOT AND SWAP1 SSTORE DUP5 DUP5 MSTORE PUSH1 0x4 DUP4 MSTORE DUP2 DUP5 KECCAK256 DUP2 DUP6 MSTORE DUP4 MSTORE DUP2 DUP5 KECCAK256 DUP10 DUP6 MSTORE SWAP1 SWAP3 MSTORE DUP1 DUP4 KECCAK256 SWAP3 SWAP1 SWAP3 SSTORE SWAP1 MLOAD SWAP3 SWAP4 POP DUP6 SWAP3 SWAP1 SWAP2 SWAP1 PUSH32 0x768E414F25614956089FAED55A8692F78FE5A118C68BB4AD1D49741A8024C2D3 SWAP1 PUSH2 0x19A9 SWAP1 DUP10 SWAP1 PUSH2 0x3049 JUMP JUMPDEST CALLER PUSH0 SWAP1 DUP2 MSTORE PUSH1 0x2 PUSH1 0x20 SWAP1 DUP2 MSTORE PUSH1 0x40 DUP1 DUP4 KECCAK256 PUSH1 0x1 PUSH1 0x1 PUSH1 0xA0 SHL SUB DUP6 AND DUP5 MSTORE SWAP1 SWAP2 MSTORE DUP2 KECCAK256 SLOAD DUP2 SUB PUSH2 0x26C8 JUMPI POP PUSH0 SWAP2 SWAP1 POP JUMP JUMPDEST POP CALLER PUSH0 SWAP1 DUP2 MSTORE PUSH1 0x2 PUSH1 0x20 SWAP1 DUP2 MSTORE PUSH1 0x40 DUP1 DUP4 KECCAK256 PUSH1 0x1 PUSH1 0x1 PUSH1 0xA0 SHL SUB SWAP5 SWAP1 SWAP5 AND DUP4 MSTORE SWAP3 SWAP1 MSTORE KECCAK256 SLOAD TIMESTAMP GT SWAP1 JUMP JUMPDEST PUSH1 0x1 PUSH1 0x1 PUSH1 0xA0 SHL SUB DUP3 AND PUSH2 0x2718 JUMPI PUSH1 0x40 MLOAD PUSH3 0x461BCD PUSH1 0xE5 SHL DUP2 MSTORE PUSH1 0x4 ADD PUSH2 0x67E SWAP1 PUSH2 0x3144 JUMP JUMPDEST CALLER PUSH0 SWAP1 DUP2 MSTORE PUSH1 0x5 PUSH1 0x20 SWAP1 DUP2 MSTORE PUSH1 0x40 DUP1 DUP4 KECCAK256 PUSH1 0x1 PUSH1 0x1 PUSH1 0xA0 SHL SUB DUP7 AND DUP5 MSTORE SWAP1 SWAP2 MSTORE DUP1 DUP3 KECCAK256 SWAP1 MLOAD PUSH2 0x2748 SWAP1 DUP5 SWAP1 PUSH2 0x30D1 JUMP JUMPDEST SWAP1 DUP2 MSTORE PUSH1 0x40 DUP1 MLOAD PUSH1 0x20 SWAP3 DUP2 SWAP1 SUB DUP4 ADD DUP2 KECCAK256 DUP1 SLOAD PUSH1 0xFF NOT AND SWAP5 ISZERO ISZERO SWAP5 SWAP1 SWAP5 OR SWAP1 SWAP4 SSTORE CALLER PUSH0 SWAP1 DUP2 MSTORE PUSH1 0x6 DUP4 MSTORE DUP2 DUP2 KECCAK256 PUSH1 0x1 PUSH1 0x1 PUSH1 0xA0 SHL SUB DUP8 AND DUP3 MSTORE SWAP1 SWAP3 MSTORE DUP2 KECCAK256 SWAP1 SWAP2 PUSH2 0x2793 SWAP1 DUP5 SWAP1 PUSH2 0x30D1 JUMP JUMPDEST SWAP1 DUP2 MSTORE PUSH1 0x20 ADD PUSH1 0x40 MLOAD DUP1 SWAP2 SUB SWAP1 KECCAK256 DUP2 SWAP1 SSTORE POP DUP2 PUSH1 0x1 PUSH1 0x1 PUSH1 0xA0 SHL SUB AND CALLER PUSH1 0x1 PUSH1 0x1 PUSH1 0xA0 SHL SUB AND PUSH32 0xB09E079155E58EBB686E73C2048035A5A0E9F191531017EBB8FCD588AAE9FEDB DUP4 PUSH1 0x40 MLOAD PUSH2 0x27E8 SWAP2 SWAP1 PUSH2 0x33E0 JUMP JUMPDEST PUSH1 0x40 MLOAD DUP1 SWAP2 SUB SWAP1 LOG3 POP POP JUMP JUMPDEST PUSH0 DUP2 DUP2 MSTORE PUSH1 0x20 DUP2 SWAP1 MSTORE PUSH1 0x40 SWAP1 KECCAK256 SLOAD PUSH1 0x60 SWAP1 DUP3 SWAP1 PUSH1 0x1 PUSH1 0x1 PUSH1 0xA0 SHL SUB AND PUSH2 0x282C JUMPI PUSH1 0x40 MLOAD PUSH3 0x461BCD PUSH1 0xE5 SHL DUP2 MSTORE PUSH1 0x4 ADD PUSH2 0x67E SWAP1 PUSH2 0x305B JUMP JUMPDEST PUSH0 DUP4 DUP2 MSTORE PUSH1 0x20 DUP2 SWAP1 MSTORE PUSH1 0x40 SWAP1 KECCAK256 PUSH1 0x4 ADD DUP1 SLOAD PUSH2 0x2847 SWAP1 PUSH2 0x309F JUMP JUMPDEST DUP1 PUSH1 0x1F ADD PUSH1 0x20 DUP1 SWAP2 DIV MUL PUSH1 0x20 ADD PUSH1 0x40 MLOAD SWAP1 DUP2 ADD PUSH1 0x40 MSTORE DUP1 SWAP3 SWAP2 SWAP1 DUP2 DUP2 MSTORE PUSH1 0x20 ADD DUP3 DUP1 SLOAD PUSH2 0x2873 SWAP1 PUSH2 0x309F JUMP JUMPDEST DUP1 ISZERO PUSH2 0x28BE JUMPI DUP1 PUSH1 0x1F LT PUSH2 0x2895 JUMPI PUSH2 0x100 DUP1 DUP4 SLOAD DIV MUL DUP4 MSTORE SWAP2 PUSH1 0x20 ADD SWAP2 PUSH2 0x28BE JUMP JUMPDEST DUP3 ADD SWAP2 SWAP1 PUSH0 MSTORE PUSH1 0x20 PUSH0 KECCAK256 SWAP1 JUMPDEST DUP2 SLOAD DUP2 MSTORE SWAP1 PUSH1 0x1 ADD SWAP1 PUSH1 0x20 ADD DUP1 DUP4 GT PUSH2 0x28A1 JUMPI DUP3 SWAP1 SUB PUSH1 0x1F AND DUP3 ADD SWAP2 JUMPDEST POP POP POP POP POP SWAP2 POP POP SWAP2 SWAP1 POP JUMP JUMPDEST PUSH1 0x1 PUSH1 0x1 PUSH1 0xA0 SHL SUB DUP2 AND PUSH2 0x28F1 JUMPI PUSH1 0x40 MLOAD PUSH3 0x461BCD PUSH1 0xE5 SHL DUP2 MSTORE PUSH1 0x4 ADD PUSH2 0x67E SWAP1 PUSH2 0x3144 JUMP JUMPDEST CALLER PUSH0 DUP2 DUP2 MSTORE PUSH1 0x2 PUSH1 0x20 SWAP1 DUP2 MSTORE PUSH1 0x40 DUP1 DUP4 KECCAK256 PUSH1 0x1 PUSH1 0x1 PUSH1 0xA0 SHL SUB DUP7 AND DUP1 DUP6 MSTORE SWAP1 DUP4 MSTORE DUP2 DUP5 KECCAK256 DUP5 SWAP1 SSTORE DUP5 DUP5 MSTORE PUSH1 0x1 DUP4 MSTORE DUP2 DUP5 KECCAK256 DUP2 DUP6 MSTORE DUP4 MSTORE DUP2 DUP5 KECCAK256 DUP1 SLOAD PUSH1 0xFF NOT AND SWAP1 SSTORE DUP2 MLOAD DUP4 DUP2 MSTORE SWAP3 DUP4 ADD SWAP4 SWAP1 SWAP4 MSTORE SWAP2 SWAP3 SWAP2 PUSH32 0xBCBA83A04E29C80214E54ACB8B601353D47121572200F79340246E818BDA9D09 SWAP2 ADD PUSH2 0xCC4 JUMP JUMPDEST DUP2 PUSH0 DUP2 MLOAD GT PUSH2 0x298A JUMPI PUSH1 0x40 MLOAD PUSH3 0x461BCD PUSH1 0xE5 SHL DUP2 MSTORE PUSH1 0x4 ADD PUSH2 0x67E SWAP1 PUSH2 0x3199 JUMP JUMPDEST DUP2 PUSH0 DUP2 MLOAD GT PUSH2 0x29AB JUMPI PUSH1 0x40 MLOAD PUSH3 0x461BCD PUSH1 0xE5 SHL DUP2 MSTORE PUSH1 0x4 ADD PUSH2 0x67E SWAP1 PUSH2 0x3199 JUMP JUMPDEST PUSH1 0x40 MLOAD PUSH4 0x94310E51 PUSH1 0xE0 SHL DUP2 MSTORE PUSH0 SWAP1 PUSH1 0x1 PUSH1 0x1 PUSH1 0xA0 SHL SUB PUSH32 0x0 AND SWAP1 PUSH4 0x94310E51 SWAP1 PUSH2 0x29F9 SWAP1 DUP9 SWAP1 PUSH1 0x4 ADD PUSH2 0x3049 JUMP JUMPDEST PUSH1 0x20 PUSH1 0x40 MLOAD DUP1 DUP4 SUB DUP2 DUP7 GAS STATICCALL ISZERO DUP1 ISZERO PUSH2 0x2A14 JUMPI RETURNDATASIZE PUSH0 PUSH0 RETURNDATACOPY RETURNDATASIZE PUSH0 REVERT JUMPDEST POP POP POP POP PUSH1 0x40 MLOAD RETURNDATASIZE PUSH1 0x1F NOT PUSH1 0x1F DUP3 ADD AND DUP3 ADD DUP1 PUSH1 0x40 MSTORE POP DUP2 ADD SWAP1 PUSH2 0x2A38 SWAP2 SWAP1 PUSH2 0x31E3 JUMP JUMPDEST CALLER PUSH0 SWAP1 DUP2 MSTORE PUSH1 0x5 PUSH1 0x20 SWAP1 DUP2 MSTORE PUSH1 0x40 DUP1 DUP4 KECCAK256 PUSH1 0x1 PUSH1 0x1 PUSH1 0xA0 SHL SUB DUP6 AND DUP5 MSTORE SWAP1 SWAP2 MSTORE SWAP1 DUP2 SWAP1 KECCAK256 SWAP1 MLOAD SWAP2 SWAP3 POP PUSH1 0x1 SWAP2 PUSH2 0x2A6F SWAP1 DUP8 SWAP1 PUSH2 0x30D1 JUMP JUMPDEST SWAP1 DUP2 MSTORE PUSH1 0x40 MLOAD SWAP1 DUP2 SWAP1 SUB PUSH1 0x20 ADD DUP2 KECCAK256 DUP1 SLOAD SWAP3 ISZERO ISZERO PUSH1 0xFF NOT SWAP1 SWAP4 AND SWAP3 SWAP1 SWAP3 OR SWAP1 SWAP2 SSTORE PUSH1 0x1 PUSH1 0x1 PUSH1 0xA0 SHL SUB DUP3 AND SWAP1 CALLER SWAP1 PUSH32 0x21B007E682E9017DE8C120AB3AB126ED8D87E284B1EE985B14B0F759E9A7F46A SWAP1 PUSH2 0x1BC2 SWAP1 DUP9 SWAP1 DUP11 SWAP1 PUSH2 0x346E JUMP JUMPDEST POP DUP1 SLOAD PUSH2 0x2AD8 SWAP1 PUSH2 0x309F JUMP JUMPDEST PUSH0 DUP3 SSTORE DUP1 PUSH1 0x1F LT PUSH2 0x2AE7 JUMPI POP POP JUMP JUMPDEST PUSH1 0x1F ADD PUSH1 0x20 SWAP1 DIV SWAP1 PUSH0 MSTORE PUSH1 0x20 PUSH0 KECCAK256 SWAP1 DUP2 ADD SWAP1 PUSH2 0x2B03 SWAP2 SWAP1 PUSH2 0x2B06 JUMP JUMPDEST POP JUMP JUMPDEST JUMPDEST DUP1 DUP3 GT ISZERO PUSH2 0x2B1A JUMPI PUSH0 DUP2 SSTORE PUSH1 0x1 ADD PUSH2 0x2B07 JUMP JUMPDEST POP SWAP1 JUMP JUMPDEST PUSH1 0x1 PUSH1 0x1 PUSH1 0xA0 SHL SUB DUP2 AND DUP2 EQ PUSH2 0x2B03 JUMPI PUSH0 PUSH0 REVERT JUMPDEST PUSH0 PUSH0 PUSH1 0x40 DUP4 DUP6 SUB SLT ISZERO PUSH2 0x2B43 JUMPI PUSH0 PUSH0 REVERT JUMPDEST DUP3 CALLDATALOAD SWAP2 POP PUSH1 0x20 DUP4 ADD CALLDATALOAD PUSH2 0x2B55 DUP2 PUSH2 0x2B1E JUMP JUMPDEST DUP1 SWAP2 POP POP SWAP3 POP SWAP3 SWAP1 POP JUMP JUMPDEST PUSH0 PUSH1 0x20 DUP3 DUP5 SUB SLT ISZERO PUSH2 0x2B70 JUMPI PUSH0 PUSH0 REVERT JUMPDEST POP CALLDATALOAD SWAP2 SWAP1 POP JUMP JUMPDEST PUSH0 DUP2 MLOAD DUP1 DUP5 MSTORE DUP1 PUSH1 0x20 DUP5 ADD PUSH1 0x20 DUP7 ADD MCOPY PUSH0 PUSH1 0x20 DUP3 DUP7 ADD ADD MSTORE PUSH1 0x20 PUSH1 0x1F NOT PUSH1 0x1F DUP4 ADD AND DUP6 ADD ADD SWAP2 POP POP SWAP3 SWAP2 POP POP JUMP JUMPDEST PUSH1 0x20 DUP2 MSTORE PUSH1 0x1 DUP1 PUSH1 0xA0 SHL SUB DUP3 MLOAD AND PUSH1 0x20 DUP3 ADD MSTORE PUSH1 0x20 DUP3 ADD MLOAD PUSH1 0x40 DUP3 ADD MSTORE PUSH1 0x40 DUP3 ADD MLOAD PUSH1 0x60 DUP3 ADD MSTORE PUSH1 0x1 DUP1 PUSH1 0xA0 SHL SUB PUSH1 0x60 DUP4 ADD MLOAD AND PUSH1 0x80 DUP3 ADD MSTORE PUSH0 PUSH1 0x80 DUP4 ADD MLOAD PUSH1 0xA0 DUP1 DUP5 ADD MSTORE PUSH2 0x2BF7 PUSH1 0xC0 DUP5 ADD DUP3 PUSH2 0x2B77 JUMP JUMPDEST SWAP5 SWAP4 POP POP POP POP JUMP JUMPDEST PUSH0 PUSH1 0x20 DUP3 DUP5 SUB SLT ISZERO PUSH2 0x2C0F JUMPI PUSH0 PUSH0 REVERT JUMPDEST DUP2 CALLDATALOAD PUSH2 0x2C1A DUP2 PUSH2 0x2B1E JUMP JUMPDEST SWAP4 SWAP3 POP POP POP JUMP JUMPDEST PUSH4 0x4E487B71 PUSH1 0xE0 SHL PUSH0 MSTORE PUSH1 0x41 PUSH1 0x4 MSTORE PUSH1 0x24 PUSH0 REVERT JUMPDEST PUSH0 DUP3 PUSH1 0x1F DUP4 ADD SLT PUSH2 0x2C44 JUMPI PUSH0 PUSH0 REVERT JUMPDEST DUP2 CALLDATALOAD PUSH1 0x1 PUSH1 0x1 PUSH1 0x40 SHL SUB DUP2 GT ISZERO PUSH2 0x2C5D JUMPI PUSH2 0x2C5D PUSH2 0x2C21 JUMP JUMPDEST PUSH1 0x40 MLOAD PUSH1 0x1F DUP3 ADD PUSH1 0x1F NOT SWAP1 DUP2 AND PUSH1 0x3F ADD AND DUP2 ADD PUSH1 0x1 PUSH1 0x1 PUSH1 0x40 SHL SUB DUP2 GT DUP3 DUP3 LT OR ISZERO PUSH2 0x2C8B JUMPI PUSH2 0x2C8B PUSH2 0x2C21 JUMP JUMPDEST PUSH1 0x40 MSTORE DUP2 DUP2 MSTORE DUP4 DUP3 ADD PUSH1 0x20 ADD DUP6 LT ISZERO PUSH2 0x2CA2 JUMPI PUSH0 PUSH0 REVERT JUMPDEST DUP2 PUSH1 0x20 DUP6 ADD PUSH1 0x20 DUP4 ADD CALLDATACOPY PUSH0 SWAP2 DUP2 ADD PUSH1 0x20 ADD SWAP2 SWAP1 SWAP2 MSTORE SWAP4 SWAP3 POP POP POP JUMP JUMPDEST PUSH0 PUSH0 PUSH1 0x40 DUP4 DUP6 SUB SLT ISZERO PUSH2 0x2CCF JUMPI PUSH0 PUSH0 REVERT JUMPDEST DUP3 CALLDATALOAD SWAP2 POP PUSH1 0x20 DUP4 ADD CALLDATALOAD PUSH1 0x1 PUSH1 0x1 PUSH1 0x40 SHL SUB DUP2 GT ISZERO PUSH2 0x2CEB JUMPI PUSH0 PUSH0 REVERT JUMPDEST PUSH2 0x2CF7 DUP6 DUP3 DUP7 ADD PUSH2 0x2C35 JUMP JUMPDEST SWAP2 POP POP SWAP3 POP SWAP3 SWAP1 POP JUMP JUMPDEST PUSH0 PUSH0 PUSH0 PUSH1 0x60 DUP5 DUP7 SUB SLT ISZERO PUSH2 0x2D13 JUMPI PUSH0 PUSH0 REVERT JUMPDEST DUP4 CALLDATALOAD PUSH2 0x2D1E DUP2 PUSH2 0x2B1E JUMP JUMPDEST SWAP3 POP PUSH1 0x20 DUP5 ADD CALLDATALOAD PUSH2 0x2D2E DUP2 PUSH2 0x2B1E JUMP JUMPDEST SWAP2 POP PUSH1 0x40 DUP5 ADD CALLDATALOAD PUSH1 0x1 PUSH1 0x1 PUSH1 0x40 SHL SUB DUP2 GT ISZERO PUSH2 0x2D48 JUMPI PUSH0 PUSH0 REVERT JUMPDEST PUSH2 0x2D54 DUP7 DUP3 DUP8 ADD PUSH2 0x2C35 JUMP JUMPDEST SWAP2 POP POP SWAP3 POP SWAP3 POP SWAP3 JUMP JUMPDEST PUSH0 PUSH1 0x20 DUP3 DUP5 SUB SLT ISZERO PUSH2 0x2D6E JUMPI PUSH0 PUSH0 REVERT JUMPDEST DUP2 CALLDATALOAD PUSH1 0x1 PUSH1 0x1 PUSH1 0x40 SHL SUB DUP2 GT ISZERO PUSH2 0x2D83 JUMPI PUSH0 PUSH0 REVERT JUMPDEST PUSH2 0x2BF7 DUP5 DUP3 DUP6 ADD PUSH2 0x2C35 JUMP JUMPDEST PUSH0 PUSH0 PUSH0 PUSH1 0x60 DUP5 DUP7 SUB SLT ISZERO PUSH2 0x2DA1 JUMPI PUSH0 PUSH0 REVERT JUMPDEST DUP4 CALLDATALOAD PUSH1 0x1 PUSH1 0x1 PUSH1 0x40 SHL SUB DUP2 GT ISZERO PUSH2 0x2DB6 JUMPI PUSH0 PUSH0 REVERT JUMPDEST PUSH2 0x2DC2 DUP7 DUP3 DUP8 ADD PUSH2 0x2C35 JUMP JUMPDEST SWAP7 PUSH1 0x20 DUP7 ADD CALLDATALOAD SWAP7 POP PUSH1 0x40 SWAP1 SWAP6 ADD CALLDATALOAD SWAP5 SWAP4 POP POP POP POP JUMP JUMPDEST PUSH0 PUSH0 PUSH1 0x40 DUP4 DUP6 SUB SLT ISZERO PUSH2 0x2DE9 JUMPI PUSH0 PUSH0 REVERT JUMPDEST DUP3 CALLDATALOAD PUSH2 0x2DF4 DUP2 PUSH2 0x2B1E JUMP JUMPDEST SWAP2 POP PUSH1 0x20 DUP4 ADD CALLDATALOAD PUSH1 0x1 PUSH1 0x1 PUSH1 0x40 SHL SUB DUP2 GT ISZERO PUSH2 0x2CEB JUMPI PUSH0 PUSH0 REVERT JUMPDEST PUSH0 PUSH0 PUSH0 PUSH1 0x60 DUP5 DUP7 SUB SLT ISZERO PUSH2 0x2E20 JUMPI PUSH0 PUSH0 REVERT JUMPDEST DUP4 CALLDATALOAD PUSH2 0x2E2B DUP2 PUSH2 0x2B1E JUMP JUMPDEST SWAP6 PUSH1 0x20 DUP6 ADD CALLDATALOAD SWAP6 POP PUSH1 0x40 SWAP1 SWAP5 ADD CALLDATALOAD SWAP4 SWAP3 POP POP POP JUMP JUMPDEST PUSH0 PUSH0 PUSH1 0x40 DUP4 DUP6 SUB SLT ISZERO PUSH2 0x2E51 JUMPI PUSH0 PUSH0 REVERT JUMPDEST DUP3 CALLDATALOAD PUSH2 0x2E5C DUP2 PUSH2 0x2B1E JUMP JUMPDEST SWAP5 PUSH1 0x20 SWAP4 SWAP1 SWAP4 ADD CALLDATALOAD SWAP4 POP POP POP JUMP JUMPDEST PUSH1 0x1 PUSH1 0x1 PUSH1 0xA0 SHL SUB DUP7 DUP2 AND DUP3 MSTORE PUSH1 0x20 DUP3 ADD DUP7 SWAP1 MSTORE PUSH1 0x40 DUP3 ADD DUP6 SWAP1 MSTORE DUP4 AND PUSH1 0x60 DUP3 ADD MSTORE PUSH1 0xA0 PUSH1 0x80 DUP3 ADD DUP2 SWAP1 MSTORE PUSH0 SWAP1 PUSH2 0x2EA3 SWAP1 DUP4 ADD DUP5 PUSH2 0x2B77 JUMP JUMPDEST SWAP8 SWAP7 POP POP POP POP POP POP POP JUMP JUMPDEST PUSH0 PUSH0 PUSH1 0x40 DUP4 DUP6 SUB SLT ISZERO PUSH2 0x2EBF JUMPI PUSH0 PUSH0 REVERT JUMPDEST DUP3 CALLDATALOAD PUSH1 0x1 PUSH1 0x1 PUSH1 0x40 SHL SUB DUP2 GT ISZERO PUSH2 0x2ED4 JUMPI PUSH0 PUSH0 REVERT JUMPDEST PUSH2 0x2EE0 DUP6 DUP3 DUP7 ADD PUSH2 0x2C35 JUMP JUMPDEST SWAP6 PUSH1 0x20 SWAP5 SWAP1 SWAP5 ADD CALLDATALOAD SWAP5 POP POP POP POP JUMP JUMPDEST PUSH0 PUSH0 PUSH1 0x40 DUP4 DUP6 SUB SLT ISZERO PUSH2 0x2F00 JUMPI PUSH0 PUSH0 REVERT JUMPDEST DUP3 CALLDATALOAD PUSH2 0x2F0B DUP2 PUSH2 0x2B1E JUMP JUMPDEST SWAP2 POP PUSH1 0x20 DUP4 ADD CALLDATALOAD PUSH2 0x2B55 DUP2 PUSH2 0x2B1E JUMP JUMPDEST PUSH0 PUSH0 PUSH0 PUSH1 0x60 DUP5 DUP7 SUB SLT ISZERO PUSH2 0x2F2D JUMPI PUSH0 PUSH0 REVERT JUMPDEST DUP4 CALLDATALOAD PUSH1 0x1 PUSH1 0x1 PUSH1 0x40 SHL SUB DUP2 GT ISZERO PUSH2 0x2F42 JUMPI PUSH0 PUSH0 REVERT JUMPDEST PUSH2 0x2F4E DUP7 DUP3 DUP8 ADD PUSH2 0x2C35 JUMP JUMPDEST SWAP4 POP POP PUSH1 0x20 DUP5 ADD CALLDATALOAD PUSH1 0x1 PUSH1 0x1 PUSH1 0x40 SHL SUB DUP2 GT ISZERO PUSH2 0x2F69 JUMPI PUSH0 PUSH0 REVERT JUMPDEST PUSH2 0x2F75 DUP7 DUP3 DUP8 ADD PUSH2 0x2C35 JUMP JUMPDEST SWAP4 SWAP7 SWAP4 SWAP6 POP POP POP POP PUSH1 0x40 SWAP2 SWAP1 SWAP2 ADD CALLDATALOAD SWAP1 JUMP JUMPDEST PUSH0 PUSH0 PUSH0 PUSH1 0x60 DUP5 DUP7 SUB SLT ISZERO PUSH2 0x2F99 JUMPI PUSH0 PUSH0 REVERT JUMPDEST DUP4 CALLDATALOAD PUSH2 0x2FA4 DUP2 PUSH2 0x2B1E JUMP JUMPDEST SWAP3 POP PUSH1 0x20 DUP5 ADD CALLDATALOAD PUSH1 0x1 PUSH1 0x1 PUSH1 0x40 SHL SUB DUP2 GT ISZERO PUSH2 0x2F69 JUMPI PUSH0 PUSH0 REVERT JUMPDEST PUSH0 PUSH0 PUSH1 0x40 DUP4 DUP6 SUB SLT ISZERO PUSH2 0x2FCF JUMPI PUSH0 PUSH0 REVERT JUMPDEST DUP3 CALLDATALOAD PUSH1 0x1 PUSH1 0x1 PUSH1 0x40 SHL SUB DUP2 GT ISZERO PUSH2 0x2FE4 JUMPI PUSH0 PUSH0 REVERT JUMPDEST PUSH2 0x2FF0 DUP6 DUP3 DUP7 ADD PUSH2 0x2C35 JUMP JUMPDEST SWAP3 POP POP PUSH1 0x20 DUP4 ADD CALLDATALOAD PUSH1 0x1 PUSH1 0x1 PUSH1 0x40 SHL SUB DUP2 GT ISZERO PUSH2 0x2CEB JUMPI PUSH0 PUSH0 REVERT JUMPDEST PUSH0 PUSH0 PUSH0 PUSH1 0x60 DUP5 DUP7 SUB SLT ISZERO PUSH2 0x301D JUMPI PUSH0 PUSH0 REVERT JUMPDEST DUP4 CALLDATALOAD PUSH2 0x3028 DUP2 PUSH2 0x2B1E JUMP JUMPDEST SWAP3 POP PUSH1 0x20 DUP5 ADD CALLDATALOAD PUSH2 0x3038 DUP2 PUSH2 0x2B1E JUMP JUMPDEST SWAP3 SWAP6 SWAP3 SWAP5 POP POP POP PUSH1 0x40 SWAP2 SWAP1 SWAP2 ADD CALLDATALOAD SWAP1 JUMP JUMPDEST PUSH1 0x20 DUP2 MSTORE PUSH0 PUSH2 0x2C1A PUSH1 0x20 DUP4 ADD DUP5 PUSH2 0x2B77 JUMP JUMPDEST PUSH1 0x20 DUP1 DUP3 MSTORE PUSH1 0x24 SWAP1 DUP3 ADD MSTORE PUSH32 0x4D656D6F7279436F6E74726F6C3A204D656D6F727920646F6573206E6F742065 PUSH1 0x40 DUP3 ADD MSTORE PUSH4 0x1E1A5CDD PUSH1 0xE2 SHL PUSH1 0x60 DUP3 ADD MSTORE PUSH1 0x80 ADD SWAP1 JUMP JUMPDEST PUSH1 0x1 DUP2 DUP2 SHR SWAP1 DUP3 AND DUP1 PUSH2 0x30B3 JUMPI PUSH1 0x7F DUP3 AND SWAP2 POP JUMPDEST PUSH1 0x20 DUP3 LT DUP2 SUB PUSH2 0xC39 JUMPI PUSH4 0x4E487B71 PUSH1 0xE0 SHL PUSH0 MSTORE PUSH1 0x22 PUSH1 0x4 MSTORE PUSH1 0x24 PUSH0 REVERT JUMPDEST PUSH0 DUP3 MLOAD DUP1 PUSH1 0x20 DUP6 ADD DUP5 MCOPY PUSH0 SWAP3 ADD SWAP2 DUP3 MSTORE POP SWAP2 SWAP1 POP JUMP JUMPDEST PUSH1 0x20 DUP1 DUP3 MSTORE PUSH1 0x38 SWAP1 DUP3 ADD MSTORE PUSH32 0x4D656D6F7279436F6E74726F6C3A204F6E6C79206D656D6F7279206F776E6572 PUSH1 0x40 DUP3 ADD MSTORE PUSH32 0x2063616E20706572666F726D207468697320616374696F6E0000000000000000 PUSH1 0x60 DUP3 ADD MSTORE PUSH1 0x80 ADD SWAP1 JUMP JUMPDEST PUSH1 0x20 DUP1 DUP3 MSTORE PUSH1 0x35 SWAP1 DUP3 ADD MSTORE PUSH32 0x4D656D6F7279436F6E74726F6C3A204772616E74656520616464726573732063 PUSH1 0x40 DUP3 ADD MSTORE PUSH21 0x616E6E6F74206265207A65726F2061646472657373 PUSH1 0x58 SHL PUSH1 0x60 DUP3 ADD MSTORE PUSH1 0x80 ADD SWAP1 JUMP JUMPDEST PUSH1 0x20 DUP1 DUP3 MSTORE PUSH1 0x2A SWAP1 DUP3 ADD MSTORE PUSH32 0x4D656D6F7279436F6E74726F6C3A20446F6D61696E206E616D652063616E6E6F PUSH1 0x40 DUP3 ADD MSTORE PUSH10 0x7420626520656D707479 PUSH1 0xB0 SHL PUSH1 0x60 DUP3 ADD MSTORE PUSH1 0x80 ADD SWAP1 JUMP JUMPDEST PUSH0 PUSH1 0x20 DUP3 DUP5 SUB SLT ISZERO PUSH2 0x31F3 JUMPI PUSH0 PUSH0 REVERT JUMPDEST DUP2 MLOAD PUSH2 0x2C1A DUP2 PUSH2 0x2B1E JUMP JUMPDEST PUSH1 0x1F DUP3 GT ISZERO PUSH2 0x3245 JUMPI DUP1 PUSH0 MSTORE PUSH1 0x20 PUSH0 KECCAK256 PUSH1 0x1F DUP5 ADD PUSH1 0x5 SHR DUP2 ADD PUSH1 0x20 DUP6 LT ISZERO PUSH2 0x3223 JUMPI POP DUP1 JUMPDEST PUSH1 0x1F DUP5 ADD PUSH1 0x5 SHR DUP3 ADD SWAP2 POP JUMPDEST DUP2 DUP2 LT ISZERO PUSH2 0x3242 JUMPI PUSH0 DUP2 SSTORE PUSH1 0x1 ADD PUSH2 0x322F JUMP JUMPDEST POP POP JUMPDEST POP POP POP JUMP JUMPDEST DUP2 MLOAD PUSH1 0x1 PUSH1 0x1 PUSH1 0x40 SHL SUB DUP2 GT ISZERO PUSH2 0x3263 JUMPI PUSH2 0x3263 PUSH2 0x2C21 JUMP JUMPDEST PUSH2 0x3277 DUP2 PUSH2 0x3271 DUP5 SLOAD PUSH2 0x309F JUMP JUMPDEST DUP5 PUSH2 0x31FE JUMP JUMPDEST PUSH1 0x20 PUSH1 0x1F DUP3 GT PUSH1 0x1 DUP2 EQ PUSH2 0x32A9 JUMPI PUSH0 DUP4 ISZERO PUSH2 0x3292 JUMPI POP DUP5 DUP3 ADD MLOAD JUMPDEST PUSH0 NOT PUSH1 0x3 DUP6 SWAP1 SHL SHR NOT AND PUSH1 0x1 DUP5 SWAP1 SHL OR DUP5 SSTORE PUSH2 0x3242 JUMP JUMPDEST PUSH0 DUP5 DUP2 MSTORE PUSH1 0x20 DUP2 KECCAK256 PUSH1 0x1F NOT DUP6 AND SWAP2 JUMPDEST DUP3 DUP2 LT ISZERO PUSH2 0x32D8 JUMPI DUP8 DUP6 ADD MLOAD DUP3 SSTORE PUSH1 0x20 SWAP5 DUP6 ADD SWAP5 PUSH1 0x1 SWAP1 SWAP3 ADD SWAP2 ADD PUSH2 0x32B8 JUMP JUMPDEST POP DUP5 DUP3 LT ISZERO PUSH2 0x32F5 JUMPI DUP7 DUP5 ADD MLOAD PUSH0 NOT PUSH1 0x3 DUP8 SWAP1 SHL PUSH1 0xF8 AND SHR NOT AND DUP2 SSTORE JUMPDEST POP POP POP POP PUSH1 0x1 SWAP1 DUP2 SHL ADD SWAP1 SSTORE POP JUMP JUMPDEST PUSH1 0x20 DUP1 DUP3 MSTORE PUSH1 0x2E SWAP1 DUP3 ADD MSTORE PUSH32 0x4D656D6F7279436F6E74726F6C3A204475726174696F6E206D75737420626520 PUSH1 0x40 DUP3 ADD MSTORE PUSH14 0x67726561746572207468616E203 PUSH1 0x94 SHL PUSH1 0x60 DUP3 ADD MSTORE PUSH1 0x80 ADD SWAP1 JUMP JUMPDEST DUP1 DUP3 ADD DUP1 DUP3 GT ISZERO PUSH2 0x159B JUMPI PUSH4 0x4E487B71 PUSH1 0xE0 SHL PUSH0 MSTORE PUSH1 0x11 PUSH1 0x4 MSTORE PUSH1 0x24 PUSH0 REVERT JUMPDEST PUSH1 0x40 DUP2 MSTORE PUSH0 PUSH2 0x3383 PUSH1 0x40 DUP4 ADD DUP6 PUSH2 0x2B77 JUMP JUMPDEST SWAP1 POP DUP3 PUSH1 0x20 DUP4 ADD MSTORE SWAP4 SWAP3 POP POP POP JUMP JUMPDEST PUSH1 0x20 DUP1 DUP3 MSTORE PUSH1 0x2E SWAP1 DUP3 ADD MSTORE PUSH32 0x4D656D6F7279436F6E74726F6C3A2043616E6E6F74206772616E742061636365 PUSH1 0x40 DUP3 ADD MSTORE PUSH14 0x39B9903A37903CB7BAB939B2B633 PUSH1 0x91 SHL PUSH1 0x60 DUP3 ADD MSTORE PUSH1 0x80 ADD SWAP1 JUMP JUMPDEST PUSH1 0x40 DUP2 MSTORE PUSH0 PUSH2 0x33F2 PUSH1 0x40 DUP4 ADD DUP5 PUSH2 0x2B77 JUMP JUMPDEST DUP3 DUP2 SUB PUSH1 0x20 SWAP4 DUP5 ADD MSTORE PUSH0 DUP2 MSTORE SWAP2 SWAP1 SWAP2 ADD SWAP3 SWAP2 POP POP JUMP JUMPDEST PUSH1 0x60 DUP2 MSTORE PUSH0 PUSH2 0x341A PUSH1 0x60 DUP4 ADD DUP7 PUSH2 0x2B77 JUMP JUMPDEST DUP3 DUP2 SUB PUSH1 0x20 DUP5 ADD MSTORE PUSH2 0x342C DUP2 DUP7 PUSH2 0x2B77 JUMP JUMPDEST SWAP2 POP POP DUP3 PUSH1 0x40 DUP4 ADD MSTORE SWAP5 SWAP4 POP POP POP POP JUMP JUMPDEST PUSH1 0x60 DUP2 MSTORE PUSH0 PUSH2 0x344F PUSH1 0x60 DUP4 ADD DUP6 PUSH2 0x2B77 JUMP JUMPDEST DUP3 DUP2 SUB PUSH1 0x20 DUP5 ADD MSTORE PUSH0 DUP2 MSTORE PUSH1 0x20 DUP2 ADD SWAP2 POP POP DUP3 PUSH1 0x40 DUP4 ADD MSTORE SWAP4 SWAP3 POP POP POP JUMP JUMPDEST PUSH1 0x40 DUP2 MSTORE PUSH0 PUSH2 0x3480 PUSH1 0x40 DUP4 ADD DUP6 PUSH2 0x2B77 JUMP JUMPDEST DUP3 DUP2 SUB PUSH1 0x20 DUP5 ADD MSTORE PUSH2 0x3492 DUP2 DUP6 PUSH2 0x2B77 JUMP JUMPDEST SWAP6 SWAP5 POP POP POP POP POP JUMP INVALID LOG2 PUSH5 0x6970667358 0x22 SLT KECCAK256 STATICCALL 0xFC CALLVALUE 0xD8 REVERT 0xF6 SGT 0xAE LT PUSH9 0x82C418139DBC260256 PUSH8 0x30E8133958476D62 0x21 0xEC 0xD6 SWAP6 PUSH5 0x736F6C6343 STOP ADDMOD SHR STOP CALLER "
		},
		"gasEstimates": {
			"creation": {
				"codeDepositCost": "2704200",
				"executionCost": "infinite",
				"totalCost": "infinite"
			},
			"external": {
				"accessExpiration(address,address)": "infinite",
				"accessList(address,address)": "infinite",
				"addMemory(bytes32,string)": "infinite",
				"deleteMemory(bytes32)": "infinite",
				"domainAccessExpiration(address,address,string)": "infinite",
				"domainAccessList(address,address,string)": "infinite",
				"domainRegistry()": "infinite",
				"getMemory(bytes32)": "infinite",
				"getMemorySourceDomain(bytes32)": "infinite",
				"grantAccessToDomain(string)": "infinite",
				"grantAccessToDomainMemories(address,string)": "infinite",
				"grantAccessToMemory(address,bytes32)": "31850",
				"grantAccessToUser(address)": "26936",
				"grantDomainAccessToDomainMemories(string,string)": "infinite",
				"grantDomainAccessToMemory(string,bytes32)": "infinite",
				"grantTimeBasedAccessToDomain(string,uint256)": "infinite",
				"grantTimeBasedAccessToDomainMemories(address,string,uint256)": "infinite",
				"grantTimeBasedAccessToMemory(address,bytes32,uint256)": "54520",
				"grantTimeBasedAccessToUser(address,uint256)": "49553",
				"grantTimeBasedDomainAccessToDomainMemories(string,string,uint256)": "infinite",
				"grantTimeBasedDomainAccessToMemory(string,bytes32,uint256)": "infinite",
				"hasAccess(bytes32,address)": "infinite",
				"hasAccessExpired(address)": "5032",
				"hasEnhancedAccess(bytes32,address)": "infinite",
				"hasMemoryAccessExpired(address,bytes32)": "5140",
				"isMemoryExists(bytes32)": "2569",
				"memories(bytes32)": "infinite",
				"memoryAccessExpiration(address,address,bytes32)": "infinite",
				"memoryAccessList(address,address,bytes32)": "infinite",
				"revokeAccessFromDomain(string)": "infinite",
				"revokeAccessFromDomainMemories(address,string)": "infinite",
				"revokeAccessFromMemory(address,bytes32)": "32596",
				"revokeAccessFromUser(address)": "26852",
				"revokeDomainAccessFromDomainMemories(string,string)": "infinite",
				"revokeDomainAccessFromMemory(string,bytes32)": "infinite",
				"revokeTimeBasedAccessFromDomain(string)": "infinite",
				"revokeTimeBasedAccessFromUser(address)": "32040"
			}
		},
		"methodIdentifiers": {
			"accessExpiration(address,address)": "9aa1e8d2",
			"accessList(address,address)": "77814646",
			"addMemory(bytes32,string)": "38debead",
			"deleteMemory(bytes32)": "0f26fe45",
			"domainAccessExpiration(address,address,string)": "41411ec1",
			"domainAccessList(address,address,string)": "dc100083",
			"domainRegistry()": "0944a93d",
			"getMemory(bytes32)": "1d24eff4",
			"getMemorySourceDomain(bytes32)": "ee1c34ad",
			"grantAccessToDomain(string)": "41cde2ca",
			"grantAccessToDomainMemories(address,string)": "5170aca7",
			"grantAccessToMemory(address,bytes32)": "7602ade0",
			"grantAccessToUser(address)": "90e00623",
			"grantDomainAccessToDomainMemories(string,string)": "ff57706a",
			"grantDomainAccessToMemory(string,bytes32)": "abf99fc9",
			"grantTimeBasedAccessToDomain(string,uint256)": "76e042a2",
			"grantTimeBasedAccessToDomainMemories(address,string,uint256)": "8d9beb1a",
			"grantTimeBasedAccessToMemory(address,bytes32,uint256)": "67c69535",
			"grantTimeBasedAccessToUser(address,uint256)": "7062e1e0",
			"grantTimeBasedDomainAccessToDomainMemories(string,string,uint256)": "8ae5a7f6",
			"grantTimeBasedDomainAccessToMemory(string,bytes32,uint256)": "4d392dfe",
			"hasAccess(bytes32,address)": "83177db3",
			"hasAccessExpired(address)": "e605569b",
			"hasEnhancedAccess(bytes32,address)": "01a085f9",
			"hasMemoryAccessExpired(address,bytes32)": "6c8c7a6f",
			"isMemoryExists(bytes32)": "6dd64428",
			"memories(bytes32)": "74e12a86",
			"memoryAccessExpiration(address,address,bytes32)": "9b059c97",
			"memoryAccessList(address,address,bytes32)": "f8420443",
			"revokeAccessFromDomain(string)": "9a04f839",
			"revokeAccessFromDomainMemories(address,string)": "edfba336",
			"revokeAccessFromMemory(address,bytes32)": "761b232b",
			"revokeAccessFromUser(address)": "2b5afa64",
			"revokeDomainAccessFromDomainMemories(string,string)": "925c879c",
			"revokeDomainAccessFromMemory(string,bytes32)": "cdd14590",
			"revokeTimeBasedAccessFromDomain(string)": "72e6ffec",
			"revokeTimeBasedAccessFromUser(address)": "f5149c52"
		}
	},
	"abi": [
		{
			"inputs": [
				{
					"internalType": "address",
					"name": "_domainRegistry",
					"type": "address"
				}
			],
			"stateMutability": "nonpayable",
			"type": "constructor"
		},
		{
			"anonymous": false,
			"inputs": [
				{
					"indexed": true,
					"internalType": "address",
					"name": "owner",
					"type": "address"
				},
				{
					"indexed": true,
					"internalType": "address",
					"name": "grantee",
					"type": "address"
				},
				{
					"indexed": false,
					"internalType": "string",
					"name": "granteeDomain",
					"type": "string"
				}
			],
			"name": "AccessGranted",
			"type": "event"
		},
		{
			"anonymous": false,
			"inputs": [
				{
					"indexed": true,
					"internalType": "address",
					"name": "owner",
					"type": "address"
				},
				{
					"indexed": true,
					"internalType": "address",
					"name": "grantee",
					"type": "address"
				},
				{
					"indexed": false,
					"internalType": "string",
					"name": "granteeDomain",
					"type": "string"
				}
			],
			"name": "AccessRevoked",
			"type": "event"
		},
		{
			"anonymous": false,
			"inputs": [
				{
					"indexed": true,
					"internalType": "address",
					"name": "owner",
					"type": "address"
				},
				{
					"indexed": true,
					"internalType": "address",
					"name": "grantee",
					"type": "address"
				},
				{
					"indexed": false,
					"internalType": "string",
					"name": "sourceDomain",
					"type": "string"
				},
				{
					"indexed": false,
					"internalType": "string",
					"name": "granteeDomain",
					"type": "string"
				}
			],
			"name": "DomainAccessGranted",
			"type": "event"
		},
		{
			"anonymous": false,
			"inputs": [
				{
					"indexed": true,
					"internalType": "address",
					"name": "owner",
					"type": "address"
				},
				{
					"indexed": true,
					"internalType": "address",
					"name": "grantee",
					"type": "address"
				},
				{
					"indexed": false,
					"internalType": "string",
					"name": "sourceDomain",
					"type": "string"
				},
				{
					"indexed": false,
					"internalType": "string",
					"name": "granteeDomain",
					"type": "string"
				}
			],
			"name": "DomainAccessRevoked",
			"type": "event"
		},
		{
			"anonymous": false,
			"inputs": [
				{
					"indexed": true,
					"internalType": "address",
					"name": "owner",
					"type": "address"
				},
				{
					"indexed": true,
					"internalType": "address",
					"name": "grantee",
					"type": "address"
				},
				{
					"indexed": true,
					"internalType": "bytes32",
					"name": "memoryId",
					"type": "bytes32"
				},
				{
					"indexed": false,
					"internalType": "string",
					"name": "granteeDomain",
					"type": "string"
				}
			],
			"name": "MemoryAccessGranted",
			"type": "event"
		},
		{
			"anonymous": false,
			"inputs": [
				{
					"indexed": true,
					"internalType": "address",
					"name": "owner",
					"type": "address"
				},
				{
					"indexed": true,
					"internalType": "address",
					"name": "grantee",
					"type": "address"
				},
				{
					"indexed": true,
					"internalType": "bytes32",
					"name": "memoryId",
					"type": "bytes32"
				},
				{
					"indexed": false,
					"internalType": "string",
					"name": "granteeDomain",
					"type": "string"
				}
			],
			"name": "MemoryAccessRevoked",
			"type": "event"
		},
		{
			"anonymous": false,
			"inputs": [
				{
					"indexed": true,
					"internalType": "address",
					"name": "owner",
					"type": "address"
				},
				{
					"indexed": true,
					"internalType": "bytes32",
					"name": "memoryId",
					"type": "bytes32"
				},
				{
					"indexed": false,
					"internalType": "string",
					"name": "sourceDomainName",
					"type": "string"
				}
			],
			"name": "MemoryAdded",
			"type": "event"
		},
		{
			"anonymous": false,
			"inputs": [
				{
					"indexed": true,
					"internalType": "address",
					"name": "owner",
					"type": "address"
				},
				{
					"indexed": true,
					"internalType": "bytes32",
					"name": "memoryId",
					"type": "bytes32"
				}
			],
			"name": "MemoryDeleted",
			"type": "event"
		},
		{
			"anonymous": false,
			"inputs": [
				{
					"indexed": true,
					"internalType": "address",
					"name": "owner",
					"type": "address"
				},
				{
					"indexed": true,
					"internalType": "address",
					"name": "grantee",
					"type": "address"
				},
				{
					"indexed": false,
					"internalType": "string",
					"name": "granteeDomain",
					"type": "string"
				},
				{
					"indexed": false,
					"internalType": "uint256",
					"name": "expirationTime",
					"type": "uint256"
				}
			],
			"name": "TimeBasedAccessGranted",
			"type": "event"
		},
		{
			"anonymous": false,
			"inputs": [
				{
					"indexed": true,
					"internalType": "address",
					"name": "owner",
					"type": "address"
				},
				{
					"indexed": true,
					"internalType": "address",
					"name": "grantee",
					"type": "address"
				},
				{
					"indexed": false,
					"internalType": "string",
					"name": "granteeDomain",
					"type": "string"
				}
			],
			"name": "TimeBasedAccessRevoked",
			"type": "event"
		},
		{
			"anonymous": false,
			"inputs": [
				{
					"indexed": true,
					"internalType": "address",
					"name": "owner",
					"type": "address"
				},
				{
					"indexed": true,
					"internalType": "address",
					"name": "grantee",
					"type": "address"
				},
				{
					"indexed": false,
					"internalType": "string",
					"name": "sourceDomain",
					"type": "string"
				},
				{
					"indexed": false,
					"internalType": "string",
					"name": "granteeDomain",
					"type": "string"
				},
				{
					"indexed": false,
					"internalType": "uint256",
					"name": "expirationTime",
					"type": "uint256"
				}
			],
			"name": "TimeBasedDomainAccessGranted",
			"type": "event"
		},
		{
			"anonymous": false,
			"inputs": [
				{
					"indexed": true,
					"internalType": "address",
					"name": "owner",
					"type": "address"
				},
				{
					"indexed": true,
					"internalType": "address",
					"name": "grantee",
					"type": "address"
				},
				{
					"indexed": true,
					"internalType": "bytes32",
					"name": "memoryId",
					"type": "bytes32"
				},
				{
					"indexed": false,
					"internalType": "string",
					"name": "granteeDomain",
					"type": "string"
				},
				{
					"indexed": false,
					"internalType": "uint256",
					"name": "expirationTime",
					"type": "uint256"
				}
			],
			"name": "TimeBasedMemoryAccessGranted",
			"type": "event"
		},
		{
			"inputs": [
				{
					"internalType": "address",
					"name": "",
					"type": "address"
				},
				{
					"internalType": "address",
					"name": "",
					"type": "address"
				}
			],
			"name": "accessExpiration",
			"outputs": [
				{
					"internalType": "uint256",
					"name": "",
					"type": "uint256"
				}
			],
			"stateMutability": "view",
			"type": "function"
		},
		{
			"inputs": [
				{
					"internalType": "address",
					"name": "",
					"type": "address"
				},
				{
					"internalType": "address",
					"name": "",
					"type": "address"
				}
			],
			"name": "accessList",
			"outputs": [
				{
					"internalType": "bool",
					"name": "",
					"type": "bool"
				}
			],
			"stateMutability": "view",
			"type": "function"
		},
		{
			"inputs": [
				{
					"internalType": "bytes32",
					"name": "metadataHash",
					"type": "bytes32"
				},
				{
					"internalType": "string",
					"name": "sourceDomainName",
					"type": "string"
				}
			],
			"name": "addMemory",
			"outputs": [],
			"stateMutability": "nonpayable",
			"type": "function"
		},
		{
			"inputs": [
				{
					"internalType": "bytes32",
					"name": "memoryId",
					"type": "bytes32"
				}
			],
			"name": "deleteMemory",
			"outputs": [],
			"stateMutability": "nonpayable",
			"type": "function"
		},
		{
			"inputs": [
				{
					"internalType": "address",
					"name": "",
					"type": "address"
				},
				{
					"internalType": "address",
					"name": "",
					"type": "address"
				},
				{
					"internalType": "string",
					"name": "",
					"type": "string"
				}
			],
			"name": "domainAccessExpiration",
			"outputs": [
				{
					"internalType": "uint256",
					"name": "",
					"type": "uint256"
				}
			],
			"stateMutability": "view",
			"type": "function"
		},
		{
			"inputs": [
				{
					"internalType": "address",
					"name": "",
					"type": "address"
				},
				{
					"internalType": "address",
					"name": "",
					"type": "address"
				},
				{
					"internalType": "string",
					"name": "",
					"type": "string"
				}
			],
			"name": "domainAccessList",
			"outputs": [
				{
					"internalType": "bool",
					"name": "",
					"type": "bool"
				}
			],
			"stateMutability": "view",
			"type": "function"
		},
		{
			"inputs": [],
			"name": "domainRegistry",
			"outputs": [
				{
					"internalType": "contract IDomainRegistry",
					"name": "",
					"type": "address"
				}
			],
			"stateMutability": "view",
			"type": "function"
		},
		{
			"inputs": [
				{
					"internalType": "bytes32",
					"name": "memoryId",
					"type": "bytes32"
				}
			],
			"name": "getMemory",
			"outputs": [
				{
					"components": [
						{
							"internalType": "address",
							"name": "owner",
							"type": "address"
						},
						{
							"internalType": "bytes32",
							"name": "metadataHash",
							"type": "bytes32"
						},
						{
							"internalType": "uint256",
							"name": "createdAt",
							"type": "uint256"
						},
						{
							"internalType": "address",
							"name": "sourceDomain",
							"type": "address"
						},
						{
							"internalType": "string",
							"name": "sourceDomainName",
							"type": "string"
						}
					],
					"internalType": "struct MemoryControl.Memory",
					"name": "",
					"type": "tuple"
				}
			],
			"stateMutability": "view",
			"type": "function"
		},
		{
			"inputs": [
				{
					"internalType": "bytes32",
					"name": "memoryId",
					"type": "bytes32"
				}
			],
			"name": "getMemorySourceDomain",
			"outputs": [
				{
					"internalType": "string",
					"name": "",
					"type": "string"
				}
			],
			"stateMutability": "view",
			"type": "function"
		},
		{
			"inputs": [
				{
					"internalType": "string",
					"name": "domainName",
					"type": "string"
				}
			],
			"name": "grantAccessToDomain",
			"outputs": [],
			"stateMutability": "nonpayable",
			"type": "function"
		},
		{
			"inputs": [
				{
					"internalType": "address",
					"name": "grantee",
					"type": "address"
				},
				{
					"internalType": "string",
					"name": "sourceDomain",
					"type": "string"
				}
			],
			"name": "grantAccessToDomainMemories",
			"outputs": [],
			"stateMutability": "nonpayable",
			"type": "function"
		},
		{
			"inputs": [
				{
					"internalType": "address",
					"name": "grantee",
					"type": "address"
				},
				{
					"internalType": "bytes32",
					"name": "memoryId",
					"type": "bytes32"
				}
			],
			"name": "grantAccessToMemory",
			"outputs": [],
			"stateMutability": "nonpayable",
			"type": "function"
		},
		{
			"inputs": [
				{
					"internalType": "address",
					"name": "grantee",
					"type": "address"
				}
			],
			"name": "grantAccessToUser",
			"outputs": [],
			"stateMutability": "nonpayable",
			"type": "function"
		},
		{
			"inputs": [
				{
					"internalType": "string",
					"name": "granteeDomain",
					"type": "string"
				},
				{
					"internalType": "string",
					"name": "sourceDomain",
					"type": "string"
				}
			],
			"name": "grantDomainAccessToDomainMemories",
			"outputs": [],
			"stateMutability": "nonpayable",
			"type": "function"
		},
		{
			"inputs": [
				{
					"internalType": "string",
					"name": "domainName",
					"type": "string"
				},
				{
					"internalType": "bytes32",
					"name": "memoryId",
					"type": "bytes32"
				}
			],
			"name": "grantDomainAccessToMemory",
			"outputs": [],
			"stateMutability": "nonpayable",
			"type": "function"
		},
		{
			"inputs": [
				{
					"internalType": "string",
					"name": "domainName",
					"type": "string"
				},
				{
					"internalType": "uint256",
					"name": "durationInSeconds",
					"type": "uint256"
				}
			],
			"name": "grantTimeBasedAccessToDomain",
			"outputs": [],
			"stateMutability": "nonpayable",
			"type": "function"
		},
		{
			"inputs": [
				{
					"internalType": "address",
					"name": "grantee",
					"type": "address"
				},
				{
					"internalType": "string",
					"name": "sourceDomain",
					"type": "string"
				},
				{
					"internalType": "uint256",
					"name": "durationInSeconds",
					"type": "uint256"
				}
			],
			"name": "grantTimeBasedAccessToDomainMemories",
			"outputs": [],
			"stateMutability": "nonpayable",
			"type": "function"
		},
		{
			"inputs": [
				{
					"internalType": "address",
					"name": "grantee",
					"type": "address"
				},
				{
					"internalType": "bytes32",
					"name": "memoryId",
					"type": "bytes32"
				},
				{
					"internalType": "uint256",
					"name": "durationInSeconds",
					"type": "uint256"
				}
			],
			"name": "grantTimeBasedAccessToMemory",
			"outputs": [],
			"stateMutability": "nonpayable",
			"type": "function"
		},
		{
			"inputs": [
				{
					"internalType": "address",
					"name": "grantee",
					"type": "address"
				},
				{
					"internalType": "uint256",
					"name": "durationInSeconds",
					"type": "uint256"
				}
			],
			"name": "grantTimeBasedAccessToUser",
			"outputs": [],
			"stateMutability": "nonpayable",
			"type": "function"
		},
		{
			"inputs": [
				{
					"internalType": "string",
					"name": "granteeDomain",
					"type": "string"
				},
				{
					"internalType": "string",
					"name": "sourceDomain",
					"type": "string"
				},
				{
					"internalType": "uint256",
					"name": "durationInSeconds",
					"type": "uint256"
				}
			],
			"name": "grantTimeBasedDomainAccessToDomainMemories",
			"outputs": [],
			"stateMutability": "nonpayable",
			"type": "function"
		},
		{
			"inputs": [
				{
					"internalType": "string",
					"name": "domainName",
					"type": "string"
				},
				{
					"internalType": "bytes32",
					"name": "memoryId",
					"type": "bytes32"
				},
				{
					"internalType": "uint256",
					"name": "durationInSeconds",
					"type": "uint256"
				}
			],
			"name": "grantTimeBasedDomainAccessToMemory",
			"outputs": [],
			"stateMutability": "nonpayable",
			"type": "function"
		},
		{
			"inputs": [
				{
					"internalType": "bytes32",
					"name": "memoryId",
					"type": "bytes32"
				},
				{
					"internalType": "address",
					"name": "grantee",
					"type": "address"
				}
			],
			"name": "hasAccess",
			"outputs": [
				{
					"internalType": "bool",
					"name": "",
					"type": "bool"
				}
			],
			"stateMutability": "view",
			"type": "function"
		},
		{
			"inputs": [
				{
					"internalType": "address",
					"name": "grantee",
					"type": "address"
				}
			],
			"name": "hasAccessExpired",
			"outputs": [
				{
					"internalType": "bool",
					"name": "",
					"type": "bool"
				}
			],
			"stateMutability": "view",
			"type": "function"
		},
		{
			"inputs": [
				{
					"internalType": "bytes32",
					"name": "memoryId",
					"type": "bytes32"
				},
				{
					"internalType": "address",
					"name": "grantee",
					"type": "address"
				}
			],
			"name": "hasEnhancedAccess",
			"outputs": [
				{
					"internalType": "bool",
					"name": "",
					"type": "bool"
				}
			],
			"stateMutability": "view",
			"type": "function"
		},
		{
			"inputs": [
				{
					"internalType": "address",
					"name": "grantee",
					"type": "address"
				},
				{
					"internalType": "bytes32",
					"name": "memoryId",
					"type": "bytes32"
				}
			],
			"name": "hasMemoryAccessExpired",
			"outputs": [
				{
					"internalType": "bool",
					"name": "",
					"type": "bool"
				}
			],
			"stateMutability": "view",
			"type": "function"
		},
		{
			"inputs": [
				{
					"internalType": "bytes32",
					"name": "memoryId",
					"type": "bytes32"
				}
			],
			"name": "isMemoryExists",
			"outputs": [
				{
					"internalType": "bool",
					"name": "",
					"type": "bool"
				}
			],
			"stateMutability": "view",
			"type": "function"
		},
		{
			"inputs": [
				{
					"internalType": "bytes32",
					"name": "",
					"type": "bytes32"
				}
			],
			"name": "memories",
			"outputs": [
				{
					"internalType": "address",
					"name": "owner",
					"type": "address"
				},
				{
					"internalType": "bytes32",
					"name": "metadataHash",
					"type": "bytes32"
				},
				{
					"internalType": "uint256",
					"name": "createdAt",
					"type": "uint256"
				},
				{
					"internalType": "address",
					"name": "sourceDomain",
					"type": "address"
				},
				{
					"internalType": "string",
					"name": "sourceDomainName",
					"type": "string"
				}
			],
			"stateMutability": "view",
			"type": "function"
		},
		{
			"inputs": [
				{
					"internalType": "address",
					"name": "",
					"type": "address"
				},
				{
					"internalType": "address",
					"name": "",
					"type": "address"
				},
				{
					"internalType": "bytes32",
					"name": "",
					"type": "bytes32"
				}
			],
			"name": "memoryAccessExpiration",
			"outputs": [
				{
					"internalType": "uint256",
					"name": "",
					"type": "uint256"
				}
			],
			"stateMutability": "view",
			"type": "function"
		},
		{
			"inputs": [
				{
					"internalType": "address",
					"name": "",
					"type": "address"
				},
				{
					"internalType": "address",
					"name": "",
					"type": "address"
				},
				{
					"internalType": "bytes32",
					"name": "",
					"type": "bytes32"
				}
			],
			"name": "memoryAccessList",
			"outputs": [
				{
					"internalType": "bool",
					"name": "",
					"type": "bool"
				}
			],
			"stateMutability": "view",
			"type": "function"
		},
		{
			"inputs": [
				{
					"internalType": "string",
					"name": "domainName",
					"type": "string"
				}
			],
			"name": "revokeAccessFromDomain",
			"outputs": [],
			"stateMutability": "nonpayable",
			"type": "function"
		},
		{
			"inputs": [
				{
					"internalType": "address",
					"name": "grantee",
					"type": "address"
				},
				{
					"internalType": "string",
					"name": "sourceDomain",
					"type": "string"
				}
			],
			"name": "revokeAccessFromDomainMemories",
			"outputs": [],
			"stateMutability": "nonpayable",
			"type": "function"
		},
		{
			"inputs": [
				{
					"internalType": "address",
					"name": "grantee",
					"type": "address"
				},
				{
					"internalType": "bytes32",
					"name": "memoryId",
					"type": "bytes32"
				}
			],
			"name": "revokeAccessFromMemory",
			"outputs": [],
			"stateMutability": "nonpayable",
			"type": "function"
		},
		{
			"inputs": [
				{
					"internalType": "address",
					"name": "grantee",
					"type": "address"
				}
			],
			"name": "revokeAccessFromUser",
			"outputs": [],
			"stateMutability": "nonpayable",
			"type": "function"
		},
		{
			"inputs": [
				{
					"internalType": "string",
					"name": "granteeDomain",
					"type": "string"
				},
				{
					"internalType": "string",
					"name": "sourceDomain",
					"type": "string"
				}
			],
			"name": "revokeDomainAccessFromDomainMemories",
			"outputs": [],
			"stateMutability": "nonpayable",
			"type": "function"
		},
		{
			"inputs": [
				{
					"internalType": "string",
					"name": "domainName",
					"type": "string"
				},
				{
					"internalType": "bytes32",
					"name": "memoryId",
					"type": "bytes32"
				}
			],
			"name": "revokeDomainAccessFromMemory",
			"outputs": [],
			"stateMutability": "nonpayable",
			"type": "function"
		},
		{
			"inputs": [
				{
					"internalType": "string",
					"name": "domainName",
					"type": "string"
				}
			],
			"name": "revokeTimeBasedAccessFromDomain",
			"outputs": [],
			"stateMutability": "nonpayable",
			"type": "function"
		},
		{
			"inputs": [
				{
					"internalType": "address",
					"name": "grantee",
					"type": "address"
				}
			],
			"name": "revokeTimeBasedAccessFromUser",
			"outputs": [],
			"stateMutability": "nonpayable",
			"type": "function"
		}
	]
}