{
	"data": {
		"bytecode": {
			"linkReferences": {},
			"object": "60a0604052348015600e575f5ffd5b50336080526080516105ab6100315f395f818160f901526101f901526105ab5ff3fe608060405234801561000f575f5ffd5b5060043610610055575f3560e01c80631c45278114610059578063264492351461008157806394310e51146100cc578063f52433cb146100df578063f851a440146100f4575b5f5ffd5b61006c6100673660046104cb565b61011b565b60405190151581526020015b60405180910390f35b6100b461008f3660046104cb565b80516020818301810180515f825292820191909301209152546001600160a01b031681565b6040516001600160a01b039091168152602001610078565b6100b46100da3660046104cb565b610156565b6100f26100ed366004610505565b6101ee565b005b6100b47f000000000000000000000000000000000000000000000000000000000000000081565b5f5f6001600160a01b03165f83604051610135919061055f565b908152604051908190036020019020546001600160a01b0316141592915050565b5f5f5f83604051610167919061055f565b908152604051908190036020019020546001600160a01b03169050806101e85760405162461bcd60e51b815260206004820152602b60248201527f53696d706c65446f6d61696e52656769737472793a20446f6d61696e206e6f7460448201526a081c9959da5cdd195c995960aa1b60648201526084015b60405180910390fd5b92915050565b336001600160a01b037f000000000000000000000000000000000000000000000000000000000000000016146102665760405162461bcd60e51b815260206004820181905260248201527f53696d706c65446f6d61696e52656769737472793a204f6e6c792061646d696e60448201526064016101df565b815f8151116102c25760405162461bcd60e51b815260206004820152602260248201527f53696d706c65446f6d61696e52656769737472793a20456d70747920646f6d6160448201526134b760f11b60648201526084016101df565b6001600160a01b0382166103235760405162461bcd60e51b815260206004820152602260248201527f53696d706c65446f6d61696e52656769737472793a205a65726f206164647265604482015261737360f01b60648201526084016101df565b5f6001600160a01b03165f8460405161033c919061055f565b908152604051908190036020019020546001600160a01b0316146103ae5760405162461bcd60e51b815260206004820152602360248201527f53696d706c65446f6d61696e52656769737472793a20446f6d61696e2065786960448201526273747360e81b60648201526084016101df565b815f846040516103be919061055f565b90815260405190819003602001812080546001600160a01b039384166001600160a01b0319909116179055908316906103f890859061055f565b604051908190038120907f70f2ff07e8136617cdfb0433423063c9dd697c507560d7860cce09fa86874a12905f90a3505050565b634e487b7160e01b5f52604160045260245ffd5b5f82601f83011261044f575f5ffd5b813567ffffffffffffffff8111156104695761046961042c565b604051601f8201601f19908116603f0116810167ffffffffffffffff811182821017156104985761049861042c565b6040528181528382016020018510156104af575f5ffd5b816020850160208301375f918101602001919091529392505050565b5f602082840312156104db575f5ffd5b813567ffffffffffffffff8111156104f1575f5ffd5b6104fd84828501610440565b949350505050565b5f5f60408385031215610516575f5ffd5b823567ffffffffffffffff81111561052c575f5ffd5b61053885828601610440565b92505060208301356001600160a01b0381168114610554575f5ffd5b809150509250929050565b5f82518060208501845e5f92019182525091905056fea2646970667358221220796304e9132becf0badaeb75c7baa384c1afe2db1d4f5fcfe657b911a3d5bed664736f6c634300081c0033",
			"opcodes": "PUSH1 0xA0 PUSH1 0x40 MSTORE CALLVALUE DUP1 ISZERO PUSH1 0xE JUMPI PUSH0 PUSH0 REVERT JUMPDEST POP CALLER PUSH1 0x80 MSTORE PUSH1 0x80 MLOAD PUSH2 0x5AB PUSH2 0x31 PUSH0 CODECOPY PUSH0 DUP2 DUP2 PUSH1 0xF9 ADD MSTORE PUSH2 0x1F9 ADD MSTORE PUSH2 0x5AB PUSH0 RETURN INVALID PUSH1 0x80 PUSH1 0x40 MSTORE CALLVALUE DUP1 ISZERO PUSH2 0xF JUMPI PUSH0 PUSH0 REVERT JUMPDEST POP PUSH1 0x4 CALLDATASIZE LT PUSH2 0x55 JUMPI PUSH0 CALLDATALOAD PUSH1 0xE0 SHR DUP1 PUSH4 0x1C452781 EQ PUSH2 0x59 JUMPI DUP1 PUSH4 0x26449235 EQ PUSH2 0x81 JUMPI DUP1 PUSH4 0x94310E51 EQ PUSH2 0xCC JUMPI DUP1 PUSH4 0xF52433CB EQ PUSH2 0xDF JUMPI DUP1 PUSH4 0xF851A440 EQ PUSH2 0xF4 JUMPI JUMPDEST PUSH0 PUSH0 REVERT JUMPDEST PUSH2 0x6C PUSH2 0x67 CALLDATASIZE PUSH1 0x4 PUSH2 0x4CB JUMP JUMPDEST PUSH2 0x11B JUMP JUMPDEST PUSH1 0x40 MLOAD SWAP1 ISZERO ISZERO DUP2 MSTORE PUSH1 0x20 ADD JUMPDEST PUSH1 0x40 MLOAD DUP1 SWAP2 SUB SWAP1 RETURN JUMPDEST PUSH2 0xB4 PUSH2 0x8F CALLDATASIZE PUSH1 0x4 PUSH2 0x4CB JUMP JUMPDEST DUP1 MLOAD PUSH1 0x20 DUP2 DUP4 ADD DUP2 ADD DUP1 MLOAD PUSH0 DUP3 MSTORE SWAP3 DUP3 ADD SWAP2 SWAP1 SWAP4 ADD KECCAK256 SWAP2 MSTORE SLOAD PUSH1 0x1 PUSH1 0x1 PUSH1 0xA0 SHL SUB AND DUP2 JUMP JUMPDEST PUSH1 0x40 MLOAD PUSH1 0x1 PUSH1 0x1 PUSH1 0xA0 SHL SUB SWAP1 SWAP2 AND DUP2 MSTORE PUSH1 0x20 ADD PUSH2 0x78 JUMP JUMPDEST PUSH2 0xB4 PUSH2 0xDA CALLDATASIZE PUSH1 0x4 PUSH2 0x4CB JUMP JUMPDEST PUSH2 0x156 JUMP JUMPDEST PUSH2 0xF2 PUSH2 0xED CALLDATASIZE PUSH1 0x4 PUSH2 0x505 JUMP JUMPDEST PUSH2 0x1EE JUMP JUMPDEST STOP JUMPDEST PUSH2 0xB4 PUSH32 0x0 DUP2 JUMP JUMPDEST PUSH0 PUSH0 PUSH1 0x1 PUSH1 0x1 PUSH1 0xA0 SHL SUB AND PUSH0 DUP4 PUSH1 0x40 MLOAD PUSH2 0x135 SWAP2 SWAP1 PUSH2 0x55F JUMP JUMPDEST SWAP1 DUP2 MSTORE PUSH1 0x40 MLOAD SWAP1 DUP2 SWAP1 SUB PUSH1 0x20 ADD SWAP1 KECCAK256 SLOAD PUSH1 0x1 PUSH1 0x1 PUSH1 0xA0 SHL SUB AND EQ ISZERO SWAP3 SWAP2 POP POP JUMP JUMPDEST PUSH0 PUSH0 PUSH0 DUP4 PUSH1 0x40 MLOAD PUSH2 0x167 SWAP2 SWAP1 PUSH2 0x55F JUMP JUMPDEST SWAP1 DUP2 MSTORE PUSH1 0x40 MLOAD SWAP1 DUP2 SWAP1 SUB PUSH1 0x20 ADD SWAP1 KECCAK256 SLOAD PUSH1 0x1 PUSH1 0x1 PUSH1 0xA0 SHL SUB AND SWAP1 POP DUP1 PUSH2 0x1E8 JUMPI PUSH1 0x40 MLOAD PUSH3 0x461BCD PUSH1 0xE5 SHL DUP2 MSTORE PUSH1 0x20 PUSH1 0x4 DUP3 ADD MSTORE PUSH1 0x2B PUSH1 0x24 DUP3 ADD MSTORE PUSH32 0x53696D706C65446F6D61696E52656769737472793A20446F6D61696E206E6F74 PUSH1 0x44 DUP3 ADD MSTORE PUSH11 0x81C9959DA5CDD195C9959 PUSH1 0xAA SHL PUSH1 0x64 DUP3 ADD MSTORE PUSH1 0x84 ADD JUMPDEST PUSH1 0x40 MLOAD DUP1 SWAP2 SUB SWAP1 REVERT JUMPDEST SWAP3 SWAP2 POP POP JUMP JUMPDEST CALLER PUSH1 0x1 PUSH1 0x1 PUSH1 0xA0 SHL SUB PUSH32 0x0 AND EQ PUSH2 0x266 JUMPI PUSH1 0x40 MLOAD PUSH3 0x461BCD PUSH1 0xE5 SHL DUP2 MSTORE PUSH1 0x20 PUSH1 0x4 DUP3 ADD DUP2 SWAP1 MSTORE PUSH1 0x24 DUP3 ADD MSTORE PUSH32 0x53696D706C65446F6D61696E52656769737472793A204F6E6C792061646D696E PUSH1 0x44 DUP3 ADD MSTORE PUSH1 0x64 ADD PUSH2 0x1DF JUMP JUMPDEST DUP2 PUSH0 DUP2 MLOAD GT PUSH2 0x2C2 JUMPI PUSH1 0x40 MLOAD PUSH3 0x461BCD PUSH1 0xE5 SHL DUP2 MSTORE PUSH1 0x20 PUSH1 0x4 DUP3 ADD MSTORE PUSH1 0x22 PUSH1 0x24 DUP3 ADD MSTORE PUSH32 0x53696D706C65446F6D61696E52656769737472793A20456D70747920646F6D61 PUSH1 0x44 DUP3 ADD MSTORE PUSH2 0x34B7 PUSH1 0xF1 SHL PUSH1 0x64 DUP3 ADD MSTORE PUSH1 0x84 ADD PUSH2 0x1DF JUMP JUMPDEST PUSH1 0x1 PUSH1 0x1 PUSH1 0xA0 SHL SUB DUP3 AND PUSH2 0x323 JUMPI PUSH1 0x40 MLOAD PUSH3 0x461BCD PUSH1 0xE5 SHL DUP2 MSTORE PUSH1 0x20 PUSH1 0x4 DUP3 ADD MSTORE PUSH1 0x22 PUSH1 0x24 DUP3 ADD MSTORE PUSH32 0x53696D706C65446F6D61696E52656769737472793A205A65726F206164647265 PUSH1 0x44 DUP3 ADD MSTORE PUSH2 0x7373 PUSH1 0xF0 SHL PUSH1 0x64 DUP3 ADD MSTORE PUSH1 0x84 ADD PUSH2 0x1DF JUMP JUMPDEST PUSH0 PUSH1 0x1 PUSH1 0x1 PUSH1 0xA0 SHL SUB AND PUSH0 DUP5 PUSH1 0x40 MLOAD PUSH2 0x33C SWAP2 SWAP1 PUSH2 0x55F JUMP JUMPDEST SWAP1 DUP2 MSTORE PUSH1 0x40 MLOAD SWAP1 DUP2 SWAP1 SUB PUSH1 0x20 ADD SWAP1 KECCAK256 SLOAD PUSH1 0x1 PUSH1 0x1 PUSH1 0xA0 SHL SUB AND EQ PUSH2 0x3AE JUMPI PUSH1 0x40 MLOAD PUSH3 0x461BCD PUSH1 0xE5 SHL DUP2 MSTORE PUSH1 0x20 PUSH1 0x4 DUP3 ADD MSTORE PUSH1 0x23 PUSH1 0x24 DUP3 ADD MSTORE PUSH32 0x53696D706C65446F6D61696E52656769737472793A20446F6D61696E20657869 PUSH1 0x44 DUP3 ADD MSTORE PUSH3 0x737473 PUSH1 0xE8 SHL PUSH1 0x64 DUP3 ADD MSTORE PUSH1 0x84 ADD PUSH2 0x1DF JUMP JUMPDEST DUP2 PUSH0 DUP5 PUSH1 0x40 MLOAD PUSH2 0x3BE SWAP2 SWAP1 PUSH2 0x55F JUMP JUMPDEST SWAP1 DUP2 MSTORE PUSH1 0x40 MLOAD SWAP1 DUP2 SWAP1 SUB PUSH1 0x20 ADD DUP2 KECCAK256 DUP1 SLOAD PUSH1 0x1 PUSH1 0x1 PUSH1 0xA0 SHL SUB SWAP4 DUP5 AND PUSH1 0x1 PUSH1 0x1 PUSH1 0xA0 SHL SUB NOT SWAP1 SWAP2 AND OR SWAP1 SSTORE SWAP1 DUP4 AND SWAP1 PUSH2 0x3F8 SWAP1 DUP6 SWAP1 PUSH2 0x55F JUMP JUMPDEST PUSH1 0x40 MLOAD SWAP1 DUP2 SWAP1 SUB DUP2 KECCAK256 SWAP1 PUSH32 0x70F2FF07E8136617CDFB0433423063C9DD697C507560D7860CCE09FA86874A12 SWAP1 PUSH0 SWAP1 LOG3 POP POP POP JUMP JUMPDEST PUSH4 0x4E487B71 PUSH1 0xE0 SHL PUSH0 MSTORE PUSH1 0x41 PUSH1 0x4 MSTORE PUSH1 0x24 PUSH0 REVERT JUMPDEST PUSH0 DUP3 PUSH1 0x1F DUP4 ADD SLT PUSH2 0x44F JUMPI PUSH0 PUSH0 REVERT JUMPDEST DUP2 CALLDATALOAD PUSH8 0xFFFFFFFFFFFFFFFF DUP2 GT ISZERO PUSH2 0x469 JUMPI PUSH2 0x469 PUSH2 0x42C JUMP JUMPDEST PUSH1 0x40 MLOAD PUSH1 0x1F DUP3 ADD PUSH1 0x1F NOT SWAP1 DUP2 AND PUSH1 0x3F ADD AND DUP2 ADD PUSH8 0xFFFFFFFFFFFFFFFF DUP2 GT DUP3 DUP3 LT OR ISZERO PUSH2 0x498 JUMPI PUSH2 0x498 PUSH2 0x42C JUMP JUMPDEST PUSH1 0x40 MSTORE DUP2 DUP2 MSTORE DUP4 DUP3 ADD PUSH1 0x20 ADD DUP6 LT ISZERO PUSH2 0x4AF JUMPI PUSH0 PUSH0 REVERT JUMPDEST DUP2 PUSH1 0x20 DUP6 ADD PUSH1 0x20 DUP4 ADD CALLDATACOPY PUSH0 SWAP2 DUP2 ADD PUSH1 0x20 ADD SWAP2 SWAP1 SWAP2 MSTORE SWAP4 SWAP3 POP POP POP JUMP JUMPDEST PUSH0 PUSH1 0x20 DUP3 DUP5 SUB SLT ISZERO PUSH2 0x4DB JUMPI PUSH0 PUSH0 REVERT JUMPDEST DUP2 CALLDATALOAD PUSH8 0xFFFFFFFFFFFFFFFF DUP2 GT ISZERO PUSH2 0x4F1 JUMPI PUSH0 PUSH0 REVERT JUMPDEST PUSH2 0x4FD DUP5 DUP3 DUP6 ADD PUSH2 0x440 JUMP JUMPDEST SWAP5 SWAP4 POP POP POP POP JUMP JUMPDEST PUSH0 PUSH0 PUSH1 0x40 DUP4 DUP6 SUB SLT ISZERO PUSH2 0x516 JUMPI PUSH0 PUSH0 REVERT JUMPDEST DUP3 CALLDATALOAD PUSH8 0xFFFFFFFFFFFFFFFF DUP2 GT ISZERO PUSH2 0x52C JUMPI PUSH0 PUSH0 REVERT JUMPDEST PUSH2 0x538 DUP6 DUP3 DUP7 ADD PUSH2 0x440 JUMP JUMPDEST SWAP3 POP POP PUSH1 0x20 DUP4 ADD CALLDATALOAD PUSH1 0x1 PUSH1 0x1 PUSH1 0xA0 SHL SUB DUP2 AND DUP2 EQ PUSH2 0x554 JUMPI PUSH0 PUSH0 REVERT JUMPDEST DUP1 SWAP2 POP POP SWAP3 POP SWAP3 SWAP1 POP JUMP JUMPDEST PUSH0 DUP3 MLOAD DUP1 PUSH1 0x20 DUP6 ADD DUP5 MCOPY PUSH0 SWAP3 ADD SWAP2 DUP3 MSTORE POP SWAP2 SWAP1 POP JUMP INVALID LOG2 PUSH5 0x6970667358 0x22 SLT KECCAK256 PUSH26 0x6304E9132BECF0BADAEB75C7BAA384C1AFE2DB1D4F5FCFE657B9 GT LOG3 0xD5 0xBE 0xD6 PUSH5 0x736F6C6343 STOP ADDMOD SHR STOP CALLER "
		},
		"gasEstimates": {
			"creation": {
				"codeDepositCost": "290200",
				"executionCost": "infinite",
				"totalCost": "infinite"
			},
			"external": {
				"admin()": "infinite",
				"domains(string)": "infinite",
				"getDomainAddress(string)": "infinite",
				"isDomainRegistered(string)": "infinite",
				"registerDomain(string,address)": "infinite"
			}
		},
		"methodIdentifiers": {
			"admin()": "f851a440",
			"domains(string)": "26449235",
			"getDomainAddress(string)": "94310e51",
			"isDomainRegistered(string)": "1c452781",
			"registerDomain(string,address)": "f52433cb"
		}
	},
	"abi": [
		{
			"inputs": [],
			"stateMutability": "nonpayable",
			"type": "constructor"
		},
		{
			"anonymous": false,
			"inputs": [
				{
					"indexed": true,
					"internalType": "string",
					"name": "domainName",
					"type": "string"
				},
				{
					"indexed": true,
					"internalType": "address",
					"name": "officialAddress",
					"type": "address"
				}
			],
			"name": "DomainRegistered",
			"type": "event"
		},
		{
			"inputs": [],
			"name": "admin",
			"outputs": [
				{
					"internalType": "address",
					"name": "",
					"type": "address"
				}
			],
			"stateMutability": "view",
			"type": "function"
		},
		{
			"inputs": [
				{
					"internalType": "string",
					"name": "",
					"type": "string"
				}
			],
			"name": "domains",
			"outputs": [
				{
					"internalType": "address",
					"name": "",
					"type": "address"
				}
			],
			"stateMutability": "view",
			"type": "function"
		},
		{
			"inputs": [
				{
					"internalType": "string",
					"name": "domainName",
					"type": "string"
				}
			],
			"name": "getDomainAddress",
			"outputs": [
				{
					"internalType": "address",
					"name": "",
					"type": "address"
				}
			],
			"stateMutability": "view",
			"type": "function"
		},
		{
			"inputs": [
				{
					"internalType": "string",
					"name": "domainName",
					"type": "string"
				}
			],
			"name": "isDomainRegistered",
			"outputs": [
				{
					"internalType": "bool",
					"name": "",
					"type": "bool"
				}
			],
			"stateMutability": "view",
			"type": "function"
		},
		{
			"inputs": [
				{
					"internalType": "string",
					"name": "domainName",
					"type": "string"
				},
				{
					"internalType": "address",
					"name": "officialAddress",
					"type": "address"
				}
			],
			"name": "registerDomain",
			"outputs": [],
			"stateMutability": "nonpayable",
			"type": "function"
		}
	]
}