{
	"contracts/MemoryControl.sol": {
		"MemoryControl": {
			"abi": [
				{
					"inputs": [
						{
							"internalType": "address",
							"name": "_domainRegistry",
							"type": "address"
						}
					],
					"stateMutability": "nonpayable",
					"type": "constructor"
				},
				{
					"anonymous": false,
					"inputs": [
						{
							"indexed": true,
							"internalType": "address",
							"name": "owner",
							"type": "address"
						},
						{
							"indexed": true,
							"internalType": "address",
							"name": "grantee",
							"type": "address"
						},
						{
							"indexed": false,
							"internalType": "string",
							"name": "granteeDomain",
							"type": "string"
						}
					],
					"name": "AccessGranted",
					"type": "event"
				},
				{
					"anonymous": false,
					"inputs": [
						{
							"indexed": true,
							"internalType": "address",
							"name": "owner",
							"type": "address"
						},
						{
							"indexed": true,
							"internalType": "address",
							"name": "grantee",
							"type": "address"
						},
						{
							"indexed": false,
							"internalType": "string",
							"name": "granteeDomain",
							"type": "string"
						}
					],
					"name": "AccessRevoked",
					"type": "event"
				},
				{
					"anonymous": false,
					"inputs": [
						{
							"indexed": true,
							"internalType": "address",
							"name": "owner",
							"type": "address"
						},
						{
							"indexed": true,
							"internalType": "address",
							"name": "grantee",
							"type": "address"
						},
						{
							"indexed": false,
							"internalType": "string",
							"name": "sourceDomain",
							"type": "string"
						},
						{
							"indexed": false,
							"internalType": "string",
							"name": "granteeDomain",
							"type": "string"
						}
					],
					"name": "DomainAccessGranted",
					"type": "event"
				},
				{
					"anonymous": false,
					"inputs": [
						{
							"indexed": true,
							"internalType": "address",
							"name": "owner",
							"type": "address"
						},
						{
							"indexed": true,
							"internalType": "address",
							"name": "grantee",
							"type": "address"
						},
						{
							"indexed": false,
							"internalType": "string",
							"name": "sourceDomain",
							"type": "string"
						},
						{
							"indexed": false,
							"internalType": "string",
							"name": "granteeDomain",
							"type": "string"
						}
					],
					"name": "DomainAccessRevoked",
					"type": "event"
				},
				{
					"anonymous": false,
					"inputs": [
						{
							"indexed": true,
							"internalType": "address",
							"name": "owner",
							"type": "address"
						},
						{
							"indexed": true,
							"internalType": "address",
							"name": "grantee",
							"type": "address"
						},
						{
							"indexed": true,
							"internalType": "bytes32",
							"name": "memoryId",
							"type": "bytes32"
						},
						{
							"indexed": false,
							"internalType": "string",
							"name": "granteeDomain",
							"type": "string"
						}
					],
					"name": "MemoryAccessGranted",
					"type": "event"
				},
				{
					"anonymous": false,
					"inputs": [
						{
							"indexed": true,
							"internalType": "address",
							"name": "owner",
							"type": "address"
						},
						{
							"indexed": true,
							"internalType": "address",
							"name": "grantee",
							"type": "address"
						},
						{
							"indexed": true,
							"internalType": "bytes32",
							"name": "memoryId",
							"type": "bytes32"
						},
						{
							"indexed": false,
							"internalType": "string",
							"name": "granteeDomain",
							"type": "string"
						}
					],
					"name": "MemoryAccessRevoked",
					"type": "event"
				},
				{
					"anonymous": false,
					"inputs": [
						{
							"indexed": true,
							"internalType": "address",
							"name": "owner",
							"type": "address"
						},
						{
							"indexed": true,
							"internalType": "bytes32",
							"name": "memoryId",
							"type": "bytes32"
						},
						{
							"indexed": false,
							"internalType": "string",
							"name": "sourceDomainName",
							"type": "string"
						}
					],
					"name": "MemoryAdded",
					"type": "event"
				},
				{
					"anonymous": false,
					"inputs": [
						{
							"indexed": true,
							"internalType": "address",
							"name": "owner",
							"type": "address"
						},
						{
							"indexed": true,
							"internalType": "bytes32",
							"name": "memoryId",
							"type": "bytes32"
						}
					],
					"name": "MemoryDeleted",
					"type": "event"
				},
				{
					"anonymous": false,
					"inputs": [
						{
							"indexed": true,
							"internalType": "address",
							"name": "owner",
							"type": "address"
						},
						{
							"indexed": true,
							"internalType": "address",
							"name": "grantee",
							"type": "address"
						},
						{
							"indexed": false,
							"internalType": "string",
							"name": "granteeDomain",
							"type": "string"
						},
						{
							"indexed": false,
							"internalType": "uint256",
							"name": "expirationTime",
							"type": "uint256"
						}
					],
					"name": "TimeBasedAccessGranted",
					"type": "event"
				},
				{
					"anonymous": false,
					"inputs": [
						{
							"indexed": true,
							"internalType": "address",
							"name": "owner",
							"type": "address"
						},
						{
							"indexed": true,
							"internalType": "address",
							"name": "grantee",
							"type": "address"
						},
						{
							"indexed": false,
							"internalType": "string",
							"name": "granteeDomain",
							"type": "string"
						}
					],
					"name": "TimeBasedAccessRevoked",
					"type": "event"
				},
				{
					"anonymous": false,
					"inputs": [
						{
							"indexed": true,
							"internalType": "address",
							"name": "owner",
							"type": "address"
						},
						{
							"indexed": true,
							"internalType": "address",
							"name": "grantee",
							"type": "address"
						},
						{
							"indexed": false,
							"internalType": "string",
							"name": "sourceDomain",
							"type": "string"
						},
						{
							"indexed": false,
							"internalType": "string",
							"name": "granteeDomain",
							"type": "string"
						},
						{
							"indexed": false,
							"internalType": "uint256",
							"name": "expirationTime",
							"type": "uint256"
						}
					],
					"name": "TimeBasedDomainAccessGranted",
					"type": "event"
				},
				{
					"anonymous": false,
					"inputs": [
						{
							"indexed": true,
							"internalType": "address",
							"name": "owner",
							"type": "address"
						},
						{
							"indexed": true,
							"internalType": "address",
							"name": "grantee",
							"type": "address"
						},
						{
							"indexed": true,
							"internalType": "bytes32",
							"name": "memoryId",
							"type": "bytes32"
						},
						{
							"indexed": false,
							"internalType": "string",
							"name": "granteeDomain",
							"type": "string"
						},
						{
							"indexed": false,
							"internalType": "uint256",
							"name": "expirationTime",
							"type": "uint256"
						}
					],
					"name": "TimeBasedMemoryAccessGranted",
					"type": "event"
				},
				{
					"inputs": [
						{
							"internalType": "address",
							"name": "",
							"type": "address"
						},
						{
							"internalType": "address",
							"name": "",
							"type": "address"
						}
					],
					"name": "accessExpiration",
					"outputs": [
						{
							"internalType": "uint256",
							"name": "",
							"type": "uint256"
						}
					],
					"stateMutability": "view",
					"type": "function"
				},
				{
					"inputs": [
						{
							"internalType": "address",
							"name": "",
							"type": "address"
						},
						{
							"internalType": "address",
							"name": "",
							"type": "address"
						}
					],
					"name": "accessList",
					"outputs": [
						{
							"internalType": "bool",
							"name": "",
							"type": "bool"
						}
					],
					"stateMutability": "view",
					"type": "function"
				},
				{
					"inputs": [
						{
							"internalType": "bytes32",
							"name": "metadataHash",
							"type": "bytes32"
						},
						{
							"internalType": "string",
							"name": "sourceDomainName",
							"type": "string"
						}
					],
					"name": "addMemory",
					"outputs": [],
					"stateMutability": "nonpayable",
					"type": "function"
				},
				{
					"inputs": [
						{
							"internalType": "bytes32",
							"name": "memoryId",
							"type": "bytes32"
						}
					],
					"name": "deleteMemory",
					"outputs": [],
					"stateMutability": "nonpayable",
					"type": "function"
				},
				{
					"inputs": [
						{
							"internalType": "address",
							"name": "",
							"type": "address"
						},
						{
							"internalType": "address",
							"name": "",
							"type": "address"
						},
						{
							"internalType": "string",
							"name": "",
							"type": "string"
						}
					],
					"name": "domainAccessExpiration",
					"outputs": [
						{
							"internalType": "uint256",
							"name": "",
							"type": "uint256"
						}
					],
					"stateMutability": "view",
					"type": "function"
				},
				{
					"inputs": [
						{
							"internalType": "address",
							"name": "",
							"type": "address"
						},
						{
							"internalType": "address",
							"name": "",
							"type": "address"
						},
						{
							"internalType": "string",
							"name": "",
							"type": "string"
						}
					],
					"name": "domainAccessList",
					"outputs": [
						{
							"internalType": "bool",
							"name": "",
							"type": "bool"
						}
					],
					"stateMutability": "view",
					"type": "function"
				},
				{
					"inputs": [],
					"name": "domainRegistry",
					"outputs": [
						{
							"internalType": "contract IDomainRegistry",
							"name": "",
							"type": "address"
						}
					],
					"stateMutability": "view",
					"type": "function"
				},
				{
					"inputs": [
						{
							"internalType": "bytes32",
							"name": "memoryId",
							"type": "bytes32"
						}
					],
					"name": "getMemory",
					"outputs": [
						{
							"components": [
								{
									"internalType": "address",
									"name": "owner",
									"type": "address"
								},
								{
									"internalType": "bytes32",
									"name": "metadataHash",
									"type": "bytes32"
								},
								{
									"internalType": "uint256",
									"name": "createdAt",
									"type": "uint256"
								},
								{
									"internalType": "address",
									"name": "sourceDomain",
									"type": "address"
								},
								{
									"internalType": "string",
									"name": "sourceDomainName",
									"type": "string"
								}
							],
							"internalType": "struct MemoryControl.Memory",
							"name": "",
							"type": "tuple"
						}
					],
					"stateMutability": "view",
					"type": "function"
				},
				{
					"inputs": [
						{
							"internalType": "bytes32",
							"name": "memoryId",
							"type": "bytes32"
						}
					],
					"name": "getMemorySourceDomain",
					"outputs": [
						{
							"internalType": "string",
							"name": "",
							"type": "string"
						}
					],
					"stateMutability": "view",
					"type": "function"
				},
				{
					"inputs": [
						{
							"internalType": "string",
							"name": "domainName",
							"type": "string"
						}
					],
					"name": "grantAccessToDomain",
					"outputs": [],
					"stateMutability": "nonpayable",
					"type": "function"
				},
				{
					"inputs": [
						{
							"internalType": "address",
							"name": "grantee",
							"type": "address"
						},
						{
							"internalType": "string",
							"name": "sourceDomain",
							"type": "string"
						}
					],
					"name": "grantAccessToDomainMemories",
					"outputs": [],
					"stateMutability": "nonpayable",
					"type": "function"
				},
				{
					"inputs": [
						{
							"internalType": "address",
							"name": "grantee",
							"type": "address"
						},
						{
							"internalType": "bytes32",
							"name": "memoryId",
							"type": "bytes32"
						}
					],
					"name": "grantAccessToMemory",
					"outputs": [],
					"stateMutability": "nonpayable",
					"type": "function"
				},
				{
					"inputs": [
						{
							"internalType": "address",
							"name": "grantee",
							"type": "address"
						}
					],
					"name": "grantAccessToUser",
					"outputs": [],
					"stateMutability": "nonpayable",
					"type": "function"
				},
				{
					"inputs": [
						{
							"internalType": "string",
							"name": "granteeDomain",
							"type": "string"
						},
						{
							"internalType": "string",
							"name": "sourceDomain",
							"type": "string"
						}
					],
					"name": "grantDomainAccessToDomainMemories",
					"outputs": [],
					"stateMutability": "nonpayable",
					"type": "function"
				},
				{
					"inputs": [
						{
							"internalType": "string",
							"name": "domainName",
							"type": "string"
						},
						{
							"internalType": "bytes32",
							"name": "memoryId",
							"type": "bytes32"
						}
					],
					"name": "grantDomainAccessToMemory",
					"outputs": [],
					"stateMutability": "nonpayable",
					"type": "function"
				},
				{
					"inputs": [
						{
							"internalType": "string",
							"name": "domainName",
							"type": "string"
						},
						{
							"internalType": "uint256",
							"name": "durationInSeconds",
							"type": "uint256"
						}
					],
					"name": "grantTimeBasedAccessToDomain",
					"outputs": [],
					"stateMutability": "nonpayable",
					"type": "function"
				},
				{
					"inputs": [
						{
							"internalType": "address",
							"name": "grantee",
							"type": "address"
						},
						{
							"internalType": "string",
							"name": "sourceDomain",
							"type": "string"
						},
						{
							"internalType": "uint256",
							"name": "durationInSeconds",
							"type": "uint256"
						}
					],
					"name": "grantTimeBasedAccessToDomainMemories",
					"outputs": [],
					"stateMutability": "nonpayable",
					"type": "function"
				},
				{
					"inputs": [
						{
							"internalType": "address",
							"name": "grantee",
							"type": "address"
						},
						{
							"internalType": "bytes32",
							"name": "memoryId",
							"type": "bytes32"
						},
						{
							"internalType": "uint256",
							"name": "durationInSeconds",
							"type": "uint256"
						}
					],
					"name": "grantTimeBasedAccessToMemory",
					"outputs": [],
					"stateMutability": "nonpayable",
					"type": "function"
				},
				{
					"inputs": [
						{
							"internalType": "address",
							"name": "grantee",
							"type": "address"
						},
						{
							"internalType": "uint256",
							"name": "durationInSeconds",
							"type": "uint256"
						}
					],
					"name": "grantTimeBasedAccessToUser",
					"outputs": [],
					"stateMutability": "nonpayable",
					"type": "function"
				},
				{
					"inputs": [
						{
							"internalType": "string",
							"name": "granteeDomain",
							"type": "string"
						},
						{
							"internalType": "string",
							"name": "sourceDomain",
							"type": "string"
						},
						{
							"internalType": "uint256",
							"name": "durationInSeconds",
							"type": "uint256"
						}
					],
					"name": "grantTimeBasedDomainAccessToDomainMemories",
					"outputs": [],
					"stateMutability": "nonpayable",
					"type": "function"
				},
				{
					"inputs": [
						{
							"internalType": "string",
							"name": "domainName",
							"type": "string"
						},
						{
							"internalType": "bytes32",
							"name": "memoryId",
							"type": "bytes32"
						},
						{
							"internalType": "uint256",
							"name": "durationInSeconds",
							"type": "uint256"
						}
					],
					"name": "grantTimeBasedDomainAccessToMemory",
					"outputs": [],
					"stateMutability": "nonpayable",
					"type": "function"
				},
				{
					"inputs": [
						{
							"internalType": "bytes32",
							"name": "memoryId",
							"type": "bytes32"
						},
						{
							"internalType": "address",
							"name": "grantee",
							"type": "address"
						}
					],
					"name": "hasAccess",
					"outputs": [
						{
							"internalType": "bool",
							"name": "",
							"type": "bool"
						}
					],
					"stateMutability": "view",
					"type": "function"
				},
				{
					"inputs": [
						{
							"internalType": "address",
							"name": "grantee",
							"type": "address"
						}
					],
					"name": "hasAccessExpired",
					"outputs": [
						{
							"internalType": "bool",
							"name": "",
							"type": "bool"
						}
					],
					"stateMutability": "view",
					"type": "function"
				},
				{
					"inputs": [
						{
							"internalType": "bytes32",
							"name": "memoryId",
							"type": "bytes32"
						},
						{
							"internalType": "address",
							"name": "grantee",
							"type": "address"
						}
					],
					"name": "hasEnhancedAccess",
					"outputs": [
						{
							"internalType": "bool",
							"name": "",
							"type": "bool"
						}
					],
					"stateMutability": "view",
					"type": "function"
				},
				{
					"inputs": [
						{
							"internalType": "address",
							"name": "grantee",
							"type": "address"
						},
						{
							"internalType": "bytes32",
							"name": "memoryId",
							"type": "bytes32"
						}
					],
					"name": "hasMemoryAccessExpired",
					"outputs": [
						{
							"internalType": "bool",
							"name": "",
							"type": "bool"
						}
					],
					"stateMutability": "view",
					"type": "function"
				},
				{
					"inputs": [
						{
							"internalType": "bytes32",
							"name": "memoryId",
							"type": "bytes32"
						}
					],
					"name": "isMemoryExists",
					"outputs": [
						{
							"internalType": "bool",
							"name": "",
							"type": "bool"
						}
					],
					"stateMutability": "view",
					"type": "function"
				},
				{
					"inputs": [
						{
							"internalType": "bytes32",
							"name": "",
							"type": "bytes32"
						}
					],
					"name": "memories",
					"outputs": [
						{
							"internalType": "address",
							"name": "owner",
							"type": "address"
						},
						{
							"internalType": "bytes32",
							"name": "metadataHash",
							"type": "bytes32"
						},
						{
							"internalType": "uint256",
							"name": "createdAt",
							"type": "uint256"
						},
						{
							"internalType": "address",
							"name": "sourceDomain",
							"type": "address"
						},
						{
							"internalType": "string",
							"name": "sourceDomainName",
							"type": "string"
						}
					],
					"stateMutability": "view",
					"type": "function"
				},
				{
					"inputs": [
						{
							"internalType": "address",
							"name": "",
							"type": "address"
						},
						{
							"internalType": "address",
							"name": "",
							"type": "address"
						},
						{
							"internalType": "bytes32",
							"name": "",
							"type": "bytes32"
						}
					],
					"name": "memoryAccessExpiration",
					"outputs": [
						{
							"internalType": "uint256",
							"name": "",
							"type": "uint256"
						}
					],
					"stateMutability": "view",
					"type": "function"
				},
				{
					"inputs": [
						{
							"internalType": "address",
							"name": "",
							"type": "address"
						},
						{
							"internalType": "address",
							"name": "",
							"type": "address"
						},
						{
							"internalType": "bytes32",
							"name": "",
							"type": "bytes32"
						}
					],
					"name": "memoryAccessList",
					"outputs": [
						{
							"internalType": "bool",
							"name": "",
							"type": "bool"
						}
					],
					"stateMutability": "view",
					"type": "function"
				},
				{
					"inputs": [
						{
							"internalType": "string",
							"name": "domainName",
							"type": "string"
						}
					],
					"name": "revokeAccessFromDomain",
					"outputs": [],
					"stateMutability": "nonpayable",
					"type": "function"
				},
				{
					"inputs": [
						{
							"internalType": "address",
							"name": "grantee",
							"type": "address"
						},
						{
							"internalType": "string",
							"name": "sourceDomain",
							"type": "string"
						}
					],
					"name": "revokeAccessFromDomainMemories",
					"outputs": [],
					"stateMutability": "nonpayable",
					"type": "function"
				},
				{
					"inputs": [
						{
							"internalType": "address",
							"name": "grantee",
							"type": "address"
						},
						{
							"internalType": "bytes32",
							"name": "memoryId",
							"type": "bytes32"
						}
					],
					"name": "revokeAccessFromMemory",
					"outputs": [],
					"stateMutability": "nonpayable",
					"type": "function"
				},
				{
					"inputs": [
						{
							"internalType": "address",
							"name": "grantee",
							"type": "address"
						}
					],
					"name": "revokeAccessFromUser",
					"outputs": [],
					"stateMutability": "nonpayable",
					"type": "function"
				},
				{
					"inputs": [
						{
							"internalType": "string",
							"name": "granteeDomain",
							"type": "string"
						},
						{
							"internalType": "string",
							"name": "sourceDomain",
							"type": "string"
						}
					],
					"name": "revokeDomainAccessFromDomainMemories",
					"outputs": [],
					"stateMutability": "nonpayable",
					"type": "function"
				},
				{
					"inputs": [
						{
							"internalType": "string",
							"name": "domainName",
							"type": "string"
						},
						{
							"internalType": "bytes32",
							"name": "memoryId",
							"type": "bytes32"
						}
					],
					"name": "revokeDomainAccessFromMemory",
					"outputs": [],
					"stateMutability": "nonpayable",
					"type": "function"
				},
				{
					"inputs": [
						{
							"internalType": "string",
							"name": "domainName",
							"type": "string"
						}
					],
					"name": "revokeTimeBasedAccessFromDomain",
					"outputs": [],
					"stateMutability": "nonpayable",
					"type": "function"
				},
				{
					"inputs": [
						{
							"internalType": "address",
							"name": "grantee",
							"type": "address"
						}
					],
					"name": "revokeTimeBasedAccessFromUser",
					"outputs": [],
					"stateMutability": "nonpayable",
					"type": "function"
				}
			],
			"devdoc": {
				"details": "The main contract that users and applications will interact with to manage memory ownership,  permissions, and the audit trail. This contract uses a hybrid on-chain/off-chain storage model where only a cryptographic hash of the metadata is stored on-chain for cost efficiency and privacy.",
				"kind": "dev",
				"methods": {
					"addMemory(bytes32,string)": {
						"details": "Add a new memory to the system",
						"params": {
							"metadataHash": "The keccak256 hash of the full off-chain metadata (the \"digital fingerprint\")",
							"sourceDomainName": "The domain name where this memory was created (e.g., \"chatgpt.com\")  This function is called by the application backend when a user creates a new memory. It automatically grants access to the source domain's official wallet address."
						}
					},
					"constructor": {
						"details": "Constructor sets the domain registry address",
						"params": {
							"_domainRegistry": "The address of the DomainRegistry contract"
						}
					},
					"deleteMemory(bytes32)": {
						"details": "Delete a memory from the system",
						"params": {
							"memoryId": "The unique memory ID (metadataHash) to delete  This function is called by a user to delete a memory they own."
						}
					},
					"getMemory(bytes32)": {
						"details": "Get memory information",
						"params": {
							"memoryId": "The unique memory ID to retrieve"
						},
						"returns": {
							"_0": "The Memory struct containing all on-chain data"
						}
					},
					"getMemorySourceDomain(bytes32)": {
						"details": "Get the source domain name for a memory (helper function)",
						"params": {
							"memoryId": "The memory ID to check"
						},
						"returns": {
							"_0": "The source domain name"
						}
					},
					"grantAccessToDomain(string)": {
						"details": "Grant access to an application domain",
						"params": {
							"domainName": "The domain name to grant access to (e.g., \"claude.ai\")  This function allows a user to grant access to an application like \"claude.ai\"."
						}
					},
					"grantAccessToDomainMemories(address,string)": {
						"details": "Grant access to all memories from a specific source domain",
						"params": {
							"grantee": "The wallet address to grant access to",
							"sourceDomain": "The source domain to grant access to (e.g., \"claude.ai\")"
						}
					},
					"grantAccessToMemory(address,bytes32)": {
						"details": "Grant access to a specific memory",
						"params": {
							"grantee": "The wallet address to grant access to",
							"memoryId": "The specific memory ID to grant access to"
						}
					},
					"grantAccessToUser(address)": {
						"details": "Grant access to another user's wallet",
						"params": {
							"grantee": "The wallet address to grant access to  This function allows a user to grant access to another user's wallet."
						}
					},
					"grantDomainAccessToDomainMemories(string,string)": {
						"details": "Grant access to all memories from a specific source domain for a domain",
						"params": {
							"granteeDomain": "The domain name to grant access to",
							"sourceDomain": "The source domain to grant access to (e.g., \"claude.ai\")"
						}
					},
					"grantDomainAccessToMemory(string,bytes32)": {
						"details": "Grant access to a specific memory for a domain",
						"params": {
							"domainName": "The domain name to grant access to",
							"memoryId": "The specific memory ID to grant access to"
						}
					},
					"grantTimeBasedAccessToDomain(string,uint256)": {
						"details": "Grant time-based access to an application domain",
						"params": {
							"domainName": "The domain name to grant access to",
							"durationInSeconds": "Duration of access in seconds"
						}
					},
					"grantTimeBasedAccessToDomainMemories(address,string,uint256)": {
						"details": "Grant time-based access to all memories from a specific source domain",
						"params": {
							"durationInSeconds": "Duration of access in seconds",
							"grantee": "The wallet address to grant access to",
							"sourceDomain": "The source domain to grant access to"
						}
					},
					"grantTimeBasedAccessToMemory(address,bytes32,uint256)": {
						"details": "Grant time-based access to a specific memory",
						"params": {
							"durationInSeconds": "Duration of access in seconds",
							"grantee": "The wallet address to grant access to",
							"memoryId": "The specific memory ID to grant access to"
						}
					},
					"grantTimeBasedAccessToUser(address,uint256)": {
						"details": "Grant time-based access to another user's wallet",
						"params": {
							"durationInSeconds": "Duration of access in seconds",
							"grantee": "The wallet address to grant access to"
						}
					},
					"grantTimeBasedDomainAccessToDomainMemories(string,string,uint256)": {
						"details": "Grant time-based access to all memories from a specific source domain for a domain",
						"params": {
							"durationInSeconds": "Duration of access in seconds",
							"granteeDomain": "The domain name to grant access to",
							"sourceDomain": "The source domain to grant access to"
						}
					},
					"grantTimeBasedDomainAccessToMemory(string,bytes32,uint256)": {
						"details": "Grant time-based access to a specific memory for a domain",
						"params": {
							"domainName": "The domain name to grant access to",
							"durationInSeconds": "Duration of access in seconds",
							"memoryId": "The specific memory ID to grant access to"
						}
					},
					"hasAccess(bytes32,address)": {
						"details": "Check if a grantee has access to a memory",
						"params": {
							"grantee": "The wallet address to check access for",
							"memoryId": "The unique memory ID to check access for"
						},
						"returns": {
							"_0": "True if the grantee has access, false otherwise"
						}
					},
					"hasAccessExpired(address)": {
						"details": "Check if access has expired for a grantee",
						"params": {
							"grantee": "The wallet address to check"
						},
						"returns": {
							"_0": "True if access has expired, false otherwise"
						}
					},
					"hasEnhancedAccess(bytes32,address)": {
						"details": "Check if a grantee has access to a memory with enhanced granular control",
						"params": {
							"grantee": "The wallet address to check access for",
							"memoryId": "The unique memory ID to check access for"
						},
						"returns": {
							"_0": "True if the grantee has access, false otherwise"
						}
					},
					"hasMemoryAccessExpired(address,bytes32)": {
						"details": "Check if memory-specific access has expired for a grantee",
						"params": {
							"grantee": "The wallet address to check",
							"memoryId": "The memory ID to check"
						},
						"returns": {
							"_0": "True if access has expired, false otherwise"
						}
					},
					"isMemoryExists(bytes32)": {
						"details": "Check if a memory exists",
						"params": {
							"memoryId": "The unique memory ID to check"
						},
						"returns": {
							"_0": "True if the memory exists, false otherwise"
						}
					},
					"revokeAccessFromDomain(string)": {
						"details": "Revoke access from an application domain",
						"params": {
							"domainName": "The domain name to revoke access from  This function allows users to revoke permissions from applications at any time."
						}
					},
					"revokeAccessFromDomainMemories(address,string)": {
						"details": "Revoke access to all memories from a specific source domain",
						"params": {
							"grantee": "The wallet address to revoke access from",
							"sourceDomain": "The source domain to revoke access to"
						}
					},
					"revokeAccessFromMemory(address,bytes32)": {
						"details": "Revoke access to a specific memory",
						"params": {
							"grantee": "The wallet address to revoke access from",
							"memoryId": "The specific memory ID to revoke access to"
						}
					},
					"revokeAccessFromUser(address)": {
						"details": "Revoke access from another user's wallet",
						"params": {
							"grantee": "The wallet address to revoke access from  This function allows users to revoke permissions at any time."
						}
					},
					"revokeDomainAccessFromDomainMemories(string,string)": {
						"details": "Revoke access to all memories from a specific source domain for a domain",
						"params": {
							"granteeDomain": "The domain name to revoke access from",
							"sourceDomain": "The source domain to revoke access to"
						}
					},
					"revokeDomainAccessFromMemory(string,bytes32)": {
						"details": "Revoke access to a specific memory for a domain",
						"params": {
							"domainName": "The domain name to revoke access from",
							"memoryId": "The specific memory ID to revoke access to"
						}
					},
					"revokeTimeBasedAccessFromDomain(string)": {
						"details": "Revoke time-based access from a domain",
						"params": {
							"domainName": "The domain name to revoke access from"
						}
					},
					"revokeTimeBasedAccessFromUser(address)": {
						"details": "Revoke time-based access from a user",
						"params": {
							"grantee": "The wallet address to revoke access from"
						}
					}
				},
				"title": "MemoryControl",
				"version": 1
			},
			"evm": {
				"assembly": "    /* \"contracts/MemoryControl.sol\":437:26965  contract MemoryControl {... */\n  mstore(0x40, 0xa0)\n    /* \"contracts/MemoryControl.sol\":4785:4996  constructor(address _domainRegistry) {... */\n  callvalue\n  dup1\n  iszero\n  tag_1\n  jumpi\n  revert(0x00, 0x00)\ntag_1:\n  pop\n  mload(0x40)\n  sub(codesize, bytecodeSize)\n  dup1\n  bytecodeSize\n  dup4\n  codecopy\n  dup2\n  add\n  0x40\n  dup2\n  swap1\n  mstore\n  tag_2\n  swap2\n  tag_3\n  jump\t// in\ntag_2:\n  sub(shl(0xa0, 0x01), 0x01)\n    /* \"contracts/MemoryControl.sol\":4841:4870  _domainRegistry != address(0) */\n  dup2\n  and\n    /* \"contracts/MemoryControl.sol\":4833:4928  require(_domainRegistry != address(0), \"MemoryControl: Domain registry address cannot be zero\") */\n  tag_6\n  jumpi\n  mload(0x40)\n  shl(0xe5, 0x461bcd)\n  dup2\n  mstore\n    /* \"#utility.yul\":511:513   */\n  0x20\n    /* \"contracts/MemoryControl.sol\":4833:4928  require(_domainRegistry != address(0), \"MemoryControl: Domain registry address cannot be zero\") */\n  0x04\n  dup3\n  add\n    /* \"#utility.yul\":493:514   */\n  mstore\n    /* \"#utility.yul\":550:552   */\n  0x35\n    /* \"#utility.yul\":530:548   */\n  0x24\n  dup3\n  add\n    /* \"#utility.yul\":523:553   */\n  mstore\n    /* \"#utility.yul\":589:623   */\n  0x4d656d6f7279436f6e74726f6c3a20446f6d61696e2072656769737472792061\n    /* \"#utility.yul\":569:587   */\n  0x44\n  dup3\n  add\n    /* \"#utility.yul\":562:624   */\n  mstore\n    /* \"#utility.yul\":660:683   */\n  0x6464726573732063616e6e6f74206265207a65726f0000000000000000000000\n    /* \"#utility.yul\":640:658   */\n  0x64\n  dup3\n  add\n    /* \"#utility.yul\":633:684   */\n  mstore\n    /* \"#utility.yul\":701:720   */\n  0x84\n  add\n    /* \"contracts/MemoryControl.sol\":4833:4928  require(_domainRegistry != address(0), \"MemoryControl: Domain registry address cannot be zero\") */\n  mload(0x40)\n  dup1\n  swap2\n  sub\n  swap1\n  revert\ntag_6:\n  sub(shl(0xa0, 0x01), 0x01)\n    /* \"contracts/MemoryControl.sol\":4939:4988  domainRegistry = IDomainRegistry(_domainRegistry) */\n  and\n  0x80\n  mstore\n    /* \"contracts/MemoryControl.sol\":437:26965  contract MemoryControl {... */\n  jump(tag_10)\n    /* \"#utility.yul\":14:304   */\ntag_3:\n    /* \"#utility.yul\":84:90   */\n  0x00\n    /* \"#utility.yul\":137:139   */\n  0x20\n    /* \"#utility.yul\":125:134   */\n  dup3\n    /* \"#utility.yul\":116:123   */\n  dup5\n    /* \"#utility.yul\":112:135   */\n  sub\n    /* \"#utility.yul\":108:140   */\n  slt\n    /* \"#utility.yul\":105:157   */\n  iszero\n  tag_12\n  jumpi\n    /* \"#utility.yul\":153:154   */\n  0x00\n    /* \"#utility.yul\":150:151   */\n  0x00\n    /* \"#utility.yul\":143:155   */\n  revert\n    /* \"#utility.yul\":105:157   */\ntag_12:\n    /* \"#utility.yul\":179:195   */\n  dup2\n  mload\n  sub(shl(0xa0, 0x01), 0x01)\n    /* \"#utility.yul\":224:255   */\n  dup2\n  and\n    /* \"#utility.yul\":214:256   */\n  dup2\n  eq\n    /* \"#utility.yul\":204:274   */\n  tag_13\n  jumpi\n    /* \"#utility.yul\":270:271   */\n  0x00\n    /* \"#utility.yul\":267:268   */\n  0x00\n    /* \"#utility.yul\":260:272   */\n  revert\n    /* \"#utility.yul\":204:274   */\ntag_13:\n    /* \"#utility.yul\":293:298   */\n  swap4\n    /* \"#utility.yul\":14:304   */\n  swap3\n  pop\n  pop\n  pop\n  jump\t// out\n    /* \"#utility.yul\":309:726   */\ntag_10:\n    /* \"contracts/MemoryControl.sol\":437:26965  contract MemoryControl {... */\n  mload(0x80)\n  codecopy(0x00, dataOffset(sub_0), dataSize(sub_0))\n  0x00\n  assignImmutable(\"0x8fef2229291b68be841adf029e58b87f39ba144b2d3b0af1760243d0a9bc6a1c\")\n  return(0x00, dataSize(sub_0))\nstop\n\nsub_0: assembly {\n        /* \"contracts/MemoryControl.sol\":437:26965  contract MemoryControl {... */\n      mstore(0x40, 0x80)\n      callvalue\n      dup1\n      iszero\n      tag_1\n      jumpi\n      revert(0x00, 0x00)\n    tag_1:\n      pop\n      jumpi(tag_2, lt(calldatasize, 0x04))\n      shr(0xe0, calldataload(0x00))\n      dup1\n      0x76e042a2\n      gt\n      tag_40\n      jumpi\n      dup1\n      0x9b059c97\n      gt\n      tag_41\n      jumpi\n      dup1\n      0xedfba336\n      gt\n      tag_42\n      jumpi\n      dup1\n      0xedfba336\n      eq\n      tag_35\n      jumpi\n      dup1\n      0xee1c34ad\n      eq\n      tag_36\n      jumpi\n      dup1\n      0xf5149c52\n      eq\n      tag_37\n      jumpi\n      dup1\n      0xf8420443\n      eq\n      tag_38\n      jumpi\n      dup1\n      0xff57706a\n      eq\n      tag_39\n      jumpi\n      revert(0x00, 0x00)\n    tag_42:\n      dup1\n      0x9b059c97\n      eq\n      tag_30\n      jumpi\n      dup1\n      0xabf99fc9\n      eq\n      tag_31\n      jumpi\n      dup1\n      0xcdd14590\n      eq\n      tag_32\n      jumpi\n      dup1\n      0xdc100083\n      eq\n      tag_33\n      jumpi\n      dup1\n      0xe605569b\n      eq\n      tag_34\n      jumpi\n      revert(0x00, 0x00)\n    tag_41:\n      dup1\n      0x8d9beb1a\n      gt\n      tag_43\n      jumpi\n      dup1\n      0x8d9beb1a\n      eq\n      tag_25\n      jumpi\n      dup1\n      0x90e00623\n      eq\n      tag_26\n      jumpi\n      dup1\n      0x925c879c\n      eq\n      tag_27\n      jumpi\n      dup1\n      0x9a04f839\n      eq\n      tag_28\n      jumpi\n      dup1\n      0x9aa1e8d2\n      eq\n      tag_29\n      jumpi\n      revert(0x00, 0x00)\n    tag_43:\n      dup1\n      0x76e042a2\n      eq\n      tag_21\n      jumpi\n      dup1\n      0x77814646\n      eq\n      tag_22\n      jumpi\n      dup1\n      0x83177db3\n      eq\n      tag_23\n      jumpi\n      dup1\n      0x8ae5a7f6\n      eq\n      tag_24\n      jumpi\n      revert(0x00, 0x00)\n    tag_40:\n      dup1\n      0x5170aca7\n      gt\n      tag_44\n      jumpi\n      dup1\n      0x7062e1e0\n      gt\n      tag_45\n      jumpi\n      dup1\n      0x7062e1e0\n      eq\n      tag_16\n      jumpi\n      dup1\n      0x72e6ffec\n      eq\n      tag_17\n      jumpi\n      dup1\n      0x74e12a86\n      eq\n      tag_18\n      jumpi\n      dup1\n      0x7602ade0\n      eq\n      tag_19\n      jumpi\n      dup1\n      0x761b232b\n      eq\n      tag_20\n      jumpi\n      revert(0x00, 0x00)\n    tag_45:\n      dup1\n      0x5170aca7\n      eq\n      tag_12\n      jumpi\n      dup1\n      0x67c69535\n      eq\n      tag_13\n      jumpi\n      dup1\n      0x6c8c7a6f\n      eq\n      tag_14\n      jumpi\n      dup1\n      0x6dd64428\n      eq\n      tag_15\n      jumpi\n      revert(0x00, 0x00)\n    tag_44:\n      dup1\n      0x2b5afa64\n      gt\n      tag_46\n      jumpi\n      dup1\n      0x2b5afa64\n      eq\n      tag_7\n      jumpi\n      dup1\n      0x38debead\n      eq\n      tag_8\n      jumpi\n      dup1\n      0x41411ec1\n      eq\n      tag_9\n      jumpi\n      dup1\n      0x41cde2ca\n      eq\n      tag_10\n      jumpi\n      dup1\n      0x4d392dfe\n      eq\n      tag_11\n      jumpi\n      revert(0x00, 0x00)\n    tag_46:\n      dup1\n      0x01a085f9\n      eq\n      tag_3\n      jumpi\n      dup1\n      0x0944a93d\n      eq\n      tag_4\n      jumpi\n      dup1\n      0x0f26fe45\n      eq\n      tag_5\n      jumpi\n      dup1\n      0x1d24eff4\n      eq\n      tag_6\n      jumpi\n    tag_2:\n      revert(0x00, 0x00)\n        /* \"contracts/MemoryControl.sol\":23796:25537  function hasEnhancedAccess(bytes32 memoryId, address grantee) external view memoryExists(memoryId) returns (bool) {... */\n    tag_3:\n      tag_47\n      tag_48\n      calldatasize\n      0x04\n      tag_49\n      jump\t// in\n    tag_48:\n      tag_50\n      jump\t// in\n    tag_47:\n      mload(0x40)\n        /* \"#utility.yul\":687:701   */\n      swap1\n      iszero\n        /* \"#utility.yul\":680:702   */\n      iszero\n        /* \"#utility.yul\":662:703   */\n      dup2\n      mstore\n        /* \"#utility.yul\":650:652   */\n      0x20\n        /* \"#utility.yul\":635:653   */\n      add\n        /* \"contracts/MemoryControl.sol\":23796:25537  function hasEnhancedAccess(bytes32 memoryId, address grantee) external view memoryExists(memoryId) returns (bool) {... */\n    tag_51:\n      mload(0x40)\n      dup1\n      swap2\n      sub\n      swap1\n      return\n        /* \"contracts/MemoryControl.sol\":542:589  IDomainRegistry public immutable domainRegistry */\n    tag_4:\n      tag_53\n      immutable(\"0x8fef2229291b68be841adf029e58b87f39ba144b2d3b0af1760243d0a9bc6a1c\")\n      dup2\n      jump\n    tag_53:\n      mload(0x40)\n      sub(shl(0xa0, 0x01), 0x01)\n        /* \"#utility.yul\":900:932   */\n      swap1\n      swap2\n      and\n        /* \"#utility.yul\":882:933   */\n      dup2\n      mstore\n        /* \"#utility.yul\":870:872   */\n      0x20\n        /* \"#utility.yul\":855:873   */\n      add\n        /* \"contracts/MemoryControl.sol\":542:589  IDomainRegistry public immutable domainRegistry */\n      tag_51\n        /* \"#utility.yul\":714:939   */\n      jump\n        /* \"contracts/MemoryControl.sol\":6910:7245  function deleteMemory(bytes32 memoryId) external onlyMemoryOwner(memoryId) memoryExists(memoryId) {... */\n    tag_5:\n      tag_57\n      tag_58\n      calldatasize\n      0x04\n      tag_59\n      jump\t// in\n    tag_58:\n      tag_60\n      jump\t// in\n    tag_57:\n      stop\n        /* \"contracts/MemoryControl.sol\":10465:10607  function getMemory(bytes32 memoryId) external view memoryExists(memoryId) returns (Memory memory) {... */\n    tag_6:\n      tag_61\n      tag_62\n      calldatasize\n      0x04\n      tag_59\n      jump\t// in\n    tag_62:\n      tag_63\n      jump\t// in\n    tag_61:\n      mload(0x40)\n      tag_51\n      swap2\n      swap1\n      tag_65\n      jump\t// in\n        /* \"contracts/MemoryControl.sol\":8693:8969  function revokeAccessFromUser(address grantee) external {... */\n    tag_7:\n      tag_57\n      tag_67\n      calldatasize\n      0x04\n      tag_68\n      jump\t// in\n    tag_67:\n      tag_69\n      jump\t// in\n        /* \"contracts/MemoryControl.sol\":5465:6685  function addMemory(... */\n    tag_8:\n      tag_57\n      tag_71\n      calldatasize\n      0x04\n      tag_72\n      jump\t// in\n    tag_71:\n      tag_73\n      jump\t// in\n        /* \"contracts/MemoryControl.sol\":2294:2390  mapping(address => mapping(address => mapping(string => uint256))) public domainAccessExpiration */\n    tag_9:\n      tag_74\n      tag_75\n      calldatasize\n      0x04\n      tag_76\n      jump\t// in\n    tag_75:\n      0x06\n      0x20\n      swap1\n      dup2\n      mstore\n      0x00\n      swap4\n      dup5\n      mstore\n      0x40\n      dup1\n      dup6\n      keccak256\n      dup3\n      mstore\n      swap3\n      dup5\n      mstore\n      swap2\n      swap1\n      swap3\n      keccak256\n      dup3\n      mload\n      dup1\n      dup5\n      add\n      dup4\n      add\n      dup1\n      mload\n      swap3\n      dup2\n      mstore\n      swap1\n      dup4\n      add\n      swap4\n      swap1\n      swap3\n      add\n      swap3\n      swap1\n      swap3\n      keccak256\n      swap2\n      swap1\n      mstore\n      sload\n      dup2\n      jump\n    tag_74:\n      mload(0x40)\n        /* \"#utility.yul\":4405:4430   */\n      swap1\n      dup2\n      mstore\n        /* \"#utility.yul\":4393:4395   */\n      0x20\n        /* \"#utility.yul\":4378:4396   */\n      add\n        /* \"contracts/MemoryControl.sol\":2294:2390  mapping(address => mapping(address => mapping(string => uint256))) public domainAccessExpiration */\n      tag_51\n        /* \"#utility.yul\":4259:4436   */\n      jump\n        /* \"contracts/MemoryControl.sol\":8096:8466  function grantAccessToDomain(string memory domainName) external validDomainName(domainName) {... */\n    tag_10:\n      tag_57\n      tag_81\n      calldatasize\n      0x04\n      tag_82\n      jump\t// in\n    tag_81:\n      tag_83\n      jump\t// in\n        /* \"contracts/MemoryControl.sol\":15349:16095  function grantTimeBasedDomainAccessToMemory(string memory domainName, bytes32 memoryId, uint256 durationInSeconds) external memoryExists(memoryId) onlyMemoryOwner(memoryId) validDomainName(domainName) {... */\n    tag_11:\n      tag_57\n      tag_85\n      calldatasize\n      0x04\n      tag_86\n      jump\t// in\n    tag_85:\n      tag_87\n      jump\t// in\n        /* \"contracts/MemoryControl.sol\":16343:16814  function grantAccessToDomainMemories(address grantee, string memory sourceDomain) external validDomainName(sourceDomain) {... */\n    tag_12:\n      tag_57\n      tag_89\n      calldatasize\n      0x04\n      tag_90\n      jump\t// in\n    tag_89:\n      tag_91\n      jump\t// in\n        /* \"contracts/MemoryControl.sol\":14280:15058  function grantTimeBasedAccessToMemory(address grantee, bytes32 memoryId, uint256 durationInSeconds) external memoryExists(memoryId) onlyMemoryOwner(memoryId) {... */\n    tag_13:\n      tag_57\n      tag_93\n      calldatasize\n      0x04\n      tag_94\n      jump\t// in\n    tag_93:\n      tag_95\n      jump\t// in\n        /* \"contracts/MemoryControl.sol\":26628:26962  function hasMemoryAccessExpired(address grantee, bytes32 memoryId) external view returns (bool) {... */\n    tag_14:\n      tag_47\n      tag_97\n      calldatasize\n      0x04\n      tag_98\n      jump\t// in\n    tag_97:\n      tag_99\n      jump\t// in\n        /* \"contracts/MemoryControl.sol\":10788:10923  function isMemoryExists(bytes32 memoryId) external view returns (bool) {... */\n    tag_15:\n      tag_47\n      tag_102\n      calldatasize\n      0x04\n      tag_59\n      jump\t// in\n    tag_102:\n        /* \"contracts/MemoryControl.sol\":10853:10857  bool */\n      0x00\n        /* \"contracts/MemoryControl.sol\":10877:10895  memories[memoryId] */\n      swap1\n      dup2\n      mstore\n      0x20\n      dup2\n      swap1\n      mstore\n      0x40\n      swap1\n      keccak256\n        /* \"contracts/MemoryControl.sol\":10877:10901  memories[memoryId].owner */\n      sload\n      sub(shl(0xa0, 0x01), 0x01)\n      and\n        /* \"contracts/MemoryControl.sol\":10877:10915  memories[memoryId].owner != address(0) */\n      iszero\n      iszero\n      swap1\n        /* \"contracts/MemoryControl.sol\":10788:10923  function isMemoryExists(bytes32 memoryId) external view returns (bool) {... */\n      jump\n        /* \"contracts/MemoryControl.sol\":11209:11870  function grantTimeBasedAccessToUser(address grantee, uint256 durationInSeconds) external {... */\n    tag_16:\n      tag_57\n      tag_106\n      calldatasize\n      0x04\n      tag_98\n      jump\t// in\n    tag_106:\n      tag_108\n      jump\t// in\n        /* \"contracts/MemoryControl.sol\":20370:20761  function revokeTimeBasedAccessFromDomain(string memory domainName) external validDomainName(domainName) {... */\n    tag_17:\n      tag_57\n      tag_110\n      calldatasize\n      0x04\n      tag_82\n      jump\t// in\n    tag_110:\n      tag_111\n      jump\t// in\n        /* \"contracts/MemoryControl.sol\":1205:1247  mapping(bytes32 => Memory) public memories */\n    tag_18:\n      tag_112\n      tag_113\n      calldatasize\n      0x04\n      tag_59\n      jump\t// in\n    tag_113:\n      tag_114\n      jump\t// in\n    tag_112:\n      mload(0x40)\n      tag_51\n      swap6\n      swap5\n      swap4\n      swap3\n      swap2\n      swap1\n      tag_116\n      jump\t// in\n        /* \"contracts/MemoryControl.sol\":12915:13379  function grantAccessToMemory(address grantee, bytes32 memoryId) external memoryExists(memoryId) onlyMemoryOwner(memoryId) {... */\n    tag_19:\n      tag_57\n      tag_118\n      calldatasize\n      0x04\n      tag_98\n      jump\t// in\n    tag_118:\n      tag_119\n      jump\t// in\n        /* \"contracts/MemoryControl.sol\":20970:21366  function revokeAccessFromMemory(address grantee, bytes32 memoryId) external {... */\n    tag_20:\n      tag_57\n      tag_121\n      calldatasize\n      0x04\n      tag_98\n      jump\t// in\n    tag_121:\n      tag_122\n      jump\t// in\n        /* \"contracts/MemoryControl.sol\":12086:12711  function grantTimeBasedAccessToDomain(string memory domainName, uint256 durationInSeconds) external validDomainName(domainName) {... */\n    tag_21:\n      tag_57\n      tag_124\n      calldatasize\n      0x04\n      tag_125\n      jump\t// in\n    tag_124:\n      tag_126\n      jump\t// in\n        /* \"contracts/MemoryControl.sol\":1410:1472  mapping(address => mapping(address => bool)) public accessList */\n    tag_22:\n      tag_47\n      tag_128\n      calldatasize\n      0x04\n      tag_129\n      jump\t// in\n    tag_128:\n      0x01\n      0x20\n      swap1\n      dup2\n      mstore\n      0x00\n      swap3\n      dup4\n      mstore\n      0x40\n      dup1\n      dup5\n      keccak256\n      swap1\n      swap2\n      mstore\n      swap1\n      dup3\n      mstore\n      swap1\n      keccak256\n      sload\n      0xff\n      and\n      dup2\n      jump\n        /* \"contracts/MemoryControl.sol\":9864:10279  function hasAccess(bytes32 memoryId, address grantee) external view memoryExists(memoryId) returns (bool) {... */\n    tag_23:\n      tag_47\n      tag_133\n      calldatasize\n      0x04\n      tag_49\n      jump\t// in\n    tag_133:\n      tag_134\n      jump\t// in\n        /* \"contracts/MemoryControl.sol\":18912:19681  function grantTimeBasedDomainAccessToDomainMemories(string memory granteeDomain, string memory sourceDomain, uint256 durationInSeconds) external validDomainName(granteeDomain) validDomainName(sourceDomain) {... */\n    tag_24:\n      tag_57\n      tag_137\n      calldatasize\n      0x04\n      tag_138\n      jump\t// in\n    tag_137:\n      tag_139\n      jump\t// in\n        /* \"contracts/MemoryControl.sol\":17805:18594  function grantTimeBasedAccessToDomainMemories(address grantee, string memory sourceDomain, uint256 durationInSeconds) external validDomainName(sourceDomain) {... */\n    tag_25:\n      tag_57\n      tag_141\n      calldatasize\n      0x04\n      tag_142\n      jump\t// in\n    tag_141:\n      tag_143\n      jump\t// in\n        /* \"contracts/MemoryControl.sol\":7474:7837  function grantAccessToUser(address grantee) external {... */\n    tag_26:\n      tag_57\n      tag_145\n      calldatasize\n      0x04\n      tag_68\n      jump\t// in\n    tag_145:\n      tag_146\n      jump\t// in\n        /* \"contracts/MemoryControl.sol\":22941:23428  function revokeDomainAccessFromDomainMemories(string memory granteeDomain, string memory sourceDomain) external validDomainName(granteeDomain) {... */\n    tag_27:\n      tag_57\n      tag_148\n      calldatasize\n      0x04\n      tag_149\n      jump\t// in\n    tag_148:\n      tag_150\n      jump\t// in\n        /* \"contracts/MemoryControl.sol\":9214:9588  function revokeAccessFromDomain(string memory domainName) external validDomainName(domainName) {... */\n    tag_28:\n      tag_57\n      tag_152\n      calldatasize\n      0x04\n      tag_82\n      jump\t// in\n    tag_152:\n      tag_153\n      jump\t// in\n        /* \"contracts/MemoryControl.sol\":1561:1632  mapping(address => mapping(address => uint256)) public accessExpiration */\n    tag_29:\n      tag_74\n      tag_155\n      calldatasize\n      0x04\n      tag_129\n      jump\t// in\n    tag_155:\n      0x02\n      0x20\n      swap1\n      dup2\n      mstore\n      0x00\n      swap3\n      dup4\n      mstore\n      0x40\n      dup1\n      dup5\n      keccak256\n      swap1\n      swap2\n      mstore\n      swap1\n      dup3\n      mstore\n      swap1\n      keccak256\n      sload\n      dup2\n      jump\n        /* \"contracts/MemoryControl.sol\":1910:2007  mapping(address => mapping(address => mapping(bytes32 => uint256))) public memoryAccessExpiration */\n    tag_30:\n      tag_74\n      tag_159\n      calldatasize\n      0x04\n      tag_160\n      jump\t// in\n    tag_159:\n      0x04\n      0x20\n      swap1\n      dup2\n      mstore\n      0x00\n      swap4\n      dup5\n      mstore\n      0x40\n      dup1\n      dup6\n      keccak256\n      dup3\n      mstore\n      swap3\n      dup5\n      mstore\n      dup3\n      dup5\n      keccak256\n      swap1\n      mstore\n      dup3\n      mstore\n      swap1\n      keccak256\n      sload\n      dup2\n      jump\n        /* \"contracts/MemoryControl.sol\":13596:14002  function grantDomainAccessToMemory(string memory domainName, bytes32 memoryId) external memoryExists(memoryId) onlyMemoryOwner(memoryId) validDomainName(domainName) {... */\n    tag_31:\n      tag_57\n      tag_164\n      calldatasize\n      0x04\n      tag_125\n      jump\t// in\n    tag_164:\n      tag_166\n      jump\t// in\n        /* \"contracts/MemoryControl.sol\":21588:22033  function revokeDomainAccessFromMemory(string memory domainName, bytes32 memoryId) external validDomainName(domainName) {... */\n    tag_32:\n      tag_57\n      tag_168\n      calldatasize\n      0x04\n      tag_125\n      jump\t// in\n    tag_168:\n      tag_169\n      jump\t// in\n        /* \"contracts/MemoryControl.sol\":2103:2190  mapping(address => mapping(address => mapping(string => bool))) public domainAccessList */\n    tag_33:\n      tag_47\n      tag_171\n      calldatasize\n      0x04\n      tag_76\n      jump\t// in\n    tag_171:\n      0x05\n      0x20\n      swap1\n      dup2\n      mstore\n      0x00\n      swap4\n      dup5\n      mstore\n      0x40\n      dup1\n      dup6\n      keccak256\n      dup3\n      mstore\n      swap3\n      dup5\n      mstore\n      swap2\n      swap1\n      swap3\n      keccak256\n      dup3\n      mload\n      dup1\n      dup5\n      add\n      dup4\n      add\n      dup1\n      mload\n      swap3\n      dup2\n      mstore\n      swap1\n      dup4\n      add\n      swap4\n      swap1\n      swap3\n      add\n      swap3\n      swap1\n      swap3\n      keccak256\n      swap2\n      swap1\n      mstore\n      sload\n      0xff\n      and\n      dup2\n      jump\n        /* \"contracts/MemoryControl.sol\":26091:26369  function hasAccessExpired(address grantee) external view returns (bool) {... */\n    tag_34:\n      tag_47\n      tag_175\n      calldatasize\n      0x04\n      tag_68\n      jump\t// in\n    tag_175:\n      tag_176\n      jump\t// in\n        /* \"contracts/MemoryControl.sol\":22266:22692  function revokeAccessFromDomainMemories(address grantee, string memory sourceDomain) external {... */\n    tag_35:\n      tag_57\n      tag_179\n      calldatasize\n      0x04\n      tag_90\n      jump\t// in\n    tag_179:\n      tag_180\n      jump\t// in\n        /* \"contracts/MemoryControl.sol\":25724:25895  function getMemorySourceDomain(bytes32 memoryId) external view memoryExists(memoryId) returns (string memory) {... */\n    tag_36:\n      tag_181\n      tag_182\n      calldatasize\n      0x04\n      tag_59\n      jump\t// in\n    tag_182:\n      tag_183\n      jump\t// in\n    tag_181:\n      mload(0x40)\n      tag_51\n      swap2\n      swap1\n      tag_185\n      jump\t// in\n        /* \"contracts/MemoryControl.sol\":19878:20224  function revokeTimeBasedAccessFromUser(address grantee) external {... */\n    tag_37:\n      tag_57\n      tag_187\n      calldatasize\n      0x04\n      tag_68\n      jump\t// in\n    tag_187:\n      tag_188\n      jump\t// in\n        /* \"contracts/MemoryControl.sol\":1720:1808  mapping(address => mapping(address => mapping(bytes32 => bool))) public memoryAccessList */\n    tag_38:\n      tag_47\n      tag_190\n      calldatasize\n      0x04\n      tag_160\n      jump\t// in\n    tag_190:\n      0x03\n      0x20\n      swap1\n      dup2\n      mstore\n      0x00\n      swap4\n      dup5\n      mstore\n      0x40\n      dup1\n      dup6\n      keccak256\n      dup3\n      mstore\n      swap3\n      dup5\n      mstore\n      dup3\n      dup5\n      keccak256\n      swap1\n      mstore\n      dup3\n      mstore\n      swap1\n      keccak256\n      sload\n      0xff\n      and\n      dup2\n      jump\n        /* \"contracts/MemoryControl.sol\":17078:17503  function grantDomainAccessToDomainMemories(string memory granteeDomain, string memory sourceDomain) external validDomainName(granteeDomain) validDomainName(sourceDomain) {... */\n    tag_39:\n      tag_57\n      tag_194\n      calldatasize\n      0x04\n      tag_149\n      jump\t// in\n    tag_194:\n      tag_195\n      jump\t// in\n        /* \"contracts/MemoryControl.sol\":23796:25537  function hasEnhancedAccess(bytes32 memoryId, address grantee) external view memoryExists(memoryId) returns (bool) {... */\n    tag_50:\n        /* \"contracts/MemoryControl.sol\":23904:23908  bool */\n      0x00\n        /* \"contracts/MemoryControl.sol\":4295:4313  memories[memoryId] */\n      dup3\n      dup2\n      mstore\n      0x20\n      dup2\n      swap1\n      mstore\n      0x40\n      dup2\n      keccak256\n        /* \"contracts/MemoryControl.sol\":4295:4319  memories[memoryId].owner */\n      sload\n        /* \"contracts/MemoryControl.sol\":23885:23893  memoryId */\n      dup4\n      swap1\n      sub(shl(0xa0, 0x01), 0x01)\n        /* \"contracts/MemoryControl.sol\":4295:4319  memories[memoryId].owner */\n      and\n        /* \"contracts/MemoryControl.sol\":4287:4374  require(memories[memoryId].owner != address(0), \"MemoryControl: Memory does not exist\") */\n      tag_197\n      jumpi\n      mload(0x40)\n      shl(0xe5, 0x461bcd)\n      dup2\n      mstore\n      0x04\n      add\n      tag_198\n      swap1\n      tag_199\n      jump\t// in\n    tag_198:\n      mload(0x40)\n      dup1\n      swap2\n      sub\n      swap1\n      revert\n    tag_197:\n        /* \"contracts/MemoryControl.sol\":23921:23945  Memory memory memoryData */\n      0x00\n        /* \"contracts/MemoryControl.sol\":23948:23966  memories[memoryId] */\n      dup5\n      dup2\n      mstore\n      0x20\n      dup2\n      dup2\n      mstore\n      0x40\n      dup1\n      dup4\n      keccak256\n        /* \"contracts/MemoryControl.sol\":23921:23966  Memory memory memoryData = memories[memoryId] */\n      dup2\n      mload\n      0xa0\n      dup2\n      add\n      dup4\n      mstore\n      dup2\n      sload\n      sub(shl(0xa0, 0x01), 0x01)\n      swap1\n      dup2\n      and\n      dup3\n      mstore\n      0x01\n      dup4\n      add\n      sload\n      swap5\n      dup3\n      add\n      swap5\n      swap1\n      swap5\n      mstore\n      0x02\n      dup3\n      add\n      sload\n      swap3\n      dup2\n      add\n      swap3\n      swap1\n      swap3\n      mstore\n      0x03\n      dup2\n      add\n      sload\n      swap1\n      swap3\n      and\n      0x60\n      dup3\n      add\n      mstore\n      0x04\n      dup3\n      add\n      dup1\n      sload\n      swap2\n      swap3\n        /* \"contracts/MemoryControl.sol\":23948:23966  memories[memoryId] */\n      swap2\n        /* \"contracts/MemoryControl.sol\":23921:23966  Memory memory memoryData = memories[memoryId] */\n      0x80\n      dup5\n      add\n      swap2\n      swap1\n      tag_201\n      swap1\n      tag_202\n      jump\t// in\n    tag_201:\n      dup1\n      0x1f\n      add\n      0x20\n      dup1\n      swap2\n      div\n      mul\n      0x20\n      add\n      mload(0x40)\n      swap1\n      dup2\n      add\n      0x40\n      mstore\n      dup1\n      swap3\n      swap2\n      swap1\n      dup2\n      dup2\n      mstore\n      0x20\n      add\n      dup3\n      dup1\n      sload\n      tag_203\n      swap1\n      tag_202\n      jump\t// in\n    tag_203:\n      dup1\n      iszero\n      tag_204\n      jumpi\n      dup1\n      0x1f\n      lt\n      tag_205\n      jumpi\n      0x0100\n      dup1\n      dup4\n      sload\n      div\n      mul\n      dup4\n      mstore\n      swap2\n      0x20\n      add\n      swap2\n      jump(tag_204)\n    tag_205:\n      dup3\n      add\n      swap2\n      swap1\n      0x00\n      mstore\n      keccak256(0x00, 0x20)\n      swap1\n    tag_206:\n      dup2\n      sload\n      dup2\n      mstore\n      swap1\n      0x01\n      add\n      swap1\n      0x20\n      add\n      dup1\n      dup4\n      gt\n      tag_206\n      jumpi\n      dup3\n      swap1\n      sub\n      0x1f\n      and\n      dup3\n      add\n      swap2\n    tag_204:\n      pop\n      pop\n      pop\n      pop\n      pop\n      dup2\n      mstore\n      pop\n      pop\n      swap1\n      pop\n        /* \"contracts/MemoryControl.sol\":24038:24048  memoryData */\n      dup1\n        /* \"contracts/MemoryControl.sol\":24038:24054  memoryData.owner */\n      0x00\n      add\n      mload\n      sub(shl(0xa0, 0x01), 0x01)\n        /* \"contracts/MemoryControl.sol\":24027:24054  grantee == memoryData.owner */\n      and\n        /* \"contracts/MemoryControl.sol\":24027:24034  grantee */\n      dup5\n      sub(shl(0xa0, 0x01), 0x01)\n        /* \"contracts/MemoryControl.sol\":24027:24054  grantee == memoryData.owner */\n      and\n      sub\n        /* \"contracts/MemoryControl.sol\":24023:24094  if (grantee == memoryData.owner) {... */\n      tag_207\n      jumpi\n        /* \"contracts/MemoryControl.sol\":24078:24082  true */\n      0x01\n        /* \"contracts/MemoryControl.sol\":24071:24082  return true */\n      swap3\n      pop\n      pop\n      jump(tag_200)\n        /* \"contracts/MemoryControl.sol\":24023:24094  if (grantee == memoryData.owner) {... */\n    tag_207:\n        /* \"contracts/MemoryControl.sol\":24188:24204  memoryData.owner */\n      dup1\n      mload\n      sub(shl(0xa0, 0x01), 0x01)\n        /* \"contracts/MemoryControl.sol\":24177:24205  accessList[memoryData.owner] */\n      swap1\n      dup2\n      and\n      0x00\n      swap1\n      dup2\n      mstore\n        /* \"contracts/MemoryControl.sol\":24177:24187  accessList */\n      0x01\n        /* \"contracts/MemoryControl.sol\":24177:24205  accessList[memoryData.owner] */\n      0x20\n      swap1\n      dup2\n      mstore\n      0x40\n      dup1\n      dup4\n      keccak256\n        /* \"contracts/MemoryControl.sol\":24177:24214  accessList[memoryData.owner][grantee] */\n      swap4\n      dup9\n      and\n      dup4\n      mstore\n      swap3\n      swap1\n      mstore\n      keccak256\n      sload\n      0xff\n      and\n        /* \"contracts/MemoryControl.sol\":24173:24485  if (accessList[memoryData.owner][grantee]) {... */\n      iszero\n      tag_208\n      jumpi\n        /* \"contracts/MemoryControl.sol\":24252:24268  memoryData.owner */\n      dup1\n      mload\n      sub(shl(0xa0, 0x01), 0x01)\n        /* \"contracts/MemoryControl.sol\":24235:24269  accessExpiration[memoryData.owner] */\n      swap1\n      dup2\n      and\n        /* \"contracts/MemoryControl.sol\":24281:24282  0 */\n      0x00\n        /* \"contracts/MemoryControl.sol\":24235:24269  accessExpiration[memoryData.owner] */\n      swap1\n      dup2\n      mstore\n        /* \"contracts/MemoryControl.sol\":24235:24251  accessExpiration */\n      0x02\n        /* \"contracts/MemoryControl.sol\":24235:24269  accessExpiration[memoryData.owner] */\n      0x20\n      swap1\n      dup2\n      mstore\n      0x40\n      dup1\n      dup4\n      keccak256\n        /* \"contracts/MemoryControl.sol\":24235:24278  accessExpiration[memoryData.owner][grantee] */\n      swap4\n      dup9\n      and\n      dup4\n      mstore\n      swap3\n      swap1\n      mstore\n      keccak256\n      sload\n        /* \"contracts/MemoryControl.sol\":24235:24282  accessExpiration[memoryData.owner][grantee] > 0 */\n      iszero\n      dup1\n      iszero\n      swap1\n        /* \"contracts/MemoryControl.sol\":24235:24347  accessExpiration[memoryData.owner][grantee] > 0 && block.timestamp > accessExpiration[memoryData.owner][grantee] */\n      tag_209\n      jumpi\n      pop\n        /* \"contracts/MemoryControl.sol\":24321:24337  memoryData.owner */\n      dup1\n      mload\n      sub(shl(0xa0, 0x01), 0x01)\n        /* \"contracts/MemoryControl.sol\":24304:24338  accessExpiration[memoryData.owner] */\n      swap1\n      dup2\n      and\n      0x00\n      swap1\n      dup2\n      mstore\n        /* \"contracts/MemoryControl.sol\":24304:24320  accessExpiration */\n      0x02\n        /* \"contracts/MemoryControl.sol\":24304:24338  accessExpiration[memoryData.owner] */\n      0x20\n      swap1\n      dup2\n      mstore\n      0x40\n      dup1\n      dup4\n      keccak256\n        /* \"contracts/MemoryControl.sol\":24304:24347  accessExpiration[memoryData.owner][grantee] */\n      swap4\n      dup9\n      and\n      dup4\n      mstore\n      swap3\n      swap1\n      mstore\n      keccak256\n      sload\n        /* \"contracts/MemoryControl.sol\":24286:24301  block.timestamp */\n      timestamp\n        /* \"contracts/MemoryControl.sol\":24286:24347  block.timestamp > accessExpiration[memoryData.owner][grantee] */\n      gt\n        /* \"contracts/MemoryControl.sol\":24235:24347  accessExpiration[memoryData.owner][grantee] > 0 && block.timestamp > accessExpiration[memoryData.owner][grantee] */\n    tag_209:\n        /* \"contracts/MemoryControl.sol\":24231:24418  if (accessExpiration[memoryData.owner][grantee] > 0 && block.timestamp > accessExpiration[memoryData.owner][grantee]) {... */\n      iszero\n      tag_210\n      jumpi\n        /* \"contracts/MemoryControl.sol\":24375:24380  false */\n      0x00\n        /* \"contracts/MemoryControl.sol\":24368:24380  return false */\n      swap3\n      pop\n      pop\n      jump(tag_200)\n        /* \"contracts/MemoryControl.sol\":24231:24418  if (accessExpiration[memoryData.owner][grantee] > 0 && block.timestamp > accessExpiration[memoryData.owner][grantee]) {... */\n    tag_210:\n        /* \"contracts/MemoryControl.sol\":24439:24443  true */\n      0x01\n        /* \"contracts/MemoryControl.sol\":24432:24443  return true */\n      swap3\n      pop\n      pop\n      jump(tag_200)\n        /* \"contracts/MemoryControl.sol\":24173:24485  if (accessList[memoryData.owner][grantee]) {... */\n    tag_208:\n        /* \"contracts/MemoryControl.sol\":24567:24583  memoryData.owner */\n      dup1\n      mload\n      sub(shl(0xa0, 0x01), 0x01)\n        /* \"contracts/MemoryControl.sol\":24550:24584  memoryAccessList[memoryData.owner] */\n      swap1\n      dup2\n      and\n      0x00\n      swap1\n      dup2\n      mstore\n        /* \"contracts/MemoryControl.sol\":24550:24566  memoryAccessList */\n      0x03\n        /* \"contracts/MemoryControl.sol\":24550:24584  memoryAccessList[memoryData.owner] */\n      0x20\n      swap1\n      dup2\n      mstore\n      0x40\n      dup1\n      dup4\n      keccak256\n        /* \"contracts/MemoryControl.sol\":24550:24593  memoryAccessList[memoryData.owner][grantee] */\n      swap4\n      dup9\n      and\n      dup4\n      mstore\n      swap3\n      dup2\n      mstore\n      dup3\n      dup3\n      keccak256\n        /* \"contracts/MemoryControl.sol\":24550:24603  memoryAccessList[memoryData.owner][grantee][memoryId] */\n      dup9\n      dup4\n      mstore\n      swap1\n      mstore\n      keccak256\n      sload\n      0xff\n      and\n        /* \"contracts/MemoryControl.sol\":24546:24930  if (memoryAccessList[memoryData.owner][grantee][memoryId]) {... */\n      iszero\n      tag_211\n      jumpi\n        /* \"contracts/MemoryControl.sol\":24647:24663  memoryData.owner */\n      dup1\n      mload\n      sub(shl(0xa0, 0x01), 0x01)\n        /* \"contracts/MemoryControl.sol\":24624:24664  memoryAccessExpiration[memoryData.owner] */\n      swap1\n      dup2\n      and\n        /* \"contracts/MemoryControl.sol\":24686:24687  0 */\n      0x00\n        /* \"contracts/MemoryControl.sol\":24624:24664  memoryAccessExpiration[memoryData.owner] */\n      swap1\n      dup2\n      mstore\n        /* \"contracts/MemoryControl.sol\":24624:24646  memoryAccessExpiration */\n      0x04\n        /* \"contracts/MemoryControl.sol\":24624:24664  memoryAccessExpiration[memoryData.owner] */\n      0x20\n      swap1\n      dup2\n      mstore\n      0x40\n      dup1\n      dup4\n      keccak256\n        /* \"contracts/MemoryControl.sol\":24624:24673  memoryAccessExpiration[memoryData.owner][grantee] */\n      swap4\n      dup9\n      and\n      dup4\n      mstore\n      swap3\n      dup2\n      mstore\n      dup3\n      dup3\n      keccak256\n        /* \"contracts/MemoryControl.sol\":24624:24683  memoryAccessExpiration[memoryData.owner][grantee][memoryId] */\n      dup9\n      dup4\n      mstore\n      swap1\n      mstore\n      keccak256\n      sload\n        /* \"contracts/MemoryControl.sol\":24624:24687  memoryAccessExpiration[memoryData.owner][grantee][memoryId] > 0 */\n      iszero\n      dup1\n      iszero\n      swap1\n        /* \"contracts/MemoryControl.sol\":24624:24768  memoryAccessExpiration[memoryData.owner][grantee][memoryId] > 0 && block.timestamp > memoryAccessExpiration[memoryData.owner][grantee][memoryId] */\n      tag_209\n      jumpi\n      pop\n        /* \"contracts/MemoryControl.sol\":24732:24748  memoryData.owner */\n      dup1\n      mload\n      sub(shl(0xa0, 0x01), 0x01)\n        /* \"contracts/MemoryControl.sol\":24709:24749  memoryAccessExpiration[memoryData.owner] */\n      swap1\n      dup2\n      and\n      0x00\n      swap1\n      dup2\n      mstore\n        /* \"contracts/MemoryControl.sol\":24709:24731  memoryAccessExpiration */\n      0x04\n        /* \"contracts/MemoryControl.sol\":24709:24749  memoryAccessExpiration[memoryData.owner] */\n      0x20\n      swap1\n      dup2\n      mstore\n      0x40\n      dup1\n      dup4\n      keccak256\n        /* \"contracts/MemoryControl.sol\":24709:24758  memoryAccessExpiration[memoryData.owner][grantee] */\n      swap4\n      dup9\n      and\n      dup4\n      mstore\n      swap3\n      dup2\n      mstore\n      dup3\n      dup3\n      keccak256\n        /* \"contracts/MemoryControl.sol\":24709:24768  memoryAccessExpiration[memoryData.owner][grantee][memoryId] */\n      dup9\n      dup4\n      mstore\n      swap1\n      mstore\n      keccak256\n      sload\n        /* \"contracts/MemoryControl.sol\":24691:24706  block.timestamp */\n      timestamp\n        /* \"contracts/MemoryControl.sol\":24691:24768  block.timestamp > memoryAccessExpiration[memoryData.owner][grantee][memoryId] */\n      gt\n        /* \"contracts/MemoryControl.sol\":24620:24855  if (memoryAccessExpiration[memoryData.owner][grantee][memoryId] > 0 && block.timestamp > memoryAccessExpiration[memoryData.owner][grantee][memoryId]) {... */\n      iszero\n      tag_210\n      jumpi\n        /* \"contracts/MemoryControl.sol\":24796:24801  false */\n      0x00\n        /* \"contracts/MemoryControl.sol\":24789:24801  return false */\n      swap3\n      pop\n      pop\n      jump(tag_200)\n        /* \"contracts/MemoryControl.sol\":24546:24930  if (memoryAccessList[memoryData.owner][grantee][memoryId]) {... */\n    tag_211:\n        /* \"contracts/MemoryControl.sol\":25064:25080  memoryData.owner */\n      dup1\n      mload\n      sub(shl(0xa0, 0x01), 0x01)\n        /* \"contracts/MemoryControl.sol\":25047:25081  domainAccessList[memoryData.owner] */\n      swap1\n      dup2\n      and\n      0x00\n      swap1\n      dup2\n      mstore\n        /* \"contracts/MemoryControl.sol\":25047:25063  domainAccessList */\n      0x05\n        /* \"contracts/MemoryControl.sol\":25047:25081  domainAccessList[memoryData.owner] */\n      0x20\n      swap1\n      dup2\n      mstore\n      0x40\n      dup1\n      dup4\n      keccak256\n        /* \"contracts/MemoryControl.sol\":25047:25090  domainAccessList[memoryData.owner][grantee] */\n      swap4\n      dup9\n      and\n      dup4\n      mstore\n      swap3\n      swap1\n      mstore\n      dup2\n      swap1\n      keccak256\n        /* \"contracts/MemoryControl.sol\":25091:25118  memoryData.sourceDomainName */\n      0x80\n      dup4\n      add\n      mload\n        /* \"contracts/MemoryControl.sol\":25047:25119  domainAccessList[memoryData.owner][grantee][memoryData.sourceDomainName] */\n      swap2\n      mload\n        /* \"contracts/MemoryControl.sol\":25047:25090  domainAccessList[memoryData.owner][grantee] */\n      swap1\n      swap2\n        /* \"contracts/MemoryControl.sol\":25047:25119  domainAccessList[memoryData.owner][grantee][memoryData.sourceDomainName] */\n      tag_214\n      swap2\n      tag_215\n      jump\t// in\n    tag_214:\n      swap1\n      dup2\n      mstore\n      mload(0x40)\n      swap1\n      dup2\n      swap1\n      sub\n      0x20\n      add\n      swap1\n      keccak256\n      sload\n      0xff\n      and\n        /* \"contracts/MemoryControl.sol\":25043:25478  if (domainAccessList[memoryData.owner][grantee][memoryData.sourceDomainName]) {... */\n      iszero\n      tag_216\n      jumpi\n        /* \"contracts/MemoryControl.sol\":25163:25179  memoryData.owner */\n      dup1\n      mload\n      sub(shl(0xa0, 0x01), 0x01)\n        /* \"contracts/MemoryControl.sol\":25140:25180  domainAccessExpiration[memoryData.owner] */\n      swap1\n      dup2\n      and\n        /* \"contracts/MemoryControl.sol\":25221:25222  0 */\n      0x00\n        /* \"contracts/MemoryControl.sol\":25140:25180  domainAccessExpiration[memoryData.owner] */\n      swap1\n      dup2\n      mstore\n        /* \"contracts/MemoryControl.sol\":25140:25162  domainAccessExpiration */\n      0x06\n        /* \"contracts/MemoryControl.sol\":25140:25180  domainAccessExpiration[memoryData.owner] */\n      0x20\n      swap1\n      dup2\n      mstore\n      0x40\n      dup1\n      dup4\n      keccak256\n        /* \"contracts/MemoryControl.sol\":25140:25189  domainAccessExpiration[memoryData.owner][grantee] */\n      swap4\n      dup9\n      and\n      dup4\n      mstore\n      swap3\n      swap1\n      mstore\n      dup2\n      dup2\n      keccak256\n        /* \"contracts/MemoryControl.sol\":25190:25217  memoryData.sourceDomainName */\n      0x80\n      dup5\n      add\n      mload\n        /* \"contracts/MemoryControl.sol\":25140:25218  domainAccessExpiration[memoryData.owner][grantee][memoryData.sourceDomainName] */\n      swap3\n      mload\n        /* \"contracts/MemoryControl.sol\":25221:25222  0 */\n      swap2\n      swap3\n        /* \"contracts/MemoryControl.sol\":25140:25189  domainAccessExpiration[memoryData.owner][grantee] */\n      swap1\n      swap2\n        /* \"contracts/MemoryControl.sol\":25140:25218  domainAccessExpiration[memoryData.owner][grantee][memoryData.sourceDomainName] */\n      tag_217\n      swap2\n        /* \"contracts/MemoryControl.sol\":25190:25217  memoryData.sourceDomainName */\n      swap1\n        /* \"contracts/MemoryControl.sol\":25140:25218  domainAccessExpiration[memoryData.owner][grantee][memoryData.sourceDomainName] */\n      tag_215\n      jump\t// in\n    tag_217:\n      swap1\n      dup2\n      mstore\n      0x20\n      add\n      mload(0x40)\n      dup1\n      swap2\n      sub\n      swap1\n      keccak256\n      sload\n        /* \"contracts/MemoryControl.sol\":25140:25222  domainAccessExpiration[memoryData.owner][grantee][memoryData.sourceDomainName] > 0 */\n      gt\n        /* \"contracts/MemoryControl.sol\":25140:25322  domainAccessExpiration[memoryData.owner][grantee][memoryData.sourceDomainName] > 0 && block.timestamp > domainAccessExpiration[memoryData.owner][grantee][memoryData.sourceDomainName] */\n      dup1\n      iszero\n      tag_209\n      jumpi\n      pop\n        /* \"contracts/MemoryControl.sol\":25267:25283  memoryData.owner */\n      dup1\n      mload\n      sub(shl(0xa0, 0x01), 0x01)\n        /* \"contracts/MemoryControl.sol\":25244:25284  domainAccessExpiration[memoryData.owner] */\n      swap1\n      dup2\n      and\n      0x00\n      swap1\n      dup2\n      mstore\n        /* \"contracts/MemoryControl.sol\":25244:25266  domainAccessExpiration */\n      0x06\n        /* \"contracts/MemoryControl.sol\":25244:25284  domainAccessExpiration[memoryData.owner] */\n      0x20\n      swap1\n      dup2\n      mstore\n      0x40\n      dup1\n      dup4\n      keccak256\n        /* \"contracts/MemoryControl.sol\":25244:25293  domainAccessExpiration[memoryData.owner][grantee] */\n      swap4\n      dup9\n      and\n      dup4\n      mstore\n      swap3\n      swap1\n      mstore\n      dup2\n      swap1\n      keccak256\n        /* \"contracts/MemoryControl.sol\":25294:25321  memoryData.sourceDomainName */\n      0x80\n      dup4\n      add\n      mload\n        /* \"contracts/MemoryControl.sol\":25244:25322  domainAccessExpiration[memoryData.owner][grantee][memoryData.sourceDomainName] */\n      swap2\n      mload\n        /* \"contracts/MemoryControl.sol\":25244:25293  domainAccessExpiration[memoryData.owner][grantee] */\n      swap1\n      swap2\n        /* \"contracts/MemoryControl.sol\":25244:25322  domainAccessExpiration[memoryData.owner][grantee][memoryData.sourceDomainName] */\n      tag_219\n      swap2\n      tag_215\n      jump\t// in\n    tag_219:\n      swap1\n      dup2\n      mstore\n      0x20\n      add\n      mload(0x40)\n      dup1\n      swap2\n      sub\n      swap1\n      keccak256\n      sload\n        /* \"contracts/MemoryControl.sol\":25226:25241  block.timestamp */\n      timestamp\n        /* \"contracts/MemoryControl.sol\":25226:25322  block.timestamp > domainAccessExpiration[memoryData.owner][grantee][memoryData.sourceDomainName] */\n      gt\n        /* \"contracts/MemoryControl.sol\":25136:25406  if (domainAccessExpiration[memoryData.owner][grantee][memoryData.sourceDomainName] > 0 && block.timestamp > domainAccessExpiration[memoryData.owner][grantee][memoryData.sourceDomainName]) {... */\n      iszero\n      tag_210\n      jumpi\n        /* \"contracts/MemoryControl.sol\":25350:25355  false */\n      0x00\n        /* \"contracts/MemoryControl.sol\":25343:25355  return false */\n      swap3\n      pop\n      pop\n      jump(tag_200)\n        /* \"contracts/MemoryControl.sol\":25043:25478  if (domainAccessList[memoryData.owner][grantee][memoryData.sourceDomainName]) {... */\n    tag_216:\n        /* \"contracts/MemoryControl.sol\":25505:25510  false */\n      0x00\n        /* \"contracts/MemoryControl.sol\":25498:25510  return false */\n      swap3\n      pop\n      pop\n        /* \"contracts/MemoryControl.sol\":4385:4386  _ */\n    tag_200:\n        /* \"contracts/MemoryControl.sol\":23796:25537  function hasEnhancedAccess(bytes32 memoryId, address grantee) external view memoryExists(memoryId) returns (bool) {... */\n      pop\n      swap3\n      swap2\n      pop\n      pop\n      jump\t// out\n        /* \"contracts/MemoryControl.sol\":6910:7245  function deleteMemory(bytes32 memoryId) external onlyMemoryOwner(memoryId) memoryExists(memoryId) {... */\n    tag_60:\n        /* \"contracts/MemoryControl.sol\":4064:4072  memories */\n      0x00\n        /* \"contracts/MemoryControl.sol\":4064:4082  memories[memoryId] */\n      dup2\n      dup2\n      mstore\n      0x20\n      dup2\n      swap1\n      mstore\n      0x40\n      swap1\n      keccak256\n        /* \"contracts/MemoryControl.sol\":4064:4088  memories[memoryId].owner */\n      sload\n        /* \"contracts/MemoryControl.sol\":6975:6983  memoryId */\n      dup2\n      swap1\n      sub(shl(0xa0, 0x01), 0x01)\n        /* \"contracts/MemoryControl.sol\":4064:4088  memories[memoryId].owner */\n      and\n        /* \"contracts/MemoryControl.sol\":4092:4102  msg.sender */\n      caller\n        /* \"contracts/MemoryControl.sol\":4064:4102  memories[memoryId].owner == msg.sender */\n      eq\n        /* \"contracts/MemoryControl.sol\":4056:4163  require(memories[memoryId].owner == msg.sender, \"MemoryControl: Only memory owner can perform this action\") */\n      tag_222\n      jumpi\n      mload(0x40)\n      shl(0xe5, 0x461bcd)\n      dup2\n      mstore\n      0x04\n      add\n      tag_198\n      swap1\n      tag_224\n      jump\t// in\n    tag_222:\n        /* \"contracts/MemoryControl.sol\":4331:4332  0 */\n      0x00\n        /* \"contracts/MemoryControl.sol\":4295:4313  memories[memoryId] */\n      dup3\n      dup2\n      mstore\n      0x20\n      dup2\n      swap1\n      mstore\n      0x40\n      swap1\n      keccak256\n        /* \"contracts/MemoryControl.sol\":4295:4319  memories[memoryId].owner */\n      sload\n        /* \"contracts/MemoryControl.sol\":6998:7006  memoryId */\n      dup3\n      swap1\n      sub(shl(0xa0, 0x01), 0x01)\n        /* \"contracts/MemoryControl.sol\":4295:4319  memories[memoryId].owner */\n      and\n        /* \"contracts/MemoryControl.sol\":4287:4374  require(memories[memoryId].owner != address(0), \"MemoryControl: Memory does not exist\") */\n      tag_226\n      jumpi\n      mload(0x40)\n      shl(0xe5, 0x461bcd)\n      dup2\n      mstore\n      0x04\n      add\n      tag_198\n      swap1\n      tag_199\n      jump\t// in\n    tag_226:\n        /* \"contracts/MemoryControl.sol\":7019:7032  address owner */\n      0x00\n        /* \"contracts/MemoryControl.sol\":7035:7053  memories[memoryId] */\n      dup4\n      dup2\n      mstore\n      0x20\n      dup2\n      swap1\n      mstore\n      0x40\n      dup2\n      keccak256\n        /* \"contracts/MemoryControl.sol\":7035:7059  memories[memoryId].owner */\n      dup1\n      sload\n      not(sub(shl(0xa0, 0x01), 0x01))\n        /* \"contracts/MemoryControl.sol\":7117:7142  delete memories[memoryId] */\n      dup1\n      dup3\n      and\n      dup4\n      sstore\n        /* \"contracts/MemoryControl.sol\":7035:7059  memories[memoryId].owner */\n      0x01\n        /* \"contracts/MemoryControl.sol\":7117:7142  delete memories[memoryId] */\n      dup4\n      add\n      dup5\n      swap1\n      sstore\n      0x02\n      dup4\n      add\n      dup5\n      swap1\n      sstore\n      0x03\n      dup4\n      add\n      dup1\n      sload\n      swap1\n      swap2\n      and\n      swap1\n      sstore\n      sub(shl(0xa0, 0x01), 0x01)\n        /* \"contracts/MemoryControl.sol\":7035:7059  memories[memoryId].owner */\n      and\n      swap2\n        /* \"contracts/MemoryControl.sol\":7117:7142  delete memories[memoryId] */\n      tag_229\n      0x04\n      dup4\n      add\n        /* \"contracts/MemoryControl.sol\":7019:7032  address owner */\n      dup3\n        /* \"contracts/MemoryControl.sol\":7117:7142  delete memories[memoryId] */\n      tag_230\n      jump\t// in\n    tag_229:\n      pop\n      pop\n        /* \"contracts/MemoryControl.sol\":7207:7237  MemoryDeleted(owner, memoryId) */\n      mload(0x40)\n        /* \"contracts/MemoryControl.sol\":7228:7236  memoryId */\n      dup5\n      swap1\n      sub(shl(0xa0, 0x01), 0x01)\n        /* \"contracts/MemoryControl.sol\":7207:7237  MemoryDeleted(owner, memoryId) */\n      dup4\n      and\n      swap1\n      0xce43e25c3862a18fc518ceb279ba32211116b6898e5ea653f120559df2c168da\n      swap1\n      0x00\n      swap1\n      log3\n        /* \"contracts/MemoryControl.sol\":7008:7245  {... */\n      pop\n        /* \"contracts/MemoryControl.sol\":4174:4175  _ */\n      pop\n        /* \"contracts/MemoryControl.sol\":6910:7245  function deleteMemory(bytes32 memoryId) external onlyMemoryOwner(memoryId) memoryExists(memoryId) {... */\n      pop\n      pop\n      jump\t// out\n        /* \"contracts/MemoryControl.sol\":10465:10607  function getMemory(bytes32 memoryId) external view memoryExists(memoryId) returns (Memory memory) {... */\n    tag_63:\n        /* \"contracts/MemoryControl.sol\":10548:10561  Memory memory */\n      tag_231\n      mload(0x40)\n      dup1\n      0xa0\n      add\n      0x40\n      mstore\n      dup1\n      and(sub(shl(0xa0, 0x01), 0x01), 0x00)\n      dup2\n      mstore\n      0x20\n      add\n      0x00\n      dup2\n      mstore\n      0x20\n      add\n      0x00\n      dup2\n      mstore\n      0x20\n      add\n      and(sub(shl(0xa0, 0x01), 0x01), 0x00)\n      dup2\n      mstore\n      0x20\n      add\n      0x60\n      dup2\n      mstore\n      pop\n      swap1\n      jump\n    tag_231:\n        /* \"contracts/MemoryControl.sol\":4331:4332  0 */\n      0x00\n        /* \"contracts/MemoryControl.sol\":4295:4313  memories[memoryId] */\n      dup3\n      dup2\n      mstore\n      0x20\n      dup2\n      swap1\n      mstore\n      0x40\n      swap1\n      keccak256\n        /* \"contracts/MemoryControl.sol\":4295:4319  memories[memoryId].owner */\n      sload\n        /* \"contracts/MemoryControl.sol\":10529:10537  memoryId */\n      dup3\n      swap1\n      sub(shl(0xa0, 0x01), 0x01)\n        /* \"contracts/MemoryControl.sol\":4295:4319  memories[memoryId].owner */\n      and\n        /* \"contracts/MemoryControl.sol\":4287:4374  require(memories[memoryId].owner != address(0), \"MemoryControl: Memory does not exist\") */\n      tag_234\n      jumpi\n      mload(0x40)\n      shl(0xe5, 0x461bcd)\n      dup2\n      mstore\n      0x04\n      add\n      tag_198\n      swap1\n      tag_199\n      jump\t// in\n    tag_234:\n        /* \"contracts/MemoryControl.sol\":10581:10589  memories */\n      0x00\n        /* \"contracts/MemoryControl.sol\":10581:10599  memories[memoryId] */\n      dup4\n      dup2\n      mstore\n      0x20\n      dup2\n      dup2\n      mstore\n      0x40\n      swap2\n      dup3\n      swap1\n      keccak256\n        /* \"contracts/MemoryControl.sol\":10574:10599  return memories[memoryId] */\n      dup3\n      mload\n      0xa0\n      dup2\n      add\n      dup5\n      mstore\n      dup2\n      sload\n      sub(shl(0xa0, 0x01), 0x01)\n      swap1\n      dup2\n      and\n      dup3\n      mstore\n      0x01\n      dup4\n      add\n      sload\n      swap4\n      dup3\n      add\n      swap4\n      swap1\n      swap4\n      mstore\n      0x02\n      dup3\n      add\n      sload\n      swap4\n      dup2\n      add\n      swap4\n      swap1\n      swap4\n      mstore\n      0x03\n      dup2\n      add\n      sload\n      swap1\n      swap2\n      and\n      0x60\n      dup4\n      add\n      mstore\n      0x04\n      dup2\n      add\n      dup1\n      sload\n      0x80\n      dup5\n      add\n      swap2\n      swap1\n      tag_237\n      swap1\n      tag_202\n      jump\t// in\n    tag_237:\n      dup1\n      0x1f\n      add\n      0x20\n      dup1\n      swap2\n      div\n      mul\n      0x20\n      add\n      mload(0x40)\n      swap1\n      dup2\n      add\n      0x40\n      mstore\n      dup1\n      swap3\n      swap2\n      swap1\n      dup2\n      dup2\n      mstore\n      0x20\n      add\n      dup3\n      dup1\n      sload\n      tag_238\n      swap1\n      tag_202\n      jump\t// in\n    tag_238:\n      dup1\n      iszero\n      tag_239\n      jumpi\n      dup1\n      0x1f\n      lt\n      tag_240\n      jumpi\n      0x0100\n      dup1\n      dup4\n      sload\n      div\n      mul\n      dup4\n      mstore\n      swap2\n      0x20\n      add\n      swap2\n      jump(tag_239)\n    tag_240:\n      dup3\n      add\n      swap2\n      swap1\n      0x00\n      mstore\n      keccak256(0x00, 0x20)\n      swap1\n    tag_241:\n      dup2\n      sload\n      dup2\n      mstore\n      swap1\n      0x01\n      add\n      swap1\n      0x20\n      add\n      dup1\n      dup4\n      gt\n      tag_241\n      jumpi\n      dup3\n      swap1\n      sub\n      0x1f\n      and\n      dup3\n      add\n      swap2\n    tag_239:\n      pop\n      pop\n      pop\n      pop\n      pop\n      dup2\n      mstore\n      pop\n      pop\n      swap2\n      pop\n        /* \"contracts/MemoryControl.sol\":4385:4386  _ */\n    tag_236:\n        /* \"contracts/MemoryControl.sol\":10465:10607  function getMemory(bytes32 memoryId) external view memoryExists(memoryId) returns (Memory memory) {... */\n      pop\n      swap2\n      swap1\n      pop\n      jump\t// out\n        /* \"contracts/MemoryControl.sol\":8693:8969  function revokeAccessFromUser(address grantee) external {... */\n    tag_69:\n      sub(shl(0xa0, 0x01), 0x01)\n        /* \"contracts/MemoryControl.sol\":8768:8789  grantee != address(0) */\n      dup2\n      and\n        /* \"contracts/MemoryControl.sol\":8760:8847  require(grantee != address(0), \"MemoryControl: Grantee address cannot be zero address\") */\n      tag_243\n      jumpi\n      mload(0x40)\n      shl(0xe5, 0x461bcd)\n      dup2\n      mstore\n      0x04\n      add\n      tag_198\n      swap1\n      tag_245\n      jump\t// in\n    tag_243:\n        /* \"contracts/MemoryControl.sol\":8879:8889  msg.sender */\n      caller\n        /* \"contracts/MemoryControl.sol\":8902:8907  false */\n      0x00\n        /* \"contracts/MemoryControl.sol\":8868:8890  accessList[msg.sender] */\n      dup2\n      dup2\n      mstore\n        /* \"contracts/MemoryControl.sol\":8868:8878  accessList */\n      0x01\n        /* \"contracts/MemoryControl.sol\":8868:8890  accessList[msg.sender] */\n      0x20\n      swap1\n      dup2\n      mstore\n      0x40\n      dup1\n      dup4\n      keccak256\n      sub(shl(0xa0, 0x01), 0x01)\n        /* \"contracts/MemoryControl.sol\":8868:8899  accessList[msg.sender][grantee] */\n      dup7\n      and\n      dup1\n      dup6\n      mstore\n      swap1\n      dup4\n      mstore\n      dup2\n      dup5\n      keccak256\n        /* \"contracts/MemoryControl.sol\":8868:8907  accessList[msg.sender][grantee] = false */\n      dup1\n      sload\n      not(0xff)\n      and\n      swap1\n      sstore\n        /* \"contracts/MemoryControl.sol\":8923:8961  AccessRevoked(msg.sender, grantee, \"\") */\n      dup2\n      mload\n        /* \"#utility.yul\":13515:13536   */\n      dup4\n      dup2\n      mstore\n        /* \"#utility.yul\":13552:13570   */\n      swap3\n      dup4\n      add\n        /* \"#utility.yul\":13545:13574   */\n      swap4\n      swap1\n      swap4\n      mstore\n        /* \"contracts/MemoryControl.sol\":8868:8899  accessList[msg.sender][grantee] */\n      swap2\n      swap3\n        /* \"contracts/MemoryControl.sol\":8879:8889  msg.sender */\n      swap2\n        /* \"contracts/MemoryControl.sol\":8923:8961  AccessRevoked(msg.sender, grantee, \"\") */\n      0x0a2382b7b0f44ee62df753c00034038c109332bf9b8f52418af74aa2859780fb\n      swap2\n        /* \"#utility.yul\":13591:13609   */\n      add\n        /* \"contracts/MemoryControl.sol\":8923:8961  AccessRevoked(msg.sender, grantee, \"\") */\n    tag_246:\n      mload(0x40)\n      dup1\n      swap2\n      sub\n      swap1\n      log3\n        /* \"contracts/MemoryControl.sol\":8693:8969  function revokeAccessFromUser(address grantee) external {... */\n      pop\n      jump\t// out\n        /* \"contracts/MemoryControl.sol\":5465:6685  function addMemory(... */\n    tag_73:\n        /* \"contracts/MemoryControl.sol\":5589:5605  sourceDomainName */\n      dup1\n        /* \"contracts/MemoryControl.sol\":4555:4556  0 */\n      0x00\n        /* \"contracts/MemoryControl.sol\":4534:4544  domainName */\n      dup2\n        /* \"contracts/MemoryControl.sol\":4528:4552  bytes(domainName).length */\n      mload\n        /* \"contracts/MemoryControl.sol\":4528:4556  bytes(domainName).length > 0 */\n      gt\n        /* \"contracts/MemoryControl.sol\":4520:4603  require(bytes(domainName).length > 0, \"MemoryControl: Domain name cannot be empty\") */\n      tag_249\n      jumpi\n      mload(0x40)\n      shl(0xe5, 0x461bcd)\n      dup2\n      mstore\n      0x04\n      add\n      tag_198\n      swap1\n      tag_251\n      jump\t// in\n    tag_249:\n        /* \"contracts/MemoryControl.sol\":5626:5638  metadataHash */\n      dup3\n        /* \"contracts/MemoryControl.sol\":5618:5700  require(metadataHash != bytes32(0), \"MemoryControl: Metadata hash cannot be zero\") */\n      tag_253\n      jumpi\n      mload(0x40)\n      shl(0xe5, 0x461bcd)\n      dup2\n      mstore\n        /* \"#utility.yul\":14233:14235   */\n      0x20\n        /* \"contracts/MemoryControl.sol\":5618:5700  require(metadataHash != bytes32(0), \"MemoryControl: Metadata hash cannot be zero\") */\n      0x04\n      dup3\n      add\n        /* \"#utility.yul\":14215:14236   */\n      mstore\n        /* \"#utility.yul\":14272:14274   */\n      0x2b\n        /* \"#utility.yul\":14252:14270   */\n      0x24\n      dup3\n      add\n        /* \"#utility.yul\":14245:14275   */\n      mstore\n        /* \"#utility.yul\":14311:14345   */\n      0x4d656d6f7279436f6e74726f6c3a204d6574616461746120686173682063616e\n        /* \"#utility.yul\":14291:14309   */\n      0x44\n      dup3\n      add\n        /* \"#utility.yul\":14284:14346   */\n      mstore\n      shl(0xa8, 0x6e6f74206265207a65726f)\n        /* \"#utility.yul\":14362:14380   */\n      0x64\n      dup3\n      add\n        /* \"#utility.yul\":14355:14396   */\n      mstore\n        /* \"#utility.yul\":14413:14432   */\n      0x84\n      add\n        /* \"contracts/MemoryControl.sol\":5618:5700  require(metadataHash != bytes32(0), \"MemoryControl: Metadata hash cannot be zero\") */\n      tag_198\n        /* \"#utility.yul\":14031:14438   */\n      jump\n        /* \"contracts/MemoryControl.sol\":5618:5700  require(metadataHash != bytes32(0), \"MemoryControl: Metadata hash cannot be zero\") */\n    tag_253:\n        /* \"contracts/MemoryControl.sol\":5759:5760  0 */\n      0x00\n        /* \"contracts/MemoryControl.sol\":5719:5741  memories[metadataHash] */\n      dup4\n      dup2\n      mstore\n      0x20\n      dup2\n      swap1\n      mstore\n      0x40\n      swap1\n      keccak256\n        /* \"contracts/MemoryControl.sol\":5719:5747  memories[metadataHash].owner */\n      sload\n      sub(shl(0xa0, 0x01), 0x01)\n      and\n        /* \"contracts/MemoryControl.sol\":5719:5761  memories[metadataHash].owner == address(0) */\n      iszero\n        /* \"contracts/MemoryControl.sol\":5711:5817  require(memories[metadataHash].owner == address(0), \"MemoryControl: Memory with this hash already exists\") */\n      tag_256\n      jumpi\n      mload(0x40)\n      shl(0xe5, 0x461bcd)\n      dup2\n      mstore\n        /* \"#utility.yul\":14645:14647   */\n      0x20\n        /* \"contracts/MemoryControl.sol\":5711:5817  require(memories[metadataHash].owner == address(0), \"MemoryControl: Memory with this hash already exists\") */\n      0x04\n      dup3\n      add\n        /* \"#utility.yul\":14627:14648   */\n      mstore\n        /* \"#utility.yul\":14684:14686   */\n      0x33\n        /* \"#utility.yul\":14664:14682   */\n      0x24\n      dup3\n      add\n        /* \"#utility.yul\":14657:14687   */\n      mstore\n        /* \"#utility.yul\":14723:14757   */\n      0x4d656d6f7279436f6e74726f6c3a204d656d6f72792077697468207468697320\n        /* \"#utility.yul\":14703:14721   */\n      0x44\n      dup3\n      add\n        /* \"#utility.yul\":14696:14758   */\n      mstore\n      shl(0x68, 0x6861736820616c726561647920657869737473)\n        /* \"#utility.yul\":14774:14792   */\n      0x64\n      dup3\n      add\n        /* \"#utility.yul\":14767:14816   */\n      mstore\n        /* \"#utility.yul\":14833:14852   */\n      0x84\n      add\n        /* \"contracts/MemoryControl.sol\":5711:5817  require(memories[metadataHash].owner == address(0), \"MemoryControl: Memory with this hash already exists\") */\n      tag_198\n        /* \"#utility.yul\":14443:14858   */\n      jump\n        /* \"contracts/MemoryControl.sol\":5711:5817  require(memories[metadataHash].owner == address(0), \"MemoryControl: Memory with this hash already exists\") */\n    tag_256:\n        /* \"contracts/MemoryControl.sol\":5934:5983  domainRegistry.getDomainAddress(sourceDomainName) */\n      mload(0x40)\n      shl(0xe0, 0x94310e51)\n      dup2\n      mstore\n        /* \"contracts/MemoryControl.sol\":5904:5931  address sourceDomainAddress */\n      0x00\n      swap1\n      sub(shl(0xa0, 0x01), 0x01)\n        /* \"contracts/MemoryControl.sol\":5934:5948  domainRegistry */\n      immutable(\"0x8fef2229291b68be841adf029e58b87f39ba144b2d3b0af1760243d0a9bc6a1c\")\n        /* \"contracts/MemoryControl.sol\":5934:5965  domainRegistry.getDomainAddress */\n      and\n      swap1\n      0x94310e51\n      swap1\n        /* \"contracts/MemoryControl.sol\":5934:5983  domainRegistry.getDomainAddress(sourceDomainName) */\n      tag_259\n      swap1\n        /* \"contracts/MemoryControl.sol\":5966:5982  sourceDomainName */\n      dup7\n      swap1\n        /* \"contracts/MemoryControl.sol\":5934:5983  domainRegistry.getDomainAddress(sourceDomainName) */\n      0x04\n      add\n      tag_185\n      jump\t// in\n    tag_259:\n      0x20\n      mload(0x40)\n      dup1\n      dup4\n      sub\n      dup2\n      dup7\n      gas\n      staticcall\n      iszero\n      dup1\n      iszero\n      tag_261\n      jumpi\n      returndatacopy(0x00, 0x00, returndatasize)\n      revert(0x00, returndatasize)\n    tag_261:\n      pop\n      pop\n      pop\n      pop\n      mload(0x40)\n      returndatasize\n      not(0x1f)\n      0x1f\n      dup3\n      add\n      and\n      dup3\n      add\n      dup1\n      0x40\n      mstore\n      pop\n      dup2\n      add\n      swap1\n      tag_262\n      swap2\n      swap1\n      tag_263\n      jump\t// in\n    tag_262:\n        /* \"contracts/MemoryControl.sol\":6080:6310  Memory({... */\n      0x40\n      dup1\n      mload\n      0xa0\n      dup2\n      add\n      dup3\n      mstore\n        /* \"contracts/MemoryControl.sol\":6109:6119  msg.sender */\n      caller\n        /* \"contracts/MemoryControl.sol\":6080:6310  Memory({... */\n      dup2\n      mstore\n      0x20\n      dup1\n      dup3\n      add\n      dup9\n      dup2\n      mstore\n        /* \"contracts/MemoryControl.sol\":6186:6201  block.timestamp */\n      timestamp\n        /* \"contracts/MemoryControl.sol\":6080:6310  Memory({... */\n      dup4\n      dup6\n      add\n      swap1\n      dup2\n      mstore\n      sub(shl(0xa0, 0x01), 0x01)\n      dup1\n      dup8\n      and\n      0x60\n      dup7\n      add\n      swap1\n      dup2\n      mstore\n      0x80\n      dup7\n      add\n      dup12\n      dup2\n      mstore\n      0x00\n        /* \"contracts/MemoryControl.sol\":6055:6077  memories[metadataHash] */\n      dup14\n      dup2\n      mstore\n      swap6\n      dup7\n      swap1\n      mstore\n      swap7\n      swap1\n      swap5\n      keccak256\n        /* \"contracts/MemoryControl.sol\":6055:6310  memories[metadataHash] = Memory({... */\n      dup6\n      mload\n      dup2\n      sload\n      swap1\n      dup4\n      and\n      not(sub(shl(0xa0, 0x01), 0x01))\n      swap2\n      dup3\n      and\n      or\n      dup3\n      sstore\n      swap4\n      mload\n      0x01\n      dup3\n      add\n      sstore\n      swap2\n      mload\n      0x02\n      dup4\n      add\n      sstore\n      swap3\n      mload\n      0x03\n      dup3\n      add\n      dup1\n      sload\n      swap2\n      swap1\n      swap5\n      and\n      swap3\n      and\n      swap2\n      swap1\n      swap2\n      or\n      swap1\n      swap2\n      sstore\n      swap2\n      mload\n        /* \"contracts/MemoryControl.sol\":5904:5983  address sourceDomainAddress = domainRegistry.getDomainAddress(sourceDomainName) */\n      swap3\n      swap4\n      pop\n        /* \"contracts/MemoryControl.sol\":6080:6310  Memory({... */\n      swap2\n        /* \"contracts/MemoryControl.sol\":6055:6310  memories[metadataHash] = Memory({... */\n      0x04\n      dup3\n      add\n      swap1\n      tag_264\n      swap1\n      dup3\n      tag_265\n      jump\t// in\n    tag_264:\n      pop\n      pop\n        /* \"contracts/MemoryControl.sol\":6428:6438  msg.sender */\n      caller\n        /* \"contracts/MemoryControl.sol\":6417:6439  accessList[msg.sender] */\n      0x00\n      dup2\n      dup2\n      mstore\n        /* \"contracts/MemoryControl.sol\":6463:6467  true */\n      0x01\n        /* \"contracts/MemoryControl.sol\":6417:6439  accessList[msg.sender] */\n      0x20\n      dup2\n      dup2\n      mstore\n      0x40\n      dup1\n      dup5\n      keccak256\n      sub(shl(0xa0, 0x01), 0x01)\n        /* \"contracts/MemoryControl.sol\":6417:6460  accessList[msg.sender][sourceDomainAddress] */\n      dup9\n      and\n      dup6\n      mstore\n      swap1\n      swap2\n      mstore\n      swap2\n      dup3\n      swap1\n      keccak256\n        /* \"contracts/MemoryControl.sol\":6417:6467  accessList[msg.sender][sourceDomainAddress] = true */\n      dup1\n      sload\n      not(0xff)\n      and\n      swap1\n      swap2\n      or\n      swap1\n      sstore\n        /* \"contracts/MemoryControl.sol\":6542:6597  MemoryAdded(msg.sender, metadataHash, sourceDomainName) */\n      mload\n        /* \"contracts/MemoryControl.sol\":6566:6578  metadataHash */\n      dup7\n      swap3\n      pop\n        /* \"contracts/MemoryControl.sol\":6542:6597  MemoryAdded(msg.sender, metadataHash, sourceDomainName) */\n      0x6c1a2d58efe5be4c401d24d5828cb48178c534c9aa1575f7b1d257aab8995754\n      swap1\n      tag_266\n      swap1\n        /* \"contracts/MemoryControl.sol\":6580:6596  sourceDomainName */\n      dup8\n      swap1\n        /* \"contracts/MemoryControl.sol\":6542:6597  MemoryAdded(msg.sender, metadataHash, sourceDomainName) */\n      tag_185\n      jump\t// in\n    tag_266:\n      mload(0x40)\n      dup1\n      swap2\n      sub\n      swap1\n      log3\n        /* \"contracts/MemoryControl.sol\":6639:6658  sourceDomainAddress */\n      dup1\n      sub(shl(0xa0, 0x01), 0x01)\n        /* \"contracts/MemoryControl.sol\":6613:6677  AccessGranted(msg.sender, sourceDomainAddress, sourceDomainName) */\n      and\n        /* \"contracts/MemoryControl.sol\":6627:6637  msg.sender */\n      caller\n      sub(shl(0xa0, 0x01), 0x01)\n        /* \"contracts/MemoryControl.sol\":6613:6677  AccessGranted(msg.sender, sourceDomainAddress, sourceDomainName) */\n      and\n      0xc7e5c007251689b9bc3cb624f55714afc5988f3e3b4e20cc6a606d7bad6faeca\n        /* \"contracts/MemoryControl.sol\":6660:6676  sourceDomainName */\n      dup6\n        /* \"contracts/MemoryControl.sol\":6613:6677  AccessGranted(msg.sender, sourceDomainAddress, sourceDomainName) */\n      mload(0x40)\n      tag_267\n      swap2\n      swap1\n      tag_185\n      jump\t// in\n    tag_267:\n      mload(0x40)\n      dup1\n      swap2\n      sub\n      swap1\n      log3\n        /* \"contracts/MemoryControl.sol\":5607:6685  {... */\n      pop\n        /* \"contracts/MemoryControl.sol\":5465:6685  function addMemory(... */\n      pop\n      pop\n      pop\n      jump\t// out\n        /* \"contracts/MemoryControl.sol\":8096:8466  function grantAccessToDomain(string memory domainName) external validDomainName(domainName) {... */\n    tag_83:\n        /* \"contracts/MemoryControl.sol\":8176:8186  domainName */\n      dup1\n        /* \"contracts/MemoryControl.sol\":4555:4556  0 */\n      0x00\n        /* \"contracts/MemoryControl.sol\":4534:4544  domainName */\n      dup2\n        /* \"contracts/MemoryControl.sol\":4528:4552  bytes(domainName).length */\n      mload\n        /* \"contracts/MemoryControl.sol\":4528:4556  bytes(domainName).length > 0 */\n      gt\n        /* \"contracts/MemoryControl.sol\":4520:4603  require(bytes(domainName).length > 0, \"MemoryControl: Domain name cannot be empty\") */\n      tag_269\n      jumpi\n      mload(0x40)\n      shl(0xe5, 0x461bcd)\n      dup2\n      mstore\n      0x04\n      add\n      tag_198\n      swap1\n      tag_251\n      jump\t// in\n    tag_269:\n        /* \"contracts/MemoryControl.sol\":8282:8325  domainRegistry.getDomainAddress(domainName) */\n      mload(0x40)\n      shl(0xe0, 0x94310e51)\n      dup2\n      mstore\n        /* \"contracts/MemoryControl.sol\":8258:8279  address domainAddress */\n      0x00\n      swap1\n      sub(shl(0xa0, 0x01), 0x01)\n        /* \"contracts/MemoryControl.sol\":8282:8296  domainRegistry */\n      immutable(\"0x8fef2229291b68be841adf029e58b87f39ba144b2d3b0af1760243d0a9bc6a1c\")\n        /* \"contracts/MemoryControl.sol\":8282:8313  domainRegistry.getDomainAddress */\n      and\n      swap1\n      0x94310e51\n      swap1\n        /* \"contracts/MemoryControl.sol\":8282:8325  domainRegistry.getDomainAddress(domainName) */\n      tag_272\n      swap1\n        /* \"contracts/MemoryControl.sol\":8314:8324  domainName */\n      dup7\n      swap1\n        /* \"contracts/MemoryControl.sol\":8282:8325  domainRegistry.getDomainAddress(domainName) */\n      0x04\n      add\n      tag_185\n      jump\t// in\n    tag_272:\n      0x20\n      mload(0x40)\n      dup1\n      dup4\n      sub\n      dup2\n      dup7\n      gas\n      staticcall\n      iszero\n      dup1\n      iszero\n      tag_274\n      jumpi\n      returndatacopy(0x00, 0x00, returndatasize)\n      revert(0x00, returndatasize)\n    tag_274:\n      pop\n      pop\n      pop\n      pop\n      mload(0x40)\n      returndatasize\n      not(0x1f)\n      0x1f\n      dup3\n      add\n      and\n      dup3\n      add\n      dup1\n      0x40\n      mstore\n      pop\n      dup2\n      add\n      swap1\n      tag_275\n      swap2\n      swap1\n      tag_263\n      jump\t// in\n    tag_275:\n        /* \"contracts/MemoryControl.sol\":8357:8367  msg.sender */\n      caller\n        /* \"contracts/MemoryControl.sol\":8346:8368  accessList[msg.sender] */\n      0x00\n      dup2\n      dup2\n      mstore\n        /* \"contracts/MemoryControl.sol\":8386:8390  true */\n      0x01\n        /* \"contracts/MemoryControl.sol\":8346:8368  accessList[msg.sender] */\n      0x20\n      dup2\n      dup2\n      mstore\n      0x40\n      dup1\n      dup5\n      keccak256\n      sub(shl(0xa0, 0x01), 0x01)\n        /* \"contracts/MemoryControl.sol\":8346:8383  accessList[msg.sender][domainAddress] */\n      dup8\n      and\n      dup1\n      dup7\n      mstore\n      swap3\n      mstore\n      swap3\n      dup4\n      swap1\n      keccak256\n        /* \"contracts/MemoryControl.sol\":8346:8390  accessList[msg.sender][domainAddress] = true */\n      dup1\n      sload\n      not(0xff)\n      and\n      swap1\n      swap3\n      or\n      swap1\n      swap2\n      sstore\n        /* \"contracts/MemoryControl.sol\":8406:8458  AccessGranted(msg.sender, domainAddress, domainName) */\n      swap1\n      mload\n        /* \"contracts/MemoryControl.sol\":8258:8325  address domainAddress = domainRegistry.getDomainAddress(domainName) */\n      swap3\n      swap4\n      pop\n        /* \"contracts/MemoryControl.sol\":8346:8383  accessList[msg.sender][domainAddress] */\n      swap2\n        /* \"contracts/MemoryControl.sol\":8406:8458  AccessGranted(msg.sender, domainAddress, domainName) */\n      0xc7e5c007251689b9bc3cb624f55714afc5988f3e3b4e20cc6a606d7bad6faeca\n      swap1\n      tag_276\n      swap1\n        /* \"contracts/MemoryControl.sol\":8447:8457  domainName */\n      dup8\n      swap1\n        /* \"contracts/MemoryControl.sol\":8406:8458  AccessGranted(msg.sender, domainAddress, domainName) */\n      tag_185\n      jump\t// in\n    tag_276:\n      mload(0x40)\n      dup1\n      swap2\n      sub\n      swap1\n      log3\n        /* \"contracts/MemoryControl.sol\":8188:8466  {... */\n      pop\n        /* \"contracts/MemoryControl.sol\":8096:8466  function grantAccessToDomain(string memory domainName) external validDomainName(domainName) {... */\n      pop\n      pop\n      jump\t// out\n        /* \"contracts/MemoryControl.sol\":15349:16095  function grantTimeBasedDomainAccessToMemory(string memory domainName, bytes32 memoryId, uint256 durationInSeconds) external memoryExists(memoryId) onlyMemoryOwner(memoryId) validDomainName(domainName) {... */\n    tag_87:\n        /* \"contracts/MemoryControl.sol\":4331:4332  0 */\n      0x00\n        /* \"contracts/MemoryControl.sol\":4295:4313  memories[memoryId] */\n      dup3\n      dup2\n      mstore\n      0x20\n      dup2\n      swap1\n      mstore\n      0x40\n      swap1\n      keccak256\n        /* \"contracts/MemoryControl.sol\":4295:4319  memories[memoryId].owner */\n      sload\n        /* \"contracts/MemoryControl.sol\":15486:15494  memoryId */\n      dup3\n      swap1\n      sub(shl(0xa0, 0x01), 0x01)\n        /* \"contracts/MemoryControl.sol\":4295:4319  memories[memoryId].owner */\n      and\n        /* \"contracts/MemoryControl.sol\":4287:4374  require(memories[memoryId].owner != address(0), \"MemoryControl: Memory does not exist\") */\n      tag_278\n      jumpi\n      mload(0x40)\n      shl(0xe5, 0x461bcd)\n      dup2\n      mstore\n      0x04\n      add\n      tag_198\n      swap1\n      tag_199\n      jump\t// in\n    tag_278:\n        /* \"contracts/MemoryControl.sol\":4064:4072  memories */\n      0x00\n        /* \"contracts/MemoryControl.sol\":4064:4082  memories[memoryId] */\n      dup4\n      dup2\n      mstore\n      0x20\n      dup2\n      swap1\n      mstore\n      0x40\n      swap1\n      keccak256\n        /* \"contracts/MemoryControl.sol\":4064:4088  memories[memoryId].owner */\n      sload\n        /* \"contracts/MemoryControl.sol\":15512:15520  memoryId */\n      dup4\n      swap1\n      sub(shl(0xa0, 0x01), 0x01)\n        /* \"contracts/MemoryControl.sol\":4064:4088  memories[memoryId].owner */\n      and\n        /* \"contracts/MemoryControl.sol\":4092:4102  msg.sender */\n      caller\n        /* \"contracts/MemoryControl.sol\":4064:4102  memories[memoryId].owner == msg.sender */\n      eq\n        /* \"contracts/MemoryControl.sol\":4056:4163  require(memories[memoryId].owner == msg.sender, \"MemoryControl: Only memory owner can perform this action\") */\n      tag_281\n      jumpi\n      mload(0x40)\n      shl(0xe5, 0x461bcd)\n      dup2\n      mstore\n      0x04\n      add\n      tag_198\n      swap1\n      tag_224\n      jump\t// in\n    tag_281:\n        /* \"contracts/MemoryControl.sol\":15538:15548  domainName */\n      dup5\n        /* \"contracts/MemoryControl.sol\":4555:4556  0 */\n      0x00\n        /* \"contracts/MemoryControl.sol\":4534:4544  domainName */\n      dup2\n        /* \"contracts/MemoryControl.sol\":4528:4552  bytes(domainName).length */\n      mload\n        /* \"contracts/MemoryControl.sol\":4528:4556  bytes(domainName).length > 0 */\n      gt\n        /* \"contracts/MemoryControl.sol\":4520:4603  require(bytes(domainName).length > 0, \"MemoryControl: Domain name cannot be empty\") */\n      tag_284\n      jumpi\n      mload(0x40)\n      shl(0xe5, 0x461bcd)\n      dup2\n      mstore\n      0x04\n      add\n      tag_198\n      swap1\n      tag_251\n      jump\t// in\n    tag_284:\n        /* \"contracts/MemoryControl.sol\":15589:15590  0 */\n      0x00\n        /* \"contracts/MemoryControl.sol\":15569:15586  durationInSeconds */\n      dup5\n        /* \"contracts/MemoryControl.sol\":15569:15590  durationInSeconds > 0 */\n      gt\n        /* \"contracts/MemoryControl.sol\":15561:15641  require(durationInSeconds > 0, \"MemoryControl: Duration must be greater than 0\") */\n      tag_287\n      jumpi\n      mload(0x40)\n      shl(0xe5, 0x461bcd)\n      dup2\n      mstore\n      0x04\n      add\n      tag_198\n      swap1\n      tag_289\n      jump\t// in\n    tag_287:\n        /* \"contracts/MemoryControl.sol\":15686:15729  domainRegistry.getDomainAddress(domainName) */\n      mload(0x40)\n      shl(0xe0, 0x94310e51)\n      dup2\n      mstore\n        /* \"contracts/MemoryControl.sol\":15662:15683  address domainAddress */\n      0x00\n      swap1\n      sub(shl(0xa0, 0x01), 0x01)\n        /* \"contracts/MemoryControl.sol\":15686:15700  domainRegistry */\n      immutable(\"0x8fef2229291b68be841adf029e58b87f39ba144b2d3b0af1760243d0a9bc6a1c\")\n        /* \"contracts/MemoryControl.sol\":15686:15717  domainRegistry.getDomainAddress */\n      and\n      swap1\n      0x94310e51\n      swap1\n        /* \"contracts/MemoryControl.sol\":15686:15729  domainRegistry.getDomainAddress(domainName) */\n      tag_290\n      swap1\n        /* \"contracts/MemoryControl.sol\":15718:15728  domainName */\n      dup11\n      swap1\n        /* \"contracts/MemoryControl.sol\":15686:15729  domainRegistry.getDomainAddress(domainName) */\n      0x04\n      add\n      tag_185\n      jump\t// in\n    tag_290:\n      0x20\n      mload(0x40)\n      dup1\n      dup4\n      sub\n      dup2\n      dup7\n      gas\n      staticcall\n      iszero\n      dup1\n      iszero\n      tag_292\n      jumpi\n      returndatacopy(0x00, 0x00, returndatasize)\n      revert(0x00, returndatasize)\n    tag_292:\n      pop\n      pop\n      pop\n      pop\n      mload(0x40)\n      returndatasize\n      not(0x1f)\n      0x1f\n      dup3\n      add\n      and\n      dup3\n      add\n      dup1\n      0x40\n      mstore\n      pop\n      dup2\n      add\n      swap1\n      tag_293\n      swap2\n      swap1\n      tag_263\n      jump\t// in\n    tag_293:\n        /* \"contracts/MemoryControl.sol\":15662:15729  address domainAddress = domainRegistry.getDomainAddress(domainName) */\n      swap1\n      pop\n        /* \"contracts/MemoryControl.sol\":15740:15762  uint256 expirationTime */\n      0x00\n        /* \"contracts/MemoryControl.sol\":15765:15800  block.timestamp + durationInSeconds */\n      tag_294\n        /* \"contracts/MemoryControl.sol\":15783:15800  durationInSeconds */\n      dup7\n        /* \"contracts/MemoryControl.sol\":15765:15780  block.timestamp */\n      timestamp\n        /* \"contracts/MemoryControl.sol\":15765:15800  block.timestamp + durationInSeconds */\n      tag_295\n      jump\t// in\n    tag_294:\n        /* \"contracts/MemoryControl.sol\":15844:15854  msg.sender */\n      caller\n        /* \"contracts/MemoryControl.sol\":15821:15855  memoryAccessExpiration[msg.sender] */\n      0x00\n      dup2\n      dup2\n      mstore\n        /* \"contracts/MemoryControl.sol\":15821:15843  memoryAccessExpiration */\n      0x04\n        /* \"contracts/MemoryControl.sol\":15821:15855  memoryAccessExpiration[msg.sender] */\n      0x20\n      swap1\n      dup2\n      mstore\n      0x40\n      dup1\n      dup4\n      keccak256\n      sub(shl(0xa0, 0x01), 0x01)\n        /* \"contracts/MemoryControl.sol\":15821:15870  memoryAccessExpiration[msg.sender][domainAddress] */\n      dup9\n      and\n      dup1\n      dup6\n      mstore\n      swap1\n      dup4\n      mstore\n      dup2\n      dup5\n      keccak256\n        /* \"contracts/MemoryControl.sol\":15821:15880  memoryAccessExpiration[msg.sender][domainAddress][memoryId] */\n      dup14\n      dup6\n      mstore\n      dup4\n      mstore\n      dup2\n      dup5\n      keccak256\n        /* \"contracts/MemoryControl.sol\":15821:15897  memoryAccessExpiration[msg.sender][domainAddress][memoryId] = expirationTime */\n      dup7\n      swap1\n      sstore\n        /* \"contracts/MemoryControl.sol\":15908:15936  memoryAccessList[msg.sender] */\n      dup5\n      dup5\n      mstore\n        /* \"contracts/MemoryControl.sol\":15908:15924  memoryAccessList */\n      0x03\n        /* \"contracts/MemoryControl.sol\":15908:15936  memoryAccessList[msg.sender] */\n      dup4\n      mstore\n      dup2\n      dup5\n      keccak256\n        /* \"contracts/MemoryControl.sol\":15908:15951  memoryAccessList[msg.sender][domainAddress] */\n      dup2\n      dup6\n      mstore\n      dup4\n      mstore\n      dup2\n      dup5\n      keccak256\n        /* \"contracts/MemoryControl.sol\":15908:15961  memoryAccessList[msg.sender][domainAddress][memoryId] */\n      dup14\n      dup6\n      mstore\n      swap1\n      swap3\n      mstore\n      swap2\n      dup3\n      swap1\n      keccak256\n        /* \"contracts/MemoryControl.sol\":15908:15968  memoryAccessList[msg.sender][domainAddress][memoryId] = true */\n      dup1\n      sload\n      not(0xff)\n      and\n        /* \"contracts/MemoryControl.sol\":15964:15968  true */\n      0x01\n        /* \"contracts/MemoryControl.sol\":15908:15968  memoryAccessList[msg.sender][domainAddress][memoryId] = true */\n      or\n      swap1\n      sstore\n        /* \"contracts/MemoryControl.sol\":15994:16087  TimeBasedMemoryAccessGranted(msg.sender, domainAddress, memoryId, domainName, expirationTime) */\n      swap1\n      mload\n        /* \"contracts/MemoryControl.sol\":15740:15800  uint256 expirationTime = block.timestamp + durationInSeconds */\n      swap3\n      swap4\n      pop\n        /* \"contracts/MemoryControl.sol\":15871:15879  memoryId */\n      dup10\n      swap3\n        /* \"contracts/MemoryControl.sol\":15821:15870  memoryAccessExpiration[msg.sender][domainAddress] */\n      swap1\n      swap2\n        /* \"contracts/MemoryControl.sol\":15844:15854  msg.sender */\n      swap1\n        /* \"contracts/MemoryControl.sol\":15994:16087  TimeBasedMemoryAccessGranted(msg.sender, domainAddress, memoryId, domainName, expirationTime) */\n      0x2b27e4b5b88ebc1768768eaf2b99a3afa4e1c2b7df951b05a311c572178847c1\n      swap1\n      tag_296\n      swap1\n        /* \"contracts/MemoryControl.sol\":16060:16070  domainName */\n      dup14\n      swap1\n        /* \"contracts/MemoryControl.sol\":15740:15800  uint256 expirationTime = block.timestamp + durationInSeconds */\n      dup8\n      swap1\n        /* \"contracts/MemoryControl.sol\":15994:16087  TimeBasedMemoryAccessGranted(msg.sender, domainAddress, memoryId, domainName, expirationTime) */\n      tag_297\n      jump\t// in\n    tag_296:\n      mload(0x40)\n      dup1\n      swap2\n      sub\n      swap1\n      log4\n        /* \"contracts/MemoryControl.sol\":15550:16095  {... */\n      pop\n      pop\n        /* \"contracts/MemoryControl.sol\":4174:4175  _ */\n      pop\n        /* \"contracts/MemoryControl.sol\":4385:4386  _ */\n      pop\n        /* \"contracts/MemoryControl.sol\":15349:16095  function grantTimeBasedDomainAccessToMemory(string memory domainName, bytes32 memoryId, uint256 durationInSeconds) external memoryExists(memoryId) onlyMemoryOwner(memoryId) validDomainName(domainName) {... */\n      pop\n      pop\n      pop\n      pop\n      jump\t// out\n        /* \"contracts/MemoryControl.sol\":16343:16814  function grantAccessToDomainMemories(address grantee, string memory sourceDomain) external validDomainName(sourceDomain) {... */\n    tag_91:\n        /* \"contracts/MemoryControl.sol\":16450:16462  sourceDomain */\n      dup1\n        /* \"contracts/MemoryControl.sol\":4555:4556  0 */\n      0x00\n        /* \"contracts/MemoryControl.sol\":4534:4544  domainName */\n      dup2\n        /* \"contracts/MemoryControl.sol\":4528:4552  bytes(domainName).length */\n      mload\n        /* \"contracts/MemoryControl.sol\":4528:4556  bytes(domainName).length > 0 */\n      gt\n        /* \"contracts/MemoryControl.sol\":4520:4603  require(bytes(domainName).length > 0, \"MemoryControl: Domain name cannot be empty\") */\n      tag_299\n      jumpi\n      mload(0x40)\n      shl(0xe5, 0x461bcd)\n      dup2\n      mstore\n      0x04\n      add\n      tag_198\n      swap1\n      tag_251\n      jump\t// in\n    tag_299:\n      sub(shl(0xa0, 0x01), 0x01)\n        /* \"contracts/MemoryControl.sol\":16483:16504  grantee != address(0) */\n      dup4\n      and\n        /* \"contracts/MemoryControl.sol\":16475:16562  require(grantee != address(0), \"MemoryControl: Grantee address cannot be zero address\") */\n      tag_302\n      jumpi\n      mload(0x40)\n      shl(0xe5, 0x461bcd)\n      dup2\n      mstore\n      0x04\n      add\n      tag_198\n      swap1\n      tag_245\n      jump\t// in\n    tag_302:\n        /* \"contracts/MemoryControl.sol\":16592:16602  msg.sender */\n      caller\n      sub(shl(0xa0, 0x01), 0x01)\n        /* \"contracts/MemoryControl.sol\":16581:16602  grantee != msg.sender */\n      dup5\n      and\n      sub\n        /* \"contracts/MemoryControl.sol\":16573:16653  require(grantee != msg.sender, \"MemoryControl: Cannot grant access to yourself\") */\n      tag_304\n      jumpi\n      mload(0x40)\n      shl(0xe5, 0x461bcd)\n      dup2\n      mstore\n      0x04\n      add\n      tag_198\n      swap1\n      tag_306\n      jump\t// in\n    tag_304:\n        /* \"contracts/MemoryControl.sol\":16691:16701  msg.sender */\n      caller\n        /* \"contracts/MemoryControl.sol\":16674:16702  domainAccessList[msg.sender] */\n      0x00\n      swap1\n      dup2\n      mstore\n        /* \"contracts/MemoryControl.sol\":16674:16690  domainAccessList */\n      0x05\n        /* \"contracts/MemoryControl.sol\":16674:16702  domainAccessList[msg.sender] */\n      0x20\n      swap1\n      dup2\n      mstore\n      0x40\n      dup1\n      dup4\n      keccak256\n      sub(shl(0xa0, 0x01), 0x01)\n        /* \"contracts/MemoryControl.sol\":16674:16711  domainAccessList[msg.sender][grantee] */\n      dup8\n      and\n      dup5\n      mstore\n      swap1\n      swap2\n      mstore\n      swap1\n      dup2\n      swap1\n      keccak256\n        /* \"contracts/MemoryControl.sol\":16674:16725  domainAccessList[msg.sender][grantee][sourceDomain] */\n      swap1\n      mload\n        /* \"contracts/MemoryControl.sol\":16728:16732  true */\n      0x01\n      swap2\n        /* \"contracts/MemoryControl.sol\":16674:16711  domainAccessList[msg.sender][grantee] */\n      swap1\n        /* \"contracts/MemoryControl.sol\":16674:16725  domainAccessList[msg.sender][grantee][sourceDomain] */\n      tag_307\n      swap1\n        /* \"contracts/MemoryControl.sol\":16712:16724  sourceDomain */\n      dup6\n      swap1\n        /* \"contracts/MemoryControl.sol\":16674:16725  domainAccessList[msg.sender][grantee][sourceDomain] */\n      tag_215\n      jump\t// in\n    tag_307:\n      swap1\n      dup2\n      mstore\n      mload(0x40)\n      swap1\n      dup2\n      swap1\n      sub\n      0x20\n      add\n      dup2\n      keccak256\n        /* \"contracts/MemoryControl.sol\":16674:16732  domainAccessList[msg.sender][grantee][sourceDomain] = true */\n      dup1\n      sload\n      swap3\n      iszero\n      iszero\n      not(0xff)\n      swap1\n      swap4\n      and\n      swap3\n      swap1\n      swap3\n      or\n      swap1\n      swap2\n      sstore\n      sub(shl(0xa0, 0x01), 0x01)\n        /* \"contracts/MemoryControl.sol\":16748:16806  DomainAccessGranted(msg.sender, grantee, sourceDomain, \"\") */\n      dup5\n      and\n      swap1\n        /* \"contracts/MemoryControl.sol\":16768:16778  msg.sender */\n      caller\n      swap1\n        /* \"contracts/MemoryControl.sol\":16748:16806  DomainAccessGranted(msg.sender, grantee, sourceDomain, \"\") */\n      0x21b007e682e9017de8c120ab3ab126ed8d87e284b1ee985b14b0f759e9a7f46a\n      swap1\n      tag_276\n      swap1\n        /* \"contracts/MemoryControl.sol\":16789:16801  sourceDomain */\n      dup7\n      swap1\n        /* \"contracts/MemoryControl.sol\":16748:16806  DomainAccessGranted(msg.sender, grantee, sourceDomain, \"\") */\n      tag_309\n      jump\t// in\n        /* \"contracts/MemoryControl.sol\":14280:15058  function grantTimeBasedAccessToMemory(address grantee, bytes32 memoryId, uint256 durationInSeconds) external memoryExists(memoryId) onlyMemoryOwner(memoryId) {... */\n    tag_95:\n        /* \"contracts/MemoryControl.sol\":4331:4332  0 */\n      0x00\n        /* \"contracts/MemoryControl.sol\":4295:4313  memories[memoryId] */\n      dup3\n      dup2\n      mstore\n      0x20\n      dup2\n      swap1\n      mstore\n      0x40\n      swap1\n      keccak256\n        /* \"contracts/MemoryControl.sol\":4295:4319  memories[memoryId].owner */\n      sload\n        /* \"contracts/MemoryControl.sol\":14402:14410  memoryId */\n      dup3\n      swap1\n      sub(shl(0xa0, 0x01), 0x01)\n        /* \"contracts/MemoryControl.sol\":4295:4319  memories[memoryId].owner */\n      and\n        /* \"contracts/MemoryControl.sol\":4287:4374  require(memories[memoryId].owner != address(0), \"MemoryControl: Memory does not exist\") */\n      tag_311\n      jumpi\n      mload(0x40)\n      shl(0xe5, 0x461bcd)\n      dup2\n      mstore\n      0x04\n      add\n      tag_198\n      swap1\n      tag_199\n      jump\t// in\n    tag_311:\n        /* \"contracts/MemoryControl.sol\":4064:4072  memories */\n      0x00\n        /* \"contracts/MemoryControl.sol\":4064:4082  memories[memoryId] */\n      dup4\n      dup2\n      mstore\n      0x20\n      dup2\n      swap1\n      mstore\n      0x40\n      swap1\n      keccak256\n        /* \"contracts/MemoryControl.sol\":4064:4088  memories[memoryId].owner */\n      sload\n        /* \"contracts/MemoryControl.sol\":14428:14436  memoryId */\n      dup4\n      swap1\n      sub(shl(0xa0, 0x01), 0x01)\n        /* \"contracts/MemoryControl.sol\":4064:4088  memories[memoryId].owner */\n      and\n        /* \"contracts/MemoryControl.sol\":4092:4102  msg.sender */\n      caller\n        /* \"contracts/MemoryControl.sol\":4064:4102  memories[memoryId].owner == msg.sender */\n      eq\n        /* \"contracts/MemoryControl.sol\":4056:4163  require(memories[memoryId].owner == msg.sender, \"MemoryControl: Only memory owner can perform this action\") */\n      tag_314\n      jumpi\n      mload(0x40)\n      shl(0xe5, 0x461bcd)\n      dup2\n      mstore\n      0x04\n      add\n      tag_198\n      swap1\n      tag_224\n      jump\t// in\n    tag_314:\n      sub(shl(0xa0, 0x01), 0x01)\n        /* \"contracts/MemoryControl.sol\":14457:14478  grantee != address(0) */\n      dup6\n      and\n        /* \"contracts/MemoryControl.sol\":14449:14536  require(grantee != address(0), \"MemoryControl: Grantee address cannot be zero address\") */\n      tag_317\n      jumpi\n      mload(0x40)\n      shl(0xe5, 0x461bcd)\n      dup2\n      mstore\n      0x04\n      add\n      tag_198\n      swap1\n      tag_245\n      jump\t// in\n    tag_317:\n        /* \"contracts/MemoryControl.sol\":14566:14576  msg.sender */\n      caller\n      sub(shl(0xa0, 0x01), 0x01)\n        /* \"contracts/MemoryControl.sol\":14555:14576  grantee != msg.sender */\n      dup7\n      and\n      sub\n        /* \"contracts/MemoryControl.sol\":14547:14627  require(grantee != msg.sender, \"MemoryControl: Cannot grant access to yourself\") */\n      tag_319\n      jumpi\n      mload(0x40)\n      shl(0xe5, 0x461bcd)\n      dup2\n      mstore\n      0x04\n      add\n      tag_198\n      swap1\n      tag_306\n      jump\t// in\n    tag_319:\n        /* \"contracts/MemoryControl.sol\":14666:14667  0 */\n      0x00\n        /* \"contracts/MemoryControl.sol\":14646:14663  durationInSeconds */\n      dup4\n        /* \"contracts/MemoryControl.sol\":14646:14667  durationInSeconds > 0 */\n      gt\n        /* \"contracts/MemoryControl.sol\":14638:14718  require(durationInSeconds > 0, \"MemoryControl: Duration must be greater than 0\") */\n      tag_321\n      jumpi\n      mload(0x40)\n      shl(0xe5, 0x461bcd)\n      dup2\n      mstore\n      0x04\n      add\n      tag_198\n      swap1\n      tag_289\n      jump\t// in\n    tag_321:\n        /* \"contracts/MemoryControl.sol\":14739:14761  uint256 expirationTime */\n      0x00\n        /* \"contracts/MemoryControl.sol\":14764:14799  block.timestamp + durationInSeconds */\n      tag_323\n        /* \"contracts/MemoryControl.sol\":14782:14799  durationInSeconds */\n      dup5\n        /* \"contracts/MemoryControl.sol\":14764:14779  block.timestamp */\n      timestamp\n        /* \"contracts/MemoryControl.sol\":14764:14799  block.timestamp + durationInSeconds */\n      tag_295\n      jump\t// in\n    tag_323:\n        /* \"contracts/MemoryControl.sol\":14833:14843  msg.sender */\n      caller\n        /* \"contracts/MemoryControl.sol\":14810:14844  memoryAccessExpiration[msg.sender] */\n      0x00\n      dup2\n      dup2\n      mstore\n        /* \"contracts/MemoryControl.sol\":14810:14832  memoryAccessExpiration */\n      0x04\n        /* \"contracts/MemoryControl.sol\":14810:14844  memoryAccessExpiration[msg.sender] */\n      0x20\n      swap1\n      dup2\n      mstore\n      0x40\n      dup1\n      dup4\n      keccak256\n      sub(shl(0xa0, 0x01), 0x01)\n        /* \"contracts/MemoryControl.sol\":14810:14853  memoryAccessExpiration[msg.sender][grantee] */\n      dup13\n      and\n      dup1\n      dup6\n      mstore\n      swap1\n      dup4\n      mstore\n      dup2\n      dup5\n      keccak256\n        /* \"contracts/MemoryControl.sol\":14810:14863  memoryAccessExpiration[msg.sender][grantee][memoryId] */\n      dup12\n      dup6\n      mstore\n      dup4\n      mstore\n      dup2\n      dup5\n      keccak256\n        /* \"contracts/MemoryControl.sol\":14810:14880  memoryAccessExpiration[msg.sender][grantee][memoryId] = expirationTime */\n      dup7\n      swap1\n      sstore\n        /* \"contracts/MemoryControl.sol\":14891:14919  memoryAccessList[msg.sender] */\n      dup5\n      dup5\n      mstore\n        /* \"contracts/MemoryControl.sol\":14891:14907  memoryAccessList */\n      0x03\n        /* \"contracts/MemoryControl.sol\":14891:14919  memoryAccessList[msg.sender] */\n      dup4\n      mstore\n      dup2\n      dup5\n      keccak256\n        /* \"contracts/MemoryControl.sol\":14891:14928  memoryAccessList[msg.sender][grantee] */\n      dup2\n      dup6\n      mstore\n      dup4\n      mstore\n      dup2\n      dup5\n      keccak256\n        /* \"contracts/MemoryControl.sol\":14891:14938  memoryAccessList[msg.sender][grantee][memoryId] */\n      dup12\n      dup6\n      mstore\n      dup4\n      mstore\n      dup2\n      dup5\n      keccak256\n        /* \"contracts/MemoryControl.sol\":14891:14945  memoryAccessList[msg.sender][grantee][memoryId] = true */\n      dup1\n      sload\n      not(0xff)\n      and\n        /* \"contracts/MemoryControl.sol\":14941:14945  true */\n      0x01\n        /* \"contracts/MemoryControl.sol\":14891:14945  memoryAccessList[msg.sender][grantee][memoryId] = true */\n      or\n      swap1\n      sstore\n        /* \"contracts/MemoryControl.sol\":14971:15050  TimeBasedMemoryAccessGranted(msg.sender, grantee, memoryId, \"\", expirationTime) */\n      dup2\n      mload\n        /* \"#utility.yul\":19257:19278   */\n      dup3\n      dup2\n      mstore\n        /* \"#utility.yul\":19294:19312   */\n      swap2\n      dup3\n      add\n        /* \"#utility.yul\":19287:19316   */\n      swap4\n      swap1\n      swap4\n      mstore\n        /* \"#utility.yul\":19367:19387   */\n      swap1\n      dup2\n      add\n        /* \"#utility.yul\":19360:19396   */\n      dup5\n      swap1\n      mstore\n        /* \"contracts/MemoryControl.sol\":14810:14880  memoryAccessExpiration[msg.sender][grantee][memoryId] = expirationTime */\n      swap3\n      swap4\n      pop\n        /* \"contracts/MemoryControl.sol\":14810:14863  memoryAccessExpiration[msg.sender][grantee][memoryId] */\n      dup8\n      swap3\n        /* \"contracts/MemoryControl.sol\":14810:14853  memoryAccessExpiration[msg.sender][grantee] */\n      swap1\n      swap2\n        /* \"contracts/MemoryControl.sol\":14833:14843  msg.sender */\n      swap1\n        /* \"contracts/MemoryControl.sol\":14971:15050  TimeBasedMemoryAccessGranted(msg.sender, grantee, memoryId, \"\", expirationTime) */\n      0x2b27e4b5b88ebc1768768eaf2b99a3afa4e1c2b7df951b05a311c572178847c1\n      swap1\n        /* \"#utility.yul\":19348:19350   */\n      0x60\n        /* \"#utility.yul\":19333:19351   */\n      add\n        /* \"contracts/MemoryControl.sol\":14971:15050  TimeBasedMemoryAccessGranted(msg.sender, grantee, memoryId, \"\", expirationTime) */\n    tag_324:\n      mload(0x40)\n      dup1\n      swap2\n      sub\n      swap1\n      log4\n        /* \"contracts/MemoryControl.sol\":14438:15058  {... */\n      pop\n        /* \"contracts/MemoryControl.sol\":4385:4386  _ */\n      pop\n        /* \"contracts/MemoryControl.sol\":14280:15058  function grantTimeBasedAccessToMemory(address grantee, bytes32 memoryId, uint256 durationInSeconds) external memoryExists(memoryId) onlyMemoryOwner(memoryId) {... */\n      pop\n      pop\n      pop\n      pop\n      jump\t// out\n        /* \"contracts/MemoryControl.sol\":26628:26962  function hasMemoryAccessExpired(address grantee, bytes32 memoryId) external view returns (bool) {... */\n    tag_99:\n        /* \"contracts/MemoryControl.sol\":26762:26772  msg.sender */\n      caller\n        /* \"contracts/MemoryControl.sol\":26718:26722  bool */\n      0x00\n        /* \"contracts/MemoryControl.sol\":26739:26773  memoryAccessExpiration[msg.sender] */\n      swap1\n      dup2\n      mstore\n        /* \"contracts/MemoryControl.sol\":26739:26761  memoryAccessExpiration */\n      0x04\n        /* \"contracts/MemoryControl.sol\":26739:26773  memoryAccessExpiration[msg.sender] */\n      0x20\n      swap1\n      dup2\n      mstore\n      0x40\n      dup1\n      dup4\n      keccak256\n      sub(shl(0xa0, 0x01), 0x01)\n        /* \"contracts/MemoryControl.sol\":26739:26782  memoryAccessExpiration[msg.sender][grantee] */\n      dup7\n      and\n      dup5\n      mstore\n      dup3\n      mstore\n      dup1\n      dup4\n      keccak256\n        /* \"contracts/MemoryControl.sol\":26739:26792  memoryAccessExpiration[msg.sender][grantee][memoryId] */\n      dup5\n      dup5\n      mstore\n      swap1\n      swap2\n      mstore\n      dup2\n      keccak256\n      sload\n        /* \"contracts/MemoryControl.sol\":26739:26797  memoryAccessExpiration[msg.sender][grantee][memoryId] == 0 */\n      dup2\n      sub\n        /* \"contracts/MemoryControl.sol\":26735:26866  if (memoryAccessExpiration[msg.sender][grantee][memoryId] == 0) {... */\n      tag_327\n      jumpi\n      pop\n        /* \"contracts/MemoryControl.sol\":26821:26826  false */\n      0x00\n        /* \"contracts/MemoryControl.sol\":26814:26826  return false */\n      jump(tag_326)\n        /* \"contracts/MemoryControl.sol\":26735:26866  if (memoryAccessExpiration[msg.sender][grantee][memoryId] == 0) {... */\n    tag_327:\n      pop\n        /* \"contracts/MemoryControl.sol\":26924:26934  msg.sender */\n      caller\n        /* \"contracts/MemoryControl.sol\":26901:26935  memoryAccessExpiration[msg.sender] */\n      0x00\n      swap1\n      dup2\n      mstore\n        /* \"contracts/MemoryControl.sol\":26901:26923  memoryAccessExpiration */\n      0x04\n        /* \"contracts/MemoryControl.sol\":26901:26935  memoryAccessExpiration[msg.sender] */\n      0x20\n      swap1\n      dup2\n      mstore\n      0x40\n      dup1\n      dup4\n      keccak256\n      sub(shl(0xa0, 0x01), 0x01)\n        /* \"contracts/MemoryControl.sol\":26901:26944  memoryAccessExpiration[msg.sender][grantee] */\n      dup7\n      and\n      dup5\n      mstore\n      dup3\n      mstore\n      dup1\n      dup4\n      keccak256\n        /* \"contracts/MemoryControl.sol\":26901:26954  memoryAccessExpiration[msg.sender][grantee][memoryId] */\n      dup5\n      dup5\n      mstore\n      swap1\n      swap2\n      mstore\n      swap1\n      keccak256\n      sload\n        /* \"contracts/MemoryControl.sol\":26883:26898  block.timestamp */\n      timestamp\n        /* \"contracts/MemoryControl.sol\":26883:26954  block.timestamp > memoryAccessExpiration[msg.sender][grantee][memoryId] */\n      gt\n        /* \"contracts/MemoryControl.sol\":26628:26962  function hasMemoryAccessExpired(address grantee, bytes32 memoryId) external view returns (bool) {... */\n    tag_326:\n      swap3\n      swap2\n      pop\n      pop\n      jump\t// out\n        /* \"contracts/MemoryControl.sol\":11209:11870  function grantTimeBasedAccessToUser(address grantee, uint256 durationInSeconds) external {... */\n    tag_108:\n      sub(shl(0xa0, 0x01), 0x01)\n        /* \"contracts/MemoryControl.sol\":11317:11338  grantee != address(0) */\n      dup3\n      and\n        /* \"contracts/MemoryControl.sol\":11309:11396  require(grantee != address(0), \"MemoryControl: Grantee address cannot be zero address\") */\n      tag_330\n      jumpi\n      mload(0x40)\n      shl(0xe5, 0x461bcd)\n      dup2\n      mstore\n      0x04\n      add\n      tag_198\n      swap1\n      tag_245\n      jump\t// in\n    tag_330:\n        /* \"contracts/MemoryControl.sol\":11426:11436  msg.sender */\n      caller\n      sub(shl(0xa0, 0x01), 0x01)\n        /* \"contracts/MemoryControl.sol\":11415:11436  grantee != msg.sender */\n      dup4\n      and\n      sub\n        /* \"contracts/MemoryControl.sol\":11407:11487  require(grantee != msg.sender, \"MemoryControl: Cannot grant access to yourself\") */\n      tag_332\n      jumpi\n      mload(0x40)\n      shl(0xe5, 0x461bcd)\n      dup2\n      mstore\n      0x04\n      add\n      tag_198\n      swap1\n      tag_306\n      jump\t// in\n    tag_332:\n        /* \"contracts/MemoryControl.sol\":11526:11527  0 */\n      0x00\n        /* \"contracts/MemoryControl.sol\":11506:11523  durationInSeconds */\n      dup2\n        /* \"contracts/MemoryControl.sol\":11506:11527  durationInSeconds > 0 */\n      gt\n        /* \"contracts/MemoryControl.sol\":11498:11578  require(durationInSeconds > 0, \"MemoryControl: Duration must be greater than 0\") */\n      tag_334\n      jumpi\n      mload(0x40)\n      shl(0xe5, 0x461bcd)\n      dup2\n      mstore\n      0x04\n      add\n      tag_198\n      swap1\n      tag_289\n      jump\t// in\n    tag_334:\n        /* \"contracts/MemoryControl.sol\":11599:11621  uint256 expirationTime */\n      0x00\n        /* \"contracts/MemoryControl.sol\":11624:11659  block.timestamp + durationInSeconds */\n      tag_336\n        /* \"contracts/MemoryControl.sol\":11642:11659  durationInSeconds */\n      dup3\n        /* \"contracts/MemoryControl.sol\":11624:11639  block.timestamp */\n      timestamp\n        /* \"contracts/MemoryControl.sol\":11624:11659  block.timestamp + durationInSeconds */\n      tag_295\n      jump\t// in\n    tag_336:\n        /* \"contracts/MemoryControl.sol\":11687:11697  msg.sender */\n      caller\n        /* \"contracts/MemoryControl.sol\":11670:11698  accessExpiration[msg.sender] */\n      0x00\n      dup2\n      dup2\n      mstore\n        /* \"contracts/MemoryControl.sol\":11670:11686  accessExpiration */\n      0x02\n        /* \"contracts/MemoryControl.sol\":11670:11698  accessExpiration[msg.sender] */\n      0x20\n      swap1\n      dup2\n      mstore\n      0x40\n      dup1\n      dup4\n      keccak256\n      sub(shl(0xa0, 0x01), 0x01)\n        /* \"contracts/MemoryControl.sol\":11670:11707  accessExpiration[msg.sender][grantee] */\n      dup10\n      and\n      dup1\n      dup6\n      mstore\n      swap1\n      dup4\n      mstore\n      dup2\n      dup5\n      keccak256\n        /* \"contracts/MemoryControl.sol\":11670:11724  accessExpiration[msg.sender][grantee] = expirationTime */\n      dup7\n      swap1\n      sstore\n        /* \"contracts/MemoryControl.sol\":11735:11757  accessList[msg.sender] */\n      dup5\n      dup5\n      mstore\n        /* \"contracts/MemoryControl.sol\":11769:11773  true */\n      0x01\n        /* \"contracts/MemoryControl.sol\":11735:11757  accessList[msg.sender] */\n      dup1\n      dup5\n      mstore\n      dup3\n      dup6\n      keccak256\n        /* \"contracts/MemoryControl.sol\":11735:11766  accessList[msg.sender][grantee] */\n      dup3\n      dup7\n      mstore\n      dup5\n      mstore\n      dup3\n      dup6\n      keccak256\n        /* \"contracts/MemoryControl.sol\":11735:11773  accessList[msg.sender][grantee] = true */\n      dup1\n      sload\n      not(0xff)\n      and\n      swap1\n      swap2\n      or\n      swap1\n      sstore\n        /* \"contracts/MemoryControl.sol\":11799:11862  TimeBasedAccessGranted(msg.sender, grantee, \"\", expirationTime) */\n      dup2\n      mload\n        /* \"#utility.yul\":19257:19278   */\n      dup3\n      dup2\n      mstore\n        /* \"#utility.yul\":19294:19312   */\n      swap2\n      dup3\n      add\n        /* \"#utility.yul\":19287:19316   */\n      swap4\n      swap1\n      swap4\n      mstore\n        /* \"#utility.yul\":19367:19387   */\n      swap1\n      dup2\n      add\n        /* \"#utility.yul\":19360:19396   */\n      dup5\n      swap1\n      mstore\n        /* \"contracts/MemoryControl.sol\":11670:11724  accessExpiration[msg.sender][grantee] = expirationTime */\n      swap3\n      swap4\n      pop\n        /* \"contracts/MemoryControl.sol\":11670:11707  accessExpiration[msg.sender][grantee] */\n      swap2\n        /* \"contracts/MemoryControl.sol\":11799:11862  TimeBasedAccessGranted(msg.sender, grantee, \"\", expirationTime) */\n      0x90056cefbf0e5574cde1ef22f96c2bb2d33aa175ab27e44c77bda129cf657390\n      swap1\n        /* \"#utility.yul\":19348:19350   */\n      0x60\n        /* \"#utility.yul\":19333:19351   */\n      add\n        /* \"contracts/MemoryControl.sol\":11799:11862  TimeBasedAccessGranted(msg.sender, grantee, \"\", expirationTime) */\n      tag_276\n        /* \"#utility.yul\":19045:19402   */\n      jump\n        /* \"contracts/MemoryControl.sol\":20370:20761  function revokeTimeBasedAccessFromDomain(string memory domainName) external validDomainName(domainName) {... */\n    tag_111:\n        /* \"contracts/MemoryControl.sol\":20462:20472  domainName */\n      dup1\n        /* \"contracts/MemoryControl.sol\":4555:4556  0 */\n      0x00\n        /* \"contracts/MemoryControl.sol\":4534:4544  domainName */\n      dup2\n        /* \"contracts/MemoryControl.sol\":4528:4552  bytes(domainName).length */\n      mload\n        /* \"contracts/MemoryControl.sol\":4528:4556  bytes(domainName).length > 0 */\n      gt\n        /* \"contracts/MemoryControl.sol\":4520:4603  require(bytes(domainName).length > 0, \"MemoryControl: Domain name cannot be empty\") */\n      tag_339\n      jumpi\n      mload(0x40)\n      shl(0xe5, 0x461bcd)\n      dup2\n      mstore\n      0x04\n      add\n      tag_198\n      swap1\n      tag_251\n      jump\t// in\n    tag_339:\n        /* \"contracts/MemoryControl.sol\":20509:20552  domainRegistry.getDomainAddress(domainName) */\n      mload(0x40)\n      shl(0xe0, 0x94310e51)\n      dup2\n      mstore\n        /* \"contracts/MemoryControl.sol\":20485:20506  address domainAddress */\n      0x00\n      swap1\n      sub(shl(0xa0, 0x01), 0x01)\n        /* \"contracts/MemoryControl.sol\":20509:20523  domainRegistry */\n      immutable(\"0x8fef2229291b68be841adf029e58b87f39ba144b2d3b0af1760243d0a9bc6a1c\")\n        /* \"contracts/MemoryControl.sol\":20509:20540  domainRegistry.getDomainAddress */\n      and\n      swap1\n      0x94310e51\n      swap1\n        /* \"contracts/MemoryControl.sol\":20509:20552  domainRegistry.getDomainAddress(domainName) */\n      tag_342\n      swap1\n        /* \"contracts/MemoryControl.sol\":20541:20551  domainName */\n      dup7\n      swap1\n        /* \"contracts/MemoryControl.sol\":20509:20552  domainRegistry.getDomainAddress(domainName) */\n      0x04\n      add\n      tag_185\n      jump\t// in\n    tag_342:\n      0x20\n      mload(0x40)\n      dup1\n      dup4\n      sub\n      dup2\n      dup7\n      gas\n      staticcall\n      iszero\n      dup1\n      iszero\n      tag_344\n      jumpi\n      returndatacopy(0x00, 0x00, returndatasize)\n      revert(0x00, returndatasize)\n    tag_344:\n      pop\n      pop\n      pop\n      pop\n      mload(0x40)\n      returndatasize\n      not(0x1f)\n      0x1f\n      dup3\n      add\n      and\n      dup3\n      add\n      dup1\n      0x40\n      mstore\n      pop\n      dup2\n      add\n      swap1\n      tag_345\n      swap2\n      swap1\n      tag_263\n      jump\t// in\n    tag_345:\n        /* \"contracts/MemoryControl.sol\":20590:20600  msg.sender */\n      caller\n        /* \"contracts/MemoryControl.sol\":20619:20620  0 */\n      0x00\n        /* \"contracts/MemoryControl.sol\":20573:20601  accessExpiration[msg.sender] */\n      dup2\n      dup2\n      mstore\n        /* \"contracts/MemoryControl.sol\":20573:20589  accessExpiration */\n      0x02\n        /* \"contracts/MemoryControl.sol\":20573:20601  accessExpiration[msg.sender] */\n      0x20\n      swap1\n      dup2\n      mstore\n      0x40\n      dup1\n      dup4\n      keccak256\n      sub(shl(0xa0, 0x01), 0x01)\n        /* \"contracts/MemoryControl.sol\":20573:20616  accessExpiration[msg.sender][domainAddress] */\n      dup7\n      and\n      dup1\n      dup6\n      mstore\n      swap1\n      dup4\n      mstore\n      dup2\n      dup5\n      keccak256\n        /* \"contracts/MemoryControl.sol\":20573:20620  accessExpiration[msg.sender][domainAddress] = 0 */\n      dup5\n      swap1\n      sstore\n        /* \"contracts/MemoryControl.sol\":20631:20653  accessList[msg.sender] */\n      dup5\n      dup5\n      mstore\n        /* \"contracts/MemoryControl.sol\":20631:20641  accessList */\n      0x01\n        /* \"contracts/MemoryControl.sol\":20631:20653  accessList[msg.sender] */\n      dup4\n      mstore\n      dup2\n      dup5\n      keccak256\n        /* \"contracts/MemoryControl.sol\":20631:20668  accessList[msg.sender][domainAddress] */\n      dup2\n      dup6\n      mstore\n      swap1\n      swap3\n      mstore\n      swap2\n      dup3\n      swap1\n      keccak256\n        /* \"contracts/MemoryControl.sol\":20631:20676  accessList[msg.sender][domainAddress] = false */\n      dup1\n      sload\n      not(0xff)\n      and\n      swap1\n      sstore\n        /* \"contracts/MemoryControl.sol\":20692:20753  TimeBasedAccessRevoked(msg.sender, domainAddress, domainName) */\n      swap1\n      mload\n        /* \"contracts/MemoryControl.sol\":20485:20552  address domainAddress = domainRegistry.getDomainAddress(domainName) */\n      swap3\n      swap4\n      pop\n        /* \"contracts/MemoryControl.sol\":20573:20616  accessExpiration[msg.sender][domainAddress] */\n      swap2\n        /* \"contracts/MemoryControl.sol\":20692:20753  TimeBasedAccessRevoked(msg.sender, domainAddress, domainName) */\n      0xbcba83a04e29c80214e54acb8b601353d47121572200f79340246e818bda9d09\n      swap1\n      tag_276\n      swap1\n        /* \"contracts/MemoryControl.sol\":20742:20752  domainName */\n      dup8\n      swap1\n        /* \"contracts/MemoryControl.sol\":20692:20753  TimeBasedAccessRevoked(msg.sender, domainAddress, domainName) */\n      tag_185\n      jump\t// in\n        /* \"contracts/MemoryControl.sol\":1205:1247  mapping(bytes32 => Memory) public memories */\n    tag_114:\n      0x00\n      0x20\n      dup2\n      swap1\n      mstore\n      swap1\n      dup2\n      mstore\n      0x40\n      swap1\n      keccak256\n      dup1\n      sload\n      0x01\n      dup3\n      add\n      sload\n      0x02\n      dup4\n      add\n      sload\n      0x03\n      dup5\n      add\n      sload\n      0x04\n      dup6\n      add\n      dup1\n      sload\n      sub(shl(0xa0, 0x01), 0x01)\n      swap6\n      dup7\n      and\n      swap7\n      swap5\n      swap6\n      swap4\n      swap5\n      swap3\n      swap1\n      swap4\n      and\n      swap3\n      tag_347\n      swap1\n      tag_202\n      jump\t// in\n    tag_347:\n      dup1\n      0x1f\n      add\n      0x20\n      dup1\n      swap2\n      div\n      mul\n      0x20\n      add\n      mload(0x40)\n      swap1\n      dup2\n      add\n      0x40\n      mstore\n      dup1\n      swap3\n      swap2\n      swap1\n      dup2\n      dup2\n      mstore\n      0x20\n      add\n      dup3\n      dup1\n      sload\n      tag_348\n      swap1\n      tag_202\n      jump\t// in\n    tag_348:\n      dup1\n      iszero\n      tag_349\n      jumpi\n      dup1\n      0x1f\n      lt\n      tag_350\n      jumpi\n      0x0100\n      dup1\n      dup4\n      sload\n      div\n      mul\n      dup4\n      mstore\n      swap2\n      0x20\n      add\n      swap2\n      jump(tag_349)\n    tag_350:\n      dup3\n      add\n      swap2\n      swap1\n      0x00\n      mstore\n      keccak256(0x00, 0x20)\n      swap1\n    tag_351:\n      dup2\n      sload\n      dup2\n      mstore\n      swap1\n      0x01\n      add\n      swap1\n      0x20\n      add\n      dup1\n      dup4\n      gt\n      tag_351\n      jumpi\n      dup3\n      swap1\n      sub\n      0x1f\n      and\n      dup3\n      add\n      swap2\n    tag_349:\n      pop\n      pop\n      pop\n      pop\n      pop\n      swap1\n      pop\n      dup6\n      jump\t// out\n        /* \"contracts/MemoryControl.sol\":12915:13379  function grantAccessToMemory(address grantee, bytes32 memoryId) external memoryExists(memoryId) onlyMemoryOwner(memoryId) {... */\n    tag_119:\n        /* \"contracts/MemoryControl.sol\":4331:4332  0 */\n      0x00\n        /* \"contracts/MemoryControl.sol\":4295:4313  memories[memoryId] */\n      dup2\n      dup2\n      mstore\n      0x20\n      dup2\n      swap1\n      mstore\n      0x40\n      swap1\n      keccak256\n        /* \"contracts/MemoryControl.sol\":4295:4319  memories[memoryId].owner */\n      sload\n        /* \"contracts/MemoryControl.sol\":13001:13009  memoryId */\n      dup2\n      swap1\n      sub(shl(0xa0, 0x01), 0x01)\n        /* \"contracts/MemoryControl.sol\":4295:4319  memories[memoryId].owner */\n      and\n        /* \"contracts/MemoryControl.sol\":4287:4374  require(memories[memoryId].owner != address(0), \"MemoryControl: Memory does not exist\") */\n      tag_353\n      jumpi\n      mload(0x40)\n      shl(0xe5, 0x461bcd)\n      dup2\n      mstore\n      0x04\n      add\n      tag_198\n      swap1\n      tag_199\n      jump\t// in\n    tag_353:\n        /* \"contracts/MemoryControl.sol\":4064:4072  memories */\n      0x00\n        /* \"contracts/MemoryControl.sol\":4064:4082  memories[memoryId] */\n      dup3\n      dup2\n      mstore\n      0x20\n      dup2\n      swap1\n      mstore\n      0x40\n      swap1\n      keccak256\n        /* \"contracts/MemoryControl.sol\":4064:4088  memories[memoryId].owner */\n      sload\n        /* \"contracts/MemoryControl.sol\":13027:13035  memoryId */\n      dup3\n      swap1\n      sub(shl(0xa0, 0x01), 0x01)\n        /* \"contracts/MemoryControl.sol\":4064:4088  memories[memoryId].owner */\n      and\n        /* \"contracts/MemoryControl.sol\":4092:4102  msg.sender */\n      caller\n        /* \"contracts/MemoryControl.sol\":4064:4102  memories[memoryId].owner == msg.sender */\n      eq\n        /* \"contracts/MemoryControl.sol\":4056:4163  require(memories[memoryId].owner == msg.sender, \"MemoryControl: Only memory owner can perform this action\") */\n      tag_356\n      jumpi\n      mload(0x40)\n      shl(0xe5, 0x461bcd)\n      dup2\n      mstore\n      0x04\n      add\n      tag_198\n      swap1\n      tag_224\n      jump\t// in\n    tag_356:\n      sub(shl(0xa0, 0x01), 0x01)\n        /* \"contracts/MemoryControl.sol\":13056:13077  grantee != address(0) */\n      dup5\n      and\n        /* \"contracts/MemoryControl.sol\":13048:13135  require(grantee != address(0), \"MemoryControl: Grantee address cannot be zero address\") */\n      tag_359\n      jumpi\n      mload(0x40)\n      shl(0xe5, 0x461bcd)\n      dup2\n      mstore\n      0x04\n      add\n      tag_198\n      swap1\n      tag_245\n      jump\t// in\n    tag_359:\n        /* \"contracts/MemoryControl.sol\":13165:13175  msg.sender */\n      caller\n      sub(shl(0xa0, 0x01), 0x01)\n        /* \"contracts/MemoryControl.sol\":13154:13175  grantee != msg.sender */\n      dup6\n      and\n      sub\n        /* \"contracts/MemoryControl.sol\":13146:13226  require(grantee != msg.sender, \"MemoryControl: Cannot grant access to yourself\") */\n      tag_361\n      jumpi\n      mload(0x40)\n      shl(0xe5, 0x461bcd)\n      dup2\n      mstore\n      0x04\n      add\n      tag_198\n      swap1\n      tag_306\n      jump\t// in\n    tag_361:\n        /* \"contracts/MemoryControl.sol\":13264:13274  msg.sender */\n      caller\n        /* \"contracts/MemoryControl.sol\":13247:13275  memoryAccessList[msg.sender] */\n      0x00\n      dup2\n      dup2\n      mstore\n        /* \"contracts/MemoryControl.sol\":13247:13263  memoryAccessList */\n      0x03\n        /* \"contracts/MemoryControl.sol\":13247:13275  memoryAccessList[msg.sender] */\n      0x20\n      swap1\n      dup2\n      mstore\n      0x40\n      dup1\n      dup4\n      keccak256\n      sub(shl(0xa0, 0x01), 0x01)\n        /* \"contracts/MemoryControl.sol\":13247:13284  memoryAccessList[msg.sender][grantee] */\n      dup10\n      and\n      dup1\n      dup6\n      mstore\n      swap1\n      dup4\n      mstore\n      dup2\n      dup5\n      keccak256\n        /* \"contracts/MemoryControl.sol\":13247:13294  memoryAccessList[msg.sender][grantee][memoryId] */\n      dup9\n      dup6\n      mstore\n      dup4\n      mstore\n      dup2\n      dup5\n      keccak256\n        /* \"contracts/MemoryControl.sol\":13247:13301  memoryAccessList[msg.sender][grantee][memoryId] = true */\n      dup1\n      sload\n      not(0xff)\n      and\n        /* \"contracts/MemoryControl.sol\":13297:13301  true */\n      0x01\n        /* \"contracts/MemoryControl.sol\":13247:13301  memoryAccessList[msg.sender][grantee][memoryId] = true */\n      or\n      swap1\n      sstore\n        /* \"contracts/MemoryControl.sol\":13317:13371  MemoryAccessGranted(msg.sender, grantee, memoryId, \"\") */\n      dup2\n      mload\n        /* \"#utility.yul\":13515:13536   */\n      dup4\n      dup2\n      mstore\n        /* \"#utility.yul\":13552:13570   */\n      swap3\n      dup4\n      add\n        /* \"#utility.yul\":13545:13574   */\n      swap4\n      swap1\n      swap4\n      mstore\n        /* \"contracts/MemoryControl.sol\":13247:13294  memoryAccessList[msg.sender][grantee][memoryId] */\n      dup7\n      swap4\n        /* \"contracts/MemoryControl.sol\":13264:13274  msg.sender */\n      swap2\n        /* \"contracts/MemoryControl.sol\":13317:13371  MemoryAccessGranted(msg.sender, grantee, memoryId, \"\") */\n      0xbdbadf567b0cf71c55301c89b47c08e1d0aa234f1a0148a085f5ad923e86ad6e\n      swap2\n        /* \"#utility.yul\":13591:13609   */\n      add\n        /* \"contracts/MemoryControl.sol\":13317:13371  MemoryAccessGranted(msg.sender, grantee, memoryId, \"\") */\n    tag_363:\n      mload(0x40)\n      dup1\n      swap2\n      sub\n      swap1\n      log4\n        /* \"contracts/MemoryControl.sol\":4385:4386  _ */\n      pop\n        /* \"contracts/MemoryControl.sol\":12915:13379  function grantAccessToMemory(address grantee, bytes32 memoryId) external memoryExists(memoryId) onlyMemoryOwner(memoryId) {... */\n      pop\n      pop\n      pop\n      jump\t// out\n        /* \"contracts/MemoryControl.sol\":20970:21366  function revokeAccessFromMemory(address grantee, bytes32 memoryId) external {... */\n    tag_122:\n      sub(shl(0xa0, 0x01), 0x01)\n        /* \"contracts/MemoryControl.sol\":21065:21086  grantee != address(0) */\n      dup3\n      and\n        /* \"contracts/MemoryControl.sol\":21057:21144  require(grantee != address(0), \"MemoryControl: Grantee address cannot be zero address\") */\n      tag_365\n      jumpi\n      mload(0x40)\n      shl(0xe5, 0x461bcd)\n      dup2\n      mstore\n      0x04\n      add\n      tag_198\n      swap1\n      tag_245\n      jump\t// in\n    tag_365:\n        /* \"contracts/MemoryControl.sol\":21182:21192  msg.sender */\n      caller\n        /* \"contracts/MemoryControl.sol\":21215:21220  false */\n      0x00\n        /* \"contracts/MemoryControl.sol\":21165:21193  memoryAccessList[msg.sender] */\n      dup2\n      dup2\n      mstore\n        /* \"contracts/MemoryControl.sol\":21165:21181  memoryAccessList */\n      0x03\n        /* \"contracts/MemoryControl.sol\":21165:21193  memoryAccessList[msg.sender] */\n      0x20\n      swap1\n      dup2\n      mstore\n      0x40\n      dup1\n      dup4\n      keccak256\n      sub(shl(0xa0, 0x01), 0x01)\n        /* \"contracts/MemoryControl.sol\":21165:21202  memoryAccessList[msg.sender][grantee] */\n      dup8\n      and\n      dup1\n      dup6\n      mstore\n      swap1\n      dup4\n      mstore\n      dup2\n      dup5\n      keccak256\n        /* \"contracts/MemoryControl.sol\":21165:21212  memoryAccessList[msg.sender][grantee][memoryId] */\n      dup7\n      dup6\n      mstore\n      dup4\n      mstore\n      dup2\n      dup5\n      keccak256\n        /* \"contracts/MemoryControl.sol\":21165:21220  memoryAccessList[msg.sender][grantee][memoryId] = false */\n      dup1\n      sload\n      not(0xff)\n      and\n      swap1\n      sstore\n        /* \"contracts/MemoryControl.sol\":21231:21265  memoryAccessExpiration[msg.sender] */\n      dup5\n      dup5\n      mstore\n        /* \"contracts/MemoryControl.sol\":21231:21253  memoryAccessExpiration */\n      0x04\n        /* \"contracts/MemoryControl.sol\":21231:21265  memoryAccessExpiration[msg.sender] */\n      dup4\n      mstore\n      dup2\n      dup5\n      keccak256\n        /* \"contracts/MemoryControl.sol\":21231:21274  memoryAccessExpiration[msg.sender][grantee] */\n      dup2\n      dup6\n      mstore\n      dup4\n      mstore\n      dup2\n      dup5\n      keccak256\n        /* \"contracts/MemoryControl.sol\":21231:21284  memoryAccessExpiration[msg.sender][grantee][memoryId] */\n      dup7\n      dup6\n      mstore\n      dup4\n      mstore\n      dup2\n      dup5\n      keccak256\n        /* \"contracts/MemoryControl.sol\":21231:21288  memoryAccessExpiration[msg.sender][grantee][memoryId] = 0 */\n      dup5\n      swap1\n      sstore\n        /* \"contracts/MemoryControl.sol\":21304:21358  MemoryAccessRevoked(msg.sender, grantee, memoryId, \"\") */\n      dup2\n      mload\n        /* \"#utility.yul\":13515:13536   */\n      dup4\n      dup2\n      mstore\n        /* \"#utility.yul\":13552:13570   */\n      swap3\n      dup4\n      add\n        /* \"#utility.yul\":13545:13574   */\n      swap4\n      swap1\n      swap4\n      mstore\n        /* \"contracts/MemoryControl.sol\":21165:21212  memoryAccessList[msg.sender][grantee][memoryId] */\n      dup5\n      swap4\n        /* \"contracts/MemoryControl.sol\":21182:21192  msg.sender */\n      swap2\n        /* \"contracts/MemoryControl.sol\":21304:21358  MemoryAccessRevoked(msg.sender, grantee, memoryId, \"\") */\n      0x768e414f25614956089faed55a8692f78fe5a118c68bb4ad1d49741a8024c2d3\n      swap2\n        /* \"#utility.yul\":13591:13609   */\n      add\n        /* \"contracts/MemoryControl.sol\":21304:21358  MemoryAccessRevoked(msg.sender, grantee, memoryId, \"\") */\n      mload(0x40)\n      dup1\n      swap2\n      sub\n      swap1\n      log4\n        /* \"contracts/MemoryControl.sol\":20970:21366  function revokeAccessFromMemory(address grantee, bytes32 memoryId) external {... */\n      pop\n      pop\n      jump\t// out\n        /* \"contracts/MemoryControl.sol\":12086:12711  function grantTimeBasedAccessToDomain(string memory domainName, uint256 durationInSeconds) external validDomainName(domainName) {... */\n    tag_126:\n        /* \"contracts/MemoryControl.sol\":12202:12212  domainName */\n      dup2\n        /* \"contracts/MemoryControl.sol\":4555:4556  0 */\n      0x00\n        /* \"contracts/MemoryControl.sol\":4534:4544  domainName */\n      dup2\n        /* \"contracts/MemoryControl.sol\":4528:4552  bytes(domainName).length */\n      mload\n        /* \"contracts/MemoryControl.sol\":4528:4556  bytes(domainName).length > 0 */\n      gt\n        /* \"contracts/MemoryControl.sol\":4520:4603  require(bytes(domainName).length > 0, \"MemoryControl: Domain name cannot be empty\") */\n      tag_369\n      jumpi\n      mload(0x40)\n      shl(0xe5, 0x461bcd)\n      dup2\n      mstore\n      0x04\n      add\n      tag_198\n      swap1\n      tag_251\n      jump\t// in\n    tag_369:\n        /* \"contracts/MemoryControl.sol\":12253:12254  0 */\n      0x00\n        /* \"contracts/MemoryControl.sol\":12233:12250  durationInSeconds */\n      dup3\n        /* \"contracts/MemoryControl.sol\":12233:12254  durationInSeconds > 0 */\n      gt\n        /* \"contracts/MemoryControl.sol\":12225:12305  require(durationInSeconds > 0, \"MemoryControl: Duration must be greater than 0\") */\n      tag_372\n      jumpi\n      mload(0x40)\n      shl(0xe5, 0x461bcd)\n      dup2\n      mstore\n      0x04\n      add\n      tag_198\n      swap1\n      tag_289\n      jump\t// in\n    tag_372:\n        /* \"contracts/MemoryControl.sol\":12350:12393  domainRegistry.getDomainAddress(domainName) */\n      mload(0x40)\n      shl(0xe0, 0x94310e51)\n      dup2\n      mstore\n        /* \"contracts/MemoryControl.sol\":12326:12347  address domainAddress */\n      0x00\n      swap1\n      sub(shl(0xa0, 0x01), 0x01)\n        /* \"contracts/MemoryControl.sol\":12350:12364  domainRegistry */\n      immutable(\"0x8fef2229291b68be841adf029e58b87f39ba144b2d3b0af1760243d0a9bc6a1c\")\n        /* \"contracts/MemoryControl.sol\":12350:12381  domainRegistry.getDomainAddress */\n      and\n      swap1\n      0x94310e51\n      swap1\n        /* \"contracts/MemoryControl.sol\":12350:12393  domainRegistry.getDomainAddress(domainName) */\n      tag_374\n      swap1\n        /* \"contracts/MemoryControl.sol\":12382:12392  domainName */\n      dup8\n      swap1\n        /* \"contracts/MemoryControl.sol\":12350:12393  domainRegistry.getDomainAddress(domainName) */\n      0x04\n      add\n      tag_185\n      jump\t// in\n    tag_374:\n      0x20\n      mload(0x40)\n      dup1\n      dup4\n      sub\n      dup2\n      dup7\n      gas\n      staticcall\n      iszero\n      dup1\n      iszero\n      tag_376\n      jumpi\n      returndatacopy(0x00, 0x00, returndatasize)\n      revert(0x00, returndatasize)\n    tag_376:\n      pop\n      pop\n      pop\n      pop\n      mload(0x40)\n      returndatasize\n      not(0x1f)\n      0x1f\n      dup3\n      add\n      and\n      dup3\n      add\n      dup1\n      0x40\n      mstore\n      pop\n      dup2\n      add\n      swap1\n      tag_377\n      swap2\n      swap1\n      tag_263\n      jump\t// in\n    tag_377:\n        /* \"contracts/MemoryControl.sol\":12326:12393  address domainAddress = domainRegistry.getDomainAddress(domainName) */\n      swap1\n      pop\n        /* \"contracts/MemoryControl.sol\":12404:12426  uint256 expirationTime */\n      0x00\n        /* \"contracts/MemoryControl.sol\":12429:12464  block.timestamp + durationInSeconds */\n      tag_378\n        /* \"contracts/MemoryControl.sol\":12447:12464  durationInSeconds */\n      dup5\n        /* \"contracts/MemoryControl.sol\":12429:12444  block.timestamp */\n      timestamp\n        /* \"contracts/MemoryControl.sol\":12429:12464  block.timestamp + durationInSeconds */\n      tag_295\n      jump\t// in\n    tag_378:\n        /* \"contracts/MemoryControl.sol\":12502:12512  msg.sender */\n      caller\n        /* \"contracts/MemoryControl.sol\":12485:12513  accessExpiration[msg.sender] */\n      0x00\n      dup2\n      dup2\n      mstore\n        /* \"contracts/MemoryControl.sol\":12485:12501  accessExpiration */\n      0x02\n        /* \"contracts/MemoryControl.sol\":12485:12513  accessExpiration[msg.sender] */\n      0x20\n      swap1\n      dup2\n      mstore\n      0x40\n      dup1\n      dup4\n      keccak256\n      sub(shl(0xa0, 0x01), 0x01)\n        /* \"contracts/MemoryControl.sol\":12485:12528  accessExpiration[msg.sender][domainAddress] */\n      dup9\n      and\n      dup1\n      dup6\n      mstore\n      swap1\n      dup4\n      mstore\n      dup2\n      dup5\n      keccak256\n        /* \"contracts/MemoryControl.sol\":12485:12545  accessExpiration[msg.sender][domainAddress] = expirationTime */\n      dup7\n      swap1\n      sstore\n        /* \"contracts/MemoryControl.sol\":12556:12578  accessList[msg.sender] */\n      dup5\n      dup5\n      mstore\n        /* \"contracts/MemoryControl.sol\":12596:12600  true */\n      0x01\n        /* \"contracts/MemoryControl.sol\":12556:12578  accessList[msg.sender] */\n      dup1\n      dup5\n      mstore\n      dup3\n      dup6\n      keccak256\n        /* \"contracts/MemoryControl.sol\":12556:12593  accessList[msg.sender][domainAddress] */\n      dup3\n      dup7\n      mstore\n      swap1\n      swap4\n      mstore\n      swap3\n      dup2\n      swap1\n      keccak256\n        /* \"contracts/MemoryControl.sol\":12556:12600  accessList[msg.sender][domainAddress] = true */\n      dup1\n      sload\n      not(0xff)\n      and\n      swap1\n      swap3\n      or\n      swap1\n      swap2\n      sstore\n        /* \"contracts/MemoryControl.sol\":12626:12703  TimeBasedAccessGranted(msg.sender, domainAddress, domainName, expirationTime) */\n      mload\n        /* \"contracts/MemoryControl.sol\":12404:12464  uint256 expirationTime = block.timestamp + durationInSeconds */\n      swap3\n      swap4\n      pop\n        /* \"contracts/MemoryControl.sol\":12485:12528  accessExpiration[msg.sender][domainAddress] */\n      swap2\n        /* \"contracts/MemoryControl.sol\":12626:12703  TimeBasedAccessGranted(msg.sender, domainAddress, domainName, expirationTime) */\n      0x90056cefbf0e5574cde1ef22f96c2bb2d33aa175ab27e44c77bda129cf657390\n      swap1\n      tag_379\n      swap1\n        /* \"contracts/MemoryControl.sol\":12676:12686  domainName */\n      dup10\n      swap1\n        /* \"contracts/MemoryControl.sol\":12404:12464  uint256 expirationTime = block.timestamp + durationInSeconds */\n      dup7\n      swap1\n        /* \"contracts/MemoryControl.sol\":12626:12703  TimeBasedAccessGranted(msg.sender, domainAddress, domainName, expirationTime) */\n      tag_297\n      jump\t// in\n    tag_379:\n      mload(0x40)\n      dup1\n      swap2\n      sub\n      swap1\n      log3\n        /* \"contracts/MemoryControl.sol\":12214:12711  {... */\n      pop\n      pop\n        /* \"contracts/MemoryControl.sol\":12086:12711  function grantTimeBasedAccessToDomain(string memory domainName, uint256 durationInSeconds) external validDomainName(domainName) {... */\n      pop\n      pop\n      pop\n      jump\t// out\n        /* \"contracts/MemoryControl.sol\":9864:10279  function hasAccess(bytes32 memoryId, address grantee) external view memoryExists(memoryId) returns (bool) {... */\n    tag_134:\n        /* \"contracts/MemoryControl.sol\":9964:9968  bool */\n      0x00\n        /* \"contracts/MemoryControl.sol\":4295:4313  memories[memoryId] */\n      dup3\n      dup2\n      mstore\n      0x20\n      dup2\n      swap1\n      mstore\n      0x40\n      dup2\n      keccak256\n        /* \"contracts/MemoryControl.sol\":4295:4319  memories[memoryId].owner */\n      sload\n        /* \"contracts/MemoryControl.sol\":9945:9953  memoryId */\n      dup4\n      swap1\n      sub(shl(0xa0, 0x01), 0x01)\n        /* \"contracts/MemoryControl.sol\":4295:4319  memories[memoryId].owner */\n      and\n        /* \"contracts/MemoryControl.sol\":4287:4374  require(memories[memoryId].owner != address(0), \"MemoryControl: Memory does not exist\") */\n      tag_381\n      jumpi\n      mload(0x40)\n      shl(0xe5, 0x461bcd)\n      dup2\n      mstore\n      0x04\n      add\n      tag_198\n      swap1\n      tag_199\n      jump\t// in\n    tag_381:\n        /* \"contracts/MemoryControl.sol\":9981:10005  Memory memory memoryData */\n      0x00\n        /* \"contracts/MemoryControl.sol\":10008:10026  memories[memoryId] */\n      dup5\n      dup2\n      mstore\n      0x20\n      dup2\n      dup2\n      mstore\n      0x40\n      dup1\n      dup4\n      keccak256\n        /* \"contracts/MemoryControl.sol\":9981:10026  Memory memory memoryData = memories[memoryId] */\n      dup2\n      mload\n      0xa0\n      dup2\n      add\n      dup4\n      mstore\n      dup2\n      sload\n      sub(shl(0xa0, 0x01), 0x01)\n      swap1\n      dup2\n      and\n      dup3\n      mstore\n      0x01\n      dup4\n      add\n      sload\n      swap5\n      dup3\n      add\n      swap5\n      swap1\n      swap5\n      mstore\n      0x02\n      dup3\n      add\n      sload\n      swap3\n      dup2\n      add\n      swap3\n      swap1\n      swap3\n      mstore\n      0x03\n      dup2\n      add\n      sload\n      swap1\n      swap3\n      and\n      0x60\n      dup3\n      add\n      mstore\n      0x04\n      dup3\n      add\n      dup1\n      sload\n      swap2\n      swap3\n        /* \"contracts/MemoryControl.sol\":10008:10026  memories[memoryId] */\n      swap2\n        /* \"contracts/MemoryControl.sol\":9981:10026  Memory memory memoryData = memories[memoryId] */\n      0x80\n      dup5\n      add\n      swap2\n      swap1\n      tag_384\n      swap1\n      tag_202\n      jump\t// in\n    tag_384:\n      dup1\n      0x1f\n      add\n      0x20\n      dup1\n      swap2\n      div\n      mul\n      0x20\n      add\n      mload(0x40)\n      swap1\n      dup2\n      add\n      0x40\n      mstore\n      dup1\n      swap3\n      swap2\n      swap1\n      dup2\n      dup2\n      mstore\n      0x20\n      add\n      dup3\n      dup1\n      sload\n      tag_385\n      swap1\n      tag_202\n      jump\t// in\n    tag_385:\n      dup1\n      iszero\n      tag_386\n      jumpi\n      dup1\n      0x1f\n      lt\n      tag_387\n      jumpi\n      0x0100\n      dup1\n      dup4\n      sload\n      div\n      mul\n      dup4\n      mstore\n      swap2\n      0x20\n      add\n      swap2\n      jump(tag_386)\n    tag_387:\n      dup3\n      add\n      swap2\n      swap1\n      0x00\n      mstore\n      keccak256(0x00, 0x20)\n      swap1\n    tag_388:\n      dup2\n      sload\n      dup2\n      mstore\n      swap1\n      0x01\n      add\n      swap1\n      0x20\n      add\n      dup1\n      dup4\n      gt\n      tag_388\n      jumpi\n      dup3\n      swap1\n      sub\n      0x1f\n      and\n      dup3\n      add\n      swap2\n    tag_386:\n      pop\n      pop\n      pop\n      pop\n      pop\n      dup2\n      mstore\n      pop\n      pop\n      swap1\n      pop\n        /* \"contracts/MemoryControl.sol\":10098:10108  memoryData */\n      dup1\n        /* \"contracts/MemoryControl.sol\":10098:10114  memoryData.owner */\n      0x00\n      add\n      mload\n      sub(shl(0xa0, 0x01), 0x01)\n        /* \"contracts/MemoryControl.sol\":10087:10114  grantee == memoryData.owner */\n      and\n        /* \"contracts/MemoryControl.sol\":10087:10094  grantee */\n      dup5\n      sub(shl(0xa0, 0x01), 0x01)\n        /* \"contracts/MemoryControl.sol\":10087:10114  grantee == memoryData.owner */\n      and\n      sub\n        /* \"contracts/MemoryControl.sol\":10083:10154  if (grantee == memoryData.owner) {... */\n      tag_389\n      jumpi\n        /* \"contracts/MemoryControl.sol\":10138:10142  true */\n      0x01\n        /* \"contracts/MemoryControl.sol\":10131:10142  return true */\n      swap3\n      pop\n      pop\n      jump(tag_200)\n        /* \"contracts/MemoryControl.sol\":10083:10154  if (grantee == memoryData.owner) {... */\n    tag_389:\n        /* \"contracts/MemoryControl.sol\":10245:10261  memoryData.owner */\n      mload\n      sub(shl(0xa0, 0x01), 0x01)\n        /* \"contracts/MemoryControl.sol\":10234:10262  accessList[memoryData.owner] */\n      swap1\n      dup2\n      and\n      0x00\n      swap1\n      dup2\n      mstore\n        /* \"contracts/MemoryControl.sol\":10234:10244  accessList */\n      0x01\n        /* \"contracts/MemoryControl.sol\":10234:10262  accessList[memoryData.owner] */\n      0x20\n      swap1\n      dup2\n      mstore\n      0x40\n      dup1\n      dup4\n      keccak256\n        /* \"contracts/MemoryControl.sol\":10234:10271  accessList[memoryData.owner][grantee] */\n      swap4\n      dup8\n      and\n      dup4\n      mstore\n      swap3\n      swap1\n      mstore\n      keccak256\n      sload\n      0xff\n      and\n      swap2\n      pop\n        /* \"contracts/MemoryControl.sol\":9864:10279  function hasAccess(bytes32 memoryId, address grantee) external view memoryExists(memoryId) returns (bool) {... */\n      pop\n      swap3\n      swap2\n      pop\n      pop\n      jump\t// out\n        /* \"contracts/MemoryControl.sol\":18912:19681  function grantTimeBasedDomainAccessToDomainMemories(string memory granteeDomain, string memory sourceDomain, uint256 durationInSeconds) external validDomainName(granteeDomain) validDomainName(sourceDomain) {... */\n    tag_139:\n        /* \"contracts/MemoryControl.sol\":19073:19086  granteeDomain */\n      dup3\n        /* \"contracts/MemoryControl.sol\":4555:4556  0 */\n      0x00\n        /* \"contracts/MemoryControl.sol\":4534:4544  domainName */\n      dup2\n        /* \"contracts/MemoryControl.sol\":4528:4552  bytes(domainName).length */\n      mload\n        /* \"contracts/MemoryControl.sol\":4528:4556  bytes(domainName).length > 0 */\n      gt\n        /* \"contracts/MemoryControl.sol\":4520:4603  require(bytes(domainName).length > 0, \"MemoryControl: Domain name cannot be empty\") */\n      tag_391\n      jumpi\n      mload(0x40)\n      shl(0xe5, 0x461bcd)\n      dup2\n      mstore\n      0x04\n      add\n      tag_198\n      swap1\n      tag_251\n      jump\t// in\n    tag_391:\n        /* \"contracts/MemoryControl.sol\":19104:19116  sourceDomain */\n      dup3\n        /* \"contracts/MemoryControl.sol\":4555:4556  0 */\n      0x00\n        /* \"contracts/MemoryControl.sol\":4534:4544  domainName */\n      dup2\n        /* \"contracts/MemoryControl.sol\":4528:4552  bytes(domainName).length */\n      mload\n        /* \"contracts/MemoryControl.sol\":4528:4556  bytes(domainName).length > 0 */\n      gt\n        /* \"contracts/MemoryControl.sol\":4520:4603  require(bytes(domainName).length > 0, \"MemoryControl: Domain name cannot be empty\") */\n      tag_394\n      jumpi\n      mload(0x40)\n      shl(0xe5, 0x461bcd)\n      dup2\n      mstore\n      0x04\n      add\n      tag_198\n      swap1\n      tag_251\n      jump\t// in\n    tag_394:\n        /* \"contracts/MemoryControl.sol\":19157:19158  0 */\n      0x00\n        /* \"contracts/MemoryControl.sol\":19137:19154  durationInSeconds */\n      dup4\n        /* \"contracts/MemoryControl.sol\":19137:19158  durationInSeconds > 0 */\n      gt\n        /* \"contracts/MemoryControl.sol\":19129:19209  require(durationInSeconds > 0, \"MemoryControl: Duration must be greater than 0\") */\n      tag_397\n      jumpi\n      mload(0x40)\n      shl(0xe5, 0x461bcd)\n      dup2\n      mstore\n      0x04\n      add\n      tag_198\n      swap1\n      tag_289\n      jump\t// in\n    tag_397:\n        /* \"contracts/MemoryControl.sol\":19254:19300  domainRegistry.getDomainAddress(granteeDomain) */\n      mload(0x40)\n      shl(0xe0, 0x94310e51)\n      dup2\n      mstore\n        /* \"contracts/MemoryControl.sol\":19230:19251  address domainAddress */\n      0x00\n      swap1\n      sub(shl(0xa0, 0x01), 0x01)\n        /* \"contracts/MemoryControl.sol\":19254:19268  domainRegistry */\n      immutable(\"0x8fef2229291b68be841adf029e58b87f39ba144b2d3b0af1760243d0a9bc6a1c\")\n        /* \"contracts/MemoryControl.sol\":19254:19285  domainRegistry.getDomainAddress */\n      and\n      swap1\n      0x94310e51\n      swap1\n        /* \"contracts/MemoryControl.sol\":19254:19300  domainRegistry.getDomainAddress(granteeDomain) */\n      tag_399\n      swap1\n        /* \"contracts/MemoryControl.sol\":19286:19299  granteeDomain */\n      dup10\n      swap1\n        /* \"contracts/MemoryControl.sol\":19254:19300  domainRegistry.getDomainAddress(granteeDomain) */\n      0x04\n      add\n      tag_185\n      jump\t// in\n    tag_399:\n      0x20\n      mload(0x40)\n      dup1\n      dup4\n      sub\n      dup2\n      dup7\n      gas\n      staticcall\n      iszero\n      dup1\n      iszero\n      tag_401\n      jumpi\n      returndatacopy(0x00, 0x00, returndatasize)\n      revert(0x00, returndatasize)\n    tag_401:\n      pop\n      pop\n      pop\n      pop\n      mload(0x40)\n      returndatasize\n      not(0x1f)\n      0x1f\n      dup3\n      add\n      and\n      dup3\n      add\n      dup1\n      0x40\n      mstore\n      pop\n      dup2\n      add\n      swap1\n      tag_402\n      swap2\n      swap1\n      tag_263\n      jump\t// in\n    tag_402:\n        /* \"contracts/MemoryControl.sol\":19230:19300  address domainAddress = domainRegistry.getDomainAddress(granteeDomain) */\n      swap1\n      pop\n        /* \"contracts/MemoryControl.sol\":19311:19333  uint256 expirationTime */\n      0x00\n        /* \"contracts/MemoryControl.sol\":19336:19371  block.timestamp + durationInSeconds */\n      tag_403\n        /* \"contracts/MemoryControl.sol\":19354:19371  durationInSeconds */\n      dup6\n        /* \"contracts/MemoryControl.sol\":19336:19351  block.timestamp */\n      timestamp\n        /* \"contracts/MemoryControl.sol\":19336:19371  block.timestamp + durationInSeconds */\n      tag_295\n      jump\t// in\n    tag_403:\n        /* \"contracts/MemoryControl.sol\":19415:19425  msg.sender */\n      caller\n        /* \"contracts/MemoryControl.sol\":19392:19426  domainAccessExpiration[msg.sender] */\n      0x00\n      swap1\n      dup2\n      mstore\n        /* \"contracts/MemoryControl.sol\":19392:19414  domainAccessExpiration */\n      0x06\n        /* \"contracts/MemoryControl.sol\":19392:19426  domainAccessExpiration[msg.sender] */\n      0x20\n      swap1\n      dup2\n      mstore\n      0x40\n      dup1\n      dup4\n      keccak256\n      sub(shl(0xa0, 0x01), 0x01)\n        /* \"contracts/MemoryControl.sol\":19392:19441  domainAccessExpiration[msg.sender][domainAddress] */\n      dup8\n      and\n      dup5\n      mstore\n      swap1\n      swap2\n      mstore\n      swap1\n      dup2\n      swap1\n      keccak256\n        /* \"contracts/MemoryControl.sol\":19392:19455  domainAccessExpiration[msg.sender][domainAddress][sourceDomain] */\n      swap1\n      mload\n        /* \"contracts/MemoryControl.sol\":19311:19371  uint256 expirationTime = block.timestamp + durationInSeconds */\n      swap2\n      swap3\n      pop\n      dup3\n      swap2\n        /* \"contracts/MemoryControl.sol\":19392:19455  domainAccessExpiration[msg.sender][domainAddress][sourceDomain] */\n      tag_404\n      swap1\n        /* \"contracts/MemoryControl.sol\":19442:19454  sourceDomain */\n      dup10\n      swap1\n        /* \"contracts/MemoryControl.sol\":19392:19455  domainAccessExpiration[msg.sender][domainAddress][sourceDomain] */\n      tag_215\n      jump\t// in\n    tag_404:\n      swap1\n      dup2\n      mstore\n      0x40\n      dup1\n      mload\n      0x20\n      swap3\n      dup2\n      swap1\n      sub\n      dup4\n      add\n      dup2\n      keccak256\n        /* \"contracts/MemoryControl.sol\":19392:19472  domainAccessExpiration[msg.sender][domainAddress][sourceDomain] = expirationTime */\n      swap4\n      swap1\n      swap4\n      sstore\n        /* \"contracts/MemoryControl.sol\":19500:19510  msg.sender */\n      caller\n        /* \"contracts/MemoryControl.sol\":19483:19511  domainAccessList[msg.sender] */\n      0x00\n      swap1\n      dup2\n      mstore\n        /* \"contracts/MemoryControl.sol\":19483:19499  domainAccessList */\n      0x05\n        /* \"contracts/MemoryControl.sol\":19483:19511  domainAccessList[msg.sender] */\n      dup4\n      mstore\n      dup2\n      dup2\n      keccak256\n      sub(shl(0xa0, 0x01), 0x01)\n        /* \"contracts/MemoryControl.sol\":19483:19526  domainAccessList[msg.sender][domainAddress] */\n      dup8\n      and\n      dup3\n      mstore\n      swap1\n      swap3\n      mstore\n      swap1\n      keccak256\n        /* \"contracts/MemoryControl.sol\":19543:19547  true */\n      0x01\n      swap2\n        /* \"contracts/MemoryControl.sol\":19483:19540  domainAccessList[msg.sender][domainAddress][sourceDomain] */\n      tag_405\n      swap1\n        /* \"contracts/MemoryControl.sol\":19527:19539  sourceDomain */\n      dup10\n      swap1\n        /* \"contracts/MemoryControl.sol\":19483:19540  domainAccessList[msg.sender][domainAddress][sourceDomain] */\n      tag_215\n      jump\t// in\n    tag_405:\n      swap1\n      dup2\n      mstore\n      mload(0x40)\n      swap1\n      dup2\n      swap1\n      sub\n      0x20\n      add\n      dup2\n      keccak256\n        /* \"contracts/MemoryControl.sol\":19483:19547  domainAccessList[msg.sender][domainAddress][sourceDomain] = true */\n      dup1\n      sload\n      swap3\n      iszero\n      iszero\n      not(0xff)\n      swap1\n      swap4\n      and\n      swap3\n      swap1\n      swap3\n      or\n      swap1\n      swap2\n      sstore\n      sub(shl(0xa0, 0x01), 0x01)\n        /* \"contracts/MemoryControl.sol\":19573:19673  TimeBasedDomainAccessGranted(msg.sender, domainAddress, sourceDomain, granteeDomain, expirationTime) */\n      dup4\n      and\n      swap1\n        /* \"contracts/MemoryControl.sol\":19602:19612  msg.sender */\n      caller\n      swap1\n        /* \"contracts/MemoryControl.sol\":19573:19673  TimeBasedDomainAccessGranted(msg.sender, domainAddress, sourceDomain, granteeDomain, expirationTime) */\n      0x6adf36a44f7c2dfa3d1f13fadd298ad4651f69261818396df54cb9effbcab996\n      swap1\n      tag_406\n      swap1\n        /* \"contracts/MemoryControl.sol\":19629:19641  sourceDomain */\n      dup11\n      swap1\n        /* \"contracts/MemoryControl.sol\":19643:19656  granteeDomain */\n      dup13\n      swap1\n        /* \"contracts/MemoryControl.sol\":19658:19672  expirationTime */\n      dup8\n      swap1\n        /* \"contracts/MemoryControl.sol\":19573:19673  TimeBasedDomainAccessGranted(msg.sender, domainAddress, sourceDomain, granteeDomain, expirationTime) */\n      tag_407\n      jump\t// in\n    tag_406:\n      mload(0x40)\n      dup1\n      swap2\n      sub\n      swap1\n      log3\n        /* \"contracts/MemoryControl.sol\":19118:19681  {... */\n      pop\n      pop\n        /* \"contracts/MemoryControl.sol\":4614:4615  _ */\n      pop\n        /* \"contracts/MemoryControl.sol\":18912:19681  function grantTimeBasedDomainAccessToDomainMemories(string memory granteeDomain, string memory sourceDomain, uint256 durationInSeconds) external validDomainName(granteeDomain) validDomainName(sourceDomain) {... */\n      pop\n      pop\n      pop\n      pop\n      jump\t// out\n        /* \"contracts/MemoryControl.sol\":17805:18594  function grantTimeBasedAccessToDomainMemories(address grantee, string memory sourceDomain, uint256 durationInSeconds) external validDomainName(sourceDomain) {... */\n    tag_143:\n        /* \"contracts/MemoryControl.sol\":17948:17960  sourceDomain */\n      dup2\n        /* \"contracts/MemoryControl.sol\":4555:4556  0 */\n      0x00\n        /* \"contracts/MemoryControl.sol\":4534:4544  domainName */\n      dup2\n        /* \"contracts/MemoryControl.sol\":4528:4552  bytes(domainName).length */\n      mload\n        /* \"contracts/MemoryControl.sol\":4528:4556  bytes(domainName).length > 0 */\n      gt\n        /* \"contracts/MemoryControl.sol\":4520:4603  require(bytes(domainName).length > 0, \"MemoryControl: Domain name cannot be empty\") */\n      tag_409\n      jumpi\n      mload(0x40)\n      shl(0xe5, 0x461bcd)\n      dup2\n      mstore\n      0x04\n      add\n      tag_198\n      swap1\n      tag_251\n      jump\t// in\n    tag_409:\n      sub(shl(0xa0, 0x01), 0x01)\n        /* \"contracts/MemoryControl.sol\":17981:18002  grantee != address(0) */\n      dup5\n      and\n        /* \"contracts/MemoryControl.sol\":17973:18060  require(grantee != address(0), \"MemoryControl: Grantee address cannot be zero address\") */\n      tag_412\n      jumpi\n      mload(0x40)\n      shl(0xe5, 0x461bcd)\n      dup2\n      mstore\n      0x04\n      add\n      tag_198\n      swap1\n      tag_245\n      jump\t// in\n    tag_412:\n        /* \"contracts/MemoryControl.sol\":18090:18100  msg.sender */\n      caller\n      sub(shl(0xa0, 0x01), 0x01)\n        /* \"contracts/MemoryControl.sol\":18079:18100  grantee != msg.sender */\n      dup6\n      and\n      sub\n        /* \"contracts/MemoryControl.sol\":18071:18151  require(grantee != msg.sender, \"MemoryControl: Cannot grant access to yourself\") */\n      tag_414\n      jumpi\n      mload(0x40)\n      shl(0xe5, 0x461bcd)\n      dup2\n      mstore\n      0x04\n      add\n      tag_198\n      swap1\n      tag_306\n      jump\t// in\n    tag_414:\n        /* \"contracts/MemoryControl.sol\":18190:18191  0 */\n      0x00\n        /* \"contracts/MemoryControl.sol\":18170:18187  durationInSeconds */\n      dup3\n        /* \"contracts/MemoryControl.sol\":18170:18191  durationInSeconds > 0 */\n      gt\n        /* \"contracts/MemoryControl.sol\":18162:18242  require(durationInSeconds > 0, \"MemoryControl: Duration must be greater than 0\") */\n      tag_416\n      jumpi\n      mload(0x40)\n      shl(0xe5, 0x461bcd)\n      dup2\n      mstore\n      0x04\n      add\n      tag_198\n      swap1\n      tag_289\n      jump\t// in\n    tag_416:\n        /* \"contracts/MemoryControl.sol\":18263:18285  uint256 expirationTime */\n      0x00\n        /* \"contracts/MemoryControl.sol\":18288:18323  block.timestamp + durationInSeconds */\n      tag_418\n        /* \"contracts/MemoryControl.sol\":18306:18323  durationInSeconds */\n      dup4\n        /* \"contracts/MemoryControl.sol\":18288:18303  block.timestamp */\n      timestamp\n        /* \"contracts/MemoryControl.sol\":18288:18323  block.timestamp + durationInSeconds */\n      tag_295\n      jump\t// in\n    tag_418:\n        /* \"contracts/MemoryControl.sol\":18357:18367  msg.sender */\n      caller\n        /* \"contracts/MemoryControl.sol\":18334:18368  domainAccessExpiration[msg.sender] */\n      0x00\n      swap1\n      dup2\n      mstore\n        /* \"contracts/MemoryControl.sol\":18334:18356  domainAccessExpiration */\n      0x06\n        /* \"contracts/MemoryControl.sol\":18334:18368  domainAccessExpiration[msg.sender] */\n      0x20\n      swap1\n      dup2\n      mstore\n      0x40\n      dup1\n      dup4\n      keccak256\n      sub(shl(0xa0, 0x01), 0x01)\n        /* \"contracts/MemoryControl.sol\":18334:18377  domainAccessExpiration[msg.sender][grantee] */\n      dup11\n      and\n      dup5\n      mstore\n      swap1\n      swap2\n      mstore\n      swap1\n      dup2\n      swap1\n      keccak256\n        /* \"contracts/MemoryControl.sol\":18334:18391  domainAccessExpiration[msg.sender][grantee][sourceDomain] */\n      swap1\n      mload\n        /* \"contracts/MemoryControl.sol\":18263:18323  uint256 expirationTime = block.timestamp + durationInSeconds */\n      swap2\n      swap3\n      pop\n      dup3\n      swap2\n        /* \"contracts/MemoryControl.sol\":18334:18391  domainAccessExpiration[msg.sender][grantee][sourceDomain] */\n      tag_419\n      swap1\n        /* \"contracts/MemoryControl.sol\":18378:18390  sourceDomain */\n      dup8\n      swap1\n        /* \"contracts/MemoryControl.sol\":18334:18391  domainAccessExpiration[msg.sender][grantee][sourceDomain] */\n      tag_215\n      jump\t// in\n    tag_419:\n      swap1\n      dup2\n      mstore\n      0x40\n      dup1\n      mload\n      0x20\n      swap3\n      dup2\n      swap1\n      sub\n      dup4\n      add\n      dup2\n      keccak256\n        /* \"contracts/MemoryControl.sol\":18334:18408  domainAccessExpiration[msg.sender][grantee][sourceDomain] = expirationTime */\n      swap4\n      swap1\n      swap4\n      sstore\n        /* \"contracts/MemoryControl.sol\":18436:18446  msg.sender */\n      caller\n        /* \"contracts/MemoryControl.sol\":18419:18447  domainAccessList[msg.sender] */\n      0x00\n      swap1\n      dup2\n      mstore\n        /* \"contracts/MemoryControl.sol\":18419:18435  domainAccessList */\n      0x05\n        /* \"contracts/MemoryControl.sol\":18419:18447  domainAccessList[msg.sender] */\n      dup4\n      mstore\n      dup2\n      dup2\n      keccak256\n      sub(shl(0xa0, 0x01), 0x01)\n        /* \"contracts/MemoryControl.sol\":18419:18456  domainAccessList[msg.sender][grantee] */\n      dup11\n      and\n      dup3\n      mstore\n      swap1\n      swap3\n      mstore\n      swap1\n      keccak256\n        /* \"contracts/MemoryControl.sol\":18473:18477  true */\n      0x01\n      swap2\n        /* \"contracts/MemoryControl.sol\":18419:18470  domainAccessList[msg.sender][grantee][sourceDomain] */\n      tag_420\n      swap1\n        /* \"contracts/MemoryControl.sol\":18457:18469  sourceDomain */\n      dup8\n      swap1\n        /* \"contracts/MemoryControl.sol\":18419:18470  domainAccessList[msg.sender][grantee][sourceDomain] */\n      tag_215\n      jump\t// in\n    tag_420:\n      swap1\n      dup2\n      mstore\n      mload(0x40)\n      swap1\n      dup2\n      swap1\n      sub\n      0x20\n      add\n      dup2\n      keccak256\n        /* \"contracts/MemoryControl.sol\":18419:18477  domainAccessList[msg.sender][grantee][sourceDomain] = true */\n      dup1\n      sload\n      swap3\n      iszero\n      iszero\n      not(0xff)\n      swap1\n      swap4\n      and\n      swap3\n      swap1\n      swap3\n      or\n      swap1\n      swap2\n      sstore\n      sub(shl(0xa0, 0x01), 0x01)\n        /* \"contracts/MemoryControl.sol\":18503:18586  TimeBasedDomainAccessGranted(msg.sender, grantee, sourceDomain, \"\", expirationTime) */\n      dup7\n      and\n      swap1\n        /* \"contracts/MemoryControl.sol\":18532:18542  msg.sender */\n      caller\n      swap1\n        /* \"contracts/MemoryControl.sol\":18503:18586  TimeBasedDomainAccessGranted(msg.sender, grantee, sourceDomain, \"\", expirationTime) */\n      0x6adf36a44f7c2dfa3d1f13fadd298ad4651f69261818396df54cb9effbcab996\n      swap1\n      tag_379\n      swap1\n        /* \"contracts/MemoryControl.sol\":18553:18565  sourceDomain */\n      dup9\n      swap1\n        /* \"contracts/MemoryControl.sol\":18571:18585  expirationTime */\n      dup7\n      swap1\n        /* \"contracts/MemoryControl.sol\":18503:18586  TimeBasedDomainAccessGranted(msg.sender, grantee, sourceDomain, \"\", expirationTime) */\n      tag_422\n      jump\t// in\n        /* \"contracts/MemoryControl.sol\":7474:7837  function grantAccessToUser(address grantee) external {... */\n    tag_146:\n      sub(shl(0xa0, 0x01), 0x01)\n        /* \"contracts/MemoryControl.sol\":7546:7567  grantee != address(0) */\n      dup2\n      and\n        /* \"contracts/MemoryControl.sol\":7538:7625  require(grantee != address(0), \"MemoryControl: Grantee address cannot be zero address\") */\n      tag_424\n      jumpi\n      mload(0x40)\n      shl(0xe5, 0x461bcd)\n      dup2\n      mstore\n      0x04\n      add\n      tag_198\n      swap1\n      tag_245\n      jump\t// in\n    tag_424:\n        /* \"contracts/MemoryControl.sol\":7655:7665  msg.sender */\n      caller\n      sub(shl(0xa0, 0x01), 0x01)\n        /* \"contracts/MemoryControl.sol\":7644:7665  grantee != msg.sender */\n      dup3\n      and\n      sub\n        /* \"contracts/MemoryControl.sol\":7636:7716  require(grantee != msg.sender, \"MemoryControl: Cannot grant access to yourself\") */\n      tag_426\n      jumpi\n      mload(0x40)\n      shl(0xe5, 0x461bcd)\n      dup2\n      mstore\n      0x04\n      add\n      tag_198\n      swap1\n      tag_306\n      jump\t// in\n    tag_426:\n        /* \"contracts/MemoryControl.sol\":7748:7758  msg.sender */\n      caller\n        /* \"contracts/MemoryControl.sol\":7737:7759  accessList[msg.sender] */\n      0x00\n      dup2\n      dup2\n      mstore\n        /* \"contracts/MemoryControl.sol\":7771:7775  true */\n      0x01\n        /* \"contracts/MemoryControl.sol\":7737:7759  accessList[msg.sender] */\n      0x20\n      dup2\n      dup2\n      mstore\n      0x40\n      dup1\n      dup5\n      keccak256\n      sub(shl(0xa0, 0x01), 0x01)\n        /* \"contracts/MemoryControl.sol\":7737:7768  accessList[msg.sender][grantee] */\n      dup8\n      and\n      dup1\n      dup7\n      mstore\n      swap1\n      dup4\n      mstore\n      dup2\n      dup6\n      keccak256\n        /* \"contracts/MemoryControl.sol\":7737:7775  accessList[msg.sender][grantee] = true */\n      dup1\n      sload\n      not(0xff)\n      and\n      swap1\n      swap5\n      or\n      swap1\n      swap4\n      sstore\n        /* \"contracts/MemoryControl.sol\":7791:7829  AccessGranted(msg.sender, grantee, \"\") */\n      dup1\n      mload\n        /* \"#utility.yul\":13515:13536   */\n      dup3\n      dup2\n      mstore\n        /* \"#utility.yul\":13552:13570   */\n      swap2\n      dup3\n      add\n        /* \"#utility.yul\":13545:13574   */\n      swap4\n      swap1\n      swap4\n      mstore\n        /* \"contracts/MemoryControl.sol\":7737:7768  accessList[msg.sender][grantee] */\n      swap1\n      swap3\n        /* \"contracts/MemoryControl.sol\":7748:7758  msg.sender */\n      swap2\n        /* \"contracts/MemoryControl.sol\":7791:7829  AccessGranted(msg.sender, grantee, \"\") */\n      0xc7e5c007251689b9bc3cb624f55714afc5988f3e3b4e20cc6a606d7bad6faeca\n      swap2\n        /* \"#utility.yul\":13591:13609   */\n      add\n        /* \"contracts/MemoryControl.sol\":7791:7829  AccessGranted(msg.sender, grantee, \"\") */\n      tag_246\n        /* \"#utility.yul\":13331:13615   */\n      jump\n        /* \"contracts/MemoryControl.sol\":22941:23428  function revokeDomainAccessFromDomainMemories(string memory granteeDomain, string memory sourceDomain) external validDomainName(granteeDomain) {... */\n    tag_150:\n        /* \"contracts/MemoryControl.sol\":23069:23082  granteeDomain */\n      dup2\n        /* \"contracts/MemoryControl.sol\":4555:4556  0 */\n      0x00\n        /* \"contracts/MemoryControl.sol\":4534:4544  domainName */\n      dup2\n        /* \"contracts/MemoryControl.sol\":4528:4552  bytes(domainName).length */\n      mload\n        /* \"contracts/MemoryControl.sol\":4528:4556  bytes(domainName).length > 0 */\n      gt\n        /* \"contracts/MemoryControl.sol\":4520:4603  require(bytes(domainName).length > 0, \"MemoryControl: Domain name cannot be empty\") */\n      tag_430\n      jumpi\n      mload(0x40)\n      shl(0xe5, 0x461bcd)\n      dup2\n      mstore\n      0x04\n      add\n      tag_198\n      swap1\n      tag_251\n      jump\t// in\n    tag_430:\n        /* \"contracts/MemoryControl.sol\":23119:23165  domainRegistry.getDomainAddress(granteeDomain) */\n      mload(0x40)\n      shl(0xe0, 0x94310e51)\n      dup2\n      mstore\n        /* \"contracts/MemoryControl.sol\":23095:23116  address domainAddress */\n      0x00\n      swap1\n      sub(shl(0xa0, 0x01), 0x01)\n        /* \"contracts/MemoryControl.sol\":23119:23133  domainRegistry */\n      immutable(\"0x8fef2229291b68be841adf029e58b87f39ba144b2d3b0af1760243d0a9bc6a1c\")\n        /* \"contracts/MemoryControl.sol\":23119:23150  domainRegistry.getDomainAddress */\n      and\n      swap1\n      0x94310e51\n      swap1\n        /* \"contracts/MemoryControl.sol\":23119:23165  domainRegistry.getDomainAddress(granteeDomain) */\n      tag_433\n      swap1\n        /* \"contracts/MemoryControl.sol\":23151:23164  granteeDomain */\n      dup8\n      swap1\n        /* \"contracts/MemoryControl.sol\":23119:23165  domainRegistry.getDomainAddress(granteeDomain) */\n      0x04\n      add\n      tag_185\n      jump\t// in\n    tag_433:\n      0x20\n      mload(0x40)\n      dup1\n      dup4\n      sub\n      dup2\n      dup7\n      gas\n      staticcall\n      iszero\n      dup1\n      iszero\n      tag_435\n      jumpi\n      returndatacopy(0x00, 0x00, returndatasize)\n      revert(0x00, returndatasize)\n    tag_435:\n      pop\n      pop\n      pop\n      pop\n      mload(0x40)\n      returndatasize\n      not(0x1f)\n      0x1f\n      dup3\n      add\n      and\n      dup3\n      add\n      dup1\n      0x40\n      mstore\n      pop\n      dup2\n      add\n      swap1\n      tag_436\n      swap2\n      swap1\n      tag_263\n      jump\t// in\n    tag_436:\n        /* \"contracts/MemoryControl.sol\":23203:23213  msg.sender */\n      caller\n        /* \"contracts/MemoryControl.sol\":23246:23251  false */\n      0x00\n        /* \"contracts/MemoryControl.sol\":23186:23214  domainAccessList[msg.sender] */\n      swap1\n      dup2\n      mstore\n        /* \"contracts/MemoryControl.sol\":23186:23202  domainAccessList */\n      0x05\n        /* \"contracts/MemoryControl.sol\":23186:23214  domainAccessList[msg.sender] */\n      0x20\n      swap1\n      dup2\n      mstore\n      0x40\n      dup1\n      dup4\n      keccak256\n      sub(shl(0xa0, 0x01), 0x01)\n        /* \"contracts/MemoryControl.sol\":23186:23229  domainAccessList[msg.sender][domainAddress] */\n      dup6\n      and\n      dup5\n      mstore\n      swap1\n      swap2\n      mstore\n      dup1\n      dup3\n      keccak256\n        /* \"contracts/MemoryControl.sol\":23186:23243  domainAccessList[msg.sender][domainAddress][sourceDomain] */\n      swap1\n      mload\n        /* \"contracts/MemoryControl.sol\":23095:23165  address domainAddress = domainRegistry.getDomainAddress(granteeDomain) */\n      swap3\n      swap4\n      pop\n        /* \"contracts/MemoryControl.sol\":23246:23251  false */\n      swap1\n      swap2\n        /* \"contracts/MemoryControl.sol\":23186:23243  domainAccessList[msg.sender][domainAddress][sourceDomain] */\n      tag_437\n      swap1\n        /* \"contracts/MemoryControl.sol\":23230:23242  sourceDomain */\n      dup7\n      swap1\n        /* \"contracts/MemoryControl.sol\":23186:23243  domainAccessList[msg.sender][domainAddress][sourceDomain] */\n      tag_215\n      jump\t// in\n    tag_437:\n      swap1\n      dup2\n      mstore\n      0x40\n      dup1\n      mload\n      0x20\n      swap3\n      dup2\n      swap1\n      sub\n      dup4\n      add\n      dup2\n      keccak256\n        /* \"contracts/MemoryControl.sol\":23186:23251  domainAccessList[msg.sender][domainAddress][sourceDomain] = false */\n      dup1\n      sload\n      not(0xff)\n      and\n      swap5\n      iszero\n      iszero\n      swap5\n      swap1\n      swap5\n      or\n      swap1\n      swap4\n      sstore\n        /* \"contracts/MemoryControl.sol\":23285:23295  msg.sender */\n      caller\n      0x00\n        /* \"contracts/MemoryControl.sol\":23262:23296  domainAccessExpiration[msg.sender] */\n      swap1\n      dup2\n      mstore\n        /* \"contracts/MemoryControl.sol\":23262:23284  domainAccessExpiration */\n      0x06\n        /* \"contracts/MemoryControl.sol\":23262:23296  domainAccessExpiration[msg.sender] */\n      dup4\n      mstore\n      dup2\n      dup2\n      keccak256\n      sub(shl(0xa0, 0x01), 0x01)\n        /* \"contracts/MemoryControl.sol\":23262:23311  domainAccessExpiration[msg.sender][domainAddress] */\n      dup7\n      and\n      dup3\n      mstore\n      swap1\n      swap3\n      mstore\n      dup2\n      keccak256\n      swap1\n      swap2\n        /* \"contracts/MemoryControl.sol\":23262:23325  domainAccessExpiration[msg.sender][domainAddress][sourceDomain] */\n      tag_438\n      swap1\n        /* \"contracts/MemoryControl.sol\":23312:23324  sourceDomain */\n      dup7\n      swap1\n        /* \"contracts/MemoryControl.sol\":23262:23325  domainAccessExpiration[msg.sender][domainAddress][sourceDomain] */\n      tag_215\n      jump\t// in\n    tag_438:\n      swap1\n      dup2\n      mstore\n      0x20\n      add\n      mload(0x40)\n      dup1\n      swap2\n      sub\n      swap1\n      keccak256\n        /* \"contracts/MemoryControl.sol\":23262:23329  domainAccessExpiration[msg.sender][domainAddress][sourceDomain] = 0 */\n      dup2\n      swap1\n      sstore\n      pop\n        /* \"contracts/MemoryControl.sol\":23377:23390  domainAddress */\n      dup1\n      sub(shl(0xa0, 0x01), 0x01)\n        /* \"contracts/MemoryControl.sol\":23345:23420  DomainAccessRevoked(msg.sender, domainAddress, sourceDomain, granteeDomain) */\n      and\n        /* \"contracts/MemoryControl.sol\":23365:23375  msg.sender */\n      caller\n      sub(shl(0xa0, 0x01), 0x01)\n        /* \"contracts/MemoryControl.sol\":23345:23420  DomainAccessRevoked(msg.sender, domainAddress, sourceDomain, granteeDomain) */\n      and\n      0xb09e079155e58ebb686e73c2048035a5a0e9f191531017ebb8fcd588aae9fedb\n        /* \"contracts/MemoryControl.sol\":23392:23404  sourceDomain */\n      dup6\n        /* \"contracts/MemoryControl.sol\":23406:23419  granteeDomain */\n      dup8\n        /* \"contracts/MemoryControl.sol\":23345:23420  DomainAccessRevoked(msg.sender, domainAddress, sourceDomain, granteeDomain) */\n      mload(0x40)\n      tag_267\n      swap3\n      swap2\n      swap1\n      tag_440\n      jump\t// in\n        /* \"contracts/MemoryControl.sol\":9214:9588  function revokeAccessFromDomain(string memory domainName) external validDomainName(domainName) {... */\n    tag_153:\n        /* \"contracts/MemoryControl.sol\":9297:9307  domainName */\n      dup1\n        /* \"contracts/MemoryControl.sol\":4555:4556  0 */\n      0x00\n        /* \"contracts/MemoryControl.sol\":4534:4544  domainName */\n      dup2\n        /* \"contracts/MemoryControl.sol\":4528:4552  bytes(domainName).length */\n      mload\n        /* \"contracts/MemoryControl.sol\":4528:4556  bytes(domainName).length > 0 */\n      gt\n        /* \"contracts/MemoryControl.sol\":4520:4603  require(bytes(domainName).length > 0, \"MemoryControl: Domain name cannot be empty\") */\n      tag_442\n      jumpi\n      mload(0x40)\n      shl(0xe5, 0x461bcd)\n      dup2\n      mstore\n      0x04\n      add\n      tag_198\n      swap1\n      tag_251\n      jump\t// in\n    tag_442:\n        /* \"contracts/MemoryControl.sol\":9403:9446  domainRegistry.getDomainAddress(domainName) */\n      mload(0x40)\n      shl(0xe0, 0x94310e51)\n      dup2\n      mstore\n        /* \"contracts/MemoryControl.sol\":9379:9400  address domainAddress */\n      0x00\n      swap1\n      sub(shl(0xa0, 0x01), 0x01)\n        /* \"contracts/MemoryControl.sol\":9403:9417  domainRegistry */\n      immutable(\"0x8fef2229291b68be841adf029e58b87f39ba144b2d3b0af1760243d0a9bc6a1c\")\n        /* \"contracts/MemoryControl.sol\":9403:9434  domainRegistry.getDomainAddress */\n      and\n      swap1\n      0x94310e51\n      swap1\n        /* \"contracts/MemoryControl.sol\":9403:9446  domainRegistry.getDomainAddress(domainName) */\n      tag_445\n      swap1\n        /* \"contracts/MemoryControl.sol\":9435:9445  domainName */\n      dup7\n      swap1\n        /* \"contracts/MemoryControl.sol\":9403:9446  domainRegistry.getDomainAddress(domainName) */\n      0x04\n      add\n      tag_185\n      jump\t// in\n    tag_445:\n      0x20\n      mload(0x40)\n      dup1\n      dup4\n      sub\n      dup2\n      dup7\n      gas\n      staticcall\n      iszero\n      dup1\n      iszero\n      tag_447\n      jumpi\n      returndatacopy(0x00, 0x00, returndatasize)\n      revert(0x00, returndatasize)\n    tag_447:\n      pop\n      pop\n      pop\n      pop\n      mload(0x40)\n      returndatasize\n      not(0x1f)\n      0x1f\n      dup3\n      add\n      and\n      dup3\n      add\n      dup1\n      0x40\n      mstore\n      pop\n      dup2\n      add\n      swap1\n      tag_448\n      swap2\n      swap1\n      tag_263\n      jump\t// in\n    tag_448:\n        /* \"contracts/MemoryControl.sol\":9478:9488  msg.sender */\n      caller\n        /* \"contracts/MemoryControl.sol\":9507:9512  false */\n      0x00\n        /* \"contracts/MemoryControl.sol\":9467:9489  accessList[msg.sender] */\n      dup2\n      dup2\n      mstore\n        /* \"contracts/MemoryControl.sol\":9467:9477  accessList */\n      0x01\n        /* \"contracts/MemoryControl.sol\":9467:9489  accessList[msg.sender] */\n      0x20\n      swap1\n      dup2\n      mstore\n      0x40\n      dup1\n      dup4\n      keccak256\n      sub(shl(0xa0, 0x01), 0x01)\n        /* \"contracts/MemoryControl.sol\":9467:9504  accessList[msg.sender][domainAddress] */\n      dup7\n      and\n      dup1\n      dup6\n      mstore\n      swap3\n      mstore\n      swap2\n      dup3\n      swap1\n      keccak256\n        /* \"contracts/MemoryControl.sol\":9467:9512  accessList[msg.sender][domainAddress] = false */\n      dup1\n      sload\n      not(0xff)\n      and\n      swap1\n      sstore\n        /* \"contracts/MemoryControl.sol\":9528:9580  AccessRevoked(msg.sender, domainAddress, domainName) */\n      swap1\n      mload\n        /* \"contracts/MemoryControl.sol\":9379:9446  address domainAddress = domainRegistry.getDomainAddress(domainName) */\n      swap3\n      swap4\n      pop\n        /* \"contracts/MemoryControl.sol\":9467:9504  accessList[msg.sender][domainAddress] */\n      swap2\n        /* \"contracts/MemoryControl.sol\":9528:9580  AccessRevoked(msg.sender, domainAddress, domainName) */\n      0x0a2382b7b0f44ee62df753c00034038c109332bf9b8f52418af74aa2859780fb\n      swap1\n      tag_276\n      swap1\n        /* \"contracts/MemoryControl.sol\":9569:9579  domainName */\n      dup8\n      swap1\n        /* \"contracts/MemoryControl.sol\":9528:9580  AccessRevoked(msg.sender, domainAddress, domainName) */\n      tag_185\n      jump\t// in\n        /* \"contracts/MemoryControl.sol\":13596:14002  function grantDomainAccessToMemory(string memory domainName, bytes32 memoryId) external memoryExists(memoryId) onlyMemoryOwner(memoryId) validDomainName(domainName) {... */\n    tag_166:\n        /* \"contracts/MemoryControl.sol\":4331:4332  0 */\n      0x00\n        /* \"contracts/MemoryControl.sol\":4295:4313  memories[memoryId] */\n      dup2\n      dup2\n      mstore\n      0x20\n      dup2\n      swap1\n      mstore\n      0x40\n      swap1\n      keccak256\n        /* \"contracts/MemoryControl.sol\":4295:4319  memories[memoryId].owner */\n      sload\n        /* \"contracts/MemoryControl.sol\":13697:13705  memoryId */\n      dup2\n      swap1\n      sub(shl(0xa0, 0x01), 0x01)\n        /* \"contracts/MemoryControl.sol\":4295:4319  memories[memoryId].owner */\n      and\n        /* \"contracts/MemoryControl.sol\":4287:4374  require(memories[memoryId].owner != address(0), \"MemoryControl: Memory does not exist\") */\n      tag_451\n      jumpi\n      mload(0x40)\n      shl(0xe5, 0x461bcd)\n      dup2\n      mstore\n      0x04\n      add\n      tag_198\n      swap1\n      tag_199\n      jump\t// in\n    tag_451:\n        /* \"contracts/MemoryControl.sol\":4064:4072  memories */\n      0x00\n        /* \"contracts/MemoryControl.sol\":4064:4082  memories[memoryId] */\n      dup3\n      dup2\n      mstore\n      0x20\n      dup2\n      swap1\n      mstore\n      0x40\n      swap1\n      keccak256\n        /* \"contracts/MemoryControl.sol\":4064:4088  memories[memoryId].owner */\n      sload\n        /* \"contracts/MemoryControl.sol\":13723:13731  memoryId */\n      dup3\n      swap1\n      sub(shl(0xa0, 0x01), 0x01)\n        /* \"contracts/MemoryControl.sol\":4064:4088  memories[memoryId].owner */\n      and\n        /* \"contracts/MemoryControl.sol\":4092:4102  msg.sender */\n      caller\n        /* \"contracts/MemoryControl.sol\":4064:4102  memories[memoryId].owner == msg.sender */\n      eq\n        /* \"contracts/MemoryControl.sol\":4056:4163  require(memories[memoryId].owner == msg.sender, \"MemoryControl: Only memory owner can perform this action\") */\n      tag_454\n      jumpi\n      mload(0x40)\n      shl(0xe5, 0x461bcd)\n      dup2\n      mstore\n      0x04\n      add\n      tag_198\n      swap1\n      tag_224\n      jump\t// in\n    tag_454:\n        /* \"contracts/MemoryControl.sol\":13749:13759  domainName */\n      dup4\n        /* \"contracts/MemoryControl.sol\":4555:4556  0 */\n      0x00\n        /* \"contracts/MemoryControl.sol\":4534:4544  domainName */\n      dup2\n        /* \"contracts/MemoryControl.sol\":4528:4552  bytes(domainName).length */\n      mload\n        /* \"contracts/MemoryControl.sol\":4528:4556  bytes(domainName).length > 0 */\n      gt\n        /* \"contracts/MemoryControl.sol\":4520:4603  require(bytes(domainName).length > 0, \"MemoryControl: Domain name cannot be empty\") */\n      tag_457\n      jumpi\n      mload(0x40)\n      shl(0xe5, 0x461bcd)\n      dup2\n      mstore\n      0x04\n      add\n      tag_198\n      swap1\n      tag_251\n      jump\t// in\n    tag_457:\n        /* \"contracts/MemoryControl.sol\":13796:13839  domainRegistry.getDomainAddress(domainName) */\n      mload(0x40)\n      shl(0xe0, 0x94310e51)\n      dup2\n      mstore\n        /* \"contracts/MemoryControl.sol\":13772:13793  address domainAddress */\n      0x00\n      swap1\n      sub(shl(0xa0, 0x01), 0x01)\n        /* \"contracts/MemoryControl.sol\":13796:13810  domainRegistry */\n      immutable(\"0x8fef2229291b68be841adf029e58b87f39ba144b2d3b0af1760243d0a9bc6a1c\")\n        /* \"contracts/MemoryControl.sol\":13796:13827  domainRegistry.getDomainAddress */\n      and\n      swap1\n      0x94310e51\n      swap1\n        /* \"contracts/MemoryControl.sol\":13796:13839  domainRegistry.getDomainAddress(domainName) */\n      tag_460\n      swap1\n        /* \"contracts/MemoryControl.sol\":13828:13838  domainName */\n      dup10\n      swap1\n        /* \"contracts/MemoryControl.sol\":13796:13839  domainRegistry.getDomainAddress(domainName) */\n      0x04\n      add\n      tag_185\n      jump\t// in\n    tag_460:\n      0x20\n      mload(0x40)\n      dup1\n      dup4\n      sub\n      dup2\n      dup7\n      gas\n      staticcall\n      iszero\n      dup1\n      iszero\n      tag_462\n      jumpi\n      returndatacopy(0x00, 0x00, returndatasize)\n      revert(0x00, returndatasize)\n    tag_462:\n      pop\n      pop\n      pop\n      pop\n      mload(0x40)\n      returndatasize\n      not(0x1f)\n      0x1f\n      dup3\n      add\n      and\n      dup3\n      add\n      dup1\n      0x40\n      mstore\n      pop\n      dup2\n      add\n      swap1\n      tag_463\n      swap2\n      swap1\n      tag_263\n      jump\t// in\n    tag_463:\n        /* \"contracts/MemoryControl.sol\":13867:13877  msg.sender */\n      caller\n        /* \"contracts/MemoryControl.sol\":13850:13878  memoryAccessList[msg.sender] */\n      0x00\n      dup2\n      dup2\n      mstore\n        /* \"contracts/MemoryControl.sol\":13850:13866  memoryAccessList */\n      0x03\n        /* \"contracts/MemoryControl.sol\":13850:13878  memoryAccessList[msg.sender] */\n      0x20\n      swap1\n      dup2\n      mstore\n      0x40\n      dup1\n      dup4\n      keccak256\n      sub(shl(0xa0, 0x01), 0x01)\n        /* \"contracts/MemoryControl.sol\":13850:13893  memoryAccessList[msg.sender][domainAddress] */\n      dup7\n      and\n      dup1\n      dup6\n      mstore\n      swap1\n      dup4\n      mstore\n      dup2\n      dup5\n      keccak256\n        /* \"contracts/MemoryControl.sol\":13850:13903  memoryAccessList[msg.sender][domainAddress][memoryId] */\n      dup12\n      dup6\n      mstore\n      swap1\n      swap3\n      mstore\n      swap2\n      dup3\n      swap1\n      keccak256\n        /* \"contracts/MemoryControl.sol\":13850:13910  memoryAccessList[msg.sender][domainAddress][memoryId] = true */\n      dup1\n      sload\n      not(0xff)\n      and\n        /* \"contracts/MemoryControl.sol\":13906:13910  true */\n      0x01\n        /* \"contracts/MemoryControl.sol\":13850:13910  memoryAccessList[msg.sender][domainAddress][memoryId] = true */\n      or\n      swap1\n      sstore\n        /* \"contracts/MemoryControl.sol\":13926:13994  MemoryAccessGranted(msg.sender, domainAddress, memoryId, domainName) */\n      swap1\n      mload\n        /* \"contracts/MemoryControl.sol\":13772:13839  address domainAddress = domainRegistry.getDomainAddress(domainName) */\n      swap3\n      swap4\n      pop\n        /* \"contracts/MemoryControl.sol\":13894:13902  memoryId */\n      dup8\n      swap3\n        /* \"contracts/MemoryControl.sol\":13850:13893  memoryAccessList[msg.sender][domainAddress] */\n      swap1\n      swap2\n        /* \"contracts/MemoryControl.sol\":13867:13877  msg.sender */\n      swap1\n        /* \"contracts/MemoryControl.sol\":13926:13994  MemoryAccessGranted(msg.sender, domainAddress, memoryId, domainName) */\n      0xbdbadf567b0cf71c55301c89b47c08e1d0aa234f1a0148a085f5ad923e86ad6e\n      swap1\n      tag_324\n      swap1\n        /* \"contracts/MemoryControl.sol\":13983:13993  domainName */\n      dup12\n      swap1\n        /* \"contracts/MemoryControl.sol\":13926:13994  MemoryAccessGranted(msg.sender, domainAddress, memoryId, domainName) */\n      tag_185\n      jump\t// in\n        /* \"contracts/MemoryControl.sol\":21588:22033  function revokeDomainAccessFromMemory(string memory domainName, bytes32 memoryId) external validDomainName(domainName) {... */\n    tag_169:\n        /* \"contracts/MemoryControl.sol\":21695:21705  domainName */\n      dup2\n        /* \"contracts/MemoryControl.sol\":4555:4556  0 */\n      0x00\n        /* \"contracts/MemoryControl.sol\":4534:4544  domainName */\n      dup2\n        /* \"contracts/MemoryControl.sol\":4528:4552  bytes(domainName).length */\n      mload\n        /* \"contracts/MemoryControl.sol\":4528:4556  bytes(domainName).length > 0 */\n      gt\n        /* \"contracts/MemoryControl.sol\":4520:4603  require(bytes(domainName).length > 0, \"MemoryControl: Domain name cannot be empty\") */\n      tag_466\n      jumpi\n      mload(0x40)\n      shl(0xe5, 0x461bcd)\n      dup2\n      mstore\n      0x04\n      add\n      tag_198\n      swap1\n      tag_251\n      jump\t// in\n    tag_466:\n        /* \"contracts/MemoryControl.sol\":21742:21785  domainRegistry.getDomainAddress(domainName) */\n      mload(0x40)\n      shl(0xe0, 0x94310e51)\n      dup2\n      mstore\n        /* \"contracts/MemoryControl.sol\":21718:21739  address domainAddress */\n      0x00\n      swap1\n      sub(shl(0xa0, 0x01), 0x01)\n        /* \"contracts/MemoryControl.sol\":21742:21756  domainRegistry */\n      immutable(\"0x8fef2229291b68be841adf029e58b87f39ba144b2d3b0af1760243d0a9bc6a1c\")\n        /* \"contracts/MemoryControl.sol\":21742:21773  domainRegistry.getDomainAddress */\n      and\n      swap1\n      0x94310e51\n      swap1\n        /* \"contracts/MemoryControl.sol\":21742:21785  domainRegistry.getDomainAddress(domainName) */\n      tag_469\n      swap1\n        /* \"contracts/MemoryControl.sol\":21774:21784  domainName */\n      dup8\n      swap1\n        /* \"contracts/MemoryControl.sol\":21742:21785  domainRegistry.getDomainAddress(domainName) */\n      0x04\n      add\n      tag_185\n      jump\t// in\n    tag_469:\n      0x20\n      mload(0x40)\n      dup1\n      dup4\n      sub\n      dup2\n      dup7\n      gas\n      staticcall\n      iszero\n      dup1\n      iszero\n      tag_471\n      jumpi\n      returndatacopy(0x00, 0x00, returndatasize)\n      revert(0x00, returndatasize)\n    tag_471:\n      pop\n      pop\n      pop\n      pop\n      mload(0x40)\n      returndatasize\n      not(0x1f)\n      0x1f\n      dup3\n      add\n      and\n      dup3\n      add\n      dup1\n      0x40\n      mstore\n      pop\n      dup2\n      add\n      swap1\n      tag_472\n      swap2\n      swap1\n      tag_263\n      jump\t// in\n    tag_472:\n        /* \"contracts/MemoryControl.sol\":21823:21833  msg.sender */\n      caller\n        /* \"contracts/MemoryControl.sol\":21862:21867  false */\n      0x00\n        /* \"contracts/MemoryControl.sol\":21806:21834  memoryAccessList[msg.sender] */\n      dup2\n      dup2\n      mstore\n        /* \"contracts/MemoryControl.sol\":21806:21822  memoryAccessList */\n      0x03\n        /* \"contracts/MemoryControl.sol\":21806:21834  memoryAccessList[msg.sender] */\n      0x20\n      swap1\n      dup2\n      mstore\n      0x40\n      dup1\n      dup4\n      keccak256\n      sub(shl(0xa0, 0x01), 0x01)\n        /* \"contracts/MemoryControl.sol\":21806:21849  memoryAccessList[msg.sender][domainAddress] */\n      dup7\n      and\n      dup1\n      dup6\n      mstore\n      swap1\n      dup4\n      mstore\n      dup2\n      dup5\n      keccak256\n        /* \"contracts/MemoryControl.sol\":21806:21859  memoryAccessList[msg.sender][domainAddress][memoryId] */\n      dup10\n      dup6\n      mstore\n      dup4\n      mstore\n      dup2\n      dup5\n      keccak256\n        /* \"contracts/MemoryControl.sol\":21806:21867  memoryAccessList[msg.sender][domainAddress][memoryId] = false */\n      dup1\n      sload\n      not(0xff)\n      and\n      swap1\n      sstore\n        /* \"contracts/MemoryControl.sol\":21878:21912  memoryAccessExpiration[msg.sender] */\n      dup5\n      dup5\n      mstore\n        /* \"contracts/MemoryControl.sol\":21878:21900  memoryAccessExpiration */\n      0x04\n        /* \"contracts/MemoryControl.sol\":21878:21912  memoryAccessExpiration[msg.sender] */\n      dup4\n      mstore\n      dup2\n      dup5\n      keccak256\n        /* \"contracts/MemoryControl.sol\":21878:21927  memoryAccessExpiration[msg.sender][domainAddress] */\n      dup2\n      dup6\n      mstore\n      dup4\n      mstore\n      dup2\n      dup5\n      keccak256\n        /* \"contracts/MemoryControl.sol\":21878:21937  memoryAccessExpiration[msg.sender][domainAddress][memoryId] */\n      dup10\n      dup6\n      mstore\n      swap1\n      swap3\n      mstore\n      dup1\n      dup4\n      keccak256\n        /* \"contracts/MemoryControl.sol\":21878:21941  memoryAccessExpiration[msg.sender][domainAddress][memoryId] = 0 */\n      swap3\n      swap1\n      swap3\n      sstore\n        /* \"contracts/MemoryControl.sol\":21957:22025  MemoryAccessRevoked(msg.sender, domainAddress, memoryId, domainName) */\n      swap1\n      mload\n        /* \"contracts/MemoryControl.sol\":21718:21785  address domainAddress = domainRegistry.getDomainAddress(domainName) */\n      swap3\n      swap4\n      pop\n        /* \"contracts/MemoryControl.sol\":21850:21858  memoryId */\n      dup6\n      swap3\n        /* \"contracts/MemoryControl.sol\":21806:21849  memoryAccessList[msg.sender][domainAddress] */\n      swap1\n      swap2\n        /* \"contracts/MemoryControl.sol\":21823:21833  msg.sender */\n      swap1\n        /* \"contracts/MemoryControl.sol\":21957:22025  MemoryAccessRevoked(msg.sender, domainAddress, memoryId, domainName) */\n      0x768e414f25614956089faed55a8692f78fe5a118c68bb4ad1d49741a8024c2d3\n      swap1\n      tag_363\n      swap1\n        /* \"contracts/MemoryControl.sol\":22014:22024  domainName */\n      dup10\n      swap1\n        /* \"contracts/MemoryControl.sol\":21957:22025  MemoryAccessRevoked(msg.sender, domainAddress, memoryId, domainName) */\n      tag_185\n      jump\t// in\n        /* \"contracts/MemoryControl.sol\":26091:26369  function hasAccessExpired(address grantee) external view returns (bool) {... */\n    tag_176:\n        /* \"contracts/MemoryControl.sol\":26195:26205  msg.sender */\n      caller\n        /* \"contracts/MemoryControl.sol\":26157:26161  bool */\n      0x00\n        /* \"contracts/MemoryControl.sol\":26178:26206  accessExpiration[msg.sender] */\n      swap1\n      dup2\n      mstore\n        /* \"contracts/MemoryControl.sol\":26178:26194  accessExpiration */\n      0x02\n        /* \"contracts/MemoryControl.sol\":26178:26206  accessExpiration[msg.sender] */\n      0x20\n      swap1\n      dup2\n      mstore\n      0x40\n      dup1\n      dup4\n      keccak256\n      sub(shl(0xa0, 0x01), 0x01)\n        /* \"contracts/MemoryControl.sol\":26178:26215  accessExpiration[msg.sender][grantee] */\n      dup6\n      and\n      dup5\n      mstore\n      swap1\n      swap2\n      mstore\n      dup2\n      keccak256\n      sload\n        /* \"contracts/MemoryControl.sol\":26178:26220  accessExpiration[msg.sender][grantee] == 0 */\n      dup2\n      sub\n        /* \"contracts/MemoryControl.sol\":26174:26289  if (accessExpiration[msg.sender][grantee] == 0) {... */\n      tag_475\n      jumpi\n      pop\n        /* \"contracts/MemoryControl.sol\":26244:26249  false */\n      0x00\n      swap2\n        /* \"contracts/MemoryControl.sol\":26091:26369  function hasAccessExpired(address grantee) external view returns (bool) {... */\n      swap1\n      pop\n      jump\t// out\n        /* \"contracts/MemoryControl.sol\":26174:26289  if (accessExpiration[msg.sender][grantee] == 0) {... */\n    tag_475:\n      pop\n        /* \"contracts/MemoryControl.sol\":26341:26351  msg.sender */\n      caller\n        /* \"contracts/MemoryControl.sol\":26324:26352  accessExpiration[msg.sender] */\n      0x00\n      swap1\n      dup2\n      mstore\n        /* \"contracts/MemoryControl.sol\":26324:26340  accessExpiration */\n      0x02\n        /* \"contracts/MemoryControl.sol\":26324:26352  accessExpiration[msg.sender] */\n      0x20\n      swap1\n      dup2\n      mstore\n      0x40\n      dup1\n      dup4\n      keccak256\n      sub(shl(0xa0, 0x01), 0x01)\n        /* \"contracts/MemoryControl.sol\":26324:26361  accessExpiration[msg.sender][grantee] */\n      swap5\n      swap1\n      swap5\n      and\n      dup4\n      mstore\n      swap3\n      swap1\n      mstore\n      keccak256\n      sload\n        /* \"contracts/MemoryControl.sol\":26306:26321  block.timestamp */\n      timestamp\n        /* \"contracts/MemoryControl.sol\":26306:26361  block.timestamp > accessExpiration[msg.sender][grantee] */\n      gt\n      swap1\n        /* \"contracts/MemoryControl.sol\":26091:26369  function hasAccessExpired(address grantee) external view returns (bool) {... */\n      jump\t// out\n        /* \"contracts/MemoryControl.sol\":22266:22692  function revokeAccessFromDomainMemories(address grantee, string memory sourceDomain) external {... */\n    tag_180:\n      sub(shl(0xa0, 0x01), 0x01)\n        /* \"contracts/MemoryControl.sol\":22379:22400  grantee != address(0) */\n      dup3\n      and\n        /* \"contracts/MemoryControl.sol\":22371:22458  require(grantee != address(0), \"MemoryControl: Grantee address cannot be zero address\") */\n      tag_477\n      jumpi\n      mload(0x40)\n      shl(0xe5, 0x461bcd)\n      dup2\n      mstore\n      0x04\n      add\n      tag_198\n      swap1\n      tag_245\n      jump\t// in\n    tag_477:\n        /* \"contracts/MemoryControl.sol\":22496:22506  msg.sender */\n      caller\n        /* \"contracts/MemoryControl.sol\":22533:22538  false */\n      0x00\n        /* \"contracts/MemoryControl.sol\":22479:22507  domainAccessList[msg.sender] */\n      swap1\n      dup2\n      mstore\n        /* \"contracts/MemoryControl.sol\":22479:22495  domainAccessList */\n      0x05\n        /* \"contracts/MemoryControl.sol\":22479:22507  domainAccessList[msg.sender] */\n      0x20\n      swap1\n      dup2\n      mstore\n      0x40\n      dup1\n      dup4\n      keccak256\n      sub(shl(0xa0, 0x01), 0x01)\n        /* \"contracts/MemoryControl.sol\":22479:22516  domainAccessList[msg.sender][grantee] */\n      dup7\n      and\n      dup5\n      mstore\n      swap1\n      swap2\n      mstore\n      dup1\n      dup3\n      keccak256\n        /* \"contracts/MemoryControl.sol\":22479:22530  domainAccessList[msg.sender][grantee][sourceDomain] */\n      swap1\n      mload\n      tag_479\n      swap1\n        /* \"contracts/MemoryControl.sol\":22517:22529  sourceDomain */\n      dup5\n      swap1\n        /* \"contracts/MemoryControl.sol\":22479:22530  domainAccessList[msg.sender][grantee][sourceDomain] */\n      tag_215\n      jump\t// in\n    tag_479:\n      swap1\n      dup2\n      mstore\n      0x40\n      dup1\n      mload\n      0x20\n      swap3\n      dup2\n      swap1\n      sub\n      dup4\n      add\n      dup2\n      keccak256\n        /* \"contracts/MemoryControl.sol\":22479:22538  domainAccessList[msg.sender][grantee][sourceDomain] = false */\n      dup1\n      sload\n      not(0xff)\n      and\n      swap5\n      iszero\n      iszero\n      swap5\n      swap1\n      swap5\n      or\n      swap1\n      swap4\n      sstore\n        /* \"contracts/MemoryControl.sol\":22572:22582  msg.sender */\n      caller\n      0x00\n        /* \"contracts/MemoryControl.sol\":22549:22583  domainAccessExpiration[msg.sender] */\n      swap1\n      dup2\n      mstore\n        /* \"contracts/MemoryControl.sol\":22549:22571  domainAccessExpiration */\n      0x06\n        /* \"contracts/MemoryControl.sol\":22549:22583  domainAccessExpiration[msg.sender] */\n      dup4\n      mstore\n      dup2\n      dup2\n      keccak256\n      sub(shl(0xa0, 0x01), 0x01)\n        /* \"contracts/MemoryControl.sol\":22549:22592  domainAccessExpiration[msg.sender][grantee] */\n      dup8\n      and\n      dup3\n      mstore\n      swap1\n      swap3\n      mstore\n      dup2\n      keccak256\n      swap1\n      swap2\n        /* \"contracts/MemoryControl.sol\":22549:22606  domainAccessExpiration[msg.sender][grantee][sourceDomain] */\n      tag_480\n      swap1\n        /* \"contracts/MemoryControl.sol\":22593:22605  sourceDomain */\n      dup5\n      swap1\n        /* \"contracts/MemoryControl.sol\":22549:22606  domainAccessExpiration[msg.sender][grantee][sourceDomain] */\n      tag_215\n      jump\t// in\n    tag_480:\n      swap1\n      dup2\n      mstore\n      0x20\n      add\n      mload(0x40)\n      dup1\n      swap2\n      sub\n      swap1\n      keccak256\n        /* \"contracts/MemoryControl.sol\":22549:22610  domainAccessExpiration[msg.sender][grantee][sourceDomain] = 0 */\n      dup2\n      swap1\n      sstore\n      pop\n        /* \"contracts/MemoryControl.sol\":22658:22665  grantee */\n      dup2\n      sub(shl(0xa0, 0x01), 0x01)\n        /* \"contracts/MemoryControl.sol\":22626:22684  DomainAccessRevoked(msg.sender, grantee, sourceDomain, \"\") */\n      and\n        /* \"contracts/MemoryControl.sol\":22646:22656  msg.sender */\n      caller\n      sub(shl(0xa0, 0x01), 0x01)\n        /* \"contracts/MemoryControl.sol\":22626:22684  DomainAccessRevoked(msg.sender, grantee, sourceDomain, \"\") */\n      and\n      0xb09e079155e58ebb686e73c2048035a5a0e9f191531017ebb8fcd588aae9fedb\n        /* \"contracts/MemoryControl.sol\":22667:22679  sourceDomain */\n      dup4\n        /* \"contracts/MemoryControl.sol\":22626:22684  DomainAccessRevoked(msg.sender, grantee, sourceDomain, \"\") */\n      mload(0x40)\n      tag_481\n      swap2\n      swap1\n      tag_309\n      jump\t// in\n    tag_481:\n      mload(0x40)\n      dup1\n      swap2\n      sub\n      swap1\n      log3\n        /* \"contracts/MemoryControl.sol\":22266:22692  function revokeAccessFromDomainMemories(address grantee, string memory sourceDomain) external {... */\n      pop\n      pop\n      jump\t// out\n        /* \"contracts/MemoryControl.sol\":25724:25895  function getMemorySourceDomain(bytes32 memoryId) external view memoryExists(memoryId) returns (string memory) {... */\n    tag_183:\n        /* \"contracts/MemoryControl.sol\":4331:4332  0 */\n      0x00\n        /* \"contracts/MemoryControl.sol\":4295:4313  memories[memoryId] */\n      dup2\n      dup2\n      mstore\n      0x20\n      dup2\n      swap1\n      mstore\n      0x40\n      swap1\n      keccak256\n        /* \"contracts/MemoryControl.sol\":4295:4319  memories[memoryId].owner */\n      sload\n        /* \"contracts/MemoryControl.sol\":25819:25832  string memory */\n      0x60\n      swap1\n        /* \"contracts/MemoryControl.sol\":25800:25808  memoryId */\n      dup3\n      swap1\n      sub(shl(0xa0, 0x01), 0x01)\n        /* \"contracts/MemoryControl.sol\":4295:4319  memories[memoryId].owner */\n      and\n        /* \"contracts/MemoryControl.sol\":4287:4374  require(memories[memoryId].owner != address(0), \"MemoryControl: Memory does not exist\") */\n      tag_483\n      jumpi\n      mload(0x40)\n      shl(0xe5, 0x461bcd)\n      dup2\n      mstore\n      0x04\n      add\n      tag_198\n      swap1\n      tag_199\n      jump\t// in\n    tag_483:\n        /* \"contracts/MemoryControl.sol\":25852:25860  memories */\n      0x00\n        /* \"contracts/MemoryControl.sol\":25852:25870  memories[memoryId] */\n      dup4\n      dup2\n      mstore\n      0x20\n      dup2\n      swap1\n      mstore\n      0x40\n      swap1\n      keccak256\n        /* \"contracts/MemoryControl.sol\":25852:25887  memories[memoryId].sourceDomainName */\n      0x04\n      add\n        /* \"contracts/MemoryControl.sol\":25845:25887  return memories[memoryId].sourceDomainName */\n      dup1\n      sload\n      tag_486\n      swap1\n      tag_202\n      jump\t// in\n    tag_486:\n      dup1\n      0x1f\n      add\n      0x20\n      dup1\n      swap2\n      div\n      mul\n      0x20\n      add\n      mload(0x40)\n      swap1\n      dup2\n      add\n      0x40\n      mstore\n      dup1\n      swap3\n      swap2\n      swap1\n      dup2\n      dup2\n      mstore\n      0x20\n      add\n      dup3\n      dup1\n      sload\n      tag_487\n      swap1\n      tag_202\n      jump\t// in\n    tag_487:\n      dup1\n      iszero\n      tag_488\n      jumpi\n      dup1\n      0x1f\n      lt\n      tag_489\n      jumpi\n      0x0100\n      dup1\n      dup4\n      sload\n      div\n      mul\n      dup4\n      mstore\n      swap2\n      0x20\n      add\n      swap2\n      jump(tag_488)\n    tag_489:\n      dup3\n      add\n      swap2\n      swap1\n      0x00\n      mstore\n      keccak256(0x00, 0x20)\n      swap1\n    tag_490:\n      dup2\n      sload\n      dup2\n      mstore\n      swap1\n      0x01\n      add\n      swap1\n      0x20\n      add\n      dup1\n      dup4\n      gt\n      tag_490\n      jumpi\n      dup3\n      swap1\n      sub\n      0x1f\n      and\n      dup3\n      add\n      swap2\n    tag_488:\n      pop\n      pop\n      pop\n      pop\n      pop\n      swap2\n      pop\n        /* \"contracts/MemoryControl.sol\":25724:25895  function getMemorySourceDomain(bytes32 memoryId) external view memoryExists(memoryId) returns (string memory) {... */\n      pop\n      swap2\n      swap1\n      pop\n      jump\t// out\n        /* \"contracts/MemoryControl.sol\":19878:20224  function revokeTimeBasedAccessFromUser(address grantee) external {... */\n    tag_188:\n      sub(shl(0xa0, 0x01), 0x01)\n        /* \"contracts/MemoryControl.sol\":19962:19983  grantee != address(0) */\n      dup2\n      and\n        /* \"contracts/MemoryControl.sol\":19954:20041  require(grantee != address(0), \"MemoryControl: Grantee address cannot be zero address\") */\n      tag_492\n      jumpi\n      mload(0x40)\n      shl(0xe5, 0x461bcd)\n      dup2\n      mstore\n      0x04\n      add\n      tag_198\n      swap1\n      tag_245\n      jump\t// in\n    tag_492:\n        /* \"contracts/MemoryControl.sol\":20079:20089  msg.sender */\n      caller\n        /* \"contracts/MemoryControl.sol\":20102:20103  0 */\n      0x00\n        /* \"contracts/MemoryControl.sol\":20062:20090  accessExpiration[msg.sender] */\n      dup2\n      dup2\n      mstore\n        /* \"contracts/MemoryControl.sol\":20062:20078  accessExpiration */\n      0x02\n        /* \"contracts/MemoryControl.sol\":20062:20090  accessExpiration[msg.sender] */\n      0x20\n      swap1\n      dup2\n      mstore\n      0x40\n      dup1\n      dup4\n      keccak256\n      sub(shl(0xa0, 0x01), 0x01)\n        /* \"contracts/MemoryControl.sol\":20062:20099  accessExpiration[msg.sender][grantee] */\n      dup7\n      and\n      dup1\n      dup6\n      mstore\n      swap1\n      dup4\n      mstore\n      dup2\n      dup5\n      keccak256\n        /* \"contracts/MemoryControl.sol\":20062:20103  accessExpiration[msg.sender][grantee] = 0 */\n      dup5\n      swap1\n      sstore\n        /* \"contracts/MemoryControl.sol\":20114:20136  accessList[msg.sender] */\n      dup5\n      dup5\n      mstore\n        /* \"contracts/MemoryControl.sol\":20114:20124  accessList */\n      0x01\n        /* \"contracts/MemoryControl.sol\":20114:20136  accessList[msg.sender] */\n      dup4\n      mstore\n      dup2\n      dup5\n      keccak256\n        /* \"contracts/MemoryControl.sol\":20114:20145  accessList[msg.sender][grantee] */\n      dup2\n      dup6\n      mstore\n      dup4\n      mstore\n      dup2\n      dup5\n      keccak256\n        /* \"contracts/MemoryControl.sol\":20114:20153  accessList[msg.sender][grantee] = false */\n      dup1\n      sload\n      not(0xff)\n      and\n      swap1\n      sstore\n        /* \"contracts/MemoryControl.sol\":20169:20216  TimeBasedAccessRevoked(msg.sender, grantee, \"\") */\n      dup2\n      mload\n        /* \"#utility.yul\":13515:13536   */\n      dup4\n      dup2\n      mstore\n        /* \"#utility.yul\":13552:13570   */\n      swap3\n      dup4\n      add\n        /* \"#utility.yul\":13545:13574   */\n      swap4\n      swap1\n      swap4\n      mstore\n        /* \"contracts/MemoryControl.sol\":20062:20099  accessExpiration[msg.sender][grantee] */\n      swap2\n      swap3\n        /* \"contracts/MemoryControl.sol\":20079:20089  msg.sender */\n      swap2\n        /* \"contracts/MemoryControl.sol\":20169:20216  TimeBasedAccessRevoked(msg.sender, grantee, \"\") */\n      0xbcba83a04e29c80214e54acb8b601353d47121572200f79340246e818bda9d09\n      swap2\n        /* \"#utility.yul\":13591:13609   */\n      add\n        /* \"contracts/MemoryControl.sol\":20169:20216  TimeBasedAccessRevoked(msg.sender, grantee, \"\") */\n      tag_246\n        /* \"#utility.yul\":13331:13615   */\n      jump\n        /* \"contracts/MemoryControl.sol\":17078:17503  function grantDomainAccessToDomainMemories(string memory granteeDomain, string memory sourceDomain) external validDomainName(granteeDomain) validDomainName(sourceDomain) {... */\n    tag_195:\n        /* \"contracts/MemoryControl.sol\":17203:17216  granteeDomain */\n      dup2\n        /* \"contracts/MemoryControl.sol\":4555:4556  0 */\n      0x00\n        /* \"contracts/MemoryControl.sol\":4534:4544  domainName */\n      dup2\n        /* \"contracts/MemoryControl.sol\":4528:4552  bytes(domainName).length */\n      mload\n        /* \"contracts/MemoryControl.sol\":4528:4556  bytes(domainName).length > 0 */\n      gt\n        /* \"contracts/MemoryControl.sol\":4520:4603  require(bytes(domainName).length > 0, \"MemoryControl: Domain name cannot be empty\") */\n      tag_496\n      jumpi\n      mload(0x40)\n      shl(0xe5, 0x461bcd)\n      dup2\n      mstore\n      0x04\n      add\n      tag_198\n      swap1\n      tag_251\n      jump\t// in\n    tag_496:\n        /* \"contracts/MemoryControl.sol\":17234:17246  sourceDomain */\n      dup2\n        /* \"contracts/MemoryControl.sol\":4555:4556  0 */\n      0x00\n        /* \"contracts/MemoryControl.sol\":4534:4544  domainName */\n      dup2\n        /* \"contracts/MemoryControl.sol\":4528:4552  bytes(domainName).length */\n      mload\n        /* \"contracts/MemoryControl.sol\":4528:4556  bytes(domainName).length > 0 */\n      gt\n        /* \"contracts/MemoryControl.sol\":4520:4603  require(bytes(domainName).length > 0, \"MemoryControl: Domain name cannot be empty\") */\n      tag_499\n      jumpi\n      mload(0x40)\n      shl(0xe5, 0x461bcd)\n      dup2\n      mstore\n      0x04\n      add\n      tag_198\n      swap1\n      tag_251\n      jump\t// in\n    tag_499:\n        /* \"contracts/MemoryControl.sol\":17283:17329  domainRegistry.getDomainAddress(granteeDomain) */\n      mload(0x40)\n      shl(0xe0, 0x94310e51)\n      dup2\n      mstore\n        /* \"contracts/MemoryControl.sol\":17259:17280  address domainAddress */\n      0x00\n      swap1\n      sub(shl(0xa0, 0x01), 0x01)\n        /* \"contracts/MemoryControl.sol\":17283:17297  domainRegistry */\n      immutable(\"0x8fef2229291b68be841adf029e58b87f39ba144b2d3b0af1760243d0a9bc6a1c\")\n        /* \"contracts/MemoryControl.sol\":17283:17314  domainRegistry.getDomainAddress */\n      and\n      swap1\n      0x94310e51\n      swap1\n        /* \"contracts/MemoryControl.sol\":17283:17329  domainRegistry.getDomainAddress(granteeDomain) */\n      tag_502\n      swap1\n        /* \"contracts/MemoryControl.sol\":17315:17328  granteeDomain */\n      dup9\n      swap1\n        /* \"contracts/MemoryControl.sol\":17283:17329  domainRegistry.getDomainAddress(granteeDomain) */\n      0x04\n      add\n      tag_185\n      jump\t// in\n    tag_502:\n      0x20\n      mload(0x40)\n      dup1\n      dup4\n      sub\n      dup2\n      dup7\n      gas\n      staticcall\n      iszero\n      dup1\n      iszero\n      tag_504\n      jumpi\n      returndatacopy(0x00, 0x00, returndatasize)\n      revert(0x00, returndatasize)\n    tag_504:\n      pop\n      pop\n      pop\n      pop\n      mload(0x40)\n      returndatasize\n      not(0x1f)\n      0x1f\n      dup3\n      add\n      and\n      dup3\n      add\n      dup1\n      0x40\n      mstore\n      pop\n      dup2\n      add\n      swap1\n      tag_505\n      swap2\n      swap1\n      tag_263\n      jump\t// in\n    tag_505:\n        /* \"contracts/MemoryControl.sol\":17357:17367  msg.sender */\n      caller\n        /* \"contracts/MemoryControl.sol\":17340:17368  domainAccessList[msg.sender] */\n      0x00\n      swap1\n      dup2\n      mstore\n        /* \"contracts/MemoryControl.sol\":17340:17356  domainAccessList */\n      0x05\n        /* \"contracts/MemoryControl.sol\":17340:17368  domainAccessList[msg.sender] */\n      0x20\n      swap1\n      dup2\n      mstore\n      0x40\n      dup1\n      dup4\n      keccak256\n      sub(shl(0xa0, 0x01), 0x01)\n        /* \"contracts/MemoryControl.sol\":17340:17383  domainAccessList[msg.sender][domainAddress] */\n      dup6\n      and\n      dup5\n      mstore\n      swap1\n      swap2\n      mstore\n      swap1\n      dup2\n      swap1\n      keccak256\n        /* \"contracts/MemoryControl.sol\":17340:17397  domainAccessList[msg.sender][domainAddress][sourceDomain] */\n      swap1\n      mload\n        /* \"contracts/MemoryControl.sol\":17259:17329  address domainAddress = domainRegistry.getDomainAddress(granteeDomain) */\n      swap2\n      swap3\n      pop\n        /* \"contracts/MemoryControl.sol\":17400:17404  true */\n      0x01\n      swap2\n        /* \"contracts/MemoryControl.sol\":17340:17397  domainAccessList[msg.sender][domainAddress][sourceDomain] */\n      tag_506\n      swap1\n        /* \"contracts/MemoryControl.sol\":17384:17396  sourceDomain */\n      dup8\n      swap1\n        /* \"contracts/MemoryControl.sol\":17340:17397  domainAccessList[msg.sender][domainAddress][sourceDomain] */\n      tag_215\n      jump\t// in\n    tag_506:\n      swap1\n      dup2\n      mstore\n      mload(0x40)\n      swap1\n      dup2\n      swap1\n      sub\n      0x20\n      add\n      dup2\n      keccak256\n        /* \"contracts/MemoryControl.sol\":17340:17404  domainAccessList[msg.sender][domainAddress][sourceDomain] = true */\n      dup1\n      sload\n      swap3\n      iszero\n      iszero\n      not(0xff)\n      swap1\n      swap4\n      and\n      swap3\n      swap1\n      swap3\n      or\n      swap1\n      swap2\n      sstore\n      sub(shl(0xa0, 0x01), 0x01)\n        /* \"contracts/MemoryControl.sol\":17420:17495  DomainAccessGranted(msg.sender, domainAddress, sourceDomain, granteeDomain) */\n      dup3\n      and\n      swap1\n        /* \"contracts/MemoryControl.sol\":17440:17450  msg.sender */\n      caller\n      swap1\n        /* \"contracts/MemoryControl.sol\":17420:17495  DomainAccessGranted(msg.sender, domainAddress, sourceDomain, granteeDomain) */\n      0x21b007e682e9017de8c120ab3ab126ed8d87e284b1ee985b14b0f759e9a7f46a\n      swap1\n      tag_379\n      swap1\n        /* \"contracts/MemoryControl.sol\":17467:17479  sourceDomain */\n      dup9\n      swap1\n        /* \"contracts/MemoryControl.sol\":17481:17494  granteeDomain */\n      dup11\n      swap1\n        /* \"contracts/MemoryControl.sol\":17420:17495  DomainAccessGranted(msg.sender, domainAddress, sourceDomain, granteeDomain) */\n      tag_440\n      jump\t// in\n    tag_230:\n      pop\n      dup1\n      sload\n      tag_508\n      swap1\n      tag_202\n      jump\t// in\n    tag_508:\n      0x00\n      dup3\n      sstore\n      dup1\n      0x1f\n      lt\n      tag_510\n      jumpi\n      pop\n      pop\n      jump\t// out\n    tag_510:\n      0x1f\n      add\n      0x20\n      swap1\n      div\n      swap1\n      0x00\n      mstore\n      keccak256(0x00, 0x20)\n      swap1\n      dup2\n      add\n      swap1\n      tag_511\n      swap2\n      swap1\n      tag_512\n      jump\t// in\n    tag_511:\n      pop\n      jump\t// out\n    tag_512:\n    tag_513:\n      dup1\n      dup3\n      gt\n      iszero\n      tag_514\n      jumpi\n      0x00\n      dup2\n      sstore\n      0x01\n      add\n      jump(tag_513)\n    tag_514:\n      pop\n      swap1\n      jump\t// out\n        /* \"#utility.yul\":14:145   */\n    tag_515:\n      sub(shl(0xa0, 0x01), 0x01)\n        /* \"#utility.yul\":89:120   */\n      dup2\n      and\n        /* \"#utility.yul\":79:121   */\n      dup2\n      eq\n        /* \"#utility.yul\":69:139   */\n      tag_511\n      jumpi\n        /* \"#utility.yul\":135:136   */\n      0x00\n        /* \"#utility.yul\":132:133   */\n      0x00\n        /* \"#utility.yul\":125:137   */\n      revert\n        /* \"#utility.yul\":150:517   */\n    tag_49:\n        /* \"#utility.yul\":218:224   */\n      0x00\n        /* \"#utility.yul\":226:232   */\n      0x00\n        /* \"#utility.yul\":279:281   */\n      0x40\n        /* \"#utility.yul\":267:276   */\n      dup4\n        /* \"#utility.yul\":258:265   */\n      dup6\n        /* \"#utility.yul\":254:277   */\n      sub\n        /* \"#utility.yul\":250:282   */\n      slt\n        /* \"#utility.yul\":247:299   */\n      iszero\n      tag_526\n      jumpi\n        /* \"#utility.yul\":295:296   */\n      0x00\n        /* \"#utility.yul\":292:293   */\n      0x00\n        /* \"#utility.yul\":285:297   */\n      revert\n        /* \"#utility.yul\":247:299   */\n    tag_526:\n        /* \"#utility.yul\":340:363   */\n      dup3\n      calldataload\n      swap2\n      pop\n        /* \"#utility.yul\":439:441   */\n      0x20\n        /* \"#utility.yul\":424:442   */\n      dup4\n      add\n        /* \"#utility.yul\":411:443   */\n      calldataload\n        /* \"#utility.yul\":452:485   */\n      tag_527\n        /* \"#utility.yul\":411:443   */\n      dup2\n        /* \"#utility.yul\":452:485   */\n      tag_515\n      jump\t// in\n    tag_527:\n        /* \"#utility.yul\":504:511   */\n      dup1\n        /* \"#utility.yul\":494:511   */\n      swap2\n      pop\n      pop\n        /* \"#utility.yul\":150:517   */\n      swap3\n      pop\n      swap3\n      swap1\n      pop\n      jump\t// out\n        /* \"#utility.yul\":944:1170   */\n    tag_59:\n        /* \"#utility.yul\":1003:1009   */\n      0x00\n        /* \"#utility.yul\":1056:1058   */\n      0x20\n        /* \"#utility.yul\":1044:1053   */\n      dup3\n        /* \"#utility.yul\":1035:1042   */\n      dup5\n        /* \"#utility.yul\":1031:1054   */\n      sub\n        /* \"#utility.yul\":1027:1059   */\n      slt\n        /* \"#utility.yul\":1024:1076   */\n      iszero\n      tag_531\n      jumpi\n        /* \"#utility.yul\":1072:1073   */\n      0x00\n        /* \"#utility.yul\":1069:1070   */\n      0x00\n        /* \"#utility.yul\":1062:1074   */\n      revert\n        /* \"#utility.yul\":1024:1076   */\n    tag_531:\n      pop\n        /* \"#utility.yul\":1117:1140   */\n      calldataload\n      swap2\n        /* \"#utility.yul\":944:1170   */\n      swap1\n      pop\n      jump\t// out\n        /* \"#utility.yul\":1175:1464   */\n    tag_516:\n        /* \"#utility.yul\":1217:1220   */\n      0x00\n        /* \"#utility.yul\":1255:1260   */\n      dup2\n        /* \"#utility.yul\":1249:1261   */\n      mload\n        /* \"#utility.yul\":1282:1288   */\n      dup1\n        /* \"#utility.yul\":1277:1280   */\n      dup5\n        /* \"#utility.yul\":1270:1289   */\n      mstore\n        /* \"#utility.yul\":1338:1344   */\n      dup1\n        /* \"#utility.yul\":1331:1335   */\n      0x20\n        /* \"#utility.yul\":1324:1329   */\n      dup5\n        /* \"#utility.yul\":1320:1336   */\n      add\n        /* \"#utility.yul\":1313:1317   */\n      0x20\n        /* \"#utility.yul\":1308:1311   */\n      dup7\n        /* \"#utility.yul\":1304:1318   */\n      add\n        /* \"#utility.yul\":1298:1345   */\n      mcopy\n        /* \"#utility.yul\":1390:1391   */\n      0x00\n        /* \"#utility.yul\":1383:1387   */\n      0x20\n        /* \"#utility.yul\":1374:1380   */\n      dup3\n        /* \"#utility.yul\":1369:1372   */\n      dup7\n        /* \"#utility.yul\":1365:1381   */\n      add\n        /* \"#utility.yul\":1361:1388   */\n      add\n        /* \"#utility.yul\":1354:1392   */\n      mstore\n        /* \"#utility.yul\":1453:1457   */\n      0x20\n        /* \"#utility.yul\":1446:1448   */\n      0x1f\n        /* \"#utility.yul\":1442:1449   */\n      not\n        /* \"#utility.yul\":1437:1439   */\n      0x1f\n        /* \"#utility.yul\":1429:1435   */\n      dup4\n        /* \"#utility.yul\":1425:1440   */\n      add\n        /* \"#utility.yul\":1421:1450   */\n      and\n        /* \"#utility.yul\":1416:1419   */\n      dup6\n        /* \"#utility.yul\":1412:1451   */\n      add\n        /* \"#utility.yul\":1408:1458   */\n      add\n        /* \"#utility.yul\":1401:1458   */\n      swap2\n      pop\n      pop\n        /* \"#utility.yul\":1175:1464   */\n      swap3\n      swap2\n      pop\n      pop\n      jump\t// out\n        /* \"#utility.yul\":1469:2095   */\n    tag_65:\n        /* \"#utility.yul\":1642:1644   */\n      0x20\n        /* \"#utility.yul\":1631:1640   */\n      dup2\n        /* \"#utility.yul\":1624:1645   */\n      mstore\n        /* \"#utility.yul\":1717:1718   */\n      0x01\n        /* \"#utility.yul\":1713:1714   */\n      dup1\n        /* \"#utility.yul\":1708:1711   */\n      0xa0\n        /* \"#utility.yul\":1704:1715   */\n      shl\n        /* \"#utility.yul\":1700:1719   */\n      sub\n        /* \"#utility.yul\":1691:1697   */\n      dup3\n        /* \"#utility.yul\":1685:1698   */\n      mload\n        /* \"#utility.yul\":1681:1720   */\n      and\n        /* \"#utility.yul\":1676:1678   */\n      0x20\n        /* \"#utility.yul\":1665:1674   */\n      dup3\n        /* \"#utility.yul\":1661:1679   */\n      add\n        /* \"#utility.yul\":1654:1721   */\n      mstore\n        /* \"#utility.yul\":1775:1777   */\n      0x20\n        /* \"#utility.yul\":1767:1773   */\n      dup3\n        /* \"#utility.yul\":1763:1778   */\n      add\n        /* \"#utility.yul\":1757:1779   */\n      mload\n        /* \"#utility.yul\":1752:1754   */\n      0x40\n        /* \"#utility.yul\":1741:1750   */\n      dup3\n        /* \"#utility.yul\":1737:1755   */\n      add\n        /* \"#utility.yul\":1730:1780   */\n      mstore\n        /* \"#utility.yul\":1834:1836   */\n      0x40\n        /* \"#utility.yul\":1826:1832   */\n      dup3\n        /* \"#utility.yul\":1822:1837   */\n      add\n        /* \"#utility.yul\":1816:1838   */\n      mload\n        /* \"#utility.yul\":1811:1813   */\n      0x60\n        /* \"#utility.yul\":1800:1809   */\n      dup3\n        /* \"#utility.yul\":1796:1814   */\n      add\n        /* \"#utility.yul\":1789:1839   */\n      mstore\n        /* \"#utility.yul\":1921:1922   */\n      0x01\n        /* \"#utility.yul\":1917:1918   */\n      dup1\n        /* \"#utility.yul\":1912:1915   */\n      0xa0\n        /* \"#utility.yul\":1908:1919   */\n      shl\n        /* \"#utility.yul\":1904:1923   */\n      sub\n        /* \"#utility.yul\":1898:1900   */\n      0x60\n        /* \"#utility.yul\":1890:1896   */\n      dup4\n        /* \"#utility.yul\":1886:1901   */\n      add\n        /* \"#utility.yul\":1880:1902   */\n      mload\n        /* \"#utility.yul\":1876:1924   */\n      and\n        /* \"#utility.yul\":1870:1873   */\n      0x80\n        /* \"#utility.yul\":1859:1868   */\n      dup3\n        /* \"#utility.yul\":1855:1874   */\n      add\n        /* \"#utility.yul\":1848:1925   */\n      mstore\n        /* \"#utility.yul\":1605:1609   */\n      0x00\n        /* \"#utility.yul\":1972:1975   */\n      0x80\n        /* \"#utility.yul\":1964:1970   */\n      dup4\n        /* \"#utility.yul\":1960:1976   */\n      add\n        /* \"#utility.yul\":1954:1977   */\n      mload\n        /* \"#utility.yul\":2015:2019   */\n      0xa0\n        /* \"#utility.yul\":2008:2012   */\n      dup1\n        /* \"#utility.yul\":1997:2006   */\n      dup5\n        /* \"#utility.yul\":1993:2013   */\n      add\n        /* \"#utility.yul\":1986:2020   */\n      mstore\n        /* \"#utility.yul\":2037:2089   */\n      tag_534\n        /* \"#utility.yul\":2084:2087   */\n      0xc0\n        /* \"#utility.yul\":2073:2082   */\n      dup5\n        /* \"#utility.yul\":2069:2088   */\n      add\n        /* \"#utility.yul\":2055:2067   */\n      dup3\n        /* \"#utility.yul\":2037:2089   */\n      tag_516\n      jump\t// in\n    tag_534:\n        /* \"#utility.yul\":2029:2089   */\n      swap5\n        /* \"#utility.yul\":1469:2095   */\n      swap4\n      pop\n      pop\n      pop\n      pop\n      jump\t// out\n        /* \"#utility.yul\":2100:2347   */\n    tag_68:\n        /* \"#utility.yul\":2159:2165   */\n      0x00\n        /* \"#utility.yul\":2212:2214   */\n      0x20\n        /* \"#utility.yul\":2200:2209   */\n      dup3\n        /* \"#utility.yul\":2191:2198   */\n      dup5\n        /* \"#utility.yul\":2187:2210   */\n      sub\n        /* \"#utility.yul\":2183:2215   */\n      slt\n        /* \"#utility.yul\":2180:2232   */\n      iszero\n      tag_536\n      jumpi\n        /* \"#utility.yul\":2228:2229   */\n      0x00\n        /* \"#utility.yul\":2225:2226   */\n      0x00\n        /* \"#utility.yul\":2218:2230   */\n      revert\n        /* \"#utility.yul\":2180:2232   */\n    tag_536:\n        /* \"#utility.yul\":2267:2276   */\n      dup2\n        /* \"#utility.yul\":2254:2277   */\n      calldataload\n        /* \"#utility.yul\":2286:2317   */\n      tag_537\n        /* \"#utility.yul\":2311:2316   */\n      dup2\n        /* \"#utility.yul\":2286:2317   */\n      tag_515\n      jump\t// in\n    tag_537:\n        /* \"#utility.yul\":2336:2341   */\n      swap4\n        /* \"#utility.yul\":2100:2347   */\n      swap3\n      pop\n      pop\n      pop\n      jump\t// out\n        /* \"#utility.yul\":2352:2479   */\n    tag_517:\n        /* \"#utility.yul\":2413:2423   */\n      0x4e487b71\n        /* \"#utility.yul\":2408:2411   */\n      0xe0\n        /* \"#utility.yul\":2404:2424   */\n      shl\n        /* \"#utility.yul\":2401:2402   */\n      0x00\n        /* \"#utility.yul\":2394:2425   */\n      mstore\n        /* \"#utility.yul\":2444:2448   */\n      0x41\n        /* \"#utility.yul\":2441:2442   */\n      0x04\n        /* \"#utility.yul\":2434:2449   */\n      mstore\n        /* \"#utility.yul\":2468:2472   */\n      0x24\n        /* \"#utility.yul\":2465:2466   */\n      0x00\n        /* \"#utility.yul\":2458:2473   */\n      revert\n        /* \"#utility.yul\":2484:3210   */\n    tag_518:\n        /* \"#utility.yul\":2527:2532   */\n      0x00\n        /* \"#utility.yul\":2580:2583   */\n      dup3\n        /* \"#utility.yul\":2573:2577   */\n      0x1f\n        /* \"#utility.yul\":2565:2571   */\n      dup4\n        /* \"#utility.yul\":2561:2578   */\n      add\n        /* \"#utility.yul\":2557:2584   */\n      slt\n        /* \"#utility.yul\":2547:2602   */\n      tag_540\n      jumpi\n        /* \"#utility.yul\":2598:2599   */\n      0x00\n        /* \"#utility.yul\":2595:2596   */\n      0x00\n        /* \"#utility.yul\":2588:2600   */\n      revert\n        /* \"#utility.yul\":2547:2602   */\n    tag_540:\n        /* \"#utility.yul\":2638:2644   */\n      dup2\n        /* \"#utility.yul\":2625:2645   */\n      calldataload\n      sub(shl(0x40, 0x01), 0x01)\n        /* \"#utility.yul\":2660:2666   */\n      dup2\n        /* \"#utility.yul\":2657:2687   */\n      gt\n        /* \"#utility.yul\":2654:2710   */\n      iszero\n      tag_542\n      jumpi\n        /* \"#utility.yul\":2690:2708   */\n      tag_542\n      tag_517\n      jump\t// in\n    tag_542:\n        /* \"#utility.yul\":2739:2741   */\n      0x40\n        /* \"#utility.yul\":2733:2742   */\n      mload\n        /* \"#utility.yul\":2831:2833   */\n      0x1f\n        /* \"#utility.yul\":2793:2810   */\n      dup3\n      add\n      not(0x1f)\n        /* \"#utility.yul\":2789:2820   */\n      swap1\n      dup2\n      and\n        /* \"#utility.yul\":2822:2824   */\n      0x3f\n        /* \"#utility.yul\":2785:2825   */\n      add\n        /* \"#utility.yul\":2781:2835   */\n      and\n        /* \"#utility.yul\":2769:2836   */\n      dup2\n      add\n      sub(shl(0x40, 0x01), 0x01)\n        /* \"#utility.yul\":2851:2885   */\n      dup2\n      gt\n        /* \"#utility.yul\":2887:2909   */\n      dup3\n      dup3\n      lt\n        /* \"#utility.yul\":2848:2910   */\n      or\n        /* \"#utility.yul\":2845:2933   */\n      iszero\n      tag_544\n      jumpi\n        /* \"#utility.yul\":2913:2931   */\n      tag_544\n      tag_517\n      jump\t// in\n    tag_544:\n        /* \"#utility.yul\":2949:2951   */\n      0x40\n        /* \"#utility.yul\":2942:2964   */\n      mstore\n        /* \"#utility.yul\":2973:2995   */\n      dup2\n      dup2\n      mstore\n        /* \"#utility.yul\":3014:3033   */\n      dup4\n      dup3\n      add\n        /* \"#utility.yul\":3035:3039   */\n      0x20\n        /* \"#utility.yul\":3010:3040   */\n      add\n        /* \"#utility.yul\":3007:3046   */\n      dup6\n      lt\n        /* \"#utility.yul\":3004:3063   */\n      iszero\n      tag_545\n      jumpi\n        /* \"#utility.yul\":3059:3060   */\n      0x00\n        /* \"#utility.yul\":3056:3057   */\n      0x00\n        /* \"#utility.yul\":3049:3061   */\n      revert\n        /* \"#utility.yul\":3004:3063   */\n    tag_545:\n        /* \"#utility.yul\":3123:3129   */\n      dup2\n        /* \"#utility.yul\":3116:3120   */\n      0x20\n        /* \"#utility.yul\":3108:3114   */\n      dup6\n        /* \"#utility.yul\":3104:3121   */\n      add\n        /* \"#utility.yul\":3097:3101   */\n      0x20\n        /* \"#utility.yul\":3089:3095   */\n      dup4\n        /* \"#utility.yul\":3085:3102   */\n      add\n        /* \"#utility.yul\":3072:3130   */\n      calldatacopy\n        /* \"#utility.yul\":3178:3179   */\n      0x00\n        /* \"#utility.yul\":3150:3169   */\n      swap2\n      dup2\n      add\n        /* \"#utility.yul\":3171:3175   */\n      0x20\n        /* \"#utility.yul\":3146:3176   */\n      add\n        /* \"#utility.yul\":3139:3180   */\n      swap2\n      swap1\n      swap2\n      mstore\n        /* \"#utility.yul\":3154:3160   */\n      swap4\n        /* \"#utility.yul\":2484:3210   */\n      swap3\n      pop\n      pop\n      pop\n      jump\t// out\n        /* \"#utility.yul\":3215:3651   */\n    tag_72:\n        /* \"#utility.yul\":3293:3299   */\n      0x00\n        /* \"#utility.yul\":3301:3307   */\n      0x00\n        /* \"#utility.yul\":3354:3356   */\n      0x40\n        /* \"#utility.yul\":3342:3351   */\n      dup4\n        /* \"#utility.yul\":3333:3340   */\n      dup6\n        /* \"#utility.yul\":3329:3352   */\n      sub\n        /* \"#utility.yul\":3325:3357   */\n      slt\n        /* \"#utility.yul\":3322:3374   */\n      iszero\n      tag_547\n      jumpi\n        /* \"#utility.yul\":3370:3371   */\n      0x00\n        /* \"#utility.yul\":3367:3368   */\n      0x00\n        /* \"#utility.yul\":3360:3372   */\n      revert\n        /* \"#utility.yul\":3322:3374   */\n    tag_547:\n        /* \"#utility.yul\":3415:3438   */\n      dup3\n      calldataload\n      swap2\n      pop\n        /* \"#utility.yul\":3513:3515   */\n      0x20\n        /* \"#utility.yul\":3498:3516   */\n      dup4\n      add\n        /* \"#utility.yul\":3485:3517   */\n      calldataload\n      sub(shl(0x40, 0x01), 0x01)\n        /* \"#utility.yul\":3529:3559   */\n      dup2\n      gt\n        /* \"#utility.yul\":3526:3576   */\n      iszero\n      tag_548\n      jumpi\n        /* \"#utility.yul\":3572:3573   */\n      0x00\n        /* \"#utility.yul\":3569:3570   */\n      0x00\n        /* \"#utility.yul\":3562:3574   */\n      revert\n        /* \"#utility.yul\":3526:3576   */\n    tag_548:\n        /* \"#utility.yul\":3595:3645   */\n      tag_549\n        /* \"#utility.yul\":3637:3644   */\n      dup6\n        /* \"#utility.yul\":3628:3634   */\n      dup3\n        /* \"#utility.yul\":3617:3626   */\n      dup7\n        /* \"#utility.yul\":3613:3635   */\n      add\n        /* \"#utility.yul\":3595:3645   */\n      tag_518\n      jump\t// in\n    tag_549:\n        /* \"#utility.yul\":3585:3645   */\n      swap2\n      pop\n      pop\n        /* \"#utility.yul\":3215:3651   */\n      swap3\n      pop\n      swap3\n      swap1\n      pop\n      jump\t// out\n        /* \"#utility.yul\":3656:4254   */\n    tag_76:\n        /* \"#utility.yul\":3743:3749   */\n      0x00\n        /* \"#utility.yul\":3751:3757   */\n      0x00\n        /* \"#utility.yul\":3759:3765   */\n      0x00\n        /* \"#utility.yul\":3812:3814   */\n      0x60\n        /* \"#utility.yul\":3800:3809   */\n      dup5\n        /* \"#utility.yul\":3791:3798   */\n      dup7\n        /* \"#utility.yul\":3787:3810   */\n      sub\n        /* \"#utility.yul\":3783:3815   */\n      slt\n        /* \"#utility.yul\":3780:3832   */\n      iszero\n      tag_551\n      jumpi\n        /* \"#utility.yul\":3828:3829   */\n      0x00\n        /* \"#utility.yul\":3825:3826   */\n      0x00\n        /* \"#utility.yul\":3818:3830   */\n      revert\n        /* \"#utility.yul\":3780:3832   */\n    tag_551:\n        /* \"#utility.yul\":3867:3876   */\n      dup4\n        /* \"#utility.yul\":3854:3877   */\n      calldataload\n        /* \"#utility.yul\":3886:3917   */\n      tag_552\n        /* \"#utility.yul\":3911:3916   */\n      dup2\n        /* \"#utility.yul\":3886:3917   */\n      tag_515\n      jump\t// in\n    tag_552:\n        /* \"#utility.yul\":3936:3941   */\n      swap3\n      pop\n        /* \"#utility.yul\":3993:3995   */\n      0x20\n        /* \"#utility.yul\":3978:3996   */\n      dup5\n      add\n        /* \"#utility.yul\":3965:3997   */\n      calldataload\n        /* \"#utility.yul\":4006:4039   */\n      tag_553\n        /* \"#utility.yul\":3965:3997   */\n      dup2\n        /* \"#utility.yul\":4006:4039   */\n      tag_515\n      jump\t// in\n    tag_553:\n        /* \"#utility.yul\":4058:4065   */\n      swap2\n      pop\n        /* \"#utility.yul\":4116:4118   */\n      0x40\n        /* \"#utility.yul\":4101:4119   */\n      dup5\n      add\n        /* \"#utility.yul\":4088:4120   */\n      calldataload\n      sub(shl(0x40, 0x01), 0x01)\n        /* \"#utility.yul\":4132:4162   */\n      dup2\n      gt\n        /* \"#utility.yul\":4129:4179   */\n      iszero\n      tag_554\n      jumpi\n        /* \"#utility.yul\":4175:4176   */\n      0x00\n        /* \"#utility.yul\":4172:4173   */\n      0x00\n        /* \"#utility.yul\":4165:4177   */\n      revert\n        /* \"#utility.yul\":4129:4179   */\n    tag_554:\n        /* \"#utility.yul\":4198:4248   */\n      tag_555\n        /* \"#utility.yul\":4240:4247   */\n      dup7\n        /* \"#utility.yul\":4231:4237   */\n      dup3\n        /* \"#utility.yul\":4220:4229   */\n      dup8\n        /* \"#utility.yul\":4216:4238   */\n      add\n        /* \"#utility.yul\":4198:4248   */\n      tag_518\n      jump\t// in\n    tag_555:\n        /* \"#utility.yul\":4188:4248   */\n      swap2\n      pop\n      pop\n        /* \"#utility.yul\":3656:4254   */\n      swap3\n      pop\n      swap3\n      pop\n      swap3\n      jump\t// out\n        /* \"#utility.yul\":4441:4763   */\n    tag_82:\n        /* \"#utility.yul\":4510:4516   */\n      0x00\n        /* \"#utility.yul\":4563:4565   */\n      0x20\n        /* \"#utility.yul\":4551:4560   */\n      dup3\n        /* \"#utility.yul\":4542:4549   */\n      dup5\n        /* \"#utility.yul\":4538:4561   */\n      sub\n        /* \"#utility.yul\":4534:4566   */\n      slt\n        /* \"#utility.yul\":4531:4583   */\n      iszero\n      tag_558\n      jumpi\n        /* \"#utility.yul\":4579:4580   */\n      0x00\n        /* \"#utility.yul\":4576:4577   */\n      0x00\n        /* \"#utility.yul\":4569:4581   */\n      revert\n        /* \"#utility.yul\":4531:4583   */\n    tag_558:\n        /* \"#utility.yul\":4619:4628   */\n      dup2\n        /* \"#utility.yul\":4606:4629   */\n      calldataload\n      sub(shl(0x40, 0x01), 0x01)\n        /* \"#utility.yul\":4644:4650   */\n      dup2\n        /* \"#utility.yul\":4641:4671   */\n      gt\n        /* \"#utility.yul\":4638:4688   */\n      iszero\n      tag_559\n      jumpi\n        /* \"#utility.yul\":4684:4685   */\n      0x00\n        /* \"#utility.yul\":4681:4682   */\n      0x00\n        /* \"#utility.yul\":4674:4686   */\n      revert\n        /* \"#utility.yul\":4638:4688   */\n    tag_559:\n        /* \"#utility.yul\":4707:4757   */\n      tag_534\n        /* \"#utility.yul\":4749:4756   */\n      dup5\n        /* \"#utility.yul\":4740:4746   */\n      dup3\n        /* \"#utility.yul\":4729:4738   */\n      dup6\n        /* \"#utility.yul\":4725:4747   */\n      add\n        /* \"#utility.yul\":4707:4757   */\n      tag_518\n      jump\t// in\n        /* \"#utility.yul\":4768:5324   */\n    tag_86:\n        /* \"#utility.yul\":4855:4861   */\n      0x00\n        /* \"#utility.yul\":4863:4869   */\n      0x00\n        /* \"#utility.yul\":4871:4877   */\n      0x00\n        /* \"#utility.yul\":4924:4926   */\n      0x60\n        /* \"#utility.yul\":4912:4921   */\n      dup5\n        /* \"#utility.yul\":4903:4910   */\n      dup7\n        /* \"#utility.yul\":4899:4922   */\n      sub\n        /* \"#utility.yul\":4895:4927   */\n      slt\n        /* \"#utility.yul\":4892:4944   */\n      iszero\n      tag_562\n      jumpi\n        /* \"#utility.yul\":4940:4941   */\n      0x00\n        /* \"#utility.yul\":4937:4938   */\n      0x00\n        /* \"#utility.yul\":4930:4942   */\n      revert\n        /* \"#utility.yul\":4892:4944   */\n    tag_562:\n        /* \"#utility.yul\":4980:4989   */\n      dup4\n        /* \"#utility.yul\":4967:4990   */\n      calldataload\n      sub(shl(0x40, 0x01), 0x01)\n        /* \"#utility.yul\":5005:5011   */\n      dup2\n        /* \"#utility.yul\":5002:5032   */\n      gt\n        /* \"#utility.yul\":4999:5049   */\n      iszero\n      tag_563\n      jumpi\n        /* \"#utility.yul\":5045:5046   */\n      0x00\n        /* \"#utility.yul\":5042:5043   */\n      0x00\n        /* \"#utility.yul\":5035:5047   */\n      revert\n        /* \"#utility.yul\":4999:5049   */\n    tag_563:\n        /* \"#utility.yul\":5068:5118   */\n      tag_564\n        /* \"#utility.yul\":5110:5117   */\n      dup7\n        /* \"#utility.yul\":5101:5107   */\n      dup3\n        /* \"#utility.yul\":5090:5099   */\n      dup8\n        /* \"#utility.yul\":5086:5108   */\n      add\n        /* \"#utility.yul\":5068:5118   */\n      tag_518\n      jump\t// in\n    tag_564:\n        /* \"#utility.yul\":5058:5118   */\n      swap7\n        /* \"#utility.yul\":5187:5189   */\n      0x20\n        /* \"#utility.yul\":5172:5190   */\n      dup7\n      add\n        /* \"#utility.yul\":5159:5191   */\n      calldataload\n      swap7\n      pop\n        /* \"#utility.yul\":5288:5290   */\n      0x40\n        /* \"#utility.yul\":5273:5291   */\n      swap1\n      swap6\n      add\n        /* \"#utility.yul\":5260:5292   */\n      calldataload\n      swap5\n        /* \"#utility.yul\":4768:5324   */\n      swap4\n      pop\n      pop\n      pop\n      pop\n      jump\t// out\n        /* \"#utility.yul\":5329:5786   */\n    tag_90:\n        /* \"#utility.yul\":5407:5413   */\n      0x00\n        /* \"#utility.yul\":5415:5421   */\n      0x00\n        /* \"#utility.yul\":5468:5470   */\n      0x40\n        /* \"#utility.yul\":5456:5465   */\n      dup4\n        /* \"#utility.yul\":5447:5454   */\n      dup6\n        /* \"#utility.yul\":5443:5466   */\n      sub\n        /* \"#utility.yul\":5439:5471   */\n      slt\n        /* \"#utility.yul\":5436:5488   */\n      iszero\n      tag_566\n      jumpi\n        /* \"#utility.yul\":5484:5485   */\n      0x00\n        /* \"#utility.yul\":5481:5482   */\n      0x00\n        /* \"#utility.yul\":5474:5486   */\n      revert\n        /* \"#utility.yul\":5436:5488   */\n    tag_566:\n        /* \"#utility.yul\":5523:5532   */\n      dup3\n        /* \"#utility.yul\":5510:5533   */\n      calldataload\n        /* \"#utility.yul\":5542:5573   */\n      tag_567\n        /* \"#utility.yul\":5567:5572   */\n      dup2\n        /* \"#utility.yul\":5542:5573   */\n      tag_515\n      jump\t// in\n    tag_567:\n        /* \"#utility.yul\":5592:5597   */\n      swap2\n      pop\n        /* \"#utility.yul\":5648:5650   */\n      0x20\n        /* \"#utility.yul\":5633:5651   */\n      dup4\n      add\n        /* \"#utility.yul\":5620:5652   */\n      calldataload\n      sub(shl(0x40, 0x01), 0x01)\n        /* \"#utility.yul\":5664:5694   */\n      dup2\n      gt\n        /* \"#utility.yul\":5661:5711   */\n      iszero\n      tag_548\n      jumpi\n        /* \"#utility.yul\":5707:5708   */\n      0x00\n        /* \"#utility.yul\":5704:5705   */\n      0x00\n        /* \"#utility.yul\":5697:5709   */\n      revert\n        /* \"#utility.yul\":5791:6278   */\n    tag_94:\n        /* \"#utility.yul\":5868:5874   */\n      0x00\n        /* \"#utility.yul\":5876:5882   */\n      0x00\n        /* \"#utility.yul\":5884:5890   */\n      0x00\n        /* \"#utility.yul\":5937:5939   */\n      0x60\n        /* \"#utility.yul\":5925:5934   */\n      dup5\n        /* \"#utility.yul\":5916:5923   */\n      dup7\n        /* \"#utility.yul\":5912:5935   */\n      sub\n        /* \"#utility.yul\":5908:5940   */\n      slt\n        /* \"#utility.yul\":5905:5957   */\n      iszero\n      tag_571\n      jumpi\n        /* \"#utility.yul\":5953:5954   */\n      0x00\n        /* \"#utility.yul\":5950:5951   */\n      0x00\n        /* \"#utility.yul\":5943:5955   */\n      revert\n        /* \"#utility.yul\":5905:5957   */\n    tag_571:\n        /* \"#utility.yul\":5992:6001   */\n      dup4\n        /* \"#utility.yul\":5979:6002   */\n      calldataload\n        /* \"#utility.yul\":6011:6042   */\n      tag_572\n        /* \"#utility.yul\":6036:6041   */\n      dup2\n        /* \"#utility.yul\":6011:6042   */\n      tag_515\n      jump\t// in\n    tag_572:\n        /* \"#utility.yul\":6061:6066   */\n      swap6\n        /* \"#utility.yul\":6139:6141   */\n      0x20\n        /* \"#utility.yul\":6124:6142   */\n      dup6\n      add\n        /* \"#utility.yul\":6111:6143   */\n      calldataload\n      swap6\n      pop\n        /* \"#utility.yul\":6242:6244   */\n      0x40\n        /* \"#utility.yul\":6227:6245   */\n      swap1\n      swap5\n      add\n        /* \"#utility.yul\":6214:6246   */\n      calldataload\n      swap4\n        /* \"#utility.yul\":5791:6278   */\n      swap3\n      pop\n      pop\n      pop\n      jump\t// out\n        /* \"#utility.yul\":6283:6650   */\n    tag_98:\n        /* \"#utility.yul\":6351:6357   */\n      0x00\n        /* \"#utility.yul\":6359:6365   */\n      0x00\n        /* \"#utility.yul\":6412:6414   */\n      0x40\n        /* \"#utility.yul\":6400:6409   */\n      dup4\n        /* \"#utility.yul\":6391:6398   */\n      dup6\n        /* \"#utility.yul\":6387:6410   */\n      sub\n        /* \"#utility.yul\":6383:6415   */\n      slt\n        /* \"#utility.yul\":6380:6432   */\n      iszero\n      tag_574\n      jumpi\n        /* \"#utility.yul\":6428:6429   */\n      0x00\n        /* \"#utility.yul\":6425:6426   */\n      0x00\n        /* \"#utility.yul\":6418:6430   */\n      revert\n        /* \"#utility.yul\":6380:6432   */\n    tag_574:\n        /* \"#utility.yul\":6467:6476   */\n      dup3\n        /* \"#utility.yul\":6454:6477   */\n      calldataload\n        /* \"#utility.yul\":6486:6517   */\n      tag_575\n        /* \"#utility.yul\":6511:6516   */\n      dup2\n        /* \"#utility.yul\":6486:6517   */\n      tag_515\n      jump\t// in\n    tag_575:\n        /* \"#utility.yul\":6536:6541   */\n      swap5\n        /* \"#utility.yul\":6614:6616   */\n      0x20\n        /* \"#utility.yul\":6599:6617   */\n      swap4\n      swap1\n      swap4\n      add\n        /* \"#utility.yul\":6586:6618   */\n      calldataload\n      swap4\n      pop\n      pop\n      pop\n        /* \"#utility.yul\":6283:6650   */\n      jump\t// out\n        /* \"#utility.yul\":7027:7586   */\n    tag_116:\n      sub(shl(0xa0, 0x01), 0x01)\n        /* \"#utility.yul\":7288:7320   */\n      dup7\n      dup2\n      and\n        /* \"#utility.yul\":7270:7321   */\n      dup3\n      mstore\n        /* \"#utility.yul\":7352:7354   */\n      0x20\n        /* \"#utility.yul\":7337:7355   */\n      dup3\n      add\n        /* \"#utility.yul\":7330:7364   */\n      dup7\n      swap1\n      mstore\n        /* \"#utility.yul\":7395:7397   */\n      0x40\n        /* \"#utility.yul\":7380:7398   */\n      dup3\n      add\n        /* \"#utility.yul\":7373:7407   */\n      dup6\n      swap1\n      mstore\n        /* \"#utility.yul\":7443:7475   */\n      dup4\n      and\n        /* \"#utility.yul\":7438:7440   */\n      0x60\n        /* \"#utility.yul\":7423:7441   */\n      dup3\n      add\n        /* \"#utility.yul\":7416:7476   */\n      mstore\n        /* \"#utility.yul\":7308:7311   */\n      0xa0\n        /* \"#utility.yul\":7507:7510   */\n      0x80\n        /* \"#utility.yul\":7492:7511   */\n      dup3\n      add\n        /* \"#utility.yul\":7485:7517   */\n      dup2\n      swap1\n      mstore\n      0x00\n      swap1\n        /* \"#utility.yul\":7534:7580   */\n      tag_580\n      swap1\n        /* \"#utility.yul\":7560:7579   */\n      dup4\n      add\n        /* \"#utility.yul\":7552:7558   */\n      dup5\n        /* \"#utility.yul\":7534:7580   */\n      tag_516\n      jump\t// in\n    tag_580:\n        /* \"#utility.yul\":7526:7580   */\n      swap8\n        /* \"#utility.yul\":7027:7586   */\n      swap7\n      pop\n      pop\n      pop\n      pop\n      pop\n      pop\n      pop\n      jump\t// out\n        /* \"#utility.yul\":7591:8027   */\n    tag_125:\n        /* \"#utility.yul\":7669:7675   */\n      0x00\n        /* \"#utility.yul\":7677:7683   */\n      0x00\n        /* \"#utility.yul\":7730:7732   */\n      0x40\n        /* \"#utility.yul\":7718:7727   */\n      dup4\n        /* \"#utility.yul\":7709:7716   */\n      dup6\n        /* \"#utility.yul\":7705:7728   */\n      sub\n        /* \"#utility.yul\":7701:7733   */\n      slt\n        /* \"#utility.yul\":7698:7750   */\n      iszero\n      tag_582\n      jumpi\n        /* \"#utility.yul\":7746:7747   */\n      0x00\n        /* \"#utility.yul\":7743:7744   */\n      0x00\n        /* \"#utility.yul\":7736:7748   */\n      revert\n        /* \"#utility.yul\":7698:7750   */\n    tag_582:\n        /* \"#utility.yul\":7786:7795   */\n      dup3\n        /* \"#utility.yul\":7773:7796   */\n      calldataload\n      sub(shl(0x40, 0x01), 0x01)\n        /* \"#utility.yul\":7811:7817   */\n      dup2\n        /* \"#utility.yul\":7808:7838   */\n      gt\n        /* \"#utility.yul\":7805:7855   */\n      iszero\n      tag_583\n      jumpi\n        /* \"#utility.yul\":7851:7852   */\n      0x00\n        /* \"#utility.yul\":7848:7849   */\n      0x00\n        /* \"#utility.yul\":7841:7853   */\n      revert\n        /* \"#utility.yul\":7805:7855   */\n    tag_583:\n        /* \"#utility.yul\":7874:7924   */\n      tag_584\n        /* \"#utility.yul\":7916:7923   */\n      dup6\n        /* \"#utility.yul\":7907:7913   */\n      dup3\n        /* \"#utility.yul\":7896:7905   */\n      dup7\n        /* \"#utility.yul\":7892:7914   */\n      add\n        /* \"#utility.yul\":7874:7924   */\n      tag_518\n      jump\t// in\n    tag_584:\n        /* \"#utility.yul\":7864:7924   */\n      swap6\n        /* \"#utility.yul\":7993:7995   */\n      0x20\n        /* \"#utility.yul\":7978:7996   */\n      swap5\n      swap1\n      swap5\n      add\n        /* \"#utility.yul\":7965:7997   */\n      calldataload\n      swap5\n      pop\n      pop\n      pop\n      pop\n        /* \"#utility.yul\":7591:8027   */\n      jump\t// out\n        /* \"#utility.yul\":8032:8420   */\n    tag_129:\n        /* \"#utility.yul\":8100:8106   */\n      0x00\n        /* \"#utility.yul\":8108:8114   */\n      0x00\n        /* \"#utility.yul\":8161:8163   */\n      0x40\n        /* \"#utility.yul\":8149:8158   */\n      dup4\n        /* \"#utility.yul\":8140:8147   */\n      dup6\n        /* \"#utility.yul\":8136:8159   */\n      sub\n        /* \"#utility.yul\":8132:8164   */\n      slt\n        /* \"#utility.yul\":8129:8181   */\n      iszero\n      tag_586\n      jumpi\n        /* \"#utility.yul\":8177:8178   */\n      0x00\n        /* \"#utility.yul\":8174:8175   */\n      0x00\n        /* \"#utility.yul\":8167:8179   */\n      revert\n        /* \"#utility.yul\":8129:8181   */\n    tag_586:\n        /* \"#utility.yul\":8216:8225   */\n      dup3\n        /* \"#utility.yul\":8203:8226   */\n      calldataload\n        /* \"#utility.yul\":8235:8266   */\n      tag_587\n        /* \"#utility.yul\":8260:8265   */\n      dup2\n        /* \"#utility.yul\":8235:8266   */\n      tag_515\n      jump\t// in\n    tag_587:\n        /* \"#utility.yul\":8285:8290   */\n      swap2\n      pop\n        /* \"#utility.yul\":8342:8344   */\n      0x20\n        /* \"#utility.yul\":8327:8345   */\n      dup4\n      add\n        /* \"#utility.yul\":8314:8346   */\n      calldataload\n        /* \"#utility.yul\":8355:8388   */\n      tag_527\n        /* \"#utility.yul\":8314:8346   */\n      dup2\n        /* \"#utility.yul\":8355:8388   */\n      tag_515\n      jump\t// in\n        /* \"#utility.yul\":8425:9077   */\n    tag_138:\n        /* \"#utility.yul\":8522:8528   */\n      0x00\n        /* \"#utility.yul\":8530:8536   */\n      0x00\n        /* \"#utility.yul\":8538:8544   */\n      0x00\n        /* \"#utility.yul\":8591:8593   */\n      0x60\n        /* \"#utility.yul\":8579:8588   */\n      dup5\n        /* \"#utility.yul\":8570:8577   */\n      dup7\n        /* \"#utility.yul\":8566:8589   */\n      sub\n        /* \"#utility.yul\":8562:8594   */\n      slt\n        /* \"#utility.yul\":8559:8611   */\n      iszero\n      tag_590\n      jumpi\n        /* \"#utility.yul\":8607:8608   */\n      0x00\n        /* \"#utility.yul\":8604:8605   */\n      0x00\n        /* \"#utility.yul\":8597:8609   */\n      revert\n        /* \"#utility.yul\":8559:8611   */\n    tag_590:\n        /* \"#utility.yul\":8647:8656   */\n      dup4\n        /* \"#utility.yul\":8634:8657   */\n      calldataload\n      sub(shl(0x40, 0x01), 0x01)\n        /* \"#utility.yul\":8672:8678   */\n      dup2\n        /* \"#utility.yul\":8669:8699   */\n      gt\n        /* \"#utility.yul\":8666:8716   */\n      iszero\n      tag_591\n      jumpi\n        /* \"#utility.yul\":8712:8713   */\n      0x00\n        /* \"#utility.yul\":8709:8710   */\n      0x00\n        /* \"#utility.yul\":8702:8714   */\n      revert\n        /* \"#utility.yul\":8666:8716   */\n    tag_591:\n        /* \"#utility.yul\":8735:8785   */\n      tag_592\n        /* \"#utility.yul\":8777:8784   */\n      dup7\n        /* \"#utility.yul\":8768:8774   */\n      dup3\n        /* \"#utility.yul\":8757:8766   */\n      dup8\n        /* \"#utility.yul\":8753:8775   */\n      add\n        /* \"#utility.yul\":8735:8785   */\n      tag_518\n      jump\t// in\n    tag_592:\n        /* \"#utility.yul\":8725:8785   */\n      swap4\n      pop\n      pop\n        /* \"#utility.yul\":8838:8840   */\n      0x20\n        /* \"#utility.yul\":8827:8836   */\n      dup5\n        /* \"#utility.yul\":8823:8841   */\n      add\n        /* \"#utility.yul\":8810:8842   */\n      calldataload\n      sub(shl(0x40, 0x01), 0x01)\n        /* \"#utility.yul\":8857:8865   */\n      dup2\n        /* \"#utility.yul\":8854:8886   */\n      gt\n        /* \"#utility.yul\":8851:8903   */\n      iszero\n      tag_593\n      jumpi\n        /* \"#utility.yul\":8899:8900   */\n      0x00\n        /* \"#utility.yul\":8896:8897   */\n      0x00\n        /* \"#utility.yul\":8889:8901   */\n      revert\n        /* \"#utility.yul\":8851:8903   */\n    tag_593:\n        /* \"#utility.yul\":8922:8974   */\n      tag_594\n        /* \"#utility.yul\":8966:8973   */\n      dup7\n        /* \"#utility.yul\":8955:8963   */\n      dup3\n        /* \"#utility.yul\":8944:8953   */\n      dup8\n        /* \"#utility.yul\":8940:8964   */\n      add\n        /* \"#utility.yul\":8922:8974   */\n      tag_518\n      jump\t// in\n    tag_594:\n        /* \"#utility.yul\":8425:9077   */\n      swap4\n      swap7\n        /* \"#utility.yul\":8912:8974   */\n      swap4\n      swap6\n      pop\n      pop\n      pop\n      pop\n        /* \"#utility.yul\":9043:9045   */\n      0x40\n        /* \"#utility.yul\":9028:9046   */\n      swap2\n      swap1\n      swap2\n      add\n        /* \"#utility.yul\":9015:9047   */\n      calldataload\n      swap1\n        /* \"#utility.yul\":8425:9077   */\n      jump\t// out\n        /* \"#utility.yul\":9082:9659   */\n    tag_142:\n        /* \"#utility.yul\":9169:9175   */\n      0x00\n        /* \"#utility.yul\":9177:9183   */\n      0x00\n        /* \"#utility.yul\":9185:9191   */\n      0x00\n        /* \"#utility.yul\":9238:9240   */\n      0x60\n        /* \"#utility.yul\":9226:9235   */\n      dup5\n        /* \"#utility.yul\":9217:9224   */\n      dup7\n        /* \"#utility.yul\":9213:9236   */\n      sub\n        /* \"#utility.yul\":9209:9241   */\n      slt\n        /* \"#utility.yul\":9206:9258   */\n      iszero\n      tag_596\n      jumpi\n        /* \"#utility.yul\":9254:9255   */\n      0x00\n        /* \"#utility.yul\":9251:9252   */\n      0x00\n        /* \"#utility.yul\":9244:9256   */\n      revert\n        /* \"#utility.yul\":9206:9258   */\n    tag_596:\n        /* \"#utility.yul\":9293:9302   */\n      dup4\n        /* \"#utility.yul\":9280:9303   */\n      calldataload\n        /* \"#utility.yul\":9312:9343   */\n      tag_597\n        /* \"#utility.yul\":9337:9342   */\n      dup2\n        /* \"#utility.yul\":9312:9343   */\n      tag_515\n      jump\t// in\n    tag_597:\n        /* \"#utility.yul\":9362:9367   */\n      swap3\n      pop\n        /* \"#utility.yul\":9418:9420   */\n      0x20\n        /* \"#utility.yul\":9403:9421   */\n      dup5\n      add\n        /* \"#utility.yul\":9390:9422   */\n      calldataload\n      sub(shl(0x40, 0x01), 0x01)\n        /* \"#utility.yul\":9434:9464   */\n      dup2\n      gt\n        /* \"#utility.yul\":9431:9481   */\n      iszero\n      tag_593\n      jumpi\n        /* \"#utility.yul\":9477:9478   */\n      0x00\n        /* \"#utility.yul\":9474:9475   */\n      0x00\n        /* \"#utility.yul\":9467:9479   */\n      revert\n        /* \"#utility.yul\":9664:10202   */\n    tag_149:\n        /* \"#utility.yul\":9752:9758   */\n      0x00\n        /* \"#utility.yul\":9760:9766   */\n      0x00\n        /* \"#utility.yul\":9813:9815   */\n      0x40\n        /* \"#utility.yul\":9801:9810   */\n      dup4\n        /* \"#utility.yul\":9792:9799   */\n      dup6\n        /* \"#utility.yul\":9788:9811   */\n      sub\n        /* \"#utility.yul\":9784:9816   */\n      slt\n        /* \"#utility.yul\":9781:9833   */\n      iszero\n      tag_601\n      jumpi\n        /* \"#utility.yul\":9829:9830   */\n      0x00\n        /* \"#utility.yul\":9826:9827   */\n      0x00\n        /* \"#utility.yul\":9819:9831   */\n      revert\n        /* \"#utility.yul\":9781:9833   */\n    tag_601:\n        /* \"#utility.yul\":9869:9878   */\n      dup3\n        /* \"#utility.yul\":9856:9879   */\n      calldataload\n      sub(shl(0x40, 0x01), 0x01)\n        /* \"#utility.yul\":9894:9900   */\n      dup2\n        /* \"#utility.yul\":9891:9921   */\n      gt\n        /* \"#utility.yul\":9888:9938   */\n      iszero\n      tag_602\n      jumpi\n        /* \"#utility.yul\":9934:9935   */\n      0x00\n        /* \"#utility.yul\":9931:9932   */\n      0x00\n        /* \"#utility.yul\":9924:9936   */\n      revert\n        /* \"#utility.yul\":9888:9938   */\n    tag_602:\n        /* \"#utility.yul\":9957:10007   */\n      tag_603\n        /* \"#utility.yul\":9999:10006   */\n      dup6\n        /* \"#utility.yul\":9990:9996   */\n      dup3\n        /* \"#utility.yul\":9979:9988   */\n      dup7\n        /* \"#utility.yul\":9975:9997   */\n      add\n        /* \"#utility.yul\":9957:10007   */\n      tag_518\n      jump\t// in\n    tag_603:\n        /* \"#utility.yul\":9947:10007   */\n      swap3\n      pop\n      pop\n        /* \"#utility.yul\":10060:10062   */\n      0x20\n        /* \"#utility.yul\":10049:10058   */\n      dup4\n        /* \"#utility.yul\":10045:10063   */\n      add\n        /* \"#utility.yul\":10032:10064   */\n      calldataload\n      sub(shl(0x40, 0x01), 0x01)\n        /* \"#utility.yul\":10079:10087   */\n      dup2\n        /* \"#utility.yul\":10076:10108   */\n      gt\n        /* \"#utility.yul\":10073:10125   */\n      iszero\n      tag_548\n      jumpi\n        /* \"#utility.yul\":10121:10122   */\n      0x00\n        /* \"#utility.yul\":10118:10119   */\n      0x00\n        /* \"#utility.yul\":10111:10123   */\n      revert\n        /* \"#utility.yul\":10207:10715   */\n    tag_160:\n        /* \"#utility.yul\":10284:10290   */\n      0x00\n        /* \"#utility.yul\":10292:10298   */\n      0x00\n        /* \"#utility.yul\":10300:10306   */\n      0x00\n        /* \"#utility.yul\":10353:10355   */\n      0x60\n        /* \"#utility.yul\":10341:10350   */\n      dup5\n        /* \"#utility.yul\":10332:10339   */\n      dup7\n        /* \"#utility.yul\":10328:10351   */\n      sub\n        /* \"#utility.yul\":10324:10356   */\n      slt\n        /* \"#utility.yul\":10321:10373   */\n      iszero\n      tag_607\n      jumpi\n        /* \"#utility.yul\":10369:10370   */\n      0x00\n        /* \"#utility.yul\":10366:10367   */\n      0x00\n        /* \"#utility.yul\":10359:10371   */\n      revert\n        /* \"#utility.yul\":10321:10373   */\n    tag_607:\n        /* \"#utility.yul\":10408:10417   */\n      dup4\n        /* \"#utility.yul\":10395:10418   */\n      calldataload\n        /* \"#utility.yul\":10427:10458   */\n      tag_608\n        /* \"#utility.yul\":10452:10457   */\n      dup2\n        /* \"#utility.yul\":10427:10458   */\n      tag_515\n      jump\t// in\n    tag_608:\n        /* \"#utility.yul\":10477:10482   */\n      swap3\n      pop\n        /* \"#utility.yul\":10534:10536   */\n      0x20\n        /* \"#utility.yul\":10519:10537   */\n      dup5\n      add\n        /* \"#utility.yul\":10506:10538   */\n      calldataload\n        /* \"#utility.yul\":10547:10580   */\n      tag_609\n        /* \"#utility.yul\":10506:10538   */\n      dup2\n        /* \"#utility.yul\":10547:10580   */\n      tag_515\n      jump\t// in\n    tag_609:\n        /* \"#utility.yul\":10207:10715   */\n      swap3\n      swap6\n        /* \"#utility.yul\":10599:10606   */\n      swap3\n      swap5\n      pop\n      pop\n      pop\n        /* \"#utility.yul\":10679:10681   */\n      0x40\n        /* \"#utility.yul\":10664:10682   */\n      swap2\n      swap1\n      swap2\n      add\n        /* \"#utility.yul\":10651:10683   */\n      calldataload\n      swap1\n        /* \"#utility.yul\":10207:10715   */\n      jump\t// out\n        /* \"#utility.yul\":11161:11381   */\n    tag_185:\n        /* \"#utility.yul\":11310:11312   */\n      0x20\n        /* \"#utility.yul\":11299:11308   */\n      dup2\n        /* \"#utility.yul\":11292:11313   */\n      mstore\n        /* \"#utility.yul\":11273:11277   */\n      0x00\n        /* \"#utility.yul\":11330:11375   */\n      tag_537\n        /* \"#utility.yul\":11371:11373   */\n      0x20\n        /* \"#utility.yul\":11360:11369   */\n      dup4\n        /* \"#utility.yul\":11356:11374   */\n      add\n        /* \"#utility.yul\":11348:11354   */\n      dup5\n        /* \"#utility.yul\":11330:11375   */\n      tag_516\n      jump\t// in\n        /* \"#utility.yul\":11386:11786   */\n    tag_199:\n        /* \"#utility.yul\":11588:11590   */\n      0x20\n        /* \"#utility.yul\":11570:11591   */\n      dup1\n      dup3\n      mstore\n        /* \"#utility.yul\":11627:11629   */\n      0x24\n        /* \"#utility.yul\":11607:11625   */\n      swap1\n      dup3\n      add\n        /* \"#utility.yul\":11600:11630   */\n      mstore\n        /* \"#utility.yul\":11666:11700   */\n      0x4d656d6f7279436f6e74726f6c3a204d656d6f727920646f6573206e6f742065\n        /* \"#utility.yul\":11661:11663   */\n      0x40\n        /* \"#utility.yul\":11646:11664   */\n      dup3\n      add\n        /* \"#utility.yul\":11639:11701   */\n      mstore\n      shl(0xe2, 0x1e1a5cdd)\n        /* \"#utility.yul\":11732:11734   */\n      0x60\n        /* \"#utility.yul\":11717:11735   */\n      dup3\n      add\n        /* \"#utility.yul\":11710:11744   */\n      mstore\n        /* \"#utility.yul\":11776:11779   */\n      0x80\n        /* \"#utility.yul\":11761:11780   */\n      add\n      swap1\n        /* \"#utility.yul\":11386:11786   */\n      jump\t// out\n        /* \"#utility.yul\":11791:12171   */\n    tag_202:\n        /* \"#utility.yul\":11870:11871   */\n      0x01\n        /* \"#utility.yul\":11866:11878   */\n      dup2\n      dup2\n      shr\n      swap1\n        /* \"#utility.yul\":11913:11925   */\n      dup3\n      and\n      dup1\n        /* \"#utility.yul\":11934:11995   */\n      tag_618\n      jumpi\n        /* \"#utility.yul\":11988:11992   */\n      0x7f\n        /* \"#utility.yul\":11980:11986   */\n      dup3\n        /* \"#utility.yul\":11976:11993   */\n      and\n        /* \"#utility.yul\":11966:11993   */\n      swap2\n      pop\n        /* \"#utility.yul\":11934:11995   */\n    tag_618:\n        /* \"#utility.yul\":12041:12043   */\n      0x20\n        /* \"#utility.yul\":12033:12039   */\n      dup3\n        /* \"#utility.yul\":12030:12044   */\n      lt\n        /* \"#utility.yul\":12010:12028   */\n      dup2\n        /* \"#utility.yul\":12007:12045   */\n      sub\n        /* \"#utility.yul\":12004:12165   */\n      tag_236\n      jumpi\n        /* \"#utility.yul\":12087:12097   */\n      0x4e487b71\n        /* \"#utility.yul\":12082:12085   */\n      0xe0\n        /* \"#utility.yul\":12078:12098   */\n      shl\n        /* \"#utility.yul\":12075:12076   */\n      0x00\n        /* \"#utility.yul\":12068:12099   */\n      mstore\n        /* \"#utility.yul\":12122:12126   */\n      0x22\n        /* \"#utility.yul\":12119:12120   */\n      0x04\n        /* \"#utility.yul\":12112:12127   */\n      mstore\n        /* \"#utility.yul\":12150:12154   */\n      0x24\n        /* \"#utility.yul\":12147:12148   */\n      0x00\n        /* \"#utility.yul\":12140:12155   */\n      revert\n        /* \"#utility.yul\":12176:12479   */\n    tag_215:\n        /* \"#utility.yul\":12307:12310   */\n      0x00\n        /* \"#utility.yul\":12345:12351   */\n      dup3\n        /* \"#utility.yul\":12339:12352   */\n      mload\n        /* \"#utility.yul\":12391:12397   */\n      dup1\n        /* \"#utility.yul\":12384:12388   */\n      0x20\n        /* \"#utility.yul\":12376:12382   */\n      dup6\n        /* \"#utility.yul\":12372:12389   */\n      add\n        /* \"#utility.yul\":12367:12370   */\n      dup5\n        /* \"#utility.yul\":12361:12398   */\n      mcopy\n        /* \"#utility.yul\":12453:12454   */\n      0x00\n        /* \"#utility.yul\":12417:12433   */\n      swap3\n      add\n        /* \"#utility.yul\":12442:12455   */\n      swap2\n      dup3\n      mstore\n      pop\n        /* \"#utility.yul\":12417:12433   */\n      swap2\n        /* \"#utility.yul\":12176:12479   */\n      swap1\n      pop\n      jump\t// out\n        /* \"#utility.yul\":12484:12904   */\n    tag_224:\n        /* \"#utility.yul\":12686:12688   */\n      0x20\n        /* \"#utility.yul\":12668:12689   */\n      dup1\n      dup3\n      mstore\n        /* \"#utility.yul\":12725:12727   */\n      0x38\n        /* \"#utility.yul\":12705:12723   */\n      swap1\n      dup3\n      add\n        /* \"#utility.yul\":12698:12728   */\n      mstore\n        /* \"#utility.yul\":12764:12798   */\n      0x4d656d6f7279436f6e74726f6c3a204f6e6c79206d656d6f7279206f776e6572\n        /* \"#utility.yul\":12759:12761   */\n      0x40\n        /* \"#utility.yul\":12744:12762   */\n      dup3\n      add\n        /* \"#utility.yul\":12737:12799   */\n      mstore\n        /* \"#utility.yul\":12835:12861   */\n      0x2063616e20706572666f726d207468697320616374696f6e0000000000000000\n        /* \"#utility.yul\":12830:12832   */\n      0x60\n        /* \"#utility.yul\":12815:12833   */\n      dup3\n      add\n        /* \"#utility.yul\":12808:12862   */\n      mstore\n        /* \"#utility.yul\":12894:12897   */\n      0x80\n        /* \"#utility.yul\":12879:12898   */\n      add\n      swap1\n        /* \"#utility.yul\":12484:12904   */\n      jump\t// out\n        /* \"#utility.yul\":12909:13326   */\n    tag_245:\n        /* \"#utility.yul\":13111:13113   */\n      0x20\n        /* \"#utility.yul\":13093:13114   */\n      dup1\n      dup3\n      mstore\n        /* \"#utility.yul\":13150:13152   */\n      0x35\n        /* \"#utility.yul\":13130:13148   */\n      swap1\n      dup3\n      add\n        /* \"#utility.yul\":13123:13153   */\n      mstore\n        /* \"#utility.yul\":13189:13223   */\n      0x4d656d6f7279436f6e74726f6c3a204772616e74656520616464726573732063\n        /* \"#utility.yul\":13184:13186   */\n      0x40\n        /* \"#utility.yul\":13169:13187   */\n      dup3\n      add\n        /* \"#utility.yul\":13162:13224   */\n      mstore\n      shl(0x58, 0x616e6e6f74206265207a65726f2061646472657373)\n        /* \"#utility.yul\":13255:13257   */\n      0x60\n        /* \"#utility.yul\":13240:13258   */\n      dup3\n      add\n        /* \"#utility.yul\":13233:13284   */\n      mstore\n        /* \"#utility.yul\":13316:13319   */\n      0x80\n        /* \"#utility.yul\":13301:13320   */\n      add\n      swap1\n        /* \"#utility.yul\":12909:13326   */\n      jump\t// out\n        /* \"#utility.yul\":13620:14026   */\n    tag_251:\n        /* \"#utility.yul\":13822:13824   */\n      0x20\n        /* \"#utility.yul\":13804:13825   */\n      dup1\n      dup3\n      mstore\n        /* \"#utility.yul\":13861:13863   */\n      0x2a\n        /* \"#utility.yul\":13841:13859   */\n      swap1\n      dup3\n      add\n        /* \"#utility.yul\":13834:13864   */\n      mstore\n        /* \"#utility.yul\":13900:13934   */\n      0x4d656d6f7279436f6e74726f6c3a20446f6d61696e206e616d652063616e6e6f\n        /* \"#utility.yul\":13895:13897   */\n      0x40\n        /* \"#utility.yul\":13880:13898   */\n      dup3\n      add\n        /* \"#utility.yul\":13873:13935   */\n      mstore\n      shl(0xb0, 0x7420626520656d707479)\n        /* \"#utility.yul\":13966:13968   */\n      0x60\n        /* \"#utility.yul\":13951:13969   */\n      dup3\n      add\n        /* \"#utility.yul\":13944:13984   */\n      mstore\n        /* \"#utility.yul\":14016:14019   */\n      0x80\n        /* \"#utility.yul\":14001:14020   */\n      add\n      swap1\n        /* \"#utility.yul\":13620:14026   */\n      jump\t// out\n        /* \"#utility.yul\":14863:15114   */\n    tag_263:\n        /* \"#utility.yul\":14933:14939   */\n      0x00\n        /* \"#utility.yul\":14986:14988   */\n      0x20\n        /* \"#utility.yul\":14974:14983   */\n      dup3\n        /* \"#utility.yul\":14965:14972   */\n      dup5\n        /* \"#utility.yul\":14961:14984   */\n      sub\n        /* \"#utility.yul\":14957:14989   */\n      slt\n        /* \"#utility.yul\":14954:15006   */\n      iszero\n      tag_628\n      jumpi\n        /* \"#utility.yul\":15002:15003   */\n      0x00\n        /* \"#utility.yul\":14999:15000   */\n      0x00\n        /* \"#utility.yul\":14992:15004   */\n      revert\n        /* \"#utility.yul\":14954:15006   */\n    tag_628:\n        /* \"#utility.yul\":15034:15043   */\n      dup2\n        /* \"#utility.yul\":15028:15044   */\n      mload\n        /* \"#utility.yul\":15053:15084   */\n      tag_537\n        /* \"#utility.yul\":15078:15083   */\n      dup2\n        /* \"#utility.yul\":15053:15084   */\n      tag_515\n      jump\t// in\n        /* \"#utility.yul\":15245:15763   */\n    tag_520:\n        /* \"#utility.yul\":15347:15349   */\n      0x1f\n        /* \"#utility.yul\":15342:15345   */\n      dup3\n        /* \"#utility.yul\":15339:15350   */\n      gt\n        /* \"#utility.yul\":15336:15757   */\n      iszero\n      tag_632\n      jumpi\n        /* \"#utility.yul\":15383:15388   */\n      dup1\n        /* \"#utility.yul\":15380:15381   */\n      0x00\n        /* \"#utility.yul\":15373:15389   */\n      mstore\n        /* \"#utility.yul\":15427:15431   */\n      0x20\n        /* \"#utility.yul\":15424:15425   */\n      0x00\n        /* \"#utility.yul\":15414:15432   */\n      keccak256\n        /* \"#utility.yul\":15497:15499   */\n      0x1f\n        /* \"#utility.yul\":15485:15495   */\n      dup5\n        /* \"#utility.yul\":15481:15500   */\n      add\n        /* \"#utility.yul\":15478:15479   */\n      0x05\n        /* \"#utility.yul\":15474:15501   */\n      shr\n        /* \"#utility.yul\":15468:15472   */\n      dup2\n        /* \"#utility.yul\":15464:15502   */\n      add\n        /* \"#utility.yul\":15533:15537   */\n      0x20\n        /* \"#utility.yul\":15521:15531   */\n      dup6\n        /* \"#utility.yul\":15518:15538   */\n      lt\n        /* \"#utility.yul\":15515:15562   */\n      iszero\n      tag_633\n      jumpi\n      pop\n        /* \"#utility.yul\":15556:15560   */\n      dup1\n        /* \"#utility.yul\":15515:15562   */\n    tag_633:\n        /* \"#utility.yul\":15611:15613   */\n      0x1f\n        /* \"#utility.yul\":15606:15609   */\n      dup5\n        /* \"#utility.yul\":15602:15614   */\n      add\n        /* \"#utility.yul\":15599:15600   */\n      0x05\n        /* \"#utility.yul\":15595:15615   */\n      shr\n        /* \"#utility.yul\":15589:15593   */\n      dup3\n        /* \"#utility.yul\":15585:15616   */\n      add\n        /* \"#utility.yul\":15575:15616   */\n      swap2\n      pop\n        /* \"#utility.yul\":15666:15747   */\n    tag_634:\n        /* \"#utility.yul\":15684:15686   */\n      dup2\n        /* \"#utility.yul\":15677:15682   */\n      dup2\n        /* \"#utility.yul\":15674:15687   */\n      lt\n        /* \"#utility.yul\":15666:15747   */\n      iszero\n      tag_636\n      jumpi\n        /* \"#utility.yul\":15743:15744   */\n      0x00\n        /* \"#utility.yul\":15729:15745   */\n      dup2\n      sstore\n        /* \"#utility.yul\":15710:15711   */\n      0x01\n        /* \"#utility.yul\":15699:15712   */\n      add\n        /* \"#utility.yul\":15666:15747   */\n      jump(tag_634)\n    tag_636:\n        /* \"#utility.yul\":15670:15673   */\n      pop\n      pop\n        /* \"#utility.yul\":15336:15757   */\n    tag_632:\n        /* \"#utility.yul\":15245:15763   */\n      pop\n      pop\n      pop\n      jump\t// out\n        /* \"#utility.yul\":15939:17238   */\n    tag_265:\n        /* \"#utility.yul\":16065:16068   */\n      dup2\n        /* \"#utility.yul\":16059:16069   */\n      mload\n      sub(shl(0x40, 0x01), 0x01)\n        /* \"#utility.yul\":16084:16090   */\n      dup2\n        /* \"#utility.yul\":16081:16111   */\n      gt\n        /* \"#utility.yul\":16078:16134   */\n      iszero\n      tag_640\n      jumpi\n        /* \"#utility.yul\":16114:16132   */\n      tag_640\n      tag_517\n      jump\t// in\n    tag_640:\n        /* \"#utility.yul\":16143:16240   */\n      tag_641\n        /* \"#utility.yul\":16233:16239   */\n      dup2\n        /* \"#utility.yul\":16193:16231   */\n      tag_642\n        /* \"#utility.yul\":16225:16229   */\n      dup5\n        /* \"#utility.yul\":16219:16230   */\n      sload\n        /* \"#utility.yul\":16193:16231   */\n      tag_202\n      jump\t// in\n    tag_642:\n        /* \"#utility.yul\":16187:16191   */\n      dup5\n        /* \"#utility.yul\":16143:16240   */\n      tag_520\n      jump\t// in\n    tag_641:\n        /* \"#utility.yul\":16289:16293   */\n      0x20\n        /* \"#utility.yul\":16320:16322   */\n      0x1f\n        /* \"#utility.yul\":16309:16323   */\n      dup3\n      gt\n        /* \"#utility.yul\":16337:16338   */\n      0x01\n        /* \"#utility.yul\":16332:16981   */\n      dup2\n      eq\n      tag_644\n      jumpi\n        /* \"#utility.yul\":17025:17026   */\n      0x00\n        /* \"#utility.yul\":17042:17048   */\n      dup4\n        /* \"#utility.yul\":17039:17128   */\n      iszero\n      tag_645\n      jumpi\n      pop\n        /* \"#utility.yul\":17094:17113   */\n      dup5\n      dup3\n      add\n        /* \"#utility.yul\":17088:17114   */\n      mload\n        /* \"#utility.yul\":17039:17128   */\n    tag_645:\n      not(0x00)\n        /* \"#utility.yul\":15896:15897   */\n      0x03\n        /* \"#utility.yul\":15892:15903   */\n      dup6\n      swap1\n      shl\n        /* \"#utility.yul\":15888:15912   */\n      shr\n        /* \"#utility.yul\":15884:15913   */\n      not\n        /* \"#utility.yul\":15874:15914   */\n      and\n        /* \"#utility.yul\":15920:15921   */\n      0x01\n        /* \"#utility.yul\":15916:15927   */\n      dup5\n      swap1\n      shl\n        /* \"#utility.yul\":15871:15928   */\n      or\n        /* \"#utility.yul\":17141:17222   */\n      dup5\n      sstore\n        /* \"#utility.yul\":16302:17232   */\n      jump(tag_636)\n        /* \"#utility.yul\":16332:16981   */\n    tag_644:\n        /* \"#utility.yul\":15192:15193   */\n      0x00\n        /* \"#utility.yul\":15185:15199   */\n      dup5\n      dup2\n      mstore\n        /* \"#utility.yul\":15229:15233   */\n      0x20\n        /* \"#utility.yul\":15216:15234   */\n      dup2\n      keccak256\n      not(0x1f)\n        /* \"#utility.yul\":16368:16388   */\n      dup6\n      and\n      swap2\n        /* \"#utility.yul\":16486:16708   */\n    tag_648:\n        /* \"#utility.yul\":16500:16507   */\n      dup3\n        /* \"#utility.yul\":16497:16498   */\n      dup2\n        /* \"#utility.yul\":16494:16508   */\n      lt\n        /* \"#utility.yul\":16486:16708   */\n      iszero\n      tag_650\n      jumpi\n        /* \"#utility.yul\":16582:16601   */\n      dup8\n      dup6\n      add\n        /* \"#utility.yul\":16576:16602   */\n      mload\n        /* \"#utility.yul\":16561:16603   */\n      dup3\n      sstore\n        /* \"#utility.yul\":16689:16693   */\n      0x20\n        /* \"#utility.yul\":16674:16694   */\n      swap5\n      dup6\n      add\n      swap5\n        /* \"#utility.yul\":16642:16643   */\n      0x01\n        /* \"#utility.yul\":16630:16644   */\n      swap1\n      swap3\n      add\n      swap2\n        /* \"#utility.yul\":16516:16528   */\n      add\n        /* \"#utility.yul\":16486:16708   */\n      jump(tag_648)\n    tag_650:\n        /* \"#utility.yul\":16490:16493   */\n      pop\n        /* \"#utility.yul\":16736:16742   */\n      dup5\n        /* \"#utility.yul\":16727:16734   */\n      dup3\n        /* \"#utility.yul\":16724:16743   */\n      lt\n        /* \"#utility.yul\":16721:16922   */\n      iszero\n      tag_651\n      jumpi\n        /* \"#utility.yul\":16797:16816   */\n      dup7\n      dup5\n      add\n        /* \"#utility.yul\":16791:16817   */\n      mload\n      not(0x00)\n        /* \"#utility.yul\":16880:16881   */\n      0x03\n        /* \"#utility.yul\":16876:16890   */\n      dup8\n      swap1\n      shl\n        /* \"#utility.yul\":16892:16895   */\n      0xf8\n        /* \"#utility.yul\":16872:16896   */\n      and\n        /* \"#utility.yul\":16868:16905   */\n      shr\n        /* \"#utility.yul\":16864:16906   */\n      not\n        /* \"#utility.yul\":16849:16907   */\n      and\n        /* \"#utility.yul\":16834:16908   */\n      dup2\n      sstore\n        /* \"#utility.yul\":16721:16922   */\n    tag_651:\n      pop\n      pop\n      pop\n      pop\n        /* \"#utility.yul\":16968:16969   */\n      0x01\n        /* \"#utility.yul\":16952:16966   */\n      swap1\n      dup2\n      shl\n        /* \"#utility.yul\":16948:16970   */\n      add\n        /* \"#utility.yul\":16935:16971   */\n      swap1\n      sstore\n      pop\n        /* \"#utility.yul\":15939:17238   */\n      jump\t// out\n        /* \"#utility.yul\":17243:17653   */\n    tag_289:\n        /* \"#utility.yul\":17445:17447   */\n      0x20\n        /* \"#utility.yul\":17427:17448   */\n      dup1\n      dup3\n      mstore\n        /* \"#utility.yul\":17484:17486   */\n      0x2e\n        /* \"#utility.yul\":17464:17482   */\n      swap1\n      dup3\n      add\n        /* \"#utility.yul\":17457:17487   */\n      mstore\n        /* \"#utility.yul\":17523:17557   */\n      0x4d656d6f7279436f6e74726f6c3a204475726174696f6e206d75737420626520\n        /* \"#utility.yul\":17518:17520   */\n      0x40\n        /* \"#utility.yul\":17503:17521   */\n      dup3\n      add\n        /* \"#utility.yul\":17496:17558   */\n      mstore\n      shl(0x94, 0x067726561746572207468616e203)\n        /* \"#utility.yul\":17589:17591   */\n      0x60\n        /* \"#utility.yul\":17574:17592   */\n      dup3\n      add\n        /* \"#utility.yul\":17567:17611   */\n      mstore\n        /* \"#utility.yul\":17643:17646   */\n      0x80\n        /* \"#utility.yul\":17628:17647   */\n      add\n      swap1\n        /* \"#utility.yul\":17243:17653   */\n      jump\t// out\n        /* \"#utility.yul\":17658:17880   */\n    tag_295:\n        /* \"#utility.yul\":17723:17732   */\n      dup1\n      dup3\n      add\n        /* \"#utility.yul\":17744:17754   */\n      dup1\n      dup3\n      gt\n        /* \"#utility.yul\":17741:17874   */\n      iszero\n      tag_326\n      jumpi\n        /* \"#utility.yul\":17796:17806   */\n      0x4e487b71\n        /* \"#utility.yul\":17791:17794   */\n      0xe0\n        /* \"#utility.yul\":17787:17807   */\n      shl\n        /* \"#utility.yul\":17784:17785   */\n      0x00\n        /* \"#utility.yul\":17777:17808   */\n      mstore\n        /* \"#utility.yul\":17831:17835   */\n      0x11\n        /* \"#utility.yul\":17828:17829   */\n      0x04\n        /* \"#utility.yul\":17821:17836   */\n      mstore\n        /* \"#utility.yul\":17859:17863   */\n      0x24\n        /* \"#utility.yul\":17856:17857   */\n      0x00\n        /* \"#utility.yul\":17849:17864   */\n      revert\n        /* \"#utility.yul\":17885:18176   */\n    tag_297:\n        /* \"#utility.yul\":18062:18064   */\n      0x40\n        /* \"#utility.yul\":18051:18060   */\n      dup2\n        /* \"#utility.yul\":18044:18065   */\n      mstore\n        /* \"#utility.yul\":18025:18029   */\n      0x00\n        /* \"#utility.yul\":18082:18127   */\n      tag_656\n        /* \"#utility.yul\":18123:18125   */\n      0x40\n        /* \"#utility.yul\":18112:18121   */\n      dup4\n        /* \"#utility.yul\":18108:18126   */\n      add\n        /* \"#utility.yul\":18100:18106   */\n      dup6\n        /* \"#utility.yul\":18082:18127   */\n      tag_516\n      jump\t// in\n    tag_656:\n        /* \"#utility.yul\":18074:18127   */\n      swap1\n      pop\n        /* \"#utility.yul\":18163:18169   */\n      dup3\n        /* \"#utility.yul\":18158:18160   */\n      0x20\n        /* \"#utility.yul\":18147:18156   */\n      dup4\n        /* \"#utility.yul\":18143:18161   */\n      add\n        /* \"#utility.yul\":18136:18170   */\n      mstore\n        /* \"#utility.yul\":17885:18176   */\n      swap4\n      swap3\n      pop\n      pop\n      pop\n      jump\t// out\n        /* \"#utility.yul\":18181:18591   */\n    tag_306:\n        /* \"#utility.yul\":18383:18385   */\n      0x20\n        /* \"#utility.yul\":18365:18386   */\n      dup1\n      dup3\n      mstore\n        /* \"#utility.yul\":18422:18424   */\n      0x2e\n        /* \"#utility.yul\":18402:18420   */\n      swap1\n      dup3\n      add\n        /* \"#utility.yul\":18395:18425   */\n      mstore\n        /* \"#utility.yul\":18461:18495   */\n      0x4d656d6f7279436f6e74726f6c3a2043616e6e6f74206772616e742061636365\n        /* \"#utility.yul\":18456:18458   */\n      0x40\n        /* \"#utility.yul\":18441:18459   */\n      dup3\n      add\n        /* \"#utility.yul\":18434:18496   */\n      mstore\n      shl(0x91, 0x39b9903a37903cb7bab939b2b633)\n        /* \"#utility.yul\":18527:18529   */\n      0x60\n        /* \"#utility.yul\":18512:18530   */\n      dup3\n      add\n        /* \"#utility.yul\":18505:18549   */\n      mstore\n        /* \"#utility.yul\":18581:18584   */\n      0x80\n        /* \"#utility.yul\":18566:18585   */\n      add\n      swap1\n        /* \"#utility.yul\":18181:18591   */\n      jump\t// out\n        /* \"#utility.yul\":18596:19040   */\n    tag_309:\n        /* \"#utility.yul\":18846:18848   */\n      0x40\n        /* \"#utility.yul\":18835:18844   */\n      dup2\n        /* \"#utility.yul\":18828:18849   */\n      mstore\n        /* \"#utility.yul\":18809:18813   */\n      0x00\n        /* \"#utility.yul\":18872:18917   */\n      tag_659\n        /* \"#utility.yul\":18913:18915   */\n      0x40\n        /* \"#utility.yul\":18902:18911   */\n      dup4\n        /* \"#utility.yul\":18898:18916   */\n      add\n        /* \"#utility.yul\":18890:18896   */\n      dup5\n        /* \"#utility.yul\":18872:18917   */\n      tag_516\n      jump\t// in\n    tag_659:\n        /* \"#utility.yul\":18953:18975   */\n      dup3\n      dup2\n      sub\n        /* \"#utility.yul\":18948:18950   */\n      0x20\n        /* \"#utility.yul\":18933:18951   */\n      swap4\n      dup5\n      add\n        /* \"#utility.yul\":18926:18976   */\n      mstore\n        /* \"#utility.yul\":19000:19001   */\n      0x00\n        /* \"#utility.yul\":18985:19002   */\n      dup2\n      mstore\n        /* \"#utility.yul\":19019:19034   */\n      swap2\n      swap1\n      swap2\n      add\n      swap3\n        /* \"#utility.yul\":18596:19040   */\n      swap2\n      pop\n      pop\n      jump\t// out\n        /* \"#utility.yul\":19407:19861   */\n    tag_407:\n        /* \"#utility.yul\":19632:19634   */\n      0x60\n        /* \"#utility.yul\":19621:19630   */\n      dup2\n        /* \"#utility.yul\":19614:19635   */\n      mstore\n        /* \"#utility.yul\":19595:19599   */\n      0x00\n        /* \"#utility.yul\":19658:19703   */\n      tag_662\n        /* \"#utility.yul\":19699:19701   */\n      0x60\n        /* \"#utility.yul\":19688:19697   */\n      dup4\n        /* \"#utility.yul\":19684:19702   */\n      add\n        /* \"#utility.yul\":19676:19682   */\n      dup7\n        /* \"#utility.yul\":19658:19703   */\n      tag_516\n      jump\t// in\n    tag_662:\n        /* \"#utility.yul\":19751:19760   */\n      dup3\n        /* \"#utility.yul\":19743:19749   */\n      dup2\n        /* \"#utility.yul\":19739:19761   */\n      sub\n        /* \"#utility.yul\":19734:19736   */\n      0x20\n        /* \"#utility.yul\":19723:19732   */\n      dup5\n        /* \"#utility.yul\":19719:19737   */\n      add\n        /* \"#utility.yul\":19712:19762   */\n      mstore\n        /* \"#utility.yul\":19779:19812   */\n      tag_663\n        /* \"#utility.yul\":19805:19811   */\n      dup2\n        /* \"#utility.yul\":19797:19803   */\n      dup7\n        /* \"#utility.yul\":19779:19812   */\n      tag_516\n      jump\t// in\n    tag_663:\n        /* \"#utility.yul\":19771:19812   */\n      swap2\n      pop\n      pop\n        /* \"#utility.yul\":19848:19854   */\n      dup3\n        /* \"#utility.yul\":19843:19845   */\n      0x40\n        /* \"#utility.yul\":19832:19841   */\n      dup4\n        /* \"#utility.yul\":19828:19846   */\n      add\n        /* \"#utility.yul\":19821:19855   */\n      mstore\n        /* \"#utility.yul\":19407:19861   */\n      swap5\n      swap4\n      pop\n      pop\n      pop\n      pop\n      jump\t// out\n        /* \"#utility.yul\":19866:20381   */\n    tag_422:\n        /* \"#utility.yul\":20144:20146   */\n      0x60\n        /* \"#utility.yul\":20133:20142   */\n      dup2\n        /* \"#utility.yul\":20126:20147   */\n      mstore\n        /* \"#utility.yul\":20107:20111   */\n      0x00\n        /* \"#utility.yul\":20170:20215   */\n      tag_665\n        /* \"#utility.yul\":20211:20213   */\n      0x60\n        /* \"#utility.yul\":20200:20209   */\n      dup4\n        /* \"#utility.yul\":20196:20214   */\n      add\n        /* \"#utility.yul\":20188:20194   */\n      dup6\n        /* \"#utility.yul\":20170:20215   */\n      tag_516\n      jump\t// in\n    tag_665:\n        /* \"#utility.yul\":20263:20272   */\n      dup3\n        /* \"#utility.yul\":20255:20261   */\n      dup2\n        /* \"#utility.yul\":20251:20273   */\n      sub\n        /* \"#utility.yul\":20246:20248   */\n      0x20\n        /* \"#utility.yul\":20235:20244   */\n      dup5\n        /* \"#utility.yul\":20231:20249   */\n      add\n        /* \"#utility.yul\":20224:20274   */\n      mstore\n        /* \"#utility.yul\":20298:20299   */\n      0x00\n        /* \"#utility.yul\":20290:20296   */\n      dup2\n        /* \"#utility.yul\":20283:20300   */\n      mstore\n        /* \"#utility.yul\":20329:20331   */\n      0x20\n        /* \"#utility.yul\":20321:20327   */\n      dup2\n        /* \"#utility.yul\":20317:20332   */\n      add\n        /* \"#utility.yul\":20309:20332   */\n      swap2\n      pop\n      pop\n        /* \"#utility.yul\":20368:20374   */\n      dup3\n        /* \"#utility.yul\":20363:20365   */\n      0x40\n        /* \"#utility.yul\":20352:20361   */\n      dup4\n        /* \"#utility.yul\":20348:20366   */\n      add\n        /* \"#utility.yul\":20341:20375   */\n      mstore\n        /* \"#utility.yul\":19866:20381   */\n      swap4\n      swap3\n      pop\n      pop\n      pop\n      jump\t// out\n        /* \"#utility.yul\":20386:20769   */\n    tag_440:\n        /* \"#utility.yul\":20583:20585   */\n      0x40\n        /* \"#utility.yul\":20572:20581   */\n      dup2\n        /* \"#utility.yul\":20565:20586   */\n      mstore\n        /* \"#utility.yul\":20546:20550   */\n      0x00\n        /* \"#utility.yul\":20609:20654   */\n      tag_667\n        /* \"#utility.yul\":20650:20652   */\n      0x40\n        /* \"#utility.yul\":20639:20648   */\n      dup4\n        /* \"#utility.yul\":20635:20653   */\n      add\n        /* \"#utility.yul\":20627:20633   */\n      dup6\n        /* \"#utility.yul\":20609:20654   */\n      tag_516\n      jump\t// in\n    tag_667:\n        /* \"#utility.yul\":20702:20711   */\n      dup3\n        /* \"#utility.yul\":20694:20700   */\n      dup2\n        /* \"#utility.yul\":20690:20712   */\n      sub\n        /* \"#utility.yul\":20685:20687   */\n      0x20\n        /* \"#utility.yul\":20674:20683   */\n      dup5\n        /* \"#utility.yul\":20670:20688   */\n      add\n        /* \"#utility.yul\":20663:20713   */\n      mstore\n        /* \"#utility.yul\":20730:20763   */\n      tag_668\n        /* \"#utility.yul\":20756:20762   */\n      dup2\n        /* \"#utility.yul\":20748:20754   */\n      dup6\n        /* \"#utility.yul\":20730:20763   */\n      tag_516\n      jump\t// in\n    tag_668:\n        /* \"#utility.yul\":20722:20763   */\n      swap6\n        /* \"#utility.yul\":20386:20769   */\n      swap5\n      pop\n      pop\n      pop\n      pop\n      pop\n      jump\t// out\n\n    auxdata: 0xa2646970667358221220fafc34d8fdf613ae106882c418139dbc2602566730e8133958476d6221ecd69564736f6c634300081c0033\n}\n",
				"bytecode": {
					"linkReferences": {},
					"object": "60a060405234801561000f575f5ffd5b5060405161362238038061362283398101604081905261002e916100bf565b6001600160a01b0381166100ae5760405162461bcd60e51b815260206004820152603560248201527f4d656d6f7279436f6e74726f6c3a20446f6d61696e207265676973747279206160448201527f6464726573732063616e6e6f74206265207a65726f0000000000000000000000606482015260840160405180910390fd5b6001600160a01b03166080526100ec565b5f602082840312156100cf575f5ffd5b81516001600160a01b03811681146100e5575f5ffd5b9392505050565b6080516134d16101515f395f818161024f01528181610dea01528181610fe20152818161118b015281816116d801528181611ac501528181611dbc0152818161217e015281816123030152818161247c0152818161259a01526129c401526134d15ff3fe608060405234801561000f575f5ffd5b506004361061021e575f3560e01c806376e042a21161012a5780639b059c97116100b4578063edfba33611610079578063edfba336146105bd578063ee1c34ad146105d0578063f5149c52146105f0578063f842044314610603578063ff57706a14610636575f5ffd5b80639b059c971461050c578063abf99fc91461053c578063cdd145901461054f578063dc10008314610562578063e605569b146105aa575f5ffd5b80638d9beb1a116100fa5780638d9beb1a1461049657806390e00623146104a9578063925c879c146104bc5780639a04f839146104cf5780639aa1e8d2146104e2575f5ffd5b806376e042a214610430578063778146461461044357806383177db3146104705780638ae5a7f614610483575f5ffd5b80635170aca7116101ab5780637062e1e01161017b5780637062e1e0146103c057806372e6ffec146103d357806374e12a86146103e65780637602ade01461040a578063761b232b1461041d575f5ffd5b80635170aca71461035d57806367c69535146103705780636c8c7a6f146103835780636dd6442814610396575f5ffd5b80632b5afa64116101f15780632b5afa64146102be57806338debead146102d157806341411ec1146102e457806341cde2ca146103375780634d392dfe1461034a575f5ffd5b806301a085f9146102225780630944a93d1461024a5780630f26fe45146102895780631d24eff41461029e575b5f5ffd5b610235610230366004612b32565b610649565b60405190151581526020015b60405180910390f35b6102717f000000000000000000000000000000000000000000000000000000000000000081565b6040516001600160a01b039091168152602001610241565b61029c610297366004612b60565b6109eb565b005b6102b16102ac366004612b60565b610ae1565b6040516102419190612ba5565b61029c6102cc366004612bff565b610c3f565b61029c6102df366004612cbe565b610ccf565b6103296102f2366004612d01565b600660209081525f938452604080852082529284529190922082518084018301805192815290830193909201929092209190525481565b604051908152602001610241565b61029c610345366004612d5e565b610fa8565b61029c610358366004612d8f565b6110c6565b61029c61036b366004612dd8565b6112ad565b61029c61037e366004612e0e565b6113ac565b610235610391366004612e40565b611534565b6102356103a4366004612b60565b5f908152602081905260409020546001600160a01b0316151590565b61029c6103ce366004612e40565b6115a1565b61029c6103e1366004612d5e565b61169e565b6103f96103f4366004612b60565b6117c2565b604051610241959493929190612e6a565b61029c610418366004612e40565b611885565b61029c61042b366004612e40565b6119b7565b61029c61043e366004612eae565b611a6c565b610235610451366004612eef565b600160209081525f928352604080842090915290825290205460ff1681565b61023561047e366004612b32565b611bd1565b61029c610491366004612f1b565b611d42565b61029c6104a4366004612f87565b611f23565b61029c6104b7366004612bff565b61208f565b61029c6104ca366004612fbe565b612144565b61029c6104dd366004612d5e565b6122c9565b6103296104f0366004612eef565b600260209081525f928352604080842090915290825290205481565b61032961051a36600461300b565b600460209081525f938452604080852082529284528284209052825290205481565b61029c61054a366004612eae565b6123d6565b61029c61055d366004612eae565b612560565b610235610570366004612d01565b600560209081525f938452604080852082529284529190922082518084018301805192815290830193909201929092209190525460ff1681565b6102356105b8366004612bff565b612698565b61029c6105cb366004612dd8565b6126f2565b6105e36105de366004612b60565b6127f4565b6040516102419190613049565b61029c6105fe366004612bff565b6128cb565b61023561061136600461300b565b600360209081525f938452604080852082529284528284209052825290205460ff1681565b61029c610644366004612fbe565b612969565b5f8281526020819052604081205483906001600160a01b03166106875760405162461bcd60e51b815260040161067e9061305b565b60405180910390fd5b5f84815260208181526040808320815160a08101835281546001600160a01b039081168252600183015494820194909452600282015492810192909252600381015490921660608201526004820180549192916080840191906106e99061309f565b80601f01602080910402602001604051908101604052809291908181526020018280546107159061309f565b80156107605780601f1061073757610100808354040283529160200191610760565b820191905f5260205f20905b81548152906001019060200180831161074357829003601f168201915b5050505050815250509050805f01516001600160a01b0316846001600160a01b0316036107915760019250506109e4565b80516001600160a01b039081165f9081526001602090815260408083209388168352929052205460ff16156108325780516001600160a01b039081165f908152600260209081526040808320938816835292905220541580159061081a575080516001600160a01b039081165f9081526002602090815260408083209388168352929052205442115b15610828575f9250506109e4565b60019250506109e4565b80516001600160a01b039081165f90815260036020908152604080832093881683529281528282208883529052205460ff16156108e05780516001600160a01b039081165f9081526004602090815260408083209388168352928152828220888352905220541580159061081a575080516001600160a01b039081165f908152600460209081526040808320938816835292815282822088835290522054421115610828575f9250506109e4565b80516001600160a01b039081165f908152600560209081526040808320938816835292905281902060808301519151909161091a916130d1565b9081526040519081900360200190205460ff16156109df5780516001600160a01b039081165f9081526006602090815260408083209388168352929052818120608084015192519192909161096f91906130d1565b90815260200160405180910390205411801561081a575080516001600160a01b039081165f90815260066020908152604080832093881683529290528190206080830151915190916109c0916130d1565b908152602001604051809103902054421115610828575f9250506109e4565b5f9250505b5092915050565b5f8181526020819052604090205481906001600160a01b03163314610a225760405162461bcd60e51b815260040161067e906130e7565b5f8281526020819052604090205482906001600160a01b0316610a575760405162461bcd60e51b815260040161067e9061305b565b5f83815260208190526040812080546001600160a01b03198082168355600183018490556002830184905560038301805490911690556001600160a01b031691610aa46004830182612acc565b505060405184906001600160a01b038316907fce43e25c3862a18fc518ceb279ba32211116b6898e5ea653f120559df2c168da905f90a350505050565b610b216040518060a001604052805f6001600160a01b031681526020015f81526020015f81526020015f6001600160a01b03168152602001606081525090565b5f8281526020819052604090205482906001600160a01b0316610b565760405162461bcd60e51b815260040161067e9061305b565b5f8381526020818152604091829020825160a08101845281546001600160a01b03908116825260018301549382019390935260028201549381019390935260038101549091166060830152600481018054608084019190610bb69061309f565b80601f0160208091040260200160405190810160405280929190818152602001828054610be29061309f565b8015610c2d5780601f10610c0457610100808354040283529160200191610c2d565b820191905f5260205f20905b815481529060010190602001808311610c1057829003601f168201915b50505050508152505091505b50919050565b6001600160a01b038116610c655760405162461bcd60e51b815260040161067e90613144565b335f8181526001602090815260408083206001600160a01b038616808552908352818420805460ff191690558151838152928301939093529192917f0a2382b7b0f44ee62df753c00034038c109332bf9b8f52418af74aa2859780fb91015b60405180910390a350565b805f815111610cf05760405162461bcd60e51b815260040161067e90613199565b82610d515760405162461bcd60e51b815260206004820152602b60248201527f4d656d6f7279436f6e74726f6c3a204d6574616461746120686173682063616e60448201526a6e6f74206265207a65726f60a81b606482015260840161067e565b5f838152602081905260409020546001600160a01b031615610dd15760405162461bcd60e51b815260206004820152603360248201527f4d656d6f7279436f6e74726f6c3a204d656d6f727920776974682074686973206044820152726861736820616c72656164792065786973747360681b606482015260840161067e565b6040516394310e5160e01b81525f906001600160a01b037f000000000000000000000000000000000000000000000000000000000000000016906394310e5190610e1f908690600401613049565b602060405180830381865afa158015610e3a573d5f5f3e3d5ffd5b505050506040513d601f19601f82011682018060405250810190610e5e91906131e3565b6040805160a0810182523381526020808201888152428385019081526001600160a01b0380871660608601908152608086018b81525f8d81529586905296909420855181549083166001600160a01b031991821617825593516001820155915160028301559251600382018054919094169216919091179091559151929350916004820190610eed908261324a565b5050335f8181526001602081815260408084206001600160a01b038816855290915291829020805460ff19169091179055518692507f6c1a2d58efe5be4c401d24d5828cb48178c534c9aa1575f7b1d257aab899575490610f4f908790613049565b60405180910390a3806001600160a01b0316336001600160a01b03167fc7e5c007251689b9bc3cb624f55714afc5988f3e3b4e20cc6a606d7bad6faeca85604051610f9a9190613049565b60405180910390a350505050565b805f815111610fc95760405162461bcd60e51b815260040161067e90613199565b6040516394310e5160e01b81525f906001600160a01b037f000000000000000000000000000000000000000000000000000000000000000016906394310e5190611017908690600401613049565b602060405180830381865afa158015611032573d5f5f3e3d5ffd5b505050506040513d601f19601f8201168201806040525081019061105691906131e3565b335f8181526001602081815260408084206001600160a01b038716808652925292839020805460ff19169092179091559051929350917fc7e5c007251689b9bc3cb624f55714afc5988f3e3b4e20cc6a606d7bad6faeca906110b9908790613049565b60405180910390a3505050565b5f8281526020819052604090205482906001600160a01b03166110fb5760405162461bcd60e51b815260040161067e9061305b565b5f8381526020819052604090205483906001600160a01b031633146111325760405162461bcd60e51b815260040161067e906130e7565b845f8151116111535760405162461bcd60e51b815260040161067e90613199565b5f84116111725760405162461bcd60e51b815260040161067e90613304565b6040516394310e5160e01b81525f906001600160a01b037f000000000000000000000000000000000000000000000000000000000000000016906394310e51906111c0908a90600401613049565b602060405180830381865afa1580156111db573d5f5f3e3d5ffd5b505050506040513d601f19601f820116820180604052508101906111ff91906131e3565b90505f61120c8642613352565b335f8181526004602090815260408083206001600160a01b0388168085529083528184208d855283528184208690558484526003835281842081855283528184208d855290925291829020805460ff19166001179055905192935089929091907f2b27e4b5b88ebc1768768eaf2b99a3afa4e1c2b7df951b05a311c572178847c19061129b908d908790613371565b60405180910390a45050505050505050565b805f8151116112ce5760405162461bcd60e51b815260040161067e90613199565b6001600160a01b0383166112f45760405162461bcd60e51b815260040161067e90613144565b336001600160a01b0384160361131c5760405162461bcd60e51b815260040161067e90613392565b335f9081526005602090815260408083206001600160a01b0387168452909152908190209051600191906113519085906130d1565b908152604051908190036020018120805492151560ff19909316929092179091556001600160a01b0384169033907f21b007e682e9017de8c120ab3ab126ed8d87e284b1ee985b14b0f759e9a7f46a906110b99086906133e0565b5f8281526020819052604090205482906001600160a01b03166113e15760405162461bcd60e51b815260040161067e9061305b565b5f8381526020819052604090205483906001600160a01b031633146114185760405162461bcd60e51b815260040161067e906130e7565b6001600160a01b03851661143e5760405162461bcd60e51b815260040161067e90613144565b336001600160a01b038616036114665760405162461bcd60e51b815260040161067e90613392565b5f83116114855760405162461bcd60e51b815260040161067e90613304565b5f6114908442613352565b335f8181526004602090815260408083206001600160a01b038c168085529083528184208b855283528184208690558484526003835281842081855283528184208b85528352818420805460ff1916600117905581518281529182019390935290810184905292935087929091907f2b27e4b5b88ebc1768768eaf2b99a3afa4e1c2b7df951b05a311c572178847c1906060015b60405180910390a4505050505050565b335f9081526004602090815260408083206001600160a01b03861684528252808320848452909152812054810361156c57505f61159b565b50335f9081526004602090815260408083206001600160a01b0386168452825280832084845290915290205442115b92915050565b6001600160a01b0382166115c75760405162461bcd60e51b815260040161067e90613144565b336001600160a01b038316036115ef5760405162461bcd60e51b815260040161067e90613392565b5f811161160e5760405162461bcd60e51b815260040161067e90613304565b5f6116198242613352565b335f8181526002602090815260408083206001600160a01b03891680855290835281842086905584845260018084528285208286528452828520805460ff19169091179055815182815291820193909352908101849052929350917f90056cefbf0e5574cde1ef22f96c2bb2d33aa175ab27e44c77bda129cf657390906060016110b9565b805f8151116116bf5760405162461bcd60e51b815260040161067e90613199565b6040516394310e5160e01b81525f906001600160a01b037f000000000000000000000000000000000000000000000000000000000000000016906394310e519061170d908690600401613049565b602060405180830381865afa158015611728573d5f5f3e3d5ffd5b505050506040513d601f19601f8201168201806040525081019061174c91906131e3565b335f8181526002602090815260408083206001600160a01b0386168085529083528184208490558484526001835281842081855290925291829020805460ff191690559051929350917fbcba83a04e29c80214e54acb8b601353d47121572200f79340246e818bda9d09906110b9908790613049565b5f60208190529081526040902080546001820154600283015460038401546004850180546001600160a01b03958616969495939492909316926118049061309f565b80601f01602080910402602001604051908101604052809291908181526020018280546118309061309f565b801561187b5780601f106118525761010080835404028352916020019161187b565b820191905f5260205f20905b81548152906001019060200180831161185e57829003601f168201915b5050505050905085565b5f8181526020819052604090205481906001600160a01b03166118ba5760405162461bcd60e51b815260040161067e9061305b565b5f8281526020819052604090205482906001600160a01b031633146118f15760405162461bcd60e51b815260040161067e906130e7565b6001600160a01b0384166119175760405162461bcd60e51b815260040161067e90613144565b336001600160a01b0385160361193f5760405162461bcd60e51b815260040161067e90613392565b335f8181526003602090815260408083206001600160a01b0389168085529083528184208885528352818420805460ff191660011790558151838152928301939093528693917fbdbadf567b0cf71c55301c89b47c08e1d0aa234f1a0148a085f5ad923e86ad6e91015b60405180910390a450505050565b6001600160a01b0382166119dd5760405162461bcd60e51b815260040161067e90613144565b335f8181526003602090815260408083206001600160a01b0387168085529083528184208685528352818420805460ff1916905584845260048352818420818552835281842086855283528184208490558151838152928301939093528493917f768e414f25614956089faed55a8692f78fe5a118c68bb4ad1d49741a8024c2d3910160405180910390a45050565b815f815111611a8d5760405162461bcd60e51b815260040161067e90613199565b5f8211611aac5760405162461bcd60e51b815260040161067e90613304565b6040516394310e5160e01b81525f906001600160a01b037f000000000000000000000000000000000000000000000000000000000000000016906394310e5190611afa908790600401613049565b602060405180830381865afa158015611b15573d5f5f3e3d5ffd5b505050506040513d601f19601f82011682018060405250810190611b3991906131e3565b90505f611b468442613352565b335f8181526002602090815260408083206001600160a01b038816808552908352818420869055848452600180845282852082865290935292819020805460ff191690921790915551929350917f90056cefbf0e5574cde1ef22f96c2bb2d33aa175ab27e44c77bda129cf65739090611bc29089908690613371565b60405180910390a35050505050565b5f8281526020819052604081205483906001600160a01b0316611c065760405162461bcd60e51b815260040161067e9061305b565b5f84815260208181526040808320815160a08101835281546001600160a01b03908116825260018301549482019490945260028201549281019290925260038101549092166060820152600482018054919291608084019190611c689061309f565b80601f0160208091040260200160405190810160405280929190818152602001828054611c949061309f565b8015611cdf5780601f10611cb657610100808354040283529160200191611cdf565b820191905f5260205f20905b815481529060010190602001808311611cc257829003601f168201915b5050505050815250509050805f01516001600160a01b0316846001600160a01b031603611d105760019250506109e4565b516001600160a01b039081165f9081526001602090815260408083209387168352929052205460ff1691505092915050565b825f815111611d635760405162461bcd60e51b815260040161067e90613199565b825f815111611d845760405162461bcd60e51b815260040161067e90613199565b5f8311611da35760405162461bcd60e51b815260040161067e90613304565b6040516394310e5160e01b81525f906001600160a01b037f000000000000000000000000000000000000000000000000000000000000000016906394310e5190611df1908990600401613049565b602060405180830381865afa158015611e0c573d5f5f3e3d5ffd5b505050506040513d601f19601f82011682018060405250810190611e3091906131e3565b90505f611e3d8542613352565b335f9081526006602090815260408083206001600160a01b03871684529091529081902090519192508291611e739089906130d1565b908152604080516020928190038301812093909355335f908152600583528181206001600160a01b03871682529092529020600191611eb39089906130d1565b908152604051908190036020018120805492151560ff19909316929092179091556001600160a01b0383169033907f6adf36a44f7c2dfa3d1f13fadd298ad4651f69261818396df54cb9effbcab99690611f12908a908c908790613408565b60405180910390a350505050505050565b815f815111611f445760405162461bcd60e51b815260040161067e90613199565b6001600160a01b038416611f6a5760405162461bcd60e51b815260040161067e90613144565b336001600160a01b03851603611f925760405162461bcd60e51b815260040161067e90613392565b5f8211611fb15760405162461bcd60e51b815260040161067e90613304565b5f611fbc8342613352565b335f9081526006602090815260408083206001600160a01b038a1684529091529081902090519192508291611ff29087906130d1565b908152604080516020928190038301812093909355335f908152600583528181206001600160a01b038a16825290925290206001916120329087906130d1565b908152604051908190036020018120805492151560ff19909316929092179091556001600160a01b0386169033907f6adf36a44f7c2dfa3d1f13fadd298ad4651f69261818396df54cb9effbcab99690611bc2908890869061343d565b6001600160a01b0381166120b55760405162461bcd60e51b815260040161067e90613144565b336001600160a01b038216036120dd5760405162461bcd60e51b815260040161067e90613392565b335f8181526001602081815260408084206001600160a01b038716808652908352818520805460ff19169094179093558051828152918201939093529092917fc7e5c007251689b9bc3cb624f55714afc5988f3e3b4e20cc6a606d7bad6faeca9101610cc4565b815f8151116121655760405162461bcd60e51b815260040161067e90613199565b6040516394310e5160e01b81525f906001600160a01b037f000000000000000000000000000000000000000000000000000000000000000016906394310e51906121b3908790600401613049565b602060405180830381865afa1580156121ce573d5f5f3e3d5ffd5b505050506040513d601f19601f820116820180604052508101906121f291906131e3565b335f9081526005602090815260408083206001600160a01b0385168452909152808220905192935090916122279086906130d1565b9081526040805160209281900383018120805460ff191694151594909417909355335f908152600683528181206001600160a01b0386168252909252812090916122729086906130d1565b908152602001604051809103902081905550806001600160a01b0316336001600160a01b03167fb09e079155e58ebb686e73c2048035a5a0e9f191531017ebb8fcd588aae9fedb8587604051610f9a92919061346e565b805f8151116122ea5760405162461bcd60e51b815260040161067e90613199565b6040516394310e5160e01b81525f906001600160a01b037f000000000000000000000000000000000000000000000000000000000000000016906394310e5190612338908690600401613049565b602060405180830381865afa158015612353573d5f5f3e3d5ffd5b505050506040513d601f19601f8201168201806040525081019061237791906131e3565b335f8181526001602090815260408083206001600160a01b038616808552925291829020805460ff191690559051929350917f0a2382b7b0f44ee62df753c00034038c109332bf9b8f52418af74aa2859780fb906110b9908790613049565b5f8181526020819052604090205481906001600160a01b031661240b5760405162461bcd60e51b815260040161067e9061305b565b5f8281526020819052604090205482906001600160a01b031633146124425760405162461bcd60e51b815260040161067e906130e7565b835f8151116124635760405162461bcd60e51b815260040161067e90613199565b6040516394310e5160e01b81525f906001600160a01b037f000000000000000000000000000000000000000000000000000000000000000016906394310e51906124b1908990600401613049565b602060405180830381865afa1580156124cc573d5f5f3e3d5ffd5b505050506040513d601f19601f820116820180604052508101906124f091906131e3565b335f8181526003602090815260408083206001600160a01b0386168085529083528184208b855290925291829020805460ff19166001179055905192935087929091907fbdbadf567b0cf71c55301c89b47c08e1d0aa234f1a0148a085f5ad923e86ad6e90611524908b90613049565b815f8151116125815760405162461bcd60e51b815260040161067e90613199565b6040516394310e5160e01b81525f906001600160a01b037f000000000000000000000000000000000000000000000000000000000000000016906394310e51906125cf908790600401613049565b602060405180830381865afa1580156125ea573d5f5f3e3d5ffd5b505050506040513d601f19601f8201168201806040525081019061260e91906131e3565b335f8181526003602090815260408083206001600160a01b0386168085529083528184208985528352818420805460ff1916905584845260048352818420818552835281842089855290925280832092909255905192935085929091907f768e414f25614956089faed55a8692f78fe5a118c68bb4ad1d49741a8024c2d3906119a9908990613049565b335f9081526002602090815260408083206001600160a01b038516845290915281205481036126c857505f919050565b50335f9081526002602090815260408083206001600160a01b039490941683529290522054421190565b6001600160a01b0382166127185760405162461bcd60e51b815260040161067e90613144565b335f9081526005602090815260408083206001600160a01b038616845290915280822090516127489084906130d1565b9081526040805160209281900383018120805460ff191694151594909417909355335f908152600683528181206001600160a01b0387168252909252812090916127939084906130d1565b908152602001604051809103902081905550816001600160a01b0316336001600160a01b03167fb09e079155e58ebb686e73c2048035a5a0e9f191531017ebb8fcd588aae9fedb836040516127e891906133e0565b60405180910390a35050565b5f8181526020819052604090205460609082906001600160a01b031661282c5760405162461bcd60e51b815260040161067e9061305b565b5f83815260208190526040902060040180546128479061309f565b80601f01602080910402602001604051908101604052809291908181526020018280546128739061309f565b80156128be5780601f10612895576101008083540402835291602001916128be565b820191905f5260205f20905b8154815290600101906020018083116128a157829003601f168201915b5050505050915050919050565b6001600160a01b0381166128f15760405162461bcd60e51b815260040161067e90613144565b335f8181526002602090815260408083206001600160a01b038616808552908352818420849055848452600183528184208185528352818420805460ff191690558151838152928301939093529192917fbcba83a04e29c80214e54acb8b601353d47121572200f79340246e818bda9d099101610cc4565b815f81511161298a5760405162461bcd60e51b815260040161067e90613199565b815f8151116129ab5760405162461bcd60e51b815260040161067e90613199565b6040516394310e5160e01b81525f906001600160a01b037f000000000000000000000000000000000000000000000000000000000000000016906394310e51906129f9908890600401613049565b602060405180830381865afa158015612a14573d5f5f3e3d5ffd5b505050506040513d601f19601f82011682018060405250810190612a3891906131e3565b335f9081526005602090815260408083206001600160a01b0385168452909152908190209051919250600191612a6f9087906130d1565b908152604051908190036020018120805492151560ff19909316929092179091556001600160a01b0382169033907f21b007e682e9017de8c120ab3ab126ed8d87e284b1ee985b14b0f759e9a7f46a90611bc29088908a9061346e565b508054612ad89061309f565b5f825580601f10612ae7575050565b601f0160209004905f5260205f2090810190612b039190612b06565b50565b5b80821115612b1a575f8155600101612b07565b5090565b6001600160a01b0381168114612b03575f5ffd5b5f5f60408385031215612b43575f5ffd5b823591506020830135612b5581612b1e565b809150509250929050565b5f60208284031215612b70575f5ffd5b5035919050565b5f81518084528060208401602086015e5f602082860101526020601f19601f83011685010191505092915050565b6020815260018060a01b038251166020820152602082015160408201526040820151606082015260018060a01b0360608301511660808201525f608083015160a080840152612bf760c0840182612b77565b949350505050565b5f60208284031215612c0f575f5ffd5b8135612c1a81612b1e565b9392505050565b634e487b7160e01b5f52604160045260245ffd5b5f82601f830112612c44575f5ffd5b81356001600160401b03811115612c5d57612c5d612c21565b604051601f8201601f19908116603f011681016001600160401b0381118282101715612c8b57612c8b612c21565b604052818152838201602001851015612ca2575f5ffd5b816020850160208301375f918101602001919091529392505050565b5f5f60408385031215612ccf575f5ffd5b8235915060208301356001600160401b03811115612ceb575f5ffd5b612cf785828601612c35565b9150509250929050565b5f5f5f60608486031215612d13575f5ffd5b8335612d1e81612b1e565b92506020840135612d2e81612b1e565b915060408401356001600160401b03811115612d48575f5ffd5b612d5486828701612c35565b9150509250925092565b5f60208284031215612d6e575f5ffd5b81356001600160401b03811115612d83575f5ffd5b612bf784828501612c35565b5f5f5f60608486031215612da1575f5ffd5b83356001600160401b03811115612db6575f5ffd5b612dc286828701612c35565b9660208601359650604090950135949350505050565b5f5f60408385031215612de9575f5ffd5b8235612df481612b1e565b915060208301356001600160401b03811115612ceb575f5ffd5b5f5f5f60608486031215612e20575f5ffd5b8335612e2b81612b1e565b95602085013595506040909401359392505050565b5f5f60408385031215612e51575f5ffd5b8235612e5c81612b1e565b946020939093013593505050565b6001600160a01b03868116825260208201869052604082018590528316606082015260a0608082018190525f90612ea390830184612b77565b979650505050505050565b5f5f60408385031215612ebf575f5ffd5b82356001600160401b03811115612ed4575f5ffd5b612ee085828601612c35565b95602094909401359450505050565b5f5f60408385031215612f00575f5ffd5b8235612f0b81612b1e565b91506020830135612b5581612b1e565b5f5f5f60608486031215612f2d575f5ffd5b83356001600160401b03811115612f42575f5ffd5b612f4e86828701612c35565b93505060208401356001600160401b03811115612f69575f5ffd5b612f7586828701612c35565b93969395505050506040919091013590565b5f5f5f60608486031215612f99575f5ffd5b8335612fa481612b1e565b925060208401356001600160401b03811115612f69575f5ffd5b5f5f60408385031215612fcf575f5ffd5b82356001600160401b03811115612fe4575f5ffd5b612ff085828601612c35565b92505060208301356001600160401b03811115612ceb575f5ffd5b5f5f5f6060848603121561301d575f5ffd5b833561302881612b1e565b9250602084013561303881612b1e565b929592945050506040919091013590565b602081525f612c1a6020830184612b77565b60208082526024908201527f4d656d6f7279436f6e74726f6c3a204d656d6f727920646f6573206e6f7420656040820152631e1a5cdd60e21b606082015260800190565b600181811c908216806130b357607f821691505b602082108103610c3957634e487b7160e01b5f52602260045260245ffd5b5f82518060208501845e5f920191825250919050565b60208082526038908201527f4d656d6f7279436f6e74726f6c3a204f6e6c79206d656d6f7279206f776e657260408201527f2063616e20706572666f726d207468697320616374696f6e0000000000000000606082015260800190565b60208082526035908201527f4d656d6f7279436f6e74726f6c3a204772616e74656520616464726573732063604082015274616e6e6f74206265207a65726f206164647265737360581b606082015260800190565b6020808252602a908201527f4d656d6f7279436f6e74726f6c3a20446f6d61696e206e616d652063616e6e6f6040820152697420626520656d70747960b01b606082015260800190565b5f602082840312156131f3575f5ffd5b8151612c1a81612b1e565b601f82111561324557805f5260205f20601f840160051c810160208510156132235750805b601f840160051c820191505b81811015613242575f815560010161322f565b50505b505050565b81516001600160401b0381111561326357613263612c21565b61327781613271845461309f565b846131fe565b6020601f8211600181146132a9575f83156132925750848201515b5f19600385901b1c1916600184901b178455613242565b5f84815260208120601f198516915b828110156132d857878501518255602094850194600190920191016132b8565b50848210156132f557868401515f19600387901b60f8161c191681555b50505050600190811b01905550565b6020808252602e908201527f4d656d6f7279436f6e74726f6c3a204475726174696f6e206d7573742062652060408201526d067726561746572207468616e20360941b606082015260800190565b8082018082111561159b57634e487b7160e01b5f52601160045260245ffd5b604081525f6133836040830185612b77565b90508260208301529392505050565b6020808252602e908201527f4d656d6f7279436f6e74726f6c3a2043616e6e6f74206772616e74206163636560408201526d39b9903a37903cb7bab939b2b63360911b606082015260800190565b604081525f6133f26040830184612b77565b8281036020938401525f81529190910192915050565b606081525f61341a6060830186612b77565b828103602084015261342c8186612b77565b915050826040830152949350505050565b606081525f61344f6060830185612b77565b82810360208401525f8152602081019150508260408301529392505050565b604081525f6134806040830185612b77565b82810360208401526134928185612b77565b9594505050505056fea2646970667358221220fafc34d8fdf613ae106882c418139dbc2602566730e8133958476d6221ecd69564736f6c634300081c0033",
					"opcodes": "PUSH1 0xA0 PUSH1 0x40 MSTORE CALLVALUE DUP1 ISZERO PUSH2 0xF JUMPI PUSH0 PUSH0 REVERT JUMPDEST POP PUSH1 0x40 MLOAD PUSH2 0x3622 CODESIZE SUB DUP1 PUSH2 0x3622 DUP4 CODECOPY DUP2 ADD PUSH1 0x40 DUP2 SWAP1 MSTORE PUSH2 0x2E SWAP2 PUSH2 0xBF JUMP JUMPDEST PUSH1 0x1 PUSH1 0x1 PUSH1 0xA0 SHL SUB DUP2 AND PUSH2 0xAE JUMPI PUSH1 0x40 MLOAD PUSH3 0x461BCD PUSH1 0xE5 SHL DUP2 MSTORE PUSH1 0x20 PUSH1 0x4 DUP3 ADD MSTORE PUSH1 0x35 PUSH1 0x24 DUP3 ADD MSTORE PUSH32 0x4D656D6F7279436F6E74726F6C3A20446F6D61696E2072656769737472792061 PUSH1 0x44 DUP3 ADD MSTORE PUSH32 0x6464726573732063616E6E6F74206265207A65726F0000000000000000000000 PUSH1 0x64 DUP3 ADD MSTORE PUSH1 0x84 ADD PUSH1 0x40 MLOAD DUP1 SWAP2 SUB SWAP1 REVERT JUMPDEST PUSH1 0x1 PUSH1 0x1 PUSH1 0xA0 SHL SUB AND PUSH1 0x80 MSTORE PUSH2 0xEC JUMP JUMPDEST PUSH0 PUSH1 0x20 DUP3 DUP5 SUB SLT ISZERO PUSH2 0xCF JUMPI PUSH0 PUSH0 REVERT JUMPDEST DUP2 MLOAD PUSH1 0x1 PUSH1 0x1 PUSH1 0xA0 SHL SUB DUP2 AND DUP2 EQ PUSH2 0xE5 JUMPI PUSH0 PUSH0 REVERT JUMPDEST SWAP4 SWAP3 POP POP POP JUMP JUMPDEST PUSH1 0x80 MLOAD PUSH2 0x34D1 PUSH2 0x151 PUSH0 CODECOPY PUSH0 DUP2 DUP2 PUSH2 0x24F ADD MSTORE DUP2 DUP2 PUSH2 0xDEA ADD MSTORE DUP2 DUP2 PUSH2 0xFE2 ADD MSTORE DUP2 DUP2 PUSH2 0x118B ADD MSTORE DUP2 DUP2 PUSH2 0x16D8 ADD MSTORE DUP2 DUP2 PUSH2 0x1AC5 ADD MSTORE DUP2 DUP2 PUSH2 0x1DBC ADD MSTORE DUP2 DUP2 PUSH2 0x217E ADD MSTORE DUP2 DUP2 PUSH2 0x2303 ADD MSTORE DUP2 DUP2 PUSH2 0x247C ADD MSTORE DUP2 DUP2 PUSH2 0x259A ADD MSTORE PUSH2 0x29C4 ADD MSTORE PUSH2 0x34D1 PUSH0 RETURN INVALID PUSH1 0x80 PUSH1 0x40 MSTORE CALLVALUE DUP1 ISZERO PUSH2 0xF JUMPI PUSH0 PUSH0 REVERT JUMPDEST POP PUSH1 0x4 CALLDATASIZE LT PUSH2 0x21E JUMPI PUSH0 CALLDATALOAD PUSH1 0xE0 SHR DUP1 PUSH4 0x76E042A2 GT PUSH2 0x12A JUMPI DUP1 PUSH4 0x9B059C97 GT PUSH2 0xB4 JUMPI DUP1 PUSH4 0xEDFBA336 GT PUSH2 0x79 JUMPI DUP1 PUSH4 0xEDFBA336 EQ PUSH2 0x5BD JUMPI DUP1 PUSH4 0xEE1C34AD EQ PUSH2 0x5D0 JUMPI DUP1 PUSH4 0xF5149C52 EQ PUSH2 0x5F0 JUMPI DUP1 PUSH4 0xF8420443 EQ PUSH2 0x603 JUMPI DUP1 PUSH4 0xFF57706A EQ PUSH2 0x636 JUMPI PUSH0 PUSH0 REVERT JUMPDEST DUP1 PUSH4 0x9B059C97 EQ PUSH2 0x50C JUMPI DUP1 PUSH4 0xABF99FC9 EQ PUSH2 0x53C JUMPI DUP1 PUSH4 0xCDD14590 EQ PUSH2 0x54F JUMPI DUP1 PUSH4 0xDC100083 EQ PUSH2 0x562 JUMPI DUP1 PUSH4 0xE605569B EQ PUSH2 0x5AA JUMPI PUSH0 PUSH0 REVERT JUMPDEST DUP1 PUSH4 0x8D9BEB1A GT PUSH2 0xFA JUMPI DUP1 PUSH4 0x8D9BEB1A EQ PUSH2 0x496 JUMPI DUP1 PUSH4 0x90E00623 EQ PUSH2 0x4A9 JUMPI DUP1 PUSH4 0x925C879C EQ PUSH2 0x4BC JUMPI DUP1 PUSH4 0x9A04F839 EQ PUSH2 0x4CF JUMPI DUP1 PUSH4 0x9AA1E8D2 EQ PUSH2 0x4E2 JUMPI PUSH0 PUSH0 REVERT JUMPDEST DUP1 PUSH4 0x76E042A2 EQ PUSH2 0x430 JUMPI DUP1 PUSH4 0x77814646 EQ PUSH2 0x443 JUMPI DUP1 PUSH4 0x83177DB3 EQ PUSH2 0x470 JUMPI DUP1 PUSH4 0x8AE5A7F6 EQ PUSH2 0x483 JUMPI PUSH0 PUSH0 REVERT JUMPDEST DUP1 PUSH4 0x5170ACA7 GT PUSH2 0x1AB JUMPI DUP1 PUSH4 0x7062E1E0 GT PUSH2 0x17B JUMPI DUP1 PUSH4 0x7062E1E0 EQ PUSH2 0x3C0 JUMPI DUP1 PUSH4 0x72E6FFEC EQ PUSH2 0x3D3 JUMPI DUP1 PUSH4 0x74E12A86 EQ PUSH2 0x3E6 JUMPI DUP1 PUSH4 0x7602ADE0 EQ PUSH2 0x40A JUMPI DUP1 PUSH4 0x761B232B EQ PUSH2 0x41D JUMPI PUSH0 PUSH0 REVERT JUMPDEST DUP1 PUSH4 0x5170ACA7 EQ PUSH2 0x35D JUMPI DUP1 PUSH4 0x67C69535 EQ PUSH2 0x370 JUMPI DUP1 PUSH4 0x6C8C7A6F EQ PUSH2 0x383 JUMPI DUP1 PUSH4 0x6DD64428 EQ PUSH2 0x396 JUMPI PUSH0 PUSH0 REVERT JUMPDEST DUP1 PUSH4 0x2B5AFA64 GT PUSH2 0x1F1 JUMPI DUP1 PUSH4 0x2B5AFA64 EQ PUSH2 0x2BE JUMPI DUP1 PUSH4 0x38DEBEAD EQ PUSH2 0x2D1 JUMPI DUP1 PUSH4 0x41411EC1 EQ PUSH2 0x2E4 JUMPI DUP1 PUSH4 0x41CDE2CA EQ PUSH2 0x337 JUMPI DUP1 PUSH4 0x4D392DFE EQ PUSH2 0x34A JUMPI PUSH0 PUSH0 REVERT JUMPDEST DUP1 PUSH4 0x1A085F9 EQ PUSH2 0x222 JUMPI DUP1 PUSH4 0x944A93D EQ PUSH2 0x24A JUMPI DUP1 PUSH4 0xF26FE45 EQ PUSH2 0x289 JUMPI DUP1 PUSH4 0x1D24EFF4 EQ PUSH2 0x29E JUMPI JUMPDEST PUSH0 PUSH0 REVERT JUMPDEST PUSH2 0x235 PUSH2 0x230 CALLDATASIZE PUSH1 0x4 PUSH2 0x2B32 JUMP JUMPDEST PUSH2 0x649 JUMP JUMPDEST PUSH1 0x40 MLOAD SWAP1 ISZERO ISZERO DUP2 MSTORE PUSH1 0x20 ADD JUMPDEST PUSH1 0x40 MLOAD DUP1 SWAP2 SUB SWAP1 RETURN JUMPDEST PUSH2 0x271 PUSH32 0x0 DUP2 JUMP JUMPDEST PUSH1 0x40 MLOAD PUSH1 0x1 PUSH1 0x1 PUSH1 0xA0 SHL SUB SWAP1 SWAP2 AND DUP2 MSTORE PUSH1 0x20 ADD PUSH2 0x241 JUMP JUMPDEST PUSH2 0x29C PUSH2 0x297 CALLDATASIZE PUSH1 0x4 PUSH2 0x2B60 JUMP JUMPDEST PUSH2 0x9EB JUMP JUMPDEST STOP JUMPDEST PUSH2 0x2B1 PUSH2 0x2AC CALLDATASIZE PUSH1 0x4 PUSH2 0x2B60 JUMP JUMPDEST PUSH2 0xAE1 JUMP JUMPDEST PUSH1 0x40 MLOAD PUSH2 0x241 SWAP2 SWAP1 PUSH2 0x2BA5 JUMP JUMPDEST PUSH2 0x29C PUSH2 0x2CC CALLDATASIZE PUSH1 0x4 PUSH2 0x2BFF JUMP JUMPDEST PUSH2 0xC3F JUMP JUMPDEST PUSH2 0x29C PUSH2 0x2DF CALLDATASIZE PUSH1 0x4 PUSH2 0x2CBE JUMP JUMPDEST PUSH2 0xCCF JUMP JUMPDEST PUSH2 0x329 PUSH2 0x2F2 CALLDATASIZE PUSH1 0x4 PUSH2 0x2D01 JUMP JUMPDEST PUSH1 0x6 PUSH1 0x20 SWAP1 DUP2 MSTORE PUSH0 SWAP4 DUP5 MSTORE PUSH1 0x40 DUP1 DUP6 KECCAK256 DUP3 MSTORE SWAP3 DUP5 MSTORE SWAP2 SWAP1 SWAP3 KECCAK256 DUP3 MLOAD DUP1 DUP5 ADD DUP4 ADD DUP1 MLOAD SWAP3 DUP2 MSTORE SWAP1 DUP4 ADD SWAP4 SWAP1 SWAP3 ADD SWAP3 SWAP1 SWAP3 KECCAK256 SWAP2 SWAP1 MSTORE SLOAD DUP2 JUMP JUMPDEST PUSH1 0x40 MLOAD SWAP1 DUP2 MSTORE PUSH1 0x20 ADD PUSH2 0x241 JUMP JUMPDEST PUSH2 0x29C PUSH2 0x345 CALLDATASIZE PUSH1 0x4 PUSH2 0x2D5E JUMP JUMPDEST PUSH2 0xFA8 JUMP JUMPDEST PUSH2 0x29C PUSH2 0x358 CALLDATASIZE PUSH1 0x4 PUSH2 0x2D8F JUMP JUMPDEST PUSH2 0x10C6 JUMP JUMPDEST PUSH2 0x29C PUSH2 0x36B CALLDATASIZE PUSH1 0x4 PUSH2 0x2DD8 JUMP JUMPDEST PUSH2 0x12AD JUMP JUMPDEST PUSH2 0x29C PUSH2 0x37E CALLDATASIZE PUSH1 0x4 PUSH2 0x2E0E JUMP JUMPDEST PUSH2 0x13AC JUMP JUMPDEST PUSH2 0x235 PUSH2 0x391 CALLDATASIZE PUSH1 0x4 PUSH2 0x2E40 JUMP JUMPDEST PUSH2 0x1534 JUMP JUMPDEST PUSH2 0x235 PUSH2 0x3A4 CALLDATASIZE PUSH1 0x4 PUSH2 0x2B60 JUMP JUMPDEST PUSH0 SWAP1 DUP2 MSTORE PUSH1 0x20 DUP2 SWAP1 MSTORE PUSH1 0x40 SWAP1 KECCAK256 SLOAD PUSH1 0x1 PUSH1 0x1 PUSH1 0xA0 SHL SUB AND ISZERO ISZERO SWAP1 JUMP JUMPDEST PUSH2 0x29C PUSH2 0x3CE CALLDATASIZE PUSH1 0x4 PUSH2 0x2E40 JUMP JUMPDEST PUSH2 0x15A1 JUMP JUMPDEST PUSH2 0x29C PUSH2 0x3E1 CALLDATASIZE PUSH1 0x4 PUSH2 0x2D5E JUMP JUMPDEST PUSH2 0x169E JUMP JUMPDEST PUSH2 0x3F9 PUSH2 0x3F4 CALLDATASIZE PUSH1 0x4 PUSH2 0x2B60 JUMP JUMPDEST PUSH2 0x17C2 JUMP JUMPDEST PUSH1 0x40 MLOAD PUSH2 0x241 SWAP6 SWAP5 SWAP4 SWAP3 SWAP2 SWAP1 PUSH2 0x2E6A JUMP JUMPDEST PUSH2 0x29C PUSH2 0x418 CALLDATASIZE PUSH1 0x4 PUSH2 0x2E40 JUMP JUMPDEST PUSH2 0x1885 JUMP JUMPDEST PUSH2 0x29C PUSH2 0x42B CALLDATASIZE PUSH1 0x4 PUSH2 0x2E40 JUMP JUMPDEST PUSH2 0x19B7 JUMP JUMPDEST PUSH2 0x29C PUSH2 0x43E CALLDATASIZE PUSH1 0x4 PUSH2 0x2EAE JUMP JUMPDEST PUSH2 0x1A6C JUMP JUMPDEST PUSH2 0x235 PUSH2 0x451 CALLDATASIZE PUSH1 0x4 PUSH2 0x2EEF JUMP JUMPDEST PUSH1 0x1 PUSH1 0x20 SWAP1 DUP2 MSTORE PUSH0 SWAP3 DUP4 MSTORE PUSH1 0x40 DUP1 DUP5 KECCAK256 SWAP1 SWAP2 MSTORE SWAP1 DUP3 MSTORE SWAP1 KECCAK256 SLOAD PUSH1 0xFF AND DUP2 JUMP JUMPDEST PUSH2 0x235 PUSH2 0x47E CALLDATASIZE PUSH1 0x4 PUSH2 0x2B32 JUMP JUMPDEST PUSH2 0x1BD1 JUMP JUMPDEST PUSH2 0x29C PUSH2 0x491 CALLDATASIZE PUSH1 0x4 PUSH2 0x2F1B JUMP JUMPDEST PUSH2 0x1D42 JUMP JUMPDEST PUSH2 0x29C PUSH2 0x4A4 CALLDATASIZE PUSH1 0x4 PUSH2 0x2F87 JUMP JUMPDEST PUSH2 0x1F23 JUMP JUMPDEST PUSH2 0x29C PUSH2 0x4B7 CALLDATASIZE PUSH1 0x4 PUSH2 0x2BFF JUMP JUMPDEST PUSH2 0x208F JUMP JUMPDEST PUSH2 0x29C PUSH2 0x4CA CALLDATASIZE PUSH1 0x4 PUSH2 0x2FBE JUMP JUMPDEST PUSH2 0x2144 JUMP JUMPDEST PUSH2 0x29C PUSH2 0x4DD CALLDATASIZE PUSH1 0x4 PUSH2 0x2D5E JUMP JUMPDEST PUSH2 0x22C9 JUMP JUMPDEST PUSH2 0x329 PUSH2 0x4F0 CALLDATASIZE PUSH1 0x4 PUSH2 0x2EEF JUMP JUMPDEST PUSH1 0x2 PUSH1 0x20 SWAP1 DUP2 MSTORE PUSH0 SWAP3 DUP4 MSTORE PUSH1 0x40 DUP1 DUP5 KECCAK256 SWAP1 SWAP2 MSTORE SWAP1 DUP3 MSTORE SWAP1 KECCAK256 SLOAD DUP2 JUMP JUMPDEST PUSH2 0x329 PUSH2 0x51A CALLDATASIZE PUSH1 0x4 PUSH2 0x300B JUMP JUMPDEST PUSH1 0x4 PUSH1 0x20 SWAP1 DUP2 MSTORE PUSH0 SWAP4 DUP5 MSTORE PUSH1 0x40 DUP1 DUP6 KECCAK256 DUP3 MSTORE SWAP3 DUP5 MSTORE DUP3 DUP5 KECCAK256 SWAP1 MSTORE DUP3 MSTORE SWAP1 KECCAK256 SLOAD DUP2 JUMP JUMPDEST PUSH2 0x29C PUSH2 0x54A CALLDATASIZE PUSH1 0x4 PUSH2 0x2EAE JUMP JUMPDEST PUSH2 0x23D6 JUMP JUMPDEST PUSH2 0x29C PUSH2 0x55D CALLDATASIZE PUSH1 0x4 PUSH2 0x2EAE JUMP JUMPDEST PUSH2 0x2560 JUMP JUMPDEST PUSH2 0x235 PUSH2 0x570 CALLDATASIZE PUSH1 0x4 PUSH2 0x2D01 JUMP JUMPDEST PUSH1 0x5 PUSH1 0x20 SWAP1 DUP2 MSTORE PUSH0 SWAP4 DUP5 MSTORE PUSH1 0x40 DUP1 DUP6 KECCAK256 DUP3 MSTORE SWAP3 DUP5 MSTORE SWAP2 SWAP1 SWAP3 KECCAK256 DUP3 MLOAD DUP1 DUP5 ADD DUP4 ADD DUP1 MLOAD SWAP3 DUP2 MSTORE SWAP1 DUP4 ADD SWAP4 SWAP1 SWAP3 ADD SWAP3 SWAP1 SWAP3 KECCAK256 SWAP2 SWAP1 MSTORE SLOAD PUSH1 0xFF AND DUP2 JUMP JUMPDEST PUSH2 0x235 PUSH2 0x5B8 CALLDATASIZE PUSH1 0x4 PUSH2 0x2BFF JUMP JUMPDEST PUSH2 0x2698 JUMP JUMPDEST PUSH2 0x29C PUSH2 0x5CB CALLDATASIZE PUSH1 0x4 PUSH2 0x2DD8 JUMP JUMPDEST PUSH2 0x26F2 JUMP JUMPDEST PUSH2 0x5E3 PUSH2 0x5DE CALLDATASIZE PUSH1 0x4 PUSH2 0x2B60 JUMP JUMPDEST PUSH2 0x27F4 JUMP JUMPDEST PUSH1 0x40 MLOAD PUSH2 0x241 SWAP2 SWAP1 PUSH2 0x3049 JUMP JUMPDEST PUSH2 0x29C PUSH2 0x5FE CALLDATASIZE PUSH1 0x4 PUSH2 0x2BFF JUMP JUMPDEST PUSH2 0x28CB JUMP JUMPDEST PUSH2 0x235 PUSH2 0x611 CALLDATASIZE PUSH1 0x4 PUSH2 0x300B JUMP JUMPDEST PUSH1 0x3 PUSH1 0x20 SWAP1 DUP2 MSTORE PUSH0 SWAP4 DUP5 MSTORE PUSH1 0x40 DUP1 DUP6 KECCAK256 DUP3 MSTORE SWAP3 DUP5 MSTORE DUP3 DUP5 KECCAK256 SWAP1 MSTORE DUP3 MSTORE SWAP1 KECCAK256 SLOAD PUSH1 0xFF AND DUP2 JUMP JUMPDEST PUSH2 0x29C PUSH2 0x644 CALLDATASIZE PUSH1 0x4 PUSH2 0x2FBE JUMP JUMPDEST PUSH2 0x2969 JUMP JUMPDEST PUSH0 DUP3 DUP2 MSTORE PUSH1 0x20 DUP2 SWAP1 MSTORE PUSH1 0x40 DUP2 KECCAK256 SLOAD DUP4 SWAP1 PUSH1 0x1 PUSH1 0x1 PUSH1 0xA0 SHL SUB AND PUSH2 0x687 JUMPI PUSH1 0x40 MLOAD PUSH3 0x461BCD PUSH1 0xE5 SHL DUP2 MSTORE PUSH1 0x4 ADD PUSH2 0x67E SWAP1 PUSH2 0x305B JUMP JUMPDEST PUSH1 0x40 MLOAD DUP1 SWAP2 SUB SWAP1 REVERT JUMPDEST PUSH0 DUP5 DUP2 MSTORE PUSH1 0x20 DUP2 DUP2 MSTORE PUSH1 0x40 DUP1 DUP4 KECCAK256 DUP2 MLOAD PUSH1 0xA0 DUP2 ADD DUP4 MSTORE DUP2 SLOAD PUSH1 0x1 PUSH1 0x1 PUSH1 0xA0 SHL SUB SWAP1 DUP2 AND DUP3 MSTORE PUSH1 0x1 DUP4 ADD SLOAD SWAP5 DUP3 ADD SWAP5 SWAP1 SWAP5 MSTORE PUSH1 0x2 DUP3 ADD SLOAD SWAP3 DUP2 ADD SWAP3 SWAP1 SWAP3 MSTORE PUSH1 0x3 DUP2 ADD SLOAD SWAP1 SWAP3 AND PUSH1 0x60 DUP3 ADD MSTORE PUSH1 0x4 DUP3 ADD DUP1 SLOAD SWAP2 SWAP3 SWAP2 PUSH1 0x80 DUP5 ADD SWAP2 SWAP1 PUSH2 0x6E9 SWAP1 PUSH2 0x309F JUMP JUMPDEST DUP1 PUSH1 0x1F ADD PUSH1 0x20 DUP1 SWAP2 DIV MUL PUSH1 0x20 ADD PUSH1 0x40 MLOAD SWAP1 DUP2 ADD PUSH1 0x40 MSTORE DUP1 SWAP3 SWAP2 SWAP1 DUP2 DUP2 MSTORE PUSH1 0x20 ADD DUP3 DUP1 SLOAD PUSH2 0x715 SWAP1 PUSH2 0x309F JUMP JUMPDEST DUP1 ISZERO PUSH2 0x760 JUMPI DUP1 PUSH1 0x1F LT PUSH2 0x737 JUMPI PUSH2 0x100 DUP1 DUP4 SLOAD DIV MUL DUP4 MSTORE SWAP2 PUSH1 0x20 ADD SWAP2 PUSH2 0x760 JUMP JUMPDEST DUP3 ADD SWAP2 SWAP1 PUSH0 MSTORE PUSH1 0x20 PUSH0 KECCAK256 SWAP1 JUMPDEST DUP2 SLOAD DUP2 MSTORE SWAP1 PUSH1 0x1 ADD SWAP1 PUSH1 0x20 ADD DUP1 DUP4 GT PUSH2 0x743 JUMPI DUP3 SWAP1 SUB PUSH1 0x1F AND DUP3 ADD SWAP2 JUMPDEST POP POP POP POP POP DUP2 MSTORE POP POP SWAP1 POP DUP1 PUSH0 ADD MLOAD PUSH1 0x1 PUSH1 0x1 PUSH1 0xA0 SHL SUB AND DUP5 PUSH1 0x1 PUSH1 0x1 PUSH1 0xA0 SHL SUB AND SUB PUSH2 0x791 JUMPI PUSH1 0x1 SWAP3 POP POP PUSH2 0x9E4 JUMP JUMPDEST DUP1 MLOAD PUSH1 0x1 PUSH1 0x1 PUSH1 0xA0 SHL SUB SWAP1 DUP2 AND PUSH0 SWAP1 DUP2 MSTORE PUSH1 0x1 PUSH1 0x20 SWAP1 DUP2 MSTORE PUSH1 0x40 DUP1 DUP4 KECCAK256 SWAP4 DUP9 AND DUP4 MSTORE SWAP3 SWAP1 MSTORE KECCAK256 SLOAD PUSH1 0xFF AND ISZERO PUSH2 0x832 JUMPI DUP1 MLOAD PUSH1 0x1 PUSH1 0x1 PUSH1 0xA0 SHL SUB SWAP1 DUP2 AND PUSH0 SWAP1 DUP2 MSTORE PUSH1 0x2 PUSH1 0x20 SWAP1 DUP2 MSTORE PUSH1 0x40 DUP1 DUP4 KECCAK256 SWAP4 DUP9 AND DUP4 MSTORE SWAP3 SWAP1 MSTORE KECCAK256 SLOAD ISZERO DUP1 ISZERO SWAP1 PUSH2 0x81A JUMPI POP DUP1 MLOAD PUSH1 0x1 PUSH1 0x1 PUSH1 0xA0 SHL SUB SWAP1 DUP2 AND PUSH0 SWAP1 DUP2 MSTORE PUSH1 0x2 PUSH1 0x20 SWAP1 DUP2 MSTORE PUSH1 0x40 DUP1 DUP4 KECCAK256 SWAP4 DUP9 AND DUP4 MSTORE SWAP3 SWAP1 MSTORE KECCAK256 SLOAD TIMESTAMP GT JUMPDEST ISZERO PUSH2 0x828 JUMPI PUSH0 SWAP3 POP POP PUSH2 0x9E4 JUMP JUMPDEST PUSH1 0x1 SWAP3 POP POP PUSH2 0x9E4 JUMP JUMPDEST DUP1 MLOAD PUSH1 0x1 PUSH1 0x1 PUSH1 0xA0 SHL SUB SWAP1 DUP2 AND PUSH0 SWAP1 DUP2 MSTORE PUSH1 0x3 PUSH1 0x20 SWAP1 DUP2 MSTORE PUSH1 0x40 DUP1 DUP4 KECCAK256 SWAP4 DUP9 AND DUP4 MSTORE SWAP3 DUP2 MSTORE DUP3 DUP3 KECCAK256 DUP9 DUP4 MSTORE SWAP1 MSTORE KECCAK256 SLOAD PUSH1 0xFF AND ISZERO PUSH2 0x8E0 JUMPI DUP1 MLOAD PUSH1 0x1 PUSH1 0x1 PUSH1 0xA0 SHL SUB SWAP1 DUP2 AND PUSH0 SWAP1 DUP2 MSTORE PUSH1 0x4 PUSH1 0x20 SWAP1 DUP2 MSTORE PUSH1 0x40 DUP1 DUP4 KECCAK256 SWAP4 DUP9 AND DUP4 MSTORE SWAP3 DUP2 MSTORE DUP3 DUP3 KECCAK256 DUP9 DUP4 MSTORE SWAP1 MSTORE KECCAK256 SLOAD ISZERO DUP1 ISZERO SWAP1 PUSH2 0x81A JUMPI POP DUP1 MLOAD PUSH1 0x1 PUSH1 0x1 PUSH1 0xA0 SHL SUB SWAP1 DUP2 AND PUSH0 SWAP1 DUP2 MSTORE PUSH1 0x4 PUSH1 0x20 SWAP1 DUP2 MSTORE PUSH1 0x40 DUP1 DUP4 KECCAK256 SWAP4 DUP9 AND DUP4 MSTORE SWAP3 DUP2 MSTORE DUP3 DUP3 KECCAK256 DUP9 DUP4 MSTORE SWAP1 MSTORE KECCAK256 SLOAD TIMESTAMP GT ISZERO PUSH2 0x828 JUMPI PUSH0 SWAP3 POP POP PUSH2 0x9E4 JUMP JUMPDEST DUP1 MLOAD PUSH1 0x1 PUSH1 0x1 PUSH1 0xA0 SHL SUB SWAP1 DUP2 AND PUSH0 SWAP1 DUP2 MSTORE PUSH1 0x5 PUSH1 0x20 SWAP1 DUP2 MSTORE PUSH1 0x40 DUP1 DUP4 KECCAK256 SWAP4 DUP9 AND DUP4 MSTORE SWAP3 SWAP1 MSTORE DUP2 SWAP1 KECCAK256 PUSH1 0x80 DUP4 ADD MLOAD SWAP2 MLOAD SWAP1 SWAP2 PUSH2 0x91A SWAP2 PUSH2 0x30D1 JUMP JUMPDEST SWAP1 DUP2 MSTORE PUSH1 0x40 MLOAD SWAP1 DUP2 SWAP1 SUB PUSH1 0x20 ADD SWAP1 KECCAK256 SLOAD PUSH1 0xFF AND ISZERO PUSH2 0x9DF JUMPI DUP1 MLOAD PUSH1 0x1 PUSH1 0x1 PUSH1 0xA0 SHL SUB SWAP1 DUP2 AND PUSH0 SWAP1 DUP2 MSTORE PUSH1 0x6 PUSH1 0x20 SWAP1 DUP2 MSTORE PUSH1 0x40 DUP1 DUP4 KECCAK256 SWAP4 DUP9 AND DUP4 MSTORE SWAP3 SWAP1 MSTORE DUP2 DUP2 KECCAK256 PUSH1 0x80 DUP5 ADD MLOAD SWAP3 MLOAD SWAP2 SWAP3 SWAP1 SWAP2 PUSH2 0x96F SWAP2 SWAP1 PUSH2 0x30D1 JUMP JUMPDEST SWAP1 DUP2 MSTORE PUSH1 0x20 ADD PUSH1 0x40 MLOAD DUP1 SWAP2 SUB SWAP1 KECCAK256 SLOAD GT DUP1 ISZERO PUSH2 0x81A JUMPI POP DUP1 MLOAD PUSH1 0x1 PUSH1 0x1 PUSH1 0xA0 SHL SUB SWAP1 DUP2 AND PUSH0 SWAP1 DUP2 MSTORE PUSH1 0x6 PUSH1 0x20 SWAP1 DUP2 MSTORE PUSH1 0x40 DUP1 DUP4 KECCAK256 SWAP4 DUP9 AND DUP4 MSTORE SWAP3 SWAP1 MSTORE DUP2 SWAP1 KECCAK256 PUSH1 0x80 DUP4 ADD MLOAD SWAP2 MLOAD SWAP1 SWAP2 PUSH2 0x9C0 SWAP2 PUSH2 0x30D1 JUMP JUMPDEST SWAP1 DUP2 MSTORE PUSH1 0x20 ADD PUSH1 0x40 MLOAD DUP1 SWAP2 SUB SWAP1 KECCAK256 SLOAD TIMESTAMP GT ISZERO PUSH2 0x828 JUMPI PUSH0 SWAP3 POP POP PUSH2 0x9E4 JUMP JUMPDEST PUSH0 SWAP3 POP POP JUMPDEST POP SWAP3 SWAP2 POP POP JUMP JUMPDEST PUSH0 DUP2 DUP2 MSTORE PUSH1 0x20 DUP2 SWAP1 MSTORE PUSH1 0x40 SWAP1 KECCAK256 SLOAD DUP2 SWAP1 PUSH1 0x1 PUSH1 0x1 PUSH1 0xA0 SHL SUB AND CALLER EQ PUSH2 0xA22 JUMPI PUSH1 0x40 MLOAD PUSH3 0x461BCD PUSH1 0xE5 SHL DUP2 MSTORE PUSH1 0x4 ADD PUSH2 0x67E SWAP1 PUSH2 0x30E7 JUMP JUMPDEST PUSH0 DUP3 DUP2 MSTORE PUSH1 0x20 DUP2 SWAP1 MSTORE PUSH1 0x40 SWAP1 KECCAK256 SLOAD DUP3 SWAP1 PUSH1 0x1 PUSH1 0x1 PUSH1 0xA0 SHL SUB AND PUSH2 0xA57 JUMPI PUSH1 0x40 MLOAD PUSH3 0x461BCD PUSH1 0xE5 SHL DUP2 MSTORE PUSH1 0x4 ADD PUSH2 0x67E SWAP1 PUSH2 0x305B JUMP JUMPDEST PUSH0 DUP4 DUP2 MSTORE PUSH1 0x20 DUP2 SWAP1 MSTORE PUSH1 0x40 DUP2 KECCAK256 DUP1 SLOAD PUSH1 0x1 PUSH1 0x1 PUSH1 0xA0 SHL SUB NOT DUP1 DUP3 AND DUP4 SSTORE PUSH1 0x1 DUP4 ADD DUP5 SWAP1 SSTORE PUSH1 0x2 DUP4 ADD DUP5 SWAP1 SSTORE PUSH1 0x3 DUP4 ADD DUP1 SLOAD SWAP1 SWAP2 AND SWAP1 SSTORE PUSH1 0x1 PUSH1 0x1 PUSH1 0xA0 SHL SUB AND SWAP2 PUSH2 0xAA4 PUSH1 0x4 DUP4 ADD DUP3 PUSH2 0x2ACC JUMP JUMPDEST POP POP PUSH1 0x40 MLOAD DUP5 SWAP1 PUSH1 0x1 PUSH1 0x1 PUSH1 0xA0 SHL SUB DUP4 AND SWAP1 PUSH32 0xCE43E25C3862A18FC518CEB279BA32211116B6898E5EA653F120559DF2C168DA SWAP1 PUSH0 SWAP1 LOG3 POP POP POP POP JUMP JUMPDEST PUSH2 0xB21 PUSH1 0x40 MLOAD DUP1 PUSH1 0xA0 ADD PUSH1 0x40 MSTORE DUP1 PUSH0 PUSH1 0x1 PUSH1 0x1 PUSH1 0xA0 SHL SUB AND DUP2 MSTORE PUSH1 0x20 ADD PUSH0 DUP2 MSTORE PUSH1 0x20 ADD PUSH0 DUP2 MSTORE PUSH1 0x20 ADD PUSH0 PUSH1 0x1 PUSH1 0x1 PUSH1 0xA0 SHL SUB AND DUP2 MSTORE PUSH1 0x20 ADD PUSH1 0x60 DUP2 MSTORE POP SWAP1 JUMP JUMPDEST PUSH0 DUP3 DUP2 MSTORE PUSH1 0x20 DUP2 SWAP1 MSTORE PUSH1 0x40 SWAP1 KECCAK256 SLOAD DUP3 SWAP1 PUSH1 0x1 PUSH1 0x1 PUSH1 0xA0 SHL SUB AND PUSH2 0xB56 JUMPI PUSH1 0x40 MLOAD PUSH3 0x461BCD PUSH1 0xE5 SHL DUP2 MSTORE PUSH1 0x4 ADD PUSH2 0x67E SWAP1 PUSH2 0x305B JUMP JUMPDEST PUSH0 DUP4 DUP2 MSTORE PUSH1 0x20 DUP2 DUP2 MSTORE PUSH1 0x40 SWAP2 DUP3 SWAP1 KECCAK256 DUP3 MLOAD PUSH1 0xA0 DUP2 ADD DUP5 MSTORE DUP2 SLOAD PUSH1 0x1 PUSH1 0x1 PUSH1 0xA0 SHL SUB SWAP1 DUP2 AND DUP3 MSTORE PUSH1 0x1 DUP4 ADD SLOAD SWAP4 DUP3 ADD SWAP4 SWAP1 SWAP4 MSTORE PUSH1 0x2 DUP3 ADD SLOAD SWAP4 DUP2 ADD SWAP4 SWAP1 SWAP4 MSTORE PUSH1 0x3 DUP2 ADD SLOAD SWAP1 SWAP2 AND PUSH1 0x60 DUP4 ADD MSTORE PUSH1 0x4 DUP2 ADD DUP1 SLOAD PUSH1 0x80 DUP5 ADD SWAP2 SWAP1 PUSH2 0xBB6 SWAP1 PUSH2 0x309F JUMP JUMPDEST DUP1 PUSH1 0x1F ADD PUSH1 0x20 DUP1 SWAP2 DIV MUL PUSH1 0x20 ADD PUSH1 0x40 MLOAD SWAP1 DUP2 ADD PUSH1 0x40 MSTORE DUP1 SWAP3 SWAP2 SWAP1 DUP2 DUP2 MSTORE PUSH1 0x20 ADD DUP3 DUP1 SLOAD PUSH2 0xBE2 SWAP1 PUSH2 0x309F JUMP JUMPDEST DUP1 ISZERO PUSH2 0xC2D JUMPI DUP1 PUSH1 0x1F LT PUSH2 0xC04 JUMPI PUSH2 0x100 DUP1 DUP4 SLOAD DIV MUL DUP4 MSTORE SWAP2 PUSH1 0x20 ADD SWAP2 PUSH2 0xC2D JUMP JUMPDEST DUP3 ADD SWAP2 SWAP1 PUSH0 MSTORE PUSH1 0x20 PUSH0 KECCAK256 SWAP1 JUMPDEST DUP2 SLOAD DUP2 MSTORE SWAP1 PUSH1 0x1 ADD SWAP1 PUSH1 0x20 ADD DUP1 DUP4 GT PUSH2 0xC10 JUMPI DUP3 SWAP1 SUB PUSH1 0x1F AND DUP3 ADD SWAP2 JUMPDEST POP POP POP POP POP DUP2 MSTORE POP POP SWAP2 POP JUMPDEST POP SWAP2 SWAP1 POP JUMP JUMPDEST PUSH1 0x1 PUSH1 0x1 PUSH1 0xA0 SHL SUB DUP2 AND PUSH2 0xC65 JUMPI PUSH1 0x40 MLOAD PUSH3 0x461BCD PUSH1 0xE5 SHL DUP2 MSTORE PUSH1 0x4 ADD PUSH2 0x67E SWAP1 PUSH2 0x3144 JUMP JUMPDEST CALLER PUSH0 DUP2 DUP2 MSTORE PUSH1 0x1 PUSH1 0x20 SWAP1 DUP2 MSTORE PUSH1 0x40 DUP1 DUP4 KECCAK256 PUSH1 0x1 PUSH1 0x1 PUSH1 0xA0 SHL SUB DUP7 AND DUP1 DUP6 MSTORE SWAP1 DUP4 MSTORE DUP2 DUP5 KECCAK256 DUP1 SLOAD PUSH1 0xFF NOT AND SWAP1 SSTORE DUP2 MLOAD DUP4 DUP2 MSTORE SWAP3 DUP4 ADD SWAP4 SWAP1 SWAP4 MSTORE SWAP2 SWAP3 SWAP2 PUSH32 0xA2382B7B0F44EE62DF753C00034038C109332BF9B8F52418AF74AA2859780FB SWAP2 ADD JUMPDEST PUSH1 0x40 MLOAD DUP1 SWAP2 SUB SWAP1 LOG3 POP JUMP JUMPDEST DUP1 PUSH0 DUP2 MLOAD GT PUSH2 0xCF0 JUMPI PUSH1 0x40 MLOAD PUSH3 0x461BCD PUSH1 0xE5 SHL DUP2 MSTORE PUSH1 0x4 ADD PUSH2 0x67E SWAP1 PUSH2 0x3199 JUMP JUMPDEST DUP3 PUSH2 0xD51 JUMPI PUSH1 0x40 MLOAD PUSH3 0x461BCD PUSH1 0xE5 SHL DUP2 MSTORE PUSH1 0x20 PUSH1 0x4 DUP3 ADD MSTORE PUSH1 0x2B PUSH1 0x24 DUP3 ADD MSTORE PUSH32 0x4D656D6F7279436F6E74726F6C3A204D6574616461746120686173682063616E PUSH1 0x44 DUP3 ADD MSTORE PUSH11 0x6E6F74206265207A65726F PUSH1 0xA8 SHL PUSH1 0x64 DUP3 ADD MSTORE PUSH1 0x84 ADD PUSH2 0x67E JUMP JUMPDEST PUSH0 DUP4 DUP2 MSTORE PUSH1 0x20 DUP2 SWAP1 MSTORE PUSH1 0x40 SWAP1 KECCAK256 SLOAD PUSH1 0x1 PUSH1 0x1 PUSH1 0xA0 SHL SUB AND ISZERO PUSH2 0xDD1 JUMPI PUSH1 0x40 MLOAD PUSH3 0x461BCD PUSH1 0xE5 SHL DUP2 MSTORE PUSH1 0x20 PUSH1 0x4 DUP3 ADD MSTORE PUSH1 0x33 PUSH1 0x24 DUP3 ADD MSTORE PUSH32 0x4D656D6F7279436F6E74726F6C3A204D656D6F72792077697468207468697320 PUSH1 0x44 DUP3 ADD MSTORE PUSH19 0x6861736820616C726561647920657869737473 PUSH1 0x68 SHL PUSH1 0x64 DUP3 ADD MSTORE PUSH1 0x84 ADD PUSH2 0x67E JUMP JUMPDEST PUSH1 0x40 MLOAD PUSH4 0x94310E51 PUSH1 0xE0 SHL DUP2 MSTORE PUSH0 SWAP1 PUSH1 0x1 PUSH1 0x1 PUSH1 0xA0 SHL SUB PUSH32 0x0 AND SWAP1 PUSH4 0x94310E51 SWAP1 PUSH2 0xE1F SWAP1 DUP7 SWAP1 PUSH1 0x4 ADD PUSH2 0x3049 JUMP JUMPDEST PUSH1 0x20 PUSH1 0x40 MLOAD DUP1 DUP4 SUB DUP2 DUP7 GAS STATICCALL ISZERO DUP1 ISZERO PUSH2 0xE3A JUMPI RETURNDATASIZE PUSH0 PUSH0 RETURNDATACOPY RETURNDATASIZE PUSH0 REVERT JUMPDEST POP POP POP POP PUSH1 0x40 MLOAD RETURNDATASIZE PUSH1 0x1F NOT PUSH1 0x1F DUP3 ADD AND DUP3 ADD DUP1 PUSH1 0x40 MSTORE POP DUP2 ADD SWAP1 PUSH2 0xE5E SWAP2 SWAP1 PUSH2 0x31E3 JUMP JUMPDEST PUSH1 0x40 DUP1 MLOAD PUSH1 0xA0 DUP2 ADD DUP3 MSTORE CALLER DUP2 MSTORE PUSH1 0x20 DUP1 DUP3 ADD DUP9 DUP2 MSTORE TIMESTAMP DUP4 DUP6 ADD SWAP1 DUP2 MSTORE PUSH1 0x1 PUSH1 0x1 PUSH1 0xA0 SHL SUB DUP1 DUP8 AND PUSH1 0x60 DUP7 ADD SWAP1 DUP2 MSTORE PUSH1 0x80 DUP7 ADD DUP12 DUP2 MSTORE PUSH0 DUP14 DUP2 MSTORE SWAP6 DUP7 SWAP1 MSTORE SWAP7 SWAP1 SWAP5 KECCAK256 DUP6 MLOAD DUP2 SLOAD SWAP1 DUP4 AND PUSH1 0x1 PUSH1 0x1 PUSH1 0xA0 SHL SUB NOT SWAP2 DUP3 AND OR DUP3 SSTORE SWAP4 MLOAD PUSH1 0x1 DUP3 ADD SSTORE SWAP2 MLOAD PUSH1 0x2 DUP4 ADD SSTORE SWAP3 MLOAD PUSH1 0x3 DUP3 ADD DUP1 SLOAD SWAP2 SWAP1 SWAP5 AND SWAP3 AND SWAP2 SWAP1 SWAP2 OR SWAP1 SWAP2 SSTORE SWAP2 MLOAD SWAP3 SWAP4 POP SWAP2 PUSH1 0x4 DUP3 ADD SWAP1 PUSH2 0xEED SWAP1 DUP3 PUSH2 0x324A JUMP JUMPDEST POP POP CALLER PUSH0 DUP2 DUP2 MSTORE PUSH1 0x1 PUSH1 0x20 DUP2 DUP2 MSTORE PUSH1 0x40 DUP1 DUP5 KECCAK256 PUSH1 0x1 PUSH1 0x1 PUSH1 0xA0 SHL SUB DUP9 AND DUP6 MSTORE SWAP1 SWAP2 MSTORE SWAP2 DUP3 SWAP1 KECCAK256 DUP1 SLOAD PUSH1 0xFF NOT AND SWAP1 SWAP2 OR SWAP1 SSTORE MLOAD DUP7 SWAP3 POP PUSH32 0x6C1A2D58EFE5BE4C401D24D5828CB48178C534C9AA1575F7B1D257AAB8995754 SWAP1 PUSH2 0xF4F SWAP1 DUP8 SWAP1 PUSH2 0x3049 JUMP JUMPDEST PUSH1 0x40 MLOAD DUP1 SWAP2 SUB SWAP1 LOG3 DUP1 PUSH1 0x1 PUSH1 0x1 PUSH1 0xA0 SHL SUB AND CALLER PUSH1 0x1 PUSH1 0x1 PUSH1 0xA0 SHL SUB AND PUSH32 0xC7E5C007251689B9BC3CB624F55714AFC5988F3E3B4E20CC6A606D7BAD6FAECA DUP6 PUSH1 0x40 MLOAD PUSH2 0xF9A SWAP2 SWAP1 PUSH2 0x3049 JUMP JUMPDEST PUSH1 0x40 MLOAD DUP1 SWAP2 SUB SWAP1 LOG3 POP POP POP POP JUMP JUMPDEST DUP1 PUSH0 DUP2 MLOAD GT PUSH2 0xFC9 JUMPI PUSH1 0x40 MLOAD PUSH3 0x461BCD PUSH1 0xE5 SHL DUP2 MSTORE PUSH1 0x4 ADD PUSH2 0x67E SWAP1 PUSH2 0x3199 JUMP JUMPDEST PUSH1 0x40 MLOAD PUSH4 0x94310E51 PUSH1 0xE0 SHL DUP2 MSTORE PUSH0 SWAP1 PUSH1 0x1 PUSH1 0x1 PUSH1 0xA0 SHL SUB PUSH32 0x0 AND SWAP1 PUSH4 0x94310E51 SWAP1 PUSH2 0x1017 SWAP1 DUP7 SWAP1 PUSH1 0x4 ADD PUSH2 0x3049 JUMP JUMPDEST PUSH1 0x20 PUSH1 0x40 MLOAD DUP1 DUP4 SUB DUP2 DUP7 GAS STATICCALL ISZERO DUP1 ISZERO PUSH2 0x1032 JUMPI RETURNDATASIZE PUSH0 PUSH0 RETURNDATACOPY RETURNDATASIZE PUSH0 REVERT JUMPDEST POP POP POP POP PUSH1 0x40 MLOAD RETURNDATASIZE PUSH1 0x1F NOT PUSH1 0x1F DUP3 ADD AND DUP3 ADD DUP1 PUSH1 0x40 MSTORE POP DUP2 ADD SWAP1 PUSH2 0x1056 SWAP2 SWAP1 PUSH2 0x31E3 JUMP JUMPDEST CALLER PUSH0 DUP2 DUP2 MSTORE PUSH1 0x1 PUSH1 0x20 DUP2 DUP2 MSTORE PUSH1 0x40 DUP1 DUP5 KECCAK256 PUSH1 0x1 PUSH1 0x1 PUSH1 0xA0 SHL SUB DUP8 AND DUP1 DUP7 MSTORE SWAP3 MSTORE SWAP3 DUP4 SWAP1 KECCAK256 DUP1 SLOAD PUSH1 0xFF NOT AND SWAP1 SWAP3 OR SWAP1 SWAP2 SSTORE SWAP1 MLOAD SWAP3 SWAP4 POP SWAP2 PUSH32 0xC7E5C007251689B9BC3CB624F55714AFC5988F3E3B4E20CC6A606D7BAD6FAECA SWAP1 PUSH2 0x10B9 SWAP1 DUP8 SWAP1 PUSH2 0x3049 JUMP JUMPDEST PUSH1 0x40 MLOAD DUP1 SWAP2 SUB SWAP1 LOG3 POP POP POP JUMP JUMPDEST PUSH0 DUP3 DUP2 MSTORE PUSH1 0x20 DUP2 SWAP1 MSTORE PUSH1 0x40 SWAP1 KECCAK256 SLOAD DUP3 SWAP1 PUSH1 0x1 PUSH1 0x1 PUSH1 0xA0 SHL SUB AND PUSH2 0x10FB JUMPI PUSH1 0x40 MLOAD PUSH3 0x461BCD PUSH1 0xE5 SHL DUP2 MSTORE PUSH1 0x4 ADD PUSH2 0x67E SWAP1 PUSH2 0x305B JUMP JUMPDEST PUSH0 DUP4 DUP2 MSTORE PUSH1 0x20 DUP2 SWAP1 MSTORE PUSH1 0x40 SWAP1 KECCAK256 SLOAD DUP4 SWAP1 PUSH1 0x1 PUSH1 0x1 PUSH1 0xA0 SHL SUB AND CALLER EQ PUSH2 0x1132 JUMPI PUSH1 0x40 MLOAD PUSH3 0x461BCD PUSH1 0xE5 SHL DUP2 MSTORE PUSH1 0x4 ADD PUSH2 0x67E SWAP1 PUSH2 0x30E7 JUMP JUMPDEST DUP5 PUSH0 DUP2 MLOAD GT PUSH2 0x1153 JUMPI PUSH1 0x40 MLOAD PUSH3 0x461BCD PUSH1 0xE5 SHL DUP2 MSTORE PUSH1 0x4 ADD PUSH2 0x67E SWAP1 PUSH2 0x3199 JUMP JUMPDEST PUSH0 DUP5 GT PUSH2 0x1172 JUMPI PUSH1 0x40 MLOAD PUSH3 0x461BCD PUSH1 0xE5 SHL DUP2 MSTORE PUSH1 0x4 ADD PUSH2 0x67E SWAP1 PUSH2 0x3304 JUMP JUMPDEST PUSH1 0x40 MLOAD PUSH4 0x94310E51 PUSH1 0xE0 SHL DUP2 MSTORE PUSH0 SWAP1 PUSH1 0x1 PUSH1 0x1 PUSH1 0xA0 SHL SUB PUSH32 0x0 AND SWAP1 PUSH4 0x94310E51 SWAP1 PUSH2 0x11C0 SWAP1 DUP11 SWAP1 PUSH1 0x4 ADD PUSH2 0x3049 JUMP JUMPDEST PUSH1 0x20 PUSH1 0x40 MLOAD DUP1 DUP4 SUB DUP2 DUP7 GAS STATICCALL ISZERO DUP1 ISZERO PUSH2 0x11DB JUMPI RETURNDATASIZE PUSH0 PUSH0 RETURNDATACOPY RETURNDATASIZE PUSH0 REVERT JUMPDEST POP POP POP POP PUSH1 0x40 MLOAD RETURNDATASIZE PUSH1 0x1F NOT PUSH1 0x1F DUP3 ADD AND DUP3 ADD DUP1 PUSH1 0x40 MSTORE POP DUP2 ADD SWAP1 PUSH2 0x11FF SWAP2 SWAP1 PUSH2 0x31E3 JUMP JUMPDEST SWAP1 POP PUSH0 PUSH2 0x120C DUP7 TIMESTAMP PUSH2 0x3352 JUMP JUMPDEST CALLER PUSH0 DUP2 DUP2 MSTORE PUSH1 0x4 PUSH1 0x20 SWAP1 DUP2 MSTORE PUSH1 0x40 DUP1 DUP4 KECCAK256 PUSH1 0x1 PUSH1 0x1 PUSH1 0xA0 SHL SUB DUP9 AND DUP1 DUP6 MSTORE SWAP1 DUP4 MSTORE DUP2 DUP5 KECCAK256 DUP14 DUP6 MSTORE DUP4 MSTORE DUP2 DUP5 KECCAK256 DUP7 SWAP1 SSTORE DUP5 DUP5 MSTORE PUSH1 0x3 DUP4 MSTORE DUP2 DUP5 KECCAK256 DUP2 DUP6 MSTORE DUP4 MSTORE DUP2 DUP5 KECCAK256 DUP14 DUP6 MSTORE SWAP1 SWAP3 MSTORE SWAP2 DUP3 SWAP1 KECCAK256 DUP1 SLOAD PUSH1 0xFF NOT AND PUSH1 0x1 OR SWAP1 SSTORE SWAP1 MLOAD SWAP3 SWAP4 POP DUP10 SWAP3 SWAP1 SWAP2 SWAP1 PUSH32 0x2B27E4B5B88EBC1768768EAF2B99A3AFA4E1C2B7DF951B05A311C572178847C1 SWAP1 PUSH2 0x129B SWAP1 DUP14 SWAP1 DUP8 SWAP1 PUSH2 0x3371 JUMP JUMPDEST PUSH1 0x40 MLOAD DUP1 SWAP2 SUB SWAP1 LOG4 POP POP POP POP POP POP POP POP JUMP JUMPDEST DUP1 PUSH0 DUP2 MLOAD GT PUSH2 0x12CE JUMPI PUSH1 0x40 MLOAD PUSH3 0x461BCD PUSH1 0xE5 SHL DUP2 MSTORE PUSH1 0x4 ADD PUSH2 0x67E SWAP1 PUSH2 0x3199 JUMP JUMPDEST PUSH1 0x1 PUSH1 0x1 PUSH1 0xA0 SHL SUB DUP4 AND PUSH2 0x12F4 JUMPI PUSH1 0x40 MLOAD PUSH3 0x461BCD PUSH1 0xE5 SHL DUP2 MSTORE PUSH1 0x4 ADD PUSH2 0x67E SWAP1 PUSH2 0x3144 JUMP JUMPDEST CALLER PUSH1 0x1 PUSH1 0x1 PUSH1 0xA0 SHL SUB DUP5 AND SUB PUSH2 0x131C JUMPI PUSH1 0x40 MLOAD PUSH3 0x461BCD PUSH1 0xE5 SHL DUP2 MSTORE PUSH1 0x4 ADD PUSH2 0x67E SWAP1 PUSH2 0x3392 JUMP JUMPDEST CALLER PUSH0 SWAP1 DUP2 MSTORE PUSH1 0x5 PUSH1 0x20 SWAP1 DUP2 MSTORE PUSH1 0x40 DUP1 DUP4 KECCAK256 PUSH1 0x1 PUSH1 0x1 PUSH1 0xA0 SHL SUB DUP8 AND DUP5 MSTORE SWAP1 SWAP2 MSTORE SWAP1 DUP2 SWAP1 KECCAK256 SWAP1 MLOAD PUSH1 0x1 SWAP2 SWAP1 PUSH2 0x1351 SWAP1 DUP6 SWAP1 PUSH2 0x30D1 JUMP JUMPDEST SWAP1 DUP2 MSTORE PUSH1 0x40 MLOAD SWAP1 DUP2 SWAP1 SUB PUSH1 0x20 ADD DUP2 KECCAK256 DUP1 SLOAD SWAP3 ISZERO ISZERO PUSH1 0xFF NOT SWAP1 SWAP4 AND SWAP3 SWAP1 SWAP3 OR SWAP1 SWAP2 SSTORE PUSH1 0x1 PUSH1 0x1 PUSH1 0xA0 SHL SUB DUP5 AND SWAP1 CALLER SWAP1 PUSH32 0x21B007E682E9017DE8C120AB3AB126ED8D87E284B1EE985B14B0F759E9A7F46A SWAP1 PUSH2 0x10B9 SWAP1 DUP7 SWAP1 PUSH2 0x33E0 JUMP JUMPDEST PUSH0 DUP3 DUP2 MSTORE PUSH1 0x20 DUP2 SWAP1 MSTORE PUSH1 0x40 SWAP1 KECCAK256 SLOAD DUP3 SWAP1 PUSH1 0x1 PUSH1 0x1 PUSH1 0xA0 SHL SUB AND PUSH2 0x13E1 JUMPI PUSH1 0x40 MLOAD PUSH3 0x461BCD PUSH1 0xE5 SHL DUP2 MSTORE PUSH1 0x4 ADD PUSH2 0x67E SWAP1 PUSH2 0x305B JUMP JUMPDEST PUSH0 DUP4 DUP2 MSTORE PUSH1 0x20 DUP2 SWAP1 MSTORE PUSH1 0x40 SWAP1 KECCAK256 SLOAD DUP4 SWAP1 PUSH1 0x1 PUSH1 0x1 PUSH1 0xA0 SHL SUB AND CALLER EQ PUSH2 0x1418 JUMPI PUSH1 0x40 MLOAD PUSH3 0x461BCD PUSH1 0xE5 SHL DUP2 MSTORE PUSH1 0x4 ADD PUSH2 0x67E SWAP1 PUSH2 0x30E7 JUMP JUMPDEST PUSH1 0x1 PUSH1 0x1 PUSH1 0xA0 SHL SUB DUP6 AND PUSH2 0x143E JUMPI PUSH1 0x40 MLOAD PUSH3 0x461BCD PUSH1 0xE5 SHL DUP2 MSTORE PUSH1 0x4 ADD PUSH2 0x67E SWAP1 PUSH2 0x3144 JUMP JUMPDEST CALLER PUSH1 0x1 PUSH1 0x1 PUSH1 0xA0 SHL SUB DUP7 AND SUB PUSH2 0x1466 JUMPI PUSH1 0x40 MLOAD PUSH3 0x461BCD PUSH1 0xE5 SHL DUP2 MSTORE PUSH1 0x4 ADD PUSH2 0x67E SWAP1 PUSH2 0x3392 JUMP JUMPDEST PUSH0 DUP4 GT PUSH2 0x1485 JUMPI PUSH1 0x40 MLOAD PUSH3 0x461BCD PUSH1 0xE5 SHL DUP2 MSTORE PUSH1 0x4 ADD PUSH2 0x67E SWAP1 PUSH2 0x3304 JUMP JUMPDEST PUSH0 PUSH2 0x1490 DUP5 TIMESTAMP PUSH2 0x3352 JUMP JUMPDEST CALLER PUSH0 DUP2 DUP2 MSTORE PUSH1 0x4 PUSH1 0x20 SWAP1 DUP2 MSTORE PUSH1 0x40 DUP1 DUP4 KECCAK256 PUSH1 0x1 PUSH1 0x1 PUSH1 0xA0 SHL SUB DUP13 AND DUP1 DUP6 MSTORE SWAP1 DUP4 MSTORE DUP2 DUP5 KECCAK256 DUP12 DUP6 MSTORE DUP4 MSTORE DUP2 DUP5 KECCAK256 DUP7 SWAP1 SSTORE DUP5 DUP5 MSTORE PUSH1 0x3 DUP4 MSTORE DUP2 DUP5 KECCAK256 DUP2 DUP6 MSTORE DUP4 MSTORE DUP2 DUP5 KECCAK256 DUP12 DUP6 MSTORE DUP4 MSTORE DUP2 DUP5 KECCAK256 DUP1 SLOAD PUSH1 0xFF NOT AND PUSH1 0x1 OR SWAP1 SSTORE DUP2 MLOAD DUP3 DUP2 MSTORE SWAP2 DUP3 ADD SWAP4 SWAP1 SWAP4 MSTORE SWAP1 DUP2 ADD DUP5 SWAP1 MSTORE SWAP3 SWAP4 POP DUP8 SWAP3 SWAP1 SWAP2 SWAP1 PUSH32 0x2B27E4B5B88EBC1768768EAF2B99A3AFA4E1C2B7DF951B05A311C572178847C1 SWAP1 PUSH1 0x60 ADD JUMPDEST PUSH1 0x40 MLOAD DUP1 SWAP2 SUB SWAP1 LOG4 POP POP POP POP POP POP JUMP JUMPDEST CALLER PUSH0 SWAP1 DUP2 MSTORE PUSH1 0x4 PUSH1 0x20 SWAP1 DUP2 MSTORE PUSH1 0x40 DUP1 DUP4 KECCAK256 PUSH1 0x1 PUSH1 0x1 PUSH1 0xA0 SHL SUB DUP7 AND DUP5 MSTORE DUP3 MSTORE DUP1 DUP4 KECCAK256 DUP5 DUP5 MSTORE SWAP1 SWAP2 MSTORE DUP2 KECCAK256 SLOAD DUP2 SUB PUSH2 0x156C JUMPI POP PUSH0 PUSH2 0x159B JUMP JUMPDEST POP CALLER PUSH0 SWAP1 DUP2 MSTORE PUSH1 0x4 PUSH1 0x20 SWAP1 DUP2 MSTORE PUSH1 0x40 DUP1 DUP4 KECCAK256 PUSH1 0x1 PUSH1 0x1 PUSH1 0xA0 SHL SUB DUP7 AND DUP5 MSTORE DUP3 MSTORE DUP1 DUP4 KECCAK256 DUP5 DUP5 MSTORE SWAP1 SWAP2 MSTORE SWAP1 KECCAK256 SLOAD TIMESTAMP GT JUMPDEST SWAP3 SWAP2 POP POP JUMP JUMPDEST PUSH1 0x1 PUSH1 0x1 PUSH1 0xA0 SHL SUB DUP3 AND PUSH2 0x15C7 JUMPI PUSH1 0x40 MLOAD PUSH3 0x461BCD PUSH1 0xE5 SHL DUP2 MSTORE PUSH1 0x4 ADD PUSH2 0x67E SWAP1 PUSH2 0x3144 JUMP JUMPDEST CALLER PUSH1 0x1 PUSH1 0x1 PUSH1 0xA0 SHL SUB DUP4 AND SUB PUSH2 0x15EF JUMPI PUSH1 0x40 MLOAD PUSH3 0x461BCD PUSH1 0xE5 SHL DUP2 MSTORE PUSH1 0x4 ADD PUSH2 0x67E SWAP1 PUSH2 0x3392 JUMP JUMPDEST PUSH0 DUP2 GT PUSH2 0x160E JUMPI PUSH1 0x40 MLOAD PUSH3 0x461BCD PUSH1 0xE5 SHL DUP2 MSTORE PUSH1 0x4 ADD PUSH2 0x67E SWAP1 PUSH2 0x3304 JUMP JUMPDEST PUSH0 PUSH2 0x1619 DUP3 TIMESTAMP PUSH2 0x3352 JUMP JUMPDEST CALLER PUSH0 DUP2 DUP2 MSTORE PUSH1 0x2 PUSH1 0x20 SWAP1 DUP2 MSTORE PUSH1 0x40 DUP1 DUP4 KECCAK256 PUSH1 0x1 PUSH1 0x1 PUSH1 0xA0 SHL SUB DUP10 AND DUP1 DUP6 MSTORE SWAP1 DUP4 MSTORE DUP2 DUP5 KECCAK256 DUP7 SWAP1 SSTORE DUP5 DUP5 MSTORE PUSH1 0x1 DUP1 DUP5 MSTORE DUP3 DUP6 KECCAK256 DUP3 DUP7 MSTORE DUP5 MSTORE DUP3 DUP6 KECCAK256 DUP1 SLOAD PUSH1 0xFF NOT AND SWAP1 SWAP2 OR SWAP1 SSTORE DUP2 MLOAD DUP3 DUP2 MSTORE SWAP2 DUP3 ADD SWAP4 SWAP1 SWAP4 MSTORE SWAP1 DUP2 ADD DUP5 SWAP1 MSTORE SWAP3 SWAP4 POP SWAP2 PUSH32 0x90056CEFBF0E5574CDE1EF22F96C2BB2D33AA175AB27E44C77BDA129CF657390 SWAP1 PUSH1 0x60 ADD PUSH2 0x10B9 JUMP JUMPDEST DUP1 PUSH0 DUP2 MLOAD GT PUSH2 0x16BF JUMPI PUSH1 0x40 MLOAD PUSH3 0x461BCD PUSH1 0xE5 SHL DUP2 MSTORE PUSH1 0x4 ADD PUSH2 0x67E SWAP1 PUSH2 0x3199 JUMP JUMPDEST PUSH1 0x40 MLOAD PUSH4 0x94310E51 PUSH1 0xE0 SHL DUP2 MSTORE PUSH0 SWAP1 PUSH1 0x1 PUSH1 0x1 PUSH1 0xA0 SHL SUB PUSH32 0x0 AND SWAP1 PUSH4 0x94310E51 SWAP1 PUSH2 0x170D SWAP1 DUP7 SWAP1 PUSH1 0x4 ADD PUSH2 0x3049 JUMP JUMPDEST PUSH1 0x20 PUSH1 0x40 MLOAD DUP1 DUP4 SUB DUP2 DUP7 GAS STATICCALL ISZERO DUP1 ISZERO PUSH2 0x1728 JUMPI RETURNDATASIZE PUSH0 PUSH0 RETURNDATACOPY RETURNDATASIZE PUSH0 REVERT JUMPDEST POP POP POP POP PUSH1 0x40 MLOAD RETURNDATASIZE PUSH1 0x1F NOT PUSH1 0x1F DUP3 ADD AND DUP3 ADD DUP1 PUSH1 0x40 MSTORE POP DUP2 ADD SWAP1 PUSH2 0x174C SWAP2 SWAP1 PUSH2 0x31E3 JUMP JUMPDEST CALLER PUSH0 DUP2 DUP2 MSTORE PUSH1 0x2 PUSH1 0x20 SWAP1 DUP2 MSTORE PUSH1 0x40 DUP1 DUP4 KECCAK256 PUSH1 0x1 PUSH1 0x1 PUSH1 0xA0 SHL SUB DUP7 AND DUP1 DUP6 MSTORE SWAP1 DUP4 MSTORE DUP2 DUP5 KECCAK256 DUP5 SWAP1 SSTORE DUP5 DUP5 MSTORE PUSH1 0x1 DUP4 MSTORE DUP2 DUP5 KECCAK256 DUP2 DUP6 MSTORE SWAP1 SWAP3 MSTORE SWAP2 DUP3 SWAP1 KECCAK256 DUP1 SLOAD PUSH1 0xFF NOT AND SWAP1 SSTORE SWAP1 MLOAD SWAP3 SWAP4 POP SWAP2 PUSH32 0xBCBA83A04E29C80214E54ACB8B601353D47121572200F79340246E818BDA9D09 SWAP1 PUSH2 0x10B9 SWAP1 DUP8 SWAP1 PUSH2 0x3049 JUMP JUMPDEST PUSH0 PUSH1 0x20 DUP2 SWAP1 MSTORE SWAP1 DUP2 MSTORE PUSH1 0x40 SWAP1 KECCAK256 DUP1 SLOAD PUSH1 0x1 DUP3 ADD SLOAD PUSH1 0x2 DUP4 ADD SLOAD PUSH1 0x3 DUP5 ADD SLOAD PUSH1 0x4 DUP6 ADD DUP1 SLOAD PUSH1 0x1 PUSH1 0x1 PUSH1 0xA0 SHL SUB SWAP6 DUP7 AND SWAP7 SWAP5 SWAP6 SWAP4 SWAP5 SWAP3 SWAP1 SWAP4 AND SWAP3 PUSH2 0x1804 SWAP1 PUSH2 0x309F JUMP JUMPDEST DUP1 PUSH1 0x1F ADD PUSH1 0x20 DUP1 SWAP2 DIV MUL PUSH1 0x20 ADD PUSH1 0x40 MLOAD SWAP1 DUP2 ADD PUSH1 0x40 MSTORE DUP1 SWAP3 SWAP2 SWAP1 DUP2 DUP2 MSTORE PUSH1 0x20 ADD DUP3 DUP1 SLOAD PUSH2 0x1830 SWAP1 PUSH2 0x309F JUMP JUMPDEST DUP1 ISZERO PUSH2 0x187B JUMPI DUP1 PUSH1 0x1F LT PUSH2 0x1852 JUMPI PUSH2 0x100 DUP1 DUP4 SLOAD DIV MUL DUP4 MSTORE SWAP2 PUSH1 0x20 ADD SWAP2 PUSH2 0x187B JUMP JUMPDEST DUP3 ADD SWAP2 SWAP1 PUSH0 MSTORE PUSH1 0x20 PUSH0 KECCAK256 SWAP1 JUMPDEST DUP2 SLOAD DUP2 MSTORE SWAP1 PUSH1 0x1 ADD SWAP1 PUSH1 0x20 ADD DUP1 DUP4 GT PUSH2 0x185E JUMPI DUP3 SWAP1 SUB PUSH1 0x1F AND DUP3 ADD SWAP2 JUMPDEST POP POP POP POP POP SWAP1 POP DUP6 JUMP JUMPDEST PUSH0 DUP2 DUP2 MSTORE PUSH1 0x20 DUP2 SWAP1 MSTORE PUSH1 0x40 SWAP1 KECCAK256 SLOAD DUP2 SWAP1 PUSH1 0x1 PUSH1 0x1 PUSH1 0xA0 SHL SUB AND PUSH2 0x18BA JUMPI PUSH1 0x40 MLOAD PUSH3 0x461BCD PUSH1 0xE5 SHL DUP2 MSTORE PUSH1 0x4 ADD PUSH2 0x67E SWAP1 PUSH2 0x305B JUMP JUMPDEST PUSH0 DUP3 DUP2 MSTORE PUSH1 0x20 DUP2 SWAP1 MSTORE PUSH1 0x40 SWAP1 KECCAK256 SLOAD DUP3 SWAP1 PUSH1 0x1 PUSH1 0x1 PUSH1 0xA0 SHL SUB AND CALLER EQ PUSH2 0x18F1 JUMPI PUSH1 0x40 MLOAD PUSH3 0x461BCD PUSH1 0xE5 SHL DUP2 MSTORE PUSH1 0x4 ADD PUSH2 0x67E SWAP1 PUSH2 0x30E7 JUMP JUMPDEST PUSH1 0x1 PUSH1 0x1 PUSH1 0xA0 SHL SUB DUP5 AND PUSH2 0x1917 JUMPI PUSH1 0x40 MLOAD PUSH3 0x461BCD PUSH1 0xE5 SHL DUP2 MSTORE PUSH1 0x4 ADD PUSH2 0x67E SWAP1 PUSH2 0x3144 JUMP JUMPDEST CALLER PUSH1 0x1 PUSH1 0x1 PUSH1 0xA0 SHL SUB DUP6 AND SUB PUSH2 0x193F JUMPI PUSH1 0x40 MLOAD PUSH3 0x461BCD PUSH1 0xE5 SHL DUP2 MSTORE PUSH1 0x4 ADD PUSH2 0x67E SWAP1 PUSH2 0x3392 JUMP JUMPDEST CALLER PUSH0 DUP2 DUP2 MSTORE PUSH1 0x3 PUSH1 0x20 SWAP1 DUP2 MSTORE PUSH1 0x40 DUP1 DUP4 KECCAK256 PUSH1 0x1 PUSH1 0x1 PUSH1 0xA0 SHL SUB DUP10 AND DUP1 DUP6 MSTORE SWAP1 DUP4 MSTORE DUP2 DUP5 KECCAK256 DUP9 DUP6 MSTORE DUP4 MSTORE DUP2 DUP5 KECCAK256 DUP1 SLOAD PUSH1 0xFF NOT AND PUSH1 0x1 OR SWAP1 SSTORE DUP2 MLOAD DUP4 DUP2 MSTORE SWAP3 DUP4 ADD SWAP4 SWAP1 SWAP4 MSTORE DUP7 SWAP4 SWAP2 PUSH32 0xBDBADF567B0CF71C55301C89B47C08E1D0AA234F1A0148A085F5AD923E86AD6E SWAP2 ADD JUMPDEST PUSH1 0x40 MLOAD DUP1 SWAP2 SUB SWAP1 LOG4 POP POP POP POP JUMP JUMPDEST PUSH1 0x1 PUSH1 0x1 PUSH1 0xA0 SHL SUB DUP3 AND PUSH2 0x19DD JUMPI PUSH1 0x40 MLOAD PUSH3 0x461BCD PUSH1 0xE5 SHL DUP2 MSTORE PUSH1 0x4 ADD PUSH2 0x67E SWAP1 PUSH2 0x3144 JUMP JUMPDEST CALLER PUSH0 DUP2 DUP2 MSTORE PUSH1 0x3 PUSH1 0x20 SWAP1 DUP2 MSTORE PUSH1 0x40 DUP1 DUP4 KECCAK256 PUSH1 0x1 PUSH1 0x1 PUSH1 0xA0 SHL SUB DUP8 AND DUP1 DUP6 MSTORE SWAP1 DUP4 MSTORE DUP2 DUP5 KECCAK256 DUP7 DUP6 MSTORE DUP4 MSTORE DUP2 DUP5 KECCAK256 DUP1 SLOAD PUSH1 0xFF NOT AND SWAP1 SSTORE DUP5 DUP5 MSTORE PUSH1 0x4 DUP4 MSTORE DUP2 DUP5 KECCAK256 DUP2 DUP6 MSTORE DUP4 MSTORE DUP2 DUP5 KECCAK256 DUP7 DUP6 MSTORE DUP4 MSTORE DUP2 DUP5 KECCAK256 DUP5 SWAP1 SSTORE DUP2 MLOAD DUP4 DUP2 MSTORE SWAP3 DUP4 ADD SWAP4 SWAP1 SWAP4 MSTORE DUP5 SWAP4 SWAP2 PUSH32 0x768E414F25614956089FAED55A8692F78FE5A118C68BB4AD1D49741A8024C2D3 SWAP2 ADD PUSH1 0x40 MLOAD DUP1 SWAP2 SUB SWAP1 LOG4 POP POP JUMP JUMPDEST DUP2 PUSH0 DUP2 MLOAD GT PUSH2 0x1A8D JUMPI PUSH1 0x40 MLOAD PUSH3 0x461BCD PUSH1 0xE5 SHL DUP2 MSTORE PUSH1 0x4 ADD PUSH2 0x67E SWAP1 PUSH2 0x3199 JUMP JUMPDEST PUSH0 DUP3 GT PUSH2 0x1AAC JUMPI PUSH1 0x40 MLOAD PUSH3 0x461BCD PUSH1 0xE5 SHL DUP2 MSTORE PUSH1 0x4 ADD PUSH2 0x67E SWAP1 PUSH2 0x3304 JUMP JUMPDEST PUSH1 0x40 MLOAD PUSH4 0x94310E51 PUSH1 0xE0 SHL DUP2 MSTORE PUSH0 SWAP1 PUSH1 0x1 PUSH1 0x1 PUSH1 0xA0 SHL SUB PUSH32 0x0 AND SWAP1 PUSH4 0x94310E51 SWAP1 PUSH2 0x1AFA SWAP1 DUP8 SWAP1 PUSH1 0x4 ADD PUSH2 0x3049 JUMP JUMPDEST PUSH1 0x20 PUSH1 0x40 MLOAD DUP1 DUP4 SUB DUP2 DUP7 GAS STATICCALL ISZERO DUP1 ISZERO PUSH2 0x1B15 JUMPI RETURNDATASIZE PUSH0 PUSH0 RETURNDATACOPY RETURNDATASIZE PUSH0 REVERT JUMPDEST POP POP POP POP PUSH1 0x40 MLOAD RETURNDATASIZE PUSH1 0x1F NOT PUSH1 0x1F DUP3 ADD AND DUP3 ADD DUP1 PUSH1 0x40 MSTORE POP DUP2 ADD SWAP1 PUSH2 0x1B39 SWAP2 SWAP1 PUSH2 0x31E3 JUMP JUMPDEST SWAP1 POP PUSH0 PUSH2 0x1B46 DUP5 TIMESTAMP PUSH2 0x3352 JUMP JUMPDEST CALLER PUSH0 DUP2 DUP2 MSTORE PUSH1 0x2 PUSH1 0x20 SWAP1 DUP2 MSTORE PUSH1 0x40 DUP1 DUP4 KECCAK256 PUSH1 0x1 PUSH1 0x1 PUSH1 0xA0 SHL SUB DUP9 AND DUP1 DUP6 MSTORE SWAP1 DUP4 MSTORE DUP2 DUP5 KECCAK256 DUP7 SWAP1 SSTORE DUP5 DUP5 MSTORE PUSH1 0x1 DUP1 DUP5 MSTORE DUP3 DUP6 KECCAK256 DUP3 DUP7 MSTORE SWAP1 SWAP4 MSTORE SWAP3 DUP2 SWAP1 KECCAK256 DUP1 SLOAD PUSH1 0xFF NOT AND SWAP1 SWAP3 OR SWAP1 SWAP2 SSTORE MLOAD SWAP3 SWAP4 POP SWAP2 PUSH32 0x90056CEFBF0E5574CDE1EF22F96C2BB2D33AA175AB27E44C77BDA129CF657390 SWAP1 PUSH2 0x1BC2 SWAP1 DUP10 SWAP1 DUP7 SWAP1 PUSH2 0x3371 JUMP JUMPDEST PUSH1 0x40 MLOAD DUP1 SWAP2 SUB SWAP1 LOG3 POP POP POP POP POP JUMP JUMPDEST PUSH0 DUP3 DUP2 MSTORE PUSH1 0x20 DUP2 SWAP1 MSTORE PUSH1 0x40 DUP2 KECCAK256 SLOAD DUP4 SWAP1 PUSH1 0x1 PUSH1 0x1 PUSH1 0xA0 SHL SUB AND PUSH2 0x1C06 JUMPI PUSH1 0x40 MLOAD PUSH3 0x461BCD PUSH1 0xE5 SHL DUP2 MSTORE PUSH1 0x4 ADD PUSH2 0x67E SWAP1 PUSH2 0x305B JUMP JUMPDEST PUSH0 DUP5 DUP2 MSTORE PUSH1 0x20 DUP2 DUP2 MSTORE PUSH1 0x40 DUP1 DUP4 KECCAK256 DUP2 MLOAD PUSH1 0xA0 DUP2 ADD DUP4 MSTORE DUP2 SLOAD PUSH1 0x1 PUSH1 0x1 PUSH1 0xA0 SHL SUB SWAP1 DUP2 AND DUP3 MSTORE PUSH1 0x1 DUP4 ADD SLOAD SWAP5 DUP3 ADD SWAP5 SWAP1 SWAP5 MSTORE PUSH1 0x2 DUP3 ADD SLOAD SWAP3 DUP2 ADD SWAP3 SWAP1 SWAP3 MSTORE PUSH1 0x3 DUP2 ADD SLOAD SWAP1 SWAP3 AND PUSH1 0x60 DUP3 ADD MSTORE PUSH1 0x4 DUP3 ADD DUP1 SLOAD SWAP2 SWAP3 SWAP2 PUSH1 0x80 DUP5 ADD SWAP2 SWAP1 PUSH2 0x1C68 SWAP1 PUSH2 0x309F JUMP JUMPDEST DUP1 PUSH1 0x1F ADD PUSH1 0x20 DUP1 SWAP2 DIV MUL PUSH1 0x20 ADD PUSH1 0x40 MLOAD SWAP1 DUP2 ADD PUSH1 0x40 MSTORE DUP1 SWAP3 SWAP2 SWAP1 DUP2 DUP2 MSTORE PUSH1 0x20 ADD DUP3 DUP1 SLOAD PUSH2 0x1C94 SWAP1 PUSH2 0x309F JUMP JUMPDEST DUP1 ISZERO PUSH2 0x1CDF JUMPI DUP1 PUSH1 0x1F LT PUSH2 0x1CB6 JUMPI PUSH2 0x100 DUP1 DUP4 SLOAD DIV MUL DUP4 MSTORE SWAP2 PUSH1 0x20 ADD SWAP2 PUSH2 0x1CDF JUMP JUMPDEST DUP3 ADD SWAP2 SWAP1 PUSH0 MSTORE PUSH1 0x20 PUSH0 KECCAK256 SWAP1 JUMPDEST DUP2 SLOAD DUP2 MSTORE SWAP1 PUSH1 0x1 ADD SWAP1 PUSH1 0x20 ADD DUP1 DUP4 GT PUSH2 0x1CC2 JUMPI DUP3 SWAP1 SUB PUSH1 0x1F AND DUP3 ADD SWAP2 JUMPDEST POP POP POP POP POP DUP2 MSTORE POP POP SWAP1 POP DUP1 PUSH0 ADD MLOAD PUSH1 0x1 PUSH1 0x1 PUSH1 0xA0 SHL SUB AND DUP5 PUSH1 0x1 PUSH1 0x1 PUSH1 0xA0 SHL SUB AND SUB PUSH2 0x1D10 JUMPI PUSH1 0x1 SWAP3 POP POP PUSH2 0x9E4 JUMP JUMPDEST MLOAD PUSH1 0x1 PUSH1 0x1 PUSH1 0xA0 SHL SUB SWAP1 DUP2 AND PUSH0 SWAP1 DUP2 MSTORE PUSH1 0x1 PUSH1 0x20 SWAP1 DUP2 MSTORE PUSH1 0x40 DUP1 DUP4 KECCAK256 SWAP4 DUP8 AND DUP4 MSTORE SWAP3 SWAP1 MSTORE KECCAK256 SLOAD PUSH1 0xFF AND SWAP2 POP POP SWAP3 SWAP2 POP POP JUMP JUMPDEST DUP3 PUSH0 DUP2 MLOAD GT PUSH2 0x1D63 JUMPI PUSH1 0x40 MLOAD PUSH3 0x461BCD PUSH1 0xE5 SHL DUP2 MSTORE PUSH1 0x4 ADD PUSH2 0x67E SWAP1 PUSH2 0x3199 JUMP JUMPDEST DUP3 PUSH0 DUP2 MLOAD GT PUSH2 0x1D84 JUMPI PUSH1 0x40 MLOAD PUSH3 0x461BCD PUSH1 0xE5 SHL DUP2 MSTORE PUSH1 0x4 ADD PUSH2 0x67E SWAP1 PUSH2 0x3199 JUMP JUMPDEST PUSH0 DUP4 GT PUSH2 0x1DA3 JUMPI PUSH1 0x40 MLOAD PUSH3 0x461BCD PUSH1 0xE5 SHL DUP2 MSTORE PUSH1 0x4 ADD PUSH2 0x67E SWAP1 PUSH2 0x3304 JUMP JUMPDEST PUSH1 0x40 MLOAD PUSH4 0x94310E51 PUSH1 0xE0 SHL DUP2 MSTORE PUSH0 SWAP1 PUSH1 0x1 PUSH1 0x1 PUSH1 0xA0 SHL SUB PUSH32 0x0 AND SWAP1 PUSH4 0x94310E51 SWAP1 PUSH2 0x1DF1 SWAP1 DUP10 SWAP1 PUSH1 0x4 ADD PUSH2 0x3049 JUMP JUMPDEST PUSH1 0x20 PUSH1 0x40 MLOAD DUP1 DUP4 SUB DUP2 DUP7 GAS STATICCALL ISZERO DUP1 ISZERO PUSH2 0x1E0C JUMPI RETURNDATASIZE PUSH0 PUSH0 RETURNDATACOPY RETURNDATASIZE PUSH0 REVERT JUMPDEST POP POP POP POP PUSH1 0x40 MLOAD RETURNDATASIZE PUSH1 0x1F NOT PUSH1 0x1F DUP3 ADD AND DUP3 ADD DUP1 PUSH1 0x40 MSTORE POP DUP2 ADD SWAP1 PUSH2 0x1E30 SWAP2 SWAP1 PUSH2 0x31E3 JUMP JUMPDEST SWAP1 POP PUSH0 PUSH2 0x1E3D DUP6 TIMESTAMP PUSH2 0x3352 JUMP JUMPDEST CALLER PUSH0 SWAP1 DUP2 MSTORE PUSH1 0x6 PUSH1 0x20 SWAP1 DUP2 MSTORE PUSH1 0x40 DUP1 DUP4 KECCAK256 PUSH1 0x1 PUSH1 0x1 PUSH1 0xA0 SHL SUB DUP8 AND DUP5 MSTORE SWAP1 SWAP2 MSTORE SWAP1 DUP2 SWAP1 KECCAK256 SWAP1 MLOAD SWAP2 SWAP3 POP DUP3 SWAP2 PUSH2 0x1E73 SWAP1 DUP10 SWAP1 PUSH2 0x30D1 JUMP JUMPDEST SWAP1 DUP2 MSTORE PUSH1 0x40 DUP1 MLOAD PUSH1 0x20 SWAP3 DUP2 SWAP1 SUB DUP4 ADD DUP2 KECCAK256 SWAP4 SWAP1 SWAP4 SSTORE CALLER PUSH0 SWAP1 DUP2 MSTORE PUSH1 0x5 DUP4 MSTORE DUP2 DUP2 KECCAK256 PUSH1 0x1 PUSH1 0x1 PUSH1 0xA0 SHL SUB DUP8 AND DUP3 MSTORE SWAP1 SWAP3 MSTORE SWAP1 KECCAK256 PUSH1 0x1 SWAP2 PUSH2 0x1EB3 SWAP1 DUP10 SWAP1 PUSH2 0x30D1 JUMP JUMPDEST SWAP1 DUP2 MSTORE PUSH1 0x40 MLOAD SWAP1 DUP2 SWAP1 SUB PUSH1 0x20 ADD DUP2 KECCAK256 DUP1 SLOAD SWAP3 ISZERO ISZERO PUSH1 0xFF NOT SWAP1 SWAP4 AND SWAP3 SWAP1 SWAP3 OR SWAP1 SWAP2 SSTORE PUSH1 0x1 PUSH1 0x1 PUSH1 0xA0 SHL SUB DUP4 AND SWAP1 CALLER SWAP1 PUSH32 0x6ADF36A44F7C2DFA3D1F13FADD298AD4651F69261818396DF54CB9EFFBCAB996 SWAP1 PUSH2 0x1F12 SWAP1 DUP11 SWAP1 DUP13 SWAP1 DUP8 SWAP1 PUSH2 0x3408 JUMP JUMPDEST PUSH1 0x40 MLOAD DUP1 SWAP2 SUB SWAP1 LOG3 POP POP POP POP POP POP POP JUMP JUMPDEST DUP2 PUSH0 DUP2 MLOAD GT PUSH2 0x1F44 JUMPI PUSH1 0x40 MLOAD PUSH3 0x461BCD PUSH1 0xE5 SHL DUP2 MSTORE PUSH1 0x4 ADD PUSH2 0x67E SWAP1 PUSH2 0x3199 JUMP JUMPDEST PUSH1 0x1 PUSH1 0x1 PUSH1 0xA0 SHL SUB DUP5 AND PUSH2 0x1F6A JUMPI PUSH1 0x40 MLOAD PUSH3 0x461BCD PUSH1 0xE5 SHL DUP2 MSTORE PUSH1 0x4 ADD PUSH2 0x67E SWAP1 PUSH2 0x3144 JUMP JUMPDEST CALLER PUSH1 0x1 PUSH1 0x1 PUSH1 0xA0 SHL SUB DUP6 AND SUB PUSH2 0x1F92 JUMPI PUSH1 0x40 MLOAD PUSH3 0x461BCD PUSH1 0xE5 SHL DUP2 MSTORE PUSH1 0x4 ADD PUSH2 0x67E SWAP1 PUSH2 0x3392 JUMP JUMPDEST PUSH0 DUP3 GT PUSH2 0x1FB1 JUMPI PUSH1 0x40 MLOAD PUSH3 0x461BCD PUSH1 0xE5 SHL DUP2 MSTORE PUSH1 0x4 ADD PUSH2 0x67E SWAP1 PUSH2 0x3304 JUMP JUMPDEST PUSH0 PUSH2 0x1FBC DUP4 TIMESTAMP PUSH2 0x3352 JUMP JUMPDEST CALLER PUSH0 SWAP1 DUP2 MSTORE PUSH1 0x6 PUSH1 0x20 SWAP1 DUP2 MSTORE PUSH1 0x40 DUP1 DUP4 KECCAK256 PUSH1 0x1 PUSH1 0x1 PUSH1 0xA0 SHL SUB DUP11 AND DUP5 MSTORE SWAP1 SWAP2 MSTORE SWAP1 DUP2 SWAP1 KECCAK256 SWAP1 MLOAD SWAP2 SWAP3 POP DUP3 SWAP2 PUSH2 0x1FF2 SWAP1 DUP8 SWAP1 PUSH2 0x30D1 JUMP JUMPDEST SWAP1 DUP2 MSTORE PUSH1 0x40 DUP1 MLOAD PUSH1 0x20 SWAP3 DUP2 SWAP1 SUB DUP4 ADD DUP2 KECCAK256 SWAP4 SWAP1 SWAP4 SSTORE CALLER PUSH0 SWAP1 DUP2 MSTORE PUSH1 0x5 DUP4 MSTORE DUP2 DUP2 KECCAK256 PUSH1 0x1 PUSH1 0x1 PUSH1 0xA0 SHL SUB DUP11 AND DUP3 MSTORE SWAP1 SWAP3 MSTORE SWAP1 KECCAK256 PUSH1 0x1 SWAP2 PUSH2 0x2032 SWAP1 DUP8 SWAP1 PUSH2 0x30D1 JUMP JUMPDEST SWAP1 DUP2 MSTORE PUSH1 0x40 MLOAD SWAP1 DUP2 SWAP1 SUB PUSH1 0x20 ADD DUP2 KECCAK256 DUP1 SLOAD SWAP3 ISZERO ISZERO PUSH1 0xFF NOT SWAP1 SWAP4 AND SWAP3 SWAP1 SWAP3 OR SWAP1 SWAP2 SSTORE PUSH1 0x1 PUSH1 0x1 PUSH1 0xA0 SHL SUB DUP7 AND SWAP1 CALLER SWAP1 PUSH32 0x6ADF36A44F7C2DFA3D1F13FADD298AD4651F69261818396DF54CB9EFFBCAB996 SWAP1 PUSH2 0x1BC2 SWAP1 DUP9 SWAP1 DUP7 SWAP1 PUSH2 0x343D JUMP JUMPDEST PUSH1 0x1 PUSH1 0x1 PUSH1 0xA0 SHL SUB DUP2 AND PUSH2 0x20B5 JUMPI PUSH1 0x40 MLOAD PUSH3 0x461BCD PUSH1 0xE5 SHL DUP2 MSTORE PUSH1 0x4 ADD PUSH2 0x67E SWAP1 PUSH2 0x3144 JUMP JUMPDEST CALLER PUSH1 0x1 PUSH1 0x1 PUSH1 0xA0 SHL SUB DUP3 AND SUB PUSH2 0x20DD JUMPI PUSH1 0x40 MLOAD PUSH3 0x461BCD PUSH1 0xE5 SHL DUP2 MSTORE PUSH1 0x4 ADD PUSH2 0x67E SWAP1 PUSH2 0x3392 JUMP JUMPDEST CALLER PUSH0 DUP2 DUP2 MSTORE PUSH1 0x1 PUSH1 0x20 DUP2 DUP2 MSTORE PUSH1 0x40 DUP1 DUP5 KECCAK256 PUSH1 0x1 PUSH1 0x1 PUSH1 0xA0 SHL SUB DUP8 AND DUP1 DUP7 MSTORE SWAP1 DUP4 MSTORE DUP2 DUP6 KECCAK256 DUP1 SLOAD PUSH1 0xFF NOT AND SWAP1 SWAP5 OR SWAP1 SWAP4 SSTORE DUP1 MLOAD DUP3 DUP2 MSTORE SWAP2 DUP3 ADD SWAP4 SWAP1 SWAP4 MSTORE SWAP1 SWAP3 SWAP2 PUSH32 0xC7E5C007251689B9BC3CB624F55714AFC5988F3E3B4E20CC6A606D7BAD6FAECA SWAP2 ADD PUSH2 0xCC4 JUMP JUMPDEST DUP2 PUSH0 DUP2 MLOAD GT PUSH2 0x2165 JUMPI PUSH1 0x40 MLOAD PUSH3 0x461BCD PUSH1 0xE5 SHL DUP2 MSTORE PUSH1 0x4 ADD PUSH2 0x67E SWAP1 PUSH2 0x3199 JUMP JUMPDEST PUSH1 0x40 MLOAD PUSH4 0x94310E51 PUSH1 0xE0 SHL DUP2 MSTORE PUSH0 SWAP1 PUSH1 0x1 PUSH1 0x1 PUSH1 0xA0 SHL SUB PUSH32 0x0 AND SWAP1 PUSH4 0x94310E51 SWAP1 PUSH2 0x21B3 SWAP1 DUP8 SWAP1 PUSH1 0x4 ADD PUSH2 0x3049 JUMP JUMPDEST PUSH1 0x20 PUSH1 0x40 MLOAD DUP1 DUP4 SUB DUP2 DUP7 GAS STATICCALL ISZERO DUP1 ISZERO PUSH2 0x21CE JUMPI RETURNDATASIZE PUSH0 PUSH0 RETURNDATACOPY RETURNDATASIZE PUSH0 REVERT JUMPDEST POP POP POP POP PUSH1 0x40 MLOAD RETURNDATASIZE PUSH1 0x1F NOT PUSH1 0x1F DUP3 ADD AND DUP3 ADD DUP1 PUSH1 0x40 MSTORE POP DUP2 ADD SWAP1 PUSH2 0x21F2 SWAP2 SWAP1 PUSH2 0x31E3 JUMP JUMPDEST CALLER PUSH0 SWAP1 DUP2 MSTORE PUSH1 0x5 PUSH1 0x20 SWAP1 DUP2 MSTORE PUSH1 0x40 DUP1 DUP4 KECCAK256 PUSH1 0x1 PUSH1 0x1 PUSH1 0xA0 SHL SUB DUP6 AND DUP5 MSTORE SWAP1 SWAP2 MSTORE DUP1 DUP3 KECCAK256 SWAP1 MLOAD SWAP3 SWAP4 POP SWAP1 SWAP2 PUSH2 0x2227 SWAP1 DUP7 SWAP1 PUSH2 0x30D1 JUMP JUMPDEST SWAP1 DUP2 MSTORE PUSH1 0x40 DUP1 MLOAD PUSH1 0x20 SWAP3 DUP2 SWAP1 SUB DUP4 ADD DUP2 KECCAK256 DUP1 SLOAD PUSH1 0xFF NOT AND SWAP5 ISZERO ISZERO SWAP5 SWAP1 SWAP5 OR SWAP1 SWAP4 SSTORE CALLER PUSH0 SWAP1 DUP2 MSTORE PUSH1 0x6 DUP4 MSTORE DUP2 DUP2 KECCAK256 PUSH1 0x1 PUSH1 0x1 PUSH1 0xA0 SHL SUB DUP7 AND DUP3 MSTORE SWAP1 SWAP3 MSTORE DUP2 KECCAK256 SWAP1 SWAP2 PUSH2 0x2272 SWAP1 DUP7 SWAP1 PUSH2 0x30D1 JUMP JUMPDEST SWAP1 DUP2 MSTORE PUSH1 0x20 ADD PUSH1 0x40 MLOAD DUP1 SWAP2 SUB SWAP1 KECCAK256 DUP2 SWAP1 SSTORE POP DUP1 PUSH1 0x1 PUSH1 0x1 PUSH1 0xA0 SHL SUB AND CALLER PUSH1 0x1 PUSH1 0x1 PUSH1 0xA0 SHL SUB AND PUSH32 0xB09E079155E58EBB686E73C2048035A5A0E9F191531017EBB8FCD588AAE9FEDB DUP6 DUP8 PUSH1 0x40 MLOAD PUSH2 0xF9A SWAP3 SWAP2 SWAP1 PUSH2 0x346E JUMP JUMPDEST DUP1 PUSH0 DUP2 MLOAD GT PUSH2 0x22EA JUMPI PUSH1 0x40 MLOAD PUSH3 0x461BCD PUSH1 0xE5 SHL DUP2 MSTORE PUSH1 0x4 ADD PUSH2 0x67E SWAP1 PUSH2 0x3199 JUMP JUMPDEST PUSH1 0x40 MLOAD PUSH4 0x94310E51 PUSH1 0xE0 SHL DUP2 MSTORE PUSH0 SWAP1 PUSH1 0x1 PUSH1 0x1 PUSH1 0xA0 SHL SUB PUSH32 0x0 AND SWAP1 PUSH4 0x94310E51 SWAP1 PUSH2 0x2338 SWAP1 DUP7 SWAP1 PUSH1 0x4 ADD PUSH2 0x3049 JUMP JUMPDEST PUSH1 0x20 PUSH1 0x40 MLOAD DUP1 DUP4 SUB DUP2 DUP7 GAS STATICCALL ISZERO DUP1 ISZERO PUSH2 0x2353 JUMPI RETURNDATASIZE PUSH0 PUSH0 RETURNDATACOPY RETURNDATASIZE PUSH0 REVERT JUMPDEST POP POP POP POP PUSH1 0x40 MLOAD RETURNDATASIZE PUSH1 0x1F NOT PUSH1 0x1F DUP3 ADD AND DUP3 ADD DUP1 PUSH1 0x40 MSTORE POP DUP2 ADD SWAP1 PUSH2 0x2377 SWAP2 SWAP1 PUSH2 0x31E3 JUMP JUMPDEST CALLER PUSH0 DUP2 DUP2 MSTORE PUSH1 0x1 PUSH1 0x20 SWAP1 DUP2 MSTORE PUSH1 0x40 DUP1 DUP4 KECCAK256 PUSH1 0x1 PUSH1 0x1 PUSH1 0xA0 SHL SUB DUP7 AND DUP1 DUP6 MSTORE SWAP3 MSTORE SWAP2 DUP3 SWAP1 KECCAK256 DUP1 SLOAD PUSH1 0xFF NOT AND SWAP1 SSTORE SWAP1 MLOAD SWAP3 SWAP4 POP SWAP2 PUSH32 0xA2382B7B0F44EE62DF753C00034038C109332BF9B8F52418AF74AA2859780FB SWAP1 PUSH2 0x10B9 SWAP1 DUP8 SWAP1 PUSH2 0x3049 JUMP JUMPDEST PUSH0 DUP2 DUP2 MSTORE PUSH1 0x20 DUP2 SWAP1 MSTORE PUSH1 0x40 SWAP1 KECCAK256 SLOAD DUP2 SWAP1 PUSH1 0x1 PUSH1 0x1 PUSH1 0xA0 SHL SUB AND PUSH2 0x240B JUMPI PUSH1 0x40 MLOAD PUSH3 0x461BCD PUSH1 0xE5 SHL DUP2 MSTORE PUSH1 0x4 ADD PUSH2 0x67E SWAP1 PUSH2 0x305B JUMP JUMPDEST PUSH0 DUP3 DUP2 MSTORE PUSH1 0x20 DUP2 SWAP1 MSTORE PUSH1 0x40 SWAP1 KECCAK256 SLOAD DUP3 SWAP1 PUSH1 0x1 PUSH1 0x1 PUSH1 0xA0 SHL SUB AND CALLER EQ PUSH2 0x2442 JUMPI PUSH1 0x40 MLOAD PUSH3 0x461BCD PUSH1 0xE5 SHL DUP2 MSTORE PUSH1 0x4 ADD PUSH2 0x67E SWAP1 PUSH2 0x30E7 JUMP JUMPDEST DUP4 PUSH0 DUP2 MLOAD GT PUSH2 0x2463 JUMPI PUSH1 0x40 MLOAD PUSH3 0x461BCD PUSH1 0xE5 SHL DUP2 MSTORE PUSH1 0x4 ADD PUSH2 0x67E SWAP1 PUSH2 0x3199 JUMP JUMPDEST PUSH1 0x40 MLOAD PUSH4 0x94310E51 PUSH1 0xE0 SHL DUP2 MSTORE PUSH0 SWAP1 PUSH1 0x1 PUSH1 0x1 PUSH1 0xA0 SHL SUB PUSH32 0x0 AND SWAP1 PUSH4 0x94310E51 SWAP1 PUSH2 0x24B1 SWAP1 DUP10 SWAP1 PUSH1 0x4 ADD PUSH2 0x3049 JUMP JUMPDEST PUSH1 0x20 PUSH1 0x40 MLOAD DUP1 DUP4 SUB DUP2 DUP7 GAS STATICCALL ISZERO DUP1 ISZERO PUSH2 0x24CC JUMPI RETURNDATASIZE PUSH0 PUSH0 RETURNDATACOPY RETURNDATASIZE PUSH0 REVERT JUMPDEST POP POP POP POP PUSH1 0x40 MLOAD RETURNDATASIZE PUSH1 0x1F NOT PUSH1 0x1F DUP3 ADD AND DUP3 ADD DUP1 PUSH1 0x40 MSTORE POP DUP2 ADD SWAP1 PUSH2 0x24F0 SWAP2 SWAP1 PUSH2 0x31E3 JUMP JUMPDEST CALLER PUSH0 DUP2 DUP2 MSTORE PUSH1 0x3 PUSH1 0x20 SWAP1 DUP2 MSTORE PUSH1 0x40 DUP1 DUP4 KECCAK256 PUSH1 0x1 PUSH1 0x1 PUSH1 0xA0 SHL SUB DUP7 AND DUP1 DUP6 MSTORE SWAP1 DUP4 MSTORE DUP2 DUP5 KECCAK256 DUP12 DUP6 MSTORE SWAP1 SWAP3 MSTORE SWAP2 DUP3 SWAP1 KECCAK256 DUP1 SLOAD PUSH1 0xFF NOT AND PUSH1 0x1 OR SWAP1 SSTORE SWAP1 MLOAD SWAP3 SWAP4 POP DUP8 SWAP3 SWAP1 SWAP2 SWAP1 PUSH32 0xBDBADF567B0CF71C55301C89B47C08E1D0AA234F1A0148A085F5AD923E86AD6E SWAP1 PUSH2 0x1524 SWAP1 DUP12 SWAP1 PUSH2 0x3049 JUMP JUMPDEST DUP2 PUSH0 DUP2 MLOAD GT PUSH2 0x2581 JUMPI PUSH1 0x40 MLOAD PUSH3 0x461BCD PUSH1 0xE5 SHL DUP2 MSTORE PUSH1 0x4 ADD PUSH2 0x67E SWAP1 PUSH2 0x3199 JUMP JUMPDEST PUSH1 0x40 MLOAD PUSH4 0x94310E51 PUSH1 0xE0 SHL DUP2 MSTORE PUSH0 SWAP1 PUSH1 0x1 PUSH1 0x1 PUSH1 0xA0 SHL SUB PUSH32 0x0 AND SWAP1 PUSH4 0x94310E51 SWAP1 PUSH2 0x25CF SWAP1 DUP8 SWAP1 PUSH1 0x4 ADD PUSH2 0x3049 JUMP JUMPDEST PUSH1 0x20 PUSH1 0x40 MLOAD DUP1 DUP4 SUB DUP2 DUP7 GAS STATICCALL ISZERO DUP1 ISZERO PUSH2 0x25EA JUMPI RETURNDATASIZE PUSH0 PUSH0 RETURNDATACOPY RETURNDATASIZE PUSH0 REVERT JUMPDEST POP POP POP POP PUSH1 0x40 MLOAD RETURNDATASIZE PUSH1 0x1F NOT PUSH1 0x1F DUP3 ADD AND DUP3 ADD DUP1 PUSH1 0x40 MSTORE POP DUP2 ADD SWAP1 PUSH2 0x260E SWAP2 SWAP1 PUSH2 0x31E3 JUMP JUMPDEST CALLER PUSH0 DUP2 DUP2 MSTORE PUSH1 0x3 PUSH1 0x20 SWAP1 DUP2 MSTORE PUSH1 0x40 DUP1 DUP4 KECCAK256 PUSH1 0x1 PUSH1 0x1 PUSH1 0xA0 SHL SUB DUP7 AND DUP1 DUP6 MSTORE SWAP1 DUP4 MSTORE DUP2 DUP5 KECCAK256 DUP10 DUP6 MSTORE DUP4 MSTORE DUP2 DUP5 KECCAK256 DUP1 SLOAD PUSH1 0xFF NOT AND SWAP1 SSTORE DUP5 DUP5 MSTORE PUSH1 0x4 DUP4 MSTORE DUP2 DUP5 KECCAK256 DUP2 DUP6 MSTORE DUP4 MSTORE DUP2 DUP5 KECCAK256 DUP10 DUP6 MSTORE SWAP1 SWAP3 MSTORE DUP1 DUP4 KECCAK256 SWAP3 SWAP1 SWAP3 SSTORE SWAP1 MLOAD SWAP3 SWAP4 POP DUP6 SWAP3 SWAP1 SWAP2 SWAP1 PUSH32 0x768E414F25614956089FAED55A8692F78FE5A118C68BB4AD1D49741A8024C2D3 SWAP1 PUSH2 0x19A9 SWAP1 DUP10 SWAP1 PUSH2 0x3049 JUMP JUMPDEST CALLER PUSH0 SWAP1 DUP2 MSTORE PUSH1 0x2 PUSH1 0x20 SWAP1 DUP2 MSTORE PUSH1 0x40 DUP1 DUP4 KECCAK256 PUSH1 0x1 PUSH1 0x1 PUSH1 0xA0 SHL SUB DUP6 AND DUP5 MSTORE SWAP1 SWAP2 MSTORE DUP2 KECCAK256 SLOAD DUP2 SUB PUSH2 0x26C8 JUMPI POP PUSH0 SWAP2 SWAP1 POP JUMP JUMPDEST POP CALLER PUSH0 SWAP1 DUP2 MSTORE PUSH1 0x2 PUSH1 0x20 SWAP1 DUP2 MSTORE PUSH1 0x40 DUP1 DUP4 KECCAK256 PUSH1 0x1 PUSH1 0x1 PUSH1 0xA0 SHL SUB SWAP5 SWAP1 SWAP5 AND DUP4 MSTORE SWAP3 SWAP1 MSTORE KECCAK256 SLOAD TIMESTAMP GT SWAP1 JUMP JUMPDEST PUSH1 0x1 PUSH1 0x1 PUSH1 0xA0 SHL SUB DUP3 AND PUSH2 0x2718 JUMPI PUSH1 0x40 MLOAD PUSH3 0x461BCD PUSH1 0xE5 SHL DUP2 MSTORE PUSH1 0x4 ADD PUSH2 0x67E SWAP1 PUSH2 0x3144 JUMP JUMPDEST CALLER PUSH0 SWAP1 DUP2 MSTORE PUSH1 0x5 PUSH1 0x20 SWAP1 DUP2 MSTORE PUSH1 0x40 DUP1 DUP4 KECCAK256 PUSH1 0x1 PUSH1 0x1 PUSH1 0xA0 SHL SUB DUP7 AND DUP5 MSTORE SWAP1 SWAP2 MSTORE DUP1 DUP3 KECCAK256 SWAP1 MLOAD PUSH2 0x2748 SWAP1 DUP5 SWAP1 PUSH2 0x30D1 JUMP JUMPDEST SWAP1 DUP2 MSTORE PUSH1 0x40 DUP1 MLOAD PUSH1 0x20 SWAP3 DUP2 SWAP1 SUB DUP4 ADD DUP2 KECCAK256 DUP1 SLOAD PUSH1 0xFF NOT AND SWAP5 ISZERO ISZERO SWAP5 SWAP1 SWAP5 OR SWAP1 SWAP4 SSTORE CALLER PUSH0 SWAP1 DUP2 MSTORE PUSH1 0x6 DUP4 MSTORE DUP2 DUP2 KECCAK256 PUSH1 0x1 PUSH1 0x1 PUSH1 0xA0 SHL SUB DUP8 AND DUP3 MSTORE SWAP1 SWAP3 MSTORE DUP2 KECCAK256 SWAP1 SWAP2 PUSH2 0x2793 SWAP1 DUP5 SWAP1 PUSH2 0x30D1 JUMP JUMPDEST SWAP1 DUP2 MSTORE PUSH1 0x20 ADD PUSH1 0x40 MLOAD DUP1 SWAP2 SUB SWAP1 KECCAK256 DUP2 SWAP1 SSTORE POP DUP2 PUSH1 0x1 PUSH1 0x1 PUSH1 0xA0 SHL SUB AND CALLER PUSH1 0x1 PUSH1 0x1 PUSH1 0xA0 SHL SUB AND PUSH32 0xB09E079155E58EBB686E73C2048035A5A0E9F191531017EBB8FCD588AAE9FEDB DUP4 PUSH1 0x40 MLOAD PUSH2 0x27E8 SWAP2 SWAP1 PUSH2 0x33E0 JUMP JUMPDEST PUSH1 0x40 MLOAD DUP1 SWAP2 SUB SWAP1 LOG3 POP POP JUMP JUMPDEST PUSH0 DUP2 DUP2 MSTORE PUSH1 0x20 DUP2 SWAP1 MSTORE PUSH1 0x40 SWAP1 KECCAK256 SLOAD PUSH1 0x60 SWAP1 DUP3 SWAP1 PUSH1 0x1 PUSH1 0x1 PUSH1 0xA0 SHL SUB AND PUSH2 0x282C JUMPI PUSH1 0x40 MLOAD PUSH3 0x461BCD PUSH1 0xE5 SHL DUP2 MSTORE PUSH1 0x4 ADD PUSH2 0x67E SWAP1 PUSH2 0x305B JUMP JUMPDEST PUSH0 DUP4 DUP2 MSTORE PUSH1 0x20 DUP2 SWAP1 MSTORE PUSH1 0x40 SWAP1 KECCAK256 PUSH1 0x4 ADD DUP1 SLOAD PUSH2 0x2847 SWAP1 PUSH2 0x309F JUMP JUMPDEST DUP1 PUSH1 0x1F ADD PUSH1 0x20 DUP1 SWAP2 DIV MUL PUSH1 0x20 ADD PUSH1 0x40 MLOAD SWAP1 DUP2 ADD PUSH1 0x40 MSTORE DUP1 SWAP3 SWAP2 SWAP1 DUP2 DUP2 MSTORE PUSH1 0x20 ADD DUP3 DUP1 SLOAD PUSH2 0x2873 SWAP1 PUSH2 0x309F JUMP JUMPDEST DUP1 ISZERO PUSH2 0x28BE JUMPI DUP1 PUSH1 0x1F LT PUSH2 0x2895 JUMPI PUSH2 0x100 DUP1 DUP4 SLOAD DIV MUL DUP4 MSTORE SWAP2 PUSH1 0x20 ADD SWAP2 PUSH2 0x28BE JUMP JUMPDEST DUP3 ADD SWAP2 SWAP1 PUSH0 MSTORE PUSH1 0x20 PUSH0 KECCAK256 SWAP1 JUMPDEST DUP2 SLOAD DUP2 MSTORE SWAP1 PUSH1 0x1 ADD SWAP1 PUSH1 0x20 ADD DUP1 DUP4 GT PUSH2 0x28A1 JUMPI DUP3 SWAP1 SUB PUSH1 0x1F AND DUP3 ADD SWAP2 JUMPDEST POP POP POP POP POP SWAP2 POP POP SWAP2 SWAP1 POP JUMP JUMPDEST PUSH1 0x1 PUSH1 0x1 PUSH1 0xA0 SHL SUB DUP2 AND PUSH2 0x28F1 JUMPI PUSH1 0x40 MLOAD PUSH3 0x461BCD PUSH1 0xE5 SHL DUP2 MSTORE PUSH1 0x4 ADD PUSH2 0x67E SWAP1 PUSH2 0x3144 JUMP JUMPDEST CALLER PUSH0 DUP2 DUP2 MSTORE PUSH1 0x2 PUSH1 0x20 SWAP1 DUP2 MSTORE PUSH1 0x40 DUP1 DUP4 KECCAK256 PUSH1 0x1 PUSH1 0x1 PUSH1 0xA0 SHL SUB DUP7 AND DUP1 DUP6 MSTORE SWAP1 DUP4 MSTORE DUP2 DUP5 KECCAK256 DUP5 SWAP1 SSTORE DUP5 DUP5 MSTORE PUSH1 0x1 DUP4 MSTORE DUP2 DUP5 KECCAK256 DUP2 DUP6 MSTORE DUP4 MSTORE DUP2 DUP5 KECCAK256 DUP1 SLOAD PUSH1 0xFF NOT AND SWAP1 SSTORE DUP2 MLOAD DUP4 DUP2 MSTORE SWAP3 DUP4 ADD SWAP4 SWAP1 SWAP4 MSTORE SWAP2 SWAP3 SWAP2 PUSH32 0xBCBA83A04E29C80214E54ACB8B601353D47121572200F79340246E818BDA9D09 SWAP2 ADD PUSH2 0xCC4 JUMP JUMPDEST DUP2 PUSH0 DUP2 MLOAD GT PUSH2 0x298A JUMPI PUSH1 0x40 MLOAD PUSH3 0x461BCD PUSH1 0xE5 SHL DUP2 MSTORE PUSH1 0x4 ADD PUSH2 0x67E SWAP1 PUSH2 0x3199 JUMP JUMPDEST DUP2 PUSH0 DUP2 MLOAD GT PUSH2 0x29AB JUMPI PUSH1 0x40 MLOAD PUSH3 0x461BCD PUSH1 0xE5 SHL DUP2 MSTORE PUSH1 0x4 ADD PUSH2 0x67E SWAP1 PUSH2 0x3199 JUMP JUMPDEST PUSH1 0x40 MLOAD PUSH4 0x94310E51 PUSH1 0xE0 SHL DUP2 MSTORE PUSH0 SWAP1 PUSH1 0x1 PUSH1 0x1 PUSH1 0xA0 SHL SUB PUSH32 0x0 AND SWAP1 PUSH4 0x94310E51 SWAP1 PUSH2 0x29F9 SWAP1 DUP9 SWAP1 PUSH1 0x4 ADD PUSH2 0x3049 JUMP JUMPDEST PUSH1 0x20 PUSH1 0x40 MLOAD DUP1 DUP4 SUB DUP2 DUP7 GAS STATICCALL ISZERO DUP1 ISZERO PUSH2 0x2A14 JUMPI RETURNDATASIZE PUSH0 PUSH0 RETURNDATACOPY RETURNDATASIZE PUSH0 REVERT JUMPDEST POP POP POP POP PUSH1 0x40 MLOAD RETURNDATASIZE PUSH1 0x1F NOT PUSH1 0x1F DUP3 ADD AND DUP3 ADD DUP1 PUSH1 0x40 MSTORE POP DUP2 ADD SWAP1 PUSH2 0x2A38 SWAP2 SWAP1 PUSH2 0x31E3 JUMP JUMPDEST CALLER PUSH0 SWAP1 DUP2 MSTORE PUSH1 0x5 PUSH1 0x20 SWAP1 DUP2 MSTORE PUSH1 0x40 DUP1 DUP4 KECCAK256 PUSH1 0x1 PUSH1 0x1 PUSH1 0xA0 SHL SUB DUP6 AND DUP5 MSTORE SWAP1 SWAP2 MSTORE SWAP1 DUP2 SWAP1 KECCAK256 SWAP1 MLOAD SWAP2 SWAP3 POP PUSH1 0x1 SWAP2 PUSH2 0x2A6F SWAP1 DUP8 SWAP1 PUSH2 0x30D1 JUMP JUMPDEST SWAP1 DUP2 MSTORE PUSH1 0x40 MLOAD SWAP1 DUP2 SWAP1 SUB PUSH1 0x20 ADD DUP2 KECCAK256 DUP1 SLOAD SWAP3 ISZERO ISZERO PUSH1 0xFF NOT SWAP1 SWAP4 AND SWAP3 SWAP1 SWAP3 OR SWAP1 SWAP2 SSTORE PUSH1 0x1 PUSH1 0x1 PUSH1 0xA0 SHL SUB DUP3 AND SWAP1 CALLER SWAP1 PUSH32 0x21B007E682E9017DE8C120AB3AB126ED8D87E284B1EE985B14B0F759E9A7F46A SWAP1 PUSH2 0x1BC2 SWAP1 DUP9 SWAP1 DUP11 SWAP1 PUSH2 0x346E JUMP JUMPDEST POP DUP1 SLOAD PUSH2 0x2AD8 SWAP1 PUSH2 0x309F JUMP JUMPDEST PUSH0 DUP3 SSTORE DUP1 PUSH1 0x1F LT PUSH2 0x2AE7 JUMPI POP POP JUMP JUMPDEST PUSH1 0x1F ADD PUSH1 0x20 SWAP1 DIV SWAP1 PUSH0 MSTORE PUSH1 0x20 PUSH0 KECCAK256 SWAP1 DUP2 ADD SWAP1 PUSH2 0x2B03 SWAP2 SWAP1 PUSH2 0x2B06 JUMP JUMPDEST POP JUMP JUMPDEST JUMPDEST DUP1 DUP3 GT ISZERO PUSH2 0x2B1A JUMPI PUSH0 DUP2 SSTORE PUSH1 0x1 ADD PUSH2 0x2B07 JUMP JUMPDEST POP SWAP1 JUMP JUMPDEST PUSH1 0x1 PUSH1 0x1 PUSH1 0xA0 SHL SUB DUP2 AND DUP2 EQ PUSH2 0x2B03 JUMPI PUSH0 PUSH0 REVERT JUMPDEST PUSH0 PUSH0 PUSH1 0x40 DUP4 DUP6 SUB SLT ISZERO PUSH2 0x2B43 JUMPI PUSH0 PUSH0 REVERT JUMPDEST DUP3 CALLDATALOAD SWAP2 POP PUSH1 0x20 DUP4 ADD CALLDATALOAD PUSH2 0x2B55 DUP2 PUSH2 0x2B1E JUMP JUMPDEST DUP1 SWAP2 POP POP SWAP3 POP SWAP3 SWAP1 POP JUMP JUMPDEST PUSH0 PUSH1 0x20 DUP3 DUP5 SUB SLT ISZERO PUSH2 0x2B70 JUMPI PUSH0 PUSH0 REVERT JUMPDEST POP CALLDATALOAD SWAP2 SWAP1 POP JUMP JUMPDEST PUSH0 DUP2 MLOAD DUP1 DUP5 MSTORE DUP1 PUSH1 0x20 DUP5 ADD PUSH1 0x20 DUP7 ADD MCOPY PUSH0 PUSH1 0x20 DUP3 DUP7 ADD ADD MSTORE PUSH1 0x20 PUSH1 0x1F NOT PUSH1 0x1F DUP4 ADD AND DUP6 ADD ADD SWAP2 POP POP SWAP3 SWAP2 POP POP JUMP JUMPDEST PUSH1 0x20 DUP2 MSTORE PUSH1 0x1 DUP1 PUSH1 0xA0 SHL SUB DUP3 MLOAD AND PUSH1 0x20 DUP3 ADD MSTORE PUSH1 0x20 DUP3 ADD MLOAD PUSH1 0x40 DUP3 ADD MSTORE PUSH1 0x40 DUP3 ADD MLOAD PUSH1 0x60 DUP3 ADD MSTORE PUSH1 0x1 DUP1 PUSH1 0xA0 SHL SUB PUSH1 0x60 DUP4 ADD MLOAD AND PUSH1 0x80 DUP3 ADD MSTORE PUSH0 PUSH1 0x80 DUP4 ADD MLOAD PUSH1 0xA0 DUP1 DUP5 ADD MSTORE PUSH2 0x2BF7 PUSH1 0xC0 DUP5 ADD DUP3 PUSH2 0x2B77 JUMP JUMPDEST SWAP5 SWAP4 POP POP POP POP JUMP JUMPDEST PUSH0 PUSH1 0x20 DUP3 DUP5 SUB SLT ISZERO PUSH2 0x2C0F JUMPI PUSH0 PUSH0 REVERT JUMPDEST DUP2 CALLDATALOAD PUSH2 0x2C1A DUP2 PUSH2 0x2B1E JUMP JUMPDEST SWAP4 SWAP3 POP POP POP JUMP JUMPDEST PUSH4 0x4E487B71 PUSH1 0xE0 SHL PUSH0 MSTORE PUSH1 0x41 PUSH1 0x4 MSTORE PUSH1 0x24 PUSH0 REVERT JUMPDEST PUSH0 DUP3 PUSH1 0x1F DUP4 ADD SLT PUSH2 0x2C44 JUMPI PUSH0 PUSH0 REVERT JUMPDEST DUP2 CALLDATALOAD PUSH1 0x1 PUSH1 0x1 PUSH1 0x40 SHL SUB DUP2 GT ISZERO PUSH2 0x2C5D JUMPI PUSH2 0x2C5D PUSH2 0x2C21 JUMP JUMPDEST PUSH1 0x40 MLOAD PUSH1 0x1F DUP3 ADD PUSH1 0x1F NOT SWAP1 DUP2 AND PUSH1 0x3F ADD AND DUP2 ADD PUSH1 0x1 PUSH1 0x1 PUSH1 0x40 SHL SUB DUP2 GT DUP3 DUP3 LT OR ISZERO PUSH2 0x2C8B JUMPI PUSH2 0x2C8B PUSH2 0x2C21 JUMP JUMPDEST PUSH1 0x40 MSTORE DUP2 DUP2 MSTORE DUP4 DUP3 ADD PUSH1 0x20 ADD DUP6 LT ISZERO PUSH2 0x2CA2 JUMPI PUSH0 PUSH0 REVERT JUMPDEST DUP2 PUSH1 0x20 DUP6 ADD PUSH1 0x20 DUP4 ADD CALLDATACOPY PUSH0 SWAP2 DUP2 ADD PUSH1 0x20 ADD SWAP2 SWAP1 SWAP2 MSTORE SWAP4 SWAP3 POP POP POP JUMP JUMPDEST PUSH0 PUSH0 PUSH1 0x40 DUP4 DUP6 SUB SLT ISZERO PUSH2 0x2CCF JUMPI PUSH0 PUSH0 REVERT JUMPDEST DUP3 CALLDATALOAD SWAP2 POP PUSH1 0x20 DUP4 ADD CALLDATALOAD PUSH1 0x1 PUSH1 0x1 PUSH1 0x40 SHL SUB DUP2 GT ISZERO PUSH2 0x2CEB JUMPI PUSH0 PUSH0 REVERT JUMPDEST PUSH2 0x2CF7 DUP6 DUP3 DUP7 ADD PUSH2 0x2C35 JUMP JUMPDEST SWAP2 POP POP SWAP3 POP SWAP3 SWAP1 POP JUMP JUMPDEST PUSH0 PUSH0 PUSH0 PUSH1 0x60 DUP5 DUP7 SUB SLT ISZERO PUSH2 0x2D13 JUMPI PUSH0 PUSH0 REVERT JUMPDEST DUP4 CALLDATALOAD PUSH2 0x2D1E DUP2 PUSH2 0x2B1E JUMP JUMPDEST SWAP3 POP PUSH1 0x20 DUP5 ADD CALLDATALOAD PUSH2 0x2D2E DUP2 PUSH2 0x2B1E JUMP JUMPDEST SWAP2 POP PUSH1 0x40 DUP5 ADD CALLDATALOAD PUSH1 0x1 PUSH1 0x1 PUSH1 0x40 SHL SUB DUP2 GT ISZERO PUSH2 0x2D48 JUMPI PUSH0 PUSH0 REVERT JUMPDEST PUSH2 0x2D54 DUP7 DUP3 DUP8 ADD PUSH2 0x2C35 JUMP JUMPDEST SWAP2 POP POP SWAP3 POP SWAP3 POP SWAP3 JUMP JUMPDEST PUSH0 PUSH1 0x20 DUP3 DUP5 SUB SLT ISZERO PUSH2 0x2D6E JUMPI PUSH0 PUSH0 REVERT JUMPDEST DUP2 CALLDATALOAD PUSH1 0x1 PUSH1 0x1 PUSH1 0x40 SHL SUB DUP2 GT ISZERO PUSH2 0x2D83 JUMPI PUSH0 PUSH0 REVERT JUMPDEST PUSH2 0x2BF7 DUP5 DUP3 DUP6 ADD PUSH2 0x2C35 JUMP JUMPDEST PUSH0 PUSH0 PUSH0 PUSH1 0x60 DUP5 DUP7 SUB SLT ISZERO PUSH2 0x2DA1 JUMPI PUSH0 PUSH0 REVERT JUMPDEST DUP4 CALLDATALOAD PUSH1 0x1 PUSH1 0x1 PUSH1 0x40 SHL SUB DUP2 GT ISZERO PUSH2 0x2DB6 JUMPI PUSH0 PUSH0 REVERT JUMPDEST PUSH2 0x2DC2 DUP7 DUP3 DUP8 ADD PUSH2 0x2C35 JUMP JUMPDEST SWAP7 PUSH1 0x20 DUP7 ADD CALLDATALOAD SWAP7 POP PUSH1 0x40 SWAP1 SWAP6 ADD CALLDATALOAD SWAP5 SWAP4 POP POP POP POP JUMP JUMPDEST PUSH0 PUSH0 PUSH1 0x40 DUP4 DUP6 SUB SLT ISZERO PUSH2 0x2DE9 JUMPI PUSH0 PUSH0 REVERT JUMPDEST DUP3 CALLDATALOAD PUSH2 0x2DF4 DUP2 PUSH2 0x2B1E JUMP JUMPDEST SWAP2 POP PUSH1 0x20 DUP4 ADD CALLDATALOAD PUSH1 0x1 PUSH1 0x1 PUSH1 0x40 SHL SUB DUP2 GT ISZERO PUSH2 0x2CEB JUMPI PUSH0 PUSH0 REVERT JUMPDEST PUSH0 PUSH0 PUSH0 PUSH1 0x60 DUP5 DUP7 SUB SLT ISZERO PUSH2 0x2E20 JUMPI PUSH0 PUSH0 REVERT JUMPDEST DUP4 CALLDATALOAD PUSH2 0x2E2B DUP2 PUSH2 0x2B1E JUMP JUMPDEST SWAP6 PUSH1 0x20 DUP6 ADD CALLDATALOAD SWAP6 POP PUSH1 0x40 SWAP1 SWAP5 ADD CALLDATALOAD SWAP4 SWAP3 POP POP POP JUMP JUMPDEST PUSH0 PUSH0 PUSH1 0x40 DUP4 DUP6 SUB SLT ISZERO PUSH2 0x2E51 JUMPI PUSH0 PUSH0 REVERT JUMPDEST DUP3 CALLDATALOAD PUSH2 0x2E5C DUP2 PUSH2 0x2B1E JUMP JUMPDEST SWAP5 PUSH1 0x20 SWAP4 SWAP1 SWAP4 ADD CALLDATALOAD SWAP4 POP POP POP JUMP JUMPDEST PUSH1 0x1 PUSH1 0x1 PUSH1 0xA0 SHL SUB DUP7 DUP2 AND DUP3 MSTORE PUSH1 0x20 DUP3 ADD DUP7 SWAP1 MSTORE PUSH1 0x40 DUP3 ADD DUP6 SWAP1 MSTORE DUP4 AND PUSH1 0x60 DUP3 ADD MSTORE PUSH1 0xA0 PUSH1 0x80 DUP3 ADD DUP2 SWAP1 MSTORE PUSH0 SWAP1 PUSH2 0x2EA3 SWAP1 DUP4 ADD DUP5 PUSH2 0x2B77 JUMP JUMPDEST SWAP8 SWAP7 POP POP POP POP POP POP POP JUMP JUMPDEST PUSH0 PUSH0 PUSH1 0x40 DUP4 DUP6 SUB SLT ISZERO PUSH2 0x2EBF JUMPI PUSH0 PUSH0 REVERT JUMPDEST DUP3 CALLDATALOAD PUSH1 0x1 PUSH1 0x1 PUSH1 0x40 SHL SUB DUP2 GT ISZERO PUSH2 0x2ED4 JUMPI PUSH0 PUSH0 REVERT JUMPDEST PUSH2 0x2EE0 DUP6 DUP3 DUP7 ADD PUSH2 0x2C35 JUMP JUMPDEST SWAP6 PUSH1 0x20 SWAP5 SWAP1 SWAP5 ADD CALLDATALOAD SWAP5 POP POP POP POP JUMP JUMPDEST PUSH0 PUSH0 PUSH1 0x40 DUP4 DUP6 SUB SLT ISZERO PUSH2 0x2F00 JUMPI PUSH0 PUSH0 REVERT JUMPDEST DUP3 CALLDATALOAD PUSH2 0x2F0B DUP2 PUSH2 0x2B1E JUMP JUMPDEST SWAP2 POP PUSH1 0x20 DUP4 ADD CALLDATALOAD PUSH2 0x2B55 DUP2 PUSH2 0x2B1E JUMP JUMPDEST PUSH0 PUSH0 PUSH0 PUSH1 0x60 DUP5 DUP7 SUB SLT ISZERO PUSH2 0x2F2D JUMPI PUSH0 PUSH0 REVERT JUMPDEST DUP4 CALLDATALOAD PUSH1 0x1 PUSH1 0x1 PUSH1 0x40 SHL SUB DUP2 GT ISZERO PUSH2 0x2F42 JUMPI PUSH0 PUSH0 REVERT JUMPDEST PUSH2 0x2F4E DUP7 DUP3 DUP8 ADD PUSH2 0x2C35 JUMP JUMPDEST SWAP4 POP POP PUSH1 0x20 DUP5 ADD CALLDATALOAD PUSH1 0x1 PUSH1 0x1 PUSH1 0x40 SHL SUB DUP2 GT ISZERO PUSH2 0x2F69 JUMPI PUSH0 PUSH0 REVERT JUMPDEST PUSH2 0x2F75 DUP7 DUP3 DUP8 ADD PUSH2 0x2C35 JUMP JUMPDEST SWAP4 SWAP7 SWAP4 SWAP6 POP POP POP POP PUSH1 0x40 SWAP2 SWAP1 SWAP2 ADD CALLDATALOAD SWAP1 JUMP JUMPDEST PUSH0 PUSH0 PUSH0 PUSH1 0x60 DUP5 DUP7 SUB SLT ISZERO PUSH2 0x2F99 JUMPI PUSH0 PUSH0 REVERT JUMPDEST DUP4 CALLDATALOAD PUSH2 0x2FA4 DUP2 PUSH2 0x2B1E JUMP JUMPDEST SWAP3 POP PUSH1 0x20 DUP5 ADD CALLDATALOAD PUSH1 0x1 PUSH1 0x1 PUSH1 0x40 SHL SUB DUP2 GT ISZERO PUSH2 0x2F69 JUMPI PUSH0 PUSH0 REVERT JUMPDEST PUSH0 PUSH0 PUSH1 0x40 DUP4 DUP6 SUB SLT ISZERO PUSH2 0x2FCF JUMPI PUSH0 PUSH0 REVERT JUMPDEST DUP3 CALLDATALOAD PUSH1 0x1 PUSH1 0x1 PUSH1 0x40 SHL SUB DUP2 GT ISZERO PUSH2 0x2FE4 JUMPI PUSH0 PUSH0 REVERT JUMPDEST PUSH2 0x2FF0 DUP6 DUP3 DUP7 ADD PUSH2 0x2C35 JUMP JUMPDEST SWAP3 POP POP PUSH1 0x20 DUP4 ADD CALLDATALOAD PUSH1 0x1 PUSH1 0x1 PUSH1 0x40 SHL SUB DUP2 GT ISZERO PUSH2 0x2CEB JUMPI PUSH0 PUSH0 REVERT JUMPDEST PUSH0 PUSH0 PUSH0 PUSH1 0x60 DUP5 DUP7 SUB SLT ISZERO PUSH2 0x301D JUMPI PUSH0 PUSH0 REVERT JUMPDEST DUP4 CALLDATALOAD PUSH2 0x3028 DUP2 PUSH2 0x2B1E JUMP JUMPDEST SWAP3 POP PUSH1 0x20 DUP5 ADD CALLDATALOAD PUSH2 0x3038 DUP2 PUSH2 0x2B1E JUMP JUMPDEST SWAP3 SWAP6 SWAP3 SWAP5 POP POP POP PUSH1 0x40 SWAP2 SWAP1 SWAP2 ADD CALLDATALOAD SWAP1 JUMP JUMPDEST PUSH1 0x20 DUP2 MSTORE PUSH0 PUSH2 0x2C1A PUSH1 0x20 DUP4 ADD DUP5 PUSH2 0x2B77 JUMP JUMPDEST PUSH1 0x20 DUP1 DUP3 MSTORE PUSH1 0x24 SWAP1 DUP3 ADD MSTORE PUSH32 0x4D656D6F7279436F6E74726F6C3A204D656D6F727920646F6573206E6F742065 PUSH1 0x40 DUP3 ADD MSTORE PUSH4 0x1E1A5CDD PUSH1 0xE2 SHL PUSH1 0x60 DUP3 ADD MSTORE PUSH1 0x80 ADD SWAP1 JUMP JUMPDEST PUSH1 0x1 DUP2 DUP2 SHR SWAP1 DUP3 AND DUP1 PUSH2 0x30B3 JUMPI PUSH1 0x7F DUP3 AND SWAP2 POP JUMPDEST PUSH1 0x20 DUP3 LT DUP2 SUB PUSH2 0xC39 JUMPI PUSH4 0x4E487B71 PUSH1 0xE0 SHL PUSH0 MSTORE PUSH1 0x22 PUSH1 0x4 MSTORE PUSH1 0x24 PUSH0 REVERT JUMPDEST PUSH0 DUP3 MLOAD DUP1 PUSH1 0x20 DUP6 ADD DUP5 MCOPY PUSH0 SWAP3 ADD SWAP2 DUP3 MSTORE POP SWAP2 SWAP1 POP JUMP JUMPDEST PUSH1 0x20 DUP1 DUP3 MSTORE PUSH1 0x38 SWAP1 DUP3 ADD MSTORE PUSH32 0x4D656D6F7279436F6E74726F6C3A204F6E6C79206D656D6F7279206F776E6572 PUSH1 0x40 DUP3 ADD MSTORE PUSH32 0x2063616E20706572666F726D207468697320616374696F6E0000000000000000 PUSH1 0x60 DUP3 ADD MSTORE PUSH1 0x80 ADD SWAP1 JUMP JUMPDEST PUSH1 0x20 DUP1 DUP3 MSTORE PUSH1 0x35 SWAP1 DUP3 ADD MSTORE PUSH32 0x4D656D6F7279436F6E74726F6C3A204772616E74656520616464726573732063 PUSH1 0x40 DUP3 ADD MSTORE PUSH21 0x616E6E6F74206265207A65726F2061646472657373 PUSH1 0x58 SHL PUSH1 0x60 DUP3 ADD MSTORE PUSH1 0x80 ADD SWAP1 JUMP JUMPDEST PUSH1 0x20 DUP1 DUP3 MSTORE PUSH1 0x2A SWAP1 DUP3 ADD MSTORE PUSH32 0x4D656D6F7279436F6E74726F6C3A20446F6D61696E206E616D652063616E6E6F PUSH1 0x40 DUP3 ADD MSTORE PUSH10 0x7420626520656D707479 PUSH1 0xB0 SHL PUSH1 0x60 DUP3 ADD MSTORE PUSH1 0x80 ADD SWAP1 JUMP JUMPDEST PUSH0 PUSH1 0x20 DUP3 DUP5 SUB SLT ISZERO PUSH2 0x31F3 JUMPI PUSH0 PUSH0 REVERT JUMPDEST DUP2 MLOAD PUSH2 0x2C1A DUP2 PUSH2 0x2B1E JUMP JUMPDEST PUSH1 0x1F DUP3 GT ISZERO PUSH2 0x3245 JUMPI DUP1 PUSH0 MSTORE PUSH1 0x20 PUSH0 KECCAK256 PUSH1 0x1F DUP5 ADD PUSH1 0x5 SHR DUP2 ADD PUSH1 0x20 DUP6 LT ISZERO PUSH2 0x3223 JUMPI POP DUP1 JUMPDEST PUSH1 0x1F DUP5 ADD PUSH1 0x5 SHR DUP3 ADD SWAP2 POP JUMPDEST DUP2 DUP2 LT ISZERO PUSH2 0x3242 JUMPI PUSH0 DUP2 SSTORE PUSH1 0x1 ADD PUSH2 0x322F JUMP JUMPDEST POP POP JUMPDEST POP POP POP JUMP JUMPDEST DUP2 MLOAD PUSH1 0x1 PUSH1 0x1 PUSH1 0x40 SHL SUB DUP2 GT ISZERO PUSH2 0x3263 JUMPI PUSH2 0x3263 PUSH2 0x2C21 JUMP JUMPDEST PUSH2 0x3277 DUP2 PUSH2 0x3271 DUP5 SLOAD PUSH2 0x309F JUMP JUMPDEST DUP5 PUSH2 0x31FE JUMP JUMPDEST PUSH1 0x20 PUSH1 0x1F DUP3 GT PUSH1 0x1 DUP2 EQ PUSH2 0x32A9 JUMPI PUSH0 DUP4 ISZERO PUSH2 0x3292 JUMPI POP DUP5 DUP3 ADD MLOAD JUMPDEST PUSH0 NOT PUSH1 0x3 DUP6 SWAP1 SHL SHR NOT AND PUSH1 0x1 DUP5 SWAP1 SHL OR DUP5 SSTORE PUSH2 0x3242 JUMP JUMPDEST PUSH0 DUP5 DUP2 MSTORE PUSH1 0x20 DUP2 KECCAK256 PUSH1 0x1F NOT DUP6 AND SWAP2 JUMPDEST DUP3 DUP2 LT ISZERO PUSH2 0x32D8 JUMPI DUP8 DUP6 ADD MLOAD DUP3 SSTORE PUSH1 0x20 SWAP5 DUP6 ADD SWAP5 PUSH1 0x1 SWAP1 SWAP3 ADD SWAP2 ADD PUSH2 0x32B8 JUMP JUMPDEST POP DUP5 DUP3 LT ISZERO PUSH2 0x32F5 JUMPI DUP7 DUP5 ADD MLOAD PUSH0 NOT PUSH1 0x3 DUP8 SWAP1 SHL PUSH1 0xF8 AND SHR NOT AND DUP2 SSTORE JUMPDEST POP POP POP POP PUSH1 0x1 SWAP1 DUP2 SHL ADD SWAP1 SSTORE POP JUMP JUMPDEST PUSH1 0x20 DUP1 DUP3 MSTORE PUSH1 0x2E SWAP1 DUP3 ADD MSTORE PUSH32 0x4D656D6F7279436F6E74726F6C3A204475726174696F6E206D75737420626520 PUSH1 0x40 DUP3 ADD MSTORE PUSH14 0x67726561746572207468616E203 PUSH1 0x94 SHL PUSH1 0x60 DUP3 ADD MSTORE PUSH1 0x80 ADD SWAP1 JUMP JUMPDEST DUP1 DUP3 ADD DUP1 DUP3 GT ISZERO PUSH2 0x159B JUMPI PUSH4 0x4E487B71 PUSH1 0xE0 SHL PUSH0 MSTORE PUSH1 0x11 PUSH1 0x4 MSTORE PUSH1 0x24 PUSH0 REVERT JUMPDEST PUSH1 0x40 DUP2 MSTORE PUSH0 PUSH2 0x3383 PUSH1 0x40 DUP4 ADD DUP6 PUSH2 0x2B77 JUMP JUMPDEST SWAP1 POP DUP3 PUSH1 0x20 DUP4 ADD MSTORE SWAP4 SWAP3 POP POP POP JUMP JUMPDEST PUSH1 0x20 DUP1 DUP3 MSTORE PUSH1 0x2E SWAP1 DUP3 ADD MSTORE PUSH32 0x4D656D6F7279436F6E74726F6C3A2043616E6E6F74206772616E742061636365 PUSH1 0x40 DUP3 ADD MSTORE PUSH14 0x39B9903A37903CB7BAB939B2B633 PUSH1 0x91 SHL PUSH1 0x60 DUP3 ADD MSTORE PUSH1 0x80 ADD SWAP1 JUMP JUMPDEST PUSH1 0x40 DUP2 MSTORE PUSH0 PUSH2 0x33F2 PUSH1 0x40 DUP4 ADD DUP5 PUSH2 0x2B77 JUMP JUMPDEST DUP3 DUP2 SUB PUSH1 0x20 SWAP4 DUP5 ADD MSTORE PUSH0 DUP2 MSTORE SWAP2 SWAP1 SWAP2 ADD SWAP3 SWAP2 POP POP JUMP JUMPDEST PUSH1 0x60 DUP2 MSTORE PUSH0 PUSH2 0x341A PUSH1 0x60 DUP4 ADD DUP7 PUSH2 0x2B77 JUMP JUMPDEST DUP3 DUP2 SUB PUSH1 0x20 DUP5 ADD MSTORE PUSH2 0x342C DUP2 DUP7 PUSH2 0x2B77 JUMP JUMPDEST SWAP2 POP POP DUP3 PUSH1 0x40 DUP4 ADD MSTORE SWAP5 SWAP4 POP POP POP POP JUMP JUMPDEST PUSH1 0x60 DUP2 MSTORE PUSH0 PUSH2 0x344F PUSH1 0x60 DUP4 ADD DUP6 PUSH2 0x2B77 JUMP JUMPDEST DUP3 DUP2 SUB PUSH1 0x20 DUP5 ADD MSTORE PUSH0 DUP2 MSTORE PUSH1 0x20 DUP2 ADD SWAP2 POP POP DUP3 PUSH1 0x40 DUP4 ADD MSTORE SWAP4 SWAP3 POP POP POP JUMP JUMPDEST PUSH1 0x40 DUP2 MSTORE PUSH0 PUSH2 0x3480 PUSH1 0x40 DUP4 ADD DUP6 PUSH2 0x2B77 JUMP JUMPDEST DUP3 DUP2 SUB PUSH1 0x20 DUP5 ADD MSTORE PUSH2 0x3492 DUP2 DUP6 PUSH2 0x2B77 JUMP JUMPDEST SWAP6 SWAP5 POP POP POP POP POP JUMP INVALID LOG2 PUSH5 0x6970667358 0x22 SLT KECCAK256 STATICCALL 0xFC CALLVALUE 0xD8 REVERT 0xF6 SGT 0xAE LT PUSH9 0x82C418139DBC260256 PUSH8 0x30E8133958476D62 0x21 0xEC 0xD6 SWAP6 PUSH5 0x736F6C6343 STOP ADDMOD SHR STOP CALLER "
				},
				"gasEstimates": {
					"creation": {
						"codeDepositCost": "2704200",
						"executionCost": "infinite",
						"totalCost": "infinite"
					},
					"external": {
						"accessExpiration(address,address)": "infinite",
						"accessList(address,address)": "infinite",
						"addMemory(bytes32,string)": "infinite",
						"deleteMemory(bytes32)": "infinite",
						"domainAccessExpiration(address,address,string)": "infinite",
						"domainAccessList(address,address,string)": "infinite",
						"domainRegistry()": "infinite",
						"getMemory(bytes32)": "infinite",
						"getMemorySourceDomain(bytes32)": "infinite",
						"grantAccessToDomain(string)": "infinite",
						"grantAccessToDomainMemories(address,string)": "infinite",
						"grantAccessToMemory(address,bytes32)": "31850",
						"grantAccessToUser(address)": "26936",
						"grantDomainAccessToDomainMemories(string,string)": "infinite",
						"grantDomainAccessToMemory(string,bytes32)": "infinite",
						"grantTimeBasedAccessToDomain(string,uint256)": "infinite",
						"grantTimeBasedAccessToDomainMemories(address,string,uint256)": "infinite",
						"grantTimeBasedAccessToMemory(address,bytes32,uint256)": "54520",
						"grantTimeBasedAccessToUser(address,uint256)": "49553",
						"grantTimeBasedDomainAccessToDomainMemories(string,string,uint256)": "infinite",
						"grantTimeBasedDomainAccessToMemory(string,bytes32,uint256)": "infinite",
						"hasAccess(bytes32,address)": "infinite",
						"hasAccessExpired(address)": "5032",
						"hasEnhancedAccess(bytes32,address)": "infinite",
						"hasMemoryAccessExpired(address,bytes32)": "5140",
						"isMemoryExists(bytes32)": "2569",
						"memories(bytes32)": "infinite",
						"memoryAccessExpiration(address,address,bytes32)": "infinite",
						"memoryAccessList(address,address,bytes32)": "infinite",
						"revokeAccessFromDomain(string)": "infinite",
						"revokeAccessFromDomainMemories(address,string)": "infinite",
						"revokeAccessFromMemory(address,bytes32)": "32596",
						"revokeAccessFromUser(address)": "26852",
						"revokeDomainAccessFromDomainMemories(string,string)": "infinite",
						"revokeDomainAccessFromMemory(string,bytes32)": "infinite",
						"revokeTimeBasedAccessFromDomain(string)": "infinite",
						"revokeTimeBasedAccessFromUser(address)": "32040"
					}
				},
				"methodIdentifiers": {
					"accessExpiration(address,address)": "9aa1e8d2",
					"accessList(address,address)": "77814646",
					"addMemory(bytes32,string)": "38debead",
					"deleteMemory(bytes32)": "0f26fe45",
					"domainAccessExpiration(address,address,string)": "41411ec1",
					"domainAccessList(address,address,string)": "dc100083",
					"domainRegistry()": "0944a93d",
					"getMemory(bytes32)": "1d24eff4",
					"getMemorySourceDomain(bytes32)": "ee1c34ad",
					"grantAccessToDomain(string)": "41cde2ca",
					"grantAccessToDomainMemories(address,string)": "5170aca7",
					"grantAccessToMemory(address,bytes32)": "7602ade0",
					"grantAccessToUser(address)": "90e00623",
					"grantDomainAccessToDomainMemories(string,string)": "ff57706a",
					"grantDomainAccessToMemory(string,bytes32)": "abf99fc9",
					"grantTimeBasedAccessToDomain(string,uint256)": "76e042a2",
					"grantTimeBasedAccessToDomainMemories(address,string,uint256)": "8d9beb1a",
					"grantTimeBasedAccessToMemory(address,bytes32,uint256)": "67c69535",
					"grantTimeBasedAccessToUser(address,uint256)": "7062e1e0",
					"grantTimeBasedDomainAccessToDomainMemories(string,string,uint256)": "8ae5a7f6",
					"grantTimeBasedDomainAccessToMemory(string,bytes32,uint256)": "4d392dfe",
					"hasAccess(bytes32,address)": "83177db3",
					"hasAccessExpired(address)": "e605569b",
					"hasEnhancedAccess(bytes32,address)": "01a085f9",
					"hasMemoryAccessExpired(address,bytes32)": "6c8c7a6f",
					"isMemoryExists(bytes32)": "6dd64428",
					"memories(bytes32)": "74e12a86",
					"memoryAccessExpiration(address,address,bytes32)": "9b059c97",
					"memoryAccessList(address,address,bytes32)": "f8420443",
					"revokeAccessFromDomain(string)": "9a04f839",
					"revokeAccessFromDomainMemories(address,string)": "edfba336",
					"revokeAccessFromMemory(address,bytes32)": "761b232b",
					"revokeAccessFromUser(address)": "2b5afa64",
					"revokeDomainAccessFromDomainMemories(string,string)": "925c879c",
					"revokeDomainAccessFromMemory(string,bytes32)": "cdd14590",
					"revokeTimeBasedAccessFromDomain(string)": "72e6ffec",
					"revokeTimeBasedAccessFromUser(address)": "f5149c52"
				}
			},
			"storageLayout": {
				"storage": [
					{
						"astId": 34,
						"contract": "contracts/MemoryControl.sol:MemoryControl",
						"label": "memories",
						"offset": 0,
						"slot": "0",
						"type": "t_mapping(t_bytes32,t_struct(Memory)29_storage)"
					},
					{
						"astId": 40,
						"contract": "contracts/MemoryControl.sol:MemoryControl",
						"label": "accessList",
						"offset": 0,
						"slot": "1",
						"type": "t_mapping(t_address,t_mapping(t_address,t_bool))"
					},
					{
						"astId": 46,
						"contract": "contracts/MemoryControl.sol:MemoryControl",
						"label": "accessExpiration",
						"offset": 0,
						"slot": "2",
						"type": "t_mapping(t_address,t_mapping(t_address,t_uint256))"
					},
					{
						"astId": 54,
						"contract": "contracts/MemoryControl.sol:MemoryControl",
						"label": "memoryAccessList",
						"offset": 0,
						"slot": "3",
						"type": "t_mapping(t_address,t_mapping(t_address,t_mapping(t_bytes32,t_bool)))"
					},
					{
						"astId": 62,
						"contract": "contracts/MemoryControl.sol:MemoryControl",
						"label": "memoryAccessExpiration",
						"offset": 0,
						"slot": "4",
						"type": "t_mapping(t_address,t_mapping(t_address,t_mapping(t_bytes32,t_uint256)))"
					},
					{
						"astId": 70,
						"contract": "contracts/MemoryControl.sol:MemoryControl",
						"label": "domainAccessList",
						"offset": 0,
						"slot": "5",
						"type": "t_mapping(t_address,t_mapping(t_address,t_mapping(t_string_memory_ptr,t_bool)))"
					},
					{
						"astId": 78,
						"contract": "contracts/MemoryControl.sol:MemoryControl",
						"label": "domainAccessExpiration",
						"offset": 0,
						"slot": "6",
						"type": "t_mapping(t_address,t_mapping(t_address,t_mapping(t_string_memory_ptr,t_uint256)))"
					}
				],
				"types": {
					"t_address": {
						"encoding": "inplace",
						"label": "address",
						"numberOfBytes": "20"
					},
					"t_bool": {
						"encoding": "inplace",
						"label": "bool",
						"numberOfBytes": "1"
					},
					"t_bytes32": {
						"encoding": "inplace",
						"label": "bytes32",
						"numberOfBytes": "32"
					},
					"t_mapping(t_address,t_bool)": {
						"encoding": "mapping",
						"key": "t_address",
						"label": "mapping(address => bool)",
						"numberOfBytes": "32",
						"value": "t_bool"
					},
					"t_mapping(t_address,t_mapping(t_address,t_bool))": {
						"encoding": "mapping",
						"key": "t_address",
						"label": "mapping(address => mapping(address => bool))",
						"numberOfBytes": "32",
						"value": "t_mapping(t_address,t_bool)"
					},
					"t_mapping(t_address,t_mapping(t_address,t_mapping(t_bytes32,t_bool)))": {
						"encoding": "mapping",
						"key": "t_address",
						"label": "mapping(address => mapping(address => mapping(bytes32 => bool)))",
						"numberOfBytes": "32",
						"value": "t_mapping(t_address,t_mapping(t_bytes32,t_bool))"
					},
					"t_mapping(t_address,t_mapping(t_address,t_mapping(t_bytes32,t_uint256)))": {
						"encoding": "mapping",
						"key": "t_address",
						"label": "mapping(address => mapping(address => mapping(bytes32 => uint256)))",
						"numberOfBytes": "32",
						"value": "t_mapping(t_address,t_mapping(t_bytes32,t_uint256))"
					},
					"t_mapping(t_address,t_mapping(t_address,t_mapping(t_string_memory_ptr,t_bool)))": {
						"encoding": "mapping",
						"key": "t_address",
						"label": "mapping(address => mapping(address => mapping(string => bool)))",
						"numberOfBytes": "32",
						"value": "t_mapping(t_address,t_mapping(t_string_memory_ptr,t_bool))"
					},
					"t_mapping(t_address,t_mapping(t_address,t_mapping(t_string_memory_ptr,t_uint256)))": {
						"encoding": "mapping",
						"key": "t_address",
						"label": "mapping(address => mapping(address => mapping(string => uint256)))",
						"numberOfBytes": "32",
						"value": "t_mapping(t_address,t_mapping(t_string_memory_ptr,t_uint256))"
					},
					"t_mapping(t_address,t_mapping(t_address,t_uint256))": {
						"encoding": "mapping",
						"key": "t_address",
						"label": "mapping(address => mapping(address => uint256))",
						"numberOfBytes": "32",
						"value": "t_mapping(t_address,t_uint256)"
					},
					"t_mapping(t_address,t_mapping(t_bytes32,t_bool))": {
						"encoding": "mapping",
						"key": "t_address",
						"label": "mapping(address => mapping(bytes32 => bool))",
						"numberOfBytes": "32",
						"value": "t_mapping(t_bytes32,t_bool)"
					},
					"t_mapping(t_address,t_mapping(t_bytes32,t_uint256))": {
						"encoding": "mapping",
						"key": "t_address",
						"label": "mapping(address => mapping(bytes32 => uint256))",
						"numberOfBytes": "32",
						"value": "t_mapping(t_bytes32,t_uint256)"
					},
					"t_mapping(t_address,t_mapping(t_string_memory_ptr,t_bool))": {
						"encoding": "mapping",
						"key": "t_address",
						"label": "mapping(address => mapping(string => bool))",
						"numberOfBytes": "32",
						"value": "t_mapping(t_string_memory_ptr,t_bool)"
					},
					"t_mapping(t_address,t_mapping(t_string_memory_ptr,t_uint256))": {
						"encoding": "mapping",
						"key": "t_address",
						"label": "mapping(address => mapping(string => uint256))",
						"numberOfBytes": "32",
						"value": "t_mapping(t_string_memory_ptr,t_uint256)"
					},
					"t_mapping(t_address,t_uint256)": {
						"encoding": "mapping",
						"key": "t_address",
						"label": "mapping(address => uint256)",
						"numberOfBytes": "32",
						"value": "t_uint256"
					},
					"t_mapping(t_bytes32,t_bool)": {
						"encoding": "mapping",
						"key": "t_bytes32",
						"label": "mapping(bytes32 => bool)",
						"numberOfBytes": "32",
						"value": "t_bool"
					},
					"t_mapping(t_bytes32,t_struct(Memory)29_storage)": {
						"encoding": "mapping",
						"key": "t_bytes32",
						"label": "mapping(bytes32 => struct MemoryControl.Memory)",
						"numberOfBytes": "32",
						"value": "t_struct(Memory)29_storage"
					},
					"t_mapping(t_bytes32,t_uint256)": {
						"encoding": "mapping",
						"key": "t_bytes32",
						"label": "mapping(bytes32 => uint256)",
						"numberOfBytes": "32",
						"value": "t_uint256"
					},
					"t_mapping(t_string_memory_ptr,t_bool)": {
						"encoding": "mapping",
						"key": "t_string_memory_ptr",
						"label": "mapping(string => bool)",
						"numberOfBytes": "32",
						"value": "t_bool"
					},
					"t_mapping(t_string_memory_ptr,t_uint256)": {
						"encoding": "mapping",
						"key": "t_string_memory_ptr",
						"label": "mapping(string => uint256)",
						"numberOfBytes": "32",
						"value": "t_uint256"
					},
					"t_string_memory_ptr": {
						"encoding": "bytes",
						"label": "string",
						"numberOfBytes": "32"
					},
					"t_string_storage": {
						"encoding": "bytes",
						"label": "string",
						"numberOfBytes": "32"
					},
					"t_struct(Memory)29_storage": {
						"encoding": "inplace",
						"label": "struct MemoryControl.Memory",
						"members": [
							{
								"astId": 20,
								"contract": "contracts/MemoryControl.sol:MemoryControl",
								"label": "owner",
								"offset": 0,
								"slot": "0",
								"type": "t_address"
							},
							{
								"astId": 22,
								"contract": "contracts/MemoryControl.sol:MemoryControl",
								"label": "metadataHash",
								"offset": 0,
								"slot": "1",
								"type": "t_bytes32"
							},
							{
								"astId": 24,
								"contract": "contracts/MemoryControl.sol:MemoryControl",
								"label": "createdAt",
								"offset": 0,
								"slot": "2",
								"type": "t_uint256"
							},
							{
								"astId": 26,
								"contract": "contracts/MemoryControl.sol:MemoryControl",
								"label": "sourceDomain",
								"offset": 0,
								"slot": "3",
								"type": "t_address"
							},
							{
								"astId": 28,
								"contract": "contracts/MemoryControl.sol:MemoryControl",
								"label": "sourceDomainName",
								"offset": 0,
								"slot": "4",
								"type": "t_string_storage"
							}
						],
						"numberOfBytes": "160"
					},
					"t_uint256": {
						"encoding": "inplace",
						"label": "uint256",
						"numberOfBytes": "32"
					}
				}
			},
			"userdoc": {
				"kind": "user",
				"methods": {},
				"version": 1
			}
		}
	}
}