{
	"contracts/MemoryControl.sol": {
		"MemoryControl": {
			"abi": [
				{
					"inputs": [
						{
							"internalType": "address",
							"name": "_domainRegistry",
							"type": "address"
						}
					],
					"stateMutability": "nonpayable",
					"type": "constructor"
				},
				{
					"anonymous": false,
					"inputs": [
						{
							"indexed": true,
							"internalType": "address",
							"name": "owner",
							"type": "address"
						},
						{
							"indexed": true,
							"internalType": "address",
							"name": "grantee",
							"type": "address"
						},
						{
							"indexed": false,
							"internalType": "string",
							"name": "granteeDomain",
							"type": "string"
						}
					],
					"name": "AccessGranted",
					"type": "event"
				},
				{
					"anonymous": false,
					"inputs": [
						{
							"indexed": true,
							"internalType": "address",
							"name": "owner",
							"type": "address"
						},
						{
							"indexed": true,
							"internalType": "address",
							"name": "grantee",
							"type": "address"
						},
						{
							"indexed": false,
							"internalType": "string",
							"name": "granteeDomain",
							"type": "string"
						}
					],
					"name": "AccessRevoked",
					"type": "event"
				},
				{
					"anonymous": false,
					"inputs": [
						{
							"indexed": true,
							"internalType": "address",
							"name": "owner",
							"type": "address"
						},
						{
							"indexed": true,
							"internalType": "bytes32",
							"name": "memoryId",
							"type": "bytes32"
						},
						{
							"indexed": false,
							"internalType": "string",
							"name": "sourceDomainName",
							"type": "string"
						}
					],
					"name": "MemoryAdded",
					"type": "event"
				},
				{
					"anonymous": false,
					"inputs": [
						{
							"indexed": true,
							"internalType": "address",
							"name": "owner",
							"type": "address"
						},
						{
							"indexed": true,
							"internalType": "bytes32",
							"name": "memoryId",
							"type": "bytes32"
						}
					],
					"name": "MemoryDeleted",
					"type": "event"
				},
				{
					"inputs": [
						{
							"internalType": "address",
							"name": "",
							"type": "address"
						},
						{
							"internalType": "address",
							"name": "",
							"type": "address"
						}
					],
					"name": "accessList",
					"outputs": [
						{
							"internalType": "bool",
							"name": "",
							"type": "bool"
						}
					],
					"stateMutability": "view",
					"type": "function"
				},
				{
					"inputs": [
						{
							"internalType": "bytes32",
							"name": "metadataHash",
							"type": "bytes32"
						},
						{
							"internalType": "string",
							"name": "sourceDomainName",
							"type": "string"
						}
					],
					"name": "addMemory",
					"outputs": [],
					"stateMutability": "nonpayable",
					"type": "function"
				},
				{
					"inputs": [
						{
							"internalType": "bytes32",
							"name": "memoryId",
							"type": "bytes32"
						}
					],
					"name": "deleteMemory",
					"outputs": [],
					"stateMutability": "nonpayable",
					"type": "function"
				},
				{
					"inputs": [],
					"name": "domainRegistry",
					"outputs": [
						{
							"internalType": "contract IDomainRegistry",
							"name": "",
							"type": "address"
						}
					],
					"stateMutability": "view",
					"type": "function"
				},
				{
					"inputs": [
						{
							"internalType": "bytes32",
							"name": "memoryId",
							"type": "bytes32"
						}
					],
					"name": "getMemory",
					"outputs": [
						{
							"components": [
								{
									"internalType": "address",
									"name": "owner",
									"type": "address"
								},
								{
									"internalType": "bytes32",
									"name": "metadataHash",
									"type": "bytes32"
								},
								{
									"internalType": "uint256",
									"name": "createdAt",
									"type": "uint256"
								},
								{
									"internalType": "address",
									"name": "sourceDomain",
									"type": "address"
								}
							],
							"internalType": "struct MemoryControl.Memory",
							"name": "",
							"type": "tuple"
						}
					],
					"stateMutability": "view",
					"type": "function"
				},
				{
					"inputs": [
						{
							"internalType": "string",
							"name": "domainName",
							"type": "string"
						}
					],
					"name": "grantAccessToDomain",
					"outputs": [],
					"stateMutability": "nonpayable",
					"type": "function"
				},
				{
					"inputs": [
						{
							"internalType": "address",
							"name": "grantee",
							"type": "address"
						}
					],
					"name": "grantAccessToUser",
					"outputs": [],
					"stateMutability": "nonpayable",
					"type": "function"
				},
				{
					"inputs": [
						{
							"internalType": "bytes32",
							"name": "memoryId",
							"type": "bytes32"
						},
						{
							"internalType": "address",
							"name": "grantee",
							"type": "address"
						}
					],
					"name": "hasAccess",
					"outputs": [
						{
							"internalType": "bool",
							"name": "",
							"type": "bool"
						}
					],
					"stateMutability": "view",
					"type": "function"
				},
				{
					"inputs": [
						{
							"internalType": "bytes32",
							"name": "memoryId",
							"type": "bytes32"
						}
					],
					"name": "isMemoryExists",
					"outputs": [
						{
							"internalType": "bool",
							"name": "",
							"type": "bool"
						}
					],
					"stateMutability": "view",
					"type": "function"
				},
				{
					"inputs": [
						{
							"internalType": "bytes32",
							"name": "",
							"type": "bytes32"
						}
					],
					"name": "memories",
					"outputs": [
						{
							"internalType": "address",
							"name": "owner",
							"type": "address"
						},
						{
							"internalType": "bytes32",
							"name": "metadataHash",
							"type": "bytes32"
						},
						{
							"internalType": "uint256",
							"name": "createdAt",
							"type": "uint256"
						},
						{
							"internalType": "address",
							"name": "sourceDomain",
							"type": "address"
						}
					],
					"stateMutability": "view",
					"type": "function"
				},
				{
					"inputs": [
						{
							"internalType": "string",
							"name": "domainName",
							"type": "string"
						}
					],
					"name": "revokeAccessFromDomain",
					"outputs": [],
					"stateMutability": "nonpayable",
					"type": "function"
				},
				{
					"inputs": [
						{
							"internalType": "address",
							"name": "grantee",
							"type": "address"
						}
					],
					"name": "revokeAccessFromUser",
					"outputs": [],
					"stateMutability": "nonpayable",
					"type": "function"
				}
			],
			"devdoc": {
				"details": "The main contract that users and applications will interact with to manage memory ownership,  permissions, and the audit trail. This contract uses a hybrid on-chain/off-chain storage model where only a cryptographic hash of the metadata is stored on-chain for cost efficiency and privacy.",
				"kind": "dev",
				"methods": {
					"addMemory(bytes32,string)": {
						"details": "Add a new memory to the system",
						"params": {
							"metadataHash": "The keccak256 hash of the full off-chain metadata (the \"digital fingerprint\")",
							"sourceDomainName": "The domain name where this memory was created (e.g., \"chatgpt.com\")  This function is called by the application backend when a user creates a new memory. It automatically grants access to the source domain's official wallet address."
						}
					},
					"constructor": {
						"details": "Constructor sets the domain registry address",
						"params": {
							"_domainRegistry": "The address of the DomainRegistry contract"
						}
					},
					"deleteMemory(bytes32)": {
						"details": "Delete a memory from the system",
						"params": {
							"memoryId": "The unique memory ID (metadataHash) to delete  This function is called by a user to delete a memory they own."
						}
					},
					"getMemory(bytes32)": {
						"details": "Get memory information",
						"params": {
							"memoryId": "The unique memory ID to retrieve"
						},
						"returns": {
							"_0": "The Memory struct containing all on-chain data"
						}
					},
					"grantAccessToDomain(string)": {
						"details": "Grant access to an application domain",
						"params": {
							"domainName": "The domain name to grant access to (e.g., \"claude.ai\")  This function allows a user to grant access to an application like \"claude.ai\"."
						}
					},
					"grantAccessToUser(address)": {
						"details": "Grant access to another user's wallet",
						"params": {
							"grantee": "The wallet address to grant access to  This function allows a user to grant access to another user's wallet."
						}
					},
					"hasAccess(bytes32,address)": {
						"details": "Check if a grantee has access to a memory",
						"params": {
							"grantee": "The wallet address to check access for",
							"memoryId": "The unique memory ID to check access for"
						},
						"returns": {
							"_0": "True if the grantee has access, false otherwise"
						}
					},
					"isMemoryExists(bytes32)": {
						"details": "Check if a memory exists",
						"params": {
							"memoryId": "The unique memory ID to check"
						},
						"returns": {
							"_0": "True if the memory exists, false otherwise"
						}
					},
					"revokeAccessFromDomain(string)": {
						"details": "Revoke access from an application domain",
						"params": {
							"domainName": "The domain name to revoke access from  This function allows users to revoke permissions from applications at any time."
						}
					},
					"revokeAccessFromUser(address)": {
						"details": "Revoke access from another user's wallet",
						"params": {
							"grantee": "The wallet address to revoke access from  This function allows users to revoke permissions at any time."
						}
					}
				},
				"title": "MemoryControl",
				"version": 1
			},
			"evm": {
				"assembly": "    /* \"contracts/MemoryControl.sol\":437:8771  contract MemoryControl {... */\n  mstore(0x40, 0xa0)\n    /* \"contracts/MemoryControl.sol\":2679:2890  constructor(address _domainRegistry) {... */\n  callvalue\n  dup1\n  iszero\n  tag_1\n  jumpi\n  revert(0x00, 0x00)\ntag_1:\n  pop\n  mload(0x40)\n  sub(codesize, bytecodeSize)\n  dup1\n  bytecodeSize\n  dup4\n  codecopy\n  dup2\n  add\n  0x40\n  dup2\n  swap1\n  mstore\n  tag_2\n  swap2\n  tag_3\n  jump\t// in\ntag_2:\n  sub(shl(0xa0, 0x01), 0x01)\n    /* \"contracts/MemoryControl.sol\":2735:2764  _domainRegistry != address(0) */\n  dup2\n  and\n    /* \"contracts/MemoryControl.sol\":2727:2822  require(_domainRegistry != address(0), \"MemoryControl: Domain registry address cannot be zero\") */\n  tag_6\n  jumpi\n  mload(0x40)\n  shl(0xe5, 0x461bcd)\n  dup2\n  mstore\n    /* \"#utility.yul\":511:513   */\n  0x20\n    /* \"contracts/MemoryControl.sol\":2727:2822  require(_domainRegistry != address(0), \"MemoryControl: Domain registry address cannot be zero\") */\n  0x04\n  dup3\n  add\n    /* \"#utility.yul\":493:514   */\n  mstore\n    /* \"#utility.yul\":550:552   */\n  0x35\n    /* \"#utility.yul\":530:548   */\n  0x24\n  dup3\n  add\n    /* \"#utility.yul\":523:553   */\n  mstore\n    /* \"#utility.yul\":589:623   */\n  0x4d656d6f7279436f6e74726f6c3a20446f6d61696e2072656769737472792061\n    /* \"#utility.yul\":569:587   */\n  0x44\n  dup3\n  add\n    /* \"#utility.yul\":562:624   */\n  mstore\n    /* \"#utility.yul\":660:683   */\n  0x6464726573732063616e6e6f74206265207a65726f0000000000000000000000\n    /* \"#utility.yul\":640:658   */\n  0x64\n  dup3\n  add\n    /* \"#utility.yul\":633:684   */\n  mstore\n    /* \"#utility.yul\":701:720   */\n  0x84\n  add\n    /* \"contracts/MemoryControl.sol\":2727:2822  require(_domainRegistry != address(0), \"MemoryControl: Domain registry address cannot be zero\") */\n  mload(0x40)\n  dup1\n  swap2\n  sub\n  swap1\n  revert\ntag_6:\n  sub(shl(0xa0, 0x01), 0x01)\n    /* \"contracts/MemoryControl.sol\":2833:2882  domainRegistry = IDomainRegistry(_domainRegistry) */\n  and\n  0x80\n  mstore\n    /* \"contracts/MemoryControl.sol\":437:8771  contract MemoryControl {... */\n  jump(tag_10)\n    /* \"#utility.yul\":14:304   */\ntag_3:\n    /* \"#utility.yul\":84:90   */\n  0x00\n    /* \"#utility.yul\":137:139   */\n  0x20\n    /* \"#utility.yul\":125:134   */\n  dup3\n    /* \"#utility.yul\":116:123   */\n  dup5\n    /* \"#utility.yul\":112:135   */\n  sub\n    /* \"#utility.yul\":108:140   */\n  slt\n    /* \"#utility.yul\":105:157   */\n  iszero\n  tag_12\n  jumpi\n    /* \"#utility.yul\":153:154   */\n  0x00\n    /* \"#utility.yul\":150:151   */\n  0x00\n    /* \"#utility.yul\":143:155   */\n  revert\n    /* \"#utility.yul\":105:157   */\ntag_12:\n    /* \"#utility.yul\":179:195   */\n  dup2\n  mload\n  sub(shl(0xa0, 0x01), 0x01)\n    /* \"#utility.yul\":224:255   */\n  dup2\n  and\n    /* \"#utility.yul\":214:256   */\n  dup2\n  eq\n    /* \"#utility.yul\":204:274   */\n  tag_13\n  jumpi\n    /* \"#utility.yul\":270:271   */\n  0x00\n    /* \"#utility.yul\":267:268   */\n  0x00\n    /* \"#utility.yul\":260:272   */\n  revert\n    /* \"#utility.yul\":204:274   */\ntag_13:\n    /* \"#utility.yul\":293:298   */\n  swap4\n    /* \"#utility.yul\":14:304   */\n  swap3\n  pop\n  pop\n  pop\n  jump\t// out\n    /* \"#utility.yul\":309:726   */\ntag_10:\n    /* \"contracts/MemoryControl.sol\":437:8771  contract MemoryControl {... */\n  mload(0x80)\n  codecopy(0x00, dataOffset(sub_0), dataSize(sub_0))\n  0x00\n  assignImmutable(\"0x8fef2229291b68be841adf029e58b87f39ba144b2d3b0af1760243d0a9bc6a1c\")\n  return(0x00, dataSize(sub_0))\nstop\n\nsub_0: assembly {\n        /* \"contracts/MemoryControl.sol\":437:8771  contract MemoryControl {... */\n      mstore(0x40, 0x80)\n      callvalue\n      dup1\n      iszero\n      tag_1\n      jumpi\n      revert(0x00, 0x00)\n    tag_1:\n      pop\n      jumpi(tag_2, lt(calldatasize, 0x04))\n      shr(0xe0, calldataload(0x00))\n      dup1\n      0x6dd64428\n      gt\n      tag_15\n      jumpi\n      dup1\n      0x6dd64428\n      eq\n      tag_9\n      jumpi\n      dup1\n      0x74e12a86\n      eq\n      tag_10\n      jumpi\n      dup1\n      0x77814646\n      eq\n      tag_11\n      jumpi\n      dup1\n      0x83177db3\n      eq\n      tag_12\n      jumpi\n      dup1\n      0x90e00623\n      eq\n      tag_13\n      jumpi\n      dup1\n      0x9a04f839\n      eq\n      tag_14\n      jumpi\n      revert(0x00, 0x00)\n    tag_15:\n      dup1\n      0x0944a93d\n      eq\n      tag_3\n      jumpi\n      dup1\n      0x0f26fe45\n      eq\n      tag_4\n      jumpi\n      dup1\n      0x1d24eff4\n      eq\n      tag_5\n      jumpi\n      dup1\n      0x2b5afa64\n      eq\n      tag_6\n      jumpi\n      dup1\n      0x38debead\n      eq\n      tag_7\n      jumpi\n      dup1\n      0x41cde2ca\n      eq\n      tag_8\n      jumpi\n    tag_2:\n      revert(0x00, 0x00)\n        /* \"contracts/MemoryControl.sol\":542:589  IDomainRegistry public immutable domainRegistry */\n    tag_3:\n      tag_16\n      immutable(\"0x8fef2229291b68be841adf029e58b87f39ba144b2d3b0af1760243d0a9bc6a1c\")\n      dup2\n      jump\n    tag_16:\n      mload(0x40)\n      sub(shl(0xa0, 0x01), 0x01)\n        /* \"#utility.yul\":200:232   */\n      swap1\n      swap2\n      and\n        /* \"#utility.yul\":182:233   */\n      dup2\n      mstore\n        /* \"#utility.yul\":170:172   */\n      0x20\n        /* \"#utility.yul\":155:173   */\n      add\n        /* \"contracts/MemoryControl.sol\":542:589  IDomainRegistry public immutable domainRegistry */\n    tag_18:\n      mload(0x40)\n      dup1\n      swap2\n      sub\n      swap1\n      return\n        /* \"contracts/MemoryControl.sol\":4755:5090  function deleteMemory(bytes32 memoryId) external onlyMemoryOwner(memoryId) memoryExists(memoryId) {... */\n    tag_4:\n      tag_20\n      tag_21\n      calldatasize\n      0x04\n      tag_22\n      jump\t// in\n    tag_21:\n      tag_23\n      jump\t// in\n    tag_20:\n      stop\n        /* \"contracts/MemoryControl.sol\":8310:8452  function getMemory(bytes32 memoryId) external view memoryExists(memoryId) returns (Memory memory) {... */\n    tag_5:\n      tag_24\n      tag_25\n      calldatasize\n      0x04\n      tag_22\n      jump\t// in\n    tag_25:\n      tag_26\n      jump\t// in\n    tag_24:\n      mload(0x40)\n      tag_18\n      swap2\n      swap1\n        /* \"#utility.yul\":688:701   */\n      dup2\n      mload\n      sub(shl(0xa0, 0x01), 0x01)\n        /* \"#utility.yul\":684:723   */\n      swap1\n      dup2\n      and\n        /* \"#utility.yul\":666:724   */\n      dup3\n      mstore\n        /* \"#utility.yul\":780:784   */\n      0x20\n        /* \"#utility.yul\":768:785   */\n      dup1\n      dup5\n      add\n        /* \"#utility.yul\":762:786   */\n      mload\n        /* \"#utility.yul\":740:760   */\n      swap1\n      dup4\n      add\n        /* \"#utility.yul\":733:787   */\n      mstore\n        /* \"#utility.yul\":843:847   */\n      0x40\n        /* \"#utility.yul\":831:848   */\n      dup1\n      dup5\n      add\n        /* \"#utility.yul\":825:849   */\n      mload\n        /* \"#utility.yul\":803:823   */\n      swap1\n      dup4\n      add\n        /* \"#utility.yul\":796:850   */\n      mstore\n        /* \"#utility.yul\":910:914   */\n      0x60\n        /* \"#utility.yul\":898:915   */\n      swap3\n      dup4\n      add\n        /* \"#utility.yul\":892:916   */\n      mload\n        /* \"#utility.yul\":888:938   */\n      and\n        /* \"#utility.yul\":866:886   */\n      swap2\n      dup2\n      add\n        /* \"#utility.yul\":859:939   */\n      swap2\n      swap1\n      swap2\n      mstore\n        /* \"#utility.yul\":653:656   */\n      0x80\n        /* \"#utility.yul\":638:657   */\n      add\n      swap1\n        /* \"#utility.yul\":475:945   */\n      jump\n        /* \"contracts/MemoryControl.sol\":6538:6814  function revokeAccessFromUser(address grantee) external {... */\n    tag_6:\n      tag_20\n      tag_30\n      calldatasize\n      0x04\n      tag_31\n      jump\t// in\n    tag_30:\n      tag_32\n      jump\t// in\n        /* \"contracts/MemoryControl.sol\":3359:4530  function addMemory(... */\n    tag_7:\n      tag_20\n      tag_34\n      calldatasize\n      0x04\n      tag_35\n      jump\t// in\n    tag_34:\n      tag_36\n      jump\t// in\n        /* \"contracts/MemoryControl.sol\":5941:6311  function grantAccessToDomain(string memory domainName) external validDomainName(domainName) {... */\n    tag_8:\n      tag_20\n      tag_38\n      calldatasize\n      0x04\n      tag_39\n      jump\t// in\n    tag_38:\n      tag_40\n      jump\t// in\n        /* \"contracts/MemoryControl.sol\":8633:8768  function isMemoryExists(bytes32 memoryId) external view returns (bool) {... */\n    tag_9:\n      tag_41\n      tag_42\n      calldatasize\n      0x04\n      tag_22\n      jump\t// in\n    tag_42:\n        /* \"contracts/MemoryControl.sol\":8698:8702  bool */\n      0x00\n        /* \"contracts/MemoryControl.sol\":8722:8740  memories[memoryId] */\n      swap1\n      dup2\n      mstore\n      0x20\n      dup2\n      swap1\n      mstore\n      0x40\n      swap1\n      keccak256\n        /* \"contracts/MemoryControl.sol\":8722:8746  memories[memoryId].owner */\n      sload\n      sub(shl(0xa0, 0x01), 0x01)\n      and\n        /* \"contracts/MemoryControl.sol\":8722:8760  memories[memoryId].owner != address(0) */\n      iszero\n      iszero\n      swap1\n        /* \"contracts/MemoryControl.sol\":8633:8768  function isMemoryExists(bytes32 memoryId) external view returns (bool) {... */\n      jump\n    tag_41:\n      mload(0x40)\n        /* \"#utility.yul\":3134:3148   */\n      swap1\n      iszero\n        /* \"#utility.yul\":3127:3149   */\n      iszero\n        /* \"#utility.yul\":3109:3150   */\n      dup2\n      mstore\n        /* \"#utility.yul\":3097:3099   */\n      0x20\n        /* \"#utility.yul\":3082:3100   */\n      add\n        /* \"contracts/MemoryControl.sol\":8633:8768  function isMemoryExists(bytes32 memoryId) external view returns (bool) {... */\n      tag_18\n        /* \"#utility.yul\":2969:3156   */\n      jump\n        /* \"contracts/MemoryControl.sol\":1123:1165  mapping(bytes32 => Memory) public memories */\n    tag_10:\n      tag_46\n      tag_47\n      calldatasize\n      0x04\n      tag_22\n      jump\t// in\n    tag_47:\n      0x00\n      0x20\n      dup2\n      swap1\n      mstore\n      swap1\n      dup2\n      mstore\n      0x40\n      swap1\n      keccak256\n      dup1\n      sload\n      0x01\n      dup3\n      add\n      sload\n      0x02\n      dup4\n      add\n      sload\n      0x03\n      swap1\n      swap4\n      add\n      sload\n      sub(shl(0xa0, 0x01), 0x01)\n      swap3\n      dup4\n      and\n      swap4\n      swap2\n      swap3\n      and\n      dup5\n      jump\n    tag_46:\n      0x40\n      dup1\n      mload\n      sub(shl(0xa0, 0x01), 0x01)\n        /* \"#utility.yul\":3410:3442   */\n      swap6\n      dup7\n      and\n        /* \"#utility.yul\":3392:3443   */\n      dup2\n      mstore\n        /* \"#utility.yul\":3474:3476   */\n      0x20\n        /* \"#utility.yul\":3459:3477   */\n      dup2\n      add\n        /* \"#utility.yul\":3452:3486   */\n      swap5\n      swap1\n      swap5\n      mstore\n        /* \"#utility.yul\":3502:3520   */\n      dup4\n      add\n        /* \"#utility.yul\":3495:3529   */\n      swap2\n      swap1\n      swap2\n      mstore\n        /* \"#utility.yul\":3565:3597   */\n      swap1\n      swap2\n      and\n        /* \"#utility.yul\":3560:3562   */\n      0x60\n        /* \"#utility.yul\":3545:3563   */\n      dup3\n      add\n        /* \"#utility.yul\":3538:3598   */\n      mstore\n        /* \"#utility.yul\":3379:3382   */\n      0x80\n        /* \"#utility.yul\":3364:3383   */\n      add\n        /* \"contracts/MemoryControl.sol\":1123:1165  mapping(bytes32 => Memory) public memories */\n      tag_18\n        /* \"#utility.yul\":3161:3604   */\n      jump\n        /* \"contracts/MemoryControl.sol\":1328:1390  mapping(address => mapping(address => bool)) public accessList */\n    tag_11:\n      tag_41\n      tag_52\n      calldatasize\n      0x04\n      tag_53\n      jump\t// in\n    tag_52:\n      0x01\n      0x20\n      swap1\n      dup2\n      mstore\n      0x00\n      swap3\n      dup4\n      mstore\n      0x40\n      dup1\n      dup5\n      keccak256\n      swap1\n      swap2\n      mstore\n      swap1\n      dup3\n      mstore\n      swap1\n      keccak256\n      sload\n      0xff\n      and\n      dup2\n      jump\n        /* \"contracts/MemoryControl.sol\":7709:8124  function hasAccess(bytes32 memoryId, address grantee) external view memoryExists(memoryId) returns (bool) {... */\n    tag_12:\n      tag_41\n      tag_57\n      calldatasize\n      0x04\n      tag_58\n      jump\t// in\n    tag_57:\n      tag_59\n      jump\t// in\n        /* \"contracts/MemoryControl.sol\":5319:5682  function grantAccessToUser(address grantee) external {... */\n    tag_13:\n      tag_20\n      tag_62\n      calldatasize\n      0x04\n      tag_31\n      jump\t// in\n    tag_62:\n      tag_63\n      jump\t// in\n        /* \"contracts/MemoryControl.sol\":7059:7433  function revokeAccessFromDomain(string memory domainName) external validDomainName(domainName) {... */\n    tag_14:\n      tag_20\n      tag_65\n      calldatasize\n      0x04\n      tag_39\n      jump\t// in\n    tag_65:\n      tag_66\n      jump\t// in\n        /* \"contracts/MemoryControl.sol\":4755:5090  function deleteMemory(bytes32 memoryId) external onlyMemoryOwner(memoryId) memoryExists(memoryId) {... */\n    tag_23:\n        /* \"contracts/MemoryControl.sol\":1958:1966  memories */\n      0x00\n        /* \"contracts/MemoryControl.sol\":1958:1976  memories[memoryId] */\n      dup2\n      dup2\n      mstore\n      0x20\n      dup2\n      swap1\n      mstore\n      0x40\n      swap1\n      keccak256\n        /* \"contracts/MemoryControl.sol\":1958:1982  memories[memoryId].owner */\n      sload\n        /* \"contracts/MemoryControl.sol\":4820:4828  memoryId */\n      dup2\n      swap1\n      sub(shl(0xa0, 0x01), 0x01)\n        /* \"contracts/MemoryControl.sol\":1958:1982  memories[memoryId].owner */\n      and\n        /* \"contracts/MemoryControl.sol\":1986:1996  msg.sender */\n      caller\n        /* \"contracts/MemoryControl.sol\":1958:1996  memories[memoryId].owner == msg.sender */\n      eq\n        /* \"contracts/MemoryControl.sol\":1950:2057  require(memories[memoryId].owner == msg.sender, \"MemoryControl: Only memory owner can perform this action\") */\n      tag_68\n      jumpi\n      mload(0x40)\n      shl(0xe5, 0x461bcd)\n      dup2\n      mstore\n        /* \"#utility.yul\":4576:4578   */\n      0x20\n        /* \"contracts/MemoryControl.sol\":1950:2057  require(memories[memoryId].owner == msg.sender, \"MemoryControl: Only memory owner can perform this action\") */\n      0x04\n      dup3\n      add\n        /* \"#utility.yul\":4558:4579   */\n      mstore\n        /* \"#utility.yul\":4615:4617   */\n      0x38\n        /* \"#utility.yul\":4595:4613   */\n      0x24\n      dup3\n      add\n        /* \"#utility.yul\":4588:4618   */\n      mstore\n        /* \"#utility.yul\":4654:4688   */\n      0x4d656d6f7279436f6e74726f6c3a204f6e6c79206d656d6f7279206f776e6572\n        /* \"#utility.yul\":4634:4652   */\n      0x44\n      dup3\n      add\n        /* \"#utility.yul\":4627:4689   */\n      mstore\n        /* \"#utility.yul\":4725:4751   */\n      0x2063616e20706572666f726d207468697320616374696f6e0000000000000000\n        /* \"#utility.yul\":4705:4723   */\n      0x64\n      dup3\n      add\n        /* \"#utility.yul\":4698:4752   */\n      mstore\n        /* \"#utility.yul\":4769:4788   */\n      0x84\n      add\n        /* \"contracts/MemoryControl.sol\":1950:2057  require(memories[memoryId].owner == msg.sender, \"MemoryControl: Only memory owner can perform this action\") */\n    tag_69:\n      mload(0x40)\n      dup1\n      swap2\n      sub\n      swap1\n      revert\n    tag_68:\n        /* \"contracts/MemoryControl.sol\":2225:2226  0 */\n      0x00\n        /* \"contracts/MemoryControl.sol\":2189:2207  memories[memoryId] */\n      dup3\n      dup2\n      mstore\n      0x20\n      dup2\n      swap1\n      mstore\n      0x40\n      swap1\n      keccak256\n        /* \"contracts/MemoryControl.sol\":2189:2213  memories[memoryId].owner */\n      sload\n        /* \"contracts/MemoryControl.sol\":4843:4851  memoryId */\n      dup3\n      swap1\n      sub(shl(0xa0, 0x01), 0x01)\n        /* \"contracts/MemoryControl.sol\":2189:2213  memories[memoryId].owner */\n      and\n        /* \"contracts/MemoryControl.sol\":2181:2268  require(memories[memoryId].owner != address(0), \"MemoryControl: Memory does not exist\") */\n      tag_72\n      jumpi\n      mload(0x40)\n      shl(0xe5, 0x461bcd)\n      dup2\n      mstore\n      0x04\n      add\n      tag_69\n      swap1\n      tag_74\n      jump\t// in\n    tag_72:\n        /* \"contracts/MemoryControl.sol\":4864:4877  address owner */\n      0x00\n        /* \"contracts/MemoryControl.sol\":4880:4898  memories[memoryId] */\n      dup4\n      dup2\n      mstore\n      0x20\n      dup2\n      swap1\n      mstore\n      0x40\n      dup1\n      dup3\n      keccak256\n        /* \"contracts/MemoryControl.sol\":4880:4904  memories[memoryId].owner */\n      dup1\n      sload\n      not(sub(shl(0xa0, 0x01), 0x01))\n        /* \"contracts/MemoryControl.sol\":4962:4987  delete memories[memoryId] */\n      dup1\n      dup3\n      and\n      dup4\n      sstore\n        /* \"contracts/MemoryControl.sol\":4880:4904  memories[memoryId].owner */\n      0x01\n        /* \"contracts/MemoryControl.sol\":4962:4987  delete memories[memoryId] */\n      dup4\n      add\n      dup6\n      swap1\n      sstore\n      0x02\n      dup4\n      add\n      dup6\n      swap1\n      sstore\n      0x03\n      swap1\n      swap3\n      add\n      dup1\n      sload\n      swap1\n      swap3\n      and\n      swap1\n      swap2\n      sstore\n        /* \"contracts/MemoryControl.sol\":5052:5082  MemoryDeleted(owner, memoryId) */\n      swap1\n      mload\n      sub(shl(0xa0, 0x01), 0x01)\n        /* \"contracts/MemoryControl.sol\":4880:4904  memories[memoryId].owner */\n      swap1\n      swap2\n      and\n      swap2\n        /* \"contracts/MemoryControl.sol\":4889:4897  memoryId */\n      dup6\n      swap2\n        /* \"contracts/MemoryControl.sol\":4880:4904  memories[memoryId].owner */\n      dup4\n      swap2\n        /* \"contracts/MemoryControl.sol\":5052:5082  MemoryDeleted(owner, memoryId) */\n      0xce43e25c3862a18fc518ceb279ba32211116b6898e5ea653f120559df2c168da\n      swap2\n      log3\n        /* \"contracts/MemoryControl.sol\":4853:5090  {... */\n      pop\n        /* \"contracts/MemoryControl.sol\":2068:2069  _ */\n      pop\n        /* \"contracts/MemoryControl.sol\":4755:5090  function deleteMemory(bytes32 memoryId) external onlyMemoryOwner(memoryId) memoryExists(memoryId) {... */\n      pop\n      pop\n      jump\t// out\n        /* \"contracts/MemoryControl.sol\":8310:8452  function getMemory(bytes32 memoryId) external view memoryExists(memoryId) returns (Memory memory) {... */\n    tag_26:\n      0x40\n      dup1\n      mload\n      0x80\n      dup2\n      add\n      dup3\n      mstore\n      0x00\n      dup1\n      dup3\n      mstore\n      0x20\n      dup1\n      dup4\n      add\n      dup3\n      swap1\n      mstore\n      dup3\n      dup5\n      add\n      dup3\n      swap1\n      mstore\n      0x60\n      dup4\n      add\n      dup3\n      swap1\n      mstore\n        /* \"contracts/MemoryControl.sol\":2189:2207  memories[memoryId] */\n      dup5\n      dup3\n      mstore\n      dup2\n      swap1\n      mstore\n      swap2\n      swap1\n      swap2\n      keccak256\n        /* \"contracts/MemoryControl.sol\":2189:2213  memories[memoryId].owner */\n      sload\n        /* \"contracts/MemoryControl.sol\":2189:2207  memories[memoryId] */\n      dup3\n      swap1\n      sub(shl(0xa0, 0x01), 0x01)\n        /* \"contracts/MemoryControl.sol\":2189:2213  memories[memoryId].owner */\n      and\n        /* \"contracts/MemoryControl.sol\":2181:2268  require(memories[memoryId].owner != address(0), \"MemoryControl: Memory does not exist\") */\n      tag_79\n      jumpi\n      mload(0x40)\n      shl(0xe5, 0x461bcd)\n      dup2\n      mstore\n      0x04\n      add\n      tag_69\n      swap1\n      tag_74\n      jump\t// in\n    tag_79:\n      pop\n      pop\n        /* \"contracts/MemoryControl.sol\":8426:8434  memories */\n      0x00\n        /* \"contracts/MemoryControl.sol\":8426:8444  memories[memoryId] */\n      swap1\n      dup2\n      mstore\n      0x20\n      dup2\n      dup2\n      mstore\n      0x40\n      swap2\n      dup3\n      swap1\n      keccak256\n        /* \"contracts/MemoryControl.sol\":8419:8444  return memories[memoryId] */\n      dup3\n      mload\n      0x80\n      dup2\n      add\n      dup5\n      mstore\n      dup2\n      sload\n      sub(shl(0xa0, 0x01), 0x01)\n      swap1\n      dup2\n      and\n      dup3\n      mstore\n      0x01\n      dup4\n      add\n      sload\n      swap4\n      dup3\n      add\n      swap4\n      swap1\n      swap4\n      mstore\n      0x02\n      dup3\n      add\n      sload\n      swap4\n      dup2\n      add\n      swap4\n      swap1\n      swap4\n      mstore\n      0x03\n      add\n      sload\n      and\n      0x60\n      dup3\n      add\n      mstore\n      swap1\n        /* \"contracts/MemoryControl.sol\":8310:8452  function getMemory(bytes32 memoryId) external view memoryExists(memoryId) returns (Memory memory) {... */\n      jump\t// out\n        /* \"contracts/MemoryControl.sol\":6538:6814  function revokeAccessFromUser(address grantee) external {... */\n    tag_32:\n      sub(shl(0xa0, 0x01), 0x01)\n        /* \"contracts/MemoryControl.sol\":6613:6634  grantee != address(0) */\n      dup2\n      and\n        /* \"contracts/MemoryControl.sol\":6605:6692  require(grantee != address(0), \"MemoryControl: Grantee address cannot be zero address\") */\n      tag_83\n      jumpi\n      mload(0x40)\n      shl(0xe5, 0x461bcd)\n      dup2\n      mstore\n      0x04\n      add\n      tag_69\n      swap1\n      tag_85\n      jump\t// in\n    tag_83:\n        /* \"contracts/MemoryControl.sol\":6724:6734  msg.sender */\n      caller\n        /* \"contracts/MemoryControl.sol\":6747:6752  false */\n      0x00\n        /* \"contracts/MemoryControl.sol\":6713:6735  accessList[msg.sender] */\n      dup2\n      dup2\n      mstore\n        /* \"contracts/MemoryControl.sol\":6713:6723  accessList */\n      0x01\n        /* \"contracts/MemoryControl.sol\":6713:6735  accessList[msg.sender] */\n      0x20\n      swap1\n      dup2\n      mstore\n      0x40\n      dup1\n      dup4\n      keccak256\n      sub(shl(0xa0, 0x01), 0x01)\n        /* \"contracts/MemoryControl.sol\":6713:6744  accessList[msg.sender][grantee] */\n      dup7\n      and\n      dup1\n      dup6\n      mstore\n      swap1\n      dup4\n      mstore\n      dup2\n      dup5\n      keccak256\n        /* \"contracts/MemoryControl.sol\":6713:6752  accessList[msg.sender][grantee] = false */\n      dup1\n      sload\n      not(0xff)\n      and\n      swap1\n      sstore\n        /* \"contracts/MemoryControl.sol\":6768:6806  AccessRevoked(msg.sender, grantee, \"\") */\n      dup2\n      mload\n        /* \"#utility.yul\":5810:5831   */\n      dup4\n      dup2\n      mstore\n        /* \"#utility.yul\":5847:5865   */\n      swap3\n      dup4\n      add\n        /* \"#utility.yul\":5840:5869   */\n      swap4\n      swap1\n      swap4\n      mstore\n        /* \"contracts/MemoryControl.sol\":6713:6744  accessList[msg.sender][grantee] */\n      swap2\n      swap3\n        /* \"contracts/MemoryControl.sol\":6724:6734  msg.sender */\n      swap2\n        /* \"contracts/MemoryControl.sol\":6768:6806  AccessRevoked(msg.sender, grantee, \"\") */\n      0x0a2382b7b0f44ee62df753c00034038c109332bf9b8f52418af74aa2859780fb\n      swap2\n        /* \"#utility.yul\":5886:5904   */\n      add\n        /* \"contracts/MemoryControl.sol\":6768:6806  AccessRevoked(msg.sender, grantee, \"\") */\n    tag_86:\n      mload(0x40)\n      dup1\n      swap2\n      sub\n      swap1\n      log3\n        /* \"contracts/MemoryControl.sol\":6538:6814  function revokeAccessFromUser(address grantee) external {... */\n      pop\n      jump\t// out\n        /* \"contracts/MemoryControl.sol\":3359:4530  function addMemory(... */\n    tag_36:\n        /* \"contracts/MemoryControl.sol\":3483:3499  sourceDomainName */\n      dup1\n        /* \"contracts/MemoryControl.sol\":2449:2450  0 */\n      0x00\n        /* \"contracts/MemoryControl.sol\":2428:2438  domainName */\n      dup2\n        /* \"contracts/MemoryControl.sol\":2422:2446  bytes(domainName).length */\n      mload\n        /* \"contracts/MemoryControl.sol\":2422:2450  bytes(domainName).length > 0 */\n      gt\n        /* \"contracts/MemoryControl.sol\":2414:2497  require(bytes(domainName).length > 0, \"MemoryControl: Domain name cannot be empty\") */\n      tag_89\n      jumpi\n      mload(0x40)\n      shl(0xe5, 0x461bcd)\n      dup2\n      mstore\n      0x04\n      add\n      tag_69\n      swap1\n      tag_91\n      jump\t// in\n    tag_89:\n        /* \"contracts/MemoryControl.sol\":3520:3532  metadataHash */\n      dup3\n        /* \"contracts/MemoryControl.sol\":3512:3594  require(metadataHash != bytes32(0), \"MemoryControl: Metadata hash cannot be zero\") */\n      tag_93\n      jumpi\n      mload(0x40)\n      shl(0xe5, 0x461bcd)\n      dup2\n      mstore\n        /* \"#utility.yul\":6528:6530   */\n      0x20\n        /* \"contracts/MemoryControl.sol\":3512:3594  require(metadataHash != bytes32(0), \"MemoryControl: Metadata hash cannot be zero\") */\n      0x04\n      dup3\n      add\n        /* \"#utility.yul\":6510:6531   */\n      mstore\n        /* \"#utility.yul\":6567:6569   */\n      0x2b\n        /* \"#utility.yul\":6547:6565   */\n      0x24\n      dup3\n      add\n        /* \"#utility.yul\":6540:6570   */\n      mstore\n        /* \"#utility.yul\":6606:6640   */\n      0x4d656d6f7279436f6e74726f6c3a204d6574616461746120686173682063616e\n        /* \"#utility.yul\":6586:6604   */\n      0x44\n      dup3\n      add\n        /* \"#utility.yul\":6579:6641   */\n      mstore\n      shl(0xa8, 0x6e6f74206265207a65726f)\n        /* \"#utility.yul\":6657:6675   */\n      0x64\n      dup3\n      add\n        /* \"#utility.yul\":6650:6691   */\n      mstore\n        /* \"#utility.yul\":6708:6727   */\n      0x84\n      add\n        /* \"contracts/MemoryControl.sol\":3512:3594  require(metadataHash != bytes32(0), \"MemoryControl: Metadata hash cannot be zero\") */\n      tag_69\n        /* \"#utility.yul\":6326:6733   */\n      jump\n        /* \"contracts/MemoryControl.sol\":3512:3594  require(metadataHash != bytes32(0), \"MemoryControl: Metadata hash cannot be zero\") */\n    tag_93:\n        /* \"contracts/MemoryControl.sol\":3653:3654  0 */\n      0x00\n        /* \"contracts/MemoryControl.sol\":3613:3635  memories[metadataHash] */\n      dup4\n      dup2\n      mstore\n      0x20\n      dup2\n      swap1\n      mstore\n      0x40\n      swap1\n      keccak256\n        /* \"contracts/MemoryControl.sol\":3613:3641  memories[metadataHash].owner */\n      sload\n      sub(shl(0xa0, 0x01), 0x01)\n      and\n        /* \"contracts/MemoryControl.sol\":3613:3655  memories[metadataHash].owner == address(0) */\n      iszero\n        /* \"contracts/MemoryControl.sol\":3605:3711  require(memories[metadataHash].owner == address(0), \"MemoryControl: Memory with this hash already exists\") */\n      tag_96\n      jumpi\n      mload(0x40)\n      shl(0xe5, 0x461bcd)\n      dup2\n      mstore\n        /* \"#utility.yul\":6940:6942   */\n      0x20\n        /* \"contracts/MemoryControl.sol\":3605:3711  require(memories[metadataHash].owner == address(0), \"MemoryControl: Memory with this hash already exists\") */\n      0x04\n      dup3\n      add\n        /* \"#utility.yul\":6922:6943   */\n      mstore\n        /* \"#utility.yul\":6979:6981   */\n      0x33\n        /* \"#utility.yul\":6959:6977   */\n      0x24\n      dup3\n      add\n        /* \"#utility.yul\":6952:6982   */\n      mstore\n        /* \"#utility.yul\":7018:7052   */\n      0x4d656d6f7279436f6e74726f6c3a204d656d6f72792077697468207468697320\n        /* \"#utility.yul\":6998:7016   */\n      0x44\n      dup3\n      add\n        /* \"#utility.yul\":6991:7053   */\n      mstore\n      shl(0x68, 0x6861736820616c726561647920657869737473)\n        /* \"#utility.yul\":7069:7087   */\n      0x64\n      dup3\n      add\n        /* \"#utility.yul\":7062:7111   */\n      mstore\n        /* \"#utility.yul\":7128:7147   */\n      0x84\n      add\n        /* \"contracts/MemoryControl.sol\":3605:3711  require(memories[metadataHash].owner == address(0), \"MemoryControl: Memory with this hash already exists\") */\n      tag_69\n        /* \"#utility.yul\":6738:7153   */\n      jump\n        /* \"contracts/MemoryControl.sol\":3605:3711  require(memories[metadataHash].owner == address(0), \"MemoryControl: Memory with this hash already exists\") */\n    tag_96:\n        /* \"contracts/MemoryControl.sol\":3828:3877  domainRegistry.getDomainAddress(sourceDomainName) */\n      mload(0x40)\n      shl(0xe0, 0x94310e51)\n      dup2\n      mstore\n        /* \"contracts/MemoryControl.sol\":3798:3825  address sourceDomainAddress */\n      0x00\n      swap1\n      sub(shl(0xa0, 0x01), 0x01)\n        /* \"contracts/MemoryControl.sol\":3828:3842  domainRegistry */\n      immutable(\"0x8fef2229291b68be841adf029e58b87f39ba144b2d3b0af1760243d0a9bc6a1c\")\n        /* \"contracts/MemoryControl.sol\":3828:3859  domainRegistry.getDomainAddress */\n      and\n      swap1\n      0x94310e51\n      swap1\n        /* \"contracts/MemoryControl.sol\":3828:3877  domainRegistry.getDomainAddress(sourceDomainName) */\n      tag_99\n      swap1\n        /* \"contracts/MemoryControl.sol\":3860:3876  sourceDomainName */\n      dup7\n      swap1\n        /* \"contracts/MemoryControl.sol\":3828:3877  domainRegistry.getDomainAddress(sourceDomainName) */\n      0x04\n      add\n      tag_100\n      jump\t// in\n    tag_99:\n      0x20\n      mload(0x40)\n      dup1\n      dup4\n      sub\n      dup2\n      dup7\n      gas\n      staticcall\n      iszero\n      dup1\n      iszero\n      tag_102\n      jumpi\n      returndatacopy(0x00, 0x00, returndatasize)\n      revert(0x00, returndatasize)\n    tag_102:\n      pop\n      pop\n      pop\n      pop\n      mload(0x40)\n      returndatasize\n      not(0x1f)\n      0x1f\n      dup3\n      add\n      and\n      dup3\n      add\n      dup1\n      0x40\n      mstore\n      pop\n      dup2\n      add\n      swap1\n      tag_103\n      swap2\n      swap1\n      tag_104\n      jump\t// in\n    tag_103:\n        /* \"contracts/MemoryControl.sol\":3974:4155  Memory({... */\n      0x40\n      dup1\n      mload\n      0x80\n      dup2\n      add\n      dup3\n      mstore\n        /* \"contracts/MemoryControl.sol\":4003:4013  msg.sender */\n      caller\n        /* \"contracts/MemoryControl.sol\":3974:4155  Memory({... */\n      dup1\n      dup3\n      mstore\n      0x20\n      dup1\n      dup4\n      add\n      dup10\n      dup2\n      mstore\n        /* \"contracts/MemoryControl.sol\":4080:4095  block.timestamp */\n      timestamp\n        /* \"contracts/MemoryControl.sol\":3974:4155  Memory({... */\n      dup5\n      dup7\n      add\n      swap1\n      dup2\n      mstore\n      sub(shl(0xa0, 0x01), 0x01)\n      dup1\n      dup9\n      and\n      0x60\n      dup8\n      add\n      dup2\n      dup2\n      mstore\n      0x00\n        /* \"contracts/MemoryControl.sol\":3949:3971  memories[metadataHash] */\n      dup15\n      dup2\n      mstore\n      dup1\n      dup8\n      mstore\n      dup10\n      dup2\n      keccak256\n        /* \"contracts/MemoryControl.sol\":3949:4155  memories[metadataHash] = Memory({... */\n      swap9\n      mload\n      dup10\n      sload\n      swap1\n      dup6\n      and\n      not(sub(shl(0xa0, 0x01), 0x01))\n      swap2\n      dup3\n      and\n      or\n      dup11\n      sstore\n      swap6\n      mload\n      0x01\n      dup1\n      dup12\n      add\n      swap2\n      swap1\n      swap2\n      sstore\n      swap5\n      mload\n      0x02\n      dup11\n      add\n      sstore\n      swap1\n      mload\n      0x03\n      swap1\n      swap9\n      add\n      dup1\n      sload\n      swap9\n      swap1\n      swap4\n      and\n      swap8\n      swap1\n      swap5\n      and\n      swap7\n      swap1\n      swap7\n      or\n      swap1\n      sstore\n        /* \"contracts/MemoryControl.sol\":4262:4284  accessList[msg.sender] */\n      dup4\n      dup3\n      mstore\n      dup1\n      dup4\n      mstore\n      dup6\n      dup3\n      keccak256\n        /* \"contracts/MemoryControl.sol\":4262:4305  accessList[msg.sender][sourceDomainAddress] */\n      swap5\n      dup3\n      mstore\n      swap4\n      swap1\n      swap2\n      mstore\n      dup4\n      swap1\n      keccak256\n        /* \"contracts/MemoryControl.sol\":4262:4312  accessList[msg.sender][sourceDomainAddress] = true */\n      dup1\n      sload\n      not(0xff)\n      and\n      swap1\n      swap3\n      or\n      swap1\n      swap2\n      sstore\n        /* \"contracts/MemoryControl.sol\":4387:4442  MemoryAdded(msg.sender, metadataHash, sourceDomainName) */\n      swap1\n      mload\n        /* \"contracts/MemoryControl.sol\":3798:3877  address sourceDomainAddress = domainRegistry.getDomainAddress(sourceDomainName) */\n      swap2\n      swap3\n      pop\n        /* \"contracts/MemoryControl.sol\":4042:4054  metadataHash */\n      dup6\n      swap2\n        /* \"contracts/MemoryControl.sol\":4387:4442  MemoryAdded(msg.sender, metadataHash, sourceDomainName) */\n      0x6c1a2d58efe5be4c401d24d5828cb48178c534c9aa1575f7b1d257aab8995754\n      swap1\n      tag_105\n      swap1\n        /* \"contracts/MemoryControl.sol\":4425:4441  sourceDomainName */\n      dup8\n      swap1\n        /* \"contracts/MemoryControl.sol\":4387:4442  MemoryAdded(msg.sender, metadataHash, sourceDomainName) */\n      tag_100\n      jump\t// in\n    tag_105:\n      mload(0x40)\n      dup1\n      swap2\n      sub\n      swap1\n      log3\n        /* \"contracts/MemoryControl.sol\":4484:4503  sourceDomainAddress */\n      dup1\n      sub(shl(0xa0, 0x01), 0x01)\n        /* \"contracts/MemoryControl.sol\":4458:4522  AccessGranted(msg.sender, sourceDomainAddress, sourceDomainName) */\n      and\n        /* \"contracts/MemoryControl.sol\":4472:4482  msg.sender */\n      caller\n      sub(shl(0xa0, 0x01), 0x01)\n        /* \"contracts/MemoryControl.sol\":4458:4522  AccessGranted(msg.sender, sourceDomainAddress, sourceDomainName) */\n      and\n      0xc7e5c007251689b9bc3cb624f55714afc5988f3e3b4e20cc6a606d7bad6faeca\n        /* \"contracts/MemoryControl.sol\":4505:4521  sourceDomainName */\n      dup6\n        /* \"contracts/MemoryControl.sol\":4458:4522  AccessGranted(msg.sender, sourceDomainAddress, sourceDomainName) */\n      mload(0x40)\n      tag_106\n      swap2\n      swap1\n      tag_100\n      jump\t// in\n    tag_106:\n      mload(0x40)\n      dup1\n      swap2\n      sub\n      swap1\n      log3\n        /* \"contracts/MemoryControl.sol\":3501:4530  {... */\n      pop\n        /* \"contracts/MemoryControl.sol\":3359:4530  function addMemory(... */\n      pop\n      pop\n      pop\n      jump\t// out\n        /* \"contracts/MemoryControl.sol\":5941:6311  function grantAccessToDomain(string memory domainName) external validDomainName(domainName) {... */\n    tag_40:\n        /* \"contracts/MemoryControl.sol\":6021:6031  domainName */\n      dup1\n        /* \"contracts/MemoryControl.sol\":2449:2450  0 */\n      0x00\n        /* \"contracts/MemoryControl.sol\":2428:2438  domainName */\n      dup2\n        /* \"contracts/MemoryControl.sol\":2422:2446  bytes(domainName).length */\n      mload\n        /* \"contracts/MemoryControl.sol\":2422:2450  bytes(domainName).length > 0 */\n      gt\n        /* \"contracts/MemoryControl.sol\":2414:2497  require(bytes(domainName).length > 0, \"MemoryControl: Domain name cannot be empty\") */\n      tag_108\n      jumpi\n      mload(0x40)\n      shl(0xe5, 0x461bcd)\n      dup2\n      mstore\n      0x04\n      add\n      tag_69\n      swap1\n      tag_91\n      jump\t// in\n    tag_108:\n        /* \"contracts/MemoryControl.sol\":6127:6170  domainRegistry.getDomainAddress(domainName) */\n      mload(0x40)\n      shl(0xe0, 0x94310e51)\n      dup2\n      mstore\n        /* \"contracts/MemoryControl.sol\":6103:6124  address domainAddress */\n      0x00\n      swap1\n      sub(shl(0xa0, 0x01), 0x01)\n        /* \"contracts/MemoryControl.sol\":6127:6141  domainRegistry */\n      immutable(\"0x8fef2229291b68be841adf029e58b87f39ba144b2d3b0af1760243d0a9bc6a1c\")\n        /* \"contracts/MemoryControl.sol\":6127:6158  domainRegistry.getDomainAddress */\n      and\n      swap1\n      0x94310e51\n      swap1\n        /* \"contracts/MemoryControl.sol\":6127:6170  domainRegistry.getDomainAddress(domainName) */\n      tag_111\n      swap1\n        /* \"contracts/MemoryControl.sol\":6159:6169  domainName */\n      dup7\n      swap1\n        /* \"contracts/MemoryControl.sol\":6127:6170  domainRegistry.getDomainAddress(domainName) */\n      0x04\n      add\n      tag_100\n      jump\t// in\n    tag_111:\n      0x20\n      mload(0x40)\n      dup1\n      dup4\n      sub\n      dup2\n      dup7\n      gas\n      staticcall\n      iszero\n      dup1\n      iszero\n      tag_113\n      jumpi\n      returndatacopy(0x00, 0x00, returndatasize)\n      revert(0x00, returndatasize)\n    tag_113:\n      pop\n      pop\n      pop\n      pop\n      mload(0x40)\n      returndatasize\n      not(0x1f)\n      0x1f\n      dup3\n      add\n      and\n      dup3\n      add\n      dup1\n      0x40\n      mstore\n      pop\n      dup2\n      add\n      swap1\n      tag_114\n      swap2\n      swap1\n      tag_104\n      jump\t// in\n    tag_114:\n        /* \"contracts/MemoryControl.sol\":6202:6212  msg.sender */\n      caller\n        /* \"contracts/MemoryControl.sol\":6191:6213  accessList[msg.sender] */\n      0x00\n      dup2\n      dup2\n      mstore\n        /* \"contracts/MemoryControl.sol\":6231:6235  true */\n      0x01\n        /* \"contracts/MemoryControl.sol\":6191:6213  accessList[msg.sender] */\n      0x20\n      dup2\n      dup2\n      mstore\n      0x40\n      dup1\n      dup5\n      keccak256\n      sub(shl(0xa0, 0x01), 0x01)\n        /* \"contracts/MemoryControl.sol\":6191:6228  accessList[msg.sender][domainAddress] */\n      dup8\n      and\n      dup1\n      dup7\n      mstore\n      swap3\n      mstore\n      swap3\n      dup4\n      swap1\n      keccak256\n        /* \"contracts/MemoryControl.sol\":6191:6235  accessList[msg.sender][domainAddress] = true */\n      dup1\n      sload\n      not(0xff)\n      and\n      swap1\n      swap3\n      or\n      swap1\n      swap2\n      sstore\n        /* \"contracts/MemoryControl.sol\":6251:6303  AccessGranted(msg.sender, domainAddress, domainName) */\n      swap1\n      mload\n        /* \"contracts/MemoryControl.sol\":6103:6170  address domainAddress = domainRegistry.getDomainAddress(domainName) */\n      swap3\n      swap4\n      pop\n        /* \"contracts/MemoryControl.sol\":6191:6228  accessList[msg.sender][domainAddress] */\n      swap2\n        /* \"contracts/MemoryControl.sol\":6251:6303  AccessGranted(msg.sender, domainAddress, domainName) */\n      0xc7e5c007251689b9bc3cb624f55714afc5988f3e3b4e20cc6a606d7bad6faeca\n      swap1\n      tag_115\n      swap1\n        /* \"contracts/MemoryControl.sol\":6292:6302  domainName */\n      dup8\n      swap1\n        /* \"contracts/MemoryControl.sol\":6251:6303  AccessGranted(msg.sender, domainAddress, domainName) */\n      tag_100\n      jump\t// in\n    tag_115:\n      mload(0x40)\n      dup1\n      swap2\n      sub\n      swap1\n      log3\n        /* \"contracts/MemoryControl.sol\":6033:6311  {... */\n      pop\n        /* \"contracts/MemoryControl.sol\":5941:6311  function grantAccessToDomain(string memory domainName) external validDomainName(domainName) {... */\n      pop\n      pop\n      jump\t// out\n        /* \"contracts/MemoryControl.sol\":7709:8124  function hasAccess(bytes32 memoryId, address grantee) external view memoryExists(memoryId) returns (bool) {... */\n    tag_59:\n        /* \"contracts/MemoryControl.sol\":7809:7813  bool */\n      0x00\n        /* \"contracts/MemoryControl.sol\":2189:2207  memories[memoryId] */\n      dup3\n      dup2\n      mstore\n      0x20\n      dup2\n      swap1\n      mstore\n      0x40\n      dup2\n      keccak256\n        /* \"contracts/MemoryControl.sol\":2189:2213  memories[memoryId].owner */\n      sload\n        /* \"contracts/MemoryControl.sol\":7790:7798  memoryId */\n      dup4\n      swap1\n      sub(shl(0xa0, 0x01), 0x01)\n        /* \"contracts/MemoryControl.sol\":2189:2213  memories[memoryId].owner */\n      and\n        /* \"contracts/MemoryControl.sol\":2181:2268  require(memories[memoryId].owner != address(0), \"MemoryControl: Memory does not exist\") */\n      tag_118\n      jumpi\n      mload(0x40)\n      shl(0xe5, 0x461bcd)\n      dup2\n      mstore\n      0x04\n      add\n      tag_69\n      swap1\n      tag_74\n      jump\t// in\n    tag_118:\n        /* \"contracts/MemoryControl.sol\":7826:7850  Memory memory memoryData */\n      0x00\n        /* \"contracts/MemoryControl.sol\":7853:7871  memories[memoryId] */\n      dup5\n      dup2\n      mstore\n      0x20\n      dup2\n      dup2\n      mstore\n      0x40\n      swap2\n      dup3\n      swap1\n      keccak256\n        /* \"contracts/MemoryControl.sol\":7826:7871  Memory memory memoryData = memories[memoryId] */\n      dup3\n      mload\n      0x80\n      dup2\n      add\n      dup5\n      mstore\n      dup2\n      sload\n      sub(shl(0xa0, 0x01), 0x01)\n      swap1\n      dup2\n      and\n      dup1\n      dup4\n      mstore\n      0x01\n      dup5\n      add\n      sload\n      swap5\n      dup4\n      add\n      swap5\n      swap1\n      swap5\n      mstore\n      0x02\n      dup4\n      add\n      sload\n      swap5\n      dup3\n      add\n      swap5\n      swap1\n      swap5\n      mstore\n      0x03\n      swap1\n      swap2\n      add\n      sload\n      dup4\n      and\n      0x60\n      dup3\n      add\n      mstore\n      swap2\n        /* \"contracts/MemoryControl.sol\":7932:7959  grantee == memoryData.owner */\n      dup6\n      and\n      sub\n        /* \"contracts/MemoryControl.sol\":7928:7999  if (grantee == memoryData.owner) {... */\n      tag_121\n      jumpi\n        /* \"contracts/MemoryControl.sol\":7983:7987  true */\n      0x01\n        /* \"contracts/MemoryControl.sol\":7976:7987  return true */\n      swap3\n      pop\n      pop\n      jump(tag_120)\n        /* \"contracts/MemoryControl.sol\":7928:7999  if (grantee == memoryData.owner) {... */\n    tag_121:\n        /* \"contracts/MemoryControl.sol\":8090:8106  memoryData.owner */\n      mload\n      sub(shl(0xa0, 0x01), 0x01)\n        /* \"contracts/MemoryControl.sol\":8079:8107  accessList[memoryData.owner] */\n      swap1\n      dup2\n      and\n      0x00\n      swap1\n      dup2\n      mstore\n        /* \"contracts/MemoryControl.sol\":8079:8089  accessList */\n      0x01\n        /* \"contracts/MemoryControl.sol\":8079:8107  accessList[memoryData.owner] */\n      0x20\n      swap1\n      dup2\n      mstore\n      0x40\n      dup1\n      dup4\n      keccak256\n        /* \"contracts/MemoryControl.sol\":8079:8116  accessList[memoryData.owner][grantee] */\n      swap4\n      dup8\n      and\n      dup4\n      mstore\n      swap3\n      swap1\n      mstore\n      keccak256\n      sload\n      0xff\n      and\n      swap2\n      pop\n        /* \"contracts/MemoryControl.sol\":2279:2280  _ */\n    tag_120:\n        /* \"contracts/MemoryControl.sol\":7709:8124  function hasAccess(bytes32 memoryId, address grantee) external view memoryExists(memoryId) returns (bool) {... */\n      pop\n      swap3\n      swap2\n      pop\n      pop\n      jump\t// out\n        /* \"contracts/MemoryControl.sol\":5319:5682  function grantAccessToUser(address grantee) external {... */\n    tag_63:\n      sub(shl(0xa0, 0x01), 0x01)\n        /* \"contracts/MemoryControl.sol\":5391:5412  grantee != address(0) */\n      dup2\n      and\n        /* \"contracts/MemoryControl.sol\":5383:5470  require(grantee != address(0), \"MemoryControl: Grantee address cannot be zero address\") */\n      tag_123\n      jumpi\n      mload(0x40)\n      shl(0xe5, 0x461bcd)\n      dup2\n      mstore\n      0x04\n      add\n      tag_69\n      swap1\n      tag_85\n      jump\t// in\n    tag_123:\n        /* \"contracts/MemoryControl.sol\":5500:5510  msg.sender */\n      caller\n      sub(shl(0xa0, 0x01), 0x01)\n        /* \"contracts/MemoryControl.sol\":5489:5510  grantee != msg.sender */\n      dup3\n      and\n      sub\n        /* \"contracts/MemoryControl.sol\":5481:5561  require(grantee != msg.sender, \"MemoryControl: Cannot grant access to yourself\") */\n      tag_125\n      jumpi\n      mload(0x40)\n      shl(0xe5, 0x461bcd)\n      dup2\n      mstore\n        /* \"#utility.yul\":8039:8041   */\n      0x20\n        /* \"contracts/MemoryControl.sol\":5481:5561  require(grantee != msg.sender, \"MemoryControl: Cannot grant access to yourself\") */\n      0x04\n      dup3\n      add\n        /* \"#utility.yul\":8021:8042   */\n      mstore\n        /* \"#utility.yul\":8078:8080   */\n      0x2e\n        /* \"#utility.yul\":8058:8076   */\n      0x24\n      dup3\n      add\n        /* \"#utility.yul\":8051:8081   */\n      mstore\n        /* \"#utility.yul\":8117:8151   */\n      0x4d656d6f7279436f6e74726f6c3a2043616e6e6f74206772616e742061636365\n        /* \"#utility.yul\":8097:8115   */\n      0x44\n      dup3\n      add\n        /* \"#utility.yul\":8090:8152   */\n      mstore\n      shl(0x91, 0x39b9903a37903cb7bab939b2b633)\n        /* \"#utility.yul\":8168:8186   */\n      0x64\n      dup3\n      add\n        /* \"#utility.yul\":8161:8205   */\n      mstore\n        /* \"#utility.yul\":8222:8241   */\n      0x84\n      add\n        /* \"contracts/MemoryControl.sol\":5481:5561  require(grantee != msg.sender, \"MemoryControl: Cannot grant access to yourself\") */\n      tag_69\n        /* \"#utility.yul\":7837:8247   */\n      jump\n        /* \"contracts/MemoryControl.sol\":5481:5561  require(grantee != msg.sender, \"MemoryControl: Cannot grant access to yourself\") */\n    tag_125:\n        /* \"contracts/MemoryControl.sol\":5593:5603  msg.sender */\n      caller\n        /* \"contracts/MemoryControl.sol\":5582:5604  accessList[msg.sender] */\n      0x00\n      dup2\n      dup2\n      mstore\n        /* \"contracts/MemoryControl.sol\":5616:5620  true */\n      0x01\n        /* \"contracts/MemoryControl.sol\":5582:5604  accessList[msg.sender] */\n      0x20\n      dup2\n      dup2\n      mstore\n      0x40\n      dup1\n      dup5\n      keccak256\n      sub(shl(0xa0, 0x01), 0x01)\n        /* \"contracts/MemoryControl.sol\":5582:5613  accessList[msg.sender][grantee] */\n      dup8\n      and\n      dup1\n      dup7\n      mstore\n      swap1\n      dup4\n      mstore\n      dup2\n      dup6\n      keccak256\n        /* \"contracts/MemoryControl.sol\":5582:5620  accessList[msg.sender][grantee] = true */\n      dup1\n      sload\n      not(0xff)\n      and\n      swap1\n      swap5\n      or\n      swap1\n      swap4\n      sstore\n        /* \"contracts/MemoryControl.sol\":5636:5674  AccessGranted(msg.sender, grantee, \"\") */\n      dup1\n      mload\n        /* \"#utility.yul\":5810:5831   */\n      dup3\n      dup2\n      mstore\n        /* \"#utility.yul\":5847:5865   */\n      swap2\n      dup3\n      add\n        /* \"#utility.yul\":5840:5869   */\n      swap4\n      swap1\n      swap4\n      mstore\n        /* \"contracts/MemoryControl.sol\":5582:5613  accessList[msg.sender][grantee] */\n      swap1\n      swap3\n        /* \"contracts/MemoryControl.sol\":5593:5603  msg.sender */\n      swap2\n        /* \"contracts/MemoryControl.sol\":5636:5674  AccessGranted(msg.sender, grantee, \"\") */\n      0xc7e5c007251689b9bc3cb624f55714afc5988f3e3b4e20cc6a606d7bad6faeca\n      swap2\n        /* \"#utility.yul\":5886:5904   */\n      add\n        /* \"contracts/MemoryControl.sol\":5636:5674  AccessGranted(msg.sender, grantee, \"\") */\n      tag_86\n        /* \"#utility.yul\":5626:5910   */\n      jump\n        /* \"contracts/MemoryControl.sol\":7059:7433  function revokeAccessFromDomain(string memory domainName) external validDomainName(domainName) {... */\n    tag_66:\n        /* \"contracts/MemoryControl.sol\":7142:7152  domainName */\n      dup1\n        /* \"contracts/MemoryControl.sol\":2449:2450  0 */\n      0x00\n        /* \"contracts/MemoryControl.sol\":2428:2438  domainName */\n      dup2\n        /* \"contracts/MemoryControl.sol\":2422:2446  bytes(domainName).length */\n      mload\n        /* \"contracts/MemoryControl.sol\":2422:2450  bytes(domainName).length > 0 */\n      gt\n        /* \"contracts/MemoryControl.sol\":2414:2497  require(bytes(domainName).length > 0, \"MemoryControl: Domain name cannot be empty\") */\n      tag_130\n      jumpi\n      mload(0x40)\n      shl(0xe5, 0x461bcd)\n      dup2\n      mstore\n      0x04\n      add\n      tag_69\n      swap1\n      tag_91\n      jump\t// in\n    tag_130:\n        /* \"contracts/MemoryControl.sol\":7248:7291  domainRegistry.getDomainAddress(domainName) */\n      mload(0x40)\n      shl(0xe0, 0x94310e51)\n      dup2\n      mstore\n        /* \"contracts/MemoryControl.sol\":7224:7245  address domainAddress */\n      0x00\n      swap1\n      sub(shl(0xa0, 0x01), 0x01)\n        /* \"contracts/MemoryControl.sol\":7248:7262  domainRegistry */\n      immutable(\"0x8fef2229291b68be841adf029e58b87f39ba144b2d3b0af1760243d0a9bc6a1c\")\n        /* \"contracts/MemoryControl.sol\":7248:7279  domainRegistry.getDomainAddress */\n      and\n      swap1\n      0x94310e51\n      swap1\n        /* \"contracts/MemoryControl.sol\":7248:7291  domainRegistry.getDomainAddress(domainName) */\n      tag_133\n      swap1\n        /* \"contracts/MemoryControl.sol\":7280:7290  domainName */\n      dup7\n      swap1\n        /* \"contracts/MemoryControl.sol\":7248:7291  domainRegistry.getDomainAddress(domainName) */\n      0x04\n      add\n      tag_100\n      jump\t// in\n    tag_133:\n      0x20\n      mload(0x40)\n      dup1\n      dup4\n      sub\n      dup2\n      dup7\n      gas\n      staticcall\n      iszero\n      dup1\n      iszero\n      tag_135\n      jumpi\n      returndatacopy(0x00, 0x00, returndatasize)\n      revert(0x00, returndatasize)\n    tag_135:\n      pop\n      pop\n      pop\n      pop\n      mload(0x40)\n      returndatasize\n      not(0x1f)\n      0x1f\n      dup3\n      add\n      and\n      dup3\n      add\n      dup1\n      0x40\n      mstore\n      pop\n      dup2\n      add\n      swap1\n      tag_136\n      swap2\n      swap1\n      tag_104\n      jump\t// in\n    tag_136:\n        /* \"contracts/MemoryControl.sol\":7323:7333  msg.sender */\n      caller\n        /* \"contracts/MemoryControl.sol\":7352:7357  false */\n      0x00\n        /* \"contracts/MemoryControl.sol\":7312:7334  accessList[msg.sender] */\n      dup2\n      dup2\n      mstore\n        /* \"contracts/MemoryControl.sol\":7312:7322  accessList */\n      0x01\n        /* \"contracts/MemoryControl.sol\":7312:7334  accessList[msg.sender] */\n      0x20\n      swap1\n      dup2\n      mstore\n      0x40\n      dup1\n      dup4\n      keccak256\n      sub(shl(0xa0, 0x01), 0x01)\n        /* \"contracts/MemoryControl.sol\":7312:7349  accessList[msg.sender][domainAddress] */\n      dup7\n      and\n      dup1\n      dup6\n      mstore\n      swap3\n      mstore\n      swap2\n      dup3\n      swap1\n      keccak256\n        /* \"contracts/MemoryControl.sol\":7312:7357  accessList[msg.sender][domainAddress] = false */\n      dup1\n      sload\n      not(0xff)\n      and\n      swap1\n      sstore\n        /* \"contracts/MemoryControl.sol\":7373:7425  AccessRevoked(msg.sender, domainAddress, domainName) */\n      swap1\n      mload\n        /* \"contracts/MemoryControl.sol\":7224:7291  address domainAddress = domainRegistry.getDomainAddress(domainName) */\n      swap3\n      swap4\n      pop\n        /* \"contracts/MemoryControl.sol\":7312:7349  accessList[msg.sender][domainAddress] */\n      swap2\n        /* \"contracts/MemoryControl.sol\":7373:7425  AccessRevoked(msg.sender, domainAddress, domainName) */\n      0x0a2382b7b0f44ee62df753c00034038c109332bf9b8f52418af74aa2859780fb\n      swap1\n      tag_115\n      swap1\n        /* \"contracts/MemoryControl.sol\":7414:7424  domainName */\n      dup8\n      swap1\n        /* \"contracts/MemoryControl.sol\":7373:7425  AccessRevoked(msg.sender, domainAddress, domainName) */\n      tag_100\n      jump\t// in\n        /* \"#utility.yul\":244:470   */\n    tag_22:\n        /* \"#utility.yul\":303:309   */\n      0x00\n        /* \"#utility.yul\":356:358   */\n      0x20\n        /* \"#utility.yul\":344:353   */\n      dup3\n        /* \"#utility.yul\":335:342   */\n      dup5\n        /* \"#utility.yul\":331:354   */\n      sub\n        /* \"#utility.yul\":327:359   */\n      slt\n        /* \"#utility.yul\":324:376   */\n      iszero\n      tag_144\n      jumpi\n        /* \"#utility.yul\":372:373   */\n      0x00\n        /* \"#utility.yul\":369:370   */\n      0x00\n        /* \"#utility.yul\":362:374   */\n      revert\n        /* \"#utility.yul\":324:376   */\n    tag_144:\n      pop\n        /* \"#utility.yul\":417:440   */\n      calldataload\n      swap2\n        /* \"#utility.yul\":244:470   */\n      swap1\n      pop\n      jump\t// out\n        /* \"#utility.yul\":950:1081   */\n    tag_138:\n      sub(shl(0xa0, 0x01), 0x01)\n        /* \"#utility.yul\":1025:1056   */\n      dup2\n      and\n        /* \"#utility.yul\":1015:1057   */\n      dup2\n      eq\n        /* \"#utility.yul\":1005:1075   */\n      tag_147\n      jumpi\n        /* \"#utility.yul\":1071:1072   */\n      0x00\n        /* \"#utility.yul\":1068:1069   */\n      0x00\n        /* \"#utility.yul\":1061:1073   */\n      revert\n        /* \"#utility.yul\":1005:1075   */\n    tag_147:\n        /* \"#utility.yul\":950:1081   */\n      pop\n      jump\t// out\n        /* \"#utility.yul\":1086:1333   */\n    tag_31:\n        /* \"#utility.yul\":1145:1151   */\n      0x00\n        /* \"#utility.yul\":1198:1200   */\n      0x20\n        /* \"#utility.yul\":1186:1195   */\n      dup3\n        /* \"#utility.yul\":1177:1184   */\n      dup5\n        /* \"#utility.yul\":1173:1196   */\n      sub\n        /* \"#utility.yul\":1169:1201   */\n      slt\n        /* \"#utility.yul\":1166:1218   */\n      iszero\n      tag_149\n      jumpi\n        /* \"#utility.yul\":1214:1215   */\n      0x00\n        /* \"#utility.yul\":1211:1212   */\n      0x00\n        /* \"#utility.yul\":1204:1216   */\n      revert\n        /* \"#utility.yul\":1166:1218   */\n    tag_149:\n        /* \"#utility.yul\":1253:1262   */\n      dup2\n        /* \"#utility.yul\":1240:1263   */\n      calldataload\n        /* \"#utility.yul\":1272:1303   */\n      tag_150\n        /* \"#utility.yul\":1297:1302   */\n      dup2\n        /* \"#utility.yul\":1272:1303   */\n      tag_138\n      jump\t// in\n    tag_150:\n        /* \"#utility.yul\":1322:1327   */\n      swap4\n        /* \"#utility.yul\":1086:1333   */\n      swap3\n      pop\n      pop\n      pop\n      jump\t// out\n        /* \"#utility.yul\":1338:1465   */\n    tag_139:\n        /* \"#utility.yul\":1399:1409   */\n      0x4e487b71\n        /* \"#utility.yul\":1394:1397   */\n      0xe0\n        /* \"#utility.yul\":1390:1410   */\n      shl\n        /* \"#utility.yul\":1387:1388   */\n      0x00\n        /* \"#utility.yul\":1380:1411   */\n      mstore\n        /* \"#utility.yul\":1430:1434   */\n      0x41\n        /* \"#utility.yul\":1427:1428   */\n      0x04\n        /* \"#utility.yul\":1420:1435   */\n      mstore\n        /* \"#utility.yul\":1454:1458   */\n      0x24\n        /* \"#utility.yul\":1451:1452   */\n      0x00\n        /* \"#utility.yul\":1444:1459   */\n      revert\n        /* \"#utility.yul\":1470:2196   */\n    tag_140:\n        /* \"#utility.yul\":1513:1518   */\n      0x00\n        /* \"#utility.yul\":1566:1569   */\n      dup3\n        /* \"#utility.yul\":1559:1563   */\n      0x1f\n        /* \"#utility.yul\":1551:1557   */\n      dup4\n        /* \"#utility.yul\":1547:1564   */\n      add\n        /* \"#utility.yul\":1543:1570   */\n      slt\n        /* \"#utility.yul\":1533:1588   */\n      tag_153\n      jumpi\n        /* \"#utility.yul\":1584:1585   */\n      0x00\n        /* \"#utility.yul\":1581:1582   */\n      0x00\n        /* \"#utility.yul\":1574:1586   */\n      revert\n        /* \"#utility.yul\":1533:1588   */\n    tag_153:\n        /* \"#utility.yul\":1624:1630   */\n      dup2\n        /* \"#utility.yul\":1611:1631   */\n      calldataload\n        /* \"#utility.yul\":1654:1672   */\n      0xffffffffffffffff\n        /* \"#utility.yul\":1646:1652   */\n      dup2\n        /* \"#utility.yul\":1643:1673   */\n      gt\n        /* \"#utility.yul\":1640:1696   */\n      iszero\n      tag_155\n      jumpi\n        /* \"#utility.yul\":1676:1694   */\n      tag_155\n      tag_139\n      jump\t// in\n    tag_155:\n        /* \"#utility.yul\":1725:1727   */\n      0x40\n        /* \"#utility.yul\":1719:1728   */\n      mload\n        /* \"#utility.yul\":1817:1819   */\n      0x1f\n        /* \"#utility.yul\":1779:1796   */\n      dup3\n      add\n      not(0x1f)\n        /* \"#utility.yul\":1775:1806   */\n      swap1\n      dup2\n      and\n        /* \"#utility.yul\":1808:1810   */\n      0x3f\n        /* \"#utility.yul\":1771:1811   */\n      add\n        /* \"#utility.yul\":1767:1821   */\n      and\n        /* \"#utility.yul\":1755:1822   */\n      dup2\n      add\n        /* \"#utility.yul\":1852:1870   */\n      0xffffffffffffffff\n        /* \"#utility.yul\":1837:1871   */\n      dup2\n      gt\n        /* \"#utility.yul\":1873:1895   */\n      dup3\n      dup3\n      lt\n        /* \"#utility.yul\":1834:1896   */\n      or\n        /* \"#utility.yul\":1831:1919   */\n      iszero\n      tag_157\n      jumpi\n        /* \"#utility.yul\":1899:1917   */\n      tag_157\n      tag_139\n      jump\t// in\n    tag_157:\n        /* \"#utility.yul\":1935:1937   */\n      0x40\n        /* \"#utility.yul\":1928:1950   */\n      mstore\n        /* \"#utility.yul\":1959:1981   */\n      dup2\n      dup2\n      mstore\n        /* \"#utility.yul\":2000:2019   */\n      dup4\n      dup3\n      add\n        /* \"#utility.yul\":2021:2025   */\n      0x20\n        /* \"#utility.yul\":1996:2026   */\n      add\n        /* \"#utility.yul\":1993:2032   */\n      dup6\n      lt\n        /* \"#utility.yul\":1990:2049   */\n      iszero\n      tag_158\n      jumpi\n        /* \"#utility.yul\":2045:2046   */\n      0x00\n        /* \"#utility.yul\":2042:2043   */\n      0x00\n        /* \"#utility.yul\":2035:2047   */\n      revert\n        /* \"#utility.yul\":1990:2049   */\n    tag_158:\n        /* \"#utility.yul\":2109:2115   */\n      dup2\n        /* \"#utility.yul\":2102:2106   */\n      0x20\n        /* \"#utility.yul\":2094:2100   */\n      dup6\n        /* \"#utility.yul\":2090:2107   */\n      add\n        /* \"#utility.yul\":2083:2087   */\n      0x20\n        /* \"#utility.yul\":2075:2081   */\n      dup4\n        /* \"#utility.yul\":2071:2088   */\n      add\n        /* \"#utility.yul\":2058:2116   */\n      calldatacopy\n        /* \"#utility.yul\":2164:2165   */\n      0x00\n        /* \"#utility.yul\":2136:2155   */\n      swap2\n      dup2\n      add\n        /* \"#utility.yul\":2157:2161   */\n      0x20\n        /* \"#utility.yul\":2132:2162   */\n      add\n        /* \"#utility.yul\":2125:2166   */\n      swap2\n      swap1\n      swap2\n      mstore\n        /* \"#utility.yul\":2140:2146   */\n      swap4\n        /* \"#utility.yul\":1470:2196   */\n      swap3\n      pop\n      pop\n      pop\n      jump\t// out\n        /* \"#utility.yul\":2201:2637   */\n    tag_35:\n        /* \"#utility.yul\":2279:2285   */\n      0x00\n        /* \"#utility.yul\":2287:2293   */\n      0x00\n        /* \"#utility.yul\":2340:2342   */\n      0x40\n        /* \"#utility.yul\":2328:2337   */\n      dup4\n        /* \"#utility.yul\":2319:2326   */\n      dup6\n        /* \"#utility.yul\":2315:2338   */\n      sub\n        /* \"#utility.yul\":2311:2343   */\n      slt\n        /* \"#utility.yul\":2308:2360   */\n      iszero\n      tag_160\n      jumpi\n        /* \"#utility.yul\":2356:2357   */\n      0x00\n        /* \"#utility.yul\":2353:2354   */\n      0x00\n        /* \"#utility.yul\":2346:2358   */\n      revert\n        /* \"#utility.yul\":2308:2360   */\n    tag_160:\n        /* \"#utility.yul\":2401:2424   */\n      dup3\n      calldataload\n      swap2\n      pop\n        /* \"#utility.yul\":2499:2501   */\n      0x20\n        /* \"#utility.yul\":2484:2502   */\n      dup4\n      add\n        /* \"#utility.yul\":2471:2503   */\n      calldataload\n        /* \"#utility.yul\":2526:2544   */\n      0xffffffffffffffff\n        /* \"#utility.yul\":2515:2545   */\n      dup2\n      gt\n        /* \"#utility.yul\":2512:2562   */\n      iszero\n      tag_161\n      jumpi\n        /* \"#utility.yul\":2558:2559   */\n      0x00\n        /* \"#utility.yul\":2555:2556   */\n      0x00\n        /* \"#utility.yul\":2548:2560   */\n      revert\n        /* \"#utility.yul\":2512:2562   */\n    tag_161:\n        /* \"#utility.yul\":2581:2631   */\n      tag_162\n        /* \"#utility.yul\":2623:2630   */\n      dup6\n        /* \"#utility.yul\":2614:2620   */\n      dup3\n        /* \"#utility.yul\":2603:2612   */\n      dup7\n        /* \"#utility.yul\":2599:2621   */\n      add\n        /* \"#utility.yul\":2581:2631   */\n      tag_140\n      jump\t// in\n    tag_162:\n        /* \"#utility.yul\":2571:2631   */\n      swap2\n      pop\n      pop\n        /* \"#utility.yul\":2201:2637   */\n      swap3\n      pop\n      swap3\n      swap1\n      pop\n      jump\t// out\n        /* \"#utility.yul\":2642:2964   */\n    tag_39:\n        /* \"#utility.yul\":2711:2717   */\n      0x00\n        /* \"#utility.yul\":2764:2766   */\n      0x20\n        /* \"#utility.yul\":2752:2761   */\n      dup3\n        /* \"#utility.yul\":2743:2750   */\n      dup5\n        /* \"#utility.yul\":2739:2762   */\n      sub\n        /* \"#utility.yul\":2735:2767   */\n      slt\n        /* \"#utility.yul\":2732:2784   */\n      iszero\n      tag_164\n      jumpi\n        /* \"#utility.yul\":2780:2781   */\n      0x00\n        /* \"#utility.yul\":2777:2778   */\n      0x00\n        /* \"#utility.yul\":2770:2782   */\n      revert\n        /* \"#utility.yul\":2732:2784   */\n    tag_164:\n        /* \"#utility.yul\":2820:2829   */\n      dup2\n        /* \"#utility.yul\":2807:2830   */\n      calldataload\n        /* \"#utility.yul\":2853:2871   */\n      0xffffffffffffffff\n        /* \"#utility.yul\":2845:2851   */\n      dup2\n        /* \"#utility.yul\":2842:2872   */\n      gt\n        /* \"#utility.yul\":2839:2889   */\n      iszero\n      tag_165\n      jumpi\n        /* \"#utility.yul\":2885:2886   */\n      0x00\n        /* \"#utility.yul\":2882:2883   */\n      0x00\n        /* \"#utility.yul\":2875:2887   */\n      revert\n        /* \"#utility.yul\":2839:2889   */\n    tag_165:\n        /* \"#utility.yul\":2908:2958   */\n      tag_166\n        /* \"#utility.yul\":2950:2957   */\n      dup5\n        /* \"#utility.yul\":2941:2947   */\n      dup3\n        /* \"#utility.yul\":2930:2939   */\n      dup6\n        /* \"#utility.yul\":2926:2948   */\n      add\n        /* \"#utility.yul\":2908:2958   */\n      tag_140\n      jump\t// in\n    tag_166:\n        /* \"#utility.yul\":2898:2958   */\n      swap5\n        /* \"#utility.yul\":2642:2964   */\n      swap4\n      pop\n      pop\n      pop\n      pop\n      jump\t// out\n        /* \"#utility.yul\":3609:3997   */\n    tag_53:\n        /* \"#utility.yul\":3677:3683   */\n      0x00\n        /* \"#utility.yul\":3685:3691   */\n      0x00\n        /* \"#utility.yul\":3738:3740   */\n      0x40\n        /* \"#utility.yul\":3726:3735   */\n      dup4\n        /* \"#utility.yul\":3717:3724   */\n      dup6\n        /* \"#utility.yul\":3713:3736   */\n      sub\n        /* \"#utility.yul\":3709:3741   */\n      slt\n        /* \"#utility.yul\":3706:3758   */\n      iszero\n      tag_170\n      jumpi\n        /* \"#utility.yul\":3754:3755   */\n      0x00\n        /* \"#utility.yul\":3751:3752   */\n      0x00\n        /* \"#utility.yul\":3744:3756   */\n      revert\n        /* \"#utility.yul\":3706:3758   */\n    tag_170:\n        /* \"#utility.yul\":3793:3802   */\n      dup3\n        /* \"#utility.yul\":3780:3803   */\n      calldataload\n        /* \"#utility.yul\":3812:3843   */\n      tag_171\n        /* \"#utility.yul\":3837:3842   */\n      dup2\n        /* \"#utility.yul\":3812:3843   */\n      tag_138\n      jump\t// in\n    tag_171:\n        /* \"#utility.yul\":3862:3867   */\n      swap2\n      pop\n        /* \"#utility.yul\":3919:3921   */\n      0x20\n        /* \"#utility.yul\":3904:3922   */\n      dup4\n      add\n        /* \"#utility.yul\":3891:3923   */\n      calldataload\n        /* \"#utility.yul\":3932:3965   */\n      tag_172\n        /* \"#utility.yul\":3891:3923   */\n      dup2\n        /* \"#utility.yul\":3932:3965   */\n      tag_138\n      jump\t// in\n    tag_172:\n        /* \"#utility.yul\":3984:3991   */\n      dup1\n        /* \"#utility.yul\":3974:3991   */\n      swap2\n      pop\n      pop\n        /* \"#utility.yul\":3609:3997   */\n      swap3\n      pop\n      swap3\n      swap1\n      pop\n      jump\t// out\n        /* \"#utility.yul\":4002:4369   */\n    tag_58:\n        /* \"#utility.yul\":4070:4076   */\n      0x00\n        /* \"#utility.yul\":4078:4084   */\n      0x00\n        /* \"#utility.yul\":4131:4133   */\n      0x40\n        /* \"#utility.yul\":4119:4128   */\n      dup4\n        /* \"#utility.yul\":4110:4117   */\n      dup6\n        /* \"#utility.yul\":4106:4129   */\n      sub\n        /* \"#utility.yul\":4102:4134   */\n      slt\n        /* \"#utility.yul\":4099:4151   */\n      iszero\n      tag_174\n      jumpi\n        /* \"#utility.yul\":4147:4148   */\n      0x00\n        /* \"#utility.yul\":4144:4145   */\n      0x00\n        /* \"#utility.yul\":4137:4149   */\n      revert\n        /* \"#utility.yul\":4099:4151   */\n    tag_174:\n        /* \"#utility.yul\":4192:4215   */\n      dup3\n      calldataload\n      swap2\n      pop\n        /* \"#utility.yul\":4291:4293   */\n      0x20\n        /* \"#utility.yul\":4276:4294   */\n      dup4\n      add\n        /* \"#utility.yul\":4263:4295   */\n      calldataload\n        /* \"#utility.yul\":4304:4337   */\n      tag_172\n        /* \"#utility.yul\":4263:4295   */\n      dup2\n        /* \"#utility.yul\":4304:4337   */\n      tag_138\n      jump\t// in\n        /* \"#utility.yul\":4799:5199   */\n    tag_74:\n        /* \"#utility.yul\":5001:5003   */\n      0x20\n        /* \"#utility.yul\":4983:5004   */\n      dup1\n      dup3\n      mstore\n        /* \"#utility.yul\":5040:5042   */\n      0x24\n        /* \"#utility.yul\":5020:5038   */\n      swap1\n      dup3\n      add\n        /* \"#utility.yul\":5013:5043   */\n      mstore\n        /* \"#utility.yul\":5079:5113   */\n      0x4d656d6f7279436f6e74726f6c3a204d656d6f727920646f6573206e6f742065\n        /* \"#utility.yul\":5074:5076   */\n      0x40\n        /* \"#utility.yul\":5059:5077   */\n      dup3\n      add\n        /* \"#utility.yul\":5052:5114   */\n      mstore\n      shl(0xe2, 0x1e1a5cdd)\n        /* \"#utility.yul\":5145:5147   */\n      0x60\n        /* \"#utility.yul\":5130:5148   */\n      dup3\n      add\n        /* \"#utility.yul\":5123:5157   */\n      mstore\n        /* \"#utility.yul\":5189:5192   */\n      0x80\n        /* \"#utility.yul\":5174:5193   */\n      add\n      swap1\n        /* \"#utility.yul\":4799:5199   */\n      jump\t// out\n        /* \"#utility.yul\":5204:5621   */\n    tag_85:\n        /* \"#utility.yul\":5406:5408   */\n      0x20\n        /* \"#utility.yul\":5388:5409   */\n      dup1\n      dup3\n      mstore\n        /* \"#utility.yul\":5445:5447   */\n      0x35\n        /* \"#utility.yul\":5425:5443   */\n      swap1\n      dup3\n      add\n        /* \"#utility.yul\":5418:5448   */\n      mstore\n        /* \"#utility.yul\":5484:5518   */\n      0x4d656d6f7279436f6e74726f6c3a204772616e74656520616464726573732063\n        /* \"#utility.yul\":5479:5481   */\n      0x40\n        /* \"#utility.yul\":5464:5482   */\n      dup3\n      add\n        /* \"#utility.yul\":5457:5519   */\n      mstore\n      shl(0x58, 0x616e6e6f74206265207a65726f2061646472657373)\n        /* \"#utility.yul\":5550:5552   */\n      0x60\n        /* \"#utility.yul\":5535:5553   */\n      dup3\n      add\n        /* \"#utility.yul\":5528:5579   */\n      mstore\n        /* \"#utility.yul\":5611:5614   */\n      0x80\n        /* \"#utility.yul\":5596:5615   */\n      add\n      swap1\n        /* \"#utility.yul\":5204:5621   */\n      jump\t// out\n        /* \"#utility.yul\":5915:6321   */\n    tag_91:\n        /* \"#utility.yul\":6117:6119   */\n      0x20\n        /* \"#utility.yul\":6099:6120   */\n      dup1\n      dup3\n      mstore\n        /* \"#utility.yul\":6156:6158   */\n      0x2a\n        /* \"#utility.yul\":6136:6154   */\n      swap1\n      dup3\n      add\n        /* \"#utility.yul\":6129:6159   */\n      mstore\n        /* \"#utility.yul\":6195:6229   */\n      0x4d656d6f7279436f6e74726f6c3a20446f6d61696e206e616d652063616e6e6f\n        /* \"#utility.yul\":6190:6192   */\n      0x40\n        /* \"#utility.yul\":6175:6193   */\n      dup3\n      add\n        /* \"#utility.yul\":6168:6230   */\n      mstore\n      shl(0xb0, 0x7420626520656d707479)\n        /* \"#utility.yul\":6261:6263   */\n      0x60\n        /* \"#utility.yul\":6246:6264   */\n      dup3\n      add\n        /* \"#utility.yul\":6239:6279   */\n      mstore\n        /* \"#utility.yul\":6311:6314   */\n      0x80\n        /* \"#utility.yul\":6296:6315   */\n      add\n      swap1\n        /* \"#utility.yul\":5915:6321   */\n      jump\t// out\n        /* \"#utility.yul\":7158:7576   */\n    tag_100:\n        /* \"#utility.yul\":7307:7309   */\n      0x20\n        /* \"#utility.yul\":7296:7305   */\n      dup2\n        /* \"#utility.yul\":7289:7310   */\n      mstore\n        /* \"#utility.yul\":7270:7274   */\n      0x00\n        /* \"#utility.yul\":7339:7345   */\n      dup3\n        /* \"#utility.yul\":7333:7346   */\n      mload\n        /* \"#utility.yul\":7382:7388   */\n      dup1\n        /* \"#utility.yul\":7377:7379   */\n      0x20\n        /* \"#utility.yul\":7366:7375   */\n      dup5\n        /* \"#utility.yul\":7362:7380   */\n      add\n        /* \"#utility.yul\":7355:7389   */\n      mstore\n        /* \"#utility.yul\":7441:7447   */\n      dup1\n        /* \"#utility.yul\":7436:7438   */\n      0x20\n        /* \"#utility.yul\":7428:7434   */\n      dup6\n        /* \"#utility.yul\":7424:7439   */\n      add\n        /* \"#utility.yul\":7419:7421   */\n      0x40\n        /* \"#utility.yul\":7408:7417   */\n      dup6\n        /* \"#utility.yul\":7404:7422   */\n      add\n        /* \"#utility.yul\":7398:7448   */\n      mcopy\n        /* \"#utility.yul\":7497:7498   */\n      0x00\n        /* \"#utility.yul\":7492:7494   */\n      0x40\n        /* \"#utility.yul\":7483:7489   */\n      dup3\n        /* \"#utility.yul\":7472:7481   */\n      dup6\n        /* \"#utility.yul\":7468:7490   */\n      add\n        /* \"#utility.yul\":7464:7495   */\n      add\n        /* \"#utility.yul\":7457:7499   */\n      mstore\n        /* \"#utility.yul\":7567:7569   */\n      0x40\n        /* \"#utility.yul\":7560:7562   */\n      0x1f\n        /* \"#utility.yul\":7556:7563   */\n      not\n        /* \"#utility.yul\":7551:7553   */\n      0x1f\n        /* \"#utility.yul\":7543:7549   */\n      dup4\n        /* \"#utility.yul\":7539:7554   */\n      add\n        /* \"#utility.yul\":7535:7564   */\n      and\n        /* \"#utility.yul\":7524:7533   */\n      dup5\n        /* \"#utility.yul\":7520:7565   */\n      add\n        /* \"#utility.yul\":7516:7570   */\n      add\n        /* \"#utility.yul\":7508:7570   */\n      swap2\n      pop\n      pop\n        /* \"#utility.yul\":7158:7576   */\n      swap3\n      swap2\n      pop\n      pop\n      jump\t// out\n        /* \"#utility.yul\":7581:7832   */\n    tag_104:\n        /* \"#utility.yul\":7651:7657   */\n      0x00\n        /* \"#utility.yul\":7704:7706   */\n      0x20\n        /* \"#utility.yul\":7692:7701   */\n      dup3\n        /* \"#utility.yul\":7683:7690   */\n      dup5\n        /* \"#utility.yul\":7679:7702   */\n      sub\n        /* \"#utility.yul\":7675:7707   */\n      slt\n        /* \"#utility.yul\":7672:7724   */\n      iszero\n      tag_185\n      jumpi\n        /* \"#utility.yul\":7720:7721   */\n      0x00\n        /* \"#utility.yul\":7717:7718   */\n      0x00\n        /* \"#utility.yul\":7710:7722   */\n      revert\n        /* \"#utility.yul\":7672:7724   */\n    tag_185:\n        /* \"#utility.yul\":7752:7761   */\n      dup2\n        /* \"#utility.yul\":7746:7762   */\n      mload\n        /* \"#utility.yul\":7771:7802   */\n      tag_150\n        /* \"#utility.yul\":7796:7801   */\n      dup2\n        /* \"#utility.yul\":7771:7802   */\n      tag_138\n      jump\t// in\n\n    auxdata: 0xa2646970667358221220e12ea7bb95bb98047b30ad06fa759b82ca73b8d19b2c85612067f3b29911f01664736f6c634300081c0033\n}\n",
				"bytecode": {
					"linkReferences": {},
					"object": "60a060405234801561000f575f5ffd5b50604051610ffc380380610ffc83398101604081905261002e916100bf565b6001600160a01b0381166100ae5760405162461bcd60e51b815260206004820152603560248201527f4d656d6f7279436f6e74726f6c3a20446f6d61696e207265676973747279206160448201527f6464726573732063616e6e6f74206265207a65726f0000000000000000000000606482015260840160405180910390fd5b6001600160a01b03166080526100ec565b5f602082840312156100cf575f5ffd5b81516001600160a01b03811681146100e5575f5ffd5b9392505050565b608051610ee46101185f395f818160ba0152818161062f015281816108010152610ae10152610ee45ff3fe608060405234801561000f575f5ffd5b50600436106100b1575f3560e01c80636dd644281161006e5780636dd644281461019957806374e12a86146101d3578063778146461461024157806383177db31461026e57806390e00623146102815780639a04f83914610294575f5ffd5b80630944a93d146100b55780630f26fe45146100f95780631d24eff41461010e5780632b5afa641461016057806338debead1461017357806341cde2ca14610186575b5f5ffd5b6100dc7f000000000000000000000000000000000000000000000000000000000000000081565b6040516001600160a01b0390911681526020015b60405180910390f35b61010c610107366004610bb4565b6102a7565b005b61012161011c366004610bb4565b6103e2565b6040516100f0919081516001600160a01b0390811682526020808401519083015260408084015190830152606092830151169181019190915260800190565b61010c61016e366004610be2565b610484565b61010c610181366004610ca3565b610514565b61010c610194366004610ce7565b6107c7565b6101c36101a7366004610bb4565b5f908152602081905260409020546001600160a01b0316151590565b60405190151581526020016100f0565b6102126101e1366004610bb4565b5f6020819052908152604090208054600182015460028301546003909301546001600160a01b039283169391921684565b604080516001600160a01b039586168152602081019490945283019190915290911660608201526080016100f0565b6101c361024f366004610d21565b600160209081525f928352604080842090915290825290205460ff1681565b6101c361027c366004610d58565b6108e5565b61010c61028f366004610be2565b6109ab565b61010c6102a2366004610ce7565b610aa7565b5f8181526020819052604090205481906001600160a01b031633146103395760405162461bcd60e51b815260206004820152603860248201527f4d656d6f7279436f6e74726f6c3a204f6e6c79206d656d6f7279206f776e657260448201527f2063616e20706572666f726d207468697320616374696f6e000000000000000060648201526084015b60405180910390fd5b5f8281526020819052604090205482906001600160a01b031661036e5760405162461bcd60e51b815260040161033090610d7b565b5f8381526020819052604080822080546001600160a01b0319808216835560018301859055600283018590556003909201805490921690915590516001600160a01b0390911691859183917fce43e25c3862a18fc518ceb279ba32211116b6898e5ea653f120559df2c168da91a350505050565b604080516080810182525f808252602080830182905282840182905260608301829052848252819052919091205482906001600160a01b03166104375760405162461bcd60e51b815260040161033090610d7b565b50505f9081526020818152604091829020825160808101845281546001600160a01b0390811682526001830154938201939093526002820154938101939093526003015416606082015290565b6001600160a01b0381166104aa5760405162461bcd60e51b815260040161033090610dbf565b335f8181526001602090815260408083206001600160a01b038616808552908352818420805460ff191690558151838152928301939093529192917f0a2382b7b0f44ee62df753c00034038c109332bf9b8f52418af74aa2859780fb91015b60405180910390a350565b805f8151116105355760405162461bcd60e51b815260040161033090610e14565b826105965760405162461bcd60e51b815260206004820152602b60248201527f4d656d6f7279436f6e74726f6c3a204d6574616461746120686173682063616e60448201526a6e6f74206265207a65726f60a81b6064820152608401610330565b5f838152602081905260409020546001600160a01b0316156106165760405162461bcd60e51b815260206004820152603360248201527f4d656d6f7279436f6e74726f6c3a204d656d6f727920776974682074686973206044820152726861736820616c72656164792065786973747360681b6064820152608401610330565b6040516394310e5160e01b81525f906001600160a01b037f000000000000000000000000000000000000000000000000000000000000000016906394310e5190610664908690600401610e5e565b602060405180830381865afa15801561067f573d5f5f3e3d5ffd5b505050506040513d601f19601f820116820180604052508101906106a39190610e93565b60408051608081018252338082526020808301898152428486019081526001600160a01b03808816606087018181525f8e8152808752898120985189549085166001600160a01b0319918216178a5595516001808b0191909155945160028a0155905160039098018054989093169790941696909617905583825280835285822094825293909152839020805460ff1916909217909155905191925085917f6c1a2d58efe5be4c401d24d5828cb48178c534c9aa1575f7b1d257aab89957549061076e908790610e5e565b60405180910390a3806001600160a01b0316336001600160a01b03167fc7e5c007251689b9bc3cb624f55714afc5988f3e3b4e20cc6a606d7bad6faeca856040516107b99190610e5e565b60405180910390a350505050565b805f8151116107e85760405162461bcd60e51b815260040161033090610e14565b6040516394310e5160e01b81525f906001600160a01b037f000000000000000000000000000000000000000000000000000000000000000016906394310e5190610836908690600401610e5e565b602060405180830381865afa158015610851573d5f5f3e3d5ffd5b505050506040513d601f19601f820116820180604052508101906108759190610e93565b335f8181526001602081815260408084206001600160a01b038716808652925292839020805460ff19169092179091559051929350917fc7e5c007251689b9bc3cb624f55714afc5988f3e3b4e20cc6a606d7bad6faeca906108d8908790610e5e565b60405180910390a3505050565b5f8281526020819052604081205483906001600160a01b031661091a5760405162461bcd60e51b815260040161033090610d7b565b5f8481526020818152604091829020825160808101845281546001600160a01b0390811680835260018401549483019490945260028301549482019490945260039091015483166060820152918516036109785760019250506109a4565b516001600160a01b039081165f9081526001602090815260408083209387168352929052205460ff1691505b5092915050565b6001600160a01b0381166109d15760405162461bcd60e51b815260040161033090610dbf565b336001600160a01b03821603610a405760405162461bcd60e51b815260206004820152602e60248201527f4d656d6f7279436f6e74726f6c3a2043616e6e6f74206772616e74206163636560448201526d39b9903a37903cb7bab939b2b63360911b6064820152608401610330565b335f8181526001602081815260408084206001600160a01b038716808652908352818520805460ff19169094179093558051828152918201939093529092917fc7e5c007251689b9bc3cb624f55714afc5988f3e3b4e20cc6a606d7bad6faeca9101610509565b805f815111610ac85760405162461bcd60e51b815260040161033090610e14565b6040516394310e5160e01b81525f906001600160a01b037f000000000000000000000000000000000000000000000000000000000000000016906394310e5190610b16908690600401610e5e565b602060405180830381865afa158015610b31573d5f5f3e3d5ffd5b505050506040513d601f19601f82011682018060405250810190610b559190610e93565b335f8181526001602090815260408083206001600160a01b038616808552925291829020805460ff191690559051929350917f0a2382b7b0f44ee62df753c00034038c109332bf9b8f52418af74aa2859780fb906108d8908790610e5e565b5f60208284031215610bc4575f5ffd5b5035919050565b6001600160a01b0381168114610bdf575f5ffd5b50565b5f60208284031215610bf2575f5ffd5b8135610bfd81610bcb565b9392505050565b634e487b7160e01b5f52604160045260245ffd5b5f82601f830112610c27575f5ffd5b813567ffffffffffffffff811115610c4157610c41610c04565b604051601f8201601f19908116603f0116810167ffffffffffffffff81118282101715610c7057610c70610c04565b604052818152838201602001851015610c87575f5ffd5b816020850160208301375f918101602001919091529392505050565b5f5f60408385031215610cb4575f5ffd5b82359150602083013567ffffffffffffffff811115610cd1575f5ffd5b610cdd85828601610c18565b9150509250929050565b5f60208284031215610cf7575f5ffd5b813567ffffffffffffffff811115610d0d575f5ffd5b610d1984828501610c18565b949350505050565b5f5f60408385031215610d32575f5ffd5b8235610d3d81610bcb565b91506020830135610d4d81610bcb565b809150509250929050565b5f5f60408385031215610d69575f5ffd5b823591506020830135610d4d81610bcb565b60208082526024908201527f4d656d6f7279436f6e74726f6c3a204d656d6f727920646f6573206e6f7420656040820152631e1a5cdd60e21b606082015260800190565b60208082526035908201527f4d656d6f7279436f6e74726f6c3a204772616e74656520616464726573732063604082015274616e6e6f74206265207a65726f206164647265737360581b606082015260800190565b6020808252602a908201527f4d656d6f7279436f6e74726f6c3a20446f6d61696e206e616d652063616e6e6f6040820152697420626520656d70747960b01b606082015260800190565b602081525f82518060208401528060208501604085015e5f604082850101526040601f19601f83011684010191505092915050565b5f60208284031215610ea3575f5ffd5b8151610bfd81610bcb56fea2646970667358221220e12ea7bb95bb98047b30ad06fa759b82ca73b8d19b2c85612067f3b29911f01664736f6c634300081c0033",
					"opcodes": "PUSH1 0xA0 PUSH1 0x40 MSTORE CALLVALUE DUP1 ISZERO PUSH2 0xF JUMPI PUSH0 PUSH0 REVERT JUMPDEST POP PUSH1 0x40 MLOAD PUSH2 0xFFC CODESIZE SUB DUP1 PUSH2 0xFFC DUP4 CODECOPY DUP2 ADD PUSH1 0x40 DUP2 SWAP1 MSTORE PUSH2 0x2E SWAP2 PUSH2 0xBF JUMP JUMPDEST PUSH1 0x1 PUSH1 0x1 PUSH1 0xA0 SHL SUB DUP2 AND PUSH2 0xAE JUMPI PUSH1 0x40 MLOAD PUSH3 0x461BCD PUSH1 0xE5 SHL DUP2 MSTORE PUSH1 0x20 PUSH1 0x4 DUP3 ADD MSTORE PUSH1 0x35 PUSH1 0x24 DUP3 ADD MSTORE PUSH32 0x4D656D6F7279436F6E74726F6C3A20446F6D61696E2072656769737472792061 PUSH1 0x44 DUP3 ADD MSTORE PUSH32 0x6464726573732063616E6E6F74206265207A65726F0000000000000000000000 PUSH1 0x64 DUP3 ADD MSTORE PUSH1 0x84 ADD PUSH1 0x40 MLOAD DUP1 SWAP2 SUB SWAP1 REVERT JUMPDEST PUSH1 0x1 PUSH1 0x1 PUSH1 0xA0 SHL SUB AND PUSH1 0x80 MSTORE PUSH2 0xEC JUMP JUMPDEST PUSH0 PUSH1 0x20 DUP3 DUP5 SUB SLT ISZERO PUSH2 0xCF JUMPI PUSH0 PUSH0 REVERT JUMPDEST DUP2 MLOAD PUSH1 0x1 PUSH1 0x1 PUSH1 0xA0 SHL SUB DUP2 AND DUP2 EQ PUSH2 0xE5 JUMPI PUSH0 PUSH0 REVERT JUMPDEST SWAP4 SWAP3 POP POP POP JUMP JUMPDEST PUSH1 0x80 MLOAD PUSH2 0xEE4 PUSH2 0x118 PUSH0 CODECOPY PUSH0 DUP2 DUP2 PUSH1 0xBA ADD MSTORE DUP2 DUP2 PUSH2 0x62F ADD MSTORE DUP2 DUP2 PUSH2 0x801 ADD MSTORE PUSH2 0xAE1 ADD MSTORE PUSH2 0xEE4 PUSH0 RETURN INVALID PUSH1 0x80 PUSH1 0x40 MSTORE CALLVALUE DUP1 ISZERO PUSH2 0xF JUMPI PUSH0 PUSH0 REVERT JUMPDEST POP PUSH1 0x4 CALLDATASIZE LT PUSH2 0xB1 JUMPI PUSH0 CALLDATALOAD PUSH1 0xE0 SHR DUP1 PUSH4 0x6DD64428 GT PUSH2 0x6E JUMPI DUP1 PUSH4 0x6DD64428 EQ PUSH2 0x199 JUMPI DUP1 PUSH4 0x74E12A86 EQ PUSH2 0x1D3 JUMPI DUP1 PUSH4 0x77814646 EQ PUSH2 0x241 JUMPI DUP1 PUSH4 0x83177DB3 EQ PUSH2 0x26E JUMPI DUP1 PUSH4 0x90E00623 EQ PUSH2 0x281 JUMPI DUP1 PUSH4 0x9A04F839 EQ PUSH2 0x294 JUMPI PUSH0 PUSH0 REVERT JUMPDEST DUP1 PUSH4 0x944A93D EQ PUSH2 0xB5 JUMPI DUP1 PUSH4 0xF26FE45 EQ PUSH2 0xF9 JUMPI DUP1 PUSH4 0x1D24EFF4 EQ PUSH2 0x10E JUMPI DUP1 PUSH4 0x2B5AFA64 EQ PUSH2 0x160 JUMPI DUP1 PUSH4 0x38DEBEAD EQ PUSH2 0x173 JUMPI DUP1 PUSH4 0x41CDE2CA EQ PUSH2 0x186 JUMPI JUMPDEST PUSH0 PUSH0 REVERT JUMPDEST PUSH2 0xDC PUSH32 0x0 DUP2 JUMP JUMPDEST PUSH1 0x40 MLOAD PUSH1 0x1 PUSH1 0x1 PUSH1 0xA0 SHL SUB SWAP1 SWAP2 AND DUP2 MSTORE PUSH1 0x20 ADD JUMPDEST PUSH1 0x40 MLOAD DUP1 SWAP2 SUB SWAP1 RETURN JUMPDEST PUSH2 0x10C PUSH2 0x107 CALLDATASIZE PUSH1 0x4 PUSH2 0xBB4 JUMP JUMPDEST PUSH2 0x2A7 JUMP JUMPDEST STOP JUMPDEST PUSH2 0x121 PUSH2 0x11C CALLDATASIZE PUSH1 0x4 PUSH2 0xBB4 JUMP JUMPDEST PUSH2 0x3E2 JUMP JUMPDEST PUSH1 0x40 MLOAD PUSH2 0xF0 SWAP2 SWAP1 DUP2 MLOAD PUSH1 0x1 PUSH1 0x1 PUSH1 0xA0 SHL SUB SWAP1 DUP2 AND DUP3 MSTORE PUSH1 0x20 DUP1 DUP5 ADD MLOAD SWAP1 DUP4 ADD MSTORE PUSH1 0x40 DUP1 DUP5 ADD MLOAD SWAP1 DUP4 ADD MSTORE PUSH1 0x60 SWAP3 DUP4 ADD MLOAD AND SWAP2 DUP2 ADD SWAP2 SWAP1 SWAP2 MSTORE PUSH1 0x80 ADD SWAP1 JUMP JUMPDEST PUSH2 0x10C PUSH2 0x16E CALLDATASIZE PUSH1 0x4 PUSH2 0xBE2 JUMP JUMPDEST PUSH2 0x484 JUMP JUMPDEST PUSH2 0x10C PUSH2 0x181 CALLDATASIZE PUSH1 0x4 PUSH2 0xCA3 JUMP JUMPDEST PUSH2 0x514 JUMP JUMPDEST PUSH2 0x10C PUSH2 0x194 CALLDATASIZE PUSH1 0x4 PUSH2 0xCE7 JUMP JUMPDEST PUSH2 0x7C7 JUMP JUMPDEST PUSH2 0x1C3 PUSH2 0x1A7 CALLDATASIZE PUSH1 0x4 PUSH2 0xBB4 JUMP JUMPDEST PUSH0 SWAP1 DUP2 MSTORE PUSH1 0x20 DUP2 SWAP1 MSTORE PUSH1 0x40 SWAP1 KECCAK256 SLOAD PUSH1 0x1 PUSH1 0x1 PUSH1 0xA0 SHL SUB AND ISZERO ISZERO SWAP1 JUMP JUMPDEST PUSH1 0x40 MLOAD SWAP1 ISZERO ISZERO DUP2 MSTORE PUSH1 0x20 ADD PUSH2 0xF0 JUMP JUMPDEST PUSH2 0x212 PUSH2 0x1E1 CALLDATASIZE PUSH1 0x4 PUSH2 0xBB4 JUMP JUMPDEST PUSH0 PUSH1 0x20 DUP2 SWAP1 MSTORE SWAP1 DUP2 MSTORE PUSH1 0x40 SWAP1 KECCAK256 DUP1 SLOAD PUSH1 0x1 DUP3 ADD SLOAD PUSH1 0x2 DUP4 ADD SLOAD PUSH1 0x3 SWAP1 SWAP4 ADD SLOAD PUSH1 0x1 PUSH1 0x1 PUSH1 0xA0 SHL SUB SWAP3 DUP4 AND SWAP4 SWAP2 SWAP3 AND DUP5 JUMP JUMPDEST PUSH1 0x40 DUP1 MLOAD PUSH1 0x1 PUSH1 0x1 PUSH1 0xA0 SHL SUB SWAP6 DUP7 AND DUP2 MSTORE PUSH1 0x20 DUP2 ADD SWAP5 SWAP1 SWAP5 MSTORE DUP4 ADD SWAP2 SWAP1 SWAP2 MSTORE SWAP1 SWAP2 AND PUSH1 0x60 DUP3 ADD MSTORE PUSH1 0x80 ADD PUSH2 0xF0 JUMP JUMPDEST PUSH2 0x1C3 PUSH2 0x24F CALLDATASIZE PUSH1 0x4 PUSH2 0xD21 JUMP JUMPDEST PUSH1 0x1 PUSH1 0x20 SWAP1 DUP2 MSTORE PUSH0 SWAP3 DUP4 MSTORE PUSH1 0x40 DUP1 DUP5 KECCAK256 SWAP1 SWAP2 MSTORE SWAP1 DUP3 MSTORE SWAP1 KECCAK256 SLOAD PUSH1 0xFF AND DUP2 JUMP JUMPDEST PUSH2 0x1C3 PUSH2 0x27C CALLDATASIZE PUSH1 0x4 PUSH2 0xD58 JUMP JUMPDEST PUSH2 0x8E5 JUMP JUMPDEST PUSH2 0x10C PUSH2 0x28F CALLDATASIZE PUSH1 0x4 PUSH2 0xBE2 JUMP JUMPDEST PUSH2 0x9AB JUMP JUMPDEST PUSH2 0x10C PUSH2 0x2A2 CALLDATASIZE PUSH1 0x4 PUSH2 0xCE7 JUMP JUMPDEST PUSH2 0xAA7 JUMP JUMPDEST PUSH0 DUP2 DUP2 MSTORE PUSH1 0x20 DUP2 SWAP1 MSTORE PUSH1 0x40 SWAP1 KECCAK256 SLOAD DUP2 SWAP1 PUSH1 0x1 PUSH1 0x1 PUSH1 0xA0 SHL SUB AND CALLER EQ PUSH2 0x339 JUMPI PUSH1 0x40 MLOAD PUSH3 0x461BCD PUSH1 0xE5 SHL DUP2 MSTORE PUSH1 0x20 PUSH1 0x4 DUP3 ADD MSTORE PUSH1 0x38 PUSH1 0x24 DUP3 ADD MSTORE PUSH32 0x4D656D6F7279436F6E74726F6C3A204F6E6C79206D656D6F7279206F776E6572 PUSH1 0x44 DUP3 ADD MSTORE PUSH32 0x2063616E20706572666F726D207468697320616374696F6E0000000000000000 PUSH1 0x64 DUP3 ADD MSTORE PUSH1 0x84 ADD JUMPDEST PUSH1 0x40 MLOAD DUP1 SWAP2 SUB SWAP1 REVERT JUMPDEST PUSH0 DUP3 DUP2 MSTORE PUSH1 0x20 DUP2 SWAP1 MSTORE PUSH1 0x40 SWAP1 KECCAK256 SLOAD DUP3 SWAP1 PUSH1 0x1 PUSH1 0x1 PUSH1 0xA0 SHL SUB AND PUSH2 0x36E JUMPI PUSH1 0x40 MLOAD PUSH3 0x461BCD PUSH1 0xE5 SHL DUP2 MSTORE PUSH1 0x4 ADD PUSH2 0x330 SWAP1 PUSH2 0xD7B JUMP JUMPDEST PUSH0 DUP4 DUP2 MSTORE PUSH1 0x20 DUP2 SWAP1 MSTORE PUSH1 0x40 DUP1 DUP3 KECCAK256 DUP1 SLOAD PUSH1 0x1 PUSH1 0x1 PUSH1 0xA0 SHL SUB NOT DUP1 DUP3 AND DUP4 SSTORE PUSH1 0x1 DUP4 ADD DUP6 SWAP1 SSTORE PUSH1 0x2 DUP4 ADD DUP6 SWAP1 SSTORE PUSH1 0x3 SWAP1 SWAP3 ADD DUP1 SLOAD SWAP1 SWAP3 AND SWAP1 SWAP2 SSTORE SWAP1 MLOAD PUSH1 0x1 PUSH1 0x1 PUSH1 0xA0 SHL SUB SWAP1 SWAP2 AND SWAP2 DUP6 SWAP2 DUP4 SWAP2 PUSH32 0xCE43E25C3862A18FC518CEB279BA32211116B6898E5EA653F120559DF2C168DA SWAP2 LOG3 POP POP POP POP JUMP JUMPDEST PUSH1 0x40 DUP1 MLOAD PUSH1 0x80 DUP2 ADD DUP3 MSTORE PUSH0 DUP1 DUP3 MSTORE PUSH1 0x20 DUP1 DUP4 ADD DUP3 SWAP1 MSTORE DUP3 DUP5 ADD DUP3 SWAP1 MSTORE PUSH1 0x60 DUP4 ADD DUP3 SWAP1 MSTORE DUP5 DUP3 MSTORE DUP2 SWAP1 MSTORE SWAP2 SWAP1 SWAP2 KECCAK256 SLOAD DUP3 SWAP1 PUSH1 0x1 PUSH1 0x1 PUSH1 0xA0 SHL SUB AND PUSH2 0x437 JUMPI PUSH1 0x40 MLOAD PUSH3 0x461BCD PUSH1 0xE5 SHL DUP2 MSTORE PUSH1 0x4 ADD PUSH2 0x330 SWAP1 PUSH2 0xD7B JUMP JUMPDEST POP POP PUSH0 SWAP1 DUP2 MSTORE PUSH1 0x20 DUP2 DUP2 MSTORE PUSH1 0x40 SWAP2 DUP3 SWAP1 KECCAK256 DUP3 MLOAD PUSH1 0x80 DUP2 ADD DUP5 MSTORE DUP2 SLOAD PUSH1 0x1 PUSH1 0x1 PUSH1 0xA0 SHL SUB SWAP1 DUP2 AND DUP3 MSTORE PUSH1 0x1 DUP4 ADD SLOAD SWAP4 DUP3 ADD SWAP4 SWAP1 SWAP4 MSTORE PUSH1 0x2 DUP3 ADD SLOAD SWAP4 DUP2 ADD SWAP4 SWAP1 SWAP4 MSTORE PUSH1 0x3 ADD SLOAD AND PUSH1 0x60 DUP3 ADD MSTORE SWAP1 JUMP JUMPDEST PUSH1 0x1 PUSH1 0x1 PUSH1 0xA0 SHL SUB DUP2 AND PUSH2 0x4AA JUMPI PUSH1 0x40 MLOAD PUSH3 0x461BCD PUSH1 0xE5 SHL DUP2 MSTORE PUSH1 0x4 ADD PUSH2 0x330 SWAP1 PUSH2 0xDBF JUMP JUMPDEST CALLER PUSH0 DUP2 DUP2 MSTORE PUSH1 0x1 PUSH1 0x20 SWAP1 DUP2 MSTORE PUSH1 0x40 DUP1 DUP4 KECCAK256 PUSH1 0x1 PUSH1 0x1 PUSH1 0xA0 SHL SUB DUP7 AND DUP1 DUP6 MSTORE SWAP1 DUP4 MSTORE DUP2 DUP5 KECCAK256 DUP1 SLOAD PUSH1 0xFF NOT AND SWAP1 SSTORE DUP2 MLOAD DUP4 DUP2 MSTORE SWAP3 DUP4 ADD SWAP4 SWAP1 SWAP4 MSTORE SWAP2 SWAP3 SWAP2 PUSH32 0xA2382B7B0F44EE62DF753C00034038C109332BF9B8F52418AF74AA2859780FB SWAP2 ADD JUMPDEST PUSH1 0x40 MLOAD DUP1 SWAP2 SUB SWAP1 LOG3 POP JUMP JUMPDEST DUP1 PUSH0 DUP2 MLOAD GT PUSH2 0x535 JUMPI PUSH1 0x40 MLOAD PUSH3 0x461BCD PUSH1 0xE5 SHL DUP2 MSTORE PUSH1 0x4 ADD PUSH2 0x330 SWAP1 PUSH2 0xE14 JUMP JUMPDEST DUP3 PUSH2 0x596 JUMPI PUSH1 0x40 MLOAD PUSH3 0x461BCD PUSH1 0xE5 SHL DUP2 MSTORE PUSH1 0x20 PUSH1 0x4 DUP3 ADD MSTORE PUSH1 0x2B PUSH1 0x24 DUP3 ADD MSTORE PUSH32 0x4D656D6F7279436F6E74726F6C3A204D6574616461746120686173682063616E PUSH1 0x44 DUP3 ADD MSTORE PUSH11 0x6E6F74206265207A65726F PUSH1 0xA8 SHL PUSH1 0x64 DUP3 ADD MSTORE PUSH1 0x84 ADD PUSH2 0x330 JUMP JUMPDEST PUSH0 DUP4 DUP2 MSTORE PUSH1 0x20 DUP2 SWAP1 MSTORE PUSH1 0x40 SWAP1 KECCAK256 SLOAD PUSH1 0x1 PUSH1 0x1 PUSH1 0xA0 SHL SUB AND ISZERO PUSH2 0x616 JUMPI PUSH1 0x40 MLOAD PUSH3 0x461BCD PUSH1 0xE5 SHL DUP2 MSTORE PUSH1 0x20 PUSH1 0x4 DUP3 ADD MSTORE PUSH1 0x33 PUSH1 0x24 DUP3 ADD MSTORE PUSH32 0x4D656D6F7279436F6E74726F6C3A204D656D6F72792077697468207468697320 PUSH1 0x44 DUP3 ADD MSTORE PUSH19 0x6861736820616C726561647920657869737473 PUSH1 0x68 SHL PUSH1 0x64 DUP3 ADD MSTORE PUSH1 0x84 ADD PUSH2 0x330 JUMP JUMPDEST PUSH1 0x40 MLOAD PUSH4 0x94310E51 PUSH1 0xE0 SHL DUP2 MSTORE PUSH0 SWAP1 PUSH1 0x1 PUSH1 0x1 PUSH1 0xA0 SHL SUB PUSH32 0x0 AND SWAP1 PUSH4 0x94310E51 SWAP1 PUSH2 0x664 SWAP1 DUP7 SWAP1 PUSH1 0x4 ADD PUSH2 0xE5E JUMP JUMPDEST PUSH1 0x20 PUSH1 0x40 MLOAD DUP1 DUP4 SUB DUP2 DUP7 GAS STATICCALL ISZERO DUP1 ISZERO PUSH2 0x67F JUMPI RETURNDATASIZE PUSH0 PUSH0 RETURNDATACOPY RETURNDATASIZE PUSH0 REVERT JUMPDEST POP POP POP POP PUSH1 0x40 MLOAD RETURNDATASIZE PUSH1 0x1F NOT PUSH1 0x1F DUP3 ADD AND DUP3 ADD DUP1 PUSH1 0x40 MSTORE POP DUP2 ADD SWAP1 PUSH2 0x6A3 SWAP2 SWAP1 PUSH2 0xE93 JUMP JUMPDEST PUSH1 0x40 DUP1 MLOAD PUSH1 0x80 DUP2 ADD DUP3 MSTORE CALLER DUP1 DUP3 MSTORE PUSH1 0x20 DUP1 DUP4 ADD DUP10 DUP2 MSTORE TIMESTAMP DUP5 DUP7 ADD SWAP1 DUP2 MSTORE PUSH1 0x1 PUSH1 0x1 PUSH1 0xA0 SHL SUB DUP1 DUP9 AND PUSH1 0x60 DUP8 ADD DUP2 DUP2 MSTORE PUSH0 DUP15 DUP2 MSTORE DUP1 DUP8 MSTORE DUP10 DUP2 KECCAK256 SWAP9 MLOAD DUP10 SLOAD SWAP1 DUP6 AND PUSH1 0x1 PUSH1 0x1 PUSH1 0xA0 SHL SUB NOT SWAP2 DUP3 AND OR DUP11 SSTORE SWAP6 MLOAD PUSH1 0x1 DUP1 DUP12 ADD SWAP2 SWAP1 SWAP2 SSTORE SWAP5 MLOAD PUSH1 0x2 DUP11 ADD SSTORE SWAP1 MLOAD PUSH1 0x3 SWAP1 SWAP9 ADD DUP1 SLOAD SWAP9 SWAP1 SWAP4 AND SWAP8 SWAP1 SWAP5 AND SWAP7 SWAP1 SWAP7 OR SWAP1 SSTORE DUP4 DUP3 MSTORE DUP1 DUP4 MSTORE DUP6 DUP3 KECCAK256 SWAP5 DUP3 MSTORE SWAP4 SWAP1 SWAP2 MSTORE DUP4 SWAP1 KECCAK256 DUP1 SLOAD PUSH1 0xFF NOT AND SWAP1 SWAP3 OR SWAP1 SWAP2 SSTORE SWAP1 MLOAD SWAP2 SWAP3 POP DUP6 SWAP2 PUSH32 0x6C1A2D58EFE5BE4C401D24D5828CB48178C534C9AA1575F7B1D257AAB8995754 SWAP1 PUSH2 0x76E SWAP1 DUP8 SWAP1 PUSH2 0xE5E JUMP JUMPDEST PUSH1 0x40 MLOAD DUP1 SWAP2 SUB SWAP1 LOG3 DUP1 PUSH1 0x1 PUSH1 0x1 PUSH1 0xA0 SHL SUB AND CALLER PUSH1 0x1 PUSH1 0x1 PUSH1 0xA0 SHL SUB AND PUSH32 0xC7E5C007251689B9BC3CB624F55714AFC5988F3E3B4E20CC6A606D7BAD6FAECA DUP6 PUSH1 0x40 MLOAD PUSH2 0x7B9 SWAP2 SWAP1 PUSH2 0xE5E JUMP JUMPDEST PUSH1 0x40 MLOAD DUP1 SWAP2 SUB SWAP1 LOG3 POP POP POP POP JUMP JUMPDEST DUP1 PUSH0 DUP2 MLOAD GT PUSH2 0x7E8 JUMPI PUSH1 0x40 MLOAD PUSH3 0x461BCD PUSH1 0xE5 SHL DUP2 MSTORE PUSH1 0x4 ADD PUSH2 0x330 SWAP1 PUSH2 0xE14 JUMP JUMPDEST PUSH1 0x40 MLOAD PUSH4 0x94310E51 PUSH1 0xE0 SHL DUP2 MSTORE PUSH0 SWAP1 PUSH1 0x1 PUSH1 0x1 PUSH1 0xA0 SHL SUB PUSH32 0x0 AND SWAP1 PUSH4 0x94310E51 SWAP1 PUSH2 0x836 SWAP1 DUP7 SWAP1 PUSH1 0x4 ADD PUSH2 0xE5E JUMP JUMPDEST PUSH1 0x20 PUSH1 0x40 MLOAD DUP1 DUP4 SUB DUP2 DUP7 GAS STATICCALL ISZERO DUP1 ISZERO PUSH2 0x851 JUMPI RETURNDATASIZE PUSH0 PUSH0 RETURNDATACOPY RETURNDATASIZE PUSH0 REVERT JUMPDEST POP POP POP POP PUSH1 0x40 MLOAD RETURNDATASIZE PUSH1 0x1F NOT PUSH1 0x1F DUP3 ADD AND DUP3 ADD DUP1 PUSH1 0x40 MSTORE POP DUP2 ADD SWAP1 PUSH2 0x875 SWAP2 SWAP1 PUSH2 0xE93 JUMP JUMPDEST CALLER PUSH0 DUP2 DUP2 MSTORE PUSH1 0x1 PUSH1 0x20 DUP2 DUP2 MSTORE PUSH1 0x40 DUP1 DUP5 KECCAK256 PUSH1 0x1 PUSH1 0x1 PUSH1 0xA0 SHL SUB DUP8 AND DUP1 DUP7 MSTORE SWAP3 MSTORE SWAP3 DUP4 SWAP1 KECCAK256 DUP1 SLOAD PUSH1 0xFF NOT AND SWAP1 SWAP3 OR SWAP1 SWAP2 SSTORE SWAP1 MLOAD SWAP3 SWAP4 POP SWAP2 PUSH32 0xC7E5C007251689B9BC3CB624F55714AFC5988F3E3B4E20CC6A606D7BAD6FAECA SWAP1 PUSH2 0x8D8 SWAP1 DUP8 SWAP1 PUSH2 0xE5E JUMP JUMPDEST PUSH1 0x40 MLOAD DUP1 SWAP2 SUB SWAP1 LOG3 POP POP POP JUMP JUMPDEST PUSH0 DUP3 DUP2 MSTORE PUSH1 0x20 DUP2 SWAP1 MSTORE PUSH1 0x40 DUP2 KECCAK256 SLOAD DUP4 SWAP1 PUSH1 0x1 PUSH1 0x1 PUSH1 0xA0 SHL SUB AND PUSH2 0x91A JUMPI PUSH1 0x40 MLOAD PUSH3 0x461BCD PUSH1 0xE5 SHL DUP2 MSTORE PUSH1 0x4 ADD PUSH2 0x330 SWAP1 PUSH2 0xD7B JUMP JUMPDEST PUSH0 DUP5 DUP2 MSTORE PUSH1 0x20 DUP2 DUP2 MSTORE PUSH1 0x40 SWAP2 DUP3 SWAP1 KECCAK256 DUP3 MLOAD PUSH1 0x80 DUP2 ADD DUP5 MSTORE DUP2 SLOAD PUSH1 0x1 PUSH1 0x1 PUSH1 0xA0 SHL SUB SWAP1 DUP2 AND DUP1 DUP4 MSTORE PUSH1 0x1 DUP5 ADD SLOAD SWAP5 DUP4 ADD SWAP5 SWAP1 SWAP5 MSTORE PUSH1 0x2 DUP4 ADD SLOAD SWAP5 DUP3 ADD SWAP5 SWAP1 SWAP5 MSTORE PUSH1 0x3 SWAP1 SWAP2 ADD SLOAD DUP4 AND PUSH1 0x60 DUP3 ADD MSTORE SWAP2 DUP6 AND SUB PUSH2 0x978 JUMPI PUSH1 0x1 SWAP3 POP POP PUSH2 0x9A4 JUMP JUMPDEST MLOAD PUSH1 0x1 PUSH1 0x1 PUSH1 0xA0 SHL SUB SWAP1 DUP2 AND PUSH0 SWAP1 DUP2 MSTORE PUSH1 0x1 PUSH1 0x20 SWAP1 DUP2 MSTORE PUSH1 0x40 DUP1 DUP4 KECCAK256 SWAP4 DUP8 AND DUP4 MSTORE SWAP3 SWAP1 MSTORE KECCAK256 SLOAD PUSH1 0xFF AND SWAP2 POP JUMPDEST POP SWAP3 SWAP2 POP POP JUMP JUMPDEST PUSH1 0x1 PUSH1 0x1 PUSH1 0xA0 SHL SUB DUP2 AND PUSH2 0x9D1 JUMPI PUSH1 0x40 MLOAD PUSH3 0x461BCD PUSH1 0xE5 SHL DUP2 MSTORE PUSH1 0x4 ADD PUSH2 0x330 SWAP1 PUSH2 0xDBF JUMP JUMPDEST CALLER PUSH1 0x1 PUSH1 0x1 PUSH1 0xA0 SHL SUB DUP3 AND SUB PUSH2 0xA40 JUMPI PUSH1 0x40 MLOAD PUSH3 0x461BCD PUSH1 0xE5 SHL DUP2 MSTORE PUSH1 0x20 PUSH1 0x4 DUP3 ADD MSTORE PUSH1 0x2E PUSH1 0x24 DUP3 ADD MSTORE PUSH32 0x4D656D6F7279436F6E74726F6C3A2043616E6E6F74206772616E742061636365 PUSH1 0x44 DUP3 ADD MSTORE PUSH14 0x39B9903A37903CB7BAB939B2B633 PUSH1 0x91 SHL PUSH1 0x64 DUP3 ADD MSTORE PUSH1 0x84 ADD PUSH2 0x330 JUMP JUMPDEST CALLER PUSH0 DUP2 DUP2 MSTORE PUSH1 0x1 PUSH1 0x20 DUP2 DUP2 MSTORE PUSH1 0x40 DUP1 DUP5 KECCAK256 PUSH1 0x1 PUSH1 0x1 PUSH1 0xA0 SHL SUB DUP8 AND DUP1 DUP7 MSTORE SWAP1 DUP4 MSTORE DUP2 DUP6 KECCAK256 DUP1 SLOAD PUSH1 0xFF NOT AND SWAP1 SWAP5 OR SWAP1 SWAP4 SSTORE DUP1 MLOAD DUP3 DUP2 MSTORE SWAP2 DUP3 ADD SWAP4 SWAP1 SWAP4 MSTORE SWAP1 SWAP3 SWAP2 PUSH32 0xC7E5C007251689B9BC3CB624F55714AFC5988F3E3B4E20CC6A606D7BAD6FAECA SWAP2 ADD PUSH2 0x509 JUMP JUMPDEST DUP1 PUSH0 DUP2 MLOAD GT PUSH2 0xAC8 JUMPI PUSH1 0x40 MLOAD PUSH3 0x461BCD PUSH1 0xE5 SHL DUP2 MSTORE PUSH1 0x4 ADD PUSH2 0x330 SWAP1 PUSH2 0xE14 JUMP JUMPDEST PUSH1 0x40 MLOAD PUSH4 0x94310E51 PUSH1 0xE0 SHL DUP2 MSTORE PUSH0 SWAP1 PUSH1 0x1 PUSH1 0x1 PUSH1 0xA0 SHL SUB PUSH32 0x0 AND SWAP1 PUSH4 0x94310E51 SWAP1 PUSH2 0xB16 SWAP1 DUP7 SWAP1 PUSH1 0x4 ADD PUSH2 0xE5E JUMP JUMPDEST PUSH1 0x20 PUSH1 0x40 MLOAD DUP1 DUP4 SUB DUP2 DUP7 GAS STATICCALL ISZERO DUP1 ISZERO PUSH2 0xB31 JUMPI RETURNDATASIZE PUSH0 PUSH0 RETURNDATACOPY RETURNDATASIZE PUSH0 REVERT JUMPDEST POP POP POP POP PUSH1 0x40 MLOAD RETURNDATASIZE PUSH1 0x1F NOT PUSH1 0x1F DUP3 ADD AND DUP3 ADD DUP1 PUSH1 0x40 MSTORE POP DUP2 ADD SWAP1 PUSH2 0xB55 SWAP2 SWAP1 PUSH2 0xE93 JUMP JUMPDEST CALLER PUSH0 DUP2 DUP2 MSTORE PUSH1 0x1 PUSH1 0x20 SWAP1 DUP2 MSTORE PUSH1 0x40 DUP1 DUP4 KECCAK256 PUSH1 0x1 PUSH1 0x1 PUSH1 0xA0 SHL SUB DUP7 AND DUP1 DUP6 MSTORE SWAP3 MSTORE SWAP2 DUP3 SWAP1 KECCAK256 DUP1 SLOAD PUSH1 0xFF NOT AND SWAP1 SSTORE SWAP1 MLOAD SWAP3 SWAP4 POP SWAP2 PUSH32 0xA2382B7B0F44EE62DF753C00034038C109332BF9B8F52418AF74AA2859780FB SWAP1 PUSH2 0x8D8 SWAP1 DUP8 SWAP1 PUSH2 0xE5E JUMP JUMPDEST PUSH0 PUSH1 0x20 DUP3 DUP5 SUB SLT ISZERO PUSH2 0xBC4 JUMPI PUSH0 PUSH0 REVERT JUMPDEST POP CALLDATALOAD SWAP2 SWAP1 POP JUMP JUMPDEST PUSH1 0x1 PUSH1 0x1 PUSH1 0xA0 SHL SUB DUP2 AND DUP2 EQ PUSH2 0xBDF JUMPI PUSH0 PUSH0 REVERT JUMPDEST POP JUMP JUMPDEST PUSH0 PUSH1 0x20 DUP3 DUP5 SUB SLT ISZERO PUSH2 0xBF2 JUMPI PUSH0 PUSH0 REVERT JUMPDEST DUP2 CALLDATALOAD PUSH2 0xBFD DUP2 PUSH2 0xBCB JUMP JUMPDEST SWAP4 SWAP3 POP POP POP JUMP JUMPDEST PUSH4 0x4E487B71 PUSH1 0xE0 SHL PUSH0 MSTORE PUSH1 0x41 PUSH1 0x4 MSTORE PUSH1 0x24 PUSH0 REVERT JUMPDEST PUSH0 DUP3 PUSH1 0x1F DUP4 ADD SLT PUSH2 0xC27 JUMPI PUSH0 PUSH0 REVERT JUMPDEST DUP2 CALLDATALOAD PUSH8 0xFFFFFFFFFFFFFFFF DUP2 GT ISZERO PUSH2 0xC41 JUMPI PUSH2 0xC41 PUSH2 0xC04 JUMP JUMPDEST PUSH1 0x40 MLOAD PUSH1 0x1F DUP3 ADD PUSH1 0x1F NOT SWAP1 DUP2 AND PUSH1 0x3F ADD AND DUP2 ADD PUSH8 0xFFFFFFFFFFFFFFFF DUP2 GT DUP3 DUP3 LT OR ISZERO PUSH2 0xC70 JUMPI PUSH2 0xC70 PUSH2 0xC04 JUMP JUMPDEST PUSH1 0x40 MSTORE DUP2 DUP2 MSTORE DUP4 DUP3 ADD PUSH1 0x20 ADD DUP6 LT ISZERO PUSH2 0xC87 JUMPI PUSH0 PUSH0 REVERT JUMPDEST DUP2 PUSH1 0x20 DUP6 ADD PUSH1 0x20 DUP4 ADD CALLDATACOPY PUSH0 SWAP2 DUP2 ADD PUSH1 0x20 ADD SWAP2 SWAP1 SWAP2 MSTORE SWAP4 SWAP3 POP POP POP JUMP JUMPDEST PUSH0 PUSH0 PUSH1 0x40 DUP4 DUP6 SUB SLT ISZERO PUSH2 0xCB4 JUMPI PUSH0 PUSH0 REVERT JUMPDEST DUP3 CALLDATALOAD SWAP2 POP PUSH1 0x20 DUP4 ADD CALLDATALOAD PUSH8 0xFFFFFFFFFFFFFFFF DUP2 GT ISZERO PUSH2 0xCD1 JUMPI PUSH0 PUSH0 REVERT JUMPDEST PUSH2 0xCDD DUP6 DUP3 DUP7 ADD PUSH2 0xC18 JUMP JUMPDEST SWAP2 POP POP SWAP3 POP SWAP3 SWAP1 POP JUMP JUMPDEST PUSH0 PUSH1 0x20 DUP3 DUP5 SUB SLT ISZERO PUSH2 0xCF7 JUMPI PUSH0 PUSH0 REVERT JUMPDEST DUP2 CALLDATALOAD PUSH8 0xFFFFFFFFFFFFFFFF DUP2 GT ISZERO PUSH2 0xD0D JUMPI PUSH0 PUSH0 REVERT JUMPDEST PUSH2 0xD19 DUP5 DUP3 DUP6 ADD PUSH2 0xC18 JUMP JUMPDEST SWAP5 SWAP4 POP POP POP POP JUMP JUMPDEST PUSH0 PUSH0 PUSH1 0x40 DUP4 DUP6 SUB SLT ISZERO PUSH2 0xD32 JUMPI PUSH0 PUSH0 REVERT JUMPDEST DUP3 CALLDATALOAD PUSH2 0xD3D DUP2 PUSH2 0xBCB JUMP JUMPDEST SWAP2 POP PUSH1 0x20 DUP4 ADD CALLDATALOAD PUSH2 0xD4D DUP2 PUSH2 0xBCB JUMP JUMPDEST DUP1 SWAP2 POP POP SWAP3 POP SWAP3 SWAP1 POP JUMP JUMPDEST PUSH0 PUSH0 PUSH1 0x40 DUP4 DUP6 SUB SLT ISZERO PUSH2 0xD69 JUMPI PUSH0 PUSH0 REVERT JUMPDEST DUP3 CALLDATALOAD SWAP2 POP PUSH1 0x20 DUP4 ADD CALLDATALOAD PUSH2 0xD4D DUP2 PUSH2 0xBCB JUMP JUMPDEST PUSH1 0x20 DUP1 DUP3 MSTORE PUSH1 0x24 SWAP1 DUP3 ADD MSTORE PUSH32 0x4D656D6F7279436F6E74726F6C3A204D656D6F727920646F6573206E6F742065 PUSH1 0x40 DUP3 ADD MSTORE PUSH4 0x1E1A5CDD PUSH1 0xE2 SHL PUSH1 0x60 DUP3 ADD MSTORE PUSH1 0x80 ADD SWAP1 JUMP JUMPDEST PUSH1 0x20 DUP1 DUP3 MSTORE PUSH1 0x35 SWAP1 DUP3 ADD MSTORE PUSH32 0x4D656D6F7279436F6E74726F6C3A204772616E74656520616464726573732063 PUSH1 0x40 DUP3 ADD MSTORE PUSH21 0x616E6E6F74206265207A65726F2061646472657373 PUSH1 0x58 SHL PUSH1 0x60 DUP3 ADD MSTORE PUSH1 0x80 ADD SWAP1 JUMP JUMPDEST PUSH1 0x20 DUP1 DUP3 MSTORE PUSH1 0x2A SWAP1 DUP3 ADD MSTORE PUSH32 0x4D656D6F7279436F6E74726F6C3A20446F6D61696E206E616D652063616E6E6F PUSH1 0x40 DUP3 ADD MSTORE PUSH10 0x7420626520656D707479 PUSH1 0xB0 SHL PUSH1 0x60 DUP3 ADD MSTORE PUSH1 0x80 ADD SWAP1 JUMP JUMPDEST PUSH1 0x20 DUP2 MSTORE PUSH0 DUP3 MLOAD DUP1 PUSH1 0x20 DUP5 ADD MSTORE DUP1 PUSH1 0x20 DUP6 ADD PUSH1 0x40 DUP6 ADD MCOPY PUSH0 PUSH1 0x40 DUP3 DUP6 ADD ADD MSTORE PUSH1 0x40 PUSH1 0x1F NOT PUSH1 0x1F DUP4 ADD AND DUP5 ADD ADD SWAP2 POP POP SWAP3 SWAP2 POP POP JUMP JUMPDEST PUSH0 PUSH1 0x20 DUP3 DUP5 SUB SLT ISZERO PUSH2 0xEA3 JUMPI PUSH0 PUSH0 REVERT JUMPDEST DUP2 MLOAD PUSH2 0xBFD DUP2 PUSH2 0xBCB JUMP INVALID LOG2 PUSH5 0x6970667358 0x22 SLT KECCAK256 0xE1 0x2E 0xA7 0xBB SWAP6 0xBB SWAP9 DIV PUSH28 0x30AD06FA759B82CA73B8D19B2C85612067F3B29911F01664736F6C63 NUMBER STOP ADDMOD SHR STOP CALLER "
				},
				"gasEstimates": {
					"creation": {
						"codeDepositCost": "762400",
						"executionCost": "infinite",
						"totalCost": "infinite"
					},
					"external": {
						"accessList(address,address)": "infinite",
						"addMemory(bytes32,string)": "infinite",
						"deleteMemory(bytes32)": "64791",
						"domainRegistry()": "infinite",
						"getMemory(bytes32)": "11401",
						"grantAccessToDomain(string)": "infinite",
						"grantAccessToUser(address)": "26957",
						"hasAccess(bytes32,address)": "13618",
						"isMemoryExists(bytes32)": "2468",
						"memories(bytes32)": "8922",
						"revokeAccessFromDomain(string)": "infinite",
						"revokeAccessFromUser(address)": "26873"
					}
				},
				"methodIdentifiers": {
					"accessList(address,address)": "77814646",
					"addMemory(bytes32,string)": "38debead",
					"deleteMemory(bytes32)": "0f26fe45",
					"domainRegistry()": "0944a93d",
					"getMemory(bytes32)": "1d24eff4",
					"grantAccessToDomain(string)": "41cde2ca",
					"grantAccessToUser(address)": "90e00623",
					"hasAccess(bytes32,address)": "83177db3",
					"isMemoryExists(bytes32)": "6dd64428",
					"memories(bytes32)": "74e12a86",
					"revokeAccessFromDomain(string)": "9a04f839",
					"revokeAccessFromUser(address)": "2b5afa64"
				}
			},
			"storageLayout": {
				"storage": [
					{
						"astId": 32,
						"contract": "contracts/MemoryControl.sol:MemoryControl",
						"label": "memories",
						"offset": 0,
						"slot": "0",
						"type": "t_mapping(t_bytes32,t_struct(Memory)27_storage)"
					},
					{
						"astId": 38,
						"contract": "contracts/MemoryControl.sol:MemoryControl",
						"label": "accessList",
						"offset": 0,
						"slot": "1",
						"type": "t_mapping(t_address,t_mapping(t_address,t_bool))"
					}
				],
				"types": {
					"t_address": {
						"encoding": "inplace",
						"label": "address",
						"numberOfBytes": "20"
					},
					"t_bool": {
						"encoding": "inplace",
						"label": "bool",
						"numberOfBytes": "1"
					},
					"t_bytes32": {
						"encoding": "inplace",
						"label": "bytes32",
						"numberOfBytes": "32"
					},
					"t_mapping(t_address,t_bool)": {
						"encoding": "mapping",
						"key": "t_address",
						"label": "mapping(address => bool)",
						"numberOfBytes": "32",
						"value": "t_bool"
					},
					"t_mapping(t_address,t_mapping(t_address,t_bool))": {
						"encoding": "mapping",
						"key": "t_address",
						"label": "mapping(address => mapping(address => bool))",
						"numberOfBytes": "32",
						"value": "t_mapping(t_address,t_bool)"
					},
					"t_mapping(t_bytes32,t_struct(Memory)27_storage)": {
						"encoding": "mapping",
						"key": "t_bytes32",
						"label": "mapping(bytes32 => struct MemoryControl.Memory)",
						"numberOfBytes": "32",
						"value": "t_struct(Memory)27_storage"
					},
					"t_struct(Memory)27_storage": {
						"encoding": "inplace",
						"label": "struct MemoryControl.Memory",
						"members": [
							{
								"astId": 20,
								"contract": "contracts/MemoryControl.sol:MemoryControl",
								"label": "owner",
								"offset": 0,
								"slot": "0",
								"type": "t_address"
							},
							{
								"astId": 22,
								"contract": "contracts/MemoryControl.sol:MemoryControl",
								"label": "metadataHash",
								"offset": 0,
								"slot": "1",
								"type": "t_bytes32"
							},
							{
								"astId": 24,
								"contract": "contracts/MemoryControl.sol:MemoryControl",
								"label": "createdAt",
								"offset": 0,
								"slot": "2",
								"type": "t_uint256"
							},
							{
								"astId": 26,
								"contract": "contracts/MemoryControl.sol:MemoryControl",
								"label": "sourceDomain",
								"offset": 0,
								"slot": "3",
								"type": "t_address"
							}
						],
						"numberOfBytes": "128"
					},
					"t_uint256": {
						"encoding": "inplace",
						"label": "uint256",
						"numberOfBytes": "32"
					}
				}
			},
			"userdoc": {
				"kind": "user",
				"methods": {},
				"version": 1
			}
		}
	}
}